{
	"data": {
		"bytecode": {
			"linkReferences": {},
			"object": "608060405234801561000f575f80fd5b506040516144ae3803806144ae833981810160405281019061003191906101ef565b8181815f90816100419190610472565b5080600190816100519190610472565b5050503360065f6101000a81548173ffffffffffffffffffffffffffffffffffffffff021916908373ffffffffffffffffffffffffffffffffffffffff1602179055505f600a819055505050610541565b5f604051905090565b5f80fd5b5f80fd5b5f80fd5b5f80fd5b5f601f19601f8301169050919050565b7f4e487b71000000000000000000000000000000000000000000000000000000005f52604160045260245ffd5b610101826100bb565b810181811067ffffffffffffffff821117156101205761011f6100cb565b5b80604052505050565b5f6101326100a2565b905061013e82826100f8565b919050565b5f67ffffffffffffffff82111561015d5761015c6100cb565b5b610166826100bb565b9050602081019050919050565b8281835e5f83830152505050565b5f61019361018e84610143565b610129565b9050828152602081018484840111156101af576101ae6100b7565b5b6101ba848285610173565b509392505050565b5f82601f8301126101d6576101d56100b3565b5b81516101e6848260208601610181565b91505092915050565b5f8060408385031215610205576102046100ab565b5b5f83015167ffffffffffffffff811115610222576102216100af565b5b61022e858286016101c2565b925050602083015167ffffffffffffffff81111561024f5761024e6100af565b5b61025b858286016101c2565b9150509250929050565b5f81519050919050565b7f4e487b71000000000000000000000000000000000000000000000000000000005f52602260045260245ffd5b5f60028204905060018216806102b357607f821691505b6020821081036102c6576102c561026f565b5b50919050565b5f819050815f5260205f209050919050565b5f6020601f8301049050919050565b5f82821b905092915050565b5f600883026103287fffffffffffffffffffffffffffffffffffffffffffffffffffffffffffffffff826102ed565b61033286836102ed565b95508019841693508086168417925050509392505050565b5f819050919050565b5f819050919050565b5f61037661037161036c8461034a565b610353565b61034a565b9050919050565b5f819050919050565b61038f8361035c565b6103a361039b8261037d565b8484546102f9565b825550505050565b5f90565b6103b76103ab565b6103c2818484610386565b505050565b5b818110156103e5576103da5f826103af565b6001810190506103c8565b5050565b601f82111561042a576103fb816102cc565b610404846102de565b81016020851015610413578190505b61042761041f856102de565b8301826103c7565b50505b505050565b5f82821c905092915050565b5f61044a5f198460080261042f565b1980831691505092915050565b5f610462838361043b565b9150826002028217905092915050565b61047b82610265565b67ffffffffffffffff811115610494576104936100cb565b5b61049e825461029c565b6104a98282856103e9565b5f60209050601f8311600181146104da575f84156104c8578287015190505b6104d28582610457565b865550610539565b601f1984166104e8866102cc565b5f5b8281101561050f578489015182556001820191506020850194506020810190506104ea565b8683101561052c5784890151610528601f89168261043b565b8355505b6001600288020188555050505b505050505050565b613f608061054e5f395ff3fe608060405260043610610169575f3560e01c8063831b455d116100d0578063c776194f11610089578063e77e89f311610063578063e77e89f314610654578063e985e9c514610690578063ef555bc1146106cc578063f410dcc214610708576101be565b8063c776194f146105b4578063c87b56dd146105dc578063d57fa07d14610618576101be565b8063831b455d14610498578063893d20e8146104d457806393678237146104fe57806395d89b411461053a578063a22cb46514610564578063b88d4fde1461058c576101be565b80632d64dbfd116101225780632d64dbfd1461036a57806342842e0e146103a65780634f3e1efc146103ce5780636352211e146103f857806370a0823114610434578063819b25ba14610470576101be565b806301ffc9a71461025057806306fdde031461028c578063081812fc146102b6578063095ea7b3146102f257806316ee8b161461031a57806323b872dd14610342576101be565b366101be573373ffffffffffffffffffffffffffffffffffffffff167f1e57e3bb474320be3d2c77138f75b7c3941292d647f5f9634e33a8e94e0e069b346040516101b49190612a0f565b60405180910390a2005b5f3403610200576040517f08c379a00000000000000000000000000000000000000000000000000000000081526004016101f790612aa8565b60405180910390fd5b3373ffffffffffffffffffffffffffffffffffffffff167f1e57e3bb474320be3d2c77138f75b7c3941292d647f5f9634e33a8e94e0e069b346040516102469190612a0f565b60405180910390a2005b34801561025b575f80fd5b5061027660048036038101906102719190612b2c565b610730565b6040516102839190612b71565b60405180910390f35b348015610297575f80fd5b506102a0610811565b6040516102ad9190612bea565b60405180910390f35b3480156102c1575f80fd5b506102dc60048036038101906102d79190612c34565b6108a0565b6040516102e99190612c9e565b60405180910390f35b3480156102fd575f80fd5b5061031860048036038101906103139190612ce1565b6108bb565b005b348015610325575f80fd5b50610340600480360381019061033b9190612f00565b6108d1565b005b34801561034d575f80fd5b5061036860048036038101906103639190612faf565b610c36565b005b348015610375575f80fd5b50610390600480360381019061038b9190612c34565b610d35565b60405161039d9190612b71565b60405180910390f35b3480156103b1575f80fd5b506103cc60048036038101906103c79190612faf565b610e0c565b005b3480156103d9575f80fd5b506103e2610e2b565b6040516103ef9190612a0f565b60405180910390f35b348015610403575f80fd5b5061041e60048036038101906104199190612c34565b610e34565b60405161042b9190612c9e565b60405180910390f35b34801561043f575f80fd5b5061045a60048036038101906104559190612fff565b610e45565b6040516104679190612a0f565b60405180910390f35b34801561047b575f80fd5b5061049660048036038101906104919190612c34565b610efb565b005b3480156104a3575f80fd5b506104be60048036038101906104b99190612c34565b611034565b6040516104cb9190612c9e565b60405180910390f35b3480156104df575f80fd5b506104e8611064565b6040516104f59190612c9e565b60405180910390f35b348015610509575f80fd5b50610524600480360381019061051f9190612c34565b61108c565b6040516105319190612c9e565b60405180910390f35b348015610545575f80fd5b5061054e61114e565b60405161055b9190612bea565b60405180910390f35b34801561056f575f80fd5b5061058a60048036038101906105859190613054565b6111de565b005b348015610597575f80fd5b506105b260048036038101906105ad9190613130565b6111f4565b005b3480156105bf575f80fd5b506105da60048036038101906105d59190612faf565b611219565b005b3480156105e7575f80fd5b5061060260048036038101906105fd9190612c34565b6112ee565b60405161060f9190612bea565b60405180910390f35b348015610623575f80fd5b5061063e600480360381019061063991906131e6565b611354565b60405161064b919061326c565b60405180910390f35b34801561065f575f80fd5b5061067a60048036038101906106759190613285565b611536565b6040516106879190612a0f565b60405180910390f35b34801561069b575f80fd5b506106b660048036038101906106b191906132c3565b611756565b6040516106c39190612b71565b60405180910390f35b3480156106d7575f80fd5b506106f260048036038101906106ed9190612c34565b6117e4565b6040516106ff91906133e1565b60405180910390f35b348015610713575f80fd5b5061072e60048036038101906107299190612c34565b611a12565b005b5f7f80ac58cd000000000000000000000000000000000000000000000000000000007bffffffffffffffffffffffffffffffffffffffffffffffffffffffff1916827bffffffffffffffffffffffffffffffffffffffffffffffffffffffff191614806107fa57507f5b5e139f000000000000000000000000000000000000000000000000000000007bffffffffffffffffffffffffffffffffffffffffffffffffffffffff1916827bffffffffffffffffffffffffffffffffffffffffffffffffffffffff1916145b8061080a575061080982611b5f565b5b9050919050565b60605f805461081f9061342e565b80601f016020809104026020016040519081016040528092919081815260200182805461084b9061342e565b80156108965780601f1061086d57610100808354040283529160200191610896565b820191905f5260205f20905b81548152906001019060200180831161087957829003601f168201915b5050505050905090565b5f6108aa82611bc8565b506108b482611c4e565b9050919050565b6108cd82826108c8611c87565b611c8e565b5050565b60065f9054906101000a900473ffffffffffffffffffffffffffffffffffffffff1673ffffffffffffffffffffffffffffffffffffffff163373ffffffffffffffffffffffffffffffffffffffff1614610960576040517f08c379a0000000000000000000000000000000000000000000000000000000008152600401610957906134a8565b60405180910390fd5b5f8551116109a3576040517f08c379a000000000000000000000000000000000000000000000000000000000815260040161099a90613510565b60405180910390fd5b5f8451116109e6576040517f08c379a00000000000000000000000000000000000000000000000000000000081526004016109dd90613578565b60405180910390fd5b61075e8361ffff1610158015610a28575060016107b26301e1853e42610a0c91906135f0565b610a169190613620565b610a209190613620565b8361ffff1611155b610a67576040517f08c379a0000000000000000000000000000000000000000000000000000000008152600401610a5e906136c3565b60405180910390fd5b5f826fffffffffffffffffffffffffffffffff1611610abb576040517f08c379a0000000000000000000000000000000000000000000000000000000008152600401610ab290613751565b60405180910390fd5b5f8163ffffffff161015610b04576040517f08c379a0000000000000000000000000000000000000000000000000000000008152600401610afb906137df565b60405180910390fd5b6001600a5f828254610b169190613620565b925050819055505f600a5490506040518060a001604052808781526020018681526020018561ffff168152602001846fffffffffffffffffffffffffffffffff1681526020018363ffffffff1681525060075f8381526020019081526020015f205f820151815f019081610b8a919061399a565b506020820151816001019081610ba0919061399a565b506040820151816002015f6101000a81548161ffff021916908361ffff1602179055506060820151816003015560808201518160040155905050600160085f8381526020019081526020015f205f6101000a81548160ff021916908315150217905550610c2e60065f9054906101000a900473ffffffffffffffffffffffffffffffffffffffff1682611ca0565b505050505050565b5f73ffffffffffffffffffffffffffffffffffffffff168273ffffffffffffffffffffffffffffffffffffffff1603610ca6575f6040517f64a0ae92000000000000000000000000000000000000000000000000000000008152600401610c9d9190612c9e565b60405180910390fd5b5f610cb98383610cb4611c87565b611d93565b90508373ffffffffffffffffffffffffffffffffffffffff168173ffffffffffffffffffffffffffffffffffffffff1614610d2f578382826040517f64283d7b000000000000000000000000000000000000000000000000000000008152600401610d2693929190613a69565b60405180910390fd5b50505050565b5f813073ffffffffffffffffffffffffffffffffffffffff16634f3e1efc6040518163ffffffff1660e01b8152600401602060405180830381865afa158015610d80573d5f803e3d5ffd5b505050506040513d601f19601f82011682018060405250810190610da49190613ab2565b811115610de6576040517f08c379a0000000000000000000000000000000000000000000000000000000008152600401610ddd90613b27565b60405180910390fd5b60085f8481526020019081526020015f205f9054906101000a900460ff16915050919050565b610e2683838360405180602001604052805f8152506111f4565b505050565b5f600a54905090565b5f610e3e82611bc8565b9050919050565b5f8073ffffffffffffffffffffffffffffffffffffffff168273ffffffffffffffffffffffffffffffffffffffff1603610eb6575f6040517f89c62b64000000000000000000000000000000000000000000000000000000008152600401610ead9190612c9e565b60405180910390fd5b60035f8373ffffffffffffffffffffffffffffffffffffffff1673ffffffffffffffffffffffffffffffffffffffff1681526020019081526020015f20549050919050565b803073ffffffffffffffffffffffffffffffffffffffff16634f3e1efc6040518163ffffffff1660e01b8152600401602060405180830381865afa158015610f45573d5f803e3d5ffd5b505050506040513d601f19601f82011682018060405250810190610f699190613ab2565b811115610fab576040517f08c379a0000000000000000000000000000000000000000000000000000000008152600401610fa290613b27565b60405180910390fd5b60085f8381526020019081526020015f205f9054906101000a900460ff16611008576040517f08c379a0000000000000000000000000000000000000000000000000000000008152600401610fff90613bb5565b60405180910390fd5b5f60085f8481526020019081526020015f205f6101000a81548160ff0219169083151502179055505050565b6009602052805f5260405f205f915054906101000a900473ffffffffffffffffffffffffffffffffffffffff1681565b5f60065f9054906101000a900473ffffffffffffffffffffffffffffffffffffffff16905090565b5f813073ffffffffffffffffffffffffffffffffffffffff16634f3e1efc6040518163ffffffff1660e01b8152600401602060405180830381865afa1580156110d7573d5f803e3d5ffd5b505050506040513d601f19601f820116820180604052508101906110fb9190613ab2565b81111561113d576040517f08c379a000000000000000000000000000000000000000000000000000000000815260040161113490613b27565b60405180910390fd5b61114683611f9e565b915050919050565b60606001805461115d9061342e565b80601f01602080910402602001604051908101604052809291908181526020018280546111899061342e565b80156111d45780601f106111ab576101008083540402835291602001916111d4565b820191905f5260205f20905b8154815290600101906020018083116111b757829003601f168201915b5050505050905090565b6111f06111e9611c87565b8383611fd7565b5050565b6111ff848484610c36565b61121361120a611c87565b85858585612140565b50505050565b8173ffffffffffffffffffffffffffffffffffffffff1661123982611f9e565b73ffffffffffffffffffffffffffffffffffffffff161461128f576040517f08c379a000000000000000000000000000000000000000000000000000000000815260040161128690613c1d565b60405180910390fd5b61129a828483610c36565b3360095f8381526020019081526020015f205f6101000a81548173ffffffffffffffffffffffffffffffffffffffff021916908373ffffffffffffffffffffffffffffffffffffffff160217905550505050565b60606112f982611bc8565b505f6113036122ec565b90505f8151116113215760405180602001604052805f81525061134c565b8061132b84612302565b60405160200161133c929190613c75565b6040516020818303038152906040525b915050919050565b5f805f60648861136491906135f0565b90506103e8871015611378575f91506113bf565b6127108710156113a25760646005826113919190613c98565b61139b91906135f0565b91506113be565b60646014826113b19190613c98565b6113bb91906135f0565b91505b5b5f60058760ff16116113e95760646003836113da9190613c98565b6113e491906135f0565b6113eb565b5f5b90505f600a8611156114175760646003846114069190613c98565b61141091906135f0565b905061146f565b600586111561144057606460028461142f9190613c98565b61143991906135f0565b905061146e565b60028611156114695760646001846114589190613c98565b61146291906135f0565b905061146d565b5f90505b5b5b5f61232888111561149a5760646005856114899190613c98565b61149391906135f0565b90506114f4565b6117708811156114c45760646003856114b39190613c98565b6114bd91906135f0565b90506114f3565b610bb88811156114ee5760646002856114dd9190613c98565b6114e791906135f0565b90506114f2565b5f90505b5b5b5f81838588886115049190613cd9565b61150e9190613620565b6115189190613cd9565b6115229190613620565b905080965050505050505095945050505050565b5f823073ffffffffffffffffffffffffffffffffffffffff16634f3e1efc6040518163ffffffff1660e01b8152600401602060405180830381865afa158015611581573d5f803e3d5ffd5b505050506040513d601f19601f820116820180604052508101906115a59190613ab2565b8111156115e7576040517f08c379a00000000000000000000000000000000000000000000000000000000081526004016115de90613b27565b60405180910390fd5b5f83101561162a576040517f08c379a0000000000000000000000000000000000000000000000000000000008152600401611621906137df565b60405180910390fd5b60065f9054906101000a900473ffffffffffffffffffffffffffffffffffffffff1673ffffffffffffffffffffffffffffffffffffffff163373ffffffffffffffffffffffffffffffffffffffff1614806116e057503373ffffffffffffffffffffffffffffffffffffffff1660095f8681526020019081526020015f205f9054906101000a900473ffffffffffffffffffffffffffffffffffffffff1673ffffffffffffffffffffffffffffffffffffffff16145b61171f576040517f08c379a000000000000000000000000000000000000000000000000000000000815260040161171690613d7c565b60405180910390fd5b8260075f8681526020019081526020015f206004018190555060075f8581526020019081526020015f206004015491505092915050565b5f60055f8473ffffffffffffffffffffffffffffffffffffffff1673ffffffffffffffffffffffffffffffffffffffff1681526020019081526020015f205f8373ffffffffffffffffffffffffffffffffffffffff1673ffffffffffffffffffffffffffffffffffffffff1681526020019081526020015f205f9054906101000a900460ff16905092915050565b6117ec6129c7565b813073ffffffffffffffffffffffffffffffffffffffff16634f3e1efc6040518163ffffffff1660e01b8152600401602060405180830381865afa158015611836573d5f803e3d5ffd5b505050506040513d601f19601f8201168201806040525081019061185a9190613ab2565b81111561189c576040517f08c379a000000000000000000000000000000000000000000000000000000000815260040161189390613b27565b60405180910390fd5b60075f8481526020019081526020015f206040518060a00160405290815f820180546118c79061342e565b80601f01602080910402602001604051908101604052809291908181526020018280546118f39061342e565b801561193e5780601f106119155761010080835404028352916020019161193e565b820191905f5260205f20905b81548152906001019060200180831161192157829003601f168201915b505050505081526020016001820180546119579061342e565b80601f01602080910402602001604051908101604052809291908181526020018280546119839061342e565b80156119ce5780601f106119a5576101008083540402835291602001916119ce565b820191905f5260205f20905b8154815290600101906020018083116119b157829003601f168201915b50505050508152602001600282015f9054906101000a900461ffff1661ffff1661ffff16815260200160038201548152602001600482015481525050915050919050565b3373ffffffffffffffffffffffffffffffffffffffff1660095f8381526020019081526020015f205f9054906101000a900473ffffffffffffffffffffffffffffffffffffffff1673ffffffffffffffffffffffffffffffffffffffff1614611ab0576040517f08c379a0000000000000000000000000000000000000000000000000000000008152600401611aa790613e0a565b60405180910390fd5b611ae4611abc82611f9e565b60065f9054906101000a900473ffffffffffffffffffffffffffffffffffffffff16836123cc565b5f60095f8381526020019081526020015f205f6101000a81548173ffffffffffffffffffffffffffffffffffffffff021916908373ffffffffffffffffffffffffffffffffffffffff160217905550600160085f8381526020019081526020015f205f6101000a81548160ff02191690831515021790555050565b5f7f01ffc9a7000000000000000000000000000000000000000000000000000000007bffffffffffffffffffffffffffffffffffffffffffffffffffffffff1916827bffffffffffffffffffffffffffffffffffffffffffffffffffffffff1916149050919050565b5f80611bd383611f9e565b90505f73ffffffffffffffffffffffffffffffffffffffff168173ffffffffffffffffffffffffffffffffffffffff1603611c4557826040517f7e273289000000000000000000000000000000000000000000000000000000008152600401611c3c9190612a0f565b60405180910390fd5b80915050919050565b5f60045f8381526020019081526020015f205f9054906101000a900473ffffffffffffffffffffffffffffffffffffffff169050919050565b5f33905090565b611c9b8383836001612534565b505050565b5f73ffffffffffffffffffffffffffffffffffffffff168273ffffffffffffffffffffffffffffffffffffffff1603611d10575f6040517f64a0ae92000000000000000000000000000000000000000000000000000000008152600401611d079190612c9e565b60405180910390fd5b5f611d1c83835f611d93565b90505f73ffffffffffffffffffffffffffffffffffffffff168173ffffffffffffffffffffffffffffffffffffffff1614611d8e575f6040517f73c6ac6e000000000000000000000000000000000000000000000000000000008152600401611d859190612c9e565b60405180910390fd5b505050565b5f80611d9e84611f9e565b90505f73ffffffffffffffffffffffffffffffffffffffff168373ffffffffffffffffffffffffffffffffffffffff1614611ddf57611dde8184866126f3565b5b5f73ffffffffffffffffffffffffffffffffffffffff168173ffffffffffffffffffffffffffffffffffffffff1614611e6a57611e1e5f855f80612534565b600160035f8373ffffffffffffffffffffffffffffffffffffffff1673ffffffffffffffffffffffffffffffffffffffff1681526020019081526020015f205f82825403925050819055505b5f73ffffffffffffffffffffffffffffffffffffffff168573ffffffffffffffffffffffffffffffffffffffff1614611ee957600160035f8773ffffffffffffffffffffffffffffffffffffffff1673ffffffffffffffffffffffffffffffffffffffff1681526020019081526020015f205f82825401925050819055505b8460025f8681526020019081526020015f205f6101000a81548173ffffffffffffffffffffffffffffffffffffffff021916908373ffffffffffffffffffffffffffffffffffffffff160217905550838573ffffffffffffffffffffffffffffffffffffffff168273ffffffffffffffffffffffffffffffffffffffff167fddf252ad1be2c89b69c2b068fc378daa952ba7f163c4a11628f55a4df523b3ef60405160405180910390a4809150509392505050565b5f60025f8381526020019081526020015f205f9054906101000a900473ffffffffffffffffffffffffffffffffffffffff169050919050565b5f73ffffffffffffffffffffffffffffffffffffffff168273ffffffffffffffffffffffffffffffffffffffff160361204757816040517f5b08ba1800000000000000000000000000000000000000000000000000000000815260040161203e9190612c9e565b60405180910390fd5b8060055f8573ffffffffffffffffffffffffffffffffffffffff1673ffffffffffffffffffffffffffffffffffffffff1681526020019081526020015f205f8473ffffffffffffffffffffffffffffffffffffffff1673ffffffffffffffffffffffffffffffffffffffff1681526020019081526020015f205f6101000a81548160ff0219169083151502179055508173ffffffffffffffffffffffffffffffffffffffff168373ffffffffffffffffffffffffffffffffffffffff167f17307eab39ab6107e8899845ad3d59bd9653f200f220920489ca2b5937696c31836040516121339190612b71565b60405180910390a3505050565b5f8373ffffffffffffffffffffffffffffffffffffffff163b11156122e5578273ffffffffffffffffffffffffffffffffffffffff1663150b7a02868685856040518563ffffffff1660e01b815260040161219e9493929190613e7a565b6020604051808303815f875af19250505080156121d957506040513d601f19601f820116820180604052508101906121d69190613ed8565b60015b61225a573d805f8114612207576040519150601f19603f3d011682016040523d82523d5f602084013e61220c565b606091505b505f81510361225257836040517f64a0ae920000000000000000000000000000000000000000000000000000000081526004016122499190612c9e565b60405180910390fd5b805181602001fd5b63150b7a0260e01b7bffffffffffffffffffffffffffffffffffffffffffffffffffffffff1916817bffffffffffffffffffffffffffffffffffffffffffffffffffffffff1916146122e357836040517f64a0ae920000000000000000000000000000000000000000000000000000000081526004016122da9190612c9e565b60405180910390fd5b505b5050505050565b606060405180602001604052805f815250905090565b60605f6001612310846127b6565b0190505f8167ffffffffffffffff81111561232e5761232d612d27565b5b6040519080825280601f01601f1916602001820160405280156123605781602001600182028036833780820191505090505b5090505f82602001820190505b6001156123c1578080600190039150507f3031323334353637383961626364656600000000000000000000000000000000600a86061a8153600a85816123b6576123b5613596565b5b0494505f850361236d575b819350505050919050565b5f73ffffffffffffffffffffffffffffffffffffffff168273ffffffffffffffffffffffffffffffffffffffff160361243c575f6040517f64a0ae920000000000000000000000000000000000000000000000000000000081526004016124339190612c9e565b60405180910390fd5b5f61244883835f611d93565b90505f73ffffffffffffffffffffffffffffffffffffffff168173ffffffffffffffffffffffffffffffffffffffff16036124ba57816040517f7e2732890000000000000000000000000000000000000000000000000000000081526004016124b19190612a0f565b60405180910390fd5b8373ffffffffffffffffffffffffffffffffffffffff168173ffffffffffffffffffffffffffffffffffffffff161461252e578382826040517f64283d7b00000000000000000000000000000000000000000000000000000000815260040161252593929190613a69565b60405180910390fd5b50505050565b808061256c57505f73ffffffffffffffffffffffffffffffffffffffff168273ffffffffffffffffffffffffffffffffffffffff1614155b1561269e575f61257b84611bc8565b90505f73ffffffffffffffffffffffffffffffffffffffff168373ffffffffffffffffffffffffffffffffffffffff16141580156125e557508273ffffffffffffffffffffffffffffffffffffffff168173ffffffffffffffffffffffffffffffffffffffff1614155b80156125f857506125f68184611756565b155b1561263a57826040517fa9fbf51f0000000000000000000000000000000000000000000000000000000081526004016126319190612c9e565b60405180910390fd5b811561269c57838573ffffffffffffffffffffffffffffffffffffffff168273ffffffffffffffffffffffffffffffffffffffff167f8c5be1e5ebec7d5bd14f71427d1e84f3dd0314c0f7b2291e5b200ac8c7c3b92560405160405180910390a45b505b8360045f8581526020019081526020015f205f6101000a81548173ffffffffffffffffffffffffffffffffffffffff021916908373ffffffffffffffffffffffffffffffffffffffff16021790555050505050565b6126fe838383612907565b6127b1575f73ffffffffffffffffffffffffffffffffffffffff168373ffffffffffffffffffffffffffffffffffffffff160361277257806040517f7e2732890000000000000000000000000000000000000000000000000000000081526004016127699190612a0f565b60405180910390fd5b81816040517f177e802f0000000000000000000000000000000000000000000000000000000081526004016127a8929190613f03565b60405180910390fd5b505050565b5f805f90507a184f03e93ff9f4daa797ed6e38ed64bf6a1f0100000000000000008310612812577a184f03e93ff9f4daa797ed6e38ed64bf6a1f010000000000000000838161280857612807613596565b5b0492506040810190505b6d04ee2d6d415b85acef8100000000831061284f576d04ee2d6d415b85acef8100000000838161284557612844613596565b5b0492506020810190505b662386f26fc10000831061287e57662386f26fc10000838161287457612873613596565b5b0492506010810190505b6305f5e10083106128a7576305f5e100838161289d5761289c613596565b5b0492506008810190505b61271083106128cc5761271083816128c2576128c1613596565b5b0492506004810190505b606483106128ef57606483816128e5576128e4613596565b5b0492506002810190505b600a83106128fe576001810190505b80915050919050565b5f8073ffffffffffffffffffffffffffffffffffffffff168373ffffffffffffffffffffffffffffffffffffffff16141580156129be57508273ffffffffffffffffffffffffffffffffffffffff168473ffffffffffffffffffffffffffffffffffffffff16148061297f575061297e8484611756565b5b806129bd57508273ffffffffffffffffffffffffffffffffffffffff166129a583611c4e565b73ffffffffffffffffffffffffffffffffffffffff16145b5b90509392505050565b6040518060a0016040528060608152602001606081526020015f61ffff1681526020015f81526020015f81525090565b5f819050919050565b612a09816129f7565b82525050565b5f602082019050612a225f830184612a00565b92915050565b5f82825260208201905092915050565b7f4361724e46543a20556e7265636f676e697a65642066756e6374696f6e2063615f8201527f6c6c20776974686f757420457468657200000000000000000000000000000000602082015250565b5f612a92603083612a28565b9150612a9d82612a38565b604082019050919050565b5f6020820190508181035f830152612abf81612a86565b9050919050565b5f604051905090565b5f80fd5b5f80fd5b5f7fffffffff0000000000000000000000000000000000000000000000000000000082169050919050565b612b0b81612ad7565b8114612b15575f80fd5b50565b5f81359050612b2681612b02565b92915050565b5f60208284031215612b4157612b40612acf565b5b5f612b4e84828501612b18565b91505092915050565b5f8115159050919050565b612b6b81612b57565b82525050565b5f602082019050612b845f830184612b62565b92915050565b5f81519050919050565b8281835e5f83830152505050565b5f601f19601f8301169050919050565b5f612bbc82612b8a565b612bc68185612a28565b9350612bd6818560208601612b94565b612bdf81612ba2565b840191505092915050565b5f6020820190508181035f830152612c028184612bb2565b905092915050565b612c13816129f7565b8114612c1d575f80fd5b50565b5f81359050612c2e81612c0a565b92915050565b5f60208284031215612c4957612c48612acf565b5b5f612c5684828501612c20565b91505092915050565b5f73ffffffffffffffffffffffffffffffffffffffff82169050919050565b5f612c8882612c5f565b9050919050565b612c9881612c7e565b82525050565b5f602082019050612cb15f830184612c8f565b92915050565b612cc081612c7e565b8114612cca575f80fd5b50565b5f81359050612cdb81612cb7565b92915050565b5f8060408385031215612cf757612cf6612acf565b5b5f612d0485828601612ccd565b9250506020612d1585828601612c20565b9150509250929050565b5f80fd5b5f80fd5b7f4e487b71000000000000000000000000000000000000000000000000000000005f52604160045260245ffd5b612d5d82612ba2565b810181811067ffffffffffffffff82111715612d7c57612d7b612d27565b5b80604052505050565b5f612d8e612ac6565b9050612d9a8282612d54565b919050565b5f67ffffffffffffffff821115612db957612db8612d27565b5b612dc282612ba2565b9050602081019050919050565b828183375f83830152505050565b5f612def612dea84612d9f565b612d85565b905082815260208101848484011115612e0b57612e0a612d23565b5b612e16848285612dcf565b509392505050565b5f82601f830112612e3257612e31612d1f565b5b8135612e42848260208601612ddd565b91505092915050565b5f61ffff82169050919050565b612e6181612e4b565b8114612e6b575f80fd5b50565b5f81359050612e7c81612e58565b92915050565b5f6fffffffffffffffffffffffffffffffff82169050919050565b612ea681612e82565b8114612eb0575f80fd5b50565b5f81359050612ec181612e9d565b92915050565b5f63ffffffff82169050919050565b612edf81612ec7565b8114612ee9575f80fd5b50565b5f81359050612efa81612ed6565b92915050565b5f805f805f60a08688031215612f1957612f18612acf565b5b5f86013567ffffffffffffffff811115612f3657612f35612ad3565b5b612f4288828901612e1e565b955050602086013567ffffffffffffffff811115612f6357612f62612ad3565b5b612f6f88828901612e1e565b9450506040612f8088828901612e6e565b9350506060612f9188828901612eb3565b9250506080612fa288828901612eec565b9150509295509295909350565b5f805f60608486031215612fc657612fc5612acf565b5b5f612fd386828701612ccd565b9350506020612fe486828701612ccd565b9250506040612ff586828701612c20565b9150509250925092565b5f6020828403121561301457613013612acf565b5b5f61302184828501612ccd565b91505092915050565b61303381612b57565b811461303d575f80fd5b50565b5f8135905061304e8161302a565b92915050565b5f806040838503121561306a57613069612acf565b5b5f61307785828601612ccd565b925050602061308885828601613040565b9150509250929050565b5f67ffffffffffffffff8211156130ac576130ab612d27565b5b6130b582612ba2565b9050602081019050919050565b5f6130d46130cf84613092565b612d85565b9050828152602081018484840111156130f0576130ef612d23565b5b6130fb848285612dcf565b509392505050565b5f82601f83011261311757613116612d1f565b5b81356131278482602086016130c2565b91505092915050565b5f805f806080858703121561314857613147612acf565b5b5f61315587828801612ccd565b945050602061316687828801612ccd565b935050604061317787828801612c20565b925050606085013567ffffffffffffffff81111561319857613197612ad3565b5b6131a487828801613103565b91505092959194509250565b5f60ff82169050919050565b6131c5816131b0565b81146131cf575f80fd5b50565b5f813590506131e0816131bc565b92915050565b5f805f805f60a086880312156131ff576131fe612acf565b5b5f61320c88828901612c20565b955050602061321d88828901612c20565b945050604061322e888289016131d2565b935050606061323f88828901612c20565b925050608061325088828901612c20565b9150509295509295909350565b61326681612e82565b82525050565b5f60208201905061327f5f83018461325d565b92915050565b5f806040838503121561329b5761329a612acf565b5b5f6132a885828601612c20565b92505060206132b985828601612c20565b9150509250929050565b5f80604083850312156132d9576132d8612acf565b5b5f6132e685828601612ccd565b92505060206132f785828601612ccd565b9150509250929050565b5f82825260208201905092915050565b5f61331b82612b8a565b6133258185613301565b9350613335818560208601612b94565b61333e81612ba2565b840191505092915050565b61335281612e4b565b82525050565b613361816129f7565b82525050565b5f60a083015f8301518482035f8601526133818282613311565b9150506020830151848203602086015261339b8282613311565b91505060408301516133b06040860182613349565b5060608301516133c36060860182613358565b5060808301516133d66080860182613358565b508091505092915050565b5f6020820190508181035f8301526133f98184613367565b905092915050565b7f4e487b71000000000000000000000000000000000000000000000000000000005f52602260045260245ffd5b5f600282049050600182168061344557607f821691505b60208210810361345857613457613401565b5b50919050565b7f4361724e46543a20596f75206e65656420746f206265206f776e6572000000005f82015250565b5f613492601c83612a28565b915061349d8261345e565b602082019050919050565b5f6020820190508181035f8301526134bf81613486565b9050919050565b7f4361724e46543a204d6f64656c2063616e6e6f7420626520656d7074790000005f82015250565b5f6134fa601d83612a28565b9150613505826134c6565b602082019050919050565b5f6020820190508181035f830152613527816134ee565b9050919050565b7f4361724e46543a20436f6c6f722063616e6e6f7420626520656d7074790000005f82015250565b5f613562601d83612a28565b915061356d8261352e565b602082019050919050565b5f6020820190508181035f83015261358f81613556565b9050919050565b7f4e487b71000000000000000000000000000000000000000000000000000000005f52601260045260245ffd5b7f4e487b71000000000000000000000000000000000000000000000000000000005f52601160045260245ffd5b5f6135fa826129f7565b9150613605836129f7565b92508261361557613614613596565b5b828204905092915050565b5f61362a826129f7565b9150613635836129f7565b925082820190508082111561364d5761364c6135c3565b5b92915050565b7f4361724e46543a20496e76616c69642079656172206f66206d6174726963756c5f8201527f6174696f6e000000000000000000000000000000000000000000000000000000602082015250565b5f6136ad602583612a28565b91506136b882613653565b604082019050919050565b5f6020820190508181035f8301526136da816136a1565b9050919050565b7f4361724e46543a204f726967696e616c2076616c7565206d75737420626520675f8201527f726561746572207468616e207a65726f00000000000000000000000000000000602082015250565b5f61373b603083612a28565b9150613746826136e1565b604082019050919050565b5f6020820190508181035f8301526137688161372f565b9050919050565b7f4361724e46543a204d696c656167652063616e6e6f74206265206e65676174695f8201527f7665000000000000000000000000000000000000000000000000000000000000602082015250565b5f6137c9602283612a28565b91506137d48261376f565b604082019050919050565b5f6020820190508181035f8301526137f6816137bd565b9050919050565b5f819050815f5260205f209050919050565b5f6020601f8301049050919050565b5f82821b905092915050565b5f600883026138597fffffffffffffffffffffffffffffffffffffffffffffffffffffffffffffffff8261381e565b613863868361381e565b95508019841693508086168417925050509392505050565b5f819050919050565b5f61389e613899613894846129f7565b61387b565b6129f7565b9050919050565b5f819050919050565b6138b783613884565b6138cb6138c3826138a5565b84845461382a565b825550505050565b5f90565b6138df6138d3565b6138ea8184846138ae565b505050565b5b8181101561390d576139025f826138d7565b6001810190506138f0565b5050565b601f82111561395257613923816137fd565b61392c8461380f565b8101602085101561393b578190505b61394f6139478561380f565b8301826138ef565b50505b505050565b5f82821c905092915050565b5f6139725f1984600802613957565b1980831691505092915050565b5f61398a8383613963565b9150826002028217905092915050565b6139a382612b8a565b67ffffffffffffffff8111156139bc576139bb612d27565b5b6139c6825461342e565b6139d1828285613911565b5f60209050601f831160018114613a02575f84156139f0578287015190505b6139fa858261397f565b865550613a61565b601f198416613a10866137fd565b5f5b82811015613a3757848901518255600182019150602085019450602081019050613a12565b86831015613a545784890151613a50601f891682613963565b8355505b6001600288020188555050505b505050505050565b5f606082019050613a7c5f830186612c8f565b613a896020830185612a00565b613a966040830184612c8f565b949350505050565b5f81519050613aac81612c0a565b92915050565b5f60208284031215613ac757613ac6612acf565b5b5f613ad484828501613a9e565b91505092915050565b7f4361724e46543a2043617220646f6573206e6f742065786973740000000000005f82015250565b5f613b11601a83612a28565b9150613b1c82613add565b602082019050919050565b5f6020820190508181035f830152613b3e81613b05565b9050919050565b7f54686973206361722069736e277420617661696c61626c6520666f72206c65615f8201527f7365000000000000000000000000000000000000000000000000000000000000602082015250565b5f613b9f602283612a28565b9150613baa82613b45565b604082019050919050565b5f6020820190508181035f830152613bcc81613b93565b9050919050565b7f4361724e46543a2043617220616c7265616479206c65617365640000000000005f82015250565b5f613c07601a83612a28565b9150613c1282613bd3565b602082019050919050565b5f6020820190508181035f830152613c3481613bfb565b9050919050565b5f81905092915050565b5f613c4f82612b8a565b613c598185613c3b565b9350613c69818560208601612b94565b80840191505092915050565b5f613c808285613c45565b9150613c8c8284613c45565b91508190509392505050565b5f613ca2826129f7565b9150613cad836129f7565b9250828202613cbb816129f7565b91508282048414831517613cd257613cd16135c3565b5b5092915050565b5f613ce3826129f7565b9150613cee836129f7565b9250828203905081811115613d0657613d056135c3565b5b92915050565b7f4361724e46543a204f6e6c7920746865206173736f636961746564204c6561735f8201527f6541677265656d656e742063616e20757064617465206d696c65616765730000602082015250565b5f613d66603e83612a28565b9150613d7182613d0c565b604082019050919050565b5f6020820190508181035f830152613d9381613d5a565b9050919050565b7f4361724e46543a204f6e6c7920746865206173736f636961746564204c6561735f8201527f6541677265656d656e742063616e2072657475726e2074686520636172000000602082015250565b5f613df4603d83612a28565b9150613dff82613d9a565b604082019050919050565b5f6020820190508181035f830152613e2181613de8565b9050919050565b5f81519050919050565b5f82825260208201905092915050565b5f613e4c82613e28565b613e568185613e32565b9350613e66818560208601612b94565b613e6f81612ba2565b840191505092915050565b5f608082019050613e8d5f830187612c8f565b613e9a6020830186612c8f565b613ea76040830185612a00565b8181036060830152613eb98184613e42565b905095945050505050565b5f81519050613ed281612b02565b92915050565b5f60208284031215613eed57613eec612acf565b5b5f613efa84828501613ec4565b91505092915050565b5f604082019050613f165f830185612c8f565b613f236020830184612a00565b939250505056fea26469706673582212201b9947e152ab7d763ef50173d50570cfeed49ffdcc4a85090a005a1f28e27d6d64736f6c634300081a0033",
			"opcodes": "PUSH1 0x80 PUSH1 0x40 MSTORE CALLVALUE DUP1 ISZERO PUSH2 0xF JUMPI PUSH0 DUP1 REVERT JUMPDEST POP PUSH1 0x40 MLOAD PUSH2 0x44AE CODESIZE SUB DUP1 PUSH2 0x44AE DUP4 CODECOPY DUP2 DUP2 ADD PUSH1 0x40 MSTORE DUP2 ADD SWAP1 PUSH2 0x31 SWAP2 SWAP1 PUSH2 0x1EF JUMP JUMPDEST DUP2 DUP2 DUP2 PUSH0 SWAP1 DUP2 PUSH2 0x41 SWAP2 SWAP1 PUSH2 0x472 JUMP JUMPDEST POP DUP1 PUSH1 0x1 SWAP1 DUP2 PUSH2 0x51 SWAP2 SWAP1 PUSH2 0x472 JUMP JUMPDEST POP POP POP CALLER PUSH1 0x6 PUSH0 PUSH2 0x100 EXP DUP2 SLOAD DUP2 PUSH20 0xFFFFFFFFFFFFFFFFFFFFFFFFFFFFFFFFFFFFFFFF MUL NOT AND SWAP1 DUP4 PUSH20 0xFFFFFFFFFFFFFFFFFFFFFFFFFFFFFFFFFFFFFFFF AND MUL OR SWAP1 SSTORE POP PUSH0 PUSH1 0xA DUP2 SWAP1 SSTORE POP POP POP PUSH2 0x541 JUMP JUMPDEST PUSH0 PUSH1 0x40 MLOAD SWAP1 POP SWAP1 JUMP JUMPDEST PUSH0 DUP1 REVERT JUMPDEST PUSH0 DUP1 REVERT JUMPDEST PUSH0 DUP1 REVERT JUMPDEST PUSH0 DUP1 REVERT JUMPDEST PUSH0 PUSH1 0x1F NOT PUSH1 0x1F DUP4 ADD AND SWAP1 POP SWAP2 SWAP1 POP JUMP JUMPDEST PUSH32 0x4E487B7100000000000000000000000000000000000000000000000000000000 PUSH0 MSTORE PUSH1 0x41 PUSH1 0x4 MSTORE PUSH1 0x24 PUSH0 REVERT JUMPDEST PUSH2 0x101 DUP3 PUSH2 0xBB JUMP JUMPDEST DUP2 ADD DUP2 DUP2 LT PUSH8 0xFFFFFFFFFFFFFFFF DUP3 GT OR ISZERO PUSH2 0x120 JUMPI PUSH2 0x11F PUSH2 0xCB JUMP JUMPDEST JUMPDEST DUP1 PUSH1 0x40 MSTORE POP POP POP JUMP JUMPDEST PUSH0 PUSH2 0x132 PUSH2 0xA2 JUMP JUMPDEST SWAP1 POP PUSH2 0x13E DUP3 DUP3 PUSH2 0xF8 JUMP JUMPDEST SWAP2 SWAP1 POP JUMP JUMPDEST PUSH0 PUSH8 0xFFFFFFFFFFFFFFFF DUP3 GT ISZERO PUSH2 0x15D JUMPI PUSH2 0x15C PUSH2 0xCB JUMP JUMPDEST JUMPDEST PUSH2 0x166 DUP3 PUSH2 0xBB JUMP JUMPDEST SWAP1 POP PUSH1 0x20 DUP2 ADD SWAP1 POP SWAP2 SWAP1 POP JUMP JUMPDEST DUP3 DUP2 DUP4 MCOPY PUSH0 DUP4 DUP4 ADD MSTORE POP POP POP JUMP JUMPDEST PUSH0 PUSH2 0x193 PUSH2 0x18E DUP5 PUSH2 0x143 JUMP JUMPDEST PUSH2 0x129 JUMP JUMPDEST SWAP1 POP DUP3 DUP2 MSTORE PUSH1 0x20 DUP2 ADD DUP5 DUP5 DUP5 ADD GT ISZERO PUSH2 0x1AF JUMPI PUSH2 0x1AE PUSH2 0xB7 JUMP JUMPDEST JUMPDEST PUSH2 0x1BA DUP5 DUP3 DUP6 PUSH2 0x173 JUMP JUMPDEST POP SWAP4 SWAP3 POP POP POP JUMP JUMPDEST PUSH0 DUP3 PUSH1 0x1F DUP4 ADD SLT PUSH2 0x1D6 JUMPI PUSH2 0x1D5 PUSH2 0xB3 JUMP JUMPDEST JUMPDEST DUP2 MLOAD PUSH2 0x1E6 DUP5 DUP3 PUSH1 0x20 DUP7 ADD PUSH2 0x181 JUMP JUMPDEST SWAP2 POP POP SWAP3 SWAP2 POP POP JUMP JUMPDEST PUSH0 DUP1 PUSH1 0x40 DUP4 DUP6 SUB SLT ISZERO PUSH2 0x205 JUMPI PUSH2 0x204 PUSH2 0xAB JUMP JUMPDEST JUMPDEST PUSH0 DUP4 ADD MLOAD PUSH8 0xFFFFFFFFFFFFFFFF DUP2 GT ISZERO PUSH2 0x222 JUMPI PUSH2 0x221 PUSH2 0xAF JUMP JUMPDEST JUMPDEST PUSH2 0x22E DUP6 DUP3 DUP7 ADD PUSH2 0x1C2 JUMP JUMPDEST SWAP3 POP POP PUSH1 0x20 DUP4 ADD MLOAD PUSH8 0xFFFFFFFFFFFFFFFF DUP2 GT ISZERO PUSH2 0x24F JUMPI PUSH2 0x24E PUSH2 0xAF JUMP JUMPDEST JUMPDEST PUSH2 0x25B DUP6 DUP3 DUP7 ADD PUSH2 0x1C2 JUMP JUMPDEST SWAP2 POP POP SWAP3 POP SWAP3 SWAP1 POP JUMP JUMPDEST PUSH0 DUP2 MLOAD SWAP1 POP SWAP2 SWAP1 POP JUMP JUMPDEST PUSH32 0x4E487B7100000000000000000000000000000000000000000000000000000000 PUSH0 MSTORE PUSH1 0x22 PUSH1 0x4 MSTORE PUSH1 0x24 PUSH0 REVERT JUMPDEST PUSH0 PUSH1 0x2 DUP3 DIV SWAP1 POP PUSH1 0x1 DUP3 AND DUP1 PUSH2 0x2B3 JUMPI PUSH1 0x7F DUP3 AND SWAP2 POP JUMPDEST PUSH1 0x20 DUP3 LT DUP2 SUB PUSH2 0x2C6 JUMPI PUSH2 0x2C5 PUSH2 0x26F JUMP JUMPDEST JUMPDEST POP SWAP2 SWAP1 POP JUMP JUMPDEST PUSH0 DUP2 SWAP1 POP DUP2 PUSH0 MSTORE PUSH1 0x20 PUSH0 KECCAK256 SWAP1 POP SWAP2 SWAP1 POP JUMP JUMPDEST PUSH0 PUSH1 0x20 PUSH1 0x1F DUP4 ADD DIV SWAP1 POP SWAP2 SWAP1 POP JUMP JUMPDEST PUSH0 DUP3 DUP3 SHL SWAP1 POP SWAP3 SWAP2 POP POP JUMP JUMPDEST PUSH0 PUSH1 0x8 DUP4 MUL PUSH2 0x328 PUSH32 0xFFFFFFFFFFFFFFFFFFFFFFFFFFFFFFFFFFFFFFFFFFFFFFFFFFFFFFFFFFFFFFFF DUP3 PUSH2 0x2ED JUMP JUMPDEST PUSH2 0x332 DUP7 DUP4 PUSH2 0x2ED JUMP JUMPDEST SWAP6 POP DUP1 NOT DUP5 AND SWAP4 POP DUP1 DUP7 AND DUP5 OR SWAP3 POP POP POP SWAP4 SWAP3 POP POP POP JUMP JUMPDEST PUSH0 DUP2 SWAP1 POP SWAP2 SWAP1 POP JUMP JUMPDEST PUSH0 DUP2 SWAP1 POP SWAP2 SWAP1 POP JUMP JUMPDEST PUSH0 PUSH2 0x376 PUSH2 0x371 PUSH2 0x36C DUP5 PUSH2 0x34A JUMP JUMPDEST PUSH2 0x353 JUMP JUMPDEST PUSH2 0x34A JUMP JUMPDEST SWAP1 POP SWAP2 SWAP1 POP JUMP JUMPDEST PUSH0 DUP2 SWAP1 POP SWAP2 SWAP1 POP JUMP JUMPDEST PUSH2 0x38F DUP4 PUSH2 0x35C JUMP JUMPDEST PUSH2 0x3A3 PUSH2 0x39B DUP3 PUSH2 0x37D JUMP JUMPDEST DUP5 DUP5 SLOAD PUSH2 0x2F9 JUMP JUMPDEST DUP3 SSTORE POP POP POP POP JUMP JUMPDEST PUSH0 SWAP1 JUMP JUMPDEST PUSH2 0x3B7 PUSH2 0x3AB JUMP JUMPDEST PUSH2 0x3C2 DUP2 DUP5 DUP5 PUSH2 0x386 JUMP JUMPDEST POP POP POP JUMP JUMPDEST JUMPDEST DUP2 DUP2 LT ISZERO PUSH2 0x3E5 JUMPI PUSH2 0x3DA PUSH0 DUP3 PUSH2 0x3AF JUMP JUMPDEST PUSH1 0x1 DUP2 ADD SWAP1 POP PUSH2 0x3C8 JUMP JUMPDEST POP POP JUMP JUMPDEST PUSH1 0x1F DUP3 GT ISZERO PUSH2 0x42A JUMPI PUSH2 0x3FB DUP2 PUSH2 0x2CC JUMP JUMPDEST PUSH2 0x404 DUP5 PUSH2 0x2DE JUMP JUMPDEST DUP2 ADD PUSH1 0x20 DUP6 LT ISZERO PUSH2 0x413 JUMPI DUP2 SWAP1 POP JUMPDEST PUSH2 0x427 PUSH2 0x41F DUP6 PUSH2 0x2DE JUMP JUMPDEST DUP4 ADD DUP3 PUSH2 0x3C7 JUMP JUMPDEST POP POP JUMPDEST POP POP POP JUMP JUMPDEST PUSH0 DUP3 DUP3 SHR SWAP1 POP SWAP3 SWAP2 POP POP JUMP JUMPDEST PUSH0 PUSH2 0x44A PUSH0 NOT DUP5 PUSH1 0x8 MUL PUSH2 0x42F JUMP JUMPDEST NOT DUP1 DUP4 AND SWAP2 POP POP SWAP3 SWAP2 POP POP JUMP JUMPDEST PUSH0 PUSH2 0x462 DUP4 DUP4 PUSH2 0x43B JUMP JUMPDEST SWAP2 POP DUP3 PUSH1 0x2 MUL DUP3 OR SWAP1 POP SWAP3 SWAP2 POP POP JUMP JUMPDEST PUSH2 0x47B DUP3 PUSH2 0x265 JUMP JUMPDEST PUSH8 0xFFFFFFFFFFFFFFFF DUP2 GT ISZERO PUSH2 0x494 JUMPI PUSH2 0x493 PUSH2 0xCB JUMP JUMPDEST JUMPDEST PUSH2 0x49E DUP3 SLOAD PUSH2 0x29C JUMP JUMPDEST PUSH2 0x4A9 DUP3 DUP3 DUP6 PUSH2 0x3E9 JUMP JUMPDEST PUSH0 PUSH1 0x20 SWAP1 POP PUSH1 0x1F DUP4 GT PUSH1 0x1 DUP2 EQ PUSH2 0x4DA JUMPI PUSH0 DUP5 ISZERO PUSH2 0x4C8 JUMPI DUP3 DUP8 ADD MLOAD SWAP1 POP JUMPDEST PUSH2 0x4D2 DUP6 DUP3 PUSH2 0x457 JUMP JUMPDEST DUP7 SSTORE POP PUSH2 0x539 JUMP JUMPDEST PUSH1 0x1F NOT DUP5 AND PUSH2 0x4E8 DUP7 PUSH2 0x2CC JUMP JUMPDEST PUSH0 JUMPDEST DUP3 DUP2 LT ISZERO PUSH2 0x50F JUMPI DUP5 DUP10 ADD MLOAD DUP3 SSTORE PUSH1 0x1 DUP3 ADD SWAP2 POP PUSH1 0x20 DUP6 ADD SWAP5 POP PUSH1 0x20 DUP2 ADD SWAP1 POP PUSH2 0x4EA JUMP JUMPDEST DUP7 DUP4 LT ISZERO PUSH2 0x52C JUMPI DUP5 DUP10 ADD MLOAD PUSH2 0x528 PUSH1 0x1F DUP10 AND DUP3 PUSH2 0x43B JUMP JUMPDEST DUP4 SSTORE POP JUMPDEST PUSH1 0x1 PUSH1 0x2 DUP9 MUL ADD DUP9 SSTORE POP POP POP JUMPDEST POP POP POP POP POP POP JUMP JUMPDEST PUSH2 0x3F60 DUP1 PUSH2 0x54E PUSH0 CODECOPY PUSH0 RETURN INVALID PUSH1 0x80 PUSH1 0x40 MSTORE PUSH1 0x4 CALLDATASIZE LT PUSH2 0x169 JUMPI PUSH0 CALLDATALOAD PUSH1 0xE0 SHR DUP1 PUSH4 0x831B455D GT PUSH2 0xD0 JUMPI DUP1 PUSH4 0xC776194F GT PUSH2 0x89 JUMPI DUP1 PUSH4 0xE77E89F3 GT PUSH2 0x63 JUMPI DUP1 PUSH4 0xE77E89F3 EQ PUSH2 0x654 JUMPI DUP1 PUSH4 0xE985E9C5 EQ PUSH2 0x690 JUMPI DUP1 PUSH4 0xEF555BC1 EQ PUSH2 0x6CC JUMPI DUP1 PUSH4 0xF410DCC2 EQ PUSH2 0x708 JUMPI PUSH2 0x1BE JUMP JUMPDEST DUP1 PUSH4 0xC776194F EQ PUSH2 0x5B4 JUMPI DUP1 PUSH4 0xC87B56DD EQ PUSH2 0x5DC JUMPI DUP1 PUSH4 0xD57FA07D EQ PUSH2 0x618 JUMPI PUSH2 0x1BE JUMP JUMPDEST DUP1 PUSH4 0x831B455D EQ PUSH2 0x498 JUMPI DUP1 PUSH4 0x893D20E8 EQ PUSH2 0x4D4 JUMPI DUP1 PUSH4 0x93678237 EQ PUSH2 0x4FE JUMPI DUP1 PUSH4 0x95D89B41 EQ PUSH2 0x53A JUMPI DUP1 PUSH4 0xA22CB465 EQ PUSH2 0x564 JUMPI DUP1 PUSH4 0xB88D4FDE EQ PUSH2 0x58C JUMPI PUSH2 0x1BE JUMP JUMPDEST DUP1 PUSH4 0x2D64DBFD GT PUSH2 0x122 JUMPI DUP1 PUSH4 0x2D64DBFD EQ PUSH2 0x36A JUMPI DUP1 PUSH4 0x42842E0E EQ PUSH2 0x3A6 JUMPI DUP1 PUSH4 0x4F3E1EFC EQ PUSH2 0x3CE JUMPI DUP1 PUSH4 0x6352211E EQ PUSH2 0x3F8 JUMPI DUP1 PUSH4 0x70A08231 EQ PUSH2 0x434 JUMPI DUP1 PUSH4 0x819B25BA EQ PUSH2 0x470 JUMPI PUSH2 0x1BE JUMP JUMPDEST DUP1 PUSH4 0x1FFC9A7 EQ PUSH2 0x250 JUMPI DUP1 PUSH4 0x6FDDE03 EQ PUSH2 0x28C JUMPI DUP1 PUSH4 0x81812FC EQ PUSH2 0x2B6 JUMPI DUP1 PUSH4 0x95EA7B3 EQ PUSH2 0x2F2 JUMPI DUP1 PUSH4 0x16EE8B16 EQ PUSH2 0x31A JUMPI DUP1 PUSH4 0x23B872DD EQ PUSH2 0x342 JUMPI PUSH2 0x1BE JUMP JUMPDEST CALLDATASIZE PUSH2 0x1BE JUMPI CALLER PUSH20 0xFFFFFFFFFFFFFFFFFFFFFFFFFFFFFFFFFFFFFFFF AND PUSH32 0x1E57E3BB474320BE3D2C77138F75B7C3941292D647F5F9634E33A8E94E0E069B CALLVALUE PUSH1 0x40 MLOAD PUSH2 0x1B4 SWAP2 SWAP1 PUSH2 0x2A0F JUMP JUMPDEST PUSH1 0x40 MLOAD DUP1 SWAP2 SUB SWAP1 LOG2 STOP JUMPDEST PUSH0 CALLVALUE SUB PUSH2 0x200 JUMPI PUSH1 0x40 MLOAD PUSH32 0x8C379A000000000000000000000000000000000000000000000000000000000 DUP2 MSTORE PUSH1 0x4 ADD PUSH2 0x1F7 SWAP1 PUSH2 0x2AA8 JUMP JUMPDEST PUSH1 0x40 MLOAD DUP1 SWAP2 SUB SWAP1 REVERT JUMPDEST CALLER PUSH20 0xFFFFFFFFFFFFFFFFFFFFFFFFFFFFFFFFFFFFFFFF AND PUSH32 0x1E57E3BB474320BE3D2C77138F75B7C3941292D647F5F9634E33A8E94E0E069B CALLVALUE PUSH1 0x40 MLOAD PUSH2 0x246 SWAP2 SWAP1 PUSH2 0x2A0F JUMP JUMPDEST PUSH1 0x40 MLOAD DUP1 SWAP2 SUB SWAP1 LOG2 STOP JUMPDEST CALLVALUE DUP1 ISZERO PUSH2 0x25B JUMPI PUSH0 DUP1 REVERT JUMPDEST POP PUSH2 0x276 PUSH1 0x4 DUP1 CALLDATASIZE SUB DUP2 ADD SWAP1 PUSH2 0x271 SWAP2 SWAP1 PUSH2 0x2B2C JUMP JUMPDEST PUSH2 0x730 JUMP JUMPDEST PUSH1 0x40 MLOAD PUSH2 0x283 SWAP2 SWAP1 PUSH2 0x2B71 JUMP JUMPDEST PUSH1 0x40 MLOAD DUP1 SWAP2 SUB SWAP1 RETURN JUMPDEST CALLVALUE DUP1 ISZERO PUSH2 0x297 JUMPI PUSH0 DUP1 REVERT JUMPDEST POP PUSH2 0x2A0 PUSH2 0x811 JUMP JUMPDEST PUSH1 0x40 MLOAD PUSH2 0x2AD SWAP2 SWAP1 PUSH2 0x2BEA JUMP JUMPDEST PUSH1 0x40 MLOAD DUP1 SWAP2 SUB SWAP1 RETURN JUMPDEST CALLVALUE DUP1 ISZERO PUSH2 0x2C1 JUMPI PUSH0 DUP1 REVERT JUMPDEST POP PUSH2 0x2DC PUSH1 0x4 DUP1 CALLDATASIZE SUB DUP2 ADD SWAP1 PUSH2 0x2D7 SWAP2 SWAP1 PUSH2 0x2C34 JUMP JUMPDEST PUSH2 0x8A0 JUMP JUMPDEST PUSH1 0x40 MLOAD PUSH2 0x2E9 SWAP2 SWAP1 PUSH2 0x2C9E JUMP JUMPDEST PUSH1 0x40 MLOAD DUP1 SWAP2 SUB SWAP1 RETURN JUMPDEST CALLVALUE DUP1 ISZERO PUSH2 0x2FD JUMPI PUSH0 DUP1 REVERT JUMPDEST POP PUSH2 0x318 PUSH1 0x4 DUP1 CALLDATASIZE SUB DUP2 ADD SWAP1 PUSH2 0x313 SWAP2 SWAP1 PUSH2 0x2CE1 JUMP JUMPDEST PUSH2 0x8BB JUMP JUMPDEST STOP JUMPDEST CALLVALUE DUP1 ISZERO PUSH2 0x325 JUMPI PUSH0 DUP1 REVERT JUMPDEST POP PUSH2 0x340 PUSH1 0x4 DUP1 CALLDATASIZE SUB DUP2 ADD SWAP1 PUSH2 0x33B SWAP2 SWAP1 PUSH2 0x2F00 JUMP JUMPDEST PUSH2 0x8D1 JUMP JUMPDEST STOP JUMPDEST CALLVALUE DUP1 ISZERO PUSH2 0x34D JUMPI PUSH0 DUP1 REVERT JUMPDEST POP PUSH2 0x368 PUSH1 0x4 DUP1 CALLDATASIZE SUB DUP2 ADD SWAP1 PUSH2 0x363 SWAP2 SWAP1 PUSH2 0x2FAF JUMP JUMPDEST PUSH2 0xC36 JUMP JUMPDEST STOP JUMPDEST CALLVALUE DUP1 ISZERO PUSH2 0x375 JUMPI PUSH0 DUP1 REVERT JUMPDEST POP PUSH2 0x390 PUSH1 0x4 DUP1 CALLDATASIZE SUB DUP2 ADD SWAP1 PUSH2 0x38B SWAP2 SWAP1 PUSH2 0x2C34 JUMP JUMPDEST PUSH2 0xD35 JUMP JUMPDEST PUSH1 0x40 MLOAD PUSH2 0x39D SWAP2 SWAP1 PUSH2 0x2B71 JUMP JUMPDEST PUSH1 0x40 MLOAD DUP1 SWAP2 SUB SWAP1 RETURN JUMPDEST CALLVALUE DUP1 ISZERO PUSH2 0x3B1 JUMPI PUSH0 DUP1 REVERT JUMPDEST POP PUSH2 0x3CC PUSH1 0x4 DUP1 CALLDATASIZE SUB DUP2 ADD SWAP1 PUSH2 0x3C7 SWAP2 SWAP1 PUSH2 0x2FAF JUMP JUMPDEST PUSH2 0xE0C JUMP JUMPDEST STOP JUMPDEST CALLVALUE DUP1 ISZERO PUSH2 0x3D9 JUMPI PUSH0 DUP1 REVERT JUMPDEST POP PUSH2 0x3E2 PUSH2 0xE2B JUMP JUMPDEST PUSH1 0x40 MLOAD PUSH2 0x3EF SWAP2 SWAP1 PUSH2 0x2A0F JUMP JUMPDEST PUSH1 0x40 MLOAD DUP1 SWAP2 SUB SWAP1 RETURN JUMPDEST CALLVALUE DUP1 ISZERO PUSH2 0x403 JUMPI PUSH0 DUP1 REVERT JUMPDEST POP PUSH2 0x41E PUSH1 0x4 DUP1 CALLDATASIZE SUB DUP2 ADD SWAP1 PUSH2 0x419 SWAP2 SWAP1 PUSH2 0x2C34 JUMP JUMPDEST PUSH2 0xE34 JUMP JUMPDEST PUSH1 0x40 MLOAD PUSH2 0x42B SWAP2 SWAP1 PUSH2 0x2C9E JUMP JUMPDEST PUSH1 0x40 MLOAD DUP1 SWAP2 SUB SWAP1 RETURN JUMPDEST CALLVALUE DUP1 ISZERO PUSH2 0x43F JUMPI PUSH0 DUP1 REVERT JUMPDEST POP PUSH2 0x45A PUSH1 0x4 DUP1 CALLDATASIZE SUB DUP2 ADD SWAP1 PUSH2 0x455 SWAP2 SWAP1 PUSH2 0x2FFF JUMP JUMPDEST PUSH2 0xE45 JUMP JUMPDEST PUSH1 0x40 MLOAD PUSH2 0x467 SWAP2 SWAP1 PUSH2 0x2A0F JUMP JUMPDEST PUSH1 0x40 MLOAD DUP1 SWAP2 SUB SWAP1 RETURN JUMPDEST CALLVALUE DUP1 ISZERO PUSH2 0x47B JUMPI PUSH0 DUP1 REVERT JUMPDEST POP PUSH2 0x496 PUSH1 0x4 DUP1 CALLDATASIZE SUB DUP2 ADD SWAP1 PUSH2 0x491 SWAP2 SWAP1 PUSH2 0x2C34 JUMP JUMPDEST PUSH2 0xEFB JUMP JUMPDEST STOP JUMPDEST CALLVALUE DUP1 ISZERO PUSH2 0x4A3 JUMPI PUSH0 DUP1 REVERT JUMPDEST POP PUSH2 0x4BE PUSH1 0x4 DUP1 CALLDATASIZE SUB DUP2 ADD SWAP1 PUSH2 0x4B9 SWAP2 SWAP1 PUSH2 0x2C34 JUMP JUMPDEST PUSH2 0x1034 JUMP JUMPDEST PUSH1 0x40 MLOAD PUSH2 0x4CB SWAP2 SWAP1 PUSH2 0x2C9E JUMP JUMPDEST PUSH1 0x40 MLOAD DUP1 SWAP2 SUB SWAP1 RETURN JUMPDEST CALLVALUE DUP1 ISZERO PUSH2 0x4DF JUMPI PUSH0 DUP1 REVERT JUMPDEST POP PUSH2 0x4E8 PUSH2 0x1064 JUMP JUMPDEST PUSH1 0x40 MLOAD PUSH2 0x4F5 SWAP2 SWAP1 PUSH2 0x2C9E JUMP JUMPDEST PUSH1 0x40 MLOAD DUP1 SWAP2 SUB SWAP1 RETURN JUMPDEST CALLVALUE DUP1 ISZERO PUSH2 0x509 JUMPI PUSH0 DUP1 REVERT JUMPDEST POP PUSH2 0x524 PUSH1 0x4 DUP1 CALLDATASIZE SUB DUP2 ADD SWAP1 PUSH2 0x51F SWAP2 SWAP1 PUSH2 0x2C34 JUMP JUMPDEST PUSH2 0x108C JUMP JUMPDEST PUSH1 0x40 MLOAD PUSH2 0x531 SWAP2 SWAP1 PUSH2 0x2C9E JUMP JUMPDEST PUSH1 0x40 MLOAD DUP1 SWAP2 SUB SWAP1 RETURN JUMPDEST CALLVALUE DUP1 ISZERO PUSH2 0x545 JUMPI PUSH0 DUP1 REVERT JUMPDEST POP PUSH2 0x54E PUSH2 0x114E JUMP JUMPDEST PUSH1 0x40 MLOAD PUSH2 0x55B SWAP2 SWAP1 PUSH2 0x2BEA JUMP JUMPDEST PUSH1 0x40 MLOAD DUP1 SWAP2 SUB SWAP1 RETURN JUMPDEST CALLVALUE DUP1 ISZERO PUSH2 0x56F JUMPI PUSH0 DUP1 REVERT JUMPDEST POP PUSH2 0x58A PUSH1 0x4 DUP1 CALLDATASIZE SUB DUP2 ADD SWAP1 PUSH2 0x585 SWAP2 SWAP1 PUSH2 0x3054 JUMP JUMPDEST PUSH2 0x11DE JUMP JUMPDEST STOP JUMPDEST CALLVALUE DUP1 ISZERO PUSH2 0x597 JUMPI PUSH0 DUP1 REVERT JUMPDEST POP PUSH2 0x5B2 PUSH1 0x4 DUP1 CALLDATASIZE SUB DUP2 ADD SWAP1 PUSH2 0x5AD SWAP2 SWAP1 PUSH2 0x3130 JUMP JUMPDEST PUSH2 0x11F4 JUMP JUMPDEST STOP JUMPDEST CALLVALUE DUP1 ISZERO PUSH2 0x5BF JUMPI PUSH0 DUP1 REVERT JUMPDEST POP PUSH2 0x5DA PUSH1 0x4 DUP1 CALLDATASIZE SUB DUP2 ADD SWAP1 PUSH2 0x5D5 SWAP2 SWAP1 PUSH2 0x2FAF JUMP JUMPDEST PUSH2 0x1219 JUMP JUMPDEST STOP JUMPDEST CALLVALUE DUP1 ISZERO PUSH2 0x5E7 JUMPI PUSH0 DUP1 REVERT JUMPDEST POP PUSH2 0x602 PUSH1 0x4 DUP1 CALLDATASIZE SUB DUP2 ADD SWAP1 PUSH2 0x5FD SWAP2 SWAP1 PUSH2 0x2C34 JUMP JUMPDEST PUSH2 0x12EE JUMP JUMPDEST PUSH1 0x40 MLOAD PUSH2 0x60F SWAP2 SWAP1 PUSH2 0x2BEA JUMP JUMPDEST PUSH1 0x40 MLOAD DUP1 SWAP2 SUB SWAP1 RETURN JUMPDEST CALLVALUE DUP1 ISZERO PUSH2 0x623 JUMPI PUSH0 DUP1 REVERT JUMPDEST POP PUSH2 0x63E PUSH1 0x4 DUP1 CALLDATASIZE SUB DUP2 ADD SWAP1 PUSH2 0x639 SWAP2 SWAP1 PUSH2 0x31E6 JUMP JUMPDEST PUSH2 0x1354 JUMP JUMPDEST PUSH1 0x40 MLOAD PUSH2 0x64B SWAP2 SWAP1 PUSH2 0x326C JUMP JUMPDEST PUSH1 0x40 MLOAD DUP1 SWAP2 SUB SWAP1 RETURN JUMPDEST CALLVALUE DUP1 ISZERO PUSH2 0x65F JUMPI PUSH0 DUP1 REVERT JUMPDEST POP PUSH2 0x67A PUSH1 0x4 DUP1 CALLDATASIZE SUB DUP2 ADD SWAP1 PUSH2 0x675 SWAP2 SWAP1 PUSH2 0x3285 JUMP JUMPDEST PUSH2 0x1536 JUMP JUMPDEST PUSH1 0x40 MLOAD PUSH2 0x687 SWAP2 SWAP1 PUSH2 0x2A0F JUMP JUMPDEST PUSH1 0x40 MLOAD DUP1 SWAP2 SUB SWAP1 RETURN JUMPDEST CALLVALUE DUP1 ISZERO PUSH2 0x69B JUMPI PUSH0 DUP1 REVERT JUMPDEST POP PUSH2 0x6B6 PUSH1 0x4 DUP1 CALLDATASIZE SUB DUP2 ADD SWAP1 PUSH2 0x6B1 SWAP2 SWAP1 PUSH2 0x32C3 JUMP JUMPDEST PUSH2 0x1756 JUMP JUMPDEST PUSH1 0x40 MLOAD PUSH2 0x6C3 SWAP2 SWAP1 PUSH2 0x2B71 JUMP JUMPDEST PUSH1 0x40 MLOAD DUP1 SWAP2 SUB SWAP1 RETURN JUMPDEST CALLVALUE DUP1 ISZERO PUSH2 0x6D7 JUMPI PUSH0 DUP1 REVERT JUMPDEST POP PUSH2 0x6F2 PUSH1 0x4 DUP1 CALLDATASIZE SUB DUP2 ADD SWAP1 PUSH2 0x6ED SWAP2 SWAP1 PUSH2 0x2C34 JUMP JUMPDEST PUSH2 0x17E4 JUMP JUMPDEST PUSH1 0x40 MLOAD PUSH2 0x6FF SWAP2 SWAP1 PUSH2 0x33E1 JUMP JUMPDEST PUSH1 0x40 MLOAD DUP1 SWAP2 SUB SWAP1 RETURN JUMPDEST CALLVALUE DUP1 ISZERO PUSH2 0x713 JUMPI PUSH0 DUP1 REVERT JUMPDEST POP PUSH2 0x72E PUSH1 0x4 DUP1 CALLDATASIZE SUB DUP2 ADD SWAP1 PUSH2 0x729 SWAP2 SWAP1 PUSH2 0x2C34 JUMP JUMPDEST PUSH2 0x1A12 JUMP JUMPDEST STOP JUMPDEST PUSH0 PUSH32 0x80AC58CD00000000000000000000000000000000000000000000000000000000 PUSH28 0xFFFFFFFFFFFFFFFFFFFFFFFFFFFFFFFFFFFFFFFFFFFFFFFFFFFFFFFF NOT AND DUP3 PUSH28 0xFFFFFFFFFFFFFFFFFFFFFFFFFFFFFFFFFFFFFFFFFFFFFFFFFFFFFFFF NOT AND EQ DUP1 PUSH2 0x7FA JUMPI POP PUSH32 0x5B5E139F00000000000000000000000000000000000000000000000000000000 PUSH28 0xFFFFFFFFFFFFFFFFFFFFFFFFFFFFFFFFFFFFFFFFFFFFFFFFFFFFFFFF NOT AND DUP3 PUSH28 0xFFFFFFFFFFFFFFFFFFFFFFFFFFFFFFFFFFFFFFFFFFFFFFFFFFFFFFFF NOT AND EQ JUMPDEST DUP1 PUSH2 0x80A JUMPI POP PUSH2 0x809 DUP3 PUSH2 0x1B5F JUMP JUMPDEST JUMPDEST SWAP1 POP SWAP2 SWAP1 POP JUMP JUMPDEST PUSH1 0x60 PUSH0 DUP1 SLOAD PUSH2 0x81F SWAP1 PUSH2 0x342E JUMP JUMPDEST DUP1 PUSH1 0x1F ADD PUSH1 0x20 DUP1 SWAP2 DIV MUL PUSH1 0x20 ADD PUSH1 0x40 MLOAD SWAP1 DUP2 ADD PUSH1 0x40 MSTORE DUP1 SWAP3 SWAP2 SWAP1 DUP2 DUP2 MSTORE PUSH1 0x20 ADD DUP3 DUP1 SLOAD PUSH2 0x84B SWAP1 PUSH2 0x342E JUMP JUMPDEST DUP1 ISZERO PUSH2 0x896 JUMPI DUP1 PUSH1 0x1F LT PUSH2 0x86D JUMPI PUSH2 0x100 DUP1 DUP4 SLOAD DIV MUL DUP4 MSTORE SWAP2 PUSH1 0x20 ADD SWAP2 PUSH2 0x896 JUMP JUMPDEST DUP3 ADD SWAP2 SWAP1 PUSH0 MSTORE PUSH1 0x20 PUSH0 KECCAK256 SWAP1 JUMPDEST DUP2 SLOAD DUP2 MSTORE SWAP1 PUSH1 0x1 ADD SWAP1 PUSH1 0x20 ADD DUP1 DUP4 GT PUSH2 0x879 JUMPI DUP3 SWAP1 SUB PUSH1 0x1F AND DUP3 ADD SWAP2 JUMPDEST POP POP POP POP POP SWAP1 POP SWAP1 JUMP JUMPDEST PUSH0 PUSH2 0x8AA DUP3 PUSH2 0x1BC8 JUMP JUMPDEST POP PUSH2 0x8B4 DUP3 PUSH2 0x1C4E JUMP JUMPDEST SWAP1 POP SWAP2 SWAP1 POP JUMP JUMPDEST PUSH2 0x8CD DUP3 DUP3 PUSH2 0x8C8 PUSH2 0x1C87 JUMP JUMPDEST PUSH2 0x1C8E JUMP JUMPDEST POP POP JUMP JUMPDEST PUSH1 0x6 PUSH0 SWAP1 SLOAD SWAP1 PUSH2 0x100 EXP SWAP1 DIV PUSH20 0xFFFFFFFFFFFFFFFFFFFFFFFFFFFFFFFFFFFFFFFF AND PUSH20 0xFFFFFFFFFFFFFFFFFFFFFFFFFFFFFFFFFFFFFFFF AND CALLER PUSH20 0xFFFFFFFFFFFFFFFFFFFFFFFFFFFFFFFFFFFFFFFF AND EQ PUSH2 0x960 JUMPI PUSH1 0x40 MLOAD PUSH32 0x8C379A000000000000000000000000000000000000000000000000000000000 DUP2 MSTORE PUSH1 0x4 ADD PUSH2 0x957 SWAP1 PUSH2 0x34A8 JUMP JUMPDEST PUSH1 0x40 MLOAD DUP1 SWAP2 SUB SWAP1 REVERT JUMPDEST PUSH0 DUP6 MLOAD GT PUSH2 0x9A3 JUMPI PUSH1 0x40 MLOAD PUSH32 0x8C379A000000000000000000000000000000000000000000000000000000000 DUP2 MSTORE PUSH1 0x4 ADD PUSH2 0x99A SWAP1 PUSH2 0x3510 JUMP JUMPDEST PUSH1 0x40 MLOAD DUP1 SWAP2 SUB SWAP1 REVERT JUMPDEST PUSH0 DUP5 MLOAD GT PUSH2 0x9E6 JUMPI PUSH1 0x40 MLOAD PUSH32 0x8C379A000000000000000000000000000000000000000000000000000000000 DUP2 MSTORE PUSH1 0x4 ADD PUSH2 0x9DD SWAP1 PUSH2 0x3578 JUMP JUMPDEST PUSH1 0x40 MLOAD DUP1 SWAP2 SUB SWAP1 REVERT JUMPDEST PUSH2 0x75E DUP4 PUSH2 0xFFFF AND LT ISZERO DUP1 ISZERO PUSH2 0xA28 JUMPI POP PUSH1 0x1 PUSH2 0x7B2 PUSH4 0x1E1853E TIMESTAMP PUSH2 0xA0C SWAP2 SWAP1 PUSH2 0x35F0 JUMP JUMPDEST PUSH2 0xA16 SWAP2 SWAP1 PUSH2 0x3620 JUMP JUMPDEST PUSH2 0xA20 SWAP2 SWAP1 PUSH2 0x3620 JUMP JUMPDEST DUP4 PUSH2 0xFFFF AND GT ISZERO JUMPDEST PUSH2 0xA67 JUMPI PUSH1 0x40 MLOAD PUSH32 0x8C379A000000000000000000000000000000000000000000000000000000000 DUP2 MSTORE PUSH1 0x4 ADD PUSH2 0xA5E SWAP1 PUSH2 0x36C3 JUMP JUMPDEST PUSH1 0x40 MLOAD DUP1 SWAP2 SUB SWAP1 REVERT JUMPDEST PUSH0 DUP3 PUSH16 0xFFFFFFFFFFFFFFFFFFFFFFFFFFFFFFFF AND GT PUSH2 0xABB JUMPI PUSH1 0x40 MLOAD PUSH32 0x8C379A000000000000000000000000000000000000000000000000000000000 DUP2 MSTORE PUSH1 0x4 ADD PUSH2 0xAB2 SWAP1 PUSH2 0x3751 JUMP JUMPDEST PUSH1 0x40 MLOAD DUP1 SWAP2 SUB SWAP1 REVERT JUMPDEST PUSH0 DUP2 PUSH4 0xFFFFFFFF AND LT ISZERO PUSH2 0xB04 JUMPI PUSH1 0x40 MLOAD PUSH32 0x8C379A000000000000000000000000000000000000000000000000000000000 DUP2 MSTORE PUSH1 0x4 ADD PUSH2 0xAFB SWAP1 PUSH2 0x37DF JUMP JUMPDEST PUSH1 0x40 MLOAD DUP1 SWAP2 SUB SWAP1 REVERT JUMPDEST PUSH1 0x1 PUSH1 0xA PUSH0 DUP3 DUP3 SLOAD PUSH2 0xB16 SWAP2 SWAP1 PUSH2 0x3620 JUMP JUMPDEST SWAP3 POP POP DUP2 SWAP1 SSTORE POP PUSH0 PUSH1 0xA SLOAD SWAP1 POP PUSH1 0x40 MLOAD DUP1 PUSH1 0xA0 ADD PUSH1 0x40 MSTORE DUP1 DUP8 DUP2 MSTORE PUSH1 0x20 ADD DUP7 DUP2 MSTORE PUSH1 0x20 ADD DUP6 PUSH2 0xFFFF AND DUP2 MSTORE PUSH1 0x20 ADD DUP5 PUSH16 0xFFFFFFFFFFFFFFFFFFFFFFFFFFFFFFFF AND DUP2 MSTORE PUSH1 0x20 ADD DUP4 PUSH4 0xFFFFFFFF AND DUP2 MSTORE POP PUSH1 0x7 PUSH0 DUP4 DUP2 MSTORE PUSH1 0x20 ADD SWAP1 DUP2 MSTORE PUSH1 0x20 ADD PUSH0 KECCAK256 PUSH0 DUP3 ADD MLOAD DUP2 PUSH0 ADD SWAP1 DUP2 PUSH2 0xB8A SWAP2 SWAP1 PUSH2 0x399A JUMP JUMPDEST POP PUSH1 0x20 DUP3 ADD MLOAD DUP2 PUSH1 0x1 ADD SWAP1 DUP2 PUSH2 0xBA0 SWAP2 SWAP1 PUSH2 0x399A JUMP JUMPDEST POP PUSH1 0x40 DUP3 ADD MLOAD DUP2 PUSH1 0x2 ADD PUSH0 PUSH2 0x100 EXP DUP2 SLOAD DUP2 PUSH2 0xFFFF MUL NOT AND SWAP1 DUP4 PUSH2 0xFFFF AND MUL OR SWAP1 SSTORE POP PUSH1 0x60 DUP3 ADD MLOAD DUP2 PUSH1 0x3 ADD SSTORE PUSH1 0x80 DUP3 ADD MLOAD DUP2 PUSH1 0x4 ADD SSTORE SWAP1 POP POP PUSH1 0x1 PUSH1 0x8 PUSH0 DUP4 DUP2 MSTORE PUSH1 0x20 ADD SWAP1 DUP2 MSTORE PUSH1 0x20 ADD PUSH0 KECCAK256 PUSH0 PUSH2 0x100 EXP DUP2 SLOAD DUP2 PUSH1 0xFF MUL NOT AND SWAP1 DUP4 ISZERO ISZERO MUL OR SWAP1 SSTORE POP PUSH2 0xC2E PUSH1 0x6 PUSH0 SWAP1 SLOAD SWAP1 PUSH2 0x100 EXP SWAP1 DIV PUSH20 0xFFFFFFFFFFFFFFFFFFFFFFFFFFFFFFFFFFFFFFFF AND DUP3 PUSH2 0x1CA0 JUMP JUMPDEST POP POP POP POP POP POP JUMP JUMPDEST PUSH0 PUSH20 0xFFFFFFFFFFFFFFFFFFFFFFFFFFFFFFFFFFFFFFFF AND DUP3 PUSH20 0xFFFFFFFFFFFFFFFFFFFFFFFFFFFFFFFFFFFFFFFF AND SUB PUSH2 0xCA6 JUMPI PUSH0 PUSH1 0x40 MLOAD PUSH32 0x64A0AE9200000000000000000000000000000000000000000000000000000000 DUP2 MSTORE PUSH1 0x4 ADD PUSH2 0xC9D SWAP2 SWAP1 PUSH2 0x2C9E JUMP JUMPDEST PUSH1 0x40 MLOAD DUP1 SWAP2 SUB SWAP1 REVERT JUMPDEST PUSH0 PUSH2 0xCB9 DUP4 DUP4 PUSH2 0xCB4 PUSH2 0x1C87 JUMP JUMPDEST PUSH2 0x1D93 JUMP JUMPDEST SWAP1 POP DUP4 PUSH20 0xFFFFFFFFFFFFFFFFFFFFFFFFFFFFFFFFFFFFFFFF AND DUP2 PUSH20 0xFFFFFFFFFFFFFFFFFFFFFFFFFFFFFFFFFFFFFFFF AND EQ PUSH2 0xD2F JUMPI DUP4 DUP3 DUP3 PUSH1 0x40 MLOAD PUSH32 0x64283D7B00000000000000000000000000000000000000000000000000000000 DUP2 MSTORE PUSH1 0x4 ADD PUSH2 0xD26 SWAP4 SWAP3 SWAP2 SWAP1 PUSH2 0x3A69 JUMP JUMPDEST PUSH1 0x40 MLOAD DUP1 SWAP2 SUB SWAP1 REVERT JUMPDEST POP POP POP POP JUMP JUMPDEST PUSH0 DUP2 ADDRESS PUSH20 0xFFFFFFFFFFFFFFFFFFFFFFFFFFFFFFFFFFFFFFFF AND PUSH4 0x4F3E1EFC PUSH1 0x40 MLOAD DUP2 PUSH4 0xFFFFFFFF AND PUSH1 0xE0 SHL DUP2 MSTORE PUSH1 0x4 ADD PUSH1 0x20 PUSH1 0x40 MLOAD DUP1 DUP4 SUB DUP2 DUP7 GAS STATICCALL ISZERO DUP1 ISZERO PUSH2 0xD80 JUMPI RETURNDATASIZE PUSH0 DUP1 RETURNDATACOPY RETURNDATASIZE PUSH0 REVERT JUMPDEST POP POP POP POP PUSH1 0x40 MLOAD RETURNDATASIZE PUSH1 0x1F NOT PUSH1 0x1F DUP3 ADD AND DUP3 ADD DUP1 PUSH1 0x40 MSTORE POP DUP2 ADD SWAP1 PUSH2 0xDA4 SWAP2 SWAP1 PUSH2 0x3AB2 JUMP JUMPDEST DUP2 GT ISZERO PUSH2 0xDE6 JUMPI PUSH1 0x40 MLOAD PUSH32 0x8C379A000000000000000000000000000000000000000000000000000000000 DUP2 MSTORE PUSH1 0x4 ADD PUSH2 0xDDD SWAP1 PUSH2 0x3B27 JUMP JUMPDEST PUSH1 0x40 MLOAD DUP1 SWAP2 SUB SWAP1 REVERT JUMPDEST PUSH1 0x8 PUSH0 DUP5 DUP2 MSTORE PUSH1 0x20 ADD SWAP1 DUP2 MSTORE PUSH1 0x20 ADD PUSH0 KECCAK256 PUSH0 SWAP1 SLOAD SWAP1 PUSH2 0x100 EXP SWAP1 DIV PUSH1 0xFF AND SWAP2 POP POP SWAP2 SWAP1 POP JUMP JUMPDEST PUSH2 0xE26 DUP4 DUP4 DUP4 PUSH1 0x40 MLOAD DUP1 PUSH1 0x20 ADD PUSH1 0x40 MSTORE DUP1 PUSH0 DUP2 MSTORE POP PUSH2 0x11F4 JUMP JUMPDEST POP POP POP JUMP JUMPDEST PUSH0 PUSH1 0xA SLOAD SWAP1 POP SWAP1 JUMP JUMPDEST PUSH0 PUSH2 0xE3E DUP3 PUSH2 0x1BC8 JUMP JUMPDEST SWAP1 POP SWAP2 SWAP1 POP JUMP JUMPDEST PUSH0 DUP1 PUSH20 0xFFFFFFFFFFFFFFFFFFFFFFFFFFFFFFFFFFFFFFFF AND DUP3 PUSH20 0xFFFFFFFFFFFFFFFFFFFFFFFFFFFFFFFFFFFFFFFF AND SUB PUSH2 0xEB6 JUMPI PUSH0 PUSH1 0x40 MLOAD PUSH32 0x89C62B6400000000000000000000000000000000000000000000000000000000 DUP2 MSTORE PUSH1 0x4 ADD PUSH2 0xEAD SWAP2 SWAP1 PUSH2 0x2C9E JUMP JUMPDEST PUSH1 0x40 MLOAD DUP1 SWAP2 SUB SWAP1 REVERT JUMPDEST PUSH1 0x3 PUSH0 DUP4 PUSH20 0xFFFFFFFFFFFFFFFFFFFFFFFFFFFFFFFFFFFFFFFF AND PUSH20 0xFFFFFFFFFFFFFFFFFFFFFFFFFFFFFFFFFFFFFFFF AND DUP2 MSTORE PUSH1 0x20 ADD SWAP1 DUP2 MSTORE PUSH1 0x20 ADD PUSH0 KECCAK256 SLOAD SWAP1 POP SWAP2 SWAP1 POP JUMP JUMPDEST DUP1 ADDRESS PUSH20 0xFFFFFFFFFFFFFFFFFFFFFFFFFFFFFFFFFFFFFFFF AND PUSH4 0x4F3E1EFC PUSH1 0x40 MLOAD DUP2 PUSH4 0xFFFFFFFF AND PUSH1 0xE0 SHL DUP2 MSTORE PUSH1 0x4 ADD PUSH1 0x20 PUSH1 0x40 MLOAD DUP1 DUP4 SUB DUP2 DUP7 GAS STATICCALL ISZERO DUP1 ISZERO PUSH2 0xF45 JUMPI RETURNDATASIZE PUSH0 DUP1 RETURNDATACOPY RETURNDATASIZE PUSH0 REVERT JUMPDEST POP POP POP POP PUSH1 0x40 MLOAD RETURNDATASIZE PUSH1 0x1F NOT PUSH1 0x1F DUP3 ADD AND DUP3 ADD DUP1 PUSH1 0x40 MSTORE POP DUP2 ADD SWAP1 PUSH2 0xF69 SWAP2 SWAP1 PUSH2 0x3AB2 JUMP JUMPDEST DUP2 GT ISZERO PUSH2 0xFAB JUMPI PUSH1 0x40 MLOAD PUSH32 0x8C379A000000000000000000000000000000000000000000000000000000000 DUP2 MSTORE PUSH1 0x4 ADD PUSH2 0xFA2 SWAP1 PUSH2 0x3B27 JUMP JUMPDEST PUSH1 0x40 MLOAD DUP1 SWAP2 SUB SWAP1 REVERT JUMPDEST PUSH1 0x8 PUSH0 DUP4 DUP2 MSTORE PUSH1 0x20 ADD SWAP1 DUP2 MSTORE PUSH1 0x20 ADD PUSH0 KECCAK256 PUSH0 SWAP1 SLOAD SWAP1 PUSH2 0x100 EXP SWAP1 DIV PUSH1 0xFF AND PUSH2 0x1008 JUMPI PUSH1 0x40 MLOAD PUSH32 0x8C379A000000000000000000000000000000000000000000000000000000000 DUP2 MSTORE PUSH1 0x4 ADD PUSH2 0xFFF SWAP1 PUSH2 0x3BB5 JUMP JUMPDEST PUSH1 0x40 MLOAD DUP1 SWAP2 SUB SWAP1 REVERT JUMPDEST PUSH0 PUSH1 0x8 PUSH0 DUP5 DUP2 MSTORE PUSH1 0x20 ADD SWAP1 DUP2 MSTORE PUSH1 0x20 ADD PUSH0 KECCAK256 PUSH0 PUSH2 0x100 EXP DUP2 SLOAD DUP2 PUSH1 0xFF MUL NOT AND SWAP1 DUP4 ISZERO ISZERO MUL OR SWAP1 SSTORE POP POP POP JUMP JUMPDEST PUSH1 0x9 PUSH1 0x20 MSTORE DUP1 PUSH0 MSTORE PUSH1 0x40 PUSH0 KECCAK256 PUSH0 SWAP2 POP SLOAD SWAP1 PUSH2 0x100 EXP SWAP1 DIV PUSH20 0xFFFFFFFFFFFFFFFFFFFFFFFFFFFFFFFFFFFFFFFF AND DUP2 JUMP JUMPDEST PUSH0 PUSH1 0x6 PUSH0 SWAP1 SLOAD SWAP1 PUSH2 0x100 EXP SWAP1 DIV PUSH20 0xFFFFFFFFFFFFFFFFFFFFFFFFFFFFFFFFFFFFFFFF AND SWAP1 POP SWAP1 JUMP JUMPDEST PUSH0 DUP2 ADDRESS PUSH20 0xFFFFFFFFFFFFFFFFFFFFFFFFFFFFFFFFFFFFFFFF AND PUSH4 0x4F3E1EFC PUSH1 0x40 MLOAD DUP2 PUSH4 0xFFFFFFFF AND PUSH1 0xE0 SHL DUP2 MSTORE PUSH1 0x4 ADD PUSH1 0x20 PUSH1 0x40 MLOAD DUP1 DUP4 SUB DUP2 DUP7 GAS STATICCALL ISZERO DUP1 ISZERO PUSH2 0x10D7 JUMPI RETURNDATASIZE PUSH0 DUP1 RETURNDATACOPY RETURNDATASIZE PUSH0 REVERT JUMPDEST POP POP POP POP PUSH1 0x40 MLOAD RETURNDATASIZE PUSH1 0x1F NOT PUSH1 0x1F DUP3 ADD AND DUP3 ADD DUP1 PUSH1 0x40 MSTORE POP DUP2 ADD SWAP1 PUSH2 0x10FB SWAP2 SWAP1 PUSH2 0x3AB2 JUMP JUMPDEST DUP2 GT ISZERO PUSH2 0x113D JUMPI PUSH1 0x40 MLOAD PUSH32 0x8C379A000000000000000000000000000000000000000000000000000000000 DUP2 MSTORE PUSH1 0x4 ADD PUSH2 0x1134 SWAP1 PUSH2 0x3B27 JUMP JUMPDEST PUSH1 0x40 MLOAD DUP1 SWAP2 SUB SWAP1 REVERT JUMPDEST PUSH2 0x1146 DUP4 PUSH2 0x1F9E JUMP JUMPDEST SWAP2 POP POP SWAP2 SWAP1 POP JUMP JUMPDEST PUSH1 0x60 PUSH1 0x1 DUP1 SLOAD PUSH2 0x115D SWAP1 PUSH2 0x342E JUMP JUMPDEST DUP1 PUSH1 0x1F ADD PUSH1 0x20 DUP1 SWAP2 DIV MUL PUSH1 0x20 ADD PUSH1 0x40 MLOAD SWAP1 DUP2 ADD PUSH1 0x40 MSTORE DUP1 SWAP3 SWAP2 SWAP1 DUP2 DUP2 MSTORE PUSH1 0x20 ADD DUP3 DUP1 SLOAD PUSH2 0x1189 SWAP1 PUSH2 0x342E JUMP JUMPDEST DUP1 ISZERO PUSH2 0x11D4 JUMPI DUP1 PUSH1 0x1F LT PUSH2 0x11AB JUMPI PUSH2 0x100 DUP1 DUP4 SLOAD DIV MUL DUP4 MSTORE SWAP2 PUSH1 0x20 ADD SWAP2 PUSH2 0x11D4 JUMP JUMPDEST DUP3 ADD SWAP2 SWAP1 PUSH0 MSTORE PUSH1 0x20 PUSH0 KECCAK256 SWAP1 JUMPDEST DUP2 SLOAD DUP2 MSTORE SWAP1 PUSH1 0x1 ADD SWAP1 PUSH1 0x20 ADD DUP1 DUP4 GT PUSH2 0x11B7 JUMPI DUP3 SWAP1 SUB PUSH1 0x1F AND DUP3 ADD SWAP2 JUMPDEST POP POP POP POP POP SWAP1 POP SWAP1 JUMP JUMPDEST PUSH2 0x11F0 PUSH2 0x11E9 PUSH2 0x1C87 JUMP JUMPDEST DUP4 DUP4 PUSH2 0x1FD7 JUMP JUMPDEST POP POP JUMP JUMPDEST PUSH2 0x11FF DUP5 DUP5 DUP5 PUSH2 0xC36 JUMP JUMPDEST PUSH2 0x1213 PUSH2 0x120A PUSH2 0x1C87 JUMP JUMPDEST DUP6 DUP6 DUP6 DUP6 PUSH2 0x2140 JUMP JUMPDEST POP POP POP POP JUMP JUMPDEST DUP2 PUSH20 0xFFFFFFFFFFFFFFFFFFFFFFFFFFFFFFFFFFFFFFFF AND PUSH2 0x1239 DUP3 PUSH2 0x1F9E JUMP JUMPDEST PUSH20 0xFFFFFFFFFFFFFFFFFFFFFFFFFFFFFFFFFFFFFFFF AND EQ PUSH2 0x128F JUMPI PUSH1 0x40 MLOAD PUSH32 0x8C379A000000000000000000000000000000000000000000000000000000000 DUP2 MSTORE PUSH1 0x4 ADD PUSH2 0x1286 SWAP1 PUSH2 0x3C1D JUMP JUMPDEST PUSH1 0x40 MLOAD DUP1 SWAP2 SUB SWAP1 REVERT JUMPDEST PUSH2 0x129A DUP3 DUP5 DUP4 PUSH2 0xC36 JUMP JUMPDEST CALLER PUSH1 0x9 PUSH0 DUP4 DUP2 MSTORE PUSH1 0x20 ADD SWAP1 DUP2 MSTORE PUSH1 0x20 ADD PUSH0 KECCAK256 PUSH0 PUSH2 0x100 EXP DUP2 SLOAD DUP2 PUSH20 0xFFFFFFFFFFFFFFFFFFFFFFFFFFFFFFFFFFFFFFFF MUL NOT AND SWAP1 DUP4 PUSH20 0xFFFFFFFFFFFFFFFFFFFFFFFFFFFFFFFFFFFFFFFF AND MUL OR SWAP1 SSTORE POP POP POP POP JUMP JUMPDEST PUSH1 0x60 PUSH2 0x12F9 DUP3 PUSH2 0x1BC8 JUMP JUMPDEST POP PUSH0 PUSH2 0x1303 PUSH2 0x22EC JUMP JUMPDEST SWAP1 POP PUSH0 DUP2 MLOAD GT PUSH2 0x1321 JUMPI PUSH1 0x40 MLOAD DUP1 PUSH1 0x20 ADD PUSH1 0x40 MSTORE DUP1 PUSH0 DUP2 MSTORE POP PUSH2 0x134C JUMP JUMPDEST DUP1 PUSH2 0x132B DUP5 PUSH2 0x2302 JUMP JUMPDEST PUSH1 0x40 MLOAD PUSH1 0x20 ADD PUSH2 0x133C SWAP3 SWAP2 SWAP1 PUSH2 0x3C75 JUMP JUMPDEST PUSH1 0x40 MLOAD PUSH1 0x20 DUP2 DUP4 SUB SUB DUP2 MSTORE SWAP1 PUSH1 0x40 MSTORE JUMPDEST SWAP2 POP POP SWAP2 SWAP1 POP JUMP JUMPDEST PUSH0 DUP1 PUSH0 PUSH1 0x64 DUP9 PUSH2 0x1364 SWAP2 SWAP1 PUSH2 0x35F0 JUMP JUMPDEST SWAP1 POP PUSH2 0x3E8 DUP8 LT ISZERO PUSH2 0x1378 JUMPI PUSH0 SWAP2 POP PUSH2 0x13BF JUMP JUMPDEST PUSH2 0x2710 DUP8 LT ISZERO PUSH2 0x13A2 JUMPI PUSH1 0x64 PUSH1 0x5 DUP3 PUSH2 0x1391 SWAP2 SWAP1 PUSH2 0x3C98 JUMP JUMPDEST PUSH2 0x139B SWAP2 SWAP1 PUSH2 0x35F0 JUMP JUMPDEST SWAP2 POP PUSH2 0x13BE JUMP JUMPDEST PUSH1 0x64 PUSH1 0x14 DUP3 PUSH2 0x13B1 SWAP2 SWAP1 PUSH2 0x3C98 JUMP JUMPDEST PUSH2 0x13BB SWAP2 SWAP1 PUSH2 0x35F0 JUMP JUMPDEST SWAP2 POP JUMPDEST JUMPDEST PUSH0 PUSH1 0x5 DUP8 PUSH1 0xFF AND GT PUSH2 0x13E9 JUMPI PUSH1 0x64 PUSH1 0x3 DUP4 PUSH2 0x13DA SWAP2 SWAP1 PUSH2 0x3C98 JUMP JUMPDEST PUSH2 0x13E4 SWAP2 SWAP1 PUSH2 0x35F0 JUMP JUMPDEST PUSH2 0x13EB JUMP JUMPDEST PUSH0 JUMPDEST SWAP1 POP PUSH0 PUSH1 0xA DUP7 GT ISZERO PUSH2 0x1417 JUMPI PUSH1 0x64 PUSH1 0x3 DUP5 PUSH2 0x1406 SWAP2 SWAP1 PUSH2 0x3C98 JUMP JUMPDEST PUSH2 0x1410 SWAP2 SWAP1 PUSH2 0x35F0 JUMP JUMPDEST SWAP1 POP PUSH2 0x146F JUMP JUMPDEST PUSH1 0x5 DUP7 GT ISZERO PUSH2 0x1440 JUMPI PUSH1 0x64 PUSH1 0x2 DUP5 PUSH2 0x142F SWAP2 SWAP1 PUSH2 0x3C98 JUMP JUMPDEST PUSH2 0x1439 SWAP2 SWAP1 PUSH2 0x35F0 JUMP JUMPDEST SWAP1 POP PUSH2 0x146E JUMP JUMPDEST PUSH1 0x2 DUP7 GT ISZERO PUSH2 0x1469 JUMPI PUSH1 0x64 PUSH1 0x1 DUP5 PUSH2 0x1458 SWAP2 SWAP1 PUSH2 0x3C98 JUMP JUMPDEST PUSH2 0x1462 SWAP2 SWAP1 PUSH2 0x35F0 JUMP JUMPDEST SWAP1 POP PUSH2 0x146D JUMP JUMPDEST PUSH0 SWAP1 POP JUMPDEST JUMPDEST JUMPDEST PUSH0 PUSH2 0x2328 DUP9 GT ISZERO PUSH2 0x149A JUMPI PUSH1 0x64 PUSH1 0x5 DUP6 PUSH2 0x1489 SWAP2 SWAP1 PUSH2 0x3C98 JUMP JUMPDEST PUSH2 0x1493 SWAP2 SWAP1 PUSH2 0x35F0 JUMP JUMPDEST SWAP1 POP PUSH2 0x14F4 JUMP JUMPDEST PUSH2 0x1770 DUP9 GT ISZERO PUSH2 0x14C4 JUMPI PUSH1 0x64 PUSH1 0x3 DUP6 PUSH2 0x14B3 SWAP2 SWAP1 PUSH2 0x3C98 JUMP JUMPDEST PUSH2 0x14BD SWAP2 SWAP1 PUSH2 0x35F0 JUMP JUMPDEST SWAP1 POP PUSH2 0x14F3 JUMP JUMPDEST PUSH2 0xBB8 DUP9 GT ISZERO PUSH2 0x14EE JUMPI PUSH1 0x64 PUSH1 0x2 DUP6 PUSH2 0x14DD SWAP2 SWAP1 PUSH2 0x3C98 JUMP JUMPDEST PUSH2 0x14E7 SWAP2 SWAP1 PUSH2 0x35F0 JUMP JUMPDEST SWAP1 POP PUSH2 0x14F2 JUMP JUMPDEST PUSH0 SWAP1 POP JUMPDEST JUMPDEST JUMPDEST PUSH0 DUP2 DUP4 DUP6 DUP9 DUP9 PUSH2 0x1504 SWAP2 SWAP1 PUSH2 0x3CD9 JUMP JUMPDEST PUSH2 0x150E SWAP2 SWAP1 PUSH2 0x3620 JUMP JUMPDEST PUSH2 0x1518 SWAP2 SWAP1 PUSH2 0x3CD9 JUMP JUMPDEST PUSH2 0x1522 SWAP2 SWAP1 PUSH2 0x3620 JUMP JUMPDEST SWAP1 POP DUP1 SWAP7 POP POP POP POP POP POP POP SWAP6 SWAP5 POP POP POP POP POP JUMP JUMPDEST PUSH0 DUP3 ADDRESS PUSH20 0xFFFFFFFFFFFFFFFFFFFFFFFFFFFFFFFFFFFFFFFF AND PUSH4 0x4F3E1EFC PUSH1 0x40 MLOAD DUP2 PUSH4 0xFFFFFFFF AND PUSH1 0xE0 SHL DUP2 MSTORE PUSH1 0x4 ADD PUSH1 0x20 PUSH1 0x40 MLOAD DUP1 DUP4 SUB DUP2 DUP7 GAS STATICCALL ISZERO DUP1 ISZERO PUSH2 0x1581 JUMPI RETURNDATASIZE PUSH0 DUP1 RETURNDATACOPY RETURNDATASIZE PUSH0 REVERT JUMPDEST POP POP POP POP PUSH1 0x40 MLOAD RETURNDATASIZE PUSH1 0x1F NOT PUSH1 0x1F DUP3 ADD AND DUP3 ADD DUP1 PUSH1 0x40 MSTORE POP DUP2 ADD SWAP1 PUSH2 0x15A5 SWAP2 SWAP1 PUSH2 0x3AB2 JUMP JUMPDEST DUP2 GT ISZERO PUSH2 0x15E7 JUMPI PUSH1 0x40 MLOAD PUSH32 0x8C379A000000000000000000000000000000000000000000000000000000000 DUP2 MSTORE PUSH1 0x4 ADD PUSH2 0x15DE SWAP1 PUSH2 0x3B27 JUMP JUMPDEST PUSH1 0x40 MLOAD DUP1 SWAP2 SUB SWAP1 REVERT JUMPDEST PUSH0 DUP4 LT ISZERO PUSH2 0x162A JUMPI PUSH1 0x40 MLOAD PUSH32 0x8C379A000000000000000000000000000000000000000000000000000000000 DUP2 MSTORE PUSH1 0x4 ADD PUSH2 0x1621 SWAP1 PUSH2 0x37DF JUMP JUMPDEST PUSH1 0x40 MLOAD DUP1 SWAP2 SUB SWAP1 REVERT JUMPDEST PUSH1 0x6 PUSH0 SWAP1 SLOAD SWAP1 PUSH2 0x100 EXP SWAP1 DIV PUSH20 0xFFFFFFFFFFFFFFFFFFFFFFFFFFFFFFFFFFFFFFFF AND PUSH20 0xFFFFFFFFFFFFFFFFFFFFFFFFFFFFFFFFFFFFFFFF AND CALLER PUSH20 0xFFFFFFFFFFFFFFFFFFFFFFFFFFFFFFFFFFFFFFFF AND EQ DUP1 PUSH2 0x16E0 JUMPI POP CALLER PUSH20 0xFFFFFFFFFFFFFFFFFFFFFFFFFFFFFFFFFFFFFFFF AND PUSH1 0x9 PUSH0 DUP7 DUP2 MSTORE PUSH1 0x20 ADD SWAP1 DUP2 MSTORE PUSH1 0x20 ADD PUSH0 KECCAK256 PUSH0 SWAP1 SLOAD SWAP1 PUSH2 0x100 EXP SWAP1 DIV PUSH20 0xFFFFFFFFFFFFFFFFFFFFFFFFFFFFFFFFFFFFFFFF AND PUSH20 0xFFFFFFFFFFFFFFFFFFFFFFFFFFFFFFFFFFFFFFFF AND EQ JUMPDEST PUSH2 0x171F JUMPI PUSH1 0x40 MLOAD PUSH32 0x8C379A000000000000000000000000000000000000000000000000000000000 DUP2 MSTORE PUSH1 0x4 ADD PUSH2 0x1716 SWAP1 PUSH2 0x3D7C JUMP JUMPDEST PUSH1 0x40 MLOAD DUP1 SWAP2 SUB SWAP1 REVERT JUMPDEST DUP3 PUSH1 0x7 PUSH0 DUP7 DUP2 MSTORE PUSH1 0x20 ADD SWAP1 DUP2 MSTORE PUSH1 0x20 ADD PUSH0 KECCAK256 PUSH1 0x4 ADD DUP2 SWAP1 SSTORE POP PUSH1 0x7 PUSH0 DUP6 DUP2 MSTORE PUSH1 0x20 ADD SWAP1 DUP2 MSTORE PUSH1 0x20 ADD PUSH0 KECCAK256 PUSH1 0x4 ADD SLOAD SWAP2 POP POP SWAP3 SWAP2 POP POP JUMP JUMPDEST PUSH0 PUSH1 0x5 PUSH0 DUP5 PUSH20 0xFFFFFFFFFFFFFFFFFFFFFFFFFFFFFFFFFFFFFFFF AND PUSH20 0xFFFFFFFFFFFFFFFFFFFFFFFFFFFFFFFFFFFFFFFF AND DUP2 MSTORE PUSH1 0x20 ADD SWAP1 DUP2 MSTORE PUSH1 0x20 ADD PUSH0 KECCAK256 PUSH0 DUP4 PUSH20 0xFFFFFFFFFFFFFFFFFFFFFFFFFFFFFFFFFFFFFFFF AND PUSH20 0xFFFFFFFFFFFFFFFFFFFFFFFFFFFFFFFFFFFFFFFF AND DUP2 MSTORE PUSH1 0x20 ADD SWAP1 DUP2 MSTORE PUSH1 0x20 ADD PUSH0 KECCAK256 PUSH0 SWAP1 SLOAD SWAP1 PUSH2 0x100 EXP SWAP1 DIV PUSH1 0xFF AND SWAP1 POP SWAP3 SWAP2 POP POP JUMP JUMPDEST PUSH2 0x17EC PUSH2 0x29C7 JUMP JUMPDEST DUP2 ADDRESS PUSH20 0xFFFFFFFFFFFFFFFFFFFFFFFFFFFFFFFFFFFFFFFF AND PUSH4 0x4F3E1EFC PUSH1 0x40 MLOAD DUP2 PUSH4 0xFFFFFFFF AND PUSH1 0xE0 SHL DUP2 MSTORE PUSH1 0x4 ADD PUSH1 0x20 PUSH1 0x40 MLOAD DUP1 DUP4 SUB DUP2 DUP7 GAS STATICCALL ISZERO DUP1 ISZERO PUSH2 0x1836 JUMPI RETURNDATASIZE PUSH0 DUP1 RETURNDATACOPY RETURNDATASIZE PUSH0 REVERT JUMPDEST POP POP POP POP PUSH1 0x40 MLOAD RETURNDATASIZE PUSH1 0x1F NOT PUSH1 0x1F DUP3 ADD AND DUP3 ADD DUP1 PUSH1 0x40 MSTORE POP DUP2 ADD SWAP1 PUSH2 0x185A SWAP2 SWAP1 PUSH2 0x3AB2 JUMP JUMPDEST DUP2 GT ISZERO PUSH2 0x189C JUMPI PUSH1 0x40 MLOAD PUSH32 0x8C379A000000000000000000000000000000000000000000000000000000000 DUP2 MSTORE PUSH1 0x4 ADD PUSH2 0x1893 SWAP1 PUSH2 0x3B27 JUMP JUMPDEST PUSH1 0x40 MLOAD DUP1 SWAP2 SUB SWAP1 REVERT JUMPDEST PUSH1 0x7 PUSH0 DUP5 DUP2 MSTORE PUSH1 0x20 ADD SWAP1 DUP2 MSTORE PUSH1 0x20 ADD PUSH0 KECCAK256 PUSH1 0x40 MLOAD DUP1 PUSH1 0xA0 ADD PUSH1 0x40 MSTORE SWAP1 DUP2 PUSH0 DUP3 ADD DUP1 SLOAD PUSH2 0x18C7 SWAP1 PUSH2 0x342E JUMP JUMPDEST DUP1 PUSH1 0x1F ADD PUSH1 0x20 DUP1 SWAP2 DIV MUL PUSH1 0x20 ADD PUSH1 0x40 MLOAD SWAP1 DUP2 ADD PUSH1 0x40 MSTORE DUP1 SWAP3 SWAP2 SWAP1 DUP2 DUP2 MSTORE PUSH1 0x20 ADD DUP3 DUP1 SLOAD PUSH2 0x18F3 SWAP1 PUSH2 0x342E JUMP JUMPDEST DUP1 ISZERO PUSH2 0x193E JUMPI DUP1 PUSH1 0x1F LT PUSH2 0x1915 JUMPI PUSH2 0x100 DUP1 DUP4 SLOAD DIV MUL DUP4 MSTORE SWAP2 PUSH1 0x20 ADD SWAP2 PUSH2 0x193E JUMP JUMPDEST DUP3 ADD SWAP2 SWAP1 PUSH0 MSTORE PUSH1 0x20 PUSH0 KECCAK256 SWAP1 JUMPDEST DUP2 SLOAD DUP2 MSTORE SWAP1 PUSH1 0x1 ADD SWAP1 PUSH1 0x20 ADD DUP1 DUP4 GT PUSH2 0x1921 JUMPI DUP3 SWAP1 SUB PUSH1 0x1F AND DUP3 ADD SWAP2 JUMPDEST POP POP POP POP POP DUP2 MSTORE PUSH1 0x20 ADD PUSH1 0x1 DUP3 ADD DUP1 SLOAD PUSH2 0x1957 SWAP1 PUSH2 0x342E JUMP JUMPDEST DUP1 PUSH1 0x1F ADD PUSH1 0x20 DUP1 SWAP2 DIV MUL PUSH1 0x20 ADD PUSH1 0x40 MLOAD SWAP1 DUP2 ADD PUSH1 0x40 MSTORE DUP1 SWAP3 SWAP2 SWAP1 DUP2 DUP2 MSTORE PUSH1 0x20 ADD DUP3 DUP1 SLOAD PUSH2 0x1983 SWAP1 PUSH2 0x342E JUMP JUMPDEST DUP1 ISZERO PUSH2 0x19CE JUMPI DUP1 PUSH1 0x1F LT PUSH2 0x19A5 JUMPI PUSH2 0x100 DUP1 DUP4 SLOAD DIV MUL DUP4 MSTORE SWAP2 PUSH1 0x20 ADD SWAP2 PUSH2 0x19CE JUMP JUMPDEST DUP3 ADD SWAP2 SWAP1 PUSH0 MSTORE PUSH1 0x20 PUSH0 KECCAK256 SWAP1 JUMPDEST DUP2 SLOAD DUP2 MSTORE SWAP1 PUSH1 0x1 ADD SWAP1 PUSH1 0x20 ADD DUP1 DUP4 GT PUSH2 0x19B1 JUMPI DUP3 SWAP1 SUB PUSH1 0x1F AND DUP3 ADD SWAP2 JUMPDEST POP POP POP POP POP DUP2 MSTORE PUSH1 0x20 ADD PUSH1 0x2 DUP3 ADD PUSH0 SWAP1 SLOAD SWAP1 PUSH2 0x100 EXP SWAP1 DIV PUSH2 0xFFFF AND PUSH2 0xFFFF AND PUSH2 0xFFFF AND DUP2 MSTORE PUSH1 0x20 ADD PUSH1 0x3 DUP3 ADD SLOAD DUP2 MSTORE PUSH1 0x20 ADD PUSH1 0x4 DUP3 ADD SLOAD DUP2 MSTORE POP POP SWAP2 POP POP SWAP2 SWAP1 POP JUMP JUMPDEST CALLER PUSH20 0xFFFFFFFFFFFFFFFFFFFFFFFFFFFFFFFFFFFFFFFF AND PUSH1 0x9 PUSH0 DUP4 DUP2 MSTORE PUSH1 0x20 ADD SWAP1 DUP2 MSTORE PUSH1 0x20 ADD PUSH0 KECCAK256 PUSH0 SWAP1 SLOAD SWAP1 PUSH2 0x100 EXP SWAP1 DIV PUSH20 0xFFFFFFFFFFFFFFFFFFFFFFFFFFFFFFFFFFFFFFFF AND PUSH20 0xFFFFFFFFFFFFFFFFFFFFFFFFFFFFFFFFFFFFFFFF AND EQ PUSH2 0x1AB0 JUMPI PUSH1 0x40 MLOAD PUSH32 0x8C379A000000000000000000000000000000000000000000000000000000000 DUP2 MSTORE PUSH1 0x4 ADD PUSH2 0x1AA7 SWAP1 PUSH2 0x3E0A JUMP JUMPDEST PUSH1 0x40 MLOAD DUP1 SWAP2 SUB SWAP1 REVERT JUMPDEST PUSH2 0x1AE4 PUSH2 0x1ABC DUP3 PUSH2 0x1F9E JUMP JUMPDEST PUSH1 0x6 PUSH0 SWAP1 SLOAD SWAP1 PUSH2 0x100 EXP SWAP1 DIV PUSH20 0xFFFFFFFFFFFFFFFFFFFFFFFFFFFFFFFFFFFFFFFF AND DUP4 PUSH2 0x23CC JUMP JUMPDEST PUSH0 PUSH1 0x9 PUSH0 DUP4 DUP2 MSTORE PUSH1 0x20 ADD SWAP1 DUP2 MSTORE PUSH1 0x20 ADD PUSH0 KECCAK256 PUSH0 PUSH2 0x100 EXP DUP2 SLOAD DUP2 PUSH20 0xFFFFFFFFFFFFFFFFFFFFFFFFFFFFFFFFFFFFFFFF MUL NOT AND SWAP1 DUP4 PUSH20 0xFFFFFFFFFFFFFFFFFFFFFFFFFFFFFFFFFFFFFFFF AND MUL OR SWAP1 SSTORE POP PUSH1 0x1 PUSH1 0x8 PUSH0 DUP4 DUP2 MSTORE PUSH1 0x20 ADD SWAP1 DUP2 MSTORE PUSH1 0x20 ADD PUSH0 KECCAK256 PUSH0 PUSH2 0x100 EXP DUP2 SLOAD DUP2 PUSH1 0xFF MUL NOT AND SWAP1 DUP4 ISZERO ISZERO MUL OR SWAP1 SSTORE POP POP JUMP JUMPDEST PUSH0 PUSH32 0x1FFC9A700000000000000000000000000000000000000000000000000000000 PUSH28 0xFFFFFFFFFFFFFFFFFFFFFFFFFFFFFFFFFFFFFFFFFFFFFFFFFFFFFFFF NOT AND DUP3 PUSH28 0xFFFFFFFFFFFFFFFFFFFFFFFFFFFFFFFFFFFFFFFFFFFFFFFFFFFFFFFF NOT AND EQ SWAP1 POP SWAP2 SWAP1 POP JUMP JUMPDEST PUSH0 DUP1 PUSH2 0x1BD3 DUP4 PUSH2 0x1F9E JUMP JUMPDEST SWAP1 POP PUSH0 PUSH20 0xFFFFFFFFFFFFFFFFFFFFFFFFFFFFFFFFFFFFFFFF AND DUP2 PUSH20 0xFFFFFFFFFFFFFFFFFFFFFFFFFFFFFFFFFFFFFFFF AND SUB PUSH2 0x1C45 JUMPI DUP3 PUSH1 0x40 MLOAD PUSH32 0x7E27328900000000000000000000000000000000000000000000000000000000 DUP2 MSTORE PUSH1 0x4 ADD PUSH2 0x1C3C SWAP2 SWAP1 PUSH2 0x2A0F JUMP JUMPDEST PUSH1 0x40 MLOAD DUP1 SWAP2 SUB SWAP1 REVERT JUMPDEST DUP1 SWAP2 POP POP SWAP2 SWAP1 POP JUMP JUMPDEST PUSH0 PUSH1 0x4 PUSH0 DUP4 DUP2 MSTORE PUSH1 0x20 ADD SWAP1 DUP2 MSTORE PUSH1 0x20 ADD PUSH0 KECCAK256 PUSH0 SWAP1 SLOAD SWAP1 PUSH2 0x100 EXP SWAP1 DIV PUSH20 0xFFFFFFFFFFFFFFFFFFFFFFFFFFFFFFFFFFFFFFFF AND SWAP1 POP SWAP2 SWAP1 POP JUMP JUMPDEST PUSH0 CALLER SWAP1 POP SWAP1 JUMP JUMPDEST PUSH2 0x1C9B DUP4 DUP4 DUP4 PUSH1 0x1 PUSH2 0x2534 JUMP JUMPDEST POP POP POP JUMP JUMPDEST PUSH0 PUSH20 0xFFFFFFFFFFFFFFFFFFFFFFFFFFFFFFFFFFFFFFFF AND DUP3 PUSH20 0xFFFFFFFFFFFFFFFFFFFFFFFFFFFFFFFFFFFFFFFF AND SUB PUSH2 0x1D10 JUMPI PUSH0 PUSH1 0x40 MLOAD PUSH32 0x64A0AE9200000000000000000000000000000000000000000000000000000000 DUP2 MSTORE PUSH1 0x4 ADD PUSH2 0x1D07 SWAP2 SWAP1 PUSH2 0x2C9E JUMP JUMPDEST PUSH1 0x40 MLOAD DUP1 SWAP2 SUB SWAP1 REVERT JUMPDEST PUSH0 PUSH2 0x1D1C DUP4 DUP4 PUSH0 PUSH2 0x1D93 JUMP JUMPDEST SWAP1 POP PUSH0 PUSH20 0xFFFFFFFFFFFFFFFFFFFFFFFFFFFFFFFFFFFFFFFF AND DUP2 PUSH20 0xFFFFFFFFFFFFFFFFFFFFFFFFFFFFFFFFFFFFFFFF AND EQ PUSH2 0x1D8E JUMPI PUSH0 PUSH1 0x40 MLOAD PUSH32 0x73C6AC6E00000000000000000000000000000000000000000000000000000000 DUP2 MSTORE PUSH1 0x4 ADD PUSH2 0x1D85 SWAP2 SWAP1 PUSH2 0x2C9E JUMP JUMPDEST PUSH1 0x40 MLOAD DUP1 SWAP2 SUB SWAP1 REVERT JUMPDEST POP POP POP JUMP JUMPDEST PUSH0 DUP1 PUSH2 0x1D9E DUP5 PUSH2 0x1F9E JUMP JUMPDEST SWAP1 POP PUSH0 PUSH20 0xFFFFFFFFFFFFFFFFFFFFFFFFFFFFFFFFFFFFFFFF AND DUP4 PUSH20 0xFFFFFFFFFFFFFFFFFFFFFFFFFFFFFFFFFFFFFFFF AND EQ PUSH2 0x1DDF JUMPI PUSH2 0x1DDE DUP2 DUP5 DUP7 PUSH2 0x26F3 JUMP JUMPDEST JUMPDEST PUSH0 PUSH20 0xFFFFFFFFFFFFFFFFFFFFFFFFFFFFFFFFFFFFFFFF AND DUP2 PUSH20 0xFFFFFFFFFFFFFFFFFFFFFFFFFFFFFFFFFFFFFFFF AND EQ PUSH2 0x1E6A JUMPI PUSH2 0x1E1E PUSH0 DUP6 PUSH0 DUP1 PUSH2 0x2534 JUMP JUMPDEST PUSH1 0x1 PUSH1 0x3 PUSH0 DUP4 PUSH20 0xFFFFFFFFFFFFFFFFFFFFFFFFFFFFFFFFFFFFFFFF AND PUSH20 0xFFFFFFFFFFFFFFFFFFFFFFFFFFFFFFFFFFFFFFFF AND DUP2 MSTORE PUSH1 0x20 ADD SWAP1 DUP2 MSTORE PUSH1 0x20 ADD PUSH0 KECCAK256 PUSH0 DUP3 DUP3 SLOAD SUB SWAP3 POP POP DUP2 SWAP1 SSTORE POP JUMPDEST PUSH0 PUSH20 0xFFFFFFFFFFFFFFFFFFFFFFFFFFFFFFFFFFFFFFFF AND DUP6 PUSH20 0xFFFFFFFFFFFFFFFFFFFFFFFFFFFFFFFFFFFFFFFF AND EQ PUSH2 0x1EE9 JUMPI PUSH1 0x1 PUSH1 0x3 PUSH0 DUP8 PUSH20 0xFFFFFFFFFFFFFFFFFFFFFFFFFFFFFFFFFFFFFFFF AND PUSH20 0xFFFFFFFFFFFFFFFFFFFFFFFFFFFFFFFFFFFFFFFF AND DUP2 MSTORE PUSH1 0x20 ADD SWAP1 DUP2 MSTORE PUSH1 0x20 ADD PUSH0 KECCAK256 PUSH0 DUP3 DUP3 SLOAD ADD SWAP3 POP POP DUP2 SWAP1 SSTORE POP JUMPDEST DUP5 PUSH1 0x2 PUSH0 DUP7 DUP2 MSTORE PUSH1 0x20 ADD SWAP1 DUP2 MSTORE PUSH1 0x20 ADD PUSH0 KECCAK256 PUSH0 PUSH2 0x100 EXP DUP2 SLOAD DUP2 PUSH20 0xFFFFFFFFFFFFFFFFFFFFFFFFFFFFFFFFFFFFFFFF MUL NOT AND SWAP1 DUP4 PUSH20 0xFFFFFFFFFFFFFFFFFFFFFFFFFFFFFFFFFFFFFFFF AND MUL OR SWAP1 SSTORE POP DUP4 DUP6 PUSH20 0xFFFFFFFFFFFFFFFFFFFFFFFFFFFFFFFFFFFFFFFF AND DUP3 PUSH20 0xFFFFFFFFFFFFFFFFFFFFFFFFFFFFFFFFFFFFFFFF AND PUSH32 0xDDF252AD1BE2C89B69C2B068FC378DAA952BA7F163C4A11628F55A4DF523B3EF PUSH1 0x40 MLOAD PUSH1 0x40 MLOAD DUP1 SWAP2 SUB SWAP1 LOG4 DUP1 SWAP2 POP POP SWAP4 SWAP3 POP POP POP JUMP JUMPDEST PUSH0 PUSH1 0x2 PUSH0 DUP4 DUP2 MSTORE PUSH1 0x20 ADD SWAP1 DUP2 MSTORE PUSH1 0x20 ADD PUSH0 KECCAK256 PUSH0 SWAP1 SLOAD SWAP1 PUSH2 0x100 EXP SWAP1 DIV PUSH20 0xFFFFFFFFFFFFFFFFFFFFFFFFFFFFFFFFFFFFFFFF AND SWAP1 POP SWAP2 SWAP1 POP JUMP JUMPDEST PUSH0 PUSH20 0xFFFFFFFFFFFFFFFFFFFFFFFFFFFFFFFFFFFFFFFF AND DUP3 PUSH20 0xFFFFFFFFFFFFFFFFFFFFFFFFFFFFFFFFFFFFFFFF AND SUB PUSH2 0x2047 JUMPI DUP2 PUSH1 0x40 MLOAD PUSH32 0x5B08BA1800000000000000000000000000000000000000000000000000000000 DUP2 MSTORE PUSH1 0x4 ADD PUSH2 0x203E SWAP2 SWAP1 PUSH2 0x2C9E JUMP JUMPDEST PUSH1 0x40 MLOAD DUP1 SWAP2 SUB SWAP1 REVERT JUMPDEST DUP1 PUSH1 0x5 PUSH0 DUP6 PUSH20 0xFFFFFFFFFFFFFFFFFFFFFFFFFFFFFFFFFFFFFFFF AND PUSH20 0xFFFFFFFFFFFFFFFFFFFFFFFFFFFFFFFFFFFFFFFF AND DUP2 MSTORE PUSH1 0x20 ADD SWAP1 DUP2 MSTORE PUSH1 0x20 ADD PUSH0 KECCAK256 PUSH0 DUP5 PUSH20 0xFFFFFFFFFFFFFFFFFFFFFFFFFFFFFFFFFFFFFFFF AND PUSH20 0xFFFFFFFFFFFFFFFFFFFFFFFFFFFFFFFFFFFFFFFF AND DUP2 MSTORE PUSH1 0x20 ADD SWAP1 DUP2 MSTORE PUSH1 0x20 ADD PUSH0 KECCAK256 PUSH0 PUSH2 0x100 EXP DUP2 SLOAD DUP2 PUSH1 0xFF MUL NOT AND SWAP1 DUP4 ISZERO ISZERO MUL OR SWAP1 SSTORE POP DUP2 PUSH20 0xFFFFFFFFFFFFFFFFFFFFFFFFFFFFFFFFFFFFFFFF AND DUP4 PUSH20 0xFFFFFFFFFFFFFFFFFFFFFFFFFFFFFFFFFFFFFFFF AND PUSH32 0x17307EAB39AB6107E8899845AD3D59BD9653F200F220920489CA2B5937696C31 DUP4 PUSH1 0x40 MLOAD PUSH2 0x2133 SWAP2 SWAP1 PUSH2 0x2B71 JUMP JUMPDEST PUSH1 0x40 MLOAD DUP1 SWAP2 SUB SWAP1 LOG3 POP POP POP JUMP JUMPDEST PUSH0 DUP4 PUSH20 0xFFFFFFFFFFFFFFFFFFFFFFFFFFFFFFFFFFFFFFFF AND EXTCODESIZE GT ISZERO PUSH2 0x22E5 JUMPI DUP3 PUSH20 0xFFFFFFFFFFFFFFFFFFFFFFFFFFFFFFFFFFFFFFFF AND PUSH4 0x150B7A02 DUP7 DUP7 DUP6 DUP6 PUSH1 0x40 MLOAD DUP6 PUSH4 0xFFFFFFFF AND PUSH1 0xE0 SHL DUP2 MSTORE PUSH1 0x4 ADD PUSH2 0x219E SWAP5 SWAP4 SWAP3 SWAP2 SWAP1 PUSH2 0x3E7A JUMP JUMPDEST PUSH1 0x20 PUSH1 0x40 MLOAD DUP1 DUP4 SUB DUP2 PUSH0 DUP8 GAS CALL SWAP3 POP POP POP DUP1 ISZERO PUSH2 0x21D9 JUMPI POP PUSH1 0x40 MLOAD RETURNDATASIZE PUSH1 0x1F NOT PUSH1 0x1F DUP3 ADD AND DUP3 ADD DUP1 PUSH1 0x40 MSTORE POP DUP2 ADD SWAP1 PUSH2 0x21D6 SWAP2 SWAP1 PUSH2 0x3ED8 JUMP JUMPDEST PUSH1 0x1 JUMPDEST PUSH2 0x225A JUMPI RETURNDATASIZE DUP1 PUSH0 DUP2 EQ PUSH2 0x2207 JUMPI PUSH1 0x40 MLOAD SWAP2 POP PUSH1 0x1F NOT PUSH1 0x3F RETURNDATASIZE ADD AND DUP3 ADD PUSH1 0x40 MSTORE RETURNDATASIZE DUP3 MSTORE RETURNDATASIZE PUSH0 PUSH1 0x20 DUP5 ADD RETURNDATACOPY PUSH2 0x220C JUMP JUMPDEST PUSH1 0x60 SWAP2 POP JUMPDEST POP PUSH0 DUP2 MLOAD SUB PUSH2 0x2252 JUMPI DUP4 PUSH1 0x40 MLOAD PUSH32 0x64A0AE9200000000000000000000000000000000000000000000000000000000 DUP2 MSTORE PUSH1 0x4 ADD PUSH2 0x2249 SWAP2 SWAP1 PUSH2 0x2C9E JUMP JUMPDEST PUSH1 0x40 MLOAD DUP1 SWAP2 SUB SWAP1 REVERT JUMPDEST DUP1 MLOAD DUP2 PUSH1 0x20 ADD REVERT JUMPDEST PUSH4 0x150B7A02 PUSH1 0xE0 SHL PUSH28 0xFFFFFFFFFFFFFFFFFFFFFFFFFFFFFFFFFFFFFFFFFFFFFFFFFFFFFFFF NOT AND DUP2 PUSH28 0xFFFFFFFFFFFFFFFFFFFFFFFFFFFFFFFFFFFFFFFFFFFFFFFFFFFFFFFF NOT AND EQ PUSH2 0x22E3 JUMPI DUP4 PUSH1 0x40 MLOAD PUSH32 0x64A0AE9200000000000000000000000000000000000000000000000000000000 DUP2 MSTORE PUSH1 0x4 ADD PUSH2 0x22DA SWAP2 SWAP1 PUSH2 0x2C9E JUMP JUMPDEST PUSH1 0x40 MLOAD DUP1 SWAP2 SUB SWAP1 REVERT JUMPDEST POP JUMPDEST POP POP POP POP POP JUMP JUMPDEST PUSH1 0x60 PUSH1 0x40 MLOAD DUP1 PUSH1 0x20 ADD PUSH1 0x40 MSTORE DUP1 PUSH0 DUP2 MSTORE POP SWAP1 POP SWAP1 JUMP JUMPDEST PUSH1 0x60 PUSH0 PUSH1 0x1 PUSH2 0x2310 DUP5 PUSH2 0x27B6 JUMP JUMPDEST ADD SWAP1 POP PUSH0 DUP2 PUSH8 0xFFFFFFFFFFFFFFFF DUP2 GT ISZERO PUSH2 0x232E JUMPI PUSH2 0x232D PUSH2 0x2D27 JUMP JUMPDEST JUMPDEST PUSH1 0x40 MLOAD SWAP1 DUP1 DUP3 MSTORE DUP1 PUSH1 0x1F ADD PUSH1 0x1F NOT AND PUSH1 0x20 ADD DUP3 ADD PUSH1 0x40 MSTORE DUP1 ISZERO PUSH2 0x2360 JUMPI DUP2 PUSH1 0x20 ADD PUSH1 0x1 DUP3 MUL DUP1 CALLDATASIZE DUP4 CALLDATACOPY DUP1 DUP3 ADD SWAP2 POP POP SWAP1 POP JUMPDEST POP SWAP1 POP PUSH0 DUP3 PUSH1 0x20 ADD DUP3 ADD SWAP1 POP JUMPDEST PUSH1 0x1 ISZERO PUSH2 0x23C1 JUMPI DUP1 DUP1 PUSH1 0x1 SWAP1 SUB SWAP2 POP POP PUSH32 0x3031323334353637383961626364656600000000000000000000000000000000 PUSH1 0xA DUP7 MOD BYTE DUP2 MSTORE8 PUSH1 0xA DUP6 DUP2 PUSH2 0x23B6 JUMPI PUSH2 0x23B5 PUSH2 0x3596 JUMP JUMPDEST JUMPDEST DIV SWAP5 POP PUSH0 DUP6 SUB PUSH2 0x236D JUMPI JUMPDEST DUP2 SWAP4 POP POP POP POP SWAP2 SWAP1 POP JUMP JUMPDEST PUSH0 PUSH20 0xFFFFFFFFFFFFFFFFFFFFFFFFFFFFFFFFFFFFFFFF AND DUP3 PUSH20 0xFFFFFFFFFFFFFFFFFFFFFFFFFFFFFFFFFFFFFFFF AND SUB PUSH2 0x243C JUMPI PUSH0 PUSH1 0x40 MLOAD PUSH32 0x64A0AE9200000000000000000000000000000000000000000000000000000000 DUP2 MSTORE PUSH1 0x4 ADD PUSH2 0x2433 SWAP2 SWAP1 PUSH2 0x2C9E JUMP JUMPDEST PUSH1 0x40 MLOAD DUP1 SWAP2 SUB SWAP1 REVERT JUMPDEST PUSH0 PUSH2 0x2448 DUP4 DUP4 PUSH0 PUSH2 0x1D93 JUMP JUMPDEST SWAP1 POP PUSH0 PUSH20 0xFFFFFFFFFFFFFFFFFFFFFFFFFFFFFFFFFFFFFFFF AND DUP2 PUSH20 0xFFFFFFFFFFFFFFFFFFFFFFFFFFFFFFFFFFFFFFFF AND SUB PUSH2 0x24BA JUMPI DUP2 PUSH1 0x40 MLOAD PUSH32 0x7E27328900000000000000000000000000000000000000000000000000000000 DUP2 MSTORE PUSH1 0x4 ADD PUSH2 0x24B1 SWAP2 SWAP1 PUSH2 0x2A0F JUMP JUMPDEST PUSH1 0x40 MLOAD DUP1 SWAP2 SUB SWAP1 REVERT JUMPDEST DUP4 PUSH20 0xFFFFFFFFFFFFFFFFFFFFFFFFFFFFFFFFFFFFFFFF AND DUP2 PUSH20 0xFFFFFFFFFFFFFFFFFFFFFFFFFFFFFFFFFFFFFFFF AND EQ PUSH2 0x252E JUMPI DUP4 DUP3 DUP3 PUSH1 0x40 MLOAD PUSH32 0x64283D7B00000000000000000000000000000000000000000000000000000000 DUP2 MSTORE PUSH1 0x4 ADD PUSH2 0x2525 SWAP4 SWAP3 SWAP2 SWAP1 PUSH2 0x3A69 JUMP JUMPDEST PUSH1 0x40 MLOAD DUP1 SWAP2 SUB SWAP1 REVERT JUMPDEST POP POP POP POP JUMP JUMPDEST DUP1 DUP1 PUSH2 0x256C JUMPI POP PUSH0 PUSH20 0xFFFFFFFFFFFFFFFFFFFFFFFFFFFFFFFFFFFFFFFF AND DUP3 PUSH20 0xFFFFFFFFFFFFFFFFFFFFFFFFFFFFFFFFFFFFFFFF AND EQ ISZERO JUMPDEST ISZERO PUSH2 0x269E JUMPI PUSH0 PUSH2 0x257B DUP5 PUSH2 0x1BC8 JUMP JUMPDEST SWAP1 POP PUSH0 PUSH20 0xFFFFFFFFFFFFFFFFFFFFFFFFFFFFFFFFFFFFFFFF AND DUP4 PUSH20 0xFFFFFFFFFFFFFFFFFFFFFFFFFFFFFFFFFFFFFFFF AND EQ ISZERO DUP1 ISZERO PUSH2 0x25E5 JUMPI POP DUP3 PUSH20 0xFFFFFFFFFFFFFFFFFFFFFFFFFFFFFFFFFFFFFFFF AND DUP2 PUSH20 0xFFFFFFFFFFFFFFFFFFFFFFFFFFFFFFFFFFFFFFFF AND EQ ISZERO JUMPDEST DUP1 ISZERO PUSH2 0x25F8 JUMPI POP PUSH2 0x25F6 DUP2 DUP5 PUSH2 0x1756 JUMP JUMPDEST ISZERO JUMPDEST ISZERO PUSH2 0x263A JUMPI DUP3 PUSH1 0x40 MLOAD PUSH32 0xA9FBF51F00000000000000000000000000000000000000000000000000000000 DUP2 MSTORE PUSH1 0x4 ADD PUSH2 0x2631 SWAP2 SWAP1 PUSH2 0x2C9E JUMP JUMPDEST PUSH1 0x40 MLOAD DUP1 SWAP2 SUB SWAP1 REVERT JUMPDEST DUP2 ISZERO PUSH2 0x269C JUMPI DUP4 DUP6 PUSH20 0xFFFFFFFFFFFFFFFFFFFFFFFFFFFFFFFFFFFFFFFF AND DUP3 PUSH20 0xFFFFFFFFFFFFFFFFFFFFFFFFFFFFFFFFFFFFFFFF AND PUSH32 0x8C5BE1E5EBEC7D5BD14F71427D1E84F3DD0314C0F7B2291E5B200AC8C7C3B925 PUSH1 0x40 MLOAD PUSH1 0x40 MLOAD DUP1 SWAP2 SUB SWAP1 LOG4 JUMPDEST POP JUMPDEST DUP4 PUSH1 0x4 PUSH0 DUP6 DUP2 MSTORE PUSH1 0x20 ADD SWAP1 DUP2 MSTORE PUSH1 0x20 ADD PUSH0 KECCAK256 PUSH0 PUSH2 0x100 EXP DUP2 SLOAD DUP2 PUSH20 0xFFFFFFFFFFFFFFFFFFFFFFFFFFFFFFFFFFFFFFFF MUL NOT AND SWAP1 DUP4 PUSH20 0xFFFFFFFFFFFFFFFFFFFFFFFFFFFFFFFFFFFFFFFF AND MUL OR SWAP1 SSTORE POP POP POP POP POP JUMP JUMPDEST PUSH2 0x26FE DUP4 DUP4 DUP4 PUSH2 0x2907 JUMP JUMPDEST PUSH2 0x27B1 JUMPI PUSH0 PUSH20 0xFFFFFFFFFFFFFFFFFFFFFFFFFFFFFFFFFFFFFFFF AND DUP4 PUSH20 0xFFFFFFFFFFFFFFFFFFFFFFFFFFFFFFFFFFFFFFFF AND SUB PUSH2 0x2772 JUMPI DUP1 PUSH1 0x40 MLOAD PUSH32 0x7E27328900000000000000000000000000000000000000000000000000000000 DUP2 MSTORE PUSH1 0x4 ADD PUSH2 0x2769 SWAP2 SWAP1 PUSH2 0x2A0F JUMP JUMPDEST PUSH1 0x40 MLOAD DUP1 SWAP2 SUB SWAP1 REVERT JUMPDEST DUP2 DUP2 PUSH1 0x40 MLOAD PUSH32 0x177E802F00000000000000000000000000000000000000000000000000000000 DUP2 MSTORE PUSH1 0x4 ADD PUSH2 0x27A8 SWAP3 SWAP2 SWAP1 PUSH2 0x3F03 JUMP JUMPDEST PUSH1 0x40 MLOAD DUP1 SWAP2 SUB SWAP1 REVERT JUMPDEST POP POP POP JUMP JUMPDEST PUSH0 DUP1 PUSH0 SWAP1 POP PUSH27 0x184F03E93FF9F4DAA797ED6E38ED64BF6A1F010000000000000000 DUP4 LT PUSH2 0x2812 JUMPI PUSH27 0x184F03E93FF9F4DAA797ED6E38ED64BF6A1F010000000000000000 DUP4 DUP2 PUSH2 0x2808 JUMPI PUSH2 0x2807 PUSH2 0x3596 JUMP JUMPDEST JUMPDEST DIV SWAP3 POP PUSH1 0x40 DUP2 ADD SWAP1 POP JUMPDEST PUSH14 0x4EE2D6D415B85ACEF8100000000 DUP4 LT PUSH2 0x284F JUMPI PUSH14 0x4EE2D6D415B85ACEF8100000000 DUP4 DUP2 PUSH2 0x2845 JUMPI PUSH2 0x2844 PUSH2 0x3596 JUMP JUMPDEST JUMPDEST DIV SWAP3 POP PUSH1 0x20 DUP2 ADD SWAP1 POP JUMPDEST PUSH7 0x2386F26FC10000 DUP4 LT PUSH2 0x287E JUMPI PUSH7 0x2386F26FC10000 DUP4 DUP2 PUSH2 0x2874 JUMPI PUSH2 0x2873 PUSH2 0x3596 JUMP JUMPDEST JUMPDEST DIV SWAP3 POP PUSH1 0x10 DUP2 ADD SWAP1 POP JUMPDEST PUSH4 0x5F5E100 DUP4 LT PUSH2 0x28A7 JUMPI PUSH4 0x5F5E100 DUP4 DUP2 PUSH2 0x289D JUMPI PUSH2 0x289C PUSH2 0x3596 JUMP JUMPDEST JUMPDEST DIV SWAP3 POP PUSH1 0x8 DUP2 ADD SWAP1 POP JUMPDEST PUSH2 0x2710 DUP4 LT PUSH2 0x28CC JUMPI PUSH2 0x2710 DUP4 DUP2 PUSH2 0x28C2 JUMPI PUSH2 0x28C1 PUSH2 0x3596 JUMP JUMPDEST JUMPDEST DIV SWAP3 POP PUSH1 0x4 DUP2 ADD SWAP1 POP JUMPDEST PUSH1 0x64 DUP4 LT PUSH2 0x28EF JUMPI PUSH1 0x64 DUP4 DUP2 PUSH2 0x28E5 JUMPI PUSH2 0x28E4 PUSH2 0x3596 JUMP JUMPDEST JUMPDEST DIV SWAP3 POP PUSH1 0x2 DUP2 ADD SWAP1 POP JUMPDEST PUSH1 0xA DUP4 LT PUSH2 0x28FE JUMPI PUSH1 0x1 DUP2 ADD SWAP1 POP JUMPDEST DUP1 SWAP2 POP POP SWAP2 SWAP1 POP JUMP JUMPDEST PUSH0 DUP1 PUSH20 0xFFFFFFFFFFFFFFFFFFFFFFFFFFFFFFFFFFFFFFFF AND DUP4 PUSH20 0xFFFFFFFFFFFFFFFFFFFFFFFFFFFFFFFFFFFFFFFF AND EQ ISZERO DUP1 ISZERO PUSH2 0x29BE JUMPI POP DUP3 PUSH20 0xFFFFFFFFFFFFFFFFFFFFFFFFFFFFFFFFFFFFFFFF AND DUP5 PUSH20 0xFFFFFFFFFFFFFFFFFFFFFFFFFFFFFFFFFFFFFFFF AND EQ DUP1 PUSH2 0x297F JUMPI POP PUSH2 0x297E DUP5 DUP5 PUSH2 0x1756 JUMP JUMPDEST JUMPDEST DUP1 PUSH2 0x29BD JUMPI POP DUP3 PUSH20 0xFFFFFFFFFFFFFFFFFFFFFFFFFFFFFFFFFFFFFFFF AND PUSH2 0x29A5 DUP4 PUSH2 0x1C4E JUMP JUMPDEST PUSH20 0xFFFFFFFFFFFFFFFFFFFFFFFFFFFFFFFFFFFFFFFF AND EQ JUMPDEST JUMPDEST SWAP1 POP SWAP4 SWAP3 POP POP POP JUMP JUMPDEST PUSH1 0x40 MLOAD DUP1 PUSH1 0xA0 ADD PUSH1 0x40 MSTORE DUP1 PUSH1 0x60 DUP2 MSTORE PUSH1 0x20 ADD PUSH1 0x60 DUP2 MSTORE PUSH1 0x20 ADD PUSH0 PUSH2 0xFFFF AND DUP2 MSTORE PUSH1 0x20 ADD PUSH0 DUP2 MSTORE PUSH1 0x20 ADD PUSH0 DUP2 MSTORE POP SWAP1 JUMP JUMPDEST PUSH0 DUP2 SWAP1 POP SWAP2 SWAP1 POP JUMP JUMPDEST PUSH2 0x2A09 DUP2 PUSH2 0x29F7 JUMP JUMPDEST DUP3 MSTORE POP POP JUMP JUMPDEST PUSH0 PUSH1 0x20 DUP3 ADD SWAP1 POP PUSH2 0x2A22 PUSH0 DUP4 ADD DUP5 PUSH2 0x2A00 JUMP JUMPDEST SWAP3 SWAP2 POP POP JUMP JUMPDEST PUSH0 DUP3 DUP3 MSTORE PUSH1 0x20 DUP3 ADD SWAP1 POP SWAP3 SWAP2 POP POP JUMP JUMPDEST PUSH32 0x4361724E46543A20556E7265636F676E697A65642066756E6374696F6E206361 PUSH0 DUP3 ADD MSTORE PUSH32 0x6C6C20776974686F757420457468657200000000000000000000000000000000 PUSH1 0x20 DUP3 ADD MSTORE POP JUMP JUMPDEST PUSH0 PUSH2 0x2A92 PUSH1 0x30 DUP4 PUSH2 0x2A28 JUMP JUMPDEST SWAP2 POP PUSH2 0x2A9D DUP3 PUSH2 0x2A38 JUMP JUMPDEST PUSH1 0x40 DUP3 ADD SWAP1 POP SWAP2 SWAP1 POP JUMP JUMPDEST PUSH0 PUSH1 0x20 DUP3 ADD SWAP1 POP DUP2 DUP2 SUB PUSH0 DUP4 ADD MSTORE PUSH2 0x2ABF DUP2 PUSH2 0x2A86 JUMP JUMPDEST SWAP1 POP SWAP2 SWAP1 POP JUMP JUMPDEST PUSH0 PUSH1 0x40 MLOAD SWAP1 POP SWAP1 JUMP JUMPDEST PUSH0 DUP1 REVERT JUMPDEST PUSH0 DUP1 REVERT JUMPDEST PUSH0 PUSH32 0xFFFFFFFF00000000000000000000000000000000000000000000000000000000 DUP3 AND SWAP1 POP SWAP2 SWAP1 POP JUMP JUMPDEST PUSH2 0x2B0B DUP2 PUSH2 0x2AD7 JUMP JUMPDEST DUP2 EQ PUSH2 0x2B15 JUMPI PUSH0 DUP1 REVERT JUMPDEST POP JUMP JUMPDEST PUSH0 DUP2 CALLDATALOAD SWAP1 POP PUSH2 0x2B26 DUP2 PUSH2 0x2B02 JUMP JUMPDEST SWAP3 SWAP2 POP POP JUMP JUMPDEST PUSH0 PUSH1 0x20 DUP3 DUP5 SUB SLT ISZERO PUSH2 0x2B41 JUMPI PUSH2 0x2B40 PUSH2 0x2ACF JUMP JUMPDEST JUMPDEST PUSH0 PUSH2 0x2B4E DUP5 DUP3 DUP6 ADD PUSH2 0x2B18 JUMP JUMPDEST SWAP2 POP POP SWAP3 SWAP2 POP POP JUMP JUMPDEST PUSH0 DUP2 ISZERO ISZERO SWAP1 POP SWAP2 SWAP1 POP JUMP JUMPDEST PUSH2 0x2B6B DUP2 PUSH2 0x2B57 JUMP JUMPDEST DUP3 MSTORE POP POP JUMP JUMPDEST PUSH0 PUSH1 0x20 DUP3 ADD SWAP1 POP PUSH2 0x2B84 PUSH0 DUP4 ADD DUP5 PUSH2 0x2B62 JUMP JUMPDEST SWAP3 SWAP2 POP POP JUMP JUMPDEST PUSH0 DUP2 MLOAD SWAP1 POP SWAP2 SWAP1 POP JUMP JUMPDEST DUP3 DUP2 DUP4 MCOPY PUSH0 DUP4 DUP4 ADD MSTORE POP POP POP JUMP JUMPDEST PUSH0 PUSH1 0x1F NOT PUSH1 0x1F DUP4 ADD AND SWAP1 POP SWAP2 SWAP1 POP JUMP JUMPDEST PUSH0 PUSH2 0x2BBC DUP3 PUSH2 0x2B8A JUMP JUMPDEST PUSH2 0x2BC6 DUP2 DUP6 PUSH2 0x2A28 JUMP JUMPDEST SWAP4 POP PUSH2 0x2BD6 DUP2 DUP6 PUSH1 0x20 DUP7 ADD PUSH2 0x2B94 JUMP JUMPDEST PUSH2 0x2BDF DUP2 PUSH2 0x2BA2 JUMP JUMPDEST DUP5 ADD SWAP2 POP POP SWAP3 SWAP2 POP POP JUMP JUMPDEST PUSH0 PUSH1 0x20 DUP3 ADD SWAP1 POP DUP2 DUP2 SUB PUSH0 DUP4 ADD MSTORE PUSH2 0x2C02 DUP2 DUP5 PUSH2 0x2BB2 JUMP JUMPDEST SWAP1 POP SWAP3 SWAP2 POP POP JUMP JUMPDEST PUSH2 0x2C13 DUP2 PUSH2 0x29F7 JUMP JUMPDEST DUP2 EQ PUSH2 0x2C1D JUMPI PUSH0 DUP1 REVERT JUMPDEST POP JUMP JUMPDEST PUSH0 DUP2 CALLDATALOAD SWAP1 POP PUSH2 0x2C2E DUP2 PUSH2 0x2C0A JUMP JUMPDEST SWAP3 SWAP2 POP POP JUMP JUMPDEST PUSH0 PUSH1 0x20 DUP3 DUP5 SUB SLT ISZERO PUSH2 0x2C49 JUMPI PUSH2 0x2C48 PUSH2 0x2ACF JUMP JUMPDEST JUMPDEST PUSH0 PUSH2 0x2C56 DUP5 DUP3 DUP6 ADD PUSH2 0x2C20 JUMP JUMPDEST SWAP2 POP POP SWAP3 SWAP2 POP POP JUMP JUMPDEST PUSH0 PUSH20 0xFFFFFFFFFFFFFFFFFFFFFFFFFFFFFFFFFFFFFFFF DUP3 AND SWAP1 POP SWAP2 SWAP1 POP JUMP JUMPDEST PUSH0 PUSH2 0x2C88 DUP3 PUSH2 0x2C5F JUMP JUMPDEST SWAP1 POP SWAP2 SWAP1 POP JUMP JUMPDEST PUSH2 0x2C98 DUP2 PUSH2 0x2C7E JUMP JUMPDEST DUP3 MSTORE POP POP JUMP JUMPDEST PUSH0 PUSH1 0x20 DUP3 ADD SWAP1 POP PUSH2 0x2CB1 PUSH0 DUP4 ADD DUP5 PUSH2 0x2C8F JUMP JUMPDEST SWAP3 SWAP2 POP POP JUMP JUMPDEST PUSH2 0x2CC0 DUP2 PUSH2 0x2C7E JUMP JUMPDEST DUP2 EQ PUSH2 0x2CCA JUMPI PUSH0 DUP1 REVERT JUMPDEST POP JUMP JUMPDEST PUSH0 DUP2 CALLDATALOAD SWAP1 POP PUSH2 0x2CDB DUP2 PUSH2 0x2CB7 JUMP JUMPDEST SWAP3 SWAP2 POP POP JUMP JUMPDEST PUSH0 DUP1 PUSH1 0x40 DUP4 DUP6 SUB SLT ISZERO PUSH2 0x2CF7 JUMPI PUSH2 0x2CF6 PUSH2 0x2ACF JUMP JUMPDEST JUMPDEST PUSH0 PUSH2 0x2D04 DUP6 DUP3 DUP7 ADD PUSH2 0x2CCD JUMP JUMPDEST SWAP3 POP POP PUSH1 0x20 PUSH2 0x2D15 DUP6 DUP3 DUP7 ADD PUSH2 0x2C20 JUMP JUMPDEST SWAP2 POP POP SWAP3 POP SWAP3 SWAP1 POP JUMP JUMPDEST PUSH0 DUP1 REVERT JUMPDEST PUSH0 DUP1 REVERT JUMPDEST PUSH32 0x4E487B7100000000000000000000000000000000000000000000000000000000 PUSH0 MSTORE PUSH1 0x41 PUSH1 0x4 MSTORE PUSH1 0x24 PUSH0 REVERT JUMPDEST PUSH2 0x2D5D DUP3 PUSH2 0x2BA2 JUMP JUMPDEST DUP2 ADD DUP2 DUP2 LT PUSH8 0xFFFFFFFFFFFFFFFF DUP3 GT OR ISZERO PUSH2 0x2D7C JUMPI PUSH2 0x2D7B PUSH2 0x2D27 JUMP JUMPDEST JUMPDEST DUP1 PUSH1 0x40 MSTORE POP POP POP JUMP JUMPDEST PUSH0 PUSH2 0x2D8E PUSH2 0x2AC6 JUMP JUMPDEST SWAP1 POP PUSH2 0x2D9A DUP3 DUP3 PUSH2 0x2D54 JUMP JUMPDEST SWAP2 SWAP1 POP JUMP JUMPDEST PUSH0 PUSH8 0xFFFFFFFFFFFFFFFF DUP3 GT ISZERO PUSH2 0x2DB9 JUMPI PUSH2 0x2DB8 PUSH2 0x2D27 JUMP JUMPDEST JUMPDEST PUSH2 0x2DC2 DUP3 PUSH2 0x2BA2 JUMP JUMPDEST SWAP1 POP PUSH1 0x20 DUP2 ADD SWAP1 POP SWAP2 SWAP1 POP JUMP JUMPDEST DUP3 DUP2 DUP4 CALLDATACOPY PUSH0 DUP4 DUP4 ADD MSTORE POP POP POP JUMP JUMPDEST PUSH0 PUSH2 0x2DEF PUSH2 0x2DEA DUP5 PUSH2 0x2D9F JUMP JUMPDEST PUSH2 0x2D85 JUMP JUMPDEST SWAP1 POP DUP3 DUP2 MSTORE PUSH1 0x20 DUP2 ADD DUP5 DUP5 DUP5 ADD GT ISZERO PUSH2 0x2E0B JUMPI PUSH2 0x2E0A PUSH2 0x2D23 JUMP JUMPDEST JUMPDEST PUSH2 0x2E16 DUP5 DUP3 DUP6 PUSH2 0x2DCF JUMP JUMPDEST POP SWAP4 SWAP3 POP POP POP JUMP JUMPDEST PUSH0 DUP3 PUSH1 0x1F DUP4 ADD SLT PUSH2 0x2E32 JUMPI PUSH2 0x2E31 PUSH2 0x2D1F JUMP JUMPDEST JUMPDEST DUP2 CALLDATALOAD PUSH2 0x2E42 DUP5 DUP3 PUSH1 0x20 DUP7 ADD PUSH2 0x2DDD JUMP JUMPDEST SWAP2 POP POP SWAP3 SWAP2 POP POP JUMP JUMPDEST PUSH0 PUSH2 0xFFFF DUP3 AND SWAP1 POP SWAP2 SWAP1 POP JUMP JUMPDEST PUSH2 0x2E61 DUP2 PUSH2 0x2E4B JUMP JUMPDEST DUP2 EQ PUSH2 0x2E6B JUMPI PUSH0 DUP1 REVERT JUMPDEST POP JUMP JUMPDEST PUSH0 DUP2 CALLDATALOAD SWAP1 POP PUSH2 0x2E7C DUP2 PUSH2 0x2E58 JUMP JUMPDEST SWAP3 SWAP2 POP POP JUMP JUMPDEST PUSH0 PUSH16 0xFFFFFFFFFFFFFFFFFFFFFFFFFFFFFFFF DUP3 AND SWAP1 POP SWAP2 SWAP1 POP JUMP JUMPDEST PUSH2 0x2EA6 DUP2 PUSH2 0x2E82 JUMP JUMPDEST DUP2 EQ PUSH2 0x2EB0 JUMPI PUSH0 DUP1 REVERT JUMPDEST POP JUMP JUMPDEST PUSH0 DUP2 CALLDATALOAD SWAP1 POP PUSH2 0x2EC1 DUP2 PUSH2 0x2E9D JUMP JUMPDEST SWAP3 SWAP2 POP POP JUMP JUMPDEST PUSH0 PUSH4 0xFFFFFFFF DUP3 AND SWAP1 POP SWAP2 SWAP1 POP JUMP JUMPDEST PUSH2 0x2EDF DUP2 PUSH2 0x2EC7 JUMP JUMPDEST DUP2 EQ PUSH2 0x2EE9 JUMPI PUSH0 DUP1 REVERT JUMPDEST POP JUMP JUMPDEST PUSH0 DUP2 CALLDATALOAD SWAP1 POP PUSH2 0x2EFA DUP2 PUSH2 0x2ED6 JUMP JUMPDEST SWAP3 SWAP2 POP POP JUMP JUMPDEST PUSH0 DUP1 PUSH0 DUP1 PUSH0 PUSH1 0xA0 DUP7 DUP9 SUB SLT ISZERO PUSH2 0x2F19 JUMPI PUSH2 0x2F18 PUSH2 0x2ACF JUMP JUMPDEST JUMPDEST PUSH0 DUP7 ADD CALLDATALOAD PUSH8 0xFFFFFFFFFFFFFFFF DUP2 GT ISZERO PUSH2 0x2F36 JUMPI PUSH2 0x2F35 PUSH2 0x2AD3 JUMP JUMPDEST JUMPDEST PUSH2 0x2F42 DUP9 DUP3 DUP10 ADD PUSH2 0x2E1E JUMP JUMPDEST SWAP6 POP POP PUSH1 0x20 DUP7 ADD CALLDATALOAD PUSH8 0xFFFFFFFFFFFFFFFF DUP2 GT ISZERO PUSH2 0x2F63 JUMPI PUSH2 0x2F62 PUSH2 0x2AD3 JUMP JUMPDEST JUMPDEST PUSH2 0x2F6F DUP9 DUP3 DUP10 ADD PUSH2 0x2E1E JUMP JUMPDEST SWAP5 POP POP PUSH1 0x40 PUSH2 0x2F80 DUP9 DUP3 DUP10 ADD PUSH2 0x2E6E JUMP JUMPDEST SWAP4 POP POP PUSH1 0x60 PUSH2 0x2F91 DUP9 DUP3 DUP10 ADD PUSH2 0x2EB3 JUMP JUMPDEST SWAP3 POP POP PUSH1 0x80 PUSH2 0x2FA2 DUP9 DUP3 DUP10 ADD PUSH2 0x2EEC JUMP JUMPDEST SWAP2 POP POP SWAP3 SWAP6 POP SWAP3 SWAP6 SWAP1 SWAP4 POP JUMP JUMPDEST PUSH0 DUP1 PUSH0 PUSH1 0x60 DUP5 DUP7 SUB SLT ISZERO PUSH2 0x2FC6 JUMPI PUSH2 0x2FC5 PUSH2 0x2ACF JUMP JUMPDEST JUMPDEST PUSH0 PUSH2 0x2FD3 DUP7 DUP3 DUP8 ADD PUSH2 0x2CCD JUMP JUMPDEST SWAP4 POP POP PUSH1 0x20 PUSH2 0x2FE4 DUP7 DUP3 DUP8 ADD PUSH2 0x2CCD JUMP JUMPDEST SWAP3 POP POP PUSH1 0x40 PUSH2 0x2FF5 DUP7 DUP3 DUP8 ADD PUSH2 0x2C20 JUMP JUMPDEST SWAP2 POP POP SWAP3 POP SWAP3 POP SWAP3 JUMP JUMPDEST PUSH0 PUSH1 0x20 DUP3 DUP5 SUB SLT ISZERO PUSH2 0x3014 JUMPI PUSH2 0x3013 PUSH2 0x2ACF JUMP JUMPDEST JUMPDEST PUSH0 PUSH2 0x3021 DUP5 DUP3 DUP6 ADD PUSH2 0x2CCD JUMP JUMPDEST SWAP2 POP POP SWAP3 SWAP2 POP POP JUMP JUMPDEST PUSH2 0x3033 DUP2 PUSH2 0x2B57 JUMP JUMPDEST DUP2 EQ PUSH2 0x303D JUMPI PUSH0 DUP1 REVERT JUMPDEST POP JUMP JUMPDEST PUSH0 DUP2 CALLDATALOAD SWAP1 POP PUSH2 0x304E DUP2 PUSH2 0x302A JUMP JUMPDEST SWAP3 SWAP2 POP POP JUMP JUMPDEST PUSH0 DUP1 PUSH1 0x40 DUP4 DUP6 SUB SLT ISZERO PUSH2 0x306A JUMPI PUSH2 0x3069 PUSH2 0x2ACF JUMP JUMPDEST JUMPDEST PUSH0 PUSH2 0x3077 DUP6 DUP3 DUP7 ADD PUSH2 0x2CCD JUMP JUMPDEST SWAP3 POP POP PUSH1 0x20 PUSH2 0x3088 DUP6 DUP3 DUP7 ADD PUSH2 0x3040 JUMP JUMPDEST SWAP2 POP POP SWAP3 POP SWAP3 SWAP1 POP JUMP JUMPDEST PUSH0 PUSH8 0xFFFFFFFFFFFFFFFF DUP3 GT ISZERO PUSH2 0x30AC JUMPI PUSH2 0x30AB PUSH2 0x2D27 JUMP JUMPDEST JUMPDEST PUSH2 0x30B5 DUP3 PUSH2 0x2BA2 JUMP JUMPDEST SWAP1 POP PUSH1 0x20 DUP2 ADD SWAP1 POP SWAP2 SWAP1 POP JUMP JUMPDEST PUSH0 PUSH2 0x30D4 PUSH2 0x30CF DUP5 PUSH2 0x3092 JUMP JUMPDEST PUSH2 0x2D85 JUMP JUMPDEST SWAP1 POP DUP3 DUP2 MSTORE PUSH1 0x20 DUP2 ADD DUP5 DUP5 DUP5 ADD GT ISZERO PUSH2 0x30F0 JUMPI PUSH2 0x30EF PUSH2 0x2D23 JUMP JUMPDEST JUMPDEST PUSH2 0x30FB DUP5 DUP3 DUP6 PUSH2 0x2DCF JUMP JUMPDEST POP SWAP4 SWAP3 POP POP POP JUMP JUMPDEST PUSH0 DUP3 PUSH1 0x1F DUP4 ADD SLT PUSH2 0x3117 JUMPI PUSH2 0x3116 PUSH2 0x2D1F JUMP JUMPDEST JUMPDEST DUP2 CALLDATALOAD PUSH2 0x3127 DUP5 DUP3 PUSH1 0x20 DUP7 ADD PUSH2 0x30C2 JUMP JUMPDEST SWAP2 POP POP SWAP3 SWAP2 POP POP JUMP JUMPDEST PUSH0 DUP1 PUSH0 DUP1 PUSH1 0x80 DUP6 DUP8 SUB SLT ISZERO PUSH2 0x3148 JUMPI PUSH2 0x3147 PUSH2 0x2ACF JUMP JUMPDEST JUMPDEST PUSH0 PUSH2 0x3155 DUP8 DUP3 DUP9 ADD PUSH2 0x2CCD JUMP JUMPDEST SWAP5 POP POP PUSH1 0x20 PUSH2 0x3166 DUP8 DUP3 DUP9 ADD PUSH2 0x2CCD JUMP JUMPDEST SWAP4 POP POP PUSH1 0x40 PUSH2 0x3177 DUP8 DUP3 DUP9 ADD PUSH2 0x2C20 JUMP JUMPDEST SWAP3 POP POP PUSH1 0x60 DUP6 ADD CALLDATALOAD PUSH8 0xFFFFFFFFFFFFFFFF DUP2 GT ISZERO PUSH2 0x3198 JUMPI PUSH2 0x3197 PUSH2 0x2AD3 JUMP JUMPDEST JUMPDEST PUSH2 0x31A4 DUP8 DUP3 DUP9 ADD PUSH2 0x3103 JUMP JUMPDEST SWAP2 POP POP SWAP3 SWAP6 SWAP2 SWAP5 POP SWAP3 POP JUMP JUMPDEST PUSH0 PUSH1 0xFF DUP3 AND SWAP1 POP SWAP2 SWAP1 POP JUMP JUMPDEST PUSH2 0x31C5 DUP2 PUSH2 0x31B0 JUMP JUMPDEST DUP2 EQ PUSH2 0x31CF JUMPI PUSH0 DUP1 REVERT JUMPDEST POP JUMP JUMPDEST PUSH0 DUP2 CALLDATALOAD SWAP1 POP PUSH2 0x31E0 DUP2 PUSH2 0x31BC JUMP JUMPDEST SWAP3 SWAP2 POP POP JUMP JUMPDEST PUSH0 DUP1 PUSH0 DUP1 PUSH0 PUSH1 0xA0 DUP7 DUP9 SUB SLT ISZERO PUSH2 0x31FF JUMPI PUSH2 0x31FE PUSH2 0x2ACF JUMP JUMPDEST JUMPDEST PUSH0 PUSH2 0x320C DUP9 DUP3 DUP10 ADD PUSH2 0x2C20 JUMP JUMPDEST SWAP6 POP POP PUSH1 0x20 PUSH2 0x321D DUP9 DUP3 DUP10 ADD PUSH2 0x2C20 JUMP JUMPDEST SWAP5 POP POP PUSH1 0x40 PUSH2 0x322E DUP9 DUP3 DUP10 ADD PUSH2 0x31D2 JUMP JUMPDEST SWAP4 POP POP PUSH1 0x60 PUSH2 0x323F DUP9 DUP3 DUP10 ADD PUSH2 0x2C20 JUMP JUMPDEST SWAP3 POP POP PUSH1 0x80 PUSH2 0x3250 DUP9 DUP3 DUP10 ADD PUSH2 0x2C20 JUMP JUMPDEST SWAP2 POP POP SWAP3 SWAP6 POP SWAP3 SWAP6 SWAP1 SWAP4 POP JUMP JUMPDEST PUSH2 0x3266 DUP2 PUSH2 0x2E82 JUMP JUMPDEST DUP3 MSTORE POP POP JUMP JUMPDEST PUSH0 PUSH1 0x20 DUP3 ADD SWAP1 POP PUSH2 0x327F PUSH0 DUP4 ADD DUP5 PUSH2 0x325D JUMP JUMPDEST SWAP3 SWAP2 POP POP JUMP JUMPDEST PUSH0 DUP1 PUSH1 0x40 DUP4 DUP6 SUB SLT ISZERO PUSH2 0x329B JUMPI PUSH2 0x329A PUSH2 0x2ACF JUMP JUMPDEST JUMPDEST PUSH0 PUSH2 0x32A8 DUP6 DUP3 DUP7 ADD PUSH2 0x2C20 JUMP JUMPDEST SWAP3 POP POP PUSH1 0x20 PUSH2 0x32B9 DUP6 DUP3 DUP7 ADD PUSH2 0x2C20 JUMP JUMPDEST SWAP2 POP POP SWAP3 POP SWAP3 SWAP1 POP JUMP JUMPDEST PUSH0 DUP1 PUSH1 0x40 DUP4 DUP6 SUB SLT ISZERO PUSH2 0x32D9 JUMPI PUSH2 0x32D8 PUSH2 0x2ACF JUMP JUMPDEST JUMPDEST PUSH0 PUSH2 0x32E6 DUP6 DUP3 DUP7 ADD PUSH2 0x2CCD JUMP JUMPDEST SWAP3 POP POP PUSH1 0x20 PUSH2 0x32F7 DUP6 DUP3 DUP7 ADD PUSH2 0x2CCD JUMP JUMPDEST SWAP2 POP POP SWAP3 POP SWAP3 SWAP1 POP JUMP JUMPDEST PUSH0 DUP3 DUP3 MSTORE PUSH1 0x20 DUP3 ADD SWAP1 POP SWAP3 SWAP2 POP POP JUMP JUMPDEST PUSH0 PUSH2 0x331B DUP3 PUSH2 0x2B8A JUMP JUMPDEST PUSH2 0x3325 DUP2 DUP6 PUSH2 0x3301 JUMP JUMPDEST SWAP4 POP PUSH2 0x3335 DUP2 DUP6 PUSH1 0x20 DUP7 ADD PUSH2 0x2B94 JUMP JUMPDEST PUSH2 0x333E DUP2 PUSH2 0x2BA2 JUMP JUMPDEST DUP5 ADD SWAP2 POP POP SWAP3 SWAP2 POP POP JUMP JUMPDEST PUSH2 0x3352 DUP2 PUSH2 0x2E4B JUMP JUMPDEST DUP3 MSTORE POP POP JUMP JUMPDEST PUSH2 0x3361 DUP2 PUSH2 0x29F7 JUMP JUMPDEST DUP3 MSTORE POP POP JUMP JUMPDEST PUSH0 PUSH1 0xA0 DUP4 ADD PUSH0 DUP4 ADD MLOAD DUP5 DUP3 SUB PUSH0 DUP7 ADD MSTORE PUSH2 0x3381 DUP3 DUP3 PUSH2 0x3311 JUMP JUMPDEST SWAP2 POP POP PUSH1 0x20 DUP4 ADD MLOAD DUP5 DUP3 SUB PUSH1 0x20 DUP7 ADD MSTORE PUSH2 0x339B DUP3 DUP3 PUSH2 0x3311 JUMP JUMPDEST SWAP2 POP POP PUSH1 0x40 DUP4 ADD MLOAD PUSH2 0x33B0 PUSH1 0x40 DUP7 ADD DUP3 PUSH2 0x3349 JUMP JUMPDEST POP PUSH1 0x60 DUP4 ADD MLOAD PUSH2 0x33C3 PUSH1 0x60 DUP7 ADD DUP3 PUSH2 0x3358 JUMP JUMPDEST POP PUSH1 0x80 DUP4 ADD MLOAD PUSH2 0x33D6 PUSH1 0x80 DUP7 ADD DUP3 PUSH2 0x3358 JUMP JUMPDEST POP DUP1 SWAP2 POP POP SWAP3 SWAP2 POP POP JUMP JUMPDEST PUSH0 PUSH1 0x20 DUP3 ADD SWAP1 POP DUP2 DUP2 SUB PUSH0 DUP4 ADD MSTORE PUSH2 0x33F9 DUP2 DUP5 PUSH2 0x3367 JUMP JUMPDEST SWAP1 POP SWAP3 SWAP2 POP POP JUMP JUMPDEST PUSH32 0x4E487B7100000000000000000000000000000000000000000000000000000000 PUSH0 MSTORE PUSH1 0x22 PUSH1 0x4 MSTORE PUSH1 0x24 PUSH0 REVERT JUMPDEST PUSH0 PUSH1 0x2 DUP3 DIV SWAP1 POP PUSH1 0x1 DUP3 AND DUP1 PUSH2 0x3445 JUMPI PUSH1 0x7F DUP3 AND SWAP2 POP JUMPDEST PUSH1 0x20 DUP3 LT DUP2 SUB PUSH2 0x3458 JUMPI PUSH2 0x3457 PUSH2 0x3401 JUMP JUMPDEST JUMPDEST POP SWAP2 SWAP1 POP JUMP JUMPDEST PUSH32 0x4361724E46543A20596F75206E65656420746F206265206F776E657200000000 PUSH0 DUP3 ADD MSTORE POP JUMP JUMPDEST PUSH0 PUSH2 0x3492 PUSH1 0x1C DUP4 PUSH2 0x2A28 JUMP JUMPDEST SWAP2 POP PUSH2 0x349D DUP3 PUSH2 0x345E JUMP JUMPDEST PUSH1 0x20 DUP3 ADD SWAP1 POP SWAP2 SWAP1 POP JUMP JUMPDEST PUSH0 PUSH1 0x20 DUP3 ADD SWAP1 POP DUP2 DUP2 SUB PUSH0 DUP4 ADD MSTORE PUSH2 0x34BF DUP2 PUSH2 0x3486 JUMP JUMPDEST SWAP1 POP SWAP2 SWAP1 POP JUMP JUMPDEST PUSH32 0x4361724E46543A204D6F64656C2063616E6E6F7420626520656D707479000000 PUSH0 DUP3 ADD MSTORE POP JUMP JUMPDEST PUSH0 PUSH2 0x34FA PUSH1 0x1D DUP4 PUSH2 0x2A28 JUMP JUMPDEST SWAP2 POP PUSH2 0x3505 DUP3 PUSH2 0x34C6 JUMP JUMPDEST PUSH1 0x20 DUP3 ADD SWAP1 POP SWAP2 SWAP1 POP JUMP JUMPDEST PUSH0 PUSH1 0x20 DUP3 ADD SWAP1 POP DUP2 DUP2 SUB PUSH0 DUP4 ADD MSTORE PUSH2 0x3527 DUP2 PUSH2 0x34EE JUMP JUMPDEST SWAP1 POP SWAP2 SWAP1 POP JUMP JUMPDEST PUSH32 0x4361724E46543A20436F6C6F722063616E6E6F7420626520656D707479000000 PUSH0 DUP3 ADD MSTORE POP JUMP JUMPDEST PUSH0 PUSH2 0x3562 PUSH1 0x1D DUP4 PUSH2 0x2A28 JUMP JUMPDEST SWAP2 POP PUSH2 0x356D DUP3 PUSH2 0x352E JUMP JUMPDEST PUSH1 0x20 DUP3 ADD SWAP1 POP SWAP2 SWAP1 POP JUMP JUMPDEST PUSH0 PUSH1 0x20 DUP3 ADD SWAP1 POP DUP2 DUP2 SUB PUSH0 DUP4 ADD MSTORE PUSH2 0x358F DUP2 PUSH2 0x3556 JUMP JUMPDEST SWAP1 POP SWAP2 SWAP1 POP JUMP JUMPDEST PUSH32 0x4E487B7100000000000000000000000000000000000000000000000000000000 PUSH0 MSTORE PUSH1 0x12 PUSH1 0x4 MSTORE PUSH1 0x24 PUSH0 REVERT JUMPDEST PUSH32 0x4E487B7100000000000000000000000000000000000000000000000000000000 PUSH0 MSTORE PUSH1 0x11 PUSH1 0x4 MSTORE PUSH1 0x24 PUSH0 REVERT JUMPDEST PUSH0 PUSH2 0x35FA DUP3 PUSH2 0x29F7 JUMP JUMPDEST SWAP2 POP PUSH2 0x3605 DUP4 PUSH2 0x29F7 JUMP JUMPDEST SWAP3 POP DUP3 PUSH2 0x3615 JUMPI PUSH2 0x3614 PUSH2 0x3596 JUMP JUMPDEST JUMPDEST DUP3 DUP3 DIV SWAP1 POP SWAP3 SWAP2 POP POP JUMP JUMPDEST PUSH0 PUSH2 0x362A DUP3 PUSH2 0x29F7 JUMP JUMPDEST SWAP2 POP PUSH2 0x3635 DUP4 PUSH2 0x29F7 JUMP JUMPDEST SWAP3 POP DUP3 DUP3 ADD SWAP1 POP DUP1 DUP3 GT ISZERO PUSH2 0x364D JUMPI PUSH2 0x364C PUSH2 0x35C3 JUMP JUMPDEST JUMPDEST SWAP3 SWAP2 POP POP JUMP JUMPDEST PUSH32 0x4361724E46543A20496E76616C69642079656172206F66206D6174726963756C PUSH0 DUP3 ADD MSTORE PUSH32 0x6174696F6E000000000000000000000000000000000000000000000000000000 PUSH1 0x20 DUP3 ADD MSTORE POP JUMP JUMPDEST PUSH0 PUSH2 0x36AD PUSH1 0x25 DUP4 PUSH2 0x2A28 JUMP JUMPDEST SWAP2 POP PUSH2 0x36B8 DUP3 PUSH2 0x3653 JUMP JUMPDEST PUSH1 0x40 DUP3 ADD SWAP1 POP SWAP2 SWAP1 POP JUMP JUMPDEST PUSH0 PUSH1 0x20 DUP3 ADD SWAP1 POP DUP2 DUP2 SUB PUSH0 DUP4 ADD MSTORE PUSH2 0x36DA DUP2 PUSH2 0x36A1 JUMP JUMPDEST SWAP1 POP SWAP2 SWAP1 POP JUMP JUMPDEST PUSH32 0x4361724E46543A204F726967696E616C2076616C7565206D7573742062652067 PUSH0 DUP3 ADD MSTORE PUSH32 0x726561746572207468616E207A65726F00000000000000000000000000000000 PUSH1 0x20 DUP3 ADD MSTORE POP JUMP JUMPDEST PUSH0 PUSH2 0x373B PUSH1 0x30 DUP4 PUSH2 0x2A28 JUMP JUMPDEST SWAP2 POP PUSH2 0x3746 DUP3 PUSH2 0x36E1 JUMP JUMPDEST PUSH1 0x40 DUP3 ADD SWAP1 POP SWAP2 SWAP1 POP JUMP JUMPDEST PUSH0 PUSH1 0x20 DUP3 ADD SWAP1 POP DUP2 DUP2 SUB PUSH0 DUP4 ADD MSTORE PUSH2 0x3768 DUP2 PUSH2 0x372F JUMP JUMPDEST SWAP1 POP SWAP2 SWAP1 POP JUMP JUMPDEST PUSH32 0x4361724E46543A204D696C656167652063616E6E6F74206265206E6567617469 PUSH0 DUP3 ADD MSTORE PUSH32 0x7665000000000000000000000000000000000000000000000000000000000000 PUSH1 0x20 DUP3 ADD MSTORE POP JUMP JUMPDEST PUSH0 PUSH2 0x37C9 PUSH1 0x22 DUP4 PUSH2 0x2A28 JUMP JUMPDEST SWAP2 POP PUSH2 0x37D4 DUP3 PUSH2 0x376F JUMP JUMPDEST PUSH1 0x40 DUP3 ADD SWAP1 POP SWAP2 SWAP1 POP JUMP JUMPDEST PUSH0 PUSH1 0x20 DUP3 ADD SWAP1 POP DUP2 DUP2 SUB PUSH0 DUP4 ADD MSTORE PUSH2 0x37F6 DUP2 PUSH2 0x37BD JUMP JUMPDEST SWAP1 POP SWAP2 SWAP1 POP JUMP JUMPDEST PUSH0 DUP2 SWAP1 POP DUP2 PUSH0 MSTORE PUSH1 0x20 PUSH0 KECCAK256 SWAP1 POP SWAP2 SWAP1 POP JUMP JUMPDEST PUSH0 PUSH1 0x20 PUSH1 0x1F DUP4 ADD DIV SWAP1 POP SWAP2 SWAP1 POP JUMP JUMPDEST PUSH0 DUP3 DUP3 SHL SWAP1 POP SWAP3 SWAP2 POP POP JUMP JUMPDEST PUSH0 PUSH1 0x8 DUP4 MUL PUSH2 0x3859 PUSH32 0xFFFFFFFFFFFFFFFFFFFFFFFFFFFFFFFFFFFFFFFFFFFFFFFFFFFFFFFFFFFFFFFF DUP3 PUSH2 0x381E JUMP JUMPDEST PUSH2 0x3863 DUP7 DUP4 PUSH2 0x381E JUMP JUMPDEST SWAP6 POP DUP1 NOT DUP5 AND SWAP4 POP DUP1 DUP7 AND DUP5 OR SWAP3 POP POP POP SWAP4 SWAP3 POP POP POP JUMP JUMPDEST PUSH0 DUP2 SWAP1 POP SWAP2 SWAP1 POP JUMP JUMPDEST PUSH0 PUSH2 0x389E PUSH2 0x3899 PUSH2 0x3894 DUP5 PUSH2 0x29F7 JUMP JUMPDEST PUSH2 0x387B JUMP JUMPDEST PUSH2 0x29F7 JUMP JUMPDEST SWAP1 POP SWAP2 SWAP1 POP JUMP JUMPDEST PUSH0 DUP2 SWAP1 POP SWAP2 SWAP1 POP JUMP JUMPDEST PUSH2 0x38B7 DUP4 PUSH2 0x3884 JUMP JUMPDEST PUSH2 0x38CB PUSH2 0x38C3 DUP3 PUSH2 0x38A5 JUMP JUMPDEST DUP5 DUP5 SLOAD PUSH2 0x382A JUMP JUMPDEST DUP3 SSTORE POP POP POP POP JUMP JUMPDEST PUSH0 SWAP1 JUMP JUMPDEST PUSH2 0x38DF PUSH2 0x38D3 JUMP JUMPDEST PUSH2 0x38EA DUP2 DUP5 DUP5 PUSH2 0x38AE JUMP JUMPDEST POP POP POP JUMP JUMPDEST JUMPDEST DUP2 DUP2 LT ISZERO PUSH2 0x390D JUMPI PUSH2 0x3902 PUSH0 DUP3 PUSH2 0x38D7 JUMP JUMPDEST PUSH1 0x1 DUP2 ADD SWAP1 POP PUSH2 0x38F0 JUMP JUMPDEST POP POP JUMP JUMPDEST PUSH1 0x1F DUP3 GT ISZERO PUSH2 0x3952 JUMPI PUSH2 0x3923 DUP2 PUSH2 0x37FD JUMP JUMPDEST PUSH2 0x392C DUP5 PUSH2 0x380F JUMP JUMPDEST DUP2 ADD PUSH1 0x20 DUP6 LT ISZERO PUSH2 0x393B JUMPI DUP2 SWAP1 POP JUMPDEST PUSH2 0x394F PUSH2 0x3947 DUP6 PUSH2 0x380F JUMP JUMPDEST DUP4 ADD DUP3 PUSH2 0x38EF JUMP JUMPDEST POP POP JUMPDEST POP POP POP JUMP JUMPDEST PUSH0 DUP3 DUP3 SHR SWAP1 POP SWAP3 SWAP2 POP POP JUMP JUMPDEST PUSH0 PUSH2 0x3972 PUSH0 NOT DUP5 PUSH1 0x8 MUL PUSH2 0x3957 JUMP JUMPDEST NOT DUP1 DUP4 AND SWAP2 POP POP SWAP3 SWAP2 POP POP JUMP JUMPDEST PUSH0 PUSH2 0x398A DUP4 DUP4 PUSH2 0x3963 JUMP JUMPDEST SWAP2 POP DUP3 PUSH1 0x2 MUL DUP3 OR SWAP1 POP SWAP3 SWAP2 POP POP JUMP JUMPDEST PUSH2 0x39A3 DUP3 PUSH2 0x2B8A JUMP JUMPDEST PUSH8 0xFFFFFFFFFFFFFFFF DUP2 GT ISZERO PUSH2 0x39BC JUMPI PUSH2 0x39BB PUSH2 0x2D27 JUMP JUMPDEST JUMPDEST PUSH2 0x39C6 DUP3 SLOAD PUSH2 0x342E JUMP JUMPDEST PUSH2 0x39D1 DUP3 DUP3 DUP6 PUSH2 0x3911 JUMP JUMPDEST PUSH0 PUSH1 0x20 SWAP1 POP PUSH1 0x1F DUP4 GT PUSH1 0x1 DUP2 EQ PUSH2 0x3A02 JUMPI PUSH0 DUP5 ISZERO PUSH2 0x39F0 JUMPI DUP3 DUP8 ADD MLOAD SWAP1 POP JUMPDEST PUSH2 0x39FA DUP6 DUP3 PUSH2 0x397F JUMP JUMPDEST DUP7 SSTORE POP PUSH2 0x3A61 JUMP JUMPDEST PUSH1 0x1F NOT DUP5 AND PUSH2 0x3A10 DUP7 PUSH2 0x37FD JUMP JUMPDEST PUSH0 JUMPDEST DUP3 DUP2 LT ISZERO PUSH2 0x3A37 JUMPI DUP5 DUP10 ADD MLOAD DUP3 SSTORE PUSH1 0x1 DUP3 ADD SWAP2 POP PUSH1 0x20 DUP6 ADD SWAP5 POP PUSH1 0x20 DUP2 ADD SWAP1 POP PUSH2 0x3A12 JUMP JUMPDEST DUP7 DUP4 LT ISZERO PUSH2 0x3A54 JUMPI DUP5 DUP10 ADD MLOAD PUSH2 0x3A50 PUSH1 0x1F DUP10 AND DUP3 PUSH2 0x3963 JUMP JUMPDEST DUP4 SSTORE POP JUMPDEST PUSH1 0x1 PUSH1 0x2 DUP9 MUL ADD DUP9 SSTORE POP POP POP JUMPDEST POP POP POP POP POP POP JUMP JUMPDEST PUSH0 PUSH1 0x60 DUP3 ADD SWAP1 POP PUSH2 0x3A7C PUSH0 DUP4 ADD DUP7 PUSH2 0x2C8F JUMP JUMPDEST PUSH2 0x3A89 PUSH1 0x20 DUP4 ADD DUP6 PUSH2 0x2A00 JUMP JUMPDEST PUSH2 0x3A96 PUSH1 0x40 DUP4 ADD DUP5 PUSH2 0x2C8F JUMP JUMPDEST SWAP5 SWAP4 POP POP POP POP JUMP JUMPDEST PUSH0 DUP2 MLOAD SWAP1 POP PUSH2 0x3AAC DUP2 PUSH2 0x2C0A JUMP JUMPDEST SWAP3 SWAP2 POP POP JUMP JUMPDEST PUSH0 PUSH1 0x20 DUP3 DUP5 SUB SLT ISZERO PUSH2 0x3AC7 JUMPI PUSH2 0x3AC6 PUSH2 0x2ACF JUMP JUMPDEST JUMPDEST PUSH0 PUSH2 0x3AD4 DUP5 DUP3 DUP6 ADD PUSH2 0x3A9E JUMP JUMPDEST SWAP2 POP POP SWAP3 SWAP2 POP POP JUMP JUMPDEST PUSH32 0x4361724E46543A2043617220646F6573206E6F74206578697374000000000000 PUSH0 DUP3 ADD MSTORE POP JUMP JUMPDEST PUSH0 PUSH2 0x3B11 PUSH1 0x1A DUP4 PUSH2 0x2A28 JUMP JUMPDEST SWAP2 POP PUSH2 0x3B1C DUP3 PUSH2 0x3ADD JUMP JUMPDEST PUSH1 0x20 DUP3 ADD SWAP1 POP SWAP2 SWAP1 POP JUMP JUMPDEST PUSH0 PUSH1 0x20 DUP3 ADD SWAP1 POP DUP2 DUP2 SUB PUSH0 DUP4 ADD MSTORE PUSH2 0x3B3E DUP2 PUSH2 0x3B05 JUMP JUMPDEST SWAP1 POP SWAP2 SWAP1 POP JUMP JUMPDEST PUSH32 0x54686973206361722069736E277420617661696C61626C6520666F72206C6561 PUSH0 DUP3 ADD MSTORE PUSH32 0x7365000000000000000000000000000000000000000000000000000000000000 PUSH1 0x20 DUP3 ADD MSTORE POP JUMP JUMPDEST PUSH0 PUSH2 0x3B9F PUSH1 0x22 DUP4 PUSH2 0x2A28 JUMP JUMPDEST SWAP2 POP PUSH2 0x3BAA DUP3 PUSH2 0x3B45 JUMP JUMPDEST PUSH1 0x40 DUP3 ADD SWAP1 POP SWAP2 SWAP1 POP JUMP JUMPDEST PUSH0 PUSH1 0x20 DUP3 ADD SWAP1 POP DUP2 DUP2 SUB PUSH0 DUP4 ADD MSTORE PUSH2 0x3BCC DUP2 PUSH2 0x3B93 JUMP JUMPDEST SWAP1 POP SWAP2 SWAP1 POP JUMP JUMPDEST PUSH32 0x4361724E46543A2043617220616C7265616479206C6561736564000000000000 PUSH0 DUP3 ADD MSTORE POP JUMP JUMPDEST PUSH0 PUSH2 0x3C07 PUSH1 0x1A DUP4 PUSH2 0x2A28 JUMP JUMPDEST SWAP2 POP PUSH2 0x3C12 DUP3 PUSH2 0x3BD3 JUMP JUMPDEST PUSH1 0x20 DUP3 ADD SWAP1 POP SWAP2 SWAP1 POP JUMP JUMPDEST PUSH0 PUSH1 0x20 DUP3 ADD SWAP1 POP DUP2 DUP2 SUB PUSH0 DUP4 ADD MSTORE PUSH2 0x3C34 DUP2 PUSH2 0x3BFB JUMP JUMPDEST SWAP1 POP SWAP2 SWAP1 POP JUMP JUMPDEST PUSH0 DUP2 SWAP1 POP SWAP3 SWAP2 POP POP JUMP JUMPDEST PUSH0 PUSH2 0x3C4F DUP3 PUSH2 0x2B8A JUMP JUMPDEST PUSH2 0x3C59 DUP2 DUP6 PUSH2 0x3C3B JUMP JUMPDEST SWAP4 POP PUSH2 0x3C69 DUP2 DUP6 PUSH1 0x20 DUP7 ADD PUSH2 0x2B94 JUMP JUMPDEST DUP1 DUP5 ADD SWAP2 POP POP SWAP3 SWAP2 POP POP JUMP JUMPDEST PUSH0 PUSH2 0x3C80 DUP3 DUP6 PUSH2 0x3C45 JUMP JUMPDEST SWAP2 POP PUSH2 0x3C8C DUP3 DUP5 PUSH2 0x3C45 JUMP JUMPDEST SWAP2 POP DUP2 SWAP1 POP SWAP4 SWAP3 POP POP POP JUMP JUMPDEST PUSH0 PUSH2 0x3CA2 DUP3 PUSH2 0x29F7 JUMP JUMPDEST SWAP2 POP PUSH2 0x3CAD DUP4 PUSH2 0x29F7 JUMP JUMPDEST SWAP3 POP DUP3 DUP3 MUL PUSH2 0x3CBB DUP2 PUSH2 0x29F7 JUMP JUMPDEST SWAP2 POP DUP3 DUP3 DIV DUP5 EQ DUP4 ISZERO OR PUSH2 0x3CD2 JUMPI PUSH2 0x3CD1 PUSH2 0x35C3 JUMP JUMPDEST JUMPDEST POP SWAP3 SWAP2 POP POP JUMP JUMPDEST PUSH0 PUSH2 0x3CE3 DUP3 PUSH2 0x29F7 JUMP JUMPDEST SWAP2 POP PUSH2 0x3CEE DUP4 PUSH2 0x29F7 JUMP JUMPDEST SWAP3 POP DUP3 DUP3 SUB SWAP1 POP DUP2 DUP2 GT ISZERO PUSH2 0x3D06 JUMPI PUSH2 0x3D05 PUSH2 0x35C3 JUMP JUMPDEST JUMPDEST SWAP3 SWAP2 POP POP JUMP JUMPDEST PUSH32 0x4361724E46543A204F6E6C7920746865206173736F636961746564204C656173 PUSH0 DUP3 ADD MSTORE PUSH32 0x6541677265656D656E742063616E20757064617465206D696C65616765730000 PUSH1 0x20 DUP3 ADD MSTORE POP JUMP JUMPDEST PUSH0 PUSH2 0x3D66 PUSH1 0x3E DUP4 PUSH2 0x2A28 JUMP JUMPDEST SWAP2 POP PUSH2 0x3D71 DUP3 PUSH2 0x3D0C JUMP JUMPDEST PUSH1 0x40 DUP3 ADD SWAP1 POP SWAP2 SWAP1 POP JUMP JUMPDEST PUSH0 PUSH1 0x20 DUP3 ADD SWAP1 POP DUP2 DUP2 SUB PUSH0 DUP4 ADD MSTORE PUSH2 0x3D93 DUP2 PUSH2 0x3D5A JUMP JUMPDEST SWAP1 POP SWAP2 SWAP1 POP JUMP JUMPDEST PUSH32 0x4361724E46543A204F6E6C7920746865206173736F636961746564204C656173 PUSH0 DUP3 ADD MSTORE PUSH32 0x6541677265656D656E742063616E2072657475726E2074686520636172000000 PUSH1 0x20 DUP3 ADD MSTORE POP JUMP JUMPDEST PUSH0 PUSH2 0x3DF4 PUSH1 0x3D DUP4 PUSH2 0x2A28 JUMP JUMPDEST SWAP2 POP PUSH2 0x3DFF DUP3 PUSH2 0x3D9A JUMP JUMPDEST PUSH1 0x40 DUP3 ADD SWAP1 POP SWAP2 SWAP1 POP JUMP JUMPDEST PUSH0 PUSH1 0x20 DUP3 ADD SWAP1 POP DUP2 DUP2 SUB PUSH0 DUP4 ADD MSTORE PUSH2 0x3E21 DUP2 PUSH2 0x3DE8 JUMP JUMPDEST SWAP1 POP SWAP2 SWAP1 POP JUMP JUMPDEST PUSH0 DUP2 MLOAD SWAP1 POP SWAP2 SWAP1 POP JUMP JUMPDEST PUSH0 DUP3 DUP3 MSTORE PUSH1 0x20 DUP3 ADD SWAP1 POP SWAP3 SWAP2 POP POP JUMP JUMPDEST PUSH0 PUSH2 0x3E4C DUP3 PUSH2 0x3E28 JUMP JUMPDEST PUSH2 0x3E56 DUP2 DUP6 PUSH2 0x3E32 JUMP JUMPDEST SWAP4 POP PUSH2 0x3E66 DUP2 DUP6 PUSH1 0x20 DUP7 ADD PUSH2 0x2B94 JUMP JUMPDEST PUSH2 0x3E6F DUP2 PUSH2 0x2BA2 JUMP JUMPDEST DUP5 ADD SWAP2 POP POP SWAP3 SWAP2 POP POP JUMP JUMPDEST PUSH0 PUSH1 0x80 DUP3 ADD SWAP1 POP PUSH2 0x3E8D PUSH0 DUP4 ADD DUP8 PUSH2 0x2C8F JUMP JUMPDEST PUSH2 0x3E9A PUSH1 0x20 DUP4 ADD DUP7 PUSH2 0x2C8F JUMP JUMPDEST PUSH2 0x3EA7 PUSH1 0x40 DUP4 ADD DUP6 PUSH2 0x2A00 JUMP JUMPDEST DUP2 DUP2 SUB PUSH1 0x60 DUP4 ADD MSTORE PUSH2 0x3EB9 DUP2 DUP5 PUSH2 0x3E42 JUMP JUMPDEST SWAP1 POP SWAP6 SWAP5 POP POP POP POP POP JUMP JUMPDEST PUSH0 DUP2 MLOAD SWAP1 POP PUSH2 0x3ED2 DUP2 PUSH2 0x2B02 JUMP JUMPDEST SWAP3 SWAP2 POP POP JUMP JUMPDEST PUSH0 PUSH1 0x20 DUP3 DUP5 SUB SLT ISZERO PUSH2 0x3EED JUMPI PUSH2 0x3EEC PUSH2 0x2ACF JUMP JUMPDEST JUMPDEST PUSH0 PUSH2 0x3EFA DUP5 DUP3 DUP6 ADD PUSH2 0x3EC4 JUMP JUMPDEST SWAP2 POP POP SWAP3 SWAP2 POP POP JUMP JUMPDEST PUSH0 PUSH1 0x40 DUP3 ADD SWAP1 POP PUSH2 0x3F16 PUSH0 DUP4 ADD DUP6 PUSH2 0x2C8F JUMP JUMPDEST PUSH2 0x3F23 PUSH1 0x20 DUP4 ADD DUP5 PUSH2 0x2A00 JUMP JUMPDEST SWAP4 SWAP3 POP POP POP JUMP INVALID LOG2 PUSH5 0x6970667358 0x22 SLT KECCAK256 SHL SWAP10 SELFBALANCE 0xE1 MSTORE 0xAB PUSH30 0x763EF50173D50570CFEED49FFDCC4A85090A005A1F28E27D6D64736F6C63 NUMBER STOP ADDMOD BYTE STOP CALLER "
		},
		"gasEstimates": {
			"creation": {
				"codeDepositCost": "3244800",
				"executionCost": "infinite",
				"totalCost": "infinite"
			},
			"external": {
				"": "1831",
				"approve(address,uint256)": "infinite",
				"availableCarNFT(uint256)": "infinite",
				"balanceOf(address)": "infinite",
				"calculateMonthlyQuota(uint256,uint256,uint8,uint256,uint256)": "infinite",
				"checkCurrentCarNFTOwner(uint256)": "infinite",
				"getApproved(uint256)": "infinite",
				"getCarByCarID(uint256)": "infinite",
				"getCurrentSupply()": "2499",
				"getOwner()": "2560",
				"isApprovedForAll(address,address)": "infinite",
				"leaseAgreements(uint256)": "2850",
				"leaseCarNFT(address,address,uint256)": "infinite",
				"mintCarNFT(string,string,uint16,uint128,uint32)": "infinite",
				"name()": "infinite",
				"ownerOf(uint256)": "infinite",
				"reserve(uint256)": "infinite",
				"returnCarNFT(uint256)": "infinite",
				"safeTransferFrom(address,address,uint256)": "infinite",
				"safeTransferFrom(address,address,uint256,bytes)": "infinite",
				"setApprovalForAll(address,bool)": "infinite",
				"setMileage(uint256,uint256)": "infinite",
				"supportsInterface(bytes4)": "787",
				"symbol()": "infinite",
				"tokenURI(uint256)": "infinite",
				"transferFrom(address,address,uint256)": "infinite"
			}
		},
		"methodIdentifiers": {
			"approve(address,uint256)": "095ea7b3",
			"availableCarNFT(uint256)": "2d64dbfd",
			"balanceOf(address)": "70a08231",
			"calculateMonthlyQuota(uint256,uint256,uint8,uint256,uint256)": "d57fa07d",
			"checkCurrentCarNFTOwner(uint256)": "93678237",
			"getApproved(uint256)": "081812fc",
			"getCarByCarID(uint256)": "ef555bc1",
			"getCurrentSupply()": "4f3e1efc",
			"getOwner()": "893d20e8",
			"isApprovedForAll(address,address)": "e985e9c5",
			"leaseAgreements(uint256)": "831b455d",
			"leaseCarNFT(address,address,uint256)": "c776194f",
			"mintCarNFT(string,string,uint16,uint128,uint32)": "16ee8b16",
			"name()": "06fdde03",
			"ownerOf(uint256)": "6352211e",
			"reserve(uint256)": "819b25ba",
			"returnCarNFT(uint256)": "f410dcc2",
			"safeTransferFrom(address,address,uint256)": "42842e0e",
			"safeTransferFrom(address,address,uint256,bytes)": "b88d4fde",
			"setApprovalForAll(address,bool)": "a22cb465",
			"setMileage(uint256,uint256)": "e77e89f3",
			"supportsInterface(bytes4)": "01ffc9a7",
			"symbol()": "95d89b41",
			"tokenURI(uint256)": "c87b56dd",
			"transferFrom(address,address,uint256)": "23b872dd"
		}
	},
	"abi": [
		{
			"inputs": [
				{
					"internalType": "string",
					"name": "name",
					"type": "string"
				},
				{
					"internalType": "string",
					"name": "symbol",
					"type": "string"
				}
			],
			"stateMutability": "nonpayable",
			"type": "constructor"
		},
		{
			"inputs": [
				{
					"internalType": "address",
					"name": "sender",
					"type": "address"
				},
				{
					"internalType": "uint256",
					"name": "tokenId",
					"type": "uint256"
				},
				{
					"internalType": "address",
					"name": "owner",
					"type": "address"
				}
			],
			"name": "ERC721IncorrectOwner",
			"type": "error"
		},
		{
			"inputs": [
				{
					"internalType": "address",
					"name": "operator",
					"type": "address"
				},
				{
					"internalType": "uint256",
					"name": "tokenId",
					"type": "uint256"
				}
			],
			"name": "ERC721InsufficientApproval",
			"type": "error"
		},
		{
			"inputs": [
				{
					"internalType": "address",
					"name": "approver",
					"type": "address"
				}
			],
			"name": "ERC721InvalidApprover",
			"type": "error"
		},
		{
			"inputs": [
				{
					"internalType": "address",
					"name": "operator",
					"type": "address"
				}
			],
			"name": "ERC721InvalidOperator",
			"type": "error"
		},
		{
			"inputs": [
				{
					"internalType": "address",
					"name": "owner",
					"type": "address"
				}
			],
			"name": "ERC721InvalidOwner",
			"type": "error"
		},
		{
			"inputs": [
				{
					"internalType": "address",
					"name": "receiver",
					"type": "address"
				}
			],
			"name": "ERC721InvalidReceiver",
			"type": "error"
		},
		{
			"inputs": [
				{
					"internalType": "address",
					"name": "sender",
					"type": "address"
				}
			],
			"name": "ERC721InvalidSender",
			"type": "error"
		},
		{
			"inputs": [
				{
					"internalType": "uint256",
					"name": "tokenId",
					"type": "uint256"
				}
			],
			"name": "ERC721NonexistentToken",
			"type": "error"
		},
		{
			"anonymous": false,
			"inputs": [
				{
					"indexed": true,
					"internalType": "address",
					"name": "owner",
					"type": "address"
				},
				{
					"indexed": true,
					"internalType": "address",
					"name": "approved",
					"type": "address"
				},
				{
					"indexed": true,
					"internalType": "uint256",
					"name": "tokenId",
					"type": "uint256"
				}
			],
			"name": "Approval",
			"type": "event"
		},
		{
			"anonymous": false,
			"inputs": [
				{
					"indexed": true,
					"internalType": "address",
					"name": "owner",
					"type": "address"
				},
				{
					"indexed": true,
					"internalType": "address",
					"name": "operator",
					"type": "address"
				},
				{
					"indexed": false,
					"internalType": "bool",
					"name": "approved",
					"type": "bool"
				}
			],
			"name": "ApprovalForAll",
			"type": "event"
		},
		{
			"anonymous": false,
			"inputs": [
				{
					"indexed": true,
					"internalType": "address",
					"name": "sender",
					"type": "address"
				},
				{
					"indexed": false,
					"internalType": "uint256",
					"name": "amount",
					"type": "uint256"
				}
			],
			"name": "EtherReceived",
			"type": "event"
		},
		{
			"anonymous": false,
			"inputs": [
				{
					"indexed": true,
					"internalType": "address",
					"name": "from",
					"type": "address"
				},
				{
					"indexed": true,
					"internalType": "address",
					"name": "to",
					"type": "address"
				},
				{
					"indexed": true,
					"internalType": "uint256",
					"name": "tokenId",
					"type": "uint256"
				}
			],
			"name": "Transfer",
			"type": "event"
		},
		{
			"stateMutability": "payable",
			"type": "fallback"
		},
		{
			"inputs": [
				{
					"internalType": "address",
					"name": "to",
					"type": "address"
				},
				{
					"internalType": "uint256",
					"name": "tokenId",
					"type": "uint256"
				}
			],
			"name": "approve",
			"outputs": [],
			"stateMutability": "nonpayable",
			"type": "function"
		},
		{
			"inputs": [
				{
					"internalType": "uint256",
					"name": "carId",
					"type": "uint256"
				}
			],
			"name": "availableCarNFT",
			"outputs": [
				{
					"internalType": "bool",
					"name": "",
					"type": "bool"
				}
			],
			"stateMutability": "view",
			"type": "function"
		},
		{
			"inputs": [
				{
					"internalType": "address",
					"name": "owner",
					"type": "address"
				}
			],
			"name": "balanceOf",
			"outputs": [
				{
					"internalType": "uint256",
					"name": "",
					"type": "uint256"
				}
			],
			"stateMutability": "view",
			"type": "function"
		},
		{
			"inputs": [
				{
					"internalType": "uint256",
					"name": "originalValue",
					"type": "uint256"
				},
				{
					"internalType": "uint256",
					"name": "currentMileage",
					"type": "uint256"
				},
				{
					"internalType": "uint8",
					"name": "driverExperienceYears",
					"type": "uint8"
				},
				{
					"internalType": "uint256",
					"name": "mileageCap",
					"type": "uint256"
				},
				{
					"internalType": "uint256",
					"name": "contractDuration",
					"type": "uint256"
				}
			],
			"name": "calculateMonthlyQuota",
			"outputs": [
				{
					"internalType": "uint128",
					"name": "",
					"type": "uint128"
				}
			],
			"stateMutability": "pure",
			"type": "function"
		},
		{
			"inputs": [
				{
					"internalType": "uint256",
					"name": "carId",
					"type": "uint256"
				}
			],
			"name": "checkCurrentCarNFTOwner",
			"outputs": [
				{
					"internalType": "address",
					"name": "",
					"type": "address"
				}
			],
			"stateMutability": "view",
			"type": "function"
		},
		{
			"inputs": [
				{
					"internalType": "uint256",
					"name": "tokenId",
					"type": "uint256"
				}
			],
			"name": "getApproved",
			"outputs": [
				{
					"internalType": "address",
					"name": "",
					"type": "address"
				}
			],
			"stateMutability": "view",
			"type": "function"
		},
		{
			"inputs": [
				{
					"internalType": "uint256",
					"name": "carId",
					"type": "uint256"
				}
			],
			"name": "getCarByCarID",
			"outputs": [
				{
					"components": [
						{
							"internalType": "string",
							"name": "model",
							"type": "string"
						},
						{
							"internalType": "string",
							"name": "color",
							"type": "string"
						},
						{
							"internalType": "uint16",
							"name": "yearOfMatriculation",
							"type": "uint16"
						},
						{
							"internalType": "uint256",
							"name": "originalValue",
							"type": "uint256"
						},
						{
							"internalType": "uint256",
							"name": "mileage",
							"type": "uint256"
						}
					],
					"internalType": "struct Car",
					"name": "",
					"type": "tuple"
				}
			],
			"stateMutability": "view",
			"type": "function"
		},
		{
			"inputs": [],
			"name": "getCurrentSupply",
			"outputs": [
				{
					"internalType": "uint256",
					"name": "",
					"type": "uint256"
				}
			],
			"stateMutability": "view",
			"type": "function"
		},
		{
			"inputs": [],
			"name": "getOwner",
			"outputs": [
				{
					"internalType": "address",
					"name": "",
					"type": "address"
				}
			],
			"stateMutability": "view",
			"type": "function"
		},
		{
			"inputs": [
				{
					"internalType": "address",
					"name": "owner",
					"type": "address"
				},
				{
					"internalType": "address",
					"name": "operator",
					"type": "address"
				}
			],
			"name": "isApprovedForAll",
			"outputs": [
				{
					"internalType": "bool",
					"name": "",
					"type": "bool"
				}
			],
			"stateMutability": "view",
			"type": "function"
		},
		{
			"inputs": [
				{
					"internalType": "uint256",
					"name": "",
					"type": "uint256"
				}
			],
			"name": "leaseAgreements",
			"outputs": [
				{
					"internalType": "address",
					"name": "",
					"type": "address"
				}
			],
			"stateMutability": "view",
			"type": "function"
		},
		{
			"inputs": [
				{
					"internalType": "address",
					"name": "toCustomer",
					"type": "address"
				},
				{
					"internalType": "address",
					"name": "company",
					"type": "address"
				},
				{
					"internalType": "uint256",
					"name": "carId",
					"type": "uint256"
				}
			],
			"name": "leaseCarNFT",
			"outputs": [],
			"stateMutability": "nonpayable",
			"type": "function"
		},
		{
			"inputs": [
				{
					"internalType": "string",
					"name": "model",
					"type": "string"
				},
				{
					"internalType": "string",
					"name": "color",
					"type": "string"
				},
				{
					"internalType": "uint16",
					"name": "yearOfMatriculation",
					"type": "uint16"
				},
				{
					"internalType": "uint128",
					"name": "originalValue",
					"type": "uint128"
				},
				{
					"internalType": "uint32",
					"name": "mileage",
					"type": "uint32"
				}
			],
			"name": "mintCarNFT",
			"outputs": [],
			"stateMutability": "nonpayable",
			"type": "function"
		},
		{
			"inputs": [],
			"name": "name",
			"outputs": [
				{
					"internalType": "string",
					"name": "",
					"type": "string"
				}
			],
			"stateMutability": "view",
			"type": "function"
		},
		{
			"inputs": [
				{
					"internalType": "uint256",
					"name": "tokenId",
					"type": "uint256"
				}
			],
			"name": "ownerOf",
			"outputs": [
				{
					"internalType": "address",
					"name": "",
					"type": "address"
				}
			],
			"stateMutability": "view",
			"type": "function"
		},
		{
			"inputs": [
				{
					"internalType": "uint256",
					"name": "carId",
					"type": "uint256"
				}
			],
			"name": "reserve",
			"outputs": [],
			"stateMutability": "nonpayable",
			"type": "function"
		},
		{
			"inputs": [
				{
					"internalType": "uint256",
					"name": "carId",
					"type": "uint256"
				}
			],
			"name": "returnCarNFT",
			"outputs": [],
			"stateMutability": "nonpayable",
			"type": "function"
		},
		{
			"inputs": [
				{
					"internalType": "address",
					"name": "from",
					"type": "address"
				},
				{
					"internalType": "address",
					"name": "to",
					"type": "address"
				},
				{
					"internalType": "uint256",
					"name": "tokenId",
					"type": "uint256"
				}
			],
			"name": "safeTransferFrom",
			"outputs": [],
			"stateMutability": "nonpayable",
			"type": "function"
		},
		{
			"inputs": [
				{
					"internalType": "address",
					"name": "from",
					"type": "address"
				},
				{
					"internalType": "address",
					"name": "to",
					"type": "address"
				},
				{
					"internalType": "uint256",
					"name": "tokenId",
					"type": "uint256"
				},
				{
					"internalType": "bytes",
					"name": "data",
					"type": "bytes"
				}
			],
			"name": "safeTransferFrom",
			"outputs": [],
			"stateMutability": "nonpayable",
			"type": "function"
		},
		{
			"inputs": [
				{
					"internalType": "address",
					"name": "operator",
					"type": "address"
				},
				{
					"internalType": "bool",
					"name": "approved",
					"type": "bool"
				}
			],
			"name": "setApprovalForAll",
			"outputs": [],
			"stateMutability": "nonpayable",
			"type": "function"
		},
		{
			"inputs": [
				{
					"internalType": "uint256",
					"name": "carId",
					"type": "uint256"
				},
				{
					"internalType": "uint256",
					"name": "_mileage",
					"type": "uint256"
				}
			],
			"name": "setMileage",
			"outputs": [
				{
					"internalType": "uint256",
					"name": "",
					"type": "uint256"
				}
			],
			"stateMutability": "nonpayable",
			"type": "function"
		},
		{
			"inputs": [
				{
					"internalType": "bytes4",
					"name": "interfaceId",
					"type": "bytes4"
				}
			],
			"name": "supportsInterface",
			"outputs": [
				{
					"internalType": "bool",
					"name": "",
					"type": "bool"
				}
			],
			"stateMutability": "view",
			"type": "function"
		},
		{
			"inputs": [],
			"name": "symbol",
			"outputs": [
				{
					"internalType": "string",
					"name": "",
					"type": "string"
				}
			],
			"stateMutability": "view",
			"type": "function"
		},
		{
			"inputs": [
				{
					"internalType": "uint256",
					"name": "tokenId",
					"type": "uint256"
				}
			],
			"name": "tokenURI",
			"outputs": [
				{
					"internalType": "string",
					"name": "",
					"type": "string"
				}
			],
			"stateMutability": "view",
			"type": "function"
		},
		{
			"inputs": [
				{
					"internalType": "address",
					"name": "from",
					"type": "address"
				},
				{
					"internalType": "address",
					"name": "to",
					"type": "address"
				},
				{
					"internalType": "uint256",
					"name": "tokenId",
					"type": "uint256"
				}
			],
			"name": "transferFrom",
			"outputs": [],
			"stateMutability": "nonpayable",
			"type": "function"
		},
		{
			"stateMutability": "payable",
			"type": "receive"
		}
	]
}