{
	"data": {
		"bytecode": {
			"linkReferences": {},
			"object": "60a060405234801561000f575f80fd5b5060405161428c38038061428c833981810160405281019061003191906101e3565b8181815f90816100419190610466565b5080600190816100519190610466565b5050503373ffffffffffffffffffffffffffffffffffffffff1660808173ffffffffffffffffffffffffffffffffffffffff16815250505f6009819055505050610535565b5f604051905090565b5f80fd5b5f80fd5b5f80fd5b5f80fd5b5f601f19601f8301169050919050565b7f4e487b71000000000000000000000000000000000000000000000000000000005f52604160045260245ffd5b6100f5826100af565b810181811067ffffffffffffffff82111715610114576101136100bf565b5b80604052505050565b5f610126610096565b905061013282826100ec565b919050565b5f67ffffffffffffffff821115610151576101506100bf565b5b61015a826100af565b9050602081019050919050565b8281835e5f83830152505050565b5f61018761018284610137565b61011d565b9050828152602081018484840111156101a3576101a26100ab565b5b6101ae848285610167565b509392505050565b5f82601f8301126101ca576101c96100a7565b5b81516101da848260208601610175565b91505092915050565b5f80604083850312156101f9576101f861009f565b5b5f83015167ffffffffffffffff811115610216576102156100a3565b5b610222858286016101b6565b925050602083015167ffffffffffffffff811115610243576102426100a3565b5b61024f858286016101b6565b9150509250929050565b5f81519050919050565b7f4e487b71000000000000000000000000000000000000000000000000000000005f52602260045260245ffd5b5f60028204905060018216806102a757607f821691505b6020821081036102ba576102b9610263565b5b50919050565b5f819050815f5260205f209050919050565b5f6020601f8301049050919050565b5f82821b905092915050565b5f6008830261031c7fffffffffffffffffffffffffffffffffffffffffffffffffffffffffffffffff826102e1565b61032686836102e1565b95508019841693508086168417925050509392505050565b5f819050919050565b5f819050919050565b5f61036a6103656103608461033e565b610347565b61033e565b9050919050565b5f819050919050565b61038383610350565b61039761038f82610371565b8484546102ed565b825550505050565b5f90565b6103ab61039f565b6103b681848461037a565b505050565b5b818110156103d9576103ce5f826103a3565b6001810190506103bc565b5050565b601f82111561041e576103ef816102c0565b6103f8846102d2565b81016020851015610407578190505b61041b610413856102d2565b8301826103bb565b50505b505050565b5f82821c905092915050565b5f61043e5f1984600802610423565b1980831691505092915050565b5f610456838361042f565b9150826002028217905092915050565b61046f82610259565b67ffffffffffffffff811115610488576104876100bf565b5b6104928254610290565b61049d8282856103dd565b5f60209050601f8311600181146104ce575f84156104bc578287015190505b6104c6858261044b565b86555061052d565b601f1984166104dc866102c0565b5f5b82811015610503578489015182556001820191506020850194506020810190506104de565b86831015610520578489015161051c601f89168261042f565b8355505b6001600288020188555050505b505050505050565b608051613d236105695f395f81816108d301528181610c0701528181610f9b0152818161149501526118c10152613d235ff3fe608060405260043610610169575f3560e01c8063831b455d116100d0578063c776194f11610089578063e77e89f311610063578063e77e89f314610654578063e985e9c514610690578063ef555bc1146106cc578063f410dcc214610708576101be565b8063c776194f146105b4578063c87b56dd146105dc578063d57fa07d14610618576101be565b8063831b455d14610498578063893d20e8146104d457806393678237146104fe57806395d89b411461053a578063a22cb46514610564578063b88d4fde1461058c576101be565b80632d64dbfd116101225780632d64dbfd1461036a57806342842e0e146103a65780634f3e1efc146103ce5780636352211e146103f857806370a0823114610434578063819b25ba14610470576101be565b806301ffc9a71461025057806306fdde031461028c578063081812fc146102b6578063095ea7b3146102f257806316ee8b161461031a57806323b872dd14610342576101be565b366101be573373ffffffffffffffffffffffffffffffffffffffff167f1e57e3bb474320be3d2c77138f75b7c3941292d647f5f9634e33a8e94e0e069b346040516101b49190612811565b60405180910390a2005b5f3403610200576040517f08c379a00000000000000000000000000000000000000000000000000000000081526004016101f7906128aa565b60405180910390fd5b3373ffffffffffffffffffffffffffffffffffffffff167f1e57e3bb474320be3d2c77138f75b7c3941292d647f5f9634e33a8e94e0e069b346040516102469190612811565b60405180910390a2005b34801561025b575f80fd5b506102766004803603810190610271919061292e565b610730565b6040516102839190612973565b60405180910390f35b348015610297575f80fd5b506102a0610811565b6040516102ad91906129ec565b60405180910390f35b3480156102c1575f80fd5b506102dc60048036038101906102d79190612a36565b6108a0565b6040516102e99190612aa0565b60405180910390f35b3480156102fd575f80fd5b5061031860048036038101906103139190612ae3565b6108bb565b005b348015610325575f80fd5b50610340600480360381019061033b9190612d02565b6108d1565b005b34801561034d575f80fd5b5061036860048036038101906103639190612db1565b610c34565b005b348015610375575f80fd5b50610390600480360381019061038b9190612a36565b610d33565b60405161039d9190612973565b60405180910390f35b3480156103b1575f80fd5b506103cc60048036038101906103c79190612db1565b610da5565b005b3480156103d9575f80fd5b506103e2610dc4565b6040516103ef9190612811565b60405180910390f35b348015610403575f80fd5b5061041e60048036038101906104199190612a36565b610dcd565b60405161042b9190612aa0565b60405180910390f35b34801561043f575f80fd5b5061045a60048036038101906104559190612e01565b610dde565b6040516104679190612811565b60405180910390f35b34801561047b575f80fd5b5061049660048036038101906104919190612a36565b610e94565b005b3480156104a3575f80fd5b506104be60048036038101906104b99190612a36565b610f68565b6040516104cb9190612aa0565b60405180910390f35b3480156104df575f80fd5b506104e8610f98565b6040516104f59190612aa0565b60405180910390f35b348015610509575f80fd5b50610524600480360381019061051f9190612a36565b610fbf565b6040516105319190612aa0565b60405180910390f35b348015610545575f80fd5b5061054e61101c565b60405161055b91906129ec565b60405180910390f35b34801561056f575f80fd5b5061058a60048036038101906105859190612e56565b6110ac565b005b348015610597575f80fd5b506105b260048036038101906105ad9190612f32565b6110c2565b005b3480156105bf575f80fd5b506105da60048036038101906105d59190612db1565b6110e7565b005b3480156105e7575f80fd5b5061060260048036038101906105fd9190612a36565b6111bc565b60405161060f91906129ec565b60405180910390f35b348015610623575f80fd5b5061063e60048036038101906106399190612fe8565b611222565b60405161064b919061306e565b60405180910390f35b34801561065f575f80fd5b5061067a60048036038101906106759190613087565b611404565b6040516106879190612811565b60405180910390f35b34801561069b575f80fd5b506106b660048036038101906106b191906130c5565b6115be565b6040516106c39190612973565b60405180910390f35b3480156106d7575f80fd5b506106f260048036038101906106ed9190612a36565b61164c565b6040516106ff91906131e3565b60405180910390f35b348015610713575f80fd5b5061072e60048036038101906107299190612a36565b611815565b005b5f7f80ac58cd000000000000000000000000000000000000000000000000000000007bffffffffffffffffffffffffffffffffffffffffffffffffffffffff1916827bffffffffffffffffffffffffffffffffffffffffffffffffffffffff191614806107fa57507f5b5e139f000000000000000000000000000000000000000000000000000000007bffffffffffffffffffffffffffffffffffffffffffffffffffffffff1916827bffffffffffffffffffffffffffffffffffffffffffffffffffffffff1916145b8061080a575061080982611961565b5b9050919050565b60605f805461081f90613230565b80601f016020809104026020016040519081016040528092919081815260200182805461084b90613230565b80156108965780601f1061086d57610100808354040283529160200191610896565b820191905f5260205f20905b81548152906001019060200180831161087957829003601f168201915b5050505050905090565b5f6108aa826119ca565b506108b482611a50565b9050919050565b6108cd82826108c8611a89565b611a90565b5050565b7f000000000000000000000000000000000000000000000000000000000000000073ffffffffffffffffffffffffffffffffffffffff163373ffffffffffffffffffffffffffffffffffffffff161461095f576040517f08c379a0000000000000000000000000000000000000000000000000000000008152600401610956906132aa565b60405180910390fd5b5f8551116109a2576040517f08c379a000000000000000000000000000000000000000000000000000000000815260040161099990613312565b60405180910390fd5b5f8451116109e5576040517f08c379a00000000000000000000000000000000000000000000000000000000081526004016109dc9061337a565b60405180910390fd5b61075e8361ffff1610158015610a27575060016107b26301e1853e42610a0b91906133f2565b610a159190613422565b610a1f9190613422565b8361ffff1611155b610a66576040517f08c379a0000000000000000000000000000000000000000000000000000000008152600401610a5d906134c5565b60405180910390fd5b5f826fffffffffffffffffffffffffffffffff1611610aba576040517f08c379a0000000000000000000000000000000000000000000000000000000008152600401610ab190613553565b60405180910390fd5b5f8163ffffffff161015610b03576040517f08c379a0000000000000000000000000000000000000000000000000000000008152600401610afa906135e1565b60405180910390fd5b600160095f828254610b159190613422565b925050819055505f60095490506040518060a001604052808781526020018681526020018561ffff168152602001846fffffffffffffffffffffffffffffffff1681526020018363ffffffff1681525060065f8381526020019081526020015f205f820151815f019081610b89919061379c565b506020820151816001019081610b9f919061379c565b506040820151816002015f6101000a81548161ffff021916908361ffff1602179055506060820151816003015560808201518160040155905050600160075f8381526020019081526020015f205f6101000a81548160ff021916908315150217905550610c2c7f000000000000000000000000000000000000000000000000000000000000000082611aa2565b505050505050565b5f73ffffffffffffffffffffffffffffffffffffffff168273ffffffffffffffffffffffffffffffffffffffff1603610ca4575f6040517f64a0ae92000000000000000000000000000000000000000000000000000000008152600401610c9b9190612aa0565b60405180910390fd5b5f610cb78383610cb2611a89565b611b95565b90508373ffffffffffffffffffffffffffffffffffffffff168173ffffffffffffffffffffffffffffffffffffffff1614610d2d578382826040517f64283d7b000000000000000000000000000000000000000000000000000000008152600401610d249392919061386b565b60405180910390fd5b50505050565b5f81610d3d610dc4565b811115610d7f576040517f08c379a0000000000000000000000000000000000000000000000000000000008152600401610d76906138ea565b60405180910390fd5b60075f8481526020019081526020015f205f9054906101000a900460ff16915050919050565b610dbf83838360405180602001604052805f8152506110c2565b505050565b5f600954905090565b5f610dd7826119ca565b9050919050565b5f8073ffffffffffffffffffffffffffffffffffffffff168273ffffffffffffffffffffffffffffffffffffffff1603610e4f575f6040517f89c62b64000000000000000000000000000000000000000000000000000000008152600401610e469190612aa0565b60405180910390fd5b60035f8373ffffffffffffffffffffffffffffffffffffffff1673ffffffffffffffffffffffffffffffffffffffff1681526020019081526020015f20549050919050565b80610e9d610dc4565b811115610edf576040517f08c379a0000000000000000000000000000000000000000000000000000000008152600401610ed6906138ea565b60405180910390fd5b60075f8381526020019081526020015f205f9054906101000a900460ff16610f3c576040517f08c379a0000000000000000000000000000000000000000000000000000000008152600401610f3390613978565b60405180910390fd5b5f60075f8481526020019081526020015f205f6101000a81548160ff0219169083151502179055505050565b6008602052805f5260405f205f915054906101000a900473ffffffffffffffffffffffffffffffffffffffff1681565b5f7f0000000000000000000000000000000000000000000000000000000000000000905090565b5f81610fc9610dc4565b81111561100b576040517f08c379a0000000000000000000000000000000000000000000000000000000008152600401611002906138ea565b60405180910390fd5b61101483611da0565b915050919050565b60606001805461102b90613230565b80601f016020809104026020016040519081016040528092919081815260200182805461105790613230565b80156110a25780601f10611079576101008083540402835291602001916110a2565b820191905f5260205f20905b81548152906001019060200180831161108557829003601f168201915b5050505050905090565b6110be6110b7611a89565b8383611dd9565b5050565b6110cd848484610c34565b6110e16110d8611a89565b85858585611f42565b50505050565b8173ffffffffffffffffffffffffffffffffffffffff1661110782611da0565b73ffffffffffffffffffffffffffffffffffffffff161461115d576040517f08c379a0000000000000000000000000000000000000000000000000000000008152600401611154906139e0565b60405180910390fd5b611168828483610c34565b3360085f8381526020019081526020015f205f6101000a81548173ffffffffffffffffffffffffffffffffffffffff021916908373ffffffffffffffffffffffffffffffffffffffff160217905550505050565b60606111c7826119ca565b505f6111d16120ee565b90505f8151116111ef5760405180602001604052805f81525061121a565b806111f984612104565b60405160200161120a929190613a38565b6040516020818303038152906040525b915050919050565b5f805f60648861123291906133f2565b90506103e8871015611246575f915061128d565b61271087101561127057606460058261125f9190613a5b565b61126991906133f2565b915061128c565b606460148261127f9190613a5b565b61128991906133f2565b91505b5b5f60058760ff16116112b75760646003836112a89190613a5b565b6112b291906133f2565b6112b9565b5f5b90505f600a8611156112e55760646003846112d49190613a5b565b6112de91906133f2565b905061133d565b600586111561130e5760646002846112fd9190613a5b565b61130791906133f2565b905061133c565b60028611156113375760646001846113269190613a5b565b61133091906133f2565b905061133b565b5f90505b5b5b5f6123288811156113685760646005856113579190613a5b565b61136191906133f2565b90506113c2565b6117708811156113925760646003856113819190613a5b565b61138b91906133f2565b90506113c1565b610bb88811156113bc5760646002856113ab9190613a5b565b6113b591906133f2565b90506113c0565b5f90505b5b5b5f81838588886113d29190613a9c565b6113dc9190613422565b6113e69190613a9c565b6113f09190613422565b905080965050505050505095945050505050565b5f8261140e610dc4565b811115611450576040517f08c379a0000000000000000000000000000000000000000000000000000000008152600401611447906138ea565b60405180910390fd5b5f831015611493576040517f08c379a000000000000000000000000000000000000000000000000000000000815260040161148a906135e1565b60405180910390fd5b7f000000000000000000000000000000000000000000000000000000000000000073ffffffffffffffffffffffffffffffffffffffff163373ffffffffffffffffffffffffffffffffffffffff16148061154857503373ffffffffffffffffffffffffffffffffffffffff1660085f8681526020019081526020015f205f9054906101000a900473ffffffffffffffffffffffffffffffffffffffff1673ffffffffffffffffffffffffffffffffffffffff16145b611587576040517f08c379a000000000000000000000000000000000000000000000000000000000815260040161157e90613b3f565b60405180910390fd5b8260065f8681526020019081526020015f206004018190555060065f8581526020019081526020015f206004015491505092915050565b5f60055f8473ffffffffffffffffffffffffffffffffffffffff1673ffffffffffffffffffffffffffffffffffffffff1681526020019081526020015f205f8373ffffffffffffffffffffffffffffffffffffffff1673ffffffffffffffffffffffffffffffffffffffff1681526020019081526020015f205f9054906101000a900460ff16905092915050565b6116546127c9565b8161165d610dc4565b81111561169f576040517f08c379a0000000000000000000000000000000000000000000000000000000008152600401611696906138ea565b60405180910390fd5b60065f8481526020019081526020015f206040518060a00160405290815f820180546116ca90613230565b80601f01602080910402602001604051908101604052809291908181526020018280546116f690613230565b80156117415780601f1061171857610100808354040283529160200191611741565b820191905f5260205f20905b81548152906001019060200180831161172457829003601f168201915b5050505050815260200160018201805461175a90613230565b80601f016020809104026020016040519081016040528092919081815260200182805461178690613230565b80156117d15780601f106117a8576101008083540402835291602001916117d1565b820191905f5260205f20905b8154815290600101906020018083116117b457829003601f168201915b50505050508152602001600282015f9054906101000a900461ffff1661ffff1661ffff16815260200160038201548152602001600482015481525050915050919050565b3373ffffffffffffffffffffffffffffffffffffffff1660085f8381526020019081526020015f205f9054906101000a900473ffffffffffffffffffffffffffffffffffffffff1673ffffffffffffffffffffffffffffffffffffffff16146118b3576040517f08c379a00000000000000000000000000000000000000000000000000000000081526004016118aa90613bcd565b60405180910390fd5b6118e66118bf82611da0565b7f0000000000000000000000000000000000000000000000000000000000000000836121ce565b5f60085f8381526020019081526020015f205f6101000a81548173ffffffffffffffffffffffffffffffffffffffff021916908373ffffffffffffffffffffffffffffffffffffffff160217905550600160075f8381526020019081526020015f205f6101000a81548160ff02191690831515021790555050565b5f7f01ffc9a7000000000000000000000000000000000000000000000000000000007bffffffffffffffffffffffffffffffffffffffffffffffffffffffff1916827bffffffffffffffffffffffffffffffffffffffffffffffffffffffff1916149050919050565b5f806119d583611da0565b90505f73ffffffffffffffffffffffffffffffffffffffff168173ffffffffffffffffffffffffffffffffffffffff1603611a4757826040517f7e273289000000000000000000000000000000000000000000000000000000008152600401611a3e9190612811565b60405180910390fd5b80915050919050565b5f60045f8381526020019081526020015f205f9054906101000a900473ffffffffffffffffffffffffffffffffffffffff169050919050565b5f33905090565b611a9d8383836001612336565b505050565b5f73ffffffffffffffffffffffffffffffffffffffff168273ffffffffffffffffffffffffffffffffffffffff1603611b12575f6040517f64a0ae92000000000000000000000000000000000000000000000000000000008152600401611b099190612aa0565b60405180910390fd5b5f611b1e83835f611b95565b90505f73ffffffffffffffffffffffffffffffffffffffff168173ffffffffffffffffffffffffffffffffffffffff1614611b90575f6040517f73c6ac6e000000000000000000000000000000000000000000000000000000008152600401611b879190612aa0565b60405180910390fd5b505050565b5f80611ba084611da0565b90505f73ffffffffffffffffffffffffffffffffffffffff168373ffffffffffffffffffffffffffffffffffffffff1614611be157611be08184866124f5565b5b5f73ffffffffffffffffffffffffffffffffffffffff168173ffffffffffffffffffffffffffffffffffffffff1614611c6c57611c205f855f80612336565b600160035f8373ffffffffffffffffffffffffffffffffffffffff1673ffffffffffffffffffffffffffffffffffffffff1681526020019081526020015f205f82825403925050819055505b5f73ffffffffffffffffffffffffffffffffffffffff168573ffffffffffffffffffffffffffffffffffffffff1614611ceb57600160035f8773ffffffffffffffffffffffffffffffffffffffff1673ffffffffffffffffffffffffffffffffffffffff1681526020019081526020015f205f82825401925050819055505b8460025f8681526020019081526020015f205f6101000a81548173ffffffffffffffffffffffffffffffffffffffff021916908373ffffffffffffffffffffffffffffffffffffffff160217905550838573ffffffffffffffffffffffffffffffffffffffff168273ffffffffffffffffffffffffffffffffffffffff167fddf252ad1be2c89b69c2b068fc378daa952ba7f163c4a11628f55a4df523b3ef60405160405180910390a4809150509392505050565b5f60025f8381526020019081526020015f205f9054906101000a900473ffffffffffffffffffffffffffffffffffffffff169050919050565b5f73ffffffffffffffffffffffffffffffffffffffff168273ffffffffffffffffffffffffffffffffffffffff1603611e4957816040517f5b08ba18000000000000000000000000000000000000000000000000000000008152600401611e409190612aa0565b60405180910390fd5b8060055f8573ffffffffffffffffffffffffffffffffffffffff1673ffffffffffffffffffffffffffffffffffffffff1681526020019081526020015f205f8473ffffffffffffffffffffffffffffffffffffffff1673ffffffffffffffffffffffffffffffffffffffff1681526020019081526020015f205f6101000a81548160ff0219169083151502179055508173ffffffffffffffffffffffffffffffffffffffff168373ffffffffffffffffffffffffffffffffffffffff167f17307eab39ab6107e8899845ad3d59bd9653f200f220920489ca2b5937696c3183604051611f359190612973565b60405180910390a3505050565b5f8373ffffffffffffffffffffffffffffffffffffffff163b11156120e7578273ffffffffffffffffffffffffffffffffffffffff1663150b7a02868685856040518563ffffffff1660e01b8152600401611fa09493929190613c3d565b6020604051808303815f875af1925050508015611fdb57506040513d601f19601f82011682018060405250810190611fd89190613c9b565b60015b61205c573d805f8114612009576040519150601f19603f3d011682016040523d82523d5f602084013e61200e565b606091505b505f81510361205457836040517f64a0ae9200000000000000000000000000000000000000000000000000000000815260040161204b9190612aa0565b60405180910390fd5b805181602001fd5b63150b7a0260e01b7bffffffffffffffffffffffffffffffffffffffffffffffffffffffff1916817bffffffffffffffffffffffffffffffffffffffffffffffffffffffff1916146120e557836040517f64a0ae920000000000000000000000000000000000000000000000000000000081526004016120dc9190612aa0565b60405180910390fd5b505b5050505050565b606060405180602001604052805f815250905090565b60605f6001612112846125b8565b0190505f8167ffffffffffffffff8111156121305761212f612b29565b5b6040519080825280601f01601f1916602001820160405280156121625781602001600182028036833780820191505090505b5090505f82602001820190505b6001156121c3578080600190039150507f3031323334353637383961626364656600000000000000000000000000000000600a86061a8153600a85816121b8576121b7613398565b5b0494505f850361216f575b819350505050919050565b5f73ffffffffffffffffffffffffffffffffffffffff168273ffffffffffffffffffffffffffffffffffffffff160361223e575f6040517f64a0ae920000000000000000000000000000000000000000000000000000000081526004016122359190612aa0565b60405180910390fd5b5f61224a83835f611b95565b90505f73ffffffffffffffffffffffffffffffffffffffff168173ffffffffffffffffffffffffffffffffffffffff16036122bc57816040517f7e2732890000000000000000000000000000000000000000000000000000000081526004016122b39190612811565b60405180910390fd5b8373ffffffffffffffffffffffffffffffffffffffff168173ffffffffffffffffffffffffffffffffffffffff1614612330578382826040517f64283d7b0000000000000000000000000000000000000000000000000000000081526004016123279392919061386b565b60405180910390fd5b50505050565b808061236e57505f73ffffffffffffffffffffffffffffffffffffffff168273ffffffffffffffffffffffffffffffffffffffff1614155b156124a0575f61237d846119ca565b90505f73ffffffffffffffffffffffffffffffffffffffff168373ffffffffffffffffffffffffffffffffffffffff16141580156123e757508273ffffffffffffffffffffffffffffffffffffffff168173ffffffffffffffffffffffffffffffffffffffff1614155b80156123fa57506123f881846115be565b155b1561243c57826040517fa9fbf51f0000000000000000000000000000000000000000000000000000000081526004016124339190612aa0565b60405180910390fd5b811561249e57838573ffffffffffffffffffffffffffffffffffffffff168273ffffffffffffffffffffffffffffffffffffffff167f8c5be1e5ebec7d5bd14f71427d1e84f3dd0314c0f7b2291e5b200ac8c7c3b92560405160405180910390a45b505b8360045f8581526020019081526020015f205f6101000a81548173ffffffffffffffffffffffffffffffffffffffff021916908373ffffffffffffffffffffffffffffffffffffffff16021790555050505050565b612500838383612709565b6125b3575f73ffffffffffffffffffffffffffffffffffffffff168373ffffffffffffffffffffffffffffffffffffffff160361257457806040517f7e27328900000000000000000000000000000000000000000000000000000000815260040161256b9190612811565b60405180910390fd5b81816040517f177e802f0000000000000000000000000000000000000000000000000000000081526004016125aa929190613cc6565b60405180910390fd5b505050565b5f805f90507a184f03e93ff9f4daa797ed6e38ed64bf6a1f0100000000000000008310612614577a184f03e93ff9f4daa797ed6e38ed64bf6a1f010000000000000000838161260a57612609613398565b5b0492506040810190505b6d04ee2d6d415b85acef81000000008310612651576d04ee2d6d415b85acef8100000000838161264757612646613398565b5b0492506020810190505b662386f26fc10000831061268057662386f26fc10000838161267657612675613398565b5b0492506010810190505b6305f5e10083106126a9576305f5e100838161269f5761269e613398565b5b0492506008810190505b61271083106126ce5761271083816126c4576126c3613398565b5b0492506004810190505b606483106126f157606483816126e7576126e6613398565b5b0492506002810190505b600a8310612700576001810190505b80915050919050565b5f8073ffffffffffffffffffffffffffffffffffffffff168373ffffffffffffffffffffffffffffffffffffffff16141580156127c057508273ffffffffffffffffffffffffffffffffffffffff168473ffffffffffffffffffffffffffffffffffffffff161480612781575061278084846115be565b5b806127bf57508273ffffffffffffffffffffffffffffffffffffffff166127a783611a50565b73ffffffffffffffffffffffffffffffffffffffff16145b5b90509392505050565b6040518060a0016040528060608152602001606081526020015f61ffff1681526020015f81526020015f81525090565b5f819050919050565b61280b816127f9565b82525050565b5f6020820190506128245f830184612802565b92915050565b5f82825260208201905092915050565b7f4361724e46543a20556e7265636f676e697a65642066756e6374696f6e2063615f8201527f6c6c20776974686f757420457468657200000000000000000000000000000000602082015250565b5f61289460308361282a565b915061289f8261283a565b604082019050919050565b5f6020820190508181035f8301526128c181612888565b9050919050565b5f604051905090565b5f80fd5b5f80fd5b5f7fffffffff0000000000000000000000000000000000000000000000000000000082169050919050565b61290d816128d9565b8114612917575f80fd5b50565b5f8135905061292881612904565b92915050565b5f60208284031215612943576129426128d1565b5b5f6129508482850161291a565b91505092915050565b5f8115159050919050565b61296d81612959565b82525050565b5f6020820190506129865f830184612964565b92915050565b5f81519050919050565b8281835e5f83830152505050565b5f601f19601f8301169050919050565b5f6129be8261298c565b6129c8818561282a565b93506129d8818560208601612996565b6129e1816129a4565b840191505092915050565b5f6020820190508181035f830152612a0481846129b4565b905092915050565b612a15816127f9565b8114612a1f575f80fd5b50565b5f81359050612a3081612a0c565b92915050565b5f60208284031215612a4b57612a4a6128d1565b5b5f612a5884828501612a22565b91505092915050565b5f73ffffffffffffffffffffffffffffffffffffffff82169050919050565b5f612a8a82612a61565b9050919050565b612a9a81612a80565b82525050565b5f602082019050612ab35f830184612a91565b92915050565b612ac281612a80565b8114612acc575f80fd5b50565b5f81359050612add81612ab9565b92915050565b5f8060408385031215612af957612af86128d1565b5b5f612b0685828601612acf565b9250506020612b1785828601612a22565b9150509250929050565b5f80fd5b5f80fd5b7f4e487b71000000000000000000000000000000000000000000000000000000005f52604160045260245ffd5b612b5f826129a4565b810181811067ffffffffffffffff82111715612b7e57612b7d612b29565b5b80604052505050565b5f612b906128c8565b9050612b9c8282612b56565b919050565b5f67ffffffffffffffff821115612bbb57612bba612b29565b5b612bc4826129a4565b9050602081019050919050565b828183375f83830152505050565b5f612bf1612bec84612ba1565b612b87565b905082815260208101848484011115612c0d57612c0c612b25565b5b612c18848285612bd1565b509392505050565b5f82601f830112612c3457612c33612b21565b5b8135612c44848260208601612bdf565b91505092915050565b5f61ffff82169050919050565b612c6381612c4d565b8114612c6d575f80fd5b50565b5f81359050612c7e81612c5a565b92915050565b5f6fffffffffffffffffffffffffffffffff82169050919050565b612ca881612c84565b8114612cb2575f80fd5b50565b5f81359050612cc381612c9f565b92915050565b5f63ffffffff82169050919050565b612ce181612cc9565b8114612ceb575f80fd5b50565b5f81359050612cfc81612cd8565b92915050565b5f805f805f60a08688031215612d1b57612d1a6128d1565b5b5f86013567ffffffffffffffff811115612d3857612d376128d5565b5b612d4488828901612c20565b955050602086013567ffffffffffffffff811115612d6557612d646128d5565b5b612d7188828901612c20565b9450506040612d8288828901612c70565b9350506060612d9388828901612cb5565b9250506080612da488828901612cee565b9150509295509295909350565b5f805f60608486031215612dc857612dc76128d1565b5b5f612dd586828701612acf565b9350506020612de686828701612acf565b9250506040612df786828701612a22565b9150509250925092565b5f60208284031215612e1657612e156128d1565b5b5f612e2384828501612acf565b91505092915050565b612e3581612959565b8114612e3f575f80fd5b50565b5f81359050612e5081612e2c565b92915050565b5f8060408385031215612e6c57612e6b6128d1565b5b5f612e7985828601612acf565b9250506020612e8a85828601612e42565b9150509250929050565b5f67ffffffffffffffff821115612eae57612ead612b29565b5b612eb7826129a4565b9050602081019050919050565b5f612ed6612ed184612e94565b612b87565b905082815260208101848484011115612ef257612ef1612b25565b5b612efd848285612bd1565b509392505050565b5f82601f830112612f1957612f18612b21565b5b8135612f29848260208601612ec4565b91505092915050565b5f805f8060808587031215612f4a57612f496128d1565b5b5f612f5787828801612acf565b9450506020612f6887828801612acf565b9350506040612f7987828801612a22565b925050606085013567ffffffffffffffff811115612f9a57612f996128d5565b5b612fa687828801612f05565b91505092959194509250565b5f60ff82169050919050565b612fc781612fb2565b8114612fd1575f80fd5b50565b5f81359050612fe281612fbe565b92915050565b5f805f805f60a08688031215613001576130006128d1565b5b5f61300e88828901612a22565b955050602061301f88828901612a22565b945050604061303088828901612fd4565b935050606061304188828901612a22565b925050608061305288828901612a22565b9150509295509295909350565b61306881612c84565b82525050565b5f6020820190506130815f83018461305f565b92915050565b5f806040838503121561309d5761309c6128d1565b5b5f6130aa85828601612a22565b92505060206130bb85828601612a22565b9150509250929050565b5f80604083850312156130db576130da6128d1565b5b5f6130e885828601612acf565b92505060206130f985828601612acf565b9150509250929050565b5f82825260208201905092915050565b5f61311d8261298c565b6131278185613103565b9350613137818560208601612996565b613140816129a4565b840191505092915050565b61315481612c4d565b82525050565b613163816127f9565b82525050565b5f60a083015f8301518482035f8601526131838282613113565b9150506020830151848203602086015261319d8282613113565b91505060408301516131b2604086018261314b565b5060608301516131c5606086018261315a565b5060808301516131d8608086018261315a565b508091505092915050565b5f6020820190508181035f8301526131fb8184613169565b905092915050565b7f4e487b71000000000000000000000000000000000000000000000000000000005f52602260045260245ffd5b5f600282049050600182168061324757607f821691505b60208210810361325a57613259613203565b5b50919050565b7f4361724e46543a20596f75206e65656420746f206265206f776e6572000000005f82015250565b5f613294601c8361282a565b915061329f82613260565b602082019050919050565b5f6020820190508181035f8301526132c181613288565b9050919050565b7f4361724e46543a204d6f64656c2063616e6e6f7420626520656d7074790000005f82015250565b5f6132fc601d8361282a565b9150613307826132c8565b602082019050919050565b5f6020820190508181035f830152613329816132f0565b9050919050565b7f4361724e46543a20436f6c6f722063616e6e6f7420626520656d7074790000005f82015250565b5f613364601d8361282a565b915061336f82613330565b602082019050919050565b5f6020820190508181035f83015261339181613358565b9050919050565b7f4e487b71000000000000000000000000000000000000000000000000000000005f52601260045260245ffd5b7f4e487b71000000000000000000000000000000000000000000000000000000005f52601160045260245ffd5b5f6133fc826127f9565b9150613407836127f9565b92508261341757613416613398565b5b828204905092915050565b5f61342c826127f9565b9150613437836127f9565b925082820190508082111561344f5761344e6133c5565b5b92915050565b7f4361724e46543a20496e76616c69642079656172206f66206d6174726963756c5f8201527f6174696f6e000000000000000000000000000000000000000000000000000000602082015250565b5f6134af60258361282a565b91506134ba82613455565b604082019050919050565b5f6020820190508181035f8301526134dc816134a3565b9050919050565b7f4361724e46543a204f726967696e616c2076616c7565206d75737420626520675f8201527f726561746572207468616e207a65726f00000000000000000000000000000000602082015250565b5f61353d60308361282a565b9150613548826134e3565b604082019050919050565b5f6020820190508181035f83015261356a81613531565b9050919050565b7f4361724e46543a204d696c656167652063616e6e6f74206265206e65676174695f8201527f7665000000000000000000000000000000000000000000000000000000000000602082015250565b5f6135cb60228361282a565b91506135d682613571565b604082019050919050565b5f6020820190508181035f8301526135f8816135bf565b9050919050565b5f819050815f5260205f209050919050565b5f6020601f8301049050919050565b5f82821b905092915050565b5f6008830261365b7fffffffffffffffffffffffffffffffffffffffffffffffffffffffffffffffff82613620565b6136658683613620565b95508019841693508086168417925050509392505050565b5f819050919050565b5f6136a061369b613696846127f9565b61367d565b6127f9565b9050919050565b5f819050919050565b6136b983613686565b6136cd6136c5826136a7565b84845461362c565b825550505050565b5f90565b6136e16136d5565b6136ec8184846136b0565b505050565b5b8181101561370f576137045f826136d9565b6001810190506136f2565b5050565b601f82111561375457613725816135ff565b61372e84613611565b8101602085101561373d578190505b61375161374985613611565b8301826136f1565b50505b505050565b5f82821c905092915050565b5f6137745f1984600802613759565b1980831691505092915050565b5f61378c8383613765565b9150826002028217905092915050565b6137a58261298c565b67ffffffffffffffff8111156137be576137bd612b29565b5b6137c88254613230565b6137d3828285613713565b5f60209050601f831160018114613804575f84156137f2578287015190505b6137fc8582613781565b865550613863565b601f198416613812866135ff565b5f5b8281101561383957848901518255600182019150602085019450602081019050613814565b868310156138565784890151613852601f891682613765565b8355505b6001600288020188555050505b505050505050565b5f60608201905061387e5f830186612a91565b61388b6020830185612802565b6138986040830184612a91565b949350505050565b7f4361724e46543a2043617220646f6573206e6f742065786973740000000000005f82015250565b5f6138d4601a8361282a565b91506138df826138a0565b602082019050919050565b5f6020820190508181035f830152613901816138c8565b9050919050565b7f4361724e46543a2054686973206361722069736e277420617661696c61626c655f8201527f20666f72206c6561736500000000000000000000000000000000000000000000602082015250565b5f613962602a8361282a565b915061396d82613908565b604082019050919050565b5f6020820190508181035f83015261398f81613956565b9050919050565b7f4361724e46543a2043617220616c7265616479206c65617365640000000000005f82015250565b5f6139ca601a8361282a565b91506139d582613996565b602082019050919050565b5f6020820190508181035f8301526139f7816139be565b9050919050565b5f81905092915050565b5f613a128261298c565b613a1c81856139fe565b9350613a2c818560208601612996565b80840191505092915050565b5f613a438285613a08565b9150613a4f8284613a08565b91508190509392505050565b5f613a65826127f9565b9150613a70836127f9565b9250828202613a7e816127f9565b91508282048414831517613a9557613a946133c5565b5b5092915050565b5f613aa6826127f9565b9150613ab1836127f9565b9250828203905081811115613ac957613ac86133c5565b5b92915050565b7f4361724e46543a204f6e6c7920746865206173736f636961746564204c6561735f8201527f6541677265656d656e742063616e20757064617465206d696c65616765730000602082015250565b5f613b29603e8361282a565b9150613b3482613acf565b604082019050919050565b5f6020820190508181035f830152613b5681613b1d565b9050919050565b7f4361724e46543a204f6e6c7920746865206173736f636961746564204c6561735f8201527f6541677265656d656e742063616e2072657475726e2074686520636172000000602082015250565b5f613bb7603d8361282a565b9150613bc282613b5d565b604082019050919050565b5f6020820190508181035f830152613be481613bab565b9050919050565b5f81519050919050565b5f82825260208201905092915050565b5f613c0f82613beb565b613c198185613bf5565b9350613c29818560208601612996565b613c32816129a4565b840191505092915050565b5f608082019050613c505f830187612a91565b613c5d6020830186612a91565b613c6a6040830185612802565b8181036060830152613c7c8184613c05565b905095945050505050565b5f81519050613c9581612904565b92915050565b5f60208284031215613cb057613caf6128d1565b5b5f613cbd84828501613c87565b91505092915050565b5f604082019050613cd95f830185612a91565b613ce66020830184612802565b939250505056fea2646970667358221220def681778097a1448a04eccc2e6ceb2ef8e877ac1557b49ab0447d5ba3782f2564736f6c634300081a0033",
			"opcodes": "PUSH1 0xA0 PUSH1 0x40 MSTORE CALLVALUE DUP1 ISZERO PUSH2 0xF JUMPI PUSH0 DUP1 REVERT JUMPDEST POP PUSH1 0x40 MLOAD PUSH2 0x428C CODESIZE SUB DUP1 PUSH2 0x428C DUP4 CODECOPY DUP2 DUP2 ADD PUSH1 0x40 MSTORE DUP2 ADD SWAP1 PUSH2 0x31 SWAP2 SWAP1 PUSH2 0x1E3 JUMP JUMPDEST DUP2 DUP2 DUP2 PUSH0 SWAP1 DUP2 PUSH2 0x41 SWAP2 SWAP1 PUSH2 0x466 JUMP JUMPDEST POP DUP1 PUSH1 0x1 SWAP1 DUP2 PUSH2 0x51 SWAP2 SWAP1 PUSH2 0x466 JUMP JUMPDEST POP POP POP CALLER PUSH20 0xFFFFFFFFFFFFFFFFFFFFFFFFFFFFFFFFFFFFFFFF AND PUSH1 0x80 DUP2 PUSH20 0xFFFFFFFFFFFFFFFFFFFFFFFFFFFFFFFFFFFFFFFF AND DUP2 MSTORE POP POP PUSH0 PUSH1 0x9 DUP2 SWAP1 SSTORE POP POP POP PUSH2 0x535 JUMP JUMPDEST PUSH0 PUSH1 0x40 MLOAD SWAP1 POP SWAP1 JUMP JUMPDEST PUSH0 DUP1 REVERT JUMPDEST PUSH0 DUP1 REVERT JUMPDEST PUSH0 DUP1 REVERT JUMPDEST PUSH0 DUP1 REVERT JUMPDEST PUSH0 PUSH1 0x1F NOT PUSH1 0x1F DUP4 ADD AND SWAP1 POP SWAP2 SWAP1 POP JUMP JUMPDEST PUSH32 0x4E487B7100000000000000000000000000000000000000000000000000000000 PUSH0 MSTORE PUSH1 0x41 PUSH1 0x4 MSTORE PUSH1 0x24 PUSH0 REVERT JUMPDEST PUSH2 0xF5 DUP3 PUSH2 0xAF JUMP JUMPDEST DUP2 ADD DUP2 DUP2 LT PUSH8 0xFFFFFFFFFFFFFFFF DUP3 GT OR ISZERO PUSH2 0x114 JUMPI PUSH2 0x113 PUSH2 0xBF JUMP JUMPDEST JUMPDEST DUP1 PUSH1 0x40 MSTORE POP POP POP JUMP JUMPDEST PUSH0 PUSH2 0x126 PUSH2 0x96 JUMP JUMPDEST SWAP1 POP PUSH2 0x132 DUP3 DUP3 PUSH2 0xEC JUMP JUMPDEST SWAP2 SWAP1 POP JUMP JUMPDEST PUSH0 PUSH8 0xFFFFFFFFFFFFFFFF DUP3 GT ISZERO PUSH2 0x151 JUMPI PUSH2 0x150 PUSH2 0xBF JUMP JUMPDEST JUMPDEST PUSH2 0x15A DUP3 PUSH2 0xAF JUMP JUMPDEST SWAP1 POP PUSH1 0x20 DUP2 ADD SWAP1 POP SWAP2 SWAP1 POP JUMP JUMPDEST DUP3 DUP2 DUP4 MCOPY PUSH0 DUP4 DUP4 ADD MSTORE POP POP POP JUMP JUMPDEST PUSH0 PUSH2 0x187 PUSH2 0x182 DUP5 PUSH2 0x137 JUMP JUMPDEST PUSH2 0x11D JUMP JUMPDEST SWAP1 POP DUP3 DUP2 MSTORE PUSH1 0x20 DUP2 ADD DUP5 DUP5 DUP5 ADD GT ISZERO PUSH2 0x1A3 JUMPI PUSH2 0x1A2 PUSH2 0xAB JUMP JUMPDEST JUMPDEST PUSH2 0x1AE DUP5 DUP3 DUP6 PUSH2 0x167 JUMP JUMPDEST POP SWAP4 SWAP3 POP POP POP JUMP JUMPDEST PUSH0 DUP3 PUSH1 0x1F DUP4 ADD SLT PUSH2 0x1CA JUMPI PUSH2 0x1C9 PUSH2 0xA7 JUMP JUMPDEST JUMPDEST DUP2 MLOAD PUSH2 0x1DA DUP5 DUP3 PUSH1 0x20 DUP7 ADD PUSH2 0x175 JUMP JUMPDEST SWAP2 POP POP SWAP3 SWAP2 POP POP JUMP JUMPDEST PUSH0 DUP1 PUSH1 0x40 DUP4 DUP6 SUB SLT ISZERO PUSH2 0x1F9 JUMPI PUSH2 0x1F8 PUSH2 0x9F JUMP JUMPDEST JUMPDEST PUSH0 DUP4 ADD MLOAD PUSH8 0xFFFFFFFFFFFFFFFF DUP2 GT ISZERO PUSH2 0x216 JUMPI PUSH2 0x215 PUSH2 0xA3 JUMP JUMPDEST JUMPDEST PUSH2 0x222 DUP6 DUP3 DUP7 ADD PUSH2 0x1B6 JUMP JUMPDEST SWAP3 POP POP PUSH1 0x20 DUP4 ADD MLOAD PUSH8 0xFFFFFFFFFFFFFFFF DUP2 GT ISZERO PUSH2 0x243 JUMPI PUSH2 0x242 PUSH2 0xA3 JUMP JUMPDEST JUMPDEST PUSH2 0x24F DUP6 DUP3 DUP7 ADD PUSH2 0x1B6 JUMP JUMPDEST SWAP2 POP POP SWAP3 POP SWAP3 SWAP1 POP JUMP JUMPDEST PUSH0 DUP2 MLOAD SWAP1 POP SWAP2 SWAP1 POP JUMP JUMPDEST PUSH32 0x4E487B7100000000000000000000000000000000000000000000000000000000 PUSH0 MSTORE PUSH1 0x22 PUSH1 0x4 MSTORE PUSH1 0x24 PUSH0 REVERT JUMPDEST PUSH0 PUSH1 0x2 DUP3 DIV SWAP1 POP PUSH1 0x1 DUP3 AND DUP1 PUSH2 0x2A7 JUMPI PUSH1 0x7F DUP3 AND SWAP2 POP JUMPDEST PUSH1 0x20 DUP3 LT DUP2 SUB PUSH2 0x2BA JUMPI PUSH2 0x2B9 PUSH2 0x263 JUMP JUMPDEST JUMPDEST POP SWAP2 SWAP1 POP JUMP JUMPDEST PUSH0 DUP2 SWAP1 POP DUP2 PUSH0 MSTORE PUSH1 0x20 PUSH0 KECCAK256 SWAP1 POP SWAP2 SWAP1 POP JUMP JUMPDEST PUSH0 PUSH1 0x20 PUSH1 0x1F DUP4 ADD DIV SWAP1 POP SWAP2 SWAP1 POP JUMP JUMPDEST PUSH0 DUP3 DUP3 SHL SWAP1 POP SWAP3 SWAP2 POP POP JUMP JUMPDEST PUSH0 PUSH1 0x8 DUP4 MUL PUSH2 0x31C PUSH32 0xFFFFFFFFFFFFFFFFFFFFFFFFFFFFFFFFFFFFFFFFFFFFFFFFFFFFFFFFFFFFFFFF DUP3 PUSH2 0x2E1 JUMP JUMPDEST PUSH2 0x326 DUP7 DUP4 PUSH2 0x2E1 JUMP JUMPDEST SWAP6 POP DUP1 NOT DUP5 AND SWAP4 POP DUP1 DUP7 AND DUP5 OR SWAP3 POP POP POP SWAP4 SWAP3 POP POP POP JUMP JUMPDEST PUSH0 DUP2 SWAP1 POP SWAP2 SWAP1 POP JUMP JUMPDEST PUSH0 DUP2 SWAP1 POP SWAP2 SWAP1 POP JUMP JUMPDEST PUSH0 PUSH2 0x36A PUSH2 0x365 PUSH2 0x360 DUP5 PUSH2 0x33E JUMP JUMPDEST PUSH2 0x347 JUMP JUMPDEST PUSH2 0x33E JUMP JUMPDEST SWAP1 POP SWAP2 SWAP1 POP JUMP JUMPDEST PUSH0 DUP2 SWAP1 POP SWAP2 SWAP1 POP JUMP JUMPDEST PUSH2 0x383 DUP4 PUSH2 0x350 JUMP JUMPDEST PUSH2 0x397 PUSH2 0x38F DUP3 PUSH2 0x371 JUMP JUMPDEST DUP5 DUP5 SLOAD PUSH2 0x2ED JUMP JUMPDEST DUP3 SSTORE POP POP POP POP JUMP JUMPDEST PUSH0 SWAP1 JUMP JUMPDEST PUSH2 0x3AB PUSH2 0x39F JUMP JUMPDEST PUSH2 0x3B6 DUP2 DUP5 DUP5 PUSH2 0x37A JUMP JUMPDEST POP POP POP JUMP JUMPDEST JUMPDEST DUP2 DUP2 LT ISZERO PUSH2 0x3D9 JUMPI PUSH2 0x3CE PUSH0 DUP3 PUSH2 0x3A3 JUMP JUMPDEST PUSH1 0x1 DUP2 ADD SWAP1 POP PUSH2 0x3BC JUMP JUMPDEST POP POP JUMP JUMPDEST PUSH1 0x1F DUP3 GT ISZERO PUSH2 0x41E JUMPI PUSH2 0x3EF DUP2 PUSH2 0x2C0 JUMP JUMPDEST PUSH2 0x3F8 DUP5 PUSH2 0x2D2 JUMP JUMPDEST DUP2 ADD PUSH1 0x20 DUP6 LT ISZERO PUSH2 0x407 JUMPI DUP2 SWAP1 POP JUMPDEST PUSH2 0x41B PUSH2 0x413 DUP6 PUSH2 0x2D2 JUMP JUMPDEST DUP4 ADD DUP3 PUSH2 0x3BB JUMP JUMPDEST POP POP JUMPDEST POP POP POP JUMP JUMPDEST PUSH0 DUP3 DUP3 SHR SWAP1 POP SWAP3 SWAP2 POP POP JUMP JUMPDEST PUSH0 PUSH2 0x43E PUSH0 NOT DUP5 PUSH1 0x8 MUL PUSH2 0x423 JUMP JUMPDEST NOT DUP1 DUP4 AND SWAP2 POP POP SWAP3 SWAP2 POP POP JUMP JUMPDEST PUSH0 PUSH2 0x456 DUP4 DUP4 PUSH2 0x42F JUMP JUMPDEST SWAP2 POP DUP3 PUSH1 0x2 MUL DUP3 OR SWAP1 POP SWAP3 SWAP2 POP POP JUMP JUMPDEST PUSH2 0x46F DUP3 PUSH2 0x259 JUMP JUMPDEST PUSH8 0xFFFFFFFFFFFFFFFF DUP2 GT ISZERO PUSH2 0x488 JUMPI PUSH2 0x487 PUSH2 0xBF JUMP JUMPDEST JUMPDEST PUSH2 0x492 DUP3 SLOAD PUSH2 0x290 JUMP JUMPDEST PUSH2 0x49D DUP3 DUP3 DUP6 PUSH2 0x3DD JUMP JUMPDEST PUSH0 PUSH1 0x20 SWAP1 POP PUSH1 0x1F DUP4 GT PUSH1 0x1 DUP2 EQ PUSH2 0x4CE JUMPI PUSH0 DUP5 ISZERO PUSH2 0x4BC JUMPI DUP3 DUP8 ADD MLOAD SWAP1 POP JUMPDEST PUSH2 0x4C6 DUP6 DUP3 PUSH2 0x44B JUMP JUMPDEST DUP7 SSTORE POP PUSH2 0x52D JUMP JUMPDEST PUSH1 0x1F NOT DUP5 AND PUSH2 0x4DC DUP7 PUSH2 0x2C0 JUMP JUMPDEST PUSH0 JUMPDEST DUP3 DUP2 LT ISZERO PUSH2 0x503 JUMPI DUP5 DUP10 ADD MLOAD DUP3 SSTORE PUSH1 0x1 DUP3 ADD SWAP2 POP PUSH1 0x20 DUP6 ADD SWAP5 POP PUSH1 0x20 DUP2 ADD SWAP1 POP PUSH2 0x4DE JUMP JUMPDEST DUP7 DUP4 LT ISZERO PUSH2 0x520 JUMPI DUP5 DUP10 ADD MLOAD PUSH2 0x51C PUSH1 0x1F DUP10 AND DUP3 PUSH2 0x42F JUMP JUMPDEST DUP4 SSTORE POP JUMPDEST PUSH1 0x1 PUSH1 0x2 DUP9 MUL ADD DUP9 SSTORE POP POP POP JUMPDEST POP POP POP POP POP POP JUMP JUMPDEST PUSH1 0x80 MLOAD PUSH2 0x3D23 PUSH2 0x569 PUSH0 CODECOPY PUSH0 DUP2 DUP2 PUSH2 0x8D3 ADD MSTORE DUP2 DUP2 PUSH2 0xC07 ADD MSTORE DUP2 DUP2 PUSH2 0xF9B ADD MSTORE DUP2 DUP2 PUSH2 0x1495 ADD MSTORE PUSH2 0x18C1 ADD MSTORE PUSH2 0x3D23 PUSH0 RETURN INVALID PUSH1 0x80 PUSH1 0x40 MSTORE PUSH1 0x4 CALLDATASIZE LT PUSH2 0x169 JUMPI PUSH0 CALLDATALOAD PUSH1 0xE0 SHR DUP1 PUSH4 0x831B455D GT PUSH2 0xD0 JUMPI DUP1 PUSH4 0xC776194F GT PUSH2 0x89 JUMPI DUP1 PUSH4 0xE77E89F3 GT PUSH2 0x63 JUMPI DUP1 PUSH4 0xE77E89F3 EQ PUSH2 0x654 JUMPI DUP1 PUSH4 0xE985E9C5 EQ PUSH2 0x690 JUMPI DUP1 PUSH4 0xEF555BC1 EQ PUSH2 0x6CC JUMPI DUP1 PUSH4 0xF410DCC2 EQ PUSH2 0x708 JUMPI PUSH2 0x1BE JUMP JUMPDEST DUP1 PUSH4 0xC776194F EQ PUSH2 0x5B4 JUMPI DUP1 PUSH4 0xC87B56DD EQ PUSH2 0x5DC JUMPI DUP1 PUSH4 0xD57FA07D EQ PUSH2 0x618 JUMPI PUSH2 0x1BE JUMP JUMPDEST DUP1 PUSH4 0x831B455D EQ PUSH2 0x498 JUMPI DUP1 PUSH4 0x893D20E8 EQ PUSH2 0x4D4 JUMPI DUP1 PUSH4 0x93678237 EQ PUSH2 0x4FE JUMPI DUP1 PUSH4 0x95D89B41 EQ PUSH2 0x53A JUMPI DUP1 PUSH4 0xA22CB465 EQ PUSH2 0x564 JUMPI DUP1 PUSH4 0xB88D4FDE EQ PUSH2 0x58C JUMPI PUSH2 0x1BE JUMP JUMPDEST DUP1 PUSH4 0x2D64DBFD GT PUSH2 0x122 JUMPI DUP1 PUSH4 0x2D64DBFD EQ PUSH2 0x36A JUMPI DUP1 PUSH4 0x42842E0E EQ PUSH2 0x3A6 JUMPI DUP1 PUSH4 0x4F3E1EFC EQ PUSH2 0x3CE JUMPI DUP1 PUSH4 0x6352211E EQ PUSH2 0x3F8 JUMPI DUP1 PUSH4 0x70A08231 EQ PUSH2 0x434 JUMPI DUP1 PUSH4 0x819B25BA EQ PUSH2 0x470 JUMPI PUSH2 0x1BE JUMP JUMPDEST DUP1 PUSH4 0x1FFC9A7 EQ PUSH2 0x250 JUMPI DUP1 PUSH4 0x6FDDE03 EQ PUSH2 0x28C JUMPI DUP1 PUSH4 0x81812FC EQ PUSH2 0x2B6 JUMPI DUP1 PUSH4 0x95EA7B3 EQ PUSH2 0x2F2 JUMPI DUP1 PUSH4 0x16EE8B16 EQ PUSH2 0x31A JUMPI DUP1 PUSH4 0x23B872DD EQ PUSH2 0x342 JUMPI PUSH2 0x1BE JUMP JUMPDEST CALLDATASIZE PUSH2 0x1BE JUMPI CALLER PUSH20 0xFFFFFFFFFFFFFFFFFFFFFFFFFFFFFFFFFFFFFFFF AND PUSH32 0x1E57E3BB474320BE3D2C77138F75B7C3941292D647F5F9634E33A8E94E0E069B CALLVALUE PUSH1 0x40 MLOAD PUSH2 0x1B4 SWAP2 SWAP1 PUSH2 0x2811 JUMP JUMPDEST PUSH1 0x40 MLOAD DUP1 SWAP2 SUB SWAP1 LOG2 STOP JUMPDEST PUSH0 CALLVALUE SUB PUSH2 0x200 JUMPI PUSH1 0x40 MLOAD PUSH32 0x8C379A000000000000000000000000000000000000000000000000000000000 DUP2 MSTORE PUSH1 0x4 ADD PUSH2 0x1F7 SWAP1 PUSH2 0x28AA JUMP JUMPDEST PUSH1 0x40 MLOAD DUP1 SWAP2 SUB SWAP1 REVERT JUMPDEST CALLER PUSH20 0xFFFFFFFFFFFFFFFFFFFFFFFFFFFFFFFFFFFFFFFF AND PUSH32 0x1E57E3BB474320BE3D2C77138F75B7C3941292D647F5F9634E33A8E94E0E069B CALLVALUE PUSH1 0x40 MLOAD PUSH2 0x246 SWAP2 SWAP1 PUSH2 0x2811 JUMP JUMPDEST PUSH1 0x40 MLOAD DUP1 SWAP2 SUB SWAP1 LOG2 STOP JUMPDEST CALLVALUE DUP1 ISZERO PUSH2 0x25B JUMPI PUSH0 DUP1 REVERT JUMPDEST POP PUSH2 0x276 PUSH1 0x4 DUP1 CALLDATASIZE SUB DUP2 ADD SWAP1 PUSH2 0x271 SWAP2 SWAP1 PUSH2 0x292E JUMP JUMPDEST PUSH2 0x730 JUMP JUMPDEST PUSH1 0x40 MLOAD PUSH2 0x283 SWAP2 SWAP1 PUSH2 0x2973 JUMP JUMPDEST PUSH1 0x40 MLOAD DUP1 SWAP2 SUB SWAP1 RETURN JUMPDEST CALLVALUE DUP1 ISZERO PUSH2 0x297 JUMPI PUSH0 DUP1 REVERT JUMPDEST POP PUSH2 0x2A0 PUSH2 0x811 JUMP JUMPDEST PUSH1 0x40 MLOAD PUSH2 0x2AD SWAP2 SWAP1 PUSH2 0x29EC JUMP JUMPDEST PUSH1 0x40 MLOAD DUP1 SWAP2 SUB SWAP1 RETURN JUMPDEST CALLVALUE DUP1 ISZERO PUSH2 0x2C1 JUMPI PUSH0 DUP1 REVERT JUMPDEST POP PUSH2 0x2DC PUSH1 0x4 DUP1 CALLDATASIZE SUB DUP2 ADD SWAP1 PUSH2 0x2D7 SWAP2 SWAP1 PUSH2 0x2A36 JUMP JUMPDEST PUSH2 0x8A0 JUMP JUMPDEST PUSH1 0x40 MLOAD PUSH2 0x2E9 SWAP2 SWAP1 PUSH2 0x2AA0 JUMP JUMPDEST PUSH1 0x40 MLOAD DUP1 SWAP2 SUB SWAP1 RETURN JUMPDEST CALLVALUE DUP1 ISZERO PUSH2 0x2FD JUMPI PUSH0 DUP1 REVERT JUMPDEST POP PUSH2 0x318 PUSH1 0x4 DUP1 CALLDATASIZE SUB DUP2 ADD SWAP1 PUSH2 0x313 SWAP2 SWAP1 PUSH2 0x2AE3 JUMP JUMPDEST PUSH2 0x8BB JUMP JUMPDEST STOP JUMPDEST CALLVALUE DUP1 ISZERO PUSH2 0x325 JUMPI PUSH0 DUP1 REVERT JUMPDEST POP PUSH2 0x340 PUSH1 0x4 DUP1 CALLDATASIZE SUB DUP2 ADD SWAP1 PUSH2 0x33B SWAP2 SWAP1 PUSH2 0x2D02 JUMP JUMPDEST PUSH2 0x8D1 JUMP JUMPDEST STOP JUMPDEST CALLVALUE DUP1 ISZERO PUSH2 0x34D JUMPI PUSH0 DUP1 REVERT JUMPDEST POP PUSH2 0x368 PUSH1 0x4 DUP1 CALLDATASIZE SUB DUP2 ADD SWAP1 PUSH2 0x363 SWAP2 SWAP1 PUSH2 0x2DB1 JUMP JUMPDEST PUSH2 0xC34 JUMP JUMPDEST STOP JUMPDEST CALLVALUE DUP1 ISZERO PUSH2 0x375 JUMPI PUSH0 DUP1 REVERT JUMPDEST POP PUSH2 0x390 PUSH1 0x4 DUP1 CALLDATASIZE SUB DUP2 ADD SWAP1 PUSH2 0x38B SWAP2 SWAP1 PUSH2 0x2A36 JUMP JUMPDEST PUSH2 0xD33 JUMP JUMPDEST PUSH1 0x40 MLOAD PUSH2 0x39D SWAP2 SWAP1 PUSH2 0x2973 JUMP JUMPDEST PUSH1 0x40 MLOAD DUP1 SWAP2 SUB SWAP1 RETURN JUMPDEST CALLVALUE DUP1 ISZERO PUSH2 0x3B1 JUMPI PUSH0 DUP1 REVERT JUMPDEST POP PUSH2 0x3CC PUSH1 0x4 DUP1 CALLDATASIZE SUB DUP2 ADD SWAP1 PUSH2 0x3C7 SWAP2 SWAP1 PUSH2 0x2DB1 JUMP JUMPDEST PUSH2 0xDA5 JUMP JUMPDEST STOP JUMPDEST CALLVALUE DUP1 ISZERO PUSH2 0x3D9 JUMPI PUSH0 DUP1 REVERT JUMPDEST POP PUSH2 0x3E2 PUSH2 0xDC4 JUMP JUMPDEST PUSH1 0x40 MLOAD PUSH2 0x3EF SWAP2 SWAP1 PUSH2 0x2811 JUMP JUMPDEST PUSH1 0x40 MLOAD DUP1 SWAP2 SUB SWAP1 RETURN JUMPDEST CALLVALUE DUP1 ISZERO PUSH2 0x403 JUMPI PUSH0 DUP1 REVERT JUMPDEST POP PUSH2 0x41E PUSH1 0x4 DUP1 CALLDATASIZE SUB DUP2 ADD SWAP1 PUSH2 0x419 SWAP2 SWAP1 PUSH2 0x2A36 JUMP JUMPDEST PUSH2 0xDCD JUMP JUMPDEST PUSH1 0x40 MLOAD PUSH2 0x42B SWAP2 SWAP1 PUSH2 0x2AA0 JUMP JUMPDEST PUSH1 0x40 MLOAD DUP1 SWAP2 SUB SWAP1 RETURN JUMPDEST CALLVALUE DUP1 ISZERO PUSH2 0x43F JUMPI PUSH0 DUP1 REVERT JUMPDEST POP PUSH2 0x45A PUSH1 0x4 DUP1 CALLDATASIZE SUB DUP2 ADD SWAP1 PUSH2 0x455 SWAP2 SWAP1 PUSH2 0x2E01 JUMP JUMPDEST PUSH2 0xDDE JUMP JUMPDEST PUSH1 0x40 MLOAD PUSH2 0x467 SWAP2 SWAP1 PUSH2 0x2811 JUMP JUMPDEST PUSH1 0x40 MLOAD DUP1 SWAP2 SUB SWAP1 RETURN JUMPDEST CALLVALUE DUP1 ISZERO PUSH2 0x47B JUMPI PUSH0 DUP1 REVERT JUMPDEST POP PUSH2 0x496 PUSH1 0x4 DUP1 CALLDATASIZE SUB DUP2 ADD SWAP1 PUSH2 0x491 SWAP2 SWAP1 PUSH2 0x2A36 JUMP JUMPDEST PUSH2 0xE94 JUMP JUMPDEST STOP JUMPDEST CALLVALUE DUP1 ISZERO PUSH2 0x4A3 JUMPI PUSH0 DUP1 REVERT JUMPDEST POP PUSH2 0x4BE PUSH1 0x4 DUP1 CALLDATASIZE SUB DUP2 ADD SWAP1 PUSH2 0x4B9 SWAP2 SWAP1 PUSH2 0x2A36 JUMP JUMPDEST PUSH2 0xF68 JUMP JUMPDEST PUSH1 0x40 MLOAD PUSH2 0x4CB SWAP2 SWAP1 PUSH2 0x2AA0 JUMP JUMPDEST PUSH1 0x40 MLOAD DUP1 SWAP2 SUB SWAP1 RETURN JUMPDEST CALLVALUE DUP1 ISZERO PUSH2 0x4DF JUMPI PUSH0 DUP1 REVERT JUMPDEST POP PUSH2 0x4E8 PUSH2 0xF98 JUMP JUMPDEST PUSH1 0x40 MLOAD PUSH2 0x4F5 SWAP2 SWAP1 PUSH2 0x2AA0 JUMP JUMPDEST PUSH1 0x40 MLOAD DUP1 SWAP2 SUB SWAP1 RETURN JUMPDEST CALLVALUE DUP1 ISZERO PUSH2 0x509 JUMPI PUSH0 DUP1 REVERT JUMPDEST POP PUSH2 0x524 PUSH1 0x4 DUP1 CALLDATASIZE SUB DUP2 ADD SWAP1 PUSH2 0x51F SWAP2 SWAP1 PUSH2 0x2A36 JUMP JUMPDEST PUSH2 0xFBF JUMP JUMPDEST PUSH1 0x40 MLOAD PUSH2 0x531 SWAP2 SWAP1 PUSH2 0x2AA0 JUMP JUMPDEST PUSH1 0x40 MLOAD DUP1 SWAP2 SUB SWAP1 RETURN JUMPDEST CALLVALUE DUP1 ISZERO PUSH2 0x545 JUMPI PUSH0 DUP1 REVERT JUMPDEST POP PUSH2 0x54E PUSH2 0x101C JUMP JUMPDEST PUSH1 0x40 MLOAD PUSH2 0x55B SWAP2 SWAP1 PUSH2 0x29EC JUMP JUMPDEST PUSH1 0x40 MLOAD DUP1 SWAP2 SUB SWAP1 RETURN JUMPDEST CALLVALUE DUP1 ISZERO PUSH2 0x56F JUMPI PUSH0 DUP1 REVERT JUMPDEST POP PUSH2 0x58A PUSH1 0x4 DUP1 CALLDATASIZE SUB DUP2 ADD SWAP1 PUSH2 0x585 SWAP2 SWAP1 PUSH2 0x2E56 JUMP JUMPDEST PUSH2 0x10AC JUMP JUMPDEST STOP JUMPDEST CALLVALUE DUP1 ISZERO PUSH2 0x597 JUMPI PUSH0 DUP1 REVERT JUMPDEST POP PUSH2 0x5B2 PUSH1 0x4 DUP1 CALLDATASIZE SUB DUP2 ADD SWAP1 PUSH2 0x5AD SWAP2 SWAP1 PUSH2 0x2F32 JUMP JUMPDEST PUSH2 0x10C2 JUMP JUMPDEST STOP JUMPDEST CALLVALUE DUP1 ISZERO PUSH2 0x5BF JUMPI PUSH0 DUP1 REVERT JUMPDEST POP PUSH2 0x5DA PUSH1 0x4 DUP1 CALLDATASIZE SUB DUP2 ADD SWAP1 PUSH2 0x5D5 SWAP2 SWAP1 PUSH2 0x2DB1 JUMP JUMPDEST PUSH2 0x10E7 JUMP JUMPDEST STOP JUMPDEST CALLVALUE DUP1 ISZERO PUSH2 0x5E7 JUMPI PUSH0 DUP1 REVERT JUMPDEST POP PUSH2 0x602 PUSH1 0x4 DUP1 CALLDATASIZE SUB DUP2 ADD SWAP1 PUSH2 0x5FD SWAP2 SWAP1 PUSH2 0x2A36 JUMP JUMPDEST PUSH2 0x11BC JUMP JUMPDEST PUSH1 0x40 MLOAD PUSH2 0x60F SWAP2 SWAP1 PUSH2 0x29EC JUMP JUMPDEST PUSH1 0x40 MLOAD DUP1 SWAP2 SUB SWAP1 RETURN JUMPDEST CALLVALUE DUP1 ISZERO PUSH2 0x623 JUMPI PUSH0 DUP1 REVERT JUMPDEST POP PUSH2 0x63E PUSH1 0x4 DUP1 CALLDATASIZE SUB DUP2 ADD SWAP1 PUSH2 0x639 SWAP2 SWAP1 PUSH2 0x2FE8 JUMP JUMPDEST PUSH2 0x1222 JUMP JUMPDEST PUSH1 0x40 MLOAD PUSH2 0x64B SWAP2 SWAP1 PUSH2 0x306E JUMP JUMPDEST PUSH1 0x40 MLOAD DUP1 SWAP2 SUB SWAP1 RETURN JUMPDEST CALLVALUE DUP1 ISZERO PUSH2 0x65F JUMPI PUSH0 DUP1 REVERT JUMPDEST POP PUSH2 0x67A PUSH1 0x4 DUP1 CALLDATASIZE SUB DUP2 ADD SWAP1 PUSH2 0x675 SWAP2 SWAP1 PUSH2 0x3087 JUMP JUMPDEST PUSH2 0x1404 JUMP JUMPDEST PUSH1 0x40 MLOAD PUSH2 0x687 SWAP2 SWAP1 PUSH2 0x2811 JUMP JUMPDEST PUSH1 0x40 MLOAD DUP1 SWAP2 SUB SWAP1 RETURN JUMPDEST CALLVALUE DUP1 ISZERO PUSH2 0x69B JUMPI PUSH0 DUP1 REVERT JUMPDEST POP PUSH2 0x6B6 PUSH1 0x4 DUP1 CALLDATASIZE SUB DUP2 ADD SWAP1 PUSH2 0x6B1 SWAP2 SWAP1 PUSH2 0x30C5 JUMP JUMPDEST PUSH2 0x15BE JUMP JUMPDEST PUSH1 0x40 MLOAD PUSH2 0x6C3 SWAP2 SWAP1 PUSH2 0x2973 JUMP JUMPDEST PUSH1 0x40 MLOAD DUP1 SWAP2 SUB SWAP1 RETURN JUMPDEST CALLVALUE DUP1 ISZERO PUSH2 0x6D7 JUMPI PUSH0 DUP1 REVERT JUMPDEST POP PUSH2 0x6F2 PUSH1 0x4 DUP1 CALLDATASIZE SUB DUP2 ADD SWAP1 PUSH2 0x6ED SWAP2 SWAP1 PUSH2 0x2A36 JUMP JUMPDEST PUSH2 0x164C JUMP JUMPDEST PUSH1 0x40 MLOAD PUSH2 0x6FF SWAP2 SWAP1 PUSH2 0x31E3 JUMP JUMPDEST PUSH1 0x40 MLOAD DUP1 SWAP2 SUB SWAP1 RETURN JUMPDEST CALLVALUE DUP1 ISZERO PUSH2 0x713 JUMPI PUSH0 DUP1 REVERT JUMPDEST POP PUSH2 0x72E PUSH1 0x4 DUP1 CALLDATASIZE SUB DUP2 ADD SWAP1 PUSH2 0x729 SWAP2 SWAP1 PUSH2 0x2A36 JUMP JUMPDEST PUSH2 0x1815 JUMP JUMPDEST STOP JUMPDEST PUSH0 PUSH32 0x80AC58CD00000000000000000000000000000000000000000000000000000000 PUSH28 0xFFFFFFFFFFFFFFFFFFFFFFFFFFFFFFFFFFFFFFFFFFFFFFFFFFFFFFFF NOT AND DUP3 PUSH28 0xFFFFFFFFFFFFFFFFFFFFFFFFFFFFFFFFFFFFFFFFFFFFFFFFFFFFFFFF NOT AND EQ DUP1 PUSH2 0x7FA JUMPI POP PUSH32 0x5B5E139F00000000000000000000000000000000000000000000000000000000 PUSH28 0xFFFFFFFFFFFFFFFFFFFFFFFFFFFFFFFFFFFFFFFFFFFFFFFFFFFFFFFF NOT AND DUP3 PUSH28 0xFFFFFFFFFFFFFFFFFFFFFFFFFFFFFFFFFFFFFFFFFFFFFFFFFFFFFFFF NOT AND EQ JUMPDEST DUP1 PUSH2 0x80A JUMPI POP PUSH2 0x809 DUP3 PUSH2 0x1961 JUMP JUMPDEST JUMPDEST SWAP1 POP SWAP2 SWAP1 POP JUMP JUMPDEST PUSH1 0x60 PUSH0 DUP1 SLOAD PUSH2 0x81F SWAP1 PUSH2 0x3230 JUMP JUMPDEST DUP1 PUSH1 0x1F ADD PUSH1 0x20 DUP1 SWAP2 DIV MUL PUSH1 0x20 ADD PUSH1 0x40 MLOAD SWAP1 DUP2 ADD PUSH1 0x40 MSTORE DUP1 SWAP3 SWAP2 SWAP1 DUP2 DUP2 MSTORE PUSH1 0x20 ADD DUP3 DUP1 SLOAD PUSH2 0x84B SWAP1 PUSH2 0x3230 JUMP JUMPDEST DUP1 ISZERO PUSH2 0x896 JUMPI DUP1 PUSH1 0x1F LT PUSH2 0x86D JUMPI PUSH2 0x100 DUP1 DUP4 SLOAD DIV MUL DUP4 MSTORE SWAP2 PUSH1 0x20 ADD SWAP2 PUSH2 0x896 JUMP JUMPDEST DUP3 ADD SWAP2 SWAP1 PUSH0 MSTORE PUSH1 0x20 PUSH0 KECCAK256 SWAP1 JUMPDEST DUP2 SLOAD DUP2 MSTORE SWAP1 PUSH1 0x1 ADD SWAP1 PUSH1 0x20 ADD DUP1 DUP4 GT PUSH2 0x879 JUMPI DUP3 SWAP1 SUB PUSH1 0x1F AND DUP3 ADD SWAP2 JUMPDEST POP POP POP POP POP SWAP1 POP SWAP1 JUMP JUMPDEST PUSH0 PUSH2 0x8AA DUP3 PUSH2 0x19CA JUMP JUMPDEST POP PUSH2 0x8B4 DUP3 PUSH2 0x1A50 JUMP JUMPDEST SWAP1 POP SWAP2 SWAP1 POP JUMP JUMPDEST PUSH2 0x8CD DUP3 DUP3 PUSH2 0x8C8 PUSH2 0x1A89 JUMP JUMPDEST PUSH2 0x1A90 JUMP JUMPDEST POP POP JUMP JUMPDEST PUSH32 0x0 PUSH20 0xFFFFFFFFFFFFFFFFFFFFFFFFFFFFFFFFFFFFFFFF AND CALLER PUSH20 0xFFFFFFFFFFFFFFFFFFFFFFFFFFFFFFFFFFFFFFFF AND EQ PUSH2 0x95F JUMPI PUSH1 0x40 MLOAD PUSH32 0x8C379A000000000000000000000000000000000000000000000000000000000 DUP2 MSTORE PUSH1 0x4 ADD PUSH2 0x956 SWAP1 PUSH2 0x32AA JUMP JUMPDEST PUSH1 0x40 MLOAD DUP1 SWAP2 SUB SWAP1 REVERT JUMPDEST PUSH0 DUP6 MLOAD GT PUSH2 0x9A2 JUMPI PUSH1 0x40 MLOAD PUSH32 0x8C379A000000000000000000000000000000000000000000000000000000000 DUP2 MSTORE PUSH1 0x4 ADD PUSH2 0x999 SWAP1 PUSH2 0x3312 JUMP JUMPDEST PUSH1 0x40 MLOAD DUP1 SWAP2 SUB SWAP1 REVERT JUMPDEST PUSH0 DUP5 MLOAD GT PUSH2 0x9E5 JUMPI PUSH1 0x40 MLOAD PUSH32 0x8C379A000000000000000000000000000000000000000000000000000000000 DUP2 MSTORE PUSH1 0x4 ADD PUSH2 0x9DC SWAP1 PUSH2 0x337A JUMP JUMPDEST PUSH1 0x40 MLOAD DUP1 SWAP2 SUB SWAP1 REVERT JUMPDEST PUSH2 0x75E DUP4 PUSH2 0xFFFF AND LT ISZERO DUP1 ISZERO PUSH2 0xA27 JUMPI POP PUSH1 0x1 PUSH2 0x7B2 PUSH4 0x1E1853E TIMESTAMP PUSH2 0xA0B SWAP2 SWAP1 PUSH2 0x33F2 JUMP JUMPDEST PUSH2 0xA15 SWAP2 SWAP1 PUSH2 0x3422 JUMP JUMPDEST PUSH2 0xA1F SWAP2 SWAP1 PUSH2 0x3422 JUMP JUMPDEST DUP4 PUSH2 0xFFFF AND GT ISZERO JUMPDEST PUSH2 0xA66 JUMPI PUSH1 0x40 MLOAD PUSH32 0x8C379A000000000000000000000000000000000000000000000000000000000 DUP2 MSTORE PUSH1 0x4 ADD PUSH2 0xA5D SWAP1 PUSH2 0x34C5 JUMP JUMPDEST PUSH1 0x40 MLOAD DUP1 SWAP2 SUB SWAP1 REVERT JUMPDEST PUSH0 DUP3 PUSH16 0xFFFFFFFFFFFFFFFFFFFFFFFFFFFFFFFF AND GT PUSH2 0xABA JUMPI PUSH1 0x40 MLOAD PUSH32 0x8C379A000000000000000000000000000000000000000000000000000000000 DUP2 MSTORE PUSH1 0x4 ADD PUSH2 0xAB1 SWAP1 PUSH2 0x3553 JUMP JUMPDEST PUSH1 0x40 MLOAD DUP1 SWAP2 SUB SWAP1 REVERT JUMPDEST PUSH0 DUP2 PUSH4 0xFFFFFFFF AND LT ISZERO PUSH2 0xB03 JUMPI PUSH1 0x40 MLOAD PUSH32 0x8C379A000000000000000000000000000000000000000000000000000000000 DUP2 MSTORE PUSH1 0x4 ADD PUSH2 0xAFA SWAP1 PUSH2 0x35E1 JUMP JUMPDEST PUSH1 0x40 MLOAD DUP1 SWAP2 SUB SWAP1 REVERT JUMPDEST PUSH1 0x1 PUSH1 0x9 PUSH0 DUP3 DUP3 SLOAD PUSH2 0xB15 SWAP2 SWAP1 PUSH2 0x3422 JUMP JUMPDEST SWAP3 POP POP DUP2 SWAP1 SSTORE POP PUSH0 PUSH1 0x9 SLOAD SWAP1 POP PUSH1 0x40 MLOAD DUP1 PUSH1 0xA0 ADD PUSH1 0x40 MSTORE DUP1 DUP8 DUP2 MSTORE PUSH1 0x20 ADD DUP7 DUP2 MSTORE PUSH1 0x20 ADD DUP6 PUSH2 0xFFFF AND DUP2 MSTORE PUSH1 0x20 ADD DUP5 PUSH16 0xFFFFFFFFFFFFFFFFFFFFFFFFFFFFFFFF AND DUP2 MSTORE PUSH1 0x20 ADD DUP4 PUSH4 0xFFFFFFFF AND DUP2 MSTORE POP PUSH1 0x6 PUSH0 DUP4 DUP2 MSTORE PUSH1 0x20 ADD SWAP1 DUP2 MSTORE PUSH1 0x20 ADD PUSH0 KECCAK256 PUSH0 DUP3 ADD MLOAD DUP2 PUSH0 ADD SWAP1 DUP2 PUSH2 0xB89 SWAP2 SWAP1 PUSH2 0x379C JUMP JUMPDEST POP PUSH1 0x20 DUP3 ADD MLOAD DUP2 PUSH1 0x1 ADD SWAP1 DUP2 PUSH2 0xB9F SWAP2 SWAP1 PUSH2 0x379C JUMP JUMPDEST POP PUSH1 0x40 DUP3 ADD MLOAD DUP2 PUSH1 0x2 ADD PUSH0 PUSH2 0x100 EXP DUP2 SLOAD DUP2 PUSH2 0xFFFF MUL NOT AND SWAP1 DUP4 PUSH2 0xFFFF AND MUL OR SWAP1 SSTORE POP PUSH1 0x60 DUP3 ADD MLOAD DUP2 PUSH1 0x3 ADD SSTORE PUSH1 0x80 DUP3 ADD MLOAD DUP2 PUSH1 0x4 ADD SSTORE SWAP1 POP POP PUSH1 0x1 PUSH1 0x7 PUSH0 DUP4 DUP2 MSTORE PUSH1 0x20 ADD SWAP1 DUP2 MSTORE PUSH1 0x20 ADD PUSH0 KECCAK256 PUSH0 PUSH2 0x100 EXP DUP2 SLOAD DUP2 PUSH1 0xFF MUL NOT AND SWAP1 DUP4 ISZERO ISZERO MUL OR SWAP1 SSTORE POP PUSH2 0xC2C PUSH32 0x0 DUP3 PUSH2 0x1AA2 JUMP JUMPDEST POP POP POP POP POP POP JUMP JUMPDEST PUSH0 PUSH20 0xFFFFFFFFFFFFFFFFFFFFFFFFFFFFFFFFFFFFFFFF AND DUP3 PUSH20 0xFFFFFFFFFFFFFFFFFFFFFFFFFFFFFFFFFFFFFFFF AND SUB PUSH2 0xCA4 JUMPI PUSH0 PUSH1 0x40 MLOAD PUSH32 0x64A0AE9200000000000000000000000000000000000000000000000000000000 DUP2 MSTORE PUSH1 0x4 ADD PUSH2 0xC9B SWAP2 SWAP1 PUSH2 0x2AA0 JUMP JUMPDEST PUSH1 0x40 MLOAD DUP1 SWAP2 SUB SWAP1 REVERT JUMPDEST PUSH0 PUSH2 0xCB7 DUP4 DUP4 PUSH2 0xCB2 PUSH2 0x1A89 JUMP JUMPDEST PUSH2 0x1B95 JUMP JUMPDEST SWAP1 POP DUP4 PUSH20 0xFFFFFFFFFFFFFFFFFFFFFFFFFFFFFFFFFFFFFFFF AND DUP2 PUSH20 0xFFFFFFFFFFFFFFFFFFFFFFFFFFFFFFFFFFFFFFFF AND EQ PUSH2 0xD2D JUMPI DUP4 DUP3 DUP3 PUSH1 0x40 MLOAD PUSH32 0x64283D7B00000000000000000000000000000000000000000000000000000000 DUP2 MSTORE PUSH1 0x4 ADD PUSH2 0xD24 SWAP4 SWAP3 SWAP2 SWAP1 PUSH2 0x386B JUMP JUMPDEST PUSH1 0x40 MLOAD DUP1 SWAP2 SUB SWAP1 REVERT JUMPDEST POP POP POP POP JUMP JUMPDEST PUSH0 DUP2 PUSH2 0xD3D PUSH2 0xDC4 JUMP JUMPDEST DUP2 GT ISZERO PUSH2 0xD7F JUMPI PUSH1 0x40 MLOAD PUSH32 0x8C379A000000000000000000000000000000000000000000000000000000000 DUP2 MSTORE PUSH1 0x4 ADD PUSH2 0xD76 SWAP1 PUSH2 0x38EA JUMP JUMPDEST PUSH1 0x40 MLOAD DUP1 SWAP2 SUB SWAP1 REVERT JUMPDEST PUSH1 0x7 PUSH0 DUP5 DUP2 MSTORE PUSH1 0x20 ADD SWAP1 DUP2 MSTORE PUSH1 0x20 ADD PUSH0 KECCAK256 PUSH0 SWAP1 SLOAD SWAP1 PUSH2 0x100 EXP SWAP1 DIV PUSH1 0xFF AND SWAP2 POP POP SWAP2 SWAP1 POP JUMP JUMPDEST PUSH2 0xDBF DUP4 DUP4 DUP4 PUSH1 0x40 MLOAD DUP1 PUSH1 0x20 ADD PUSH1 0x40 MSTORE DUP1 PUSH0 DUP2 MSTORE POP PUSH2 0x10C2 JUMP JUMPDEST POP POP POP JUMP JUMPDEST PUSH0 PUSH1 0x9 SLOAD SWAP1 POP SWAP1 JUMP JUMPDEST PUSH0 PUSH2 0xDD7 DUP3 PUSH2 0x19CA JUMP JUMPDEST SWAP1 POP SWAP2 SWAP1 POP JUMP JUMPDEST PUSH0 DUP1 PUSH20 0xFFFFFFFFFFFFFFFFFFFFFFFFFFFFFFFFFFFFFFFF AND DUP3 PUSH20 0xFFFFFFFFFFFFFFFFFFFFFFFFFFFFFFFFFFFFFFFF AND SUB PUSH2 0xE4F JUMPI PUSH0 PUSH1 0x40 MLOAD PUSH32 0x89C62B6400000000000000000000000000000000000000000000000000000000 DUP2 MSTORE PUSH1 0x4 ADD PUSH2 0xE46 SWAP2 SWAP1 PUSH2 0x2AA0 JUMP JUMPDEST PUSH1 0x40 MLOAD DUP1 SWAP2 SUB SWAP1 REVERT JUMPDEST PUSH1 0x3 PUSH0 DUP4 PUSH20 0xFFFFFFFFFFFFFFFFFFFFFFFFFFFFFFFFFFFFFFFF AND PUSH20 0xFFFFFFFFFFFFFFFFFFFFFFFFFFFFFFFFFFFFFFFF AND DUP2 MSTORE PUSH1 0x20 ADD SWAP1 DUP2 MSTORE PUSH1 0x20 ADD PUSH0 KECCAK256 SLOAD SWAP1 POP SWAP2 SWAP1 POP JUMP JUMPDEST DUP1 PUSH2 0xE9D PUSH2 0xDC4 JUMP JUMPDEST DUP2 GT ISZERO PUSH2 0xEDF JUMPI PUSH1 0x40 MLOAD PUSH32 0x8C379A000000000000000000000000000000000000000000000000000000000 DUP2 MSTORE PUSH1 0x4 ADD PUSH2 0xED6 SWAP1 PUSH2 0x38EA JUMP JUMPDEST PUSH1 0x40 MLOAD DUP1 SWAP2 SUB SWAP1 REVERT JUMPDEST PUSH1 0x7 PUSH0 DUP4 DUP2 MSTORE PUSH1 0x20 ADD SWAP1 DUP2 MSTORE PUSH1 0x20 ADD PUSH0 KECCAK256 PUSH0 SWAP1 SLOAD SWAP1 PUSH2 0x100 EXP SWAP1 DIV PUSH1 0xFF AND PUSH2 0xF3C JUMPI PUSH1 0x40 MLOAD PUSH32 0x8C379A000000000000000000000000000000000000000000000000000000000 DUP2 MSTORE PUSH1 0x4 ADD PUSH2 0xF33 SWAP1 PUSH2 0x3978 JUMP JUMPDEST PUSH1 0x40 MLOAD DUP1 SWAP2 SUB SWAP1 REVERT JUMPDEST PUSH0 PUSH1 0x7 PUSH0 DUP5 DUP2 MSTORE PUSH1 0x20 ADD SWAP1 DUP2 MSTORE PUSH1 0x20 ADD PUSH0 KECCAK256 PUSH0 PUSH2 0x100 EXP DUP2 SLOAD DUP2 PUSH1 0xFF MUL NOT AND SWAP1 DUP4 ISZERO ISZERO MUL OR SWAP1 SSTORE POP POP POP JUMP JUMPDEST PUSH1 0x8 PUSH1 0x20 MSTORE DUP1 PUSH0 MSTORE PUSH1 0x40 PUSH0 KECCAK256 PUSH0 SWAP2 POP SLOAD SWAP1 PUSH2 0x100 EXP SWAP1 DIV PUSH20 0xFFFFFFFFFFFFFFFFFFFFFFFFFFFFFFFFFFFFFFFF AND DUP2 JUMP JUMPDEST PUSH0 PUSH32 0x0 SWAP1 POP SWAP1 JUMP JUMPDEST PUSH0 DUP2 PUSH2 0xFC9 PUSH2 0xDC4 JUMP JUMPDEST DUP2 GT ISZERO PUSH2 0x100B JUMPI PUSH1 0x40 MLOAD PUSH32 0x8C379A000000000000000000000000000000000000000000000000000000000 DUP2 MSTORE PUSH1 0x4 ADD PUSH2 0x1002 SWAP1 PUSH2 0x38EA JUMP JUMPDEST PUSH1 0x40 MLOAD DUP1 SWAP2 SUB SWAP1 REVERT JUMPDEST PUSH2 0x1014 DUP4 PUSH2 0x1DA0 JUMP JUMPDEST SWAP2 POP POP SWAP2 SWAP1 POP JUMP JUMPDEST PUSH1 0x60 PUSH1 0x1 DUP1 SLOAD PUSH2 0x102B SWAP1 PUSH2 0x3230 JUMP JUMPDEST DUP1 PUSH1 0x1F ADD PUSH1 0x20 DUP1 SWAP2 DIV MUL PUSH1 0x20 ADD PUSH1 0x40 MLOAD SWAP1 DUP2 ADD PUSH1 0x40 MSTORE DUP1 SWAP3 SWAP2 SWAP1 DUP2 DUP2 MSTORE PUSH1 0x20 ADD DUP3 DUP1 SLOAD PUSH2 0x1057 SWAP1 PUSH2 0x3230 JUMP JUMPDEST DUP1 ISZERO PUSH2 0x10A2 JUMPI DUP1 PUSH1 0x1F LT PUSH2 0x1079 JUMPI PUSH2 0x100 DUP1 DUP4 SLOAD DIV MUL DUP4 MSTORE SWAP2 PUSH1 0x20 ADD SWAP2 PUSH2 0x10A2 JUMP JUMPDEST DUP3 ADD SWAP2 SWAP1 PUSH0 MSTORE PUSH1 0x20 PUSH0 KECCAK256 SWAP1 JUMPDEST DUP2 SLOAD DUP2 MSTORE SWAP1 PUSH1 0x1 ADD SWAP1 PUSH1 0x20 ADD DUP1 DUP4 GT PUSH2 0x1085 JUMPI DUP3 SWAP1 SUB PUSH1 0x1F AND DUP3 ADD SWAP2 JUMPDEST POP POP POP POP POP SWAP1 POP SWAP1 JUMP JUMPDEST PUSH2 0x10BE PUSH2 0x10B7 PUSH2 0x1A89 JUMP JUMPDEST DUP4 DUP4 PUSH2 0x1DD9 JUMP JUMPDEST POP POP JUMP JUMPDEST PUSH2 0x10CD DUP5 DUP5 DUP5 PUSH2 0xC34 JUMP JUMPDEST PUSH2 0x10E1 PUSH2 0x10D8 PUSH2 0x1A89 JUMP JUMPDEST DUP6 DUP6 DUP6 DUP6 PUSH2 0x1F42 JUMP JUMPDEST POP POP POP POP JUMP JUMPDEST DUP2 PUSH20 0xFFFFFFFFFFFFFFFFFFFFFFFFFFFFFFFFFFFFFFFF AND PUSH2 0x1107 DUP3 PUSH2 0x1DA0 JUMP JUMPDEST PUSH20 0xFFFFFFFFFFFFFFFFFFFFFFFFFFFFFFFFFFFFFFFF AND EQ PUSH2 0x115D JUMPI PUSH1 0x40 MLOAD PUSH32 0x8C379A000000000000000000000000000000000000000000000000000000000 DUP2 MSTORE PUSH1 0x4 ADD PUSH2 0x1154 SWAP1 PUSH2 0x39E0 JUMP JUMPDEST PUSH1 0x40 MLOAD DUP1 SWAP2 SUB SWAP1 REVERT JUMPDEST PUSH2 0x1168 DUP3 DUP5 DUP4 PUSH2 0xC34 JUMP JUMPDEST CALLER PUSH1 0x8 PUSH0 DUP4 DUP2 MSTORE PUSH1 0x20 ADD SWAP1 DUP2 MSTORE PUSH1 0x20 ADD PUSH0 KECCAK256 PUSH0 PUSH2 0x100 EXP DUP2 SLOAD DUP2 PUSH20 0xFFFFFFFFFFFFFFFFFFFFFFFFFFFFFFFFFFFFFFFF MUL NOT AND SWAP1 DUP4 PUSH20 0xFFFFFFFFFFFFFFFFFFFFFFFFFFFFFFFFFFFFFFFF AND MUL OR SWAP1 SSTORE POP POP POP POP JUMP JUMPDEST PUSH1 0x60 PUSH2 0x11C7 DUP3 PUSH2 0x19CA JUMP JUMPDEST POP PUSH0 PUSH2 0x11D1 PUSH2 0x20EE JUMP JUMPDEST SWAP1 POP PUSH0 DUP2 MLOAD GT PUSH2 0x11EF JUMPI PUSH1 0x40 MLOAD DUP1 PUSH1 0x20 ADD PUSH1 0x40 MSTORE DUP1 PUSH0 DUP2 MSTORE POP PUSH2 0x121A JUMP JUMPDEST DUP1 PUSH2 0x11F9 DUP5 PUSH2 0x2104 JUMP JUMPDEST PUSH1 0x40 MLOAD PUSH1 0x20 ADD PUSH2 0x120A SWAP3 SWAP2 SWAP1 PUSH2 0x3A38 JUMP JUMPDEST PUSH1 0x40 MLOAD PUSH1 0x20 DUP2 DUP4 SUB SUB DUP2 MSTORE SWAP1 PUSH1 0x40 MSTORE JUMPDEST SWAP2 POP POP SWAP2 SWAP1 POP JUMP JUMPDEST PUSH0 DUP1 PUSH0 PUSH1 0x64 DUP9 PUSH2 0x1232 SWAP2 SWAP1 PUSH2 0x33F2 JUMP JUMPDEST SWAP1 POP PUSH2 0x3E8 DUP8 LT ISZERO PUSH2 0x1246 JUMPI PUSH0 SWAP2 POP PUSH2 0x128D JUMP JUMPDEST PUSH2 0x2710 DUP8 LT ISZERO PUSH2 0x1270 JUMPI PUSH1 0x64 PUSH1 0x5 DUP3 PUSH2 0x125F SWAP2 SWAP1 PUSH2 0x3A5B JUMP JUMPDEST PUSH2 0x1269 SWAP2 SWAP1 PUSH2 0x33F2 JUMP JUMPDEST SWAP2 POP PUSH2 0x128C JUMP JUMPDEST PUSH1 0x64 PUSH1 0x14 DUP3 PUSH2 0x127F SWAP2 SWAP1 PUSH2 0x3A5B JUMP JUMPDEST PUSH2 0x1289 SWAP2 SWAP1 PUSH2 0x33F2 JUMP JUMPDEST SWAP2 POP JUMPDEST JUMPDEST PUSH0 PUSH1 0x5 DUP8 PUSH1 0xFF AND GT PUSH2 0x12B7 JUMPI PUSH1 0x64 PUSH1 0x3 DUP4 PUSH2 0x12A8 SWAP2 SWAP1 PUSH2 0x3A5B JUMP JUMPDEST PUSH2 0x12B2 SWAP2 SWAP1 PUSH2 0x33F2 JUMP JUMPDEST PUSH2 0x12B9 JUMP JUMPDEST PUSH0 JUMPDEST SWAP1 POP PUSH0 PUSH1 0xA DUP7 GT ISZERO PUSH2 0x12E5 JUMPI PUSH1 0x64 PUSH1 0x3 DUP5 PUSH2 0x12D4 SWAP2 SWAP1 PUSH2 0x3A5B JUMP JUMPDEST PUSH2 0x12DE SWAP2 SWAP1 PUSH2 0x33F2 JUMP JUMPDEST SWAP1 POP PUSH2 0x133D JUMP JUMPDEST PUSH1 0x5 DUP7 GT ISZERO PUSH2 0x130E JUMPI PUSH1 0x64 PUSH1 0x2 DUP5 PUSH2 0x12FD SWAP2 SWAP1 PUSH2 0x3A5B JUMP JUMPDEST PUSH2 0x1307 SWAP2 SWAP1 PUSH2 0x33F2 JUMP JUMPDEST SWAP1 POP PUSH2 0x133C JUMP JUMPDEST PUSH1 0x2 DUP7 GT ISZERO PUSH2 0x1337 JUMPI PUSH1 0x64 PUSH1 0x1 DUP5 PUSH2 0x1326 SWAP2 SWAP1 PUSH2 0x3A5B JUMP JUMPDEST PUSH2 0x1330 SWAP2 SWAP1 PUSH2 0x33F2 JUMP JUMPDEST SWAP1 POP PUSH2 0x133B JUMP JUMPDEST PUSH0 SWAP1 POP JUMPDEST JUMPDEST JUMPDEST PUSH0 PUSH2 0x2328 DUP9 GT ISZERO PUSH2 0x1368 JUMPI PUSH1 0x64 PUSH1 0x5 DUP6 PUSH2 0x1357 SWAP2 SWAP1 PUSH2 0x3A5B JUMP JUMPDEST PUSH2 0x1361 SWAP2 SWAP1 PUSH2 0x33F2 JUMP JUMPDEST SWAP1 POP PUSH2 0x13C2 JUMP JUMPDEST PUSH2 0x1770 DUP9 GT ISZERO PUSH2 0x1392 JUMPI PUSH1 0x64 PUSH1 0x3 DUP6 PUSH2 0x1381 SWAP2 SWAP1 PUSH2 0x3A5B JUMP JUMPDEST PUSH2 0x138B SWAP2 SWAP1 PUSH2 0x33F2 JUMP JUMPDEST SWAP1 POP PUSH2 0x13C1 JUMP JUMPDEST PUSH2 0xBB8 DUP9 GT ISZERO PUSH2 0x13BC JUMPI PUSH1 0x64 PUSH1 0x2 DUP6 PUSH2 0x13AB SWAP2 SWAP1 PUSH2 0x3A5B JUMP JUMPDEST PUSH2 0x13B5 SWAP2 SWAP1 PUSH2 0x33F2 JUMP JUMPDEST SWAP1 POP PUSH2 0x13C0 JUMP JUMPDEST PUSH0 SWAP1 POP JUMPDEST JUMPDEST JUMPDEST PUSH0 DUP2 DUP4 DUP6 DUP9 DUP9 PUSH2 0x13D2 SWAP2 SWAP1 PUSH2 0x3A9C JUMP JUMPDEST PUSH2 0x13DC SWAP2 SWAP1 PUSH2 0x3422 JUMP JUMPDEST PUSH2 0x13E6 SWAP2 SWAP1 PUSH2 0x3A9C JUMP JUMPDEST PUSH2 0x13F0 SWAP2 SWAP1 PUSH2 0x3422 JUMP JUMPDEST SWAP1 POP DUP1 SWAP7 POP POP POP POP POP POP POP SWAP6 SWAP5 POP POP POP POP POP JUMP JUMPDEST PUSH0 DUP3 PUSH2 0x140E PUSH2 0xDC4 JUMP JUMPDEST DUP2 GT ISZERO PUSH2 0x1450 JUMPI PUSH1 0x40 MLOAD PUSH32 0x8C379A000000000000000000000000000000000000000000000000000000000 DUP2 MSTORE PUSH1 0x4 ADD PUSH2 0x1447 SWAP1 PUSH2 0x38EA JUMP JUMPDEST PUSH1 0x40 MLOAD DUP1 SWAP2 SUB SWAP1 REVERT JUMPDEST PUSH0 DUP4 LT ISZERO PUSH2 0x1493 JUMPI PUSH1 0x40 MLOAD PUSH32 0x8C379A000000000000000000000000000000000000000000000000000000000 DUP2 MSTORE PUSH1 0x4 ADD PUSH2 0x148A SWAP1 PUSH2 0x35E1 JUMP JUMPDEST PUSH1 0x40 MLOAD DUP1 SWAP2 SUB SWAP1 REVERT JUMPDEST PUSH32 0x0 PUSH20 0xFFFFFFFFFFFFFFFFFFFFFFFFFFFFFFFFFFFFFFFF AND CALLER PUSH20 0xFFFFFFFFFFFFFFFFFFFFFFFFFFFFFFFFFFFFFFFF AND EQ DUP1 PUSH2 0x1548 JUMPI POP CALLER PUSH20 0xFFFFFFFFFFFFFFFFFFFFFFFFFFFFFFFFFFFFFFFF AND PUSH1 0x8 PUSH0 DUP7 DUP2 MSTORE PUSH1 0x20 ADD SWAP1 DUP2 MSTORE PUSH1 0x20 ADD PUSH0 KECCAK256 PUSH0 SWAP1 SLOAD SWAP1 PUSH2 0x100 EXP SWAP1 DIV PUSH20 0xFFFFFFFFFFFFFFFFFFFFFFFFFFFFFFFFFFFFFFFF AND PUSH20 0xFFFFFFFFFFFFFFFFFFFFFFFFFFFFFFFFFFFFFFFF AND EQ JUMPDEST PUSH2 0x1587 JUMPI PUSH1 0x40 MLOAD PUSH32 0x8C379A000000000000000000000000000000000000000000000000000000000 DUP2 MSTORE PUSH1 0x4 ADD PUSH2 0x157E SWAP1 PUSH2 0x3B3F JUMP JUMPDEST PUSH1 0x40 MLOAD DUP1 SWAP2 SUB SWAP1 REVERT JUMPDEST DUP3 PUSH1 0x6 PUSH0 DUP7 DUP2 MSTORE PUSH1 0x20 ADD SWAP1 DUP2 MSTORE PUSH1 0x20 ADD PUSH0 KECCAK256 PUSH1 0x4 ADD DUP2 SWAP1 SSTORE POP PUSH1 0x6 PUSH0 DUP6 DUP2 MSTORE PUSH1 0x20 ADD SWAP1 DUP2 MSTORE PUSH1 0x20 ADD PUSH0 KECCAK256 PUSH1 0x4 ADD SLOAD SWAP2 POP POP SWAP3 SWAP2 POP POP JUMP JUMPDEST PUSH0 PUSH1 0x5 PUSH0 DUP5 PUSH20 0xFFFFFFFFFFFFFFFFFFFFFFFFFFFFFFFFFFFFFFFF AND PUSH20 0xFFFFFFFFFFFFFFFFFFFFFFFFFFFFFFFFFFFFFFFF AND DUP2 MSTORE PUSH1 0x20 ADD SWAP1 DUP2 MSTORE PUSH1 0x20 ADD PUSH0 KECCAK256 PUSH0 DUP4 PUSH20 0xFFFFFFFFFFFFFFFFFFFFFFFFFFFFFFFFFFFFFFFF AND PUSH20 0xFFFFFFFFFFFFFFFFFFFFFFFFFFFFFFFFFFFFFFFF AND DUP2 MSTORE PUSH1 0x20 ADD SWAP1 DUP2 MSTORE PUSH1 0x20 ADD PUSH0 KECCAK256 PUSH0 SWAP1 SLOAD SWAP1 PUSH2 0x100 EXP SWAP1 DIV PUSH1 0xFF AND SWAP1 POP SWAP3 SWAP2 POP POP JUMP JUMPDEST PUSH2 0x1654 PUSH2 0x27C9 JUMP JUMPDEST DUP2 PUSH2 0x165D PUSH2 0xDC4 JUMP JUMPDEST DUP2 GT ISZERO PUSH2 0x169F JUMPI PUSH1 0x40 MLOAD PUSH32 0x8C379A000000000000000000000000000000000000000000000000000000000 DUP2 MSTORE PUSH1 0x4 ADD PUSH2 0x1696 SWAP1 PUSH2 0x38EA JUMP JUMPDEST PUSH1 0x40 MLOAD DUP1 SWAP2 SUB SWAP1 REVERT JUMPDEST PUSH1 0x6 PUSH0 DUP5 DUP2 MSTORE PUSH1 0x20 ADD SWAP1 DUP2 MSTORE PUSH1 0x20 ADD PUSH0 KECCAK256 PUSH1 0x40 MLOAD DUP1 PUSH1 0xA0 ADD PUSH1 0x40 MSTORE SWAP1 DUP2 PUSH0 DUP3 ADD DUP1 SLOAD PUSH2 0x16CA SWAP1 PUSH2 0x3230 JUMP JUMPDEST DUP1 PUSH1 0x1F ADD PUSH1 0x20 DUP1 SWAP2 DIV MUL PUSH1 0x20 ADD PUSH1 0x40 MLOAD SWAP1 DUP2 ADD PUSH1 0x40 MSTORE DUP1 SWAP3 SWAP2 SWAP1 DUP2 DUP2 MSTORE PUSH1 0x20 ADD DUP3 DUP1 SLOAD PUSH2 0x16F6 SWAP1 PUSH2 0x3230 JUMP JUMPDEST DUP1 ISZERO PUSH2 0x1741 JUMPI DUP1 PUSH1 0x1F LT PUSH2 0x1718 JUMPI PUSH2 0x100 DUP1 DUP4 SLOAD DIV MUL DUP4 MSTORE SWAP2 PUSH1 0x20 ADD SWAP2 PUSH2 0x1741 JUMP JUMPDEST DUP3 ADD SWAP2 SWAP1 PUSH0 MSTORE PUSH1 0x20 PUSH0 KECCAK256 SWAP1 JUMPDEST DUP2 SLOAD DUP2 MSTORE SWAP1 PUSH1 0x1 ADD SWAP1 PUSH1 0x20 ADD DUP1 DUP4 GT PUSH2 0x1724 JUMPI DUP3 SWAP1 SUB PUSH1 0x1F AND DUP3 ADD SWAP2 JUMPDEST POP POP POP POP POP DUP2 MSTORE PUSH1 0x20 ADD PUSH1 0x1 DUP3 ADD DUP1 SLOAD PUSH2 0x175A SWAP1 PUSH2 0x3230 JUMP JUMPDEST DUP1 PUSH1 0x1F ADD PUSH1 0x20 DUP1 SWAP2 DIV MUL PUSH1 0x20 ADD PUSH1 0x40 MLOAD SWAP1 DUP2 ADD PUSH1 0x40 MSTORE DUP1 SWAP3 SWAP2 SWAP1 DUP2 DUP2 MSTORE PUSH1 0x20 ADD DUP3 DUP1 SLOAD PUSH2 0x1786 SWAP1 PUSH2 0x3230 JUMP JUMPDEST DUP1 ISZERO PUSH2 0x17D1 JUMPI DUP1 PUSH1 0x1F LT PUSH2 0x17A8 JUMPI PUSH2 0x100 DUP1 DUP4 SLOAD DIV MUL DUP4 MSTORE SWAP2 PUSH1 0x20 ADD SWAP2 PUSH2 0x17D1 JUMP JUMPDEST DUP3 ADD SWAP2 SWAP1 PUSH0 MSTORE PUSH1 0x20 PUSH0 KECCAK256 SWAP1 JUMPDEST DUP2 SLOAD DUP2 MSTORE SWAP1 PUSH1 0x1 ADD SWAP1 PUSH1 0x20 ADD DUP1 DUP4 GT PUSH2 0x17B4 JUMPI DUP3 SWAP1 SUB PUSH1 0x1F AND DUP3 ADD SWAP2 JUMPDEST POP POP POP POP POP DUP2 MSTORE PUSH1 0x20 ADD PUSH1 0x2 DUP3 ADD PUSH0 SWAP1 SLOAD SWAP1 PUSH2 0x100 EXP SWAP1 DIV PUSH2 0xFFFF AND PUSH2 0xFFFF AND PUSH2 0xFFFF AND DUP2 MSTORE PUSH1 0x20 ADD PUSH1 0x3 DUP3 ADD SLOAD DUP2 MSTORE PUSH1 0x20 ADD PUSH1 0x4 DUP3 ADD SLOAD DUP2 MSTORE POP POP SWAP2 POP POP SWAP2 SWAP1 POP JUMP JUMPDEST CALLER PUSH20 0xFFFFFFFFFFFFFFFFFFFFFFFFFFFFFFFFFFFFFFFF AND PUSH1 0x8 PUSH0 DUP4 DUP2 MSTORE PUSH1 0x20 ADD SWAP1 DUP2 MSTORE PUSH1 0x20 ADD PUSH0 KECCAK256 PUSH0 SWAP1 SLOAD SWAP1 PUSH2 0x100 EXP SWAP1 DIV PUSH20 0xFFFFFFFFFFFFFFFFFFFFFFFFFFFFFFFFFFFFFFFF AND PUSH20 0xFFFFFFFFFFFFFFFFFFFFFFFFFFFFFFFFFFFFFFFF AND EQ PUSH2 0x18B3 JUMPI PUSH1 0x40 MLOAD PUSH32 0x8C379A000000000000000000000000000000000000000000000000000000000 DUP2 MSTORE PUSH1 0x4 ADD PUSH2 0x18AA SWAP1 PUSH2 0x3BCD JUMP JUMPDEST PUSH1 0x40 MLOAD DUP1 SWAP2 SUB SWAP1 REVERT JUMPDEST PUSH2 0x18E6 PUSH2 0x18BF DUP3 PUSH2 0x1DA0 JUMP JUMPDEST PUSH32 0x0 DUP4 PUSH2 0x21CE JUMP JUMPDEST PUSH0 PUSH1 0x8 PUSH0 DUP4 DUP2 MSTORE PUSH1 0x20 ADD SWAP1 DUP2 MSTORE PUSH1 0x20 ADD PUSH0 KECCAK256 PUSH0 PUSH2 0x100 EXP DUP2 SLOAD DUP2 PUSH20 0xFFFFFFFFFFFFFFFFFFFFFFFFFFFFFFFFFFFFFFFF MUL NOT AND SWAP1 DUP4 PUSH20 0xFFFFFFFFFFFFFFFFFFFFFFFFFFFFFFFFFFFFFFFF AND MUL OR SWAP1 SSTORE POP PUSH1 0x1 PUSH1 0x7 PUSH0 DUP4 DUP2 MSTORE PUSH1 0x20 ADD SWAP1 DUP2 MSTORE PUSH1 0x20 ADD PUSH0 KECCAK256 PUSH0 PUSH2 0x100 EXP DUP2 SLOAD DUP2 PUSH1 0xFF MUL NOT AND SWAP1 DUP4 ISZERO ISZERO MUL OR SWAP1 SSTORE POP POP JUMP JUMPDEST PUSH0 PUSH32 0x1FFC9A700000000000000000000000000000000000000000000000000000000 PUSH28 0xFFFFFFFFFFFFFFFFFFFFFFFFFFFFFFFFFFFFFFFFFFFFFFFFFFFFFFFF NOT AND DUP3 PUSH28 0xFFFFFFFFFFFFFFFFFFFFFFFFFFFFFFFFFFFFFFFFFFFFFFFFFFFFFFFF NOT AND EQ SWAP1 POP SWAP2 SWAP1 POP JUMP JUMPDEST PUSH0 DUP1 PUSH2 0x19D5 DUP4 PUSH2 0x1DA0 JUMP JUMPDEST SWAP1 POP PUSH0 PUSH20 0xFFFFFFFFFFFFFFFFFFFFFFFFFFFFFFFFFFFFFFFF AND DUP2 PUSH20 0xFFFFFFFFFFFFFFFFFFFFFFFFFFFFFFFFFFFFFFFF AND SUB PUSH2 0x1A47 JUMPI DUP3 PUSH1 0x40 MLOAD PUSH32 0x7E27328900000000000000000000000000000000000000000000000000000000 DUP2 MSTORE PUSH1 0x4 ADD PUSH2 0x1A3E SWAP2 SWAP1 PUSH2 0x2811 JUMP JUMPDEST PUSH1 0x40 MLOAD DUP1 SWAP2 SUB SWAP1 REVERT JUMPDEST DUP1 SWAP2 POP POP SWAP2 SWAP1 POP JUMP JUMPDEST PUSH0 PUSH1 0x4 PUSH0 DUP4 DUP2 MSTORE PUSH1 0x20 ADD SWAP1 DUP2 MSTORE PUSH1 0x20 ADD PUSH0 KECCAK256 PUSH0 SWAP1 SLOAD SWAP1 PUSH2 0x100 EXP SWAP1 DIV PUSH20 0xFFFFFFFFFFFFFFFFFFFFFFFFFFFFFFFFFFFFFFFF AND SWAP1 POP SWAP2 SWAP1 POP JUMP JUMPDEST PUSH0 CALLER SWAP1 POP SWAP1 JUMP JUMPDEST PUSH2 0x1A9D DUP4 DUP4 DUP4 PUSH1 0x1 PUSH2 0x2336 JUMP JUMPDEST POP POP POP JUMP JUMPDEST PUSH0 PUSH20 0xFFFFFFFFFFFFFFFFFFFFFFFFFFFFFFFFFFFFFFFF AND DUP3 PUSH20 0xFFFFFFFFFFFFFFFFFFFFFFFFFFFFFFFFFFFFFFFF AND SUB PUSH2 0x1B12 JUMPI PUSH0 PUSH1 0x40 MLOAD PUSH32 0x64A0AE9200000000000000000000000000000000000000000000000000000000 DUP2 MSTORE PUSH1 0x4 ADD PUSH2 0x1B09 SWAP2 SWAP1 PUSH2 0x2AA0 JUMP JUMPDEST PUSH1 0x40 MLOAD DUP1 SWAP2 SUB SWAP1 REVERT JUMPDEST PUSH0 PUSH2 0x1B1E DUP4 DUP4 PUSH0 PUSH2 0x1B95 JUMP JUMPDEST SWAP1 POP PUSH0 PUSH20 0xFFFFFFFFFFFFFFFFFFFFFFFFFFFFFFFFFFFFFFFF AND DUP2 PUSH20 0xFFFFFFFFFFFFFFFFFFFFFFFFFFFFFFFFFFFFFFFF AND EQ PUSH2 0x1B90 JUMPI PUSH0 PUSH1 0x40 MLOAD PUSH32 0x73C6AC6E00000000000000000000000000000000000000000000000000000000 DUP2 MSTORE PUSH1 0x4 ADD PUSH2 0x1B87 SWAP2 SWAP1 PUSH2 0x2AA0 JUMP JUMPDEST PUSH1 0x40 MLOAD DUP1 SWAP2 SUB SWAP1 REVERT JUMPDEST POP POP POP JUMP JUMPDEST PUSH0 DUP1 PUSH2 0x1BA0 DUP5 PUSH2 0x1DA0 JUMP JUMPDEST SWAP1 POP PUSH0 PUSH20 0xFFFFFFFFFFFFFFFFFFFFFFFFFFFFFFFFFFFFFFFF AND DUP4 PUSH20 0xFFFFFFFFFFFFFFFFFFFFFFFFFFFFFFFFFFFFFFFF AND EQ PUSH2 0x1BE1 JUMPI PUSH2 0x1BE0 DUP2 DUP5 DUP7 PUSH2 0x24F5 JUMP JUMPDEST JUMPDEST PUSH0 PUSH20 0xFFFFFFFFFFFFFFFFFFFFFFFFFFFFFFFFFFFFFFFF AND DUP2 PUSH20 0xFFFFFFFFFFFFFFFFFFFFFFFFFFFFFFFFFFFFFFFF AND EQ PUSH2 0x1C6C JUMPI PUSH2 0x1C20 PUSH0 DUP6 PUSH0 DUP1 PUSH2 0x2336 JUMP JUMPDEST PUSH1 0x1 PUSH1 0x3 PUSH0 DUP4 PUSH20 0xFFFFFFFFFFFFFFFFFFFFFFFFFFFFFFFFFFFFFFFF AND PUSH20 0xFFFFFFFFFFFFFFFFFFFFFFFFFFFFFFFFFFFFFFFF AND DUP2 MSTORE PUSH1 0x20 ADD SWAP1 DUP2 MSTORE PUSH1 0x20 ADD PUSH0 KECCAK256 PUSH0 DUP3 DUP3 SLOAD SUB SWAP3 POP POP DUP2 SWAP1 SSTORE POP JUMPDEST PUSH0 PUSH20 0xFFFFFFFFFFFFFFFFFFFFFFFFFFFFFFFFFFFFFFFF AND DUP6 PUSH20 0xFFFFFFFFFFFFFFFFFFFFFFFFFFFFFFFFFFFFFFFF AND EQ PUSH2 0x1CEB JUMPI PUSH1 0x1 PUSH1 0x3 PUSH0 DUP8 PUSH20 0xFFFFFFFFFFFFFFFFFFFFFFFFFFFFFFFFFFFFFFFF AND PUSH20 0xFFFFFFFFFFFFFFFFFFFFFFFFFFFFFFFFFFFFFFFF AND DUP2 MSTORE PUSH1 0x20 ADD SWAP1 DUP2 MSTORE PUSH1 0x20 ADD PUSH0 KECCAK256 PUSH0 DUP3 DUP3 SLOAD ADD SWAP3 POP POP DUP2 SWAP1 SSTORE POP JUMPDEST DUP5 PUSH1 0x2 PUSH0 DUP7 DUP2 MSTORE PUSH1 0x20 ADD SWAP1 DUP2 MSTORE PUSH1 0x20 ADD PUSH0 KECCAK256 PUSH0 PUSH2 0x100 EXP DUP2 SLOAD DUP2 PUSH20 0xFFFFFFFFFFFFFFFFFFFFFFFFFFFFFFFFFFFFFFFF MUL NOT AND SWAP1 DUP4 PUSH20 0xFFFFFFFFFFFFFFFFFFFFFFFFFFFFFFFFFFFFFFFF AND MUL OR SWAP1 SSTORE POP DUP4 DUP6 PUSH20 0xFFFFFFFFFFFFFFFFFFFFFFFFFFFFFFFFFFFFFFFF AND DUP3 PUSH20 0xFFFFFFFFFFFFFFFFFFFFFFFFFFFFFFFFFFFFFFFF AND PUSH32 0xDDF252AD1BE2C89B69C2B068FC378DAA952BA7F163C4A11628F55A4DF523B3EF PUSH1 0x40 MLOAD PUSH1 0x40 MLOAD DUP1 SWAP2 SUB SWAP1 LOG4 DUP1 SWAP2 POP POP SWAP4 SWAP3 POP POP POP JUMP JUMPDEST PUSH0 PUSH1 0x2 PUSH0 DUP4 DUP2 MSTORE PUSH1 0x20 ADD SWAP1 DUP2 MSTORE PUSH1 0x20 ADD PUSH0 KECCAK256 PUSH0 SWAP1 SLOAD SWAP1 PUSH2 0x100 EXP SWAP1 DIV PUSH20 0xFFFFFFFFFFFFFFFFFFFFFFFFFFFFFFFFFFFFFFFF AND SWAP1 POP SWAP2 SWAP1 POP JUMP JUMPDEST PUSH0 PUSH20 0xFFFFFFFFFFFFFFFFFFFFFFFFFFFFFFFFFFFFFFFF AND DUP3 PUSH20 0xFFFFFFFFFFFFFFFFFFFFFFFFFFFFFFFFFFFFFFFF AND SUB PUSH2 0x1E49 JUMPI DUP2 PUSH1 0x40 MLOAD PUSH32 0x5B08BA1800000000000000000000000000000000000000000000000000000000 DUP2 MSTORE PUSH1 0x4 ADD PUSH2 0x1E40 SWAP2 SWAP1 PUSH2 0x2AA0 JUMP JUMPDEST PUSH1 0x40 MLOAD DUP1 SWAP2 SUB SWAP1 REVERT JUMPDEST DUP1 PUSH1 0x5 PUSH0 DUP6 PUSH20 0xFFFFFFFFFFFFFFFFFFFFFFFFFFFFFFFFFFFFFFFF AND PUSH20 0xFFFFFFFFFFFFFFFFFFFFFFFFFFFFFFFFFFFFFFFF AND DUP2 MSTORE PUSH1 0x20 ADD SWAP1 DUP2 MSTORE PUSH1 0x20 ADD PUSH0 KECCAK256 PUSH0 DUP5 PUSH20 0xFFFFFFFFFFFFFFFFFFFFFFFFFFFFFFFFFFFFFFFF AND PUSH20 0xFFFFFFFFFFFFFFFFFFFFFFFFFFFFFFFFFFFFFFFF AND DUP2 MSTORE PUSH1 0x20 ADD SWAP1 DUP2 MSTORE PUSH1 0x20 ADD PUSH0 KECCAK256 PUSH0 PUSH2 0x100 EXP DUP2 SLOAD DUP2 PUSH1 0xFF MUL NOT AND SWAP1 DUP4 ISZERO ISZERO MUL OR SWAP1 SSTORE POP DUP2 PUSH20 0xFFFFFFFFFFFFFFFFFFFFFFFFFFFFFFFFFFFFFFFF AND DUP4 PUSH20 0xFFFFFFFFFFFFFFFFFFFFFFFFFFFFFFFFFFFFFFFF AND PUSH32 0x17307EAB39AB6107E8899845AD3D59BD9653F200F220920489CA2B5937696C31 DUP4 PUSH1 0x40 MLOAD PUSH2 0x1F35 SWAP2 SWAP1 PUSH2 0x2973 JUMP JUMPDEST PUSH1 0x40 MLOAD DUP1 SWAP2 SUB SWAP1 LOG3 POP POP POP JUMP JUMPDEST PUSH0 DUP4 PUSH20 0xFFFFFFFFFFFFFFFFFFFFFFFFFFFFFFFFFFFFFFFF AND EXTCODESIZE GT ISZERO PUSH2 0x20E7 JUMPI DUP3 PUSH20 0xFFFFFFFFFFFFFFFFFFFFFFFFFFFFFFFFFFFFFFFF AND PUSH4 0x150B7A02 DUP7 DUP7 DUP6 DUP6 PUSH1 0x40 MLOAD DUP6 PUSH4 0xFFFFFFFF AND PUSH1 0xE0 SHL DUP2 MSTORE PUSH1 0x4 ADD PUSH2 0x1FA0 SWAP5 SWAP4 SWAP3 SWAP2 SWAP1 PUSH2 0x3C3D JUMP JUMPDEST PUSH1 0x20 PUSH1 0x40 MLOAD DUP1 DUP4 SUB DUP2 PUSH0 DUP8 GAS CALL SWAP3 POP POP POP DUP1 ISZERO PUSH2 0x1FDB JUMPI POP PUSH1 0x40 MLOAD RETURNDATASIZE PUSH1 0x1F NOT PUSH1 0x1F DUP3 ADD AND DUP3 ADD DUP1 PUSH1 0x40 MSTORE POP DUP2 ADD SWAP1 PUSH2 0x1FD8 SWAP2 SWAP1 PUSH2 0x3C9B JUMP JUMPDEST PUSH1 0x1 JUMPDEST PUSH2 0x205C JUMPI RETURNDATASIZE DUP1 PUSH0 DUP2 EQ PUSH2 0x2009 JUMPI PUSH1 0x40 MLOAD SWAP2 POP PUSH1 0x1F NOT PUSH1 0x3F RETURNDATASIZE ADD AND DUP3 ADD PUSH1 0x40 MSTORE RETURNDATASIZE DUP3 MSTORE RETURNDATASIZE PUSH0 PUSH1 0x20 DUP5 ADD RETURNDATACOPY PUSH2 0x200E JUMP JUMPDEST PUSH1 0x60 SWAP2 POP JUMPDEST POP PUSH0 DUP2 MLOAD SUB PUSH2 0x2054 JUMPI DUP4 PUSH1 0x40 MLOAD PUSH32 0x64A0AE9200000000000000000000000000000000000000000000000000000000 DUP2 MSTORE PUSH1 0x4 ADD PUSH2 0x204B SWAP2 SWAP1 PUSH2 0x2AA0 JUMP JUMPDEST PUSH1 0x40 MLOAD DUP1 SWAP2 SUB SWAP1 REVERT JUMPDEST DUP1 MLOAD DUP2 PUSH1 0x20 ADD REVERT JUMPDEST PUSH4 0x150B7A02 PUSH1 0xE0 SHL PUSH28 0xFFFFFFFFFFFFFFFFFFFFFFFFFFFFFFFFFFFFFFFFFFFFFFFFFFFFFFFF NOT AND DUP2 PUSH28 0xFFFFFFFFFFFFFFFFFFFFFFFFFFFFFFFFFFFFFFFFFFFFFFFFFFFFFFFF NOT AND EQ PUSH2 0x20E5 JUMPI DUP4 PUSH1 0x40 MLOAD PUSH32 0x64A0AE9200000000000000000000000000000000000000000000000000000000 DUP2 MSTORE PUSH1 0x4 ADD PUSH2 0x20DC SWAP2 SWAP1 PUSH2 0x2AA0 JUMP JUMPDEST PUSH1 0x40 MLOAD DUP1 SWAP2 SUB SWAP1 REVERT JUMPDEST POP JUMPDEST POP POP POP POP POP JUMP JUMPDEST PUSH1 0x60 PUSH1 0x40 MLOAD DUP1 PUSH1 0x20 ADD PUSH1 0x40 MSTORE DUP1 PUSH0 DUP2 MSTORE POP SWAP1 POP SWAP1 JUMP JUMPDEST PUSH1 0x60 PUSH0 PUSH1 0x1 PUSH2 0x2112 DUP5 PUSH2 0x25B8 JUMP JUMPDEST ADD SWAP1 POP PUSH0 DUP2 PUSH8 0xFFFFFFFFFFFFFFFF DUP2 GT ISZERO PUSH2 0x2130 JUMPI PUSH2 0x212F PUSH2 0x2B29 JUMP JUMPDEST JUMPDEST PUSH1 0x40 MLOAD SWAP1 DUP1 DUP3 MSTORE DUP1 PUSH1 0x1F ADD PUSH1 0x1F NOT AND PUSH1 0x20 ADD DUP3 ADD PUSH1 0x40 MSTORE DUP1 ISZERO PUSH2 0x2162 JUMPI DUP2 PUSH1 0x20 ADD PUSH1 0x1 DUP3 MUL DUP1 CALLDATASIZE DUP4 CALLDATACOPY DUP1 DUP3 ADD SWAP2 POP POP SWAP1 POP JUMPDEST POP SWAP1 POP PUSH0 DUP3 PUSH1 0x20 ADD DUP3 ADD SWAP1 POP JUMPDEST PUSH1 0x1 ISZERO PUSH2 0x21C3 JUMPI DUP1 DUP1 PUSH1 0x1 SWAP1 SUB SWAP2 POP POP PUSH32 0x3031323334353637383961626364656600000000000000000000000000000000 PUSH1 0xA DUP7 MOD BYTE DUP2 MSTORE8 PUSH1 0xA DUP6 DUP2 PUSH2 0x21B8 JUMPI PUSH2 0x21B7 PUSH2 0x3398 JUMP JUMPDEST JUMPDEST DIV SWAP5 POP PUSH0 DUP6 SUB PUSH2 0x216F JUMPI JUMPDEST DUP2 SWAP4 POP POP POP POP SWAP2 SWAP1 POP JUMP JUMPDEST PUSH0 PUSH20 0xFFFFFFFFFFFFFFFFFFFFFFFFFFFFFFFFFFFFFFFF AND DUP3 PUSH20 0xFFFFFFFFFFFFFFFFFFFFFFFFFFFFFFFFFFFFFFFF AND SUB PUSH2 0x223E JUMPI PUSH0 PUSH1 0x40 MLOAD PUSH32 0x64A0AE9200000000000000000000000000000000000000000000000000000000 DUP2 MSTORE PUSH1 0x4 ADD PUSH2 0x2235 SWAP2 SWAP1 PUSH2 0x2AA0 JUMP JUMPDEST PUSH1 0x40 MLOAD DUP1 SWAP2 SUB SWAP1 REVERT JUMPDEST PUSH0 PUSH2 0x224A DUP4 DUP4 PUSH0 PUSH2 0x1B95 JUMP JUMPDEST SWAP1 POP PUSH0 PUSH20 0xFFFFFFFFFFFFFFFFFFFFFFFFFFFFFFFFFFFFFFFF AND DUP2 PUSH20 0xFFFFFFFFFFFFFFFFFFFFFFFFFFFFFFFFFFFFFFFF AND SUB PUSH2 0x22BC JUMPI DUP2 PUSH1 0x40 MLOAD PUSH32 0x7E27328900000000000000000000000000000000000000000000000000000000 DUP2 MSTORE PUSH1 0x4 ADD PUSH2 0x22B3 SWAP2 SWAP1 PUSH2 0x2811 JUMP JUMPDEST PUSH1 0x40 MLOAD DUP1 SWAP2 SUB SWAP1 REVERT JUMPDEST DUP4 PUSH20 0xFFFFFFFFFFFFFFFFFFFFFFFFFFFFFFFFFFFFFFFF AND DUP2 PUSH20 0xFFFFFFFFFFFFFFFFFFFFFFFFFFFFFFFFFFFFFFFF AND EQ PUSH2 0x2330 JUMPI DUP4 DUP3 DUP3 PUSH1 0x40 MLOAD PUSH32 0x64283D7B00000000000000000000000000000000000000000000000000000000 DUP2 MSTORE PUSH1 0x4 ADD PUSH2 0x2327 SWAP4 SWAP3 SWAP2 SWAP1 PUSH2 0x386B JUMP JUMPDEST PUSH1 0x40 MLOAD DUP1 SWAP2 SUB SWAP1 REVERT JUMPDEST POP POP POP POP JUMP JUMPDEST DUP1 DUP1 PUSH2 0x236E JUMPI POP PUSH0 PUSH20 0xFFFFFFFFFFFFFFFFFFFFFFFFFFFFFFFFFFFFFFFF AND DUP3 PUSH20 0xFFFFFFFFFFFFFFFFFFFFFFFFFFFFFFFFFFFFFFFF AND EQ ISZERO JUMPDEST ISZERO PUSH2 0x24A0 JUMPI PUSH0 PUSH2 0x237D DUP5 PUSH2 0x19CA JUMP JUMPDEST SWAP1 POP PUSH0 PUSH20 0xFFFFFFFFFFFFFFFFFFFFFFFFFFFFFFFFFFFFFFFF AND DUP4 PUSH20 0xFFFFFFFFFFFFFFFFFFFFFFFFFFFFFFFFFFFFFFFF AND EQ ISZERO DUP1 ISZERO PUSH2 0x23E7 JUMPI POP DUP3 PUSH20 0xFFFFFFFFFFFFFFFFFFFFFFFFFFFFFFFFFFFFFFFF AND DUP2 PUSH20 0xFFFFFFFFFFFFFFFFFFFFFFFFFFFFFFFFFFFFFFFF AND EQ ISZERO JUMPDEST DUP1 ISZERO PUSH2 0x23FA JUMPI POP PUSH2 0x23F8 DUP2 DUP5 PUSH2 0x15BE JUMP JUMPDEST ISZERO JUMPDEST ISZERO PUSH2 0x243C JUMPI DUP3 PUSH1 0x40 MLOAD PUSH32 0xA9FBF51F00000000000000000000000000000000000000000000000000000000 DUP2 MSTORE PUSH1 0x4 ADD PUSH2 0x2433 SWAP2 SWAP1 PUSH2 0x2AA0 JUMP JUMPDEST PUSH1 0x40 MLOAD DUP1 SWAP2 SUB SWAP1 REVERT JUMPDEST DUP2 ISZERO PUSH2 0x249E JUMPI DUP4 DUP6 PUSH20 0xFFFFFFFFFFFFFFFFFFFFFFFFFFFFFFFFFFFFFFFF AND DUP3 PUSH20 0xFFFFFFFFFFFFFFFFFFFFFFFFFFFFFFFFFFFFFFFF AND PUSH32 0x8C5BE1E5EBEC7D5BD14F71427D1E84F3DD0314C0F7B2291E5B200AC8C7C3B925 PUSH1 0x40 MLOAD PUSH1 0x40 MLOAD DUP1 SWAP2 SUB SWAP1 LOG4 JUMPDEST POP JUMPDEST DUP4 PUSH1 0x4 PUSH0 DUP6 DUP2 MSTORE PUSH1 0x20 ADD SWAP1 DUP2 MSTORE PUSH1 0x20 ADD PUSH0 KECCAK256 PUSH0 PUSH2 0x100 EXP DUP2 SLOAD DUP2 PUSH20 0xFFFFFFFFFFFFFFFFFFFFFFFFFFFFFFFFFFFFFFFF MUL NOT AND SWAP1 DUP4 PUSH20 0xFFFFFFFFFFFFFFFFFFFFFFFFFFFFFFFFFFFFFFFF AND MUL OR SWAP1 SSTORE POP POP POP POP POP JUMP JUMPDEST PUSH2 0x2500 DUP4 DUP4 DUP4 PUSH2 0x2709 JUMP JUMPDEST PUSH2 0x25B3 JUMPI PUSH0 PUSH20 0xFFFFFFFFFFFFFFFFFFFFFFFFFFFFFFFFFFFFFFFF AND DUP4 PUSH20 0xFFFFFFFFFFFFFFFFFFFFFFFFFFFFFFFFFFFFFFFF AND SUB PUSH2 0x2574 JUMPI DUP1 PUSH1 0x40 MLOAD PUSH32 0x7E27328900000000000000000000000000000000000000000000000000000000 DUP2 MSTORE PUSH1 0x4 ADD PUSH2 0x256B SWAP2 SWAP1 PUSH2 0x2811 JUMP JUMPDEST PUSH1 0x40 MLOAD DUP1 SWAP2 SUB SWAP1 REVERT JUMPDEST DUP2 DUP2 PUSH1 0x40 MLOAD PUSH32 0x177E802F00000000000000000000000000000000000000000000000000000000 DUP2 MSTORE PUSH1 0x4 ADD PUSH2 0x25AA SWAP3 SWAP2 SWAP1 PUSH2 0x3CC6 JUMP JUMPDEST PUSH1 0x40 MLOAD DUP1 SWAP2 SUB SWAP1 REVERT JUMPDEST POP POP POP JUMP JUMPDEST PUSH0 DUP1 PUSH0 SWAP1 POP PUSH27 0x184F03E93FF9F4DAA797ED6E38ED64BF6A1F010000000000000000 DUP4 LT PUSH2 0x2614 JUMPI PUSH27 0x184F03E93FF9F4DAA797ED6E38ED64BF6A1F010000000000000000 DUP4 DUP2 PUSH2 0x260A JUMPI PUSH2 0x2609 PUSH2 0x3398 JUMP JUMPDEST JUMPDEST DIV SWAP3 POP PUSH1 0x40 DUP2 ADD SWAP1 POP JUMPDEST PUSH14 0x4EE2D6D415B85ACEF8100000000 DUP4 LT PUSH2 0x2651 JUMPI PUSH14 0x4EE2D6D415B85ACEF8100000000 DUP4 DUP2 PUSH2 0x2647 JUMPI PUSH2 0x2646 PUSH2 0x3398 JUMP JUMPDEST JUMPDEST DIV SWAP3 POP PUSH1 0x20 DUP2 ADD SWAP1 POP JUMPDEST PUSH7 0x2386F26FC10000 DUP4 LT PUSH2 0x2680 JUMPI PUSH7 0x2386F26FC10000 DUP4 DUP2 PUSH2 0x2676 JUMPI PUSH2 0x2675 PUSH2 0x3398 JUMP JUMPDEST JUMPDEST DIV SWAP3 POP PUSH1 0x10 DUP2 ADD SWAP1 POP JUMPDEST PUSH4 0x5F5E100 DUP4 LT PUSH2 0x26A9 JUMPI PUSH4 0x5F5E100 DUP4 DUP2 PUSH2 0x269F JUMPI PUSH2 0x269E PUSH2 0x3398 JUMP JUMPDEST JUMPDEST DIV SWAP3 POP PUSH1 0x8 DUP2 ADD SWAP1 POP JUMPDEST PUSH2 0x2710 DUP4 LT PUSH2 0x26CE JUMPI PUSH2 0x2710 DUP4 DUP2 PUSH2 0x26C4 JUMPI PUSH2 0x26C3 PUSH2 0x3398 JUMP JUMPDEST JUMPDEST DIV SWAP3 POP PUSH1 0x4 DUP2 ADD SWAP1 POP JUMPDEST PUSH1 0x64 DUP4 LT PUSH2 0x26F1 JUMPI PUSH1 0x64 DUP4 DUP2 PUSH2 0x26E7 JUMPI PUSH2 0x26E6 PUSH2 0x3398 JUMP JUMPDEST JUMPDEST DIV SWAP3 POP PUSH1 0x2 DUP2 ADD SWAP1 POP JUMPDEST PUSH1 0xA DUP4 LT PUSH2 0x2700 JUMPI PUSH1 0x1 DUP2 ADD SWAP1 POP JUMPDEST DUP1 SWAP2 POP POP SWAP2 SWAP1 POP JUMP JUMPDEST PUSH0 DUP1 PUSH20 0xFFFFFFFFFFFFFFFFFFFFFFFFFFFFFFFFFFFFFFFF AND DUP4 PUSH20 0xFFFFFFFFFFFFFFFFFFFFFFFFFFFFFFFFFFFFFFFF AND EQ ISZERO DUP1 ISZERO PUSH2 0x27C0 JUMPI POP DUP3 PUSH20 0xFFFFFFFFFFFFFFFFFFFFFFFFFFFFFFFFFFFFFFFF AND DUP5 PUSH20 0xFFFFFFFFFFFFFFFFFFFFFFFFFFFFFFFFFFFFFFFF AND EQ DUP1 PUSH2 0x2781 JUMPI POP PUSH2 0x2780 DUP5 DUP5 PUSH2 0x15BE JUMP JUMPDEST JUMPDEST DUP1 PUSH2 0x27BF JUMPI POP DUP3 PUSH20 0xFFFFFFFFFFFFFFFFFFFFFFFFFFFFFFFFFFFFFFFF AND PUSH2 0x27A7 DUP4 PUSH2 0x1A50 JUMP JUMPDEST PUSH20 0xFFFFFFFFFFFFFFFFFFFFFFFFFFFFFFFFFFFFFFFF AND EQ JUMPDEST JUMPDEST SWAP1 POP SWAP4 SWAP3 POP POP POP JUMP JUMPDEST PUSH1 0x40 MLOAD DUP1 PUSH1 0xA0 ADD PUSH1 0x40 MSTORE DUP1 PUSH1 0x60 DUP2 MSTORE PUSH1 0x20 ADD PUSH1 0x60 DUP2 MSTORE PUSH1 0x20 ADD PUSH0 PUSH2 0xFFFF AND DUP2 MSTORE PUSH1 0x20 ADD PUSH0 DUP2 MSTORE PUSH1 0x20 ADD PUSH0 DUP2 MSTORE POP SWAP1 JUMP JUMPDEST PUSH0 DUP2 SWAP1 POP SWAP2 SWAP1 POP JUMP JUMPDEST PUSH2 0x280B DUP2 PUSH2 0x27F9 JUMP JUMPDEST DUP3 MSTORE POP POP JUMP JUMPDEST PUSH0 PUSH1 0x20 DUP3 ADD SWAP1 POP PUSH2 0x2824 PUSH0 DUP4 ADD DUP5 PUSH2 0x2802 JUMP JUMPDEST SWAP3 SWAP2 POP POP JUMP JUMPDEST PUSH0 DUP3 DUP3 MSTORE PUSH1 0x20 DUP3 ADD SWAP1 POP SWAP3 SWAP2 POP POP JUMP JUMPDEST PUSH32 0x4361724E46543A20556E7265636F676E697A65642066756E6374696F6E206361 PUSH0 DUP3 ADD MSTORE PUSH32 0x6C6C20776974686F757420457468657200000000000000000000000000000000 PUSH1 0x20 DUP3 ADD MSTORE POP JUMP JUMPDEST PUSH0 PUSH2 0x2894 PUSH1 0x30 DUP4 PUSH2 0x282A JUMP JUMPDEST SWAP2 POP PUSH2 0x289F DUP3 PUSH2 0x283A JUMP JUMPDEST PUSH1 0x40 DUP3 ADD SWAP1 POP SWAP2 SWAP1 POP JUMP JUMPDEST PUSH0 PUSH1 0x20 DUP3 ADD SWAP1 POP DUP2 DUP2 SUB PUSH0 DUP4 ADD MSTORE PUSH2 0x28C1 DUP2 PUSH2 0x2888 JUMP JUMPDEST SWAP1 POP SWAP2 SWAP1 POP JUMP JUMPDEST PUSH0 PUSH1 0x40 MLOAD SWAP1 POP SWAP1 JUMP JUMPDEST PUSH0 DUP1 REVERT JUMPDEST PUSH0 DUP1 REVERT JUMPDEST PUSH0 PUSH32 0xFFFFFFFF00000000000000000000000000000000000000000000000000000000 DUP3 AND SWAP1 POP SWAP2 SWAP1 POP JUMP JUMPDEST PUSH2 0x290D DUP2 PUSH2 0x28D9 JUMP JUMPDEST DUP2 EQ PUSH2 0x2917 JUMPI PUSH0 DUP1 REVERT JUMPDEST POP JUMP JUMPDEST PUSH0 DUP2 CALLDATALOAD SWAP1 POP PUSH2 0x2928 DUP2 PUSH2 0x2904 JUMP JUMPDEST SWAP3 SWAP2 POP POP JUMP JUMPDEST PUSH0 PUSH1 0x20 DUP3 DUP5 SUB SLT ISZERO PUSH2 0x2943 JUMPI PUSH2 0x2942 PUSH2 0x28D1 JUMP JUMPDEST JUMPDEST PUSH0 PUSH2 0x2950 DUP5 DUP3 DUP6 ADD PUSH2 0x291A JUMP JUMPDEST SWAP2 POP POP SWAP3 SWAP2 POP POP JUMP JUMPDEST PUSH0 DUP2 ISZERO ISZERO SWAP1 POP SWAP2 SWAP1 POP JUMP JUMPDEST PUSH2 0x296D DUP2 PUSH2 0x2959 JUMP JUMPDEST DUP3 MSTORE POP POP JUMP JUMPDEST PUSH0 PUSH1 0x20 DUP3 ADD SWAP1 POP PUSH2 0x2986 PUSH0 DUP4 ADD DUP5 PUSH2 0x2964 JUMP JUMPDEST SWAP3 SWAP2 POP POP JUMP JUMPDEST PUSH0 DUP2 MLOAD SWAP1 POP SWAP2 SWAP1 POP JUMP JUMPDEST DUP3 DUP2 DUP4 MCOPY PUSH0 DUP4 DUP4 ADD MSTORE POP POP POP JUMP JUMPDEST PUSH0 PUSH1 0x1F NOT PUSH1 0x1F DUP4 ADD AND SWAP1 POP SWAP2 SWAP1 POP JUMP JUMPDEST PUSH0 PUSH2 0x29BE DUP3 PUSH2 0x298C JUMP JUMPDEST PUSH2 0x29C8 DUP2 DUP6 PUSH2 0x282A JUMP JUMPDEST SWAP4 POP PUSH2 0x29D8 DUP2 DUP6 PUSH1 0x20 DUP7 ADD PUSH2 0x2996 JUMP JUMPDEST PUSH2 0x29E1 DUP2 PUSH2 0x29A4 JUMP JUMPDEST DUP5 ADD SWAP2 POP POP SWAP3 SWAP2 POP POP JUMP JUMPDEST PUSH0 PUSH1 0x20 DUP3 ADD SWAP1 POP DUP2 DUP2 SUB PUSH0 DUP4 ADD MSTORE PUSH2 0x2A04 DUP2 DUP5 PUSH2 0x29B4 JUMP JUMPDEST SWAP1 POP SWAP3 SWAP2 POP POP JUMP JUMPDEST PUSH2 0x2A15 DUP2 PUSH2 0x27F9 JUMP JUMPDEST DUP2 EQ PUSH2 0x2A1F JUMPI PUSH0 DUP1 REVERT JUMPDEST POP JUMP JUMPDEST PUSH0 DUP2 CALLDATALOAD SWAP1 POP PUSH2 0x2A30 DUP2 PUSH2 0x2A0C JUMP JUMPDEST SWAP3 SWAP2 POP POP JUMP JUMPDEST PUSH0 PUSH1 0x20 DUP3 DUP5 SUB SLT ISZERO PUSH2 0x2A4B JUMPI PUSH2 0x2A4A PUSH2 0x28D1 JUMP JUMPDEST JUMPDEST PUSH0 PUSH2 0x2A58 DUP5 DUP3 DUP6 ADD PUSH2 0x2A22 JUMP JUMPDEST SWAP2 POP POP SWAP3 SWAP2 POP POP JUMP JUMPDEST PUSH0 PUSH20 0xFFFFFFFFFFFFFFFFFFFFFFFFFFFFFFFFFFFFFFFF DUP3 AND SWAP1 POP SWAP2 SWAP1 POP JUMP JUMPDEST PUSH0 PUSH2 0x2A8A DUP3 PUSH2 0x2A61 JUMP JUMPDEST SWAP1 POP SWAP2 SWAP1 POP JUMP JUMPDEST PUSH2 0x2A9A DUP2 PUSH2 0x2A80 JUMP JUMPDEST DUP3 MSTORE POP POP JUMP JUMPDEST PUSH0 PUSH1 0x20 DUP3 ADD SWAP1 POP PUSH2 0x2AB3 PUSH0 DUP4 ADD DUP5 PUSH2 0x2A91 JUMP JUMPDEST SWAP3 SWAP2 POP POP JUMP JUMPDEST PUSH2 0x2AC2 DUP2 PUSH2 0x2A80 JUMP JUMPDEST DUP2 EQ PUSH2 0x2ACC JUMPI PUSH0 DUP1 REVERT JUMPDEST POP JUMP JUMPDEST PUSH0 DUP2 CALLDATALOAD SWAP1 POP PUSH2 0x2ADD DUP2 PUSH2 0x2AB9 JUMP JUMPDEST SWAP3 SWAP2 POP POP JUMP JUMPDEST PUSH0 DUP1 PUSH1 0x40 DUP4 DUP6 SUB SLT ISZERO PUSH2 0x2AF9 JUMPI PUSH2 0x2AF8 PUSH2 0x28D1 JUMP JUMPDEST JUMPDEST PUSH0 PUSH2 0x2B06 DUP6 DUP3 DUP7 ADD PUSH2 0x2ACF JUMP JUMPDEST SWAP3 POP POP PUSH1 0x20 PUSH2 0x2B17 DUP6 DUP3 DUP7 ADD PUSH2 0x2A22 JUMP JUMPDEST SWAP2 POP POP SWAP3 POP SWAP3 SWAP1 POP JUMP JUMPDEST PUSH0 DUP1 REVERT JUMPDEST PUSH0 DUP1 REVERT JUMPDEST PUSH32 0x4E487B7100000000000000000000000000000000000000000000000000000000 PUSH0 MSTORE PUSH1 0x41 PUSH1 0x4 MSTORE PUSH1 0x24 PUSH0 REVERT JUMPDEST PUSH2 0x2B5F DUP3 PUSH2 0x29A4 JUMP JUMPDEST DUP2 ADD DUP2 DUP2 LT PUSH8 0xFFFFFFFFFFFFFFFF DUP3 GT OR ISZERO PUSH2 0x2B7E JUMPI PUSH2 0x2B7D PUSH2 0x2B29 JUMP JUMPDEST JUMPDEST DUP1 PUSH1 0x40 MSTORE POP POP POP JUMP JUMPDEST PUSH0 PUSH2 0x2B90 PUSH2 0x28C8 JUMP JUMPDEST SWAP1 POP PUSH2 0x2B9C DUP3 DUP3 PUSH2 0x2B56 JUMP JUMPDEST SWAP2 SWAP1 POP JUMP JUMPDEST PUSH0 PUSH8 0xFFFFFFFFFFFFFFFF DUP3 GT ISZERO PUSH2 0x2BBB JUMPI PUSH2 0x2BBA PUSH2 0x2B29 JUMP JUMPDEST JUMPDEST PUSH2 0x2BC4 DUP3 PUSH2 0x29A4 JUMP JUMPDEST SWAP1 POP PUSH1 0x20 DUP2 ADD SWAP1 POP SWAP2 SWAP1 POP JUMP JUMPDEST DUP3 DUP2 DUP4 CALLDATACOPY PUSH0 DUP4 DUP4 ADD MSTORE POP POP POP JUMP JUMPDEST PUSH0 PUSH2 0x2BF1 PUSH2 0x2BEC DUP5 PUSH2 0x2BA1 JUMP JUMPDEST PUSH2 0x2B87 JUMP JUMPDEST SWAP1 POP DUP3 DUP2 MSTORE PUSH1 0x20 DUP2 ADD DUP5 DUP5 DUP5 ADD GT ISZERO PUSH2 0x2C0D JUMPI PUSH2 0x2C0C PUSH2 0x2B25 JUMP JUMPDEST JUMPDEST PUSH2 0x2C18 DUP5 DUP3 DUP6 PUSH2 0x2BD1 JUMP JUMPDEST POP SWAP4 SWAP3 POP POP POP JUMP JUMPDEST PUSH0 DUP3 PUSH1 0x1F DUP4 ADD SLT PUSH2 0x2C34 JUMPI PUSH2 0x2C33 PUSH2 0x2B21 JUMP JUMPDEST JUMPDEST DUP2 CALLDATALOAD PUSH2 0x2C44 DUP5 DUP3 PUSH1 0x20 DUP7 ADD PUSH2 0x2BDF JUMP JUMPDEST SWAP2 POP POP SWAP3 SWAP2 POP POP JUMP JUMPDEST PUSH0 PUSH2 0xFFFF DUP3 AND SWAP1 POP SWAP2 SWAP1 POP JUMP JUMPDEST PUSH2 0x2C63 DUP2 PUSH2 0x2C4D JUMP JUMPDEST DUP2 EQ PUSH2 0x2C6D JUMPI PUSH0 DUP1 REVERT JUMPDEST POP JUMP JUMPDEST PUSH0 DUP2 CALLDATALOAD SWAP1 POP PUSH2 0x2C7E DUP2 PUSH2 0x2C5A JUMP JUMPDEST SWAP3 SWAP2 POP POP JUMP JUMPDEST PUSH0 PUSH16 0xFFFFFFFFFFFFFFFFFFFFFFFFFFFFFFFF DUP3 AND SWAP1 POP SWAP2 SWAP1 POP JUMP JUMPDEST PUSH2 0x2CA8 DUP2 PUSH2 0x2C84 JUMP JUMPDEST DUP2 EQ PUSH2 0x2CB2 JUMPI PUSH0 DUP1 REVERT JUMPDEST POP JUMP JUMPDEST PUSH0 DUP2 CALLDATALOAD SWAP1 POP PUSH2 0x2CC3 DUP2 PUSH2 0x2C9F JUMP JUMPDEST SWAP3 SWAP2 POP POP JUMP JUMPDEST PUSH0 PUSH4 0xFFFFFFFF DUP3 AND SWAP1 POP SWAP2 SWAP1 POP JUMP JUMPDEST PUSH2 0x2CE1 DUP2 PUSH2 0x2CC9 JUMP JUMPDEST DUP2 EQ PUSH2 0x2CEB JUMPI PUSH0 DUP1 REVERT JUMPDEST POP JUMP JUMPDEST PUSH0 DUP2 CALLDATALOAD SWAP1 POP PUSH2 0x2CFC DUP2 PUSH2 0x2CD8 JUMP JUMPDEST SWAP3 SWAP2 POP POP JUMP JUMPDEST PUSH0 DUP1 PUSH0 DUP1 PUSH0 PUSH1 0xA0 DUP7 DUP9 SUB SLT ISZERO PUSH2 0x2D1B JUMPI PUSH2 0x2D1A PUSH2 0x28D1 JUMP JUMPDEST JUMPDEST PUSH0 DUP7 ADD CALLDATALOAD PUSH8 0xFFFFFFFFFFFFFFFF DUP2 GT ISZERO PUSH2 0x2D38 JUMPI PUSH2 0x2D37 PUSH2 0x28D5 JUMP JUMPDEST JUMPDEST PUSH2 0x2D44 DUP9 DUP3 DUP10 ADD PUSH2 0x2C20 JUMP JUMPDEST SWAP6 POP POP PUSH1 0x20 DUP7 ADD CALLDATALOAD PUSH8 0xFFFFFFFFFFFFFFFF DUP2 GT ISZERO PUSH2 0x2D65 JUMPI PUSH2 0x2D64 PUSH2 0x28D5 JUMP JUMPDEST JUMPDEST PUSH2 0x2D71 DUP9 DUP3 DUP10 ADD PUSH2 0x2C20 JUMP JUMPDEST SWAP5 POP POP PUSH1 0x40 PUSH2 0x2D82 DUP9 DUP3 DUP10 ADD PUSH2 0x2C70 JUMP JUMPDEST SWAP4 POP POP PUSH1 0x60 PUSH2 0x2D93 DUP9 DUP3 DUP10 ADD PUSH2 0x2CB5 JUMP JUMPDEST SWAP3 POP POP PUSH1 0x80 PUSH2 0x2DA4 DUP9 DUP3 DUP10 ADD PUSH2 0x2CEE JUMP JUMPDEST SWAP2 POP POP SWAP3 SWAP6 POP SWAP3 SWAP6 SWAP1 SWAP4 POP JUMP JUMPDEST PUSH0 DUP1 PUSH0 PUSH1 0x60 DUP5 DUP7 SUB SLT ISZERO PUSH2 0x2DC8 JUMPI PUSH2 0x2DC7 PUSH2 0x28D1 JUMP JUMPDEST JUMPDEST PUSH0 PUSH2 0x2DD5 DUP7 DUP3 DUP8 ADD PUSH2 0x2ACF JUMP JUMPDEST SWAP4 POP POP PUSH1 0x20 PUSH2 0x2DE6 DUP7 DUP3 DUP8 ADD PUSH2 0x2ACF JUMP JUMPDEST SWAP3 POP POP PUSH1 0x40 PUSH2 0x2DF7 DUP7 DUP3 DUP8 ADD PUSH2 0x2A22 JUMP JUMPDEST SWAP2 POP POP SWAP3 POP SWAP3 POP SWAP3 JUMP JUMPDEST PUSH0 PUSH1 0x20 DUP3 DUP5 SUB SLT ISZERO PUSH2 0x2E16 JUMPI PUSH2 0x2E15 PUSH2 0x28D1 JUMP JUMPDEST JUMPDEST PUSH0 PUSH2 0x2E23 DUP5 DUP3 DUP6 ADD PUSH2 0x2ACF JUMP JUMPDEST SWAP2 POP POP SWAP3 SWAP2 POP POP JUMP JUMPDEST PUSH2 0x2E35 DUP2 PUSH2 0x2959 JUMP JUMPDEST DUP2 EQ PUSH2 0x2E3F JUMPI PUSH0 DUP1 REVERT JUMPDEST POP JUMP JUMPDEST PUSH0 DUP2 CALLDATALOAD SWAP1 POP PUSH2 0x2E50 DUP2 PUSH2 0x2E2C JUMP JUMPDEST SWAP3 SWAP2 POP POP JUMP JUMPDEST PUSH0 DUP1 PUSH1 0x40 DUP4 DUP6 SUB SLT ISZERO PUSH2 0x2E6C JUMPI PUSH2 0x2E6B PUSH2 0x28D1 JUMP JUMPDEST JUMPDEST PUSH0 PUSH2 0x2E79 DUP6 DUP3 DUP7 ADD PUSH2 0x2ACF JUMP JUMPDEST SWAP3 POP POP PUSH1 0x20 PUSH2 0x2E8A DUP6 DUP3 DUP7 ADD PUSH2 0x2E42 JUMP JUMPDEST SWAP2 POP POP SWAP3 POP SWAP3 SWAP1 POP JUMP JUMPDEST PUSH0 PUSH8 0xFFFFFFFFFFFFFFFF DUP3 GT ISZERO PUSH2 0x2EAE JUMPI PUSH2 0x2EAD PUSH2 0x2B29 JUMP JUMPDEST JUMPDEST PUSH2 0x2EB7 DUP3 PUSH2 0x29A4 JUMP JUMPDEST SWAP1 POP PUSH1 0x20 DUP2 ADD SWAP1 POP SWAP2 SWAP1 POP JUMP JUMPDEST PUSH0 PUSH2 0x2ED6 PUSH2 0x2ED1 DUP5 PUSH2 0x2E94 JUMP JUMPDEST PUSH2 0x2B87 JUMP JUMPDEST SWAP1 POP DUP3 DUP2 MSTORE PUSH1 0x20 DUP2 ADD DUP5 DUP5 DUP5 ADD GT ISZERO PUSH2 0x2EF2 JUMPI PUSH2 0x2EF1 PUSH2 0x2B25 JUMP JUMPDEST JUMPDEST PUSH2 0x2EFD DUP5 DUP3 DUP6 PUSH2 0x2BD1 JUMP JUMPDEST POP SWAP4 SWAP3 POP POP POP JUMP JUMPDEST PUSH0 DUP3 PUSH1 0x1F DUP4 ADD SLT PUSH2 0x2F19 JUMPI PUSH2 0x2F18 PUSH2 0x2B21 JUMP JUMPDEST JUMPDEST DUP2 CALLDATALOAD PUSH2 0x2F29 DUP5 DUP3 PUSH1 0x20 DUP7 ADD PUSH2 0x2EC4 JUMP JUMPDEST SWAP2 POP POP SWAP3 SWAP2 POP POP JUMP JUMPDEST PUSH0 DUP1 PUSH0 DUP1 PUSH1 0x80 DUP6 DUP8 SUB SLT ISZERO PUSH2 0x2F4A JUMPI PUSH2 0x2F49 PUSH2 0x28D1 JUMP JUMPDEST JUMPDEST PUSH0 PUSH2 0x2F57 DUP8 DUP3 DUP9 ADD PUSH2 0x2ACF JUMP JUMPDEST SWAP5 POP POP PUSH1 0x20 PUSH2 0x2F68 DUP8 DUP3 DUP9 ADD PUSH2 0x2ACF JUMP JUMPDEST SWAP4 POP POP PUSH1 0x40 PUSH2 0x2F79 DUP8 DUP3 DUP9 ADD PUSH2 0x2A22 JUMP JUMPDEST SWAP3 POP POP PUSH1 0x60 DUP6 ADD CALLDATALOAD PUSH8 0xFFFFFFFFFFFFFFFF DUP2 GT ISZERO PUSH2 0x2F9A JUMPI PUSH2 0x2F99 PUSH2 0x28D5 JUMP JUMPDEST JUMPDEST PUSH2 0x2FA6 DUP8 DUP3 DUP9 ADD PUSH2 0x2F05 JUMP JUMPDEST SWAP2 POP POP SWAP3 SWAP6 SWAP2 SWAP5 POP SWAP3 POP JUMP JUMPDEST PUSH0 PUSH1 0xFF DUP3 AND SWAP1 POP SWAP2 SWAP1 POP JUMP JUMPDEST PUSH2 0x2FC7 DUP2 PUSH2 0x2FB2 JUMP JUMPDEST DUP2 EQ PUSH2 0x2FD1 JUMPI PUSH0 DUP1 REVERT JUMPDEST POP JUMP JUMPDEST PUSH0 DUP2 CALLDATALOAD SWAP1 POP PUSH2 0x2FE2 DUP2 PUSH2 0x2FBE JUMP JUMPDEST SWAP3 SWAP2 POP POP JUMP JUMPDEST PUSH0 DUP1 PUSH0 DUP1 PUSH0 PUSH1 0xA0 DUP7 DUP9 SUB SLT ISZERO PUSH2 0x3001 JUMPI PUSH2 0x3000 PUSH2 0x28D1 JUMP JUMPDEST JUMPDEST PUSH0 PUSH2 0x300E DUP9 DUP3 DUP10 ADD PUSH2 0x2A22 JUMP JUMPDEST SWAP6 POP POP PUSH1 0x20 PUSH2 0x301F DUP9 DUP3 DUP10 ADD PUSH2 0x2A22 JUMP JUMPDEST SWAP5 POP POP PUSH1 0x40 PUSH2 0x3030 DUP9 DUP3 DUP10 ADD PUSH2 0x2FD4 JUMP JUMPDEST SWAP4 POP POP PUSH1 0x60 PUSH2 0x3041 DUP9 DUP3 DUP10 ADD PUSH2 0x2A22 JUMP JUMPDEST SWAP3 POP POP PUSH1 0x80 PUSH2 0x3052 DUP9 DUP3 DUP10 ADD PUSH2 0x2A22 JUMP JUMPDEST SWAP2 POP POP SWAP3 SWAP6 POP SWAP3 SWAP6 SWAP1 SWAP4 POP JUMP JUMPDEST PUSH2 0x3068 DUP2 PUSH2 0x2C84 JUMP JUMPDEST DUP3 MSTORE POP POP JUMP JUMPDEST PUSH0 PUSH1 0x20 DUP3 ADD SWAP1 POP PUSH2 0x3081 PUSH0 DUP4 ADD DUP5 PUSH2 0x305F JUMP JUMPDEST SWAP3 SWAP2 POP POP JUMP JUMPDEST PUSH0 DUP1 PUSH1 0x40 DUP4 DUP6 SUB SLT ISZERO PUSH2 0x309D JUMPI PUSH2 0x309C PUSH2 0x28D1 JUMP JUMPDEST JUMPDEST PUSH0 PUSH2 0x30AA DUP6 DUP3 DUP7 ADD PUSH2 0x2A22 JUMP JUMPDEST SWAP3 POP POP PUSH1 0x20 PUSH2 0x30BB DUP6 DUP3 DUP7 ADD PUSH2 0x2A22 JUMP JUMPDEST SWAP2 POP POP SWAP3 POP SWAP3 SWAP1 POP JUMP JUMPDEST PUSH0 DUP1 PUSH1 0x40 DUP4 DUP6 SUB SLT ISZERO PUSH2 0x30DB JUMPI PUSH2 0x30DA PUSH2 0x28D1 JUMP JUMPDEST JUMPDEST PUSH0 PUSH2 0x30E8 DUP6 DUP3 DUP7 ADD PUSH2 0x2ACF JUMP JUMPDEST SWAP3 POP POP PUSH1 0x20 PUSH2 0x30F9 DUP6 DUP3 DUP7 ADD PUSH2 0x2ACF JUMP JUMPDEST SWAP2 POP POP SWAP3 POP SWAP3 SWAP1 POP JUMP JUMPDEST PUSH0 DUP3 DUP3 MSTORE PUSH1 0x20 DUP3 ADD SWAP1 POP SWAP3 SWAP2 POP POP JUMP JUMPDEST PUSH0 PUSH2 0x311D DUP3 PUSH2 0x298C JUMP JUMPDEST PUSH2 0x3127 DUP2 DUP6 PUSH2 0x3103 JUMP JUMPDEST SWAP4 POP PUSH2 0x3137 DUP2 DUP6 PUSH1 0x20 DUP7 ADD PUSH2 0x2996 JUMP JUMPDEST PUSH2 0x3140 DUP2 PUSH2 0x29A4 JUMP JUMPDEST DUP5 ADD SWAP2 POP POP SWAP3 SWAP2 POP POP JUMP JUMPDEST PUSH2 0x3154 DUP2 PUSH2 0x2C4D JUMP JUMPDEST DUP3 MSTORE POP POP JUMP JUMPDEST PUSH2 0x3163 DUP2 PUSH2 0x27F9 JUMP JUMPDEST DUP3 MSTORE POP POP JUMP JUMPDEST PUSH0 PUSH1 0xA0 DUP4 ADD PUSH0 DUP4 ADD MLOAD DUP5 DUP3 SUB PUSH0 DUP7 ADD MSTORE PUSH2 0x3183 DUP3 DUP3 PUSH2 0x3113 JUMP JUMPDEST SWAP2 POP POP PUSH1 0x20 DUP4 ADD MLOAD DUP5 DUP3 SUB PUSH1 0x20 DUP7 ADD MSTORE PUSH2 0x319D DUP3 DUP3 PUSH2 0x3113 JUMP JUMPDEST SWAP2 POP POP PUSH1 0x40 DUP4 ADD MLOAD PUSH2 0x31B2 PUSH1 0x40 DUP7 ADD DUP3 PUSH2 0x314B JUMP JUMPDEST POP PUSH1 0x60 DUP4 ADD MLOAD PUSH2 0x31C5 PUSH1 0x60 DUP7 ADD DUP3 PUSH2 0x315A JUMP JUMPDEST POP PUSH1 0x80 DUP4 ADD MLOAD PUSH2 0x31D8 PUSH1 0x80 DUP7 ADD DUP3 PUSH2 0x315A JUMP JUMPDEST POP DUP1 SWAP2 POP POP SWAP3 SWAP2 POP POP JUMP JUMPDEST PUSH0 PUSH1 0x20 DUP3 ADD SWAP1 POP DUP2 DUP2 SUB PUSH0 DUP4 ADD MSTORE PUSH2 0x31FB DUP2 DUP5 PUSH2 0x3169 JUMP JUMPDEST SWAP1 POP SWAP3 SWAP2 POP POP JUMP JUMPDEST PUSH32 0x4E487B7100000000000000000000000000000000000000000000000000000000 PUSH0 MSTORE PUSH1 0x22 PUSH1 0x4 MSTORE PUSH1 0x24 PUSH0 REVERT JUMPDEST PUSH0 PUSH1 0x2 DUP3 DIV SWAP1 POP PUSH1 0x1 DUP3 AND DUP1 PUSH2 0x3247 JUMPI PUSH1 0x7F DUP3 AND SWAP2 POP JUMPDEST PUSH1 0x20 DUP3 LT DUP2 SUB PUSH2 0x325A JUMPI PUSH2 0x3259 PUSH2 0x3203 JUMP JUMPDEST JUMPDEST POP SWAP2 SWAP1 POP JUMP JUMPDEST PUSH32 0x4361724E46543A20596F75206E65656420746F206265206F776E657200000000 PUSH0 DUP3 ADD MSTORE POP JUMP JUMPDEST PUSH0 PUSH2 0x3294 PUSH1 0x1C DUP4 PUSH2 0x282A JUMP JUMPDEST SWAP2 POP PUSH2 0x329F DUP3 PUSH2 0x3260 JUMP JUMPDEST PUSH1 0x20 DUP3 ADD SWAP1 POP SWAP2 SWAP1 POP JUMP JUMPDEST PUSH0 PUSH1 0x20 DUP3 ADD SWAP1 POP DUP2 DUP2 SUB PUSH0 DUP4 ADD MSTORE PUSH2 0x32C1 DUP2 PUSH2 0x3288 JUMP JUMPDEST SWAP1 POP SWAP2 SWAP1 POP JUMP JUMPDEST PUSH32 0x4361724E46543A204D6F64656C2063616E6E6F7420626520656D707479000000 PUSH0 DUP3 ADD MSTORE POP JUMP JUMPDEST PUSH0 PUSH2 0x32FC PUSH1 0x1D DUP4 PUSH2 0x282A JUMP JUMPDEST SWAP2 POP PUSH2 0x3307 DUP3 PUSH2 0x32C8 JUMP JUMPDEST PUSH1 0x20 DUP3 ADD SWAP1 POP SWAP2 SWAP1 POP JUMP JUMPDEST PUSH0 PUSH1 0x20 DUP3 ADD SWAP1 POP DUP2 DUP2 SUB PUSH0 DUP4 ADD MSTORE PUSH2 0x3329 DUP2 PUSH2 0x32F0 JUMP JUMPDEST SWAP1 POP SWAP2 SWAP1 POP JUMP JUMPDEST PUSH32 0x4361724E46543A20436F6C6F722063616E6E6F7420626520656D707479000000 PUSH0 DUP3 ADD MSTORE POP JUMP JUMPDEST PUSH0 PUSH2 0x3364 PUSH1 0x1D DUP4 PUSH2 0x282A JUMP JUMPDEST SWAP2 POP PUSH2 0x336F DUP3 PUSH2 0x3330 JUMP JUMPDEST PUSH1 0x20 DUP3 ADD SWAP1 POP SWAP2 SWAP1 POP JUMP JUMPDEST PUSH0 PUSH1 0x20 DUP3 ADD SWAP1 POP DUP2 DUP2 SUB PUSH0 DUP4 ADD MSTORE PUSH2 0x3391 DUP2 PUSH2 0x3358 JUMP JUMPDEST SWAP1 POP SWAP2 SWAP1 POP JUMP JUMPDEST PUSH32 0x4E487B7100000000000000000000000000000000000000000000000000000000 PUSH0 MSTORE PUSH1 0x12 PUSH1 0x4 MSTORE PUSH1 0x24 PUSH0 REVERT JUMPDEST PUSH32 0x4E487B7100000000000000000000000000000000000000000000000000000000 PUSH0 MSTORE PUSH1 0x11 PUSH1 0x4 MSTORE PUSH1 0x24 PUSH0 REVERT JUMPDEST PUSH0 PUSH2 0x33FC DUP3 PUSH2 0x27F9 JUMP JUMPDEST SWAP2 POP PUSH2 0x3407 DUP4 PUSH2 0x27F9 JUMP JUMPDEST SWAP3 POP DUP3 PUSH2 0x3417 JUMPI PUSH2 0x3416 PUSH2 0x3398 JUMP JUMPDEST JUMPDEST DUP3 DUP3 DIV SWAP1 POP SWAP3 SWAP2 POP POP JUMP JUMPDEST PUSH0 PUSH2 0x342C DUP3 PUSH2 0x27F9 JUMP JUMPDEST SWAP2 POP PUSH2 0x3437 DUP4 PUSH2 0x27F9 JUMP JUMPDEST SWAP3 POP DUP3 DUP3 ADD SWAP1 POP DUP1 DUP3 GT ISZERO PUSH2 0x344F JUMPI PUSH2 0x344E PUSH2 0x33C5 JUMP JUMPDEST JUMPDEST SWAP3 SWAP2 POP POP JUMP JUMPDEST PUSH32 0x4361724E46543A20496E76616C69642079656172206F66206D6174726963756C PUSH0 DUP3 ADD MSTORE PUSH32 0x6174696F6E000000000000000000000000000000000000000000000000000000 PUSH1 0x20 DUP3 ADD MSTORE POP JUMP JUMPDEST PUSH0 PUSH2 0x34AF PUSH1 0x25 DUP4 PUSH2 0x282A JUMP JUMPDEST SWAP2 POP PUSH2 0x34BA DUP3 PUSH2 0x3455 JUMP JUMPDEST PUSH1 0x40 DUP3 ADD SWAP1 POP SWAP2 SWAP1 POP JUMP JUMPDEST PUSH0 PUSH1 0x20 DUP3 ADD SWAP1 POP DUP2 DUP2 SUB PUSH0 DUP4 ADD MSTORE PUSH2 0x34DC DUP2 PUSH2 0x34A3 JUMP JUMPDEST SWAP1 POP SWAP2 SWAP1 POP JUMP JUMPDEST PUSH32 0x4361724E46543A204F726967696E616C2076616C7565206D7573742062652067 PUSH0 DUP3 ADD MSTORE PUSH32 0x726561746572207468616E207A65726F00000000000000000000000000000000 PUSH1 0x20 DUP3 ADD MSTORE POP JUMP JUMPDEST PUSH0 PUSH2 0x353D PUSH1 0x30 DUP4 PUSH2 0x282A JUMP JUMPDEST SWAP2 POP PUSH2 0x3548 DUP3 PUSH2 0x34E3 JUMP JUMPDEST PUSH1 0x40 DUP3 ADD SWAP1 POP SWAP2 SWAP1 POP JUMP JUMPDEST PUSH0 PUSH1 0x20 DUP3 ADD SWAP1 POP DUP2 DUP2 SUB PUSH0 DUP4 ADD MSTORE PUSH2 0x356A DUP2 PUSH2 0x3531 JUMP JUMPDEST SWAP1 POP SWAP2 SWAP1 POP JUMP JUMPDEST PUSH32 0x4361724E46543A204D696C656167652063616E6E6F74206265206E6567617469 PUSH0 DUP3 ADD MSTORE PUSH32 0x7665000000000000000000000000000000000000000000000000000000000000 PUSH1 0x20 DUP3 ADD MSTORE POP JUMP JUMPDEST PUSH0 PUSH2 0x35CB PUSH1 0x22 DUP4 PUSH2 0x282A JUMP JUMPDEST SWAP2 POP PUSH2 0x35D6 DUP3 PUSH2 0x3571 JUMP JUMPDEST PUSH1 0x40 DUP3 ADD SWAP1 POP SWAP2 SWAP1 POP JUMP JUMPDEST PUSH0 PUSH1 0x20 DUP3 ADD SWAP1 POP DUP2 DUP2 SUB PUSH0 DUP4 ADD MSTORE PUSH2 0x35F8 DUP2 PUSH2 0x35BF JUMP JUMPDEST SWAP1 POP SWAP2 SWAP1 POP JUMP JUMPDEST PUSH0 DUP2 SWAP1 POP DUP2 PUSH0 MSTORE PUSH1 0x20 PUSH0 KECCAK256 SWAP1 POP SWAP2 SWAP1 POP JUMP JUMPDEST PUSH0 PUSH1 0x20 PUSH1 0x1F DUP4 ADD DIV SWAP1 POP SWAP2 SWAP1 POP JUMP JUMPDEST PUSH0 DUP3 DUP3 SHL SWAP1 POP SWAP3 SWAP2 POP POP JUMP JUMPDEST PUSH0 PUSH1 0x8 DUP4 MUL PUSH2 0x365B PUSH32 0xFFFFFFFFFFFFFFFFFFFFFFFFFFFFFFFFFFFFFFFFFFFFFFFFFFFFFFFFFFFFFFFF DUP3 PUSH2 0x3620 JUMP JUMPDEST PUSH2 0x3665 DUP7 DUP4 PUSH2 0x3620 JUMP JUMPDEST SWAP6 POP DUP1 NOT DUP5 AND SWAP4 POP DUP1 DUP7 AND DUP5 OR SWAP3 POP POP POP SWAP4 SWAP3 POP POP POP JUMP JUMPDEST PUSH0 DUP2 SWAP1 POP SWAP2 SWAP1 POP JUMP JUMPDEST PUSH0 PUSH2 0x36A0 PUSH2 0x369B PUSH2 0x3696 DUP5 PUSH2 0x27F9 JUMP JUMPDEST PUSH2 0x367D JUMP JUMPDEST PUSH2 0x27F9 JUMP JUMPDEST SWAP1 POP SWAP2 SWAP1 POP JUMP JUMPDEST PUSH0 DUP2 SWAP1 POP SWAP2 SWAP1 POP JUMP JUMPDEST PUSH2 0x36B9 DUP4 PUSH2 0x3686 JUMP JUMPDEST PUSH2 0x36CD PUSH2 0x36C5 DUP3 PUSH2 0x36A7 JUMP JUMPDEST DUP5 DUP5 SLOAD PUSH2 0x362C JUMP JUMPDEST DUP3 SSTORE POP POP POP POP JUMP JUMPDEST PUSH0 SWAP1 JUMP JUMPDEST PUSH2 0x36E1 PUSH2 0x36D5 JUMP JUMPDEST PUSH2 0x36EC DUP2 DUP5 DUP5 PUSH2 0x36B0 JUMP JUMPDEST POP POP POP JUMP JUMPDEST JUMPDEST DUP2 DUP2 LT ISZERO PUSH2 0x370F JUMPI PUSH2 0x3704 PUSH0 DUP3 PUSH2 0x36D9 JUMP JUMPDEST PUSH1 0x1 DUP2 ADD SWAP1 POP PUSH2 0x36F2 JUMP JUMPDEST POP POP JUMP JUMPDEST PUSH1 0x1F DUP3 GT ISZERO PUSH2 0x3754 JUMPI PUSH2 0x3725 DUP2 PUSH2 0x35FF JUMP JUMPDEST PUSH2 0x372E DUP5 PUSH2 0x3611 JUMP JUMPDEST DUP2 ADD PUSH1 0x20 DUP6 LT ISZERO PUSH2 0x373D JUMPI DUP2 SWAP1 POP JUMPDEST PUSH2 0x3751 PUSH2 0x3749 DUP6 PUSH2 0x3611 JUMP JUMPDEST DUP4 ADD DUP3 PUSH2 0x36F1 JUMP JUMPDEST POP POP JUMPDEST POP POP POP JUMP JUMPDEST PUSH0 DUP3 DUP3 SHR SWAP1 POP SWAP3 SWAP2 POP POP JUMP JUMPDEST PUSH0 PUSH2 0x3774 PUSH0 NOT DUP5 PUSH1 0x8 MUL PUSH2 0x3759 JUMP JUMPDEST NOT DUP1 DUP4 AND SWAP2 POP POP SWAP3 SWAP2 POP POP JUMP JUMPDEST PUSH0 PUSH2 0x378C DUP4 DUP4 PUSH2 0x3765 JUMP JUMPDEST SWAP2 POP DUP3 PUSH1 0x2 MUL DUP3 OR SWAP1 POP SWAP3 SWAP2 POP POP JUMP JUMPDEST PUSH2 0x37A5 DUP3 PUSH2 0x298C JUMP JUMPDEST PUSH8 0xFFFFFFFFFFFFFFFF DUP2 GT ISZERO PUSH2 0x37BE JUMPI PUSH2 0x37BD PUSH2 0x2B29 JUMP JUMPDEST JUMPDEST PUSH2 0x37C8 DUP3 SLOAD PUSH2 0x3230 JUMP JUMPDEST PUSH2 0x37D3 DUP3 DUP3 DUP6 PUSH2 0x3713 JUMP JUMPDEST PUSH0 PUSH1 0x20 SWAP1 POP PUSH1 0x1F DUP4 GT PUSH1 0x1 DUP2 EQ PUSH2 0x3804 JUMPI PUSH0 DUP5 ISZERO PUSH2 0x37F2 JUMPI DUP3 DUP8 ADD MLOAD SWAP1 POP JUMPDEST PUSH2 0x37FC DUP6 DUP3 PUSH2 0x3781 JUMP JUMPDEST DUP7 SSTORE POP PUSH2 0x3863 JUMP JUMPDEST PUSH1 0x1F NOT DUP5 AND PUSH2 0x3812 DUP7 PUSH2 0x35FF JUMP JUMPDEST PUSH0 JUMPDEST DUP3 DUP2 LT ISZERO PUSH2 0x3839 JUMPI DUP5 DUP10 ADD MLOAD DUP3 SSTORE PUSH1 0x1 DUP3 ADD SWAP2 POP PUSH1 0x20 DUP6 ADD SWAP5 POP PUSH1 0x20 DUP2 ADD SWAP1 POP PUSH2 0x3814 JUMP JUMPDEST DUP7 DUP4 LT ISZERO PUSH2 0x3856 JUMPI DUP5 DUP10 ADD MLOAD PUSH2 0x3852 PUSH1 0x1F DUP10 AND DUP3 PUSH2 0x3765 JUMP JUMPDEST DUP4 SSTORE POP JUMPDEST PUSH1 0x1 PUSH1 0x2 DUP9 MUL ADD DUP9 SSTORE POP POP POP JUMPDEST POP POP POP POP POP POP JUMP JUMPDEST PUSH0 PUSH1 0x60 DUP3 ADD SWAP1 POP PUSH2 0x387E PUSH0 DUP4 ADD DUP7 PUSH2 0x2A91 JUMP JUMPDEST PUSH2 0x388B PUSH1 0x20 DUP4 ADD DUP6 PUSH2 0x2802 JUMP JUMPDEST PUSH2 0x3898 PUSH1 0x40 DUP4 ADD DUP5 PUSH2 0x2A91 JUMP JUMPDEST SWAP5 SWAP4 POP POP POP POP JUMP JUMPDEST PUSH32 0x4361724E46543A2043617220646F6573206E6F74206578697374000000000000 PUSH0 DUP3 ADD MSTORE POP JUMP JUMPDEST PUSH0 PUSH2 0x38D4 PUSH1 0x1A DUP4 PUSH2 0x282A JUMP JUMPDEST SWAP2 POP PUSH2 0x38DF DUP3 PUSH2 0x38A0 JUMP JUMPDEST PUSH1 0x20 DUP3 ADD SWAP1 POP SWAP2 SWAP1 POP JUMP JUMPDEST PUSH0 PUSH1 0x20 DUP3 ADD SWAP1 POP DUP2 DUP2 SUB PUSH0 DUP4 ADD MSTORE PUSH2 0x3901 DUP2 PUSH2 0x38C8 JUMP JUMPDEST SWAP1 POP SWAP2 SWAP1 POP JUMP JUMPDEST PUSH32 0x4361724E46543A2054686973206361722069736E277420617661696C61626C65 PUSH0 DUP3 ADD MSTORE PUSH32 0x20666F72206C6561736500000000000000000000000000000000000000000000 PUSH1 0x20 DUP3 ADD MSTORE POP JUMP JUMPDEST PUSH0 PUSH2 0x3962 PUSH1 0x2A DUP4 PUSH2 0x282A JUMP JUMPDEST SWAP2 POP PUSH2 0x396D DUP3 PUSH2 0x3908 JUMP JUMPDEST PUSH1 0x40 DUP3 ADD SWAP1 POP SWAP2 SWAP1 POP JUMP JUMPDEST PUSH0 PUSH1 0x20 DUP3 ADD SWAP1 POP DUP2 DUP2 SUB PUSH0 DUP4 ADD MSTORE PUSH2 0x398F DUP2 PUSH2 0x3956 JUMP JUMPDEST SWAP1 POP SWAP2 SWAP1 POP JUMP JUMPDEST PUSH32 0x4361724E46543A2043617220616C7265616479206C6561736564000000000000 PUSH0 DUP3 ADD MSTORE POP JUMP JUMPDEST PUSH0 PUSH2 0x39CA PUSH1 0x1A DUP4 PUSH2 0x282A JUMP JUMPDEST SWAP2 POP PUSH2 0x39D5 DUP3 PUSH2 0x3996 JUMP JUMPDEST PUSH1 0x20 DUP3 ADD SWAP1 POP SWAP2 SWAP1 POP JUMP JUMPDEST PUSH0 PUSH1 0x20 DUP3 ADD SWAP1 POP DUP2 DUP2 SUB PUSH0 DUP4 ADD MSTORE PUSH2 0x39F7 DUP2 PUSH2 0x39BE JUMP JUMPDEST SWAP1 POP SWAP2 SWAP1 POP JUMP JUMPDEST PUSH0 DUP2 SWAP1 POP SWAP3 SWAP2 POP POP JUMP JUMPDEST PUSH0 PUSH2 0x3A12 DUP3 PUSH2 0x298C JUMP JUMPDEST PUSH2 0x3A1C DUP2 DUP6 PUSH2 0x39FE JUMP JUMPDEST SWAP4 POP PUSH2 0x3A2C DUP2 DUP6 PUSH1 0x20 DUP7 ADD PUSH2 0x2996 JUMP JUMPDEST DUP1 DUP5 ADD SWAP2 POP POP SWAP3 SWAP2 POP POP JUMP JUMPDEST PUSH0 PUSH2 0x3A43 DUP3 DUP6 PUSH2 0x3A08 JUMP JUMPDEST SWAP2 POP PUSH2 0x3A4F DUP3 DUP5 PUSH2 0x3A08 JUMP JUMPDEST SWAP2 POP DUP2 SWAP1 POP SWAP4 SWAP3 POP POP POP JUMP JUMPDEST PUSH0 PUSH2 0x3A65 DUP3 PUSH2 0x27F9 JUMP JUMPDEST SWAP2 POP PUSH2 0x3A70 DUP4 PUSH2 0x27F9 JUMP JUMPDEST SWAP3 POP DUP3 DUP3 MUL PUSH2 0x3A7E DUP2 PUSH2 0x27F9 JUMP JUMPDEST SWAP2 POP DUP3 DUP3 DIV DUP5 EQ DUP4 ISZERO OR PUSH2 0x3A95 JUMPI PUSH2 0x3A94 PUSH2 0x33C5 JUMP JUMPDEST JUMPDEST POP SWAP3 SWAP2 POP POP JUMP JUMPDEST PUSH0 PUSH2 0x3AA6 DUP3 PUSH2 0x27F9 JUMP JUMPDEST SWAP2 POP PUSH2 0x3AB1 DUP4 PUSH2 0x27F9 JUMP JUMPDEST SWAP3 POP DUP3 DUP3 SUB SWAP1 POP DUP2 DUP2 GT ISZERO PUSH2 0x3AC9 JUMPI PUSH2 0x3AC8 PUSH2 0x33C5 JUMP JUMPDEST JUMPDEST SWAP3 SWAP2 POP POP JUMP JUMPDEST PUSH32 0x4361724E46543A204F6E6C7920746865206173736F636961746564204C656173 PUSH0 DUP3 ADD MSTORE PUSH32 0x6541677265656D656E742063616E20757064617465206D696C65616765730000 PUSH1 0x20 DUP3 ADD MSTORE POP JUMP JUMPDEST PUSH0 PUSH2 0x3B29 PUSH1 0x3E DUP4 PUSH2 0x282A JUMP JUMPDEST SWAP2 POP PUSH2 0x3B34 DUP3 PUSH2 0x3ACF JUMP JUMPDEST PUSH1 0x40 DUP3 ADD SWAP1 POP SWAP2 SWAP1 POP JUMP JUMPDEST PUSH0 PUSH1 0x20 DUP3 ADD SWAP1 POP DUP2 DUP2 SUB PUSH0 DUP4 ADD MSTORE PUSH2 0x3B56 DUP2 PUSH2 0x3B1D JUMP JUMPDEST SWAP1 POP SWAP2 SWAP1 POP JUMP JUMPDEST PUSH32 0x4361724E46543A204F6E6C7920746865206173736F636961746564204C656173 PUSH0 DUP3 ADD MSTORE PUSH32 0x6541677265656D656E742063616E2072657475726E2074686520636172000000 PUSH1 0x20 DUP3 ADD MSTORE POP JUMP JUMPDEST PUSH0 PUSH2 0x3BB7 PUSH1 0x3D DUP4 PUSH2 0x282A JUMP JUMPDEST SWAP2 POP PUSH2 0x3BC2 DUP3 PUSH2 0x3B5D JUMP JUMPDEST PUSH1 0x40 DUP3 ADD SWAP1 POP SWAP2 SWAP1 POP JUMP JUMPDEST PUSH0 PUSH1 0x20 DUP3 ADD SWAP1 POP DUP2 DUP2 SUB PUSH0 DUP4 ADD MSTORE PUSH2 0x3BE4 DUP2 PUSH2 0x3BAB JUMP JUMPDEST SWAP1 POP SWAP2 SWAP1 POP JUMP JUMPDEST PUSH0 DUP2 MLOAD SWAP1 POP SWAP2 SWAP1 POP JUMP JUMPDEST PUSH0 DUP3 DUP3 MSTORE PUSH1 0x20 DUP3 ADD SWAP1 POP SWAP3 SWAP2 POP POP JUMP JUMPDEST PUSH0 PUSH2 0x3C0F DUP3 PUSH2 0x3BEB JUMP JUMPDEST PUSH2 0x3C19 DUP2 DUP6 PUSH2 0x3BF5 JUMP JUMPDEST SWAP4 POP PUSH2 0x3C29 DUP2 DUP6 PUSH1 0x20 DUP7 ADD PUSH2 0x2996 JUMP JUMPDEST PUSH2 0x3C32 DUP2 PUSH2 0x29A4 JUMP JUMPDEST DUP5 ADD SWAP2 POP POP SWAP3 SWAP2 POP POP JUMP JUMPDEST PUSH0 PUSH1 0x80 DUP3 ADD SWAP1 POP PUSH2 0x3C50 PUSH0 DUP4 ADD DUP8 PUSH2 0x2A91 JUMP JUMPDEST PUSH2 0x3C5D PUSH1 0x20 DUP4 ADD DUP7 PUSH2 0x2A91 JUMP JUMPDEST PUSH2 0x3C6A PUSH1 0x40 DUP4 ADD DUP6 PUSH2 0x2802 JUMP JUMPDEST DUP2 DUP2 SUB PUSH1 0x60 DUP4 ADD MSTORE PUSH2 0x3C7C DUP2 DUP5 PUSH2 0x3C05 JUMP JUMPDEST SWAP1 POP SWAP6 SWAP5 POP POP POP POP POP JUMP JUMPDEST PUSH0 DUP2 MLOAD SWAP1 POP PUSH2 0x3C95 DUP2 PUSH2 0x2904 JUMP JUMPDEST SWAP3 SWAP2 POP POP JUMP JUMPDEST PUSH0 PUSH1 0x20 DUP3 DUP5 SUB SLT ISZERO PUSH2 0x3CB0 JUMPI PUSH2 0x3CAF PUSH2 0x28D1 JUMP JUMPDEST JUMPDEST PUSH0 PUSH2 0x3CBD DUP5 DUP3 DUP6 ADD PUSH2 0x3C87 JUMP JUMPDEST SWAP2 POP POP SWAP3 SWAP2 POP POP JUMP JUMPDEST PUSH0 PUSH1 0x40 DUP3 ADD SWAP1 POP PUSH2 0x3CD9 PUSH0 DUP4 ADD DUP6 PUSH2 0x2A91 JUMP JUMPDEST PUSH2 0x3CE6 PUSH1 0x20 DUP4 ADD DUP5 PUSH2 0x2802 JUMP JUMPDEST SWAP4 SWAP3 POP POP POP JUMP INVALID LOG2 PUSH5 0x6970667358 0x22 SLT KECCAK256 0xDE 0xF6 DUP2 PUSH24 0x8097A1448A04ECCC2E6CEB2EF8E877AC1557B49AB0447D5B LOG3 PUSH25 0x2F2564736F6C634300081A0033000000000000000000000000 "
		},
		"gasEstimates": {
			"creation": {
				"codeDepositCost": "3130200",
				"executionCost": "infinite",
				"totalCost": "infinite"
			},
			"external": {
				"": "1831",
				"approve(address,uint256)": "infinite",
				"availableCarNFT(uint256)": "4998",
				"balanceOf(address)": "infinite",
				"calculateMonthlyQuota(uint256,uint256,uint8,uint256,uint256)": "infinite",
				"checkCurrentCarNFTOwner(uint256)": "5126",
				"getApproved(uint256)": "infinite",
				"getCarByCarID(uint256)": "infinite",
				"getCurrentSupply()": "2499",
				"getOwner()": "infinite",
				"isApprovedForAll(address,address)": "infinite",
				"leaseAgreements(uint256)": "2850",
				"leaseCarNFT(address,address,uint256)": "infinite",
				"mintCarNFT(string,string,uint16,uint128,uint32)": "infinite",
				"name()": "infinite",
				"ownerOf(uint256)": "infinite",
				"reserve(uint256)": "29268",
				"returnCarNFT(uint256)": "infinite",
				"safeTransferFrom(address,address,uint256)": "infinite",
				"safeTransferFrom(address,address,uint256,bytes)": "infinite",
				"setApprovalForAll(address,bool)": "infinite",
				"setMileage(uint256,uint256)": "infinite",
				"supportsInterface(bytes4)": "787",
				"symbol()": "infinite",
				"tokenURI(uint256)": "infinite",
				"transferFrom(address,address,uint256)": "infinite"
			}
		},
		"methodIdentifiers": {
			"approve(address,uint256)": "095ea7b3",
			"availableCarNFT(uint256)": "2d64dbfd",
			"balanceOf(address)": "70a08231",
			"calculateMonthlyQuota(uint256,uint256,uint8,uint256,uint256)": "d57fa07d",
			"checkCurrentCarNFTOwner(uint256)": "93678237",
			"getApproved(uint256)": "081812fc",
			"getCarByCarID(uint256)": "ef555bc1",
			"getCurrentSupply()": "4f3e1efc",
			"getOwner()": "893d20e8",
			"isApprovedForAll(address,address)": "e985e9c5",
			"leaseAgreements(uint256)": "831b455d",
			"leaseCarNFT(address,address,uint256)": "c776194f",
			"mintCarNFT(string,string,uint16,uint128,uint32)": "16ee8b16",
			"name()": "06fdde03",
			"ownerOf(uint256)": "6352211e",
			"reserve(uint256)": "819b25ba",
			"returnCarNFT(uint256)": "f410dcc2",
			"safeTransferFrom(address,address,uint256)": "42842e0e",
			"safeTransferFrom(address,address,uint256,bytes)": "b88d4fde",
			"setApprovalForAll(address,bool)": "a22cb465",
			"setMileage(uint256,uint256)": "e77e89f3",
			"supportsInterface(bytes4)": "01ffc9a7",
			"symbol()": "95d89b41",
			"tokenURI(uint256)": "c87b56dd",
			"transferFrom(address,address,uint256)": "23b872dd"
		}
	},
	"abi": [
		{
			"inputs": [
				{
					"internalType": "string",
					"name": "name",
					"type": "string"
				},
				{
					"internalType": "string",
					"name": "symbol",
					"type": "string"
				}
			],
			"stateMutability": "nonpayable",
			"type": "constructor"
		},
		{
			"inputs": [
				{
					"internalType": "address",
					"name": "sender",
					"type": "address"
				},
				{
					"internalType": "uint256",
					"name": "tokenId",
					"type": "uint256"
				},
				{
					"internalType": "address",
					"name": "owner",
					"type": "address"
				}
			],
			"name": "ERC721IncorrectOwner",
			"type": "error"
		},
		{
			"inputs": [
				{
					"internalType": "address",
					"name": "operator",
					"type": "address"
				},
				{
					"internalType": "uint256",
					"name": "tokenId",
					"type": "uint256"
				}
			],
			"name": "ERC721InsufficientApproval",
			"type": "error"
		},
		{
			"inputs": [
				{
					"internalType": "address",
					"name": "approver",
					"type": "address"
				}
			],
			"name": "ERC721InvalidApprover",
			"type": "error"
		},
		{
			"inputs": [
				{
					"internalType": "address",
					"name": "operator",
					"type": "address"
				}
			],
			"name": "ERC721InvalidOperator",
			"type": "error"
		},
		{
			"inputs": [
				{
					"internalType": "address",
					"name": "owner",
					"type": "address"
				}
			],
			"name": "ERC721InvalidOwner",
			"type": "error"
		},
		{
			"inputs": [
				{
					"internalType": "address",
					"name": "receiver",
					"type": "address"
				}
			],
			"name": "ERC721InvalidReceiver",
			"type": "error"
		},
		{
			"inputs": [
				{
					"internalType": "address",
					"name": "sender",
					"type": "address"
				}
			],
			"name": "ERC721InvalidSender",
			"type": "error"
		},
		{
			"inputs": [
				{
					"internalType": "uint256",
					"name": "tokenId",
					"type": "uint256"
				}
			],
			"name": "ERC721NonexistentToken",
			"type": "error"
		},
		{
			"anonymous": false,
			"inputs": [
				{
					"indexed": true,
					"internalType": "address",
					"name": "owner",
					"type": "address"
				},
				{
					"indexed": true,
					"internalType": "address",
					"name": "approved",
					"type": "address"
				},
				{
					"indexed": true,
					"internalType": "uint256",
					"name": "tokenId",
					"type": "uint256"
				}
			],
			"name": "Approval",
			"type": "event"
		},
		{
			"anonymous": false,
			"inputs": [
				{
					"indexed": true,
					"internalType": "address",
					"name": "owner",
					"type": "address"
				},
				{
					"indexed": true,
					"internalType": "address",
					"name": "operator",
					"type": "address"
				},
				{
					"indexed": false,
					"internalType": "bool",
					"name": "approved",
					"type": "bool"
				}
			],
			"name": "ApprovalForAll",
			"type": "event"
		},
		{
			"anonymous": false,
			"inputs": [
				{
					"indexed": true,
					"internalType": "address",
					"name": "sender",
					"type": "address"
				},
				{
					"indexed": false,
					"internalType": "uint256",
					"name": "amount",
					"type": "uint256"
				}
			],
			"name": "EtherReceived",
			"type": "event"
		},
		{
			"anonymous": false,
			"inputs": [
				{
					"indexed": true,
					"internalType": "address",
					"name": "from",
					"type": "address"
				},
				{
					"indexed": true,
					"internalType": "address",
					"name": "to",
					"type": "address"
				},
				{
					"indexed": true,
					"internalType": "uint256",
					"name": "tokenId",
					"type": "uint256"
				}
			],
			"name": "Transfer",
			"type": "event"
		},
		{
			"stateMutability": "payable",
			"type": "fallback"
		},
		{
			"inputs": [
				{
					"internalType": "address",
					"name": "to",
					"type": "address"
				},
				{
					"internalType": "uint256",
					"name": "tokenId",
					"type": "uint256"
				}
			],
			"name": "approve",
			"outputs": [],
			"stateMutability": "nonpayable",
			"type": "function"
		},
		{
			"inputs": [
				{
					"internalType": "uint256",
					"name": "carId",
					"type": "uint256"
				}
			],
			"name": "availableCarNFT",
			"outputs": [
				{
					"internalType": "bool",
					"name": "",
					"type": "bool"
				}
			],
			"stateMutability": "view",
			"type": "function"
		},
		{
			"inputs": [
				{
					"internalType": "address",
					"name": "owner",
					"type": "address"
				}
			],
			"name": "balanceOf",
			"outputs": [
				{
					"internalType": "uint256",
					"name": "",
					"type": "uint256"
				}
			],
			"stateMutability": "view",
			"type": "function"
		},
		{
			"inputs": [
				{
					"internalType": "uint256",
					"name": "originalValue",
					"type": "uint256"
				},
				{
					"internalType": "uint256",
					"name": "currentMileage",
					"type": "uint256"
				},
				{
					"internalType": "uint8",
					"name": "driverExperienceYears",
					"type": "uint8"
				},
				{
					"internalType": "uint256",
					"name": "mileageCap",
					"type": "uint256"
				},
				{
					"internalType": "uint256",
					"name": "contractDuration",
					"type": "uint256"
				}
			],
			"name": "calculateMonthlyQuota",
			"outputs": [
				{
					"internalType": "uint128",
					"name": "",
					"type": "uint128"
				}
			],
			"stateMutability": "pure",
			"type": "function"
		},
		{
			"inputs": [
				{
					"internalType": "uint256",
					"name": "carId",
					"type": "uint256"
				}
			],
			"name": "checkCurrentCarNFTOwner",
			"outputs": [
				{
					"internalType": "address",
					"name": "",
					"type": "address"
				}
			],
			"stateMutability": "view",
			"type": "function"
		},
		{
			"inputs": [
				{
					"internalType": "uint256",
					"name": "tokenId",
					"type": "uint256"
				}
			],
			"name": "getApproved",
			"outputs": [
				{
					"internalType": "address",
					"name": "",
					"type": "address"
				}
			],
			"stateMutability": "view",
			"type": "function"
		},
		{
			"inputs": [
				{
					"internalType": "uint256",
					"name": "carId",
					"type": "uint256"
				}
			],
			"name": "getCarByCarID",
			"outputs": [
				{
					"components": [
						{
							"internalType": "string",
							"name": "model",
							"type": "string"
						},
						{
							"internalType": "string",
							"name": "color",
							"type": "string"
						},
						{
							"internalType": "uint16",
							"name": "yearOfMatriculation",
							"type": "uint16"
						},
						{
							"internalType": "uint256",
							"name": "originalValue",
							"type": "uint256"
						},
						{
							"internalType": "uint256",
							"name": "mileage",
							"type": "uint256"
						}
					],
					"internalType": "struct Car",
					"name": "",
					"type": "tuple"
				}
			],
			"stateMutability": "view",
			"type": "function"
		},
		{
			"inputs": [],
			"name": "getCurrentSupply",
			"outputs": [
				{
					"internalType": "uint256",
					"name": "",
					"type": "uint256"
				}
			],
			"stateMutability": "view",
			"type": "function"
		},
		{
			"inputs": [],
			"name": "getOwner",
			"outputs": [
				{
					"internalType": "address",
					"name": "",
					"type": "address"
				}
			],
			"stateMutability": "view",
			"type": "function"
		},
		{
			"inputs": [
				{
					"internalType": "address",
					"name": "owner",
					"type": "address"
				},
				{
					"internalType": "address",
					"name": "operator",
					"type": "address"
				}
			],
			"name": "isApprovedForAll",
			"outputs": [
				{
					"internalType": "bool",
					"name": "",
					"type": "bool"
				}
			],
			"stateMutability": "view",
			"type": "function"
		},
		{
			"inputs": [
				{
					"internalType": "uint256",
					"name": "",
					"type": "uint256"
				}
			],
			"name": "leaseAgreements",
			"outputs": [
				{
					"internalType": "address",
					"name": "",
					"type": "address"
				}
			],
			"stateMutability": "view",
			"type": "function"
		},
		{
			"inputs": [
				{
					"internalType": "address",
					"name": "toCustomer",
					"type": "address"
				},
				{
					"internalType": "address",
					"name": "company",
					"type": "address"
				},
				{
					"internalType": "uint256",
					"name": "carId",
					"type": "uint256"
				}
			],
			"name": "leaseCarNFT",
			"outputs": [],
			"stateMutability": "nonpayable",
			"type": "function"
		},
		{
			"inputs": [
				{
					"internalType": "string",
					"name": "model",
					"type": "string"
				},
				{
					"internalType": "string",
					"name": "color",
					"type": "string"
				},
				{
					"internalType": "uint16",
					"name": "yearOfMatriculation",
					"type": "uint16"
				},
				{
					"internalType": "uint128",
					"name": "originalValue",
					"type": "uint128"
				},
				{
					"internalType": "uint32",
					"name": "mileage",
					"type": "uint32"
				}
			],
			"name": "mintCarNFT",
			"outputs": [],
			"stateMutability": "nonpayable",
			"type": "function"
		},
		{
			"inputs": [],
			"name": "name",
			"outputs": [
				{
					"internalType": "string",
					"name": "",
					"type": "string"
				}
			],
			"stateMutability": "view",
			"type": "function"
		},
		{
			"inputs": [
				{
					"internalType": "uint256",
					"name": "tokenId",
					"type": "uint256"
				}
			],
			"name": "ownerOf",
			"outputs": [
				{
					"internalType": "address",
					"name": "",
					"type": "address"
				}
			],
			"stateMutability": "view",
			"type": "function"
		},
		{
			"inputs": [
				{
					"internalType": "uint256",
					"name": "carId",
					"type": "uint256"
				}
			],
			"name": "reserve",
			"outputs": [],
			"stateMutability": "nonpayable",
			"type": "function"
		},
		{
			"inputs": [
				{
					"internalType": "uint256",
					"name": "carId",
					"type": "uint256"
				}
			],
			"name": "returnCarNFT",
			"outputs": [],
			"stateMutability": "nonpayable",
			"type": "function"
		},
		{
			"inputs": [
				{
					"internalType": "address",
					"name": "from",
					"type": "address"
				},
				{
					"internalType": "address",
					"name": "to",
					"type": "address"
				},
				{
					"internalType": "uint256",
					"name": "tokenId",
					"type": "uint256"
				}
			],
			"name": "safeTransferFrom",
			"outputs": [],
			"stateMutability": "nonpayable",
			"type": "function"
		},
		{
			"inputs": [
				{
					"internalType": "address",
					"name": "from",
					"type": "address"
				},
				{
					"internalType": "address",
					"name": "to",
					"type": "address"
				},
				{
					"internalType": "uint256",
					"name": "tokenId",
					"type": "uint256"
				},
				{
					"internalType": "bytes",
					"name": "data",
					"type": "bytes"
				}
			],
			"name": "safeTransferFrom",
			"outputs": [],
			"stateMutability": "nonpayable",
			"type": "function"
		},
		{
			"inputs": [
				{
					"internalType": "address",
					"name": "operator",
					"type": "address"
				},
				{
					"internalType": "bool",
					"name": "approved",
					"type": "bool"
				}
			],
			"name": "setApprovalForAll",
			"outputs": [],
			"stateMutability": "nonpayable",
			"type": "function"
		},
		{
			"inputs": [
				{
					"internalType": "uint256",
					"name": "carId",
					"type": "uint256"
				},
				{
					"internalType": "uint256",
					"name": "_mileage",
					"type": "uint256"
				}
			],
			"name": "setMileage",
			"outputs": [
				{
					"internalType": "uint256",
					"name": "",
					"type": "uint256"
				}
			],
			"stateMutability": "nonpayable",
			"type": "function"
		},
		{
			"inputs": [
				{
					"internalType": "bytes4",
					"name": "interfaceId",
					"type": "bytes4"
				}
			],
			"name": "supportsInterface",
			"outputs": [
				{
					"internalType": "bool",
					"name": "",
					"type": "bool"
				}
			],
			"stateMutability": "view",
			"type": "function"
		},
		{
			"inputs": [],
			"name": "symbol",
			"outputs": [
				{
					"internalType": "string",
					"name": "",
					"type": "string"
				}
			],
			"stateMutability": "view",
			"type": "function"
		},
		{
			"inputs": [
				{
					"internalType": "uint256",
					"name": "tokenId",
					"type": "uint256"
				}
			],
			"name": "tokenURI",
			"outputs": [
				{
					"internalType": "string",
					"name": "",
					"type": "string"
				}
			],
			"stateMutability": "view",
			"type": "function"
		},
		{
			"inputs": [
				{
					"internalType": "address",
					"name": "from",
					"type": "address"
				},
				{
					"internalType": "address",
					"name": "to",
					"type": "address"
				},
				{
					"internalType": "uint256",
					"name": "tokenId",
					"type": "uint256"
				}
			],
			"name": "transferFrom",
			"outputs": [],
			"stateMutability": "nonpayable",
			"type": "function"
		},
		{
			"stateMutability": "payable",
			"type": "receive"
		}
	]
}