{
	"data": {
		"bytecode": {
			"linkReferences": {},
			"object": "60e060405234801561000f575f80fd5b506040516125a13803806125a183398181016040528101906100319190610302565b4260c08181525050600a6003819055503373ffffffffffffffffffffffffffffffffffffffff1660808173ffffffffffffffffffffffffffffffffffffffff168152505084600460016101000a81548173ffffffffffffffffffffffffffffffffffffffff021916908373ffffffffffffffffffffffffffffffffffffffff1602179055505f600460019054906101000a900473ffffffffffffffffffffffffffffffffffffffff1673ffffffffffffffffffffffffffffffffffffffff1663ef555bc1866040518263ffffffff1660e01b81526004016101129190610388565b5f60405180830381865afa15801561012c573d5f803e3d5ffd5b505050506040513d5f823e3d601f19601f8201168201806040525081019061015491906105dd565b905084600a81905550600460019054906101000a900473ffffffffffffffffffffffffffffffffffffffff1673ffffffffffffffffffffffffffffffffffffffff1663d57fa07d826060015183608001518787876040518663ffffffff1660e01b81526004016101c8959493929190610633565b602060405180830381865afa1580156101e3573d5f803e3d5ffd5b505050506040513d601f19601f820116820180604052508101906102079190610684565b600181905550600360015461021c91906106dc565b60a0818152505050505050505061071d565b5f604051905090565b5f80fd5b5f80fd5b5f73ffffffffffffffffffffffffffffffffffffffff82169050919050565b5f6102688261023f565b9050919050565b6102788161025e565b8114610282575f80fd5b50565b5f815190506102938161026f565b92915050565b5f819050919050565b6102ab81610299565b81146102b5575f80fd5b50565b5f815190506102c6816102a2565b92915050565b5f60ff82169050919050565b6102e1816102cc565b81146102eb575f80fd5b50565b5f815190506102fc816102d8565b92915050565b5f805f805f60a0868803121561031b5761031a610237565b5b5f61032888828901610285565b9550506020610339888289016102b8565b945050604061034a888289016102ee565b935050606061035b888289016102b8565b925050608061036c888289016102b8565b9150509295509295909350565b61038281610299565b82525050565b5f60208201905061039b5f830184610379565b92915050565b5f80fd5b5f601f19601f8301169050919050565b7f4e487b71000000000000000000000000000000000000000000000000000000005f52604160045260245ffd5b6103eb826103a5565b810181811067ffffffffffffffff8211171561040a576104096103b5565b5b80604052505050565b5f61041c61022e565b905061042882826103e2565b919050565b5f80fd5b5f80fd5b5f80fd5b5f67ffffffffffffffff821115610453576104526103b5565b5b61045c826103a5565b9050602081019050919050565b8281835e5f83830152505050565b5f61048961048484610439565b610413565b9050828152602081018484840111156104a5576104a4610435565b5b6104b0848285610469565b509392505050565b5f82601f8301126104cc576104cb610431565b5b81516104dc848260208601610477565b91505092915050565b5f61ffff82169050919050565b6104fb816104e5565b8114610505575f80fd5b50565b5f81519050610516816104f2565b92915050565b5f60a08284031215610531576105306103a1565b5b61053b60a0610413565b90505f82015167ffffffffffffffff81111561055a5761055961042d565b5b610566848285016104b8565b5f83015250602082015167ffffffffffffffff8111156105895761058861042d565b5b610595848285016104b8565b60208301525060406105a984828501610508565b60408301525060606105bd848285016102b8565b60608301525060806105d1848285016102b8565b60808301525092915050565b5f602082840312156105f2576105f1610237565b5b5f82015167ffffffffffffffff81111561060f5761060e61023b565b5b61061b8482850161051c565b91505092915050565b61062d816102cc565b82525050565b5f60a0820190506106465f830188610379565b6106536020830187610379565b6106606040830186610624565b61066d6060830185610379565b61067a6080830184610379565b9695505050505050565b5f6020828403121561069957610698610237565b5b5f6106a6848285016102b8565b91505092915050565b7f4e487b71000000000000000000000000000000000000000000000000000000005f52601160045260245ffd5b5f6106e682610299565b91506106f183610299565b92508282026106ff81610299565b91508282048414831517610716576107156106af565b5b5092915050565b60805160a05160c051611e2261077f5f395f61039501525f81816104040152818161047c01528181610682015281816107c70152610eeb01525f81816106e20152818161078a01528181610a6301528181610b540152610be40152611e225ff3fe6080604052600436106100fd575f3560e01c80639599be8711610094578063ca15c67c11610063578063ca15c67c146102be578063d6dd04f7146102e8578063d9de1c0314610312578063f6fef7791461033c578063f9a9607114610366576100fd565b80639599be871461021a5780639c205bb714610244578063a7a4fb991461026e578063c51daddb14610296576100fd565b8063581a7310116100d0578063581a731014610173578063650d993b146101895780636e04ff0d146101b35780638fc8e811146101f0576100fd565b80630f380a56146101015780631168c9a81461010b5780632990536c146101215780634585e33b1461014b575b5f80fd5b610109610390565b005b348015610116575f80fd5b5061011f610557565b005b34801561012c575f80fd5b506101356105e6565b60405161014291906110d5565b60405180910390f35b348015610156575f80fd5b50610171600480360381019061016c9190611160565b61062d565b005b34801561017e575f80fd5b506101876106e0565b005b348015610194575f80fd5b5061019d6109eb565b6040516101aa91906111ea565b60405180910390f35b3480156101be575f80fd5b506101d960048036038101906101d49190611160565b610a12565b6040516101e7929190611273565b60405180910390f35b3480156101fb575f80fd5b50610204610a42565b60405161021191906112b9565b60405180910390f35b348015610225575f80fd5b5061022e610a4b565b60405161023b91906110d5565b60405180910390f35b34801561024f575f80fd5b50610258610a60565b60405161026591906112f2565b60405180910390f35b348015610279575f80fd5b50610294600480360381019061028f9190611335565b610a87565b005b3480156102a1575f80fd5b506102bc60048036038101906102b79190611396565b610be2565b005b3480156102c9575f80fd5b506102d2610ebf565b6040516102df9190611441565b60405180910390f35b3480156102f3575f80fd5b506102fc610ee8565b60405161030991906112b9565b60405180910390f35b34801561031d575f80fd5b50610326610f0f565b6040516103339190611551565b60405180910390f35b348015610347575f80fd5b5061035061107b565b60405161035d91906112b9565b60405180910390f35b348015610371575f80fd5b5061037a611084565b60405161038791906112b9565b60405180910390f35b4260027f00000000000000000000000000000000000000000000000000000000000000006103be919061159e565b10156103ff576040517f08c379a00000000000000000000000000000000000000000000000000000000081526004016103f690611651565b60405180910390fd5b6001547f000000000000000000000000000000000000000000000000000000000000000061042d919061159e565b34101561046f576040517f08c379a0000000000000000000000000000000000000000000000000000000008152600401610466906116df565b60405180910390fd5b426002819055505f6001547f00000000000000000000000000000000000000000000000000000000000000006104a5919061159e565b346104b091906116fd565b9050335f806101000a81548173ffffffffffffffffffffffffffffffffffffffff021916908373ffffffffffffffffffffffffffffffffffffffff1602179055505f8054906101000a900473ffffffffffffffffffffffffffffffffffffffff1673ffffffffffffffffffffffffffffffffffffffff166108fc8290811502906040515f60405180830381858888f19350505050158015610553573d5f803e3d5ffd5b5050565b5f8054906101000a900473ffffffffffffffffffffffffffffffffffffffff1673ffffffffffffffffffffffffffffffffffffffff163373ffffffffffffffffffffffffffffffffffffffff16146105e4576040517f08c379a00000000000000000000000000000000000000000000000000000000081526004016105db906117a0565b60405180910390fd5b565b5f805f8054906101000a900473ffffffffffffffffffffffffffffffffffffffff1673ffffffffffffffffffffffffffffffffffffffff1631905060015481101591505090565b6003546002544261063e91906116fd565b11156106dc575f8054906101000a900473ffffffffffffffffffffffffffffffffffffffff1673ffffffffffffffffffffffffffffffffffffffff166108fc6001547f00000000000000000000000000000000000000000000000000000000000000006106ab919061159e565b90811502906040515f60405180830381858888f193505050501580156106d3573d5f803e3d5ffd5b505f6002819055505b5050565b7f000000000000000000000000000000000000000000000000000000000000000073ffffffffffffffffffffffffffffffffffffffff163373ffffffffffffffffffffffffffffffffffffffff161461076e576040517f08c379a00000000000000000000000000000000000000000000000000000000081526004016107659061182e565b60405180910390fd5b600160045f6101000a81548160ff0219169083151502179055507f000000000000000000000000000000000000000000000000000000000000000073ffffffffffffffffffffffffffffffffffffffff166108fc6001547f00000000000000000000000000000000000000000000000000000000000000006107f0919061159e565b90811502906040515f60405180830381858888f19350505050158015610818573d5f803e3d5ffd5b50600460019054906101000a900473ffffffffffffffffffffffffffffffffffffffff1673ffffffffffffffffffffffffffffffffffffffff1663c776194f3073ffffffffffffffffffffffffffffffffffffffff1663650d993b6040518163ffffffff1660e01b8152600401602060405180830381865afa1580156108a0573d5f803e3d5ffd5b505050506040513d601f19601f820116820180604052508101906108c49190611876565b3073ffffffffffffffffffffffffffffffffffffffff16639c205bb76040518163ffffffff1660e01b8152600401602060405180830381865afa15801561090d573d5f803e3d5ffd5b505050506040513d601f19601f8201168201806040525081019061093191906118cb565b3073ffffffffffffffffffffffffffffffffffffffff16638fc8e8116040518163ffffffff1660e01b8152600401602060405180830381865afa15801561097a573d5f803e3d5ffd5b505050506040513d601f19601f8201168201806040525081019061099e919061190a565b6040518463ffffffff1660e01b81526004016109bc93929190611955565b5f604051808303815f87803b1580156109d3575f80fd5b505af11580156109e5573d5f803e3d5ffd5b50505050565b5f805f9054906101000a900473ffffffffffffffffffffffffffffffffffffffff16905090565b5f60605f60025403610a26575f9150610a3b565b60035460025442610a3791906116fd565b1191505b9250929050565b5f600a54905090565b5f60045f9054906101000a900460ff16905090565b5f7f0000000000000000000000000000000000000000000000000000000000000000905090565b5f8054906101000a900473ffffffffffffffffffffffffffffffffffffffff1673ffffffffffffffffffffffffffffffffffffffff163373ffffffffffffffffffffffffffffffffffffffff1614610b14576040517f08c379a0000000000000000000000000000000000000000000000000000000008152600401610b0b906119fa565b60405180910390fd5b600460019054906101000a900473ffffffffffffffffffffffffffffffffffffffff1673ffffffffffffffffffffffffffffffffffffffff166342842e0e7f00000000000000000000000000000000000000000000000000000000000000005f8054906101000a900473ffffffffffffffffffffffffffffffffffffffff16846040518463ffffffff1660e01b8152600401610bb293929190611a18565b5f604051808303815f87803b158015610bc9575f80fd5b505af1158015610bdb573d5f803e3d5ffd5b5050505050565b7f000000000000000000000000000000000000000000000000000000000000000073ffffffffffffffffffffffffffffffffffffffff163373ffffffffffffffffffffffffffffffffffffffff1614610c70576040517f08c379a0000000000000000000000000000000000000000000000000000000008152600401610c679061182e565b60405180910390fd5b5f8054906101000a900473ffffffffffffffffffffffffffffffffffffffff1673ffffffffffffffffffffffffffffffffffffffff163373ffffffffffffffffffffffffffffffffffffffff1614610cfd576040517f08c379a0000000000000000000000000000000000000000000000000000000008152600401610cf490611abd565b60405180910390fd5b5f600460019054906101000a900473ffffffffffffffffffffffffffffffffffffffff1673ffffffffffffffffffffffffffffffffffffffff1663ef555bc13073ffffffffffffffffffffffffffffffffffffffff16638fc8e8116040518163ffffffff1660e01b8152600401602060405180830381865afa158015610d85573d5f803e3d5ffd5b505050506040513d601f19601f82011682018060405250810190610da9919061190a565b6040518263ffffffff1660e01b8152600401610dc591906112b9565b5f60405180830381865afa158015610ddf573d5f803e3d5ffd5b505050506040513d5f823e3d601f19601f82011682018060405250810190610e079190611ce8565b9050600460019054906101000a900473ffffffffffffffffffffffffffffffffffffffff1673ffffffffffffffffffffffffffffffffffffffff1663d57fa07d826060015183608001518686896040518663ffffffff1660e01b8152600401610e74959493929190611d3e565b602060405180830381865afa158015610e8f573d5f803e3d5ffd5b505050506040513d601f19601f82011682018060405250810190610eb3919061190a565b60018190555050505050565b5f600460019054906101000a900473ffffffffffffffffffffffffffffffffffffffff16905090565b5f7f0000000000000000000000000000000000000000000000000000000000000000905090565b610f1761108b565b60056040518060a00160405290815f82018054610f3390611dbc565b80601f0160208091040260200160405190810160405280929190818152602001828054610f5f90611dbc565b8015610faa5780601f10610f8157610100808354040283529160200191610faa565b820191905f5260205f20905b815481529060010190602001808311610f8d57829003601f168201915b50505050508152602001600182018054610fc390611dbc565b80601f0160208091040260200160405190810160405280929190818152602001828054610fef90611dbc565b801561103a5780601f106110115761010080835404028352916020019161103a565b820191905f5260205f20905b81548152906001019060200180831161101d57829003601f168201915b50505050508152602001600282015f9054906101000a900461ffff1661ffff1661ffff16815260200160038201548152602001600482015481525050905090565b5f600154905090565b5f47905090565b6040518060a0016040528060608152602001606081526020015f61ffff1681526020015f81526020015f81525090565b5f8115159050919050565b6110cf816110bb565b82525050565b5f6020820190506110e85f8301846110c6565b92915050565b5f604051905090565b5f80fd5b5f80fd5b5f80fd5b5f80fd5b5f80fd5b5f8083601f8401126111205761111f6110ff565b5b8235905067ffffffffffffffff81111561113d5761113c611103565b5b60208301915083600182028301111561115957611158611107565b5b9250929050565b5f8060208385031215611176576111756110f7565b5b5f83013567ffffffffffffffff811115611193576111926110fb565b5b61119f8582860161110b565b92509250509250929050565b5f73ffffffffffffffffffffffffffffffffffffffff82169050919050565b5f6111d4826111ab565b9050919050565b6111e4816111ca565b82525050565b5f6020820190506111fd5f8301846111db565b92915050565b5f81519050919050565b5f82825260208201905092915050565b8281835e5f83830152505050565b5f601f19601f8301169050919050565b5f61124582611203565b61124f818561120d565b935061125f81856020860161121d565b6112688161122b565b840191505092915050565b5f6040820190506112865f8301856110c6565b8181036020830152611298818461123b565b90509392505050565b5f819050919050565b6112b3816112a1565b82525050565b5f6020820190506112cc5f8301846112aa565b92915050565b5f6112dc826111ab565b9050919050565b6112ec816112d2565b82525050565b5f6020820190506113055f8301846112e3565b92915050565b611314816112a1565b811461131e575f80fd5b50565b5f8135905061132f8161130b565b92915050565b5f6020828403121561134a576113496110f7565b5b5f61135784828501611321565b91505092915050565b5f60ff82169050919050565b61137581611360565b811461137f575f80fd5b50565b5f813590506113908161136c565b92915050565b5f805f606084860312156113ad576113ac6110f7565b5b5f6113ba86828701611321565b93505060206113cb86828701611382565b92505060406113dc86828701611321565b9150509250925092565b5f819050919050565b5f6114096114046113ff846111ab565b6113e6565b6111ab565b9050919050565b5f61141a826113ef565b9050919050565b5f61142b82611410565b9050919050565b61143b81611421565b82525050565b5f6020820190506114545f830184611432565b92915050565b5f81519050919050565b5f82825260208201905092915050565b5f61147e8261145a565b6114888185611464565b935061149881856020860161121d565b6114a18161122b565b840191505092915050565b5f61ffff82169050919050565b6114c2816114ac565b82525050565b6114d1816112a1565b82525050565b5f60a083015f8301518482035f8601526114f18282611474565b9150506020830151848203602086015261150b8282611474565b915050604083015161152060408601826114b9565b50606083015161153360608601826114c8565b50608083015161154660808601826114c8565b508091505092915050565b5f6020820190508181035f83015261156981846114d7565b905092915050565b7f4e487b71000000000000000000000000000000000000000000000000000000005f52601160045260245ffd5b5f6115a8826112a1565b91506115b3836112a1565b92508282019050808211156115cb576115ca611571565b5b92915050565b5f82825260208201905092915050565b7f4c6561736541677265656d656e743a2054686520646561646c696e652072616e5f8201527f206f757400000000000000000000000000000000000000000000000000000000602082015250565b5f61163b6024836115d1565b9150611646826115e1565b604082019050919050565b5f6020820190508181035f8301526116688161162f565b9050919050565b7f4c6561736541677265656d656e743a20496e636f7272656374207061796d656e5f8201527f7420616d6f756e74000000000000000000000000000000000000000000000000602082015250565b5f6116c96028836115d1565b91506116d48261166f565b604082019050919050565b5f6020820190508181035f8301526116f6816116bd565b9050919050565b5f611707826112a1565b9150611712836112a1565b925082820390508181111561172a57611729611571565b5b92915050565b7f4c6561736541677265656d656e743a204f6e6c7920637573746f6d65722063615f8201527f6e207465726d696e617465000000000000000000000000000000000000000000602082015250565b5f61178a602b836115d1565b915061179582611730565b604082019050919050565b5f6020820190508181035f8301526117b78161177e565b9050919050565b7f4c6561736541677265656d656e743a204f6e6c7920746865206f776e65722d635f8201527f6f6d70616e792063616e20706572666f726d207468697320616374696f6e0000602082015250565b5f611818603e836115d1565b9150611823826117be565b604082019050919050565b5f6020820190508181035f8301526118458161180c565b9050919050565b611855816111ca565b811461185f575f80fd5b50565b5f815190506118708161184c565b92915050565b5f6020828403121561188b5761188a6110f7565b5b5f61189884828501611862565b91505092915050565b6118aa816112d2565b81146118b4575f80fd5b50565b5f815190506118c5816118a1565b92915050565b5f602082840312156118e0576118df6110f7565b5b5f6118ed848285016118b7565b91505092915050565b5f815190506119048161130b565b92915050565b5f6020828403121561191f5761191e6110f7565b5b5f61192c848285016118f6565b91505092915050565b5f61193f82611410565b9050919050565b61194f81611935565b82525050565b5f6060820190506119685f8301866111db565b6119756020830185611946565b61198260408301846112aa565b949350505050565b7f4c6561736541677265656d656e743a204f6e6c7920637573746f6d65722063615f8201527f6e206c656173652061206e657720636172000000000000000000000000000000602082015250565b5f6119e46031836115d1565b91506119ef8261198a565b604082019050919050565b5f6020820190508181035f830152611a11816119d8565b9050919050565b5f606082019050611a2b5f830186611946565b611a386020830185611946565b611a4560408301846112aa565b949350505050565b7f4c6561736541677265656d656e743a204f6e6c7920637573746f6d65722063615f8201527f6e20657874656e64000000000000000000000000000000000000000000000000602082015250565b5f611aa76028836115d1565b9150611ab282611a4d565b604082019050919050565b5f6020820190508181035f830152611ad481611a9b565b9050919050565b5f80fd5b7f4e487b71000000000000000000000000000000000000000000000000000000005f52604160045260245ffd5b611b158261122b565b810181811067ffffffffffffffff82111715611b3457611b33611adf565b5b80604052505050565b5f611b466110ee565b9050611b528282611b0c565b919050565b5f80fd5b5f80fd5b5f67ffffffffffffffff821115611b7957611b78611adf565b5b611b828261122b565b9050602081019050919050565b5f611ba1611b9c84611b5f565b611b3d565b905082815260208101848484011115611bbd57611bbc611b5b565b5b611bc884828561121d565b509392505050565b5f82601f830112611be457611be36110ff565b5b8151611bf4848260208601611b8f565b91505092915050565b611c06816114ac565b8114611c10575f80fd5b50565b5f81519050611c2181611bfd565b92915050565b5f60a08284031215611c3c57611c3b611adb565b5b611c4660a0611b3d565b90505f82015167ffffffffffffffff811115611c6557611c64611b57565b5b611c7184828501611bd0565b5f83015250602082015167ffffffffffffffff811115611c9457611c93611b57565b5b611ca084828501611bd0565b6020830152506040611cb484828501611c13565b6040830152506060611cc8848285016118f6565b6060830152506080611cdc848285016118f6565b60808301525092915050565b5f60208284031215611cfd57611cfc6110f7565b5b5f82015167ffffffffffffffff811115611d1a57611d196110fb565b5b611d2684828501611c27565b91505092915050565b611d3881611360565b82525050565b5f60a082019050611d515f8301886112aa565b611d5e60208301876112aa565b611d6b6040830186611d2f565b611d7860608301856112aa565b611d8560808301846112aa565b9695505050505050565b7f4e487b71000000000000000000000000000000000000000000000000000000005f52602260045260245ffd5b5f6002820490506001821680611dd357607f821691505b602082108103611de657611de5611d8f565b5b5091905056fea26469706673582212203e522565734002f7463aa1861ba5bb5cd6d519d61daaac6b55729a603297b84464736f6c634300081a0033",
			"opcodes": "PUSH1 0xE0 PUSH1 0x40 MSTORE CALLVALUE DUP1 ISZERO PUSH2 0xF JUMPI PUSH0 DUP1 REVERT JUMPDEST POP PUSH1 0x40 MLOAD PUSH2 0x25A1 CODESIZE SUB DUP1 PUSH2 0x25A1 DUP4 CODECOPY DUP2 DUP2 ADD PUSH1 0x40 MSTORE DUP2 ADD SWAP1 PUSH2 0x31 SWAP2 SWAP1 PUSH2 0x302 JUMP JUMPDEST TIMESTAMP PUSH1 0xC0 DUP2 DUP2 MSTORE POP POP PUSH1 0xA PUSH1 0x3 DUP2 SWAP1 SSTORE POP CALLER PUSH20 0xFFFFFFFFFFFFFFFFFFFFFFFFFFFFFFFFFFFFFFFF AND PUSH1 0x80 DUP2 PUSH20 0xFFFFFFFFFFFFFFFFFFFFFFFFFFFFFFFFFFFFFFFF AND DUP2 MSTORE POP POP DUP5 PUSH1 0x4 PUSH1 0x1 PUSH2 0x100 EXP DUP2 SLOAD DUP2 PUSH20 0xFFFFFFFFFFFFFFFFFFFFFFFFFFFFFFFFFFFFFFFF MUL NOT AND SWAP1 DUP4 PUSH20 0xFFFFFFFFFFFFFFFFFFFFFFFFFFFFFFFFFFFFFFFF AND MUL OR SWAP1 SSTORE POP PUSH0 PUSH1 0x4 PUSH1 0x1 SWAP1 SLOAD SWAP1 PUSH2 0x100 EXP SWAP1 DIV PUSH20 0xFFFFFFFFFFFFFFFFFFFFFFFFFFFFFFFFFFFFFFFF AND PUSH20 0xFFFFFFFFFFFFFFFFFFFFFFFFFFFFFFFFFFFFFFFF AND PUSH4 0xEF555BC1 DUP7 PUSH1 0x40 MLOAD DUP3 PUSH4 0xFFFFFFFF AND PUSH1 0xE0 SHL DUP2 MSTORE PUSH1 0x4 ADD PUSH2 0x112 SWAP2 SWAP1 PUSH2 0x388 JUMP JUMPDEST PUSH0 PUSH1 0x40 MLOAD DUP1 DUP4 SUB DUP2 DUP7 GAS STATICCALL ISZERO DUP1 ISZERO PUSH2 0x12C JUMPI RETURNDATASIZE PUSH0 DUP1 RETURNDATACOPY RETURNDATASIZE PUSH0 REVERT JUMPDEST POP POP POP POP PUSH1 0x40 MLOAD RETURNDATASIZE PUSH0 DUP3 RETURNDATACOPY RETURNDATASIZE PUSH1 0x1F NOT PUSH1 0x1F DUP3 ADD AND DUP3 ADD DUP1 PUSH1 0x40 MSTORE POP DUP2 ADD SWAP1 PUSH2 0x154 SWAP2 SWAP1 PUSH2 0x5DD JUMP JUMPDEST SWAP1 POP DUP5 PUSH1 0xA DUP2 SWAP1 SSTORE POP PUSH1 0x4 PUSH1 0x1 SWAP1 SLOAD SWAP1 PUSH2 0x100 EXP SWAP1 DIV PUSH20 0xFFFFFFFFFFFFFFFFFFFFFFFFFFFFFFFFFFFFFFFF AND PUSH20 0xFFFFFFFFFFFFFFFFFFFFFFFFFFFFFFFFFFFFFFFF AND PUSH4 0xD57FA07D DUP3 PUSH1 0x60 ADD MLOAD DUP4 PUSH1 0x80 ADD MLOAD DUP8 DUP8 DUP8 PUSH1 0x40 MLOAD DUP7 PUSH4 0xFFFFFFFF AND PUSH1 0xE0 SHL DUP2 MSTORE PUSH1 0x4 ADD PUSH2 0x1C8 SWAP6 SWAP5 SWAP4 SWAP3 SWAP2 SWAP1 PUSH2 0x633 JUMP JUMPDEST PUSH1 0x20 PUSH1 0x40 MLOAD DUP1 DUP4 SUB DUP2 DUP7 GAS STATICCALL ISZERO DUP1 ISZERO PUSH2 0x1E3 JUMPI RETURNDATASIZE PUSH0 DUP1 RETURNDATACOPY RETURNDATASIZE PUSH0 REVERT JUMPDEST POP POP POP POP PUSH1 0x40 MLOAD RETURNDATASIZE PUSH1 0x1F NOT PUSH1 0x1F DUP3 ADD AND DUP3 ADD DUP1 PUSH1 0x40 MSTORE POP DUP2 ADD SWAP1 PUSH2 0x207 SWAP2 SWAP1 PUSH2 0x684 JUMP JUMPDEST PUSH1 0x1 DUP2 SWAP1 SSTORE POP PUSH1 0x3 PUSH1 0x1 SLOAD PUSH2 0x21C SWAP2 SWAP1 PUSH2 0x6DC JUMP JUMPDEST PUSH1 0xA0 DUP2 DUP2 MSTORE POP POP POP POP POP POP POP POP PUSH2 0x71D JUMP JUMPDEST PUSH0 PUSH1 0x40 MLOAD SWAP1 POP SWAP1 JUMP JUMPDEST PUSH0 DUP1 REVERT JUMPDEST PUSH0 DUP1 REVERT JUMPDEST PUSH0 PUSH20 0xFFFFFFFFFFFFFFFFFFFFFFFFFFFFFFFFFFFFFFFF DUP3 AND SWAP1 POP SWAP2 SWAP1 POP JUMP JUMPDEST PUSH0 PUSH2 0x268 DUP3 PUSH2 0x23F JUMP JUMPDEST SWAP1 POP SWAP2 SWAP1 POP JUMP JUMPDEST PUSH2 0x278 DUP2 PUSH2 0x25E JUMP JUMPDEST DUP2 EQ PUSH2 0x282 JUMPI PUSH0 DUP1 REVERT JUMPDEST POP JUMP JUMPDEST PUSH0 DUP2 MLOAD SWAP1 POP PUSH2 0x293 DUP2 PUSH2 0x26F JUMP JUMPDEST SWAP3 SWAP2 POP POP JUMP JUMPDEST PUSH0 DUP2 SWAP1 POP SWAP2 SWAP1 POP JUMP JUMPDEST PUSH2 0x2AB DUP2 PUSH2 0x299 JUMP JUMPDEST DUP2 EQ PUSH2 0x2B5 JUMPI PUSH0 DUP1 REVERT JUMPDEST POP JUMP JUMPDEST PUSH0 DUP2 MLOAD SWAP1 POP PUSH2 0x2C6 DUP2 PUSH2 0x2A2 JUMP JUMPDEST SWAP3 SWAP2 POP POP JUMP JUMPDEST PUSH0 PUSH1 0xFF DUP3 AND SWAP1 POP SWAP2 SWAP1 POP JUMP JUMPDEST PUSH2 0x2E1 DUP2 PUSH2 0x2CC JUMP JUMPDEST DUP2 EQ PUSH2 0x2EB JUMPI PUSH0 DUP1 REVERT JUMPDEST POP JUMP JUMPDEST PUSH0 DUP2 MLOAD SWAP1 POP PUSH2 0x2FC DUP2 PUSH2 0x2D8 JUMP JUMPDEST SWAP3 SWAP2 POP POP JUMP JUMPDEST PUSH0 DUP1 PUSH0 DUP1 PUSH0 PUSH1 0xA0 DUP7 DUP9 SUB SLT ISZERO PUSH2 0x31B JUMPI PUSH2 0x31A PUSH2 0x237 JUMP JUMPDEST JUMPDEST PUSH0 PUSH2 0x328 DUP9 DUP3 DUP10 ADD PUSH2 0x285 JUMP JUMPDEST SWAP6 POP POP PUSH1 0x20 PUSH2 0x339 DUP9 DUP3 DUP10 ADD PUSH2 0x2B8 JUMP JUMPDEST SWAP5 POP POP PUSH1 0x40 PUSH2 0x34A DUP9 DUP3 DUP10 ADD PUSH2 0x2EE JUMP JUMPDEST SWAP4 POP POP PUSH1 0x60 PUSH2 0x35B DUP9 DUP3 DUP10 ADD PUSH2 0x2B8 JUMP JUMPDEST SWAP3 POP POP PUSH1 0x80 PUSH2 0x36C DUP9 DUP3 DUP10 ADD PUSH2 0x2B8 JUMP JUMPDEST SWAP2 POP POP SWAP3 SWAP6 POP SWAP3 SWAP6 SWAP1 SWAP4 POP JUMP JUMPDEST PUSH2 0x382 DUP2 PUSH2 0x299 JUMP JUMPDEST DUP3 MSTORE POP POP JUMP JUMPDEST PUSH0 PUSH1 0x20 DUP3 ADD SWAP1 POP PUSH2 0x39B PUSH0 DUP4 ADD DUP5 PUSH2 0x379 JUMP JUMPDEST SWAP3 SWAP2 POP POP JUMP JUMPDEST PUSH0 DUP1 REVERT JUMPDEST PUSH0 PUSH1 0x1F NOT PUSH1 0x1F DUP4 ADD AND SWAP1 POP SWAP2 SWAP1 POP JUMP JUMPDEST PUSH32 0x4E487B7100000000000000000000000000000000000000000000000000000000 PUSH0 MSTORE PUSH1 0x41 PUSH1 0x4 MSTORE PUSH1 0x24 PUSH0 REVERT JUMPDEST PUSH2 0x3EB DUP3 PUSH2 0x3A5 JUMP JUMPDEST DUP2 ADD DUP2 DUP2 LT PUSH8 0xFFFFFFFFFFFFFFFF DUP3 GT OR ISZERO PUSH2 0x40A JUMPI PUSH2 0x409 PUSH2 0x3B5 JUMP JUMPDEST JUMPDEST DUP1 PUSH1 0x40 MSTORE POP POP POP JUMP JUMPDEST PUSH0 PUSH2 0x41C PUSH2 0x22E JUMP JUMPDEST SWAP1 POP PUSH2 0x428 DUP3 DUP3 PUSH2 0x3E2 JUMP JUMPDEST SWAP2 SWAP1 POP JUMP JUMPDEST PUSH0 DUP1 REVERT JUMPDEST PUSH0 DUP1 REVERT JUMPDEST PUSH0 DUP1 REVERT JUMPDEST PUSH0 PUSH8 0xFFFFFFFFFFFFFFFF DUP3 GT ISZERO PUSH2 0x453 JUMPI PUSH2 0x452 PUSH2 0x3B5 JUMP JUMPDEST JUMPDEST PUSH2 0x45C DUP3 PUSH2 0x3A5 JUMP JUMPDEST SWAP1 POP PUSH1 0x20 DUP2 ADD SWAP1 POP SWAP2 SWAP1 POP JUMP JUMPDEST DUP3 DUP2 DUP4 MCOPY PUSH0 DUP4 DUP4 ADD MSTORE POP POP POP JUMP JUMPDEST PUSH0 PUSH2 0x489 PUSH2 0x484 DUP5 PUSH2 0x439 JUMP JUMPDEST PUSH2 0x413 JUMP JUMPDEST SWAP1 POP DUP3 DUP2 MSTORE PUSH1 0x20 DUP2 ADD DUP5 DUP5 DUP5 ADD GT ISZERO PUSH2 0x4A5 JUMPI PUSH2 0x4A4 PUSH2 0x435 JUMP JUMPDEST JUMPDEST PUSH2 0x4B0 DUP5 DUP3 DUP6 PUSH2 0x469 JUMP JUMPDEST POP SWAP4 SWAP3 POP POP POP JUMP JUMPDEST PUSH0 DUP3 PUSH1 0x1F DUP4 ADD SLT PUSH2 0x4CC JUMPI PUSH2 0x4CB PUSH2 0x431 JUMP JUMPDEST JUMPDEST DUP2 MLOAD PUSH2 0x4DC DUP5 DUP3 PUSH1 0x20 DUP7 ADD PUSH2 0x477 JUMP JUMPDEST SWAP2 POP POP SWAP3 SWAP2 POP POP JUMP JUMPDEST PUSH0 PUSH2 0xFFFF DUP3 AND SWAP1 POP SWAP2 SWAP1 POP JUMP JUMPDEST PUSH2 0x4FB DUP2 PUSH2 0x4E5 JUMP JUMPDEST DUP2 EQ PUSH2 0x505 JUMPI PUSH0 DUP1 REVERT JUMPDEST POP JUMP JUMPDEST PUSH0 DUP2 MLOAD SWAP1 POP PUSH2 0x516 DUP2 PUSH2 0x4F2 JUMP JUMPDEST SWAP3 SWAP2 POP POP JUMP JUMPDEST PUSH0 PUSH1 0xA0 DUP3 DUP5 SUB SLT ISZERO PUSH2 0x531 JUMPI PUSH2 0x530 PUSH2 0x3A1 JUMP JUMPDEST JUMPDEST PUSH2 0x53B PUSH1 0xA0 PUSH2 0x413 JUMP JUMPDEST SWAP1 POP PUSH0 DUP3 ADD MLOAD PUSH8 0xFFFFFFFFFFFFFFFF DUP2 GT ISZERO PUSH2 0x55A JUMPI PUSH2 0x559 PUSH2 0x42D JUMP JUMPDEST JUMPDEST PUSH2 0x566 DUP5 DUP3 DUP6 ADD PUSH2 0x4B8 JUMP JUMPDEST PUSH0 DUP4 ADD MSTORE POP PUSH1 0x20 DUP3 ADD MLOAD PUSH8 0xFFFFFFFFFFFFFFFF DUP2 GT ISZERO PUSH2 0x589 JUMPI PUSH2 0x588 PUSH2 0x42D JUMP JUMPDEST JUMPDEST PUSH2 0x595 DUP5 DUP3 DUP6 ADD PUSH2 0x4B8 JUMP JUMPDEST PUSH1 0x20 DUP4 ADD MSTORE POP PUSH1 0x40 PUSH2 0x5A9 DUP5 DUP3 DUP6 ADD PUSH2 0x508 JUMP JUMPDEST PUSH1 0x40 DUP4 ADD MSTORE POP PUSH1 0x60 PUSH2 0x5BD DUP5 DUP3 DUP6 ADD PUSH2 0x2B8 JUMP JUMPDEST PUSH1 0x60 DUP4 ADD MSTORE POP PUSH1 0x80 PUSH2 0x5D1 DUP5 DUP3 DUP6 ADD PUSH2 0x2B8 JUMP JUMPDEST PUSH1 0x80 DUP4 ADD MSTORE POP SWAP3 SWAP2 POP POP JUMP JUMPDEST PUSH0 PUSH1 0x20 DUP3 DUP5 SUB SLT ISZERO PUSH2 0x5F2 JUMPI PUSH2 0x5F1 PUSH2 0x237 JUMP JUMPDEST JUMPDEST PUSH0 DUP3 ADD MLOAD PUSH8 0xFFFFFFFFFFFFFFFF DUP2 GT ISZERO PUSH2 0x60F JUMPI PUSH2 0x60E PUSH2 0x23B JUMP JUMPDEST JUMPDEST PUSH2 0x61B DUP5 DUP3 DUP6 ADD PUSH2 0x51C JUMP JUMPDEST SWAP2 POP POP SWAP3 SWAP2 POP POP JUMP JUMPDEST PUSH2 0x62D DUP2 PUSH2 0x2CC JUMP JUMPDEST DUP3 MSTORE POP POP JUMP JUMPDEST PUSH0 PUSH1 0xA0 DUP3 ADD SWAP1 POP PUSH2 0x646 PUSH0 DUP4 ADD DUP9 PUSH2 0x379 JUMP JUMPDEST PUSH2 0x653 PUSH1 0x20 DUP4 ADD DUP8 PUSH2 0x379 JUMP JUMPDEST PUSH2 0x660 PUSH1 0x40 DUP4 ADD DUP7 PUSH2 0x624 JUMP JUMPDEST PUSH2 0x66D PUSH1 0x60 DUP4 ADD DUP6 PUSH2 0x379 JUMP JUMPDEST PUSH2 0x67A PUSH1 0x80 DUP4 ADD DUP5 PUSH2 0x379 JUMP JUMPDEST SWAP7 SWAP6 POP POP POP POP POP POP JUMP JUMPDEST PUSH0 PUSH1 0x20 DUP3 DUP5 SUB SLT ISZERO PUSH2 0x699 JUMPI PUSH2 0x698 PUSH2 0x237 JUMP JUMPDEST JUMPDEST PUSH0 PUSH2 0x6A6 DUP5 DUP3 DUP6 ADD PUSH2 0x2B8 JUMP JUMPDEST SWAP2 POP POP SWAP3 SWAP2 POP POP JUMP JUMPDEST PUSH32 0x4E487B7100000000000000000000000000000000000000000000000000000000 PUSH0 MSTORE PUSH1 0x11 PUSH1 0x4 MSTORE PUSH1 0x24 PUSH0 REVERT JUMPDEST PUSH0 PUSH2 0x6E6 DUP3 PUSH2 0x299 JUMP JUMPDEST SWAP2 POP PUSH2 0x6F1 DUP4 PUSH2 0x299 JUMP JUMPDEST SWAP3 POP DUP3 DUP3 MUL PUSH2 0x6FF DUP2 PUSH2 0x299 JUMP JUMPDEST SWAP2 POP DUP3 DUP3 DIV DUP5 EQ DUP4 ISZERO OR PUSH2 0x716 JUMPI PUSH2 0x715 PUSH2 0x6AF JUMP JUMPDEST JUMPDEST POP SWAP3 SWAP2 POP POP JUMP JUMPDEST PUSH1 0x80 MLOAD PUSH1 0xA0 MLOAD PUSH1 0xC0 MLOAD PUSH2 0x1E22 PUSH2 0x77F PUSH0 CODECOPY PUSH0 PUSH2 0x395 ADD MSTORE PUSH0 DUP2 DUP2 PUSH2 0x404 ADD MSTORE DUP2 DUP2 PUSH2 0x47C ADD MSTORE DUP2 DUP2 PUSH2 0x682 ADD MSTORE DUP2 DUP2 PUSH2 0x7C7 ADD MSTORE PUSH2 0xEEB ADD MSTORE PUSH0 DUP2 DUP2 PUSH2 0x6E2 ADD MSTORE DUP2 DUP2 PUSH2 0x78A ADD MSTORE DUP2 DUP2 PUSH2 0xA63 ADD MSTORE DUP2 DUP2 PUSH2 0xB54 ADD MSTORE PUSH2 0xBE4 ADD MSTORE PUSH2 0x1E22 PUSH0 RETURN INVALID PUSH1 0x80 PUSH1 0x40 MSTORE PUSH1 0x4 CALLDATASIZE LT PUSH2 0xFD JUMPI PUSH0 CALLDATALOAD PUSH1 0xE0 SHR DUP1 PUSH4 0x9599BE87 GT PUSH2 0x94 JUMPI DUP1 PUSH4 0xCA15C67C GT PUSH2 0x63 JUMPI DUP1 PUSH4 0xCA15C67C EQ PUSH2 0x2BE JUMPI DUP1 PUSH4 0xD6DD04F7 EQ PUSH2 0x2E8 JUMPI DUP1 PUSH4 0xD9DE1C03 EQ PUSH2 0x312 JUMPI DUP1 PUSH4 0xF6FEF779 EQ PUSH2 0x33C JUMPI DUP1 PUSH4 0xF9A96071 EQ PUSH2 0x366 JUMPI PUSH2 0xFD JUMP JUMPDEST DUP1 PUSH4 0x9599BE87 EQ PUSH2 0x21A JUMPI DUP1 PUSH4 0x9C205BB7 EQ PUSH2 0x244 JUMPI DUP1 PUSH4 0xA7A4FB99 EQ PUSH2 0x26E JUMPI DUP1 PUSH4 0xC51DADDB EQ PUSH2 0x296 JUMPI PUSH2 0xFD JUMP JUMPDEST DUP1 PUSH4 0x581A7310 GT PUSH2 0xD0 JUMPI DUP1 PUSH4 0x581A7310 EQ PUSH2 0x173 JUMPI DUP1 PUSH4 0x650D993B EQ PUSH2 0x189 JUMPI DUP1 PUSH4 0x6E04FF0D EQ PUSH2 0x1B3 JUMPI DUP1 PUSH4 0x8FC8E811 EQ PUSH2 0x1F0 JUMPI PUSH2 0xFD JUMP JUMPDEST DUP1 PUSH4 0xF380A56 EQ PUSH2 0x101 JUMPI DUP1 PUSH4 0x1168C9A8 EQ PUSH2 0x10B JUMPI DUP1 PUSH4 0x2990536C EQ PUSH2 0x121 JUMPI DUP1 PUSH4 0x4585E33B EQ PUSH2 0x14B JUMPI JUMPDEST PUSH0 DUP1 REVERT JUMPDEST PUSH2 0x109 PUSH2 0x390 JUMP JUMPDEST STOP JUMPDEST CALLVALUE DUP1 ISZERO PUSH2 0x116 JUMPI PUSH0 DUP1 REVERT JUMPDEST POP PUSH2 0x11F PUSH2 0x557 JUMP JUMPDEST STOP JUMPDEST CALLVALUE DUP1 ISZERO PUSH2 0x12C JUMPI PUSH0 DUP1 REVERT JUMPDEST POP PUSH2 0x135 PUSH2 0x5E6 JUMP JUMPDEST PUSH1 0x40 MLOAD PUSH2 0x142 SWAP2 SWAP1 PUSH2 0x10D5 JUMP JUMPDEST PUSH1 0x40 MLOAD DUP1 SWAP2 SUB SWAP1 RETURN JUMPDEST CALLVALUE DUP1 ISZERO PUSH2 0x156 JUMPI PUSH0 DUP1 REVERT JUMPDEST POP PUSH2 0x171 PUSH1 0x4 DUP1 CALLDATASIZE SUB DUP2 ADD SWAP1 PUSH2 0x16C SWAP2 SWAP1 PUSH2 0x1160 JUMP JUMPDEST PUSH2 0x62D JUMP JUMPDEST STOP JUMPDEST CALLVALUE DUP1 ISZERO PUSH2 0x17E JUMPI PUSH0 DUP1 REVERT JUMPDEST POP PUSH2 0x187 PUSH2 0x6E0 JUMP JUMPDEST STOP JUMPDEST CALLVALUE DUP1 ISZERO PUSH2 0x194 JUMPI PUSH0 DUP1 REVERT JUMPDEST POP PUSH2 0x19D PUSH2 0x9EB JUMP JUMPDEST PUSH1 0x40 MLOAD PUSH2 0x1AA SWAP2 SWAP1 PUSH2 0x11EA JUMP JUMPDEST PUSH1 0x40 MLOAD DUP1 SWAP2 SUB SWAP1 RETURN JUMPDEST CALLVALUE DUP1 ISZERO PUSH2 0x1BE JUMPI PUSH0 DUP1 REVERT JUMPDEST POP PUSH2 0x1D9 PUSH1 0x4 DUP1 CALLDATASIZE SUB DUP2 ADD SWAP1 PUSH2 0x1D4 SWAP2 SWAP1 PUSH2 0x1160 JUMP JUMPDEST PUSH2 0xA12 JUMP JUMPDEST PUSH1 0x40 MLOAD PUSH2 0x1E7 SWAP3 SWAP2 SWAP1 PUSH2 0x1273 JUMP JUMPDEST PUSH1 0x40 MLOAD DUP1 SWAP2 SUB SWAP1 RETURN JUMPDEST CALLVALUE DUP1 ISZERO PUSH2 0x1FB JUMPI PUSH0 DUP1 REVERT JUMPDEST POP PUSH2 0x204 PUSH2 0xA42 JUMP JUMPDEST PUSH1 0x40 MLOAD PUSH2 0x211 SWAP2 SWAP1 PUSH2 0x12B9 JUMP JUMPDEST PUSH1 0x40 MLOAD DUP1 SWAP2 SUB SWAP1 RETURN JUMPDEST CALLVALUE DUP1 ISZERO PUSH2 0x225 JUMPI PUSH0 DUP1 REVERT JUMPDEST POP PUSH2 0x22E PUSH2 0xA4B JUMP JUMPDEST PUSH1 0x40 MLOAD PUSH2 0x23B SWAP2 SWAP1 PUSH2 0x10D5 JUMP JUMPDEST PUSH1 0x40 MLOAD DUP1 SWAP2 SUB SWAP1 RETURN JUMPDEST CALLVALUE DUP1 ISZERO PUSH2 0x24F JUMPI PUSH0 DUP1 REVERT JUMPDEST POP PUSH2 0x258 PUSH2 0xA60 JUMP JUMPDEST PUSH1 0x40 MLOAD PUSH2 0x265 SWAP2 SWAP1 PUSH2 0x12F2 JUMP JUMPDEST PUSH1 0x40 MLOAD DUP1 SWAP2 SUB SWAP1 RETURN JUMPDEST CALLVALUE DUP1 ISZERO PUSH2 0x279 JUMPI PUSH0 DUP1 REVERT JUMPDEST POP PUSH2 0x294 PUSH1 0x4 DUP1 CALLDATASIZE SUB DUP2 ADD SWAP1 PUSH2 0x28F SWAP2 SWAP1 PUSH2 0x1335 JUMP JUMPDEST PUSH2 0xA87 JUMP JUMPDEST STOP JUMPDEST CALLVALUE DUP1 ISZERO PUSH2 0x2A1 JUMPI PUSH0 DUP1 REVERT JUMPDEST POP PUSH2 0x2BC PUSH1 0x4 DUP1 CALLDATASIZE SUB DUP2 ADD SWAP1 PUSH2 0x2B7 SWAP2 SWAP1 PUSH2 0x1396 JUMP JUMPDEST PUSH2 0xBE2 JUMP JUMPDEST STOP JUMPDEST CALLVALUE DUP1 ISZERO PUSH2 0x2C9 JUMPI PUSH0 DUP1 REVERT JUMPDEST POP PUSH2 0x2D2 PUSH2 0xEBF JUMP JUMPDEST PUSH1 0x40 MLOAD PUSH2 0x2DF SWAP2 SWAP1 PUSH2 0x1441 JUMP JUMPDEST PUSH1 0x40 MLOAD DUP1 SWAP2 SUB SWAP1 RETURN JUMPDEST CALLVALUE DUP1 ISZERO PUSH2 0x2F3 JUMPI PUSH0 DUP1 REVERT JUMPDEST POP PUSH2 0x2FC PUSH2 0xEE8 JUMP JUMPDEST PUSH1 0x40 MLOAD PUSH2 0x309 SWAP2 SWAP1 PUSH2 0x12B9 JUMP JUMPDEST PUSH1 0x40 MLOAD DUP1 SWAP2 SUB SWAP1 RETURN JUMPDEST CALLVALUE DUP1 ISZERO PUSH2 0x31D JUMPI PUSH0 DUP1 REVERT JUMPDEST POP PUSH2 0x326 PUSH2 0xF0F JUMP JUMPDEST PUSH1 0x40 MLOAD PUSH2 0x333 SWAP2 SWAP1 PUSH2 0x1551 JUMP JUMPDEST PUSH1 0x40 MLOAD DUP1 SWAP2 SUB SWAP1 RETURN JUMPDEST CALLVALUE DUP1 ISZERO PUSH2 0x347 JUMPI PUSH0 DUP1 REVERT JUMPDEST POP PUSH2 0x350 PUSH2 0x107B JUMP JUMPDEST PUSH1 0x40 MLOAD PUSH2 0x35D SWAP2 SWAP1 PUSH2 0x12B9 JUMP JUMPDEST PUSH1 0x40 MLOAD DUP1 SWAP2 SUB SWAP1 RETURN JUMPDEST CALLVALUE DUP1 ISZERO PUSH2 0x371 JUMPI PUSH0 DUP1 REVERT JUMPDEST POP PUSH2 0x37A PUSH2 0x1084 JUMP JUMPDEST PUSH1 0x40 MLOAD PUSH2 0x387 SWAP2 SWAP1 PUSH2 0x12B9 JUMP JUMPDEST PUSH1 0x40 MLOAD DUP1 SWAP2 SUB SWAP1 RETURN JUMPDEST TIMESTAMP PUSH1 0x2 PUSH32 0x0 PUSH2 0x3BE SWAP2 SWAP1 PUSH2 0x159E JUMP JUMPDEST LT ISZERO PUSH2 0x3FF JUMPI PUSH1 0x40 MLOAD PUSH32 0x8C379A000000000000000000000000000000000000000000000000000000000 DUP2 MSTORE PUSH1 0x4 ADD PUSH2 0x3F6 SWAP1 PUSH2 0x1651 JUMP JUMPDEST PUSH1 0x40 MLOAD DUP1 SWAP2 SUB SWAP1 REVERT JUMPDEST PUSH1 0x1 SLOAD PUSH32 0x0 PUSH2 0x42D SWAP2 SWAP1 PUSH2 0x159E JUMP JUMPDEST CALLVALUE LT ISZERO PUSH2 0x46F JUMPI PUSH1 0x40 MLOAD PUSH32 0x8C379A000000000000000000000000000000000000000000000000000000000 DUP2 MSTORE PUSH1 0x4 ADD PUSH2 0x466 SWAP1 PUSH2 0x16DF JUMP JUMPDEST PUSH1 0x40 MLOAD DUP1 SWAP2 SUB SWAP1 REVERT JUMPDEST TIMESTAMP PUSH1 0x2 DUP2 SWAP1 SSTORE POP PUSH0 PUSH1 0x1 SLOAD PUSH32 0x0 PUSH2 0x4A5 SWAP2 SWAP1 PUSH2 0x159E JUMP JUMPDEST CALLVALUE PUSH2 0x4B0 SWAP2 SWAP1 PUSH2 0x16FD JUMP JUMPDEST SWAP1 POP CALLER PUSH0 DUP1 PUSH2 0x100 EXP DUP2 SLOAD DUP2 PUSH20 0xFFFFFFFFFFFFFFFFFFFFFFFFFFFFFFFFFFFFFFFF MUL NOT AND SWAP1 DUP4 PUSH20 0xFFFFFFFFFFFFFFFFFFFFFFFFFFFFFFFFFFFFFFFF AND MUL OR SWAP1 SSTORE POP PUSH0 DUP1 SLOAD SWAP1 PUSH2 0x100 EXP SWAP1 DIV PUSH20 0xFFFFFFFFFFFFFFFFFFFFFFFFFFFFFFFFFFFFFFFF AND PUSH20 0xFFFFFFFFFFFFFFFFFFFFFFFFFFFFFFFFFFFFFFFF AND PUSH2 0x8FC DUP3 SWAP1 DUP2 ISZERO MUL SWAP1 PUSH1 0x40 MLOAD PUSH0 PUSH1 0x40 MLOAD DUP1 DUP4 SUB DUP2 DUP6 DUP9 DUP9 CALL SWAP4 POP POP POP POP ISZERO DUP1 ISZERO PUSH2 0x553 JUMPI RETURNDATASIZE PUSH0 DUP1 RETURNDATACOPY RETURNDATASIZE PUSH0 REVERT JUMPDEST POP POP JUMP JUMPDEST PUSH0 DUP1 SLOAD SWAP1 PUSH2 0x100 EXP SWAP1 DIV PUSH20 0xFFFFFFFFFFFFFFFFFFFFFFFFFFFFFFFFFFFFFFFF AND PUSH20 0xFFFFFFFFFFFFFFFFFFFFFFFFFFFFFFFFFFFFFFFF AND CALLER PUSH20 0xFFFFFFFFFFFFFFFFFFFFFFFFFFFFFFFFFFFFFFFF AND EQ PUSH2 0x5E4 JUMPI PUSH1 0x40 MLOAD PUSH32 0x8C379A000000000000000000000000000000000000000000000000000000000 DUP2 MSTORE PUSH1 0x4 ADD PUSH2 0x5DB SWAP1 PUSH2 0x17A0 JUMP JUMPDEST PUSH1 0x40 MLOAD DUP1 SWAP2 SUB SWAP1 REVERT JUMPDEST JUMP JUMPDEST PUSH0 DUP1 PUSH0 DUP1 SLOAD SWAP1 PUSH2 0x100 EXP SWAP1 DIV PUSH20 0xFFFFFFFFFFFFFFFFFFFFFFFFFFFFFFFFFFFFFFFF AND PUSH20 0xFFFFFFFFFFFFFFFFFFFFFFFFFFFFFFFFFFFFFFFF AND BALANCE SWAP1 POP PUSH1 0x1 SLOAD DUP2 LT ISZERO SWAP2 POP POP SWAP1 JUMP JUMPDEST PUSH1 0x3 SLOAD PUSH1 0x2 SLOAD TIMESTAMP PUSH2 0x63E SWAP2 SWAP1 PUSH2 0x16FD JUMP JUMPDEST GT ISZERO PUSH2 0x6DC JUMPI PUSH0 DUP1 SLOAD SWAP1 PUSH2 0x100 EXP SWAP1 DIV PUSH20 0xFFFFFFFFFFFFFFFFFFFFFFFFFFFFFFFFFFFFFFFF AND PUSH20 0xFFFFFFFFFFFFFFFFFFFFFFFFFFFFFFFFFFFFFFFF AND PUSH2 0x8FC PUSH1 0x1 SLOAD PUSH32 0x0 PUSH2 0x6AB SWAP2 SWAP1 PUSH2 0x159E JUMP JUMPDEST SWAP1 DUP2 ISZERO MUL SWAP1 PUSH1 0x40 MLOAD PUSH0 PUSH1 0x40 MLOAD DUP1 DUP4 SUB DUP2 DUP6 DUP9 DUP9 CALL SWAP4 POP POP POP POP ISZERO DUP1 ISZERO PUSH2 0x6D3 JUMPI RETURNDATASIZE PUSH0 DUP1 RETURNDATACOPY RETURNDATASIZE PUSH0 REVERT JUMPDEST POP PUSH0 PUSH1 0x2 DUP2 SWAP1 SSTORE POP JUMPDEST POP POP JUMP JUMPDEST PUSH32 0x0 PUSH20 0xFFFFFFFFFFFFFFFFFFFFFFFFFFFFFFFFFFFFFFFF AND CALLER PUSH20 0xFFFFFFFFFFFFFFFFFFFFFFFFFFFFFFFFFFFFFFFF AND EQ PUSH2 0x76E JUMPI PUSH1 0x40 MLOAD PUSH32 0x8C379A000000000000000000000000000000000000000000000000000000000 DUP2 MSTORE PUSH1 0x4 ADD PUSH2 0x765 SWAP1 PUSH2 0x182E JUMP JUMPDEST PUSH1 0x40 MLOAD DUP1 SWAP2 SUB SWAP1 REVERT JUMPDEST PUSH1 0x1 PUSH1 0x4 PUSH0 PUSH2 0x100 EXP DUP2 SLOAD DUP2 PUSH1 0xFF MUL NOT AND SWAP1 DUP4 ISZERO ISZERO MUL OR SWAP1 SSTORE POP PUSH32 0x0 PUSH20 0xFFFFFFFFFFFFFFFFFFFFFFFFFFFFFFFFFFFFFFFF AND PUSH2 0x8FC PUSH1 0x1 SLOAD PUSH32 0x0 PUSH2 0x7F0 SWAP2 SWAP1 PUSH2 0x159E JUMP JUMPDEST SWAP1 DUP2 ISZERO MUL SWAP1 PUSH1 0x40 MLOAD PUSH0 PUSH1 0x40 MLOAD DUP1 DUP4 SUB DUP2 DUP6 DUP9 DUP9 CALL SWAP4 POP POP POP POP ISZERO DUP1 ISZERO PUSH2 0x818 JUMPI RETURNDATASIZE PUSH0 DUP1 RETURNDATACOPY RETURNDATASIZE PUSH0 REVERT JUMPDEST POP PUSH1 0x4 PUSH1 0x1 SWAP1 SLOAD SWAP1 PUSH2 0x100 EXP SWAP1 DIV PUSH20 0xFFFFFFFFFFFFFFFFFFFFFFFFFFFFFFFFFFFFFFFF AND PUSH20 0xFFFFFFFFFFFFFFFFFFFFFFFFFFFFFFFFFFFFFFFF AND PUSH4 0xC776194F ADDRESS PUSH20 0xFFFFFFFFFFFFFFFFFFFFFFFFFFFFFFFFFFFFFFFF AND PUSH4 0x650D993B PUSH1 0x40 MLOAD DUP2 PUSH4 0xFFFFFFFF AND PUSH1 0xE0 SHL DUP2 MSTORE PUSH1 0x4 ADD PUSH1 0x20 PUSH1 0x40 MLOAD DUP1 DUP4 SUB DUP2 DUP7 GAS STATICCALL ISZERO DUP1 ISZERO PUSH2 0x8A0 JUMPI RETURNDATASIZE PUSH0 DUP1 RETURNDATACOPY RETURNDATASIZE PUSH0 REVERT JUMPDEST POP POP POP POP PUSH1 0x40 MLOAD RETURNDATASIZE PUSH1 0x1F NOT PUSH1 0x1F DUP3 ADD AND DUP3 ADD DUP1 PUSH1 0x40 MSTORE POP DUP2 ADD SWAP1 PUSH2 0x8C4 SWAP2 SWAP1 PUSH2 0x1876 JUMP JUMPDEST ADDRESS PUSH20 0xFFFFFFFFFFFFFFFFFFFFFFFFFFFFFFFFFFFFFFFF AND PUSH4 0x9C205BB7 PUSH1 0x40 MLOAD DUP2 PUSH4 0xFFFFFFFF AND PUSH1 0xE0 SHL DUP2 MSTORE PUSH1 0x4 ADD PUSH1 0x20 PUSH1 0x40 MLOAD DUP1 DUP4 SUB DUP2 DUP7 GAS STATICCALL ISZERO DUP1 ISZERO PUSH2 0x90D JUMPI RETURNDATASIZE PUSH0 DUP1 RETURNDATACOPY RETURNDATASIZE PUSH0 REVERT JUMPDEST POP POP POP POP PUSH1 0x40 MLOAD RETURNDATASIZE PUSH1 0x1F NOT PUSH1 0x1F DUP3 ADD AND DUP3 ADD DUP1 PUSH1 0x40 MSTORE POP DUP2 ADD SWAP1 PUSH2 0x931 SWAP2 SWAP1 PUSH2 0x18CB JUMP JUMPDEST ADDRESS PUSH20 0xFFFFFFFFFFFFFFFFFFFFFFFFFFFFFFFFFFFFFFFF AND PUSH4 0x8FC8E811 PUSH1 0x40 MLOAD DUP2 PUSH4 0xFFFFFFFF AND PUSH1 0xE0 SHL DUP2 MSTORE PUSH1 0x4 ADD PUSH1 0x20 PUSH1 0x40 MLOAD DUP1 DUP4 SUB DUP2 DUP7 GAS STATICCALL ISZERO DUP1 ISZERO PUSH2 0x97A JUMPI RETURNDATASIZE PUSH0 DUP1 RETURNDATACOPY RETURNDATASIZE PUSH0 REVERT JUMPDEST POP POP POP POP PUSH1 0x40 MLOAD RETURNDATASIZE PUSH1 0x1F NOT PUSH1 0x1F DUP3 ADD AND DUP3 ADD DUP1 PUSH1 0x40 MSTORE POP DUP2 ADD SWAP1 PUSH2 0x99E SWAP2 SWAP1 PUSH2 0x190A JUMP JUMPDEST PUSH1 0x40 MLOAD DUP5 PUSH4 0xFFFFFFFF AND PUSH1 0xE0 SHL DUP2 MSTORE PUSH1 0x4 ADD PUSH2 0x9BC SWAP4 SWAP3 SWAP2 SWAP1 PUSH2 0x1955 JUMP JUMPDEST PUSH0 PUSH1 0x40 MLOAD DUP1 DUP4 SUB DUP2 PUSH0 DUP8 DUP1 EXTCODESIZE ISZERO DUP1 ISZERO PUSH2 0x9D3 JUMPI PUSH0 DUP1 REVERT JUMPDEST POP GAS CALL ISZERO DUP1 ISZERO PUSH2 0x9E5 JUMPI RETURNDATASIZE PUSH0 DUP1 RETURNDATACOPY RETURNDATASIZE PUSH0 REVERT JUMPDEST POP POP POP POP JUMP JUMPDEST PUSH0 DUP1 PUSH0 SWAP1 SLOAD SWAP1 PUSH2 0x100 EXP SWAP1 DIV PUSH20 0xFFFFFFFFFFFFFFFFFFFFFFFFFFFFFFFFFFFFFFFF AND SWAP1 POP SWAP1 JUMP JUMPDEST PUSH0 PUSH1 0x60 PUSH0 PUSH1 0x2 SLOAD SUB PUSH2 0xA26 JUMPI PUSH0 SWAP2 POP PUSH2 0xA3B JUMP JUMPDEST PUSH1 0x3 SLOAD PUSH1 0x2 SLOAD TIMESTAMP PUSH2 0xA37 SWAP2 SWAP1 PUSH2 0x16FD JUMP JUMPDEST GT SWAP2 POP JUMPDEST SWAP3 POP SWAP3 SWAP1 POP JUMP JUMPDEST PUSH0 PUSH1 0xA SLOAD SWAP1 POP SWAP1 JUMP JUMPDEST PUSH0 PUSH1 0x4 PUSH0 SWAP1 SLOAD SWAP1 PUSH2 0x100 EXP SWAP1 DIV PUSH1 0xFF AND SWAP1 POP SWAP1 JUMP JUMPDEST PUSH0 PUSH32 0x0 SWAP1 POP SWAP1 JUMP JUMPDEST PUSH0 DUP1 SLOAD SWAP1 PUSH2 0x100 EXP SWAP1 DIV PUSH20 0xFFFFFFFFFFFFFFFFFFFFFFFFFFFFFFFFFFFFFFFF AND PUSH20 0xFFFFFFFFFFFFFFFFFFFFFFFFFFFFFFFFFFFFFFFF AND CALLER PUSH20 0xFFFFFFFFFFFFFFFFFFFFFFFFFFFFFFFFFFFFFFFF AND EQ PUSH2 0xB14 JUMPI PUSH1 0x40 MLOAD PUSH32 0x8C379A000000000000000000000000000000000000000000000000000000000 DUP2 MSTORE PUSH1 0x4 ADD PUSH2 0xB0B SWAP1 PUSH2 0x19FA JUMP JUMPDEST PUSH1 0x40 MLOAD DUP1 SWAP2 SUB SWAP1 REVERT JUMPDEST PUSH1 0x4 PUSH1 0x1 SWAP1 SLOAD SWAP1 PUSH2 0x100 EXP SWAP1 DIV PUSH20 0xFFFFFFFFFFFFFFFFFFFFFFFFFFFFFFFFFFFFFFFF AND PUSH20 0xFFFFFFFFFFFFFFFFFFFFFFFFFFFFFFFFFFFFFFFF AND PUSH4 0x42842E0E PUSH32 0x0 PUSH0 DUP1 SLOAD SWAP1 PUSH2 0x100 EXP SWAP1 DIV PUSH20 0xFFFFFFFFFFFFFFFFFFFFFFFFFFFFFFFFFFFFFFFF AND DUP5 PUSH1 0x40 MLOAD DUP5 PUSH4 0xFFFFFFFF AND PUSH1 0xE0 SHL DUP2 MSTORE PUSH1 0x4 ADD PUSH2 0xBB2 SWAP4 SWAP3 SWAP2 SWAP1 PUSH2 0x1A18 JUMP JUMPDEST PUSH0 PUSH1 0x40 MLOAD DUP1 DUP4 SUB DUP2 PUSH0 DUP8 DUP1 EXTCODESIZE ISZERO DUP1 ISZERO PUSH2 0xBC9 JUMPI PUSH0 DUP1 REVERT JUMPDEST POP GAS CALL ISZERO DUP1 ISZERO PUSH2 0xBDB JUMPI RETURNDATASIZE PUSH0 DUP1 RETURNDATACOPY RETURNDATASIZE PUSH0 REVERT JUMPDEST POP POP POP POP POP JUMP JUMPDEST PUSH32 0x0 PUSH20 0xFFFFFFFFFFFFFFFFFFFFFFFFFFFFFFFFFFFFFFFF AND CALLER PUSH20 0xFFFFFFFFFFFFFFFFFFFFFFFFFFFFFFFFFFFFFFFF AND EQ PUSH2 0xC70 JUMPI PUSH1 0x40 MLOAD PUSH32 0x8C379A000000000000000000000000000000000000000000000000000000000 DUP2 MSTORE PUSH1 0x4 ADD PUSH2 0xC67 SWAP1 PUSH2 0x182E JUMP JUMPDEST PUSH1 0x40 MLOAD DUP1 SWAP2 SUB SWAP1 REVERT JUMPDEST PUSH0 DUP1 SLOAD SWAP1 PUSH2 0x100 EXP SWAP1 DIV PUSH20 0xFFFFFFFFFFFFFFFFFFFFFFFFFFFFFFFFFFFFFFFF AND PUSH20 0xFFFFFFFFFFFFFFFFFFFFFFFFFFFFFFFFFFFFFFFF AND CALLER PUSH20 0xFFFFFFFFFFFFFFFFFFFFFFFFFFFFFFFFFFFFFFFF AND EQ PUSH2 0xCFD JUMPI PUSH1 0x40 MLOAD PUSH32 0x8C379A000000000000000000000000000000000000000000000000000000000 DUP2 MSTORE PUSH1 0x4 ADD PUSH2 0xCF4 SWAP1 PUSH2 0x1ABD JUMP JUMPDEST PUSH1 0x40 MLOAD DUP1 SWAP2 SUB SWAP1 REVERT JUMPDEST PUSH0 PUSH1 0x4 PUSH1 0x1 SWAP1 SLOAD SWAP1 PUSH2 0x100 EXP SWAP1 DIV PUSH20 0xFFFFFFFFFFFFFFFFFFFFFFFFFFFFFFFFFFFFFFFF AND PUSH20 0xFFFFFFFFFFFFFFFFFFFFFFFFFFFFFFFFFFFFFFFF AND PUSH4 0xEF555BC1 ADDRESS PUSH20 0xFFFFFFFFFFFFFFFFFFFFFFFFFFFFFFFFFFFFFFFF AND PUSH4 0x8FC8E811 PUSH1 0x40 MLOAD DUP2 PUSH4 0xFFFFFFFF AND PUSH1 0xE0 SHL DUP2 MSTORE PUSH1 0x4 ADD PUSH1 0x20 PUSH1 0x40 MLOAD DUP1 DUP4 SUB DUP2 DUP7 GAS STATICCALL ISZERO DUP1 ISZERO PUSH2 0xD85 JUMPI RETURNDATASIZE PUSH0 DUP1 RETURNDATACOPY RETURNDATASIZE PUSH0 REVERT JUMPDEST POP POP POP POP PUSH1 0x40 MLOAD RETURNDATASIZE PUSH1 0x1F NOT PUSH1 0x1F DUP3 ADD AND DUP3 ADD DUP1 PUSH1 0x40 MSTORE POP DUP2 ADD SWAP1 PUSH2 0xDA9 SWAP2 SWAP1 PUSH2 0x190A JUMP JUMPDEST PUSH1 0x40 MLOAD DUP3 PUSH4 0xFFFFFFFF AND PUSH1 0xE0 SHL DUP2 MSTORE PUSH1 0x4 ADD PUSH2 0xDC5 SWAP2 SWAP1 PUSH2 0x12B9 JUMP JUMPDEST PUSH0 PUSH1 0x40 MLOAD DUP1 DUP4 SUB DUP2 DUP7 GAS STATICCALL ISZERO DUP1 ISZERO PUSH2 0xDDF JUMPI RETURNDATASIZE PUSH0 DUP1 RETURNDATACOPY RETURNDATASIZE PUSH0 REVERT JUMPDEST POP POP POP POP PUSH1 0x40 MLOAD RETURNDATASIZE PUSH0 DUP3 RETURNDATACOPY RETURNDATASIZE PUSH1 0x1F NOT PUSH1 0x1F DUP3 ADD AND DUP3 ADD DUP1 PUSH1 0x40 MSTORE POP DUP2 ADD SWAP1 PUSH2 0xE07 SWAP2 SWAP1 PUSH2 0x1CE8 JUMP JUMPDEST SWAP1 POP PUSH1 0x4 PUSH1 0x1 SWAP1 SLOAD SWAP1 PUSH2 0x100 EXP SWAP1 DIV PUSH20 0xFFFFFFFFFFFFFFFFFFFFFFFFFFFFFFFFFFFFFFFF AND PUSH20 0xFFFFFFFFFFFFFFFFFFFFFFFFFFFFFFFFFFFFFFFF AND PUSH4 0xD57FA07D DUP3 PUSH1 0x60 ADD MLOAD DUP4 PUSH1 0x80 ADD MLOAD DUP7 DUP7 DUP10 PUSH1 0x40 MLOAD DUP7 PUSH4 0xFFFFFFFF AND PUSH1 0xE0 SHL DUP2 MSTORE PUSH1 0x4 ADD PUSH2 0xE74 SWAP6 SWAP5 SWAP4 SWAP3 SWAP2 SWAP1 PUSH2 0x1D3E JUMP JUMPDEST PUSH1 0x20 PUSH1 0x40 MLOAD DUP1 DUP4 SUB DUP2 DUP7 GAS STATICCALL ISZERO DUP1 ISZERO PUSH2 0xE8F JUMPI RETURNDATASIZE PUSH0 DUP1 RETURNDATACOPY RETURNDATASIZE PUSH0 REVERT JUMPDEST POP POP POP POP PUSH1 0x40 MLOAD RETURNDATASIZE PUSH1 0x1F NOT PUSH1 0x1F DUP3 ADD AND DUP3 ADD DUP1 PUSH1 0x40 MSTORE POP DUP2 ADD SWAP1 PUSH2 0xEB3 SWAP2 SWAP1 PUSH2 0x190A JUMP JUMPDEST PUSH1 0x1 DUP2 SWAP1 SSTORE POP POP POP POP POP JUMP JUMPDEST PUSH0 PUSH1 0x4 PUSH1 0x1 SWAP1 SLOAD SWAP1 PUSH2 0x100 EXP SWAP1 DIV PUSH20 0xFFFFFFFFFFFFFFFFFFFFFFFFFFFFFFFFFFFFFFFF AND SWAP1 POP SWAP1 JUMP JUMPDEST PUSH0 PUSH32 0x0 SWAP1 POP SWAP1 JUMP JUMPDEST PUSH2 0xF17 PUSH2 0x108B JUMP JUMPDEST PUSH1 0x5 PUSH1 0x40 MLOAD DUP1 PUSH1 0xA0 ADD PUSH1 0x40 MSTORE SWAP1 DUP2 PUSH0 DUP3 ADD DUP1 SLOAD PUSH2 0xF33 SWAP1 PUSH2 0x1DBC JUMP JUMPDEST DUP1 PUSH1 0x1F ADD PUSH1 0x20 DUP1 SWAP2 DIV MUL PUSH1 0x20 ADD PUSH1 0x40 MLOAD SWAP1 DUP2 ADD PUSH1 0x40 MSTORE DUP1 SWAP3 SWAP2 SWAP1 DUP2 DUP2 MSTORE PUSH1 0x20 ADD DUP3 DUP1 SLOAD PUSH2 0xF5F SWAP1 PUSH2 0x1DBC JUMP JUMPDEST DUP1 ISZERO PUSH2 0xFAA JUMPI DUP1 PUSH1 0x1F LT PUSH2 0xF81 JUMPI PUSH2 0x100 DUP1 DUP4 SLOAD DIV MUL DUP4 MSTORE SWAP2 PUSH1 0x20 ADD SWAP2 PUSH2 0xFAA JUMP JUMPDEST DUP3 ADD SWAP2 SWAP1 PUSH0 MSTORE PUSH1 0x20 PUSH0 KECCAK256 SWAP1 JUMPDEST DUP2 SLOAD DUP2 MSTORE SWAP1 PUSH1 0x1 ADD SWAP1 PUSH1 0x20 ADD DUP1 DUP4 GT PUSH2 0xF8D JUMPI DUP3 SWAP1 SUB PUSH1 0x1F AND DUP3 ADD SWAP2 JUMPDEST POP POP POP POP POP DUP2 MSTORE PUSH1 0x20 ADD PUSH1 0x1 DUP3 ADD DUP1 SLOAD PUSH2 0xFC3 SWAP1 PUSH2 0x1DBC JUMP JUMPDEST DUP1 PUSH1 0x1F ADD PUSH1 0x20 DUP1 SWAP2 DIV MUL PUSH1 0x20 ADD PUSH1 0x40 MLOAD SWAP1 DUP2 ADD PUSH1 0x40 MSTORE DUP1 SWAP3 SWAP2 SWAP1 DUP2 DUP2 MSTORE PUSH1 0x20 ADD DUP3 DUP1 SLOAD PUSH2 0xFEF SWAP1 PUSH2 0x1DBC JUMP JUMPDEST DUP1 ISZERO PUSH2 0x103A JUMPI DUP1 PUSH1 0x1F LT PUSH2 0x1011 JUMPI PUSH2 0x100 DUP1 DUP4 SLOAD DIV MUL DUP4 MSTORE SWAP2 PUSH1 0x20 ADD SWAP2 PUSH2 0x103A JUMP JUMPDEST DUP3 ADD SWAP2 SWAP1 PUSH0 MSTORE PUSH1 0x20 PUSH0 KECCAK256 SWAP1 JUMPDEST DUP2 SLOAD DUP2 MSTORE SWAP1 PUSH1 0x1 ADD SWAP1 PUSH1 0x20 ADD DUP1 DUP4 GT PUSH2 0x101D JUMPI DUP3 SWAP1 SUB PUSH1 0x1F AND DUP3 ADD SWAP2 JUMPDEST POP POP POP POP POP DUP2 MSTORE PUSH1 0x20 ADD PUSH1 0x2 DUP3 ADD PUSH0 SWAP1 SLOAD SWAP1 PUSH2 0x100 EXP SWAP1 DIV PUSH2 0xFFFF AND PUSH2 0xFFFF AND PUSH2 0xFFFF AND DUP2 MSTORE PUSH1 0x20 ADD PUSH1 0x3 DUP3 ADD SLOAD DUP2 MSTORE PUSH1 0x20 ADD PUSH1 0x4 DUP3 ADD SLOAD DUP2 MSTORE POP POP SWAP1 POP SWAP1 JUMP JUMPDEST PUSH0 PUSH1 0x1 SLOAD SWAP1 POP SWAP1 JUMP JUMPDEST PUSH0 SELFBALANCE SWAP1 POP SWAP1 JUMP JUMPDEST PUSH1 0x40 MLOAD DUP1 PUSH1 0xA0 ADD PUSH1 0x40 MSTORE DUP1 PUSH1 0x60 DUP2 MSTORE PUSH1 0x20 ADD PUSH1 0x60 DUP2 MSTORE PUSH1 0x20 ADD PUSH0 PUSH2 0xFFFF AND DUP2 MSTORE PUSH1 0x20 ADD PUSH0 DUP2 MSTORE PUSH1 0x20 ADD PUSH0 DUP2 MSTORE POP SWAP1 JUMP JUMPDEST PUSH0 DUP2 ISZERO ISZERO SWAP1 POP SWAP2 SWAP1 POP JUMP JUMPDEST PUSH2 0x10CF DUP2 PUSH2 0x10BB JUMP JUMPDEST DUP3 MSTORE POP POP JUMP JUMPDEST PUSH0 PUSH1 0x20 DUP3 ADD SWAP1 POP PUSH2 0x10E8 PUSH0 DUP4 ADD DUP5 PUSH2 0x10C6 JUMP JUMPDEST SWAP3 SWAP2 POP POP JUMP JUMPDEST PUSH0 PUSH1 0x40 MLOAD SWAP1 POP SWAP1 JUMP JUMPDEST PUSH0 DUP1 REVERT JUMPDEST PUSH0 DUP1 REVERT JUMPDEST PUSH0 DUP1 REVERT JUMPDEST PUSH0 DUP1 REVERT JUMPDEST PUSH0 DUP1 REVERT JUMPDEST PUSH0 DUP1 DUP4 PUSH1 0x1F DUP5 ADD SLT PUSH2 0x1120 JUMPI PUSH2 0x111F PUSH2 0x10FF JUMP JUMPDEST JUMPDEST DUP3 CALLDATALOAD SWAP1 POP PUSH8 0xFFFFFFFFFFFFFFFF DUP2 GT ISZERO PUSH2 0x113D JUMPI PUSH2 0x113C PUSH2 0x1103 JUMP JUMPDEST JUMPDEST PUSH1 0x20 DUP4 ADD SWAP2 POP DUP4 PUSH1 0x1 DUP3 MUL DUP4 ADD GT ISZERO PUSH2 0x1159 JUMPI PUSH2 0x1158 PUSH2 0x1107 JUMP JUMPDEST JUMPDEST SWAP3 POP SWAP3 SWAP1 POP JUMP JUMPDEST PUSH0 DUP1 PUSH1 0x20 DUP4 DUP6 SUB SLT ISZERO PUSH2 0x1176 JUMPI PUSH2 0x1175 PUSH2 0x10F7 JUMP JUMPDEST JUMPDEST PUSH0 DUP4 ADD CALLDATALOAD PUSH8 0xFFFFFFFFFFFFFFFF DUP2 GT ISZERO PUSH2 0x1193 JUMPI PUSH2 0x1192 PUSH2 0x10FB JUMP JUMPDEST JUMPDEST PUSH2 0x119F DUP6 DUP3 DUP7 ADD PUSH2 0x110B JUMP JUMPDEST SWAP3 POP SWAP3 POP POP SWAP3 POP SWAP3 SWAP1 POP JUMP JUMPDEST PUSH0 PUSH20 0xFFFFFFFFFFFFFFFFFFFFFFFFFFFFFFFFFFFFFFFF DUP3 AND SWAP1 POP SWAP2 SWAP1 POP JUMP JUMPDEST PUSH0 PUSH2 0x11D4 DUP3 PUSH2 0x11AB JUMP JUMPDEST SWAP1 POP SWAP2 SWAP1 POP JUMP JUMPDEST PUSH2 0x11E4 DUP2 PUSH2 0x11CA JUMP JUMPDEST DUP3 MSTORE POP POP JUMP JUMPDEST PUSH0 PUSH1 0x20 DUP3 ADD SWAP1 POP PUSH2 0x11FD PUSH0 DUP4 ADD DUP5 PUSH2 0x11DB JUMP JUMPDEST SWAP3 SWAP2 POP POP JUMP JUMPDEST PUSH0 DUP2 MLOAD SWAP1 POP SWAP2 SWAP1 POP JUMP JUMPDEST PUSH0 DUP3 DUP3 MSTORE PUSH1 0x20 DUP3 ADD SWAP1 POP SWAP3 SWAP2 POP POP JUMP JUMPDEST DUP3 DUP2 DUP4 MCOPY PUSH0 DUP4 DUP4 ADD MSTORE POP POP POP JUMP JUMPDEST PUSH0 PUSH1 0x1F NOT PUSH1 0x1F DUP4 ADD AND SWAP1 POP SWAP2 SWAP1 POP JUMP JUMPDEST PUSH0 PUSH2 0x1245 DUP3 PUSH2 0x1203 JUMP JUMPDEST PUSH2 0x124F DUP2 DUP6 PUSH2 0x120D JUMP JUMPDEST SWAP4 POP PUSH2 0x125F DUP2 DUP6 PUSH1 0x20 DUP7 ADD PUSH2 0x121D JUMP JUMPDEST PUSH2 0x1268 DUP2 PUSH2 0x122B JUMP JUMPDEST DUP5 ADD SWAP2 POP POP SWAP3 SWAP2 POP POP JUMP JUMPDEST PUSH0 PUSH1 0x40 DUP3 ADD SWAP1 POP PUSH2 0x1286 PUSH0 DUP4 ADD DUP6 PUSH2 0x10C6 JUMP JUMPDEST DUP2 DUP2 SUB PUSH1 0x20 DUP4 ADD MSTORE PUSH2 0x1298 DUP2 DUP5 PUSH2 0x123B JUMP JUMPDEST SWAP1 POP SWAP4 SWAP3 POP POP POP JUMP JUMPDEST PUSH0 DUP2 SWAP1 POP SWAP2 SWAP1 POP JUMP JUMPDEST PUSH2 0x12B3 DUP2 PUSH2 0x12A1 JUMP JUMPDEST DUP3 MSTORE POP POP JUMP JUMPDEST PUSH0 PUSH1 0x20 DUP3 ADD SWAP1 POP PUSH2 0x12CC PUSH0 DUP4 ADD DUP5 PUSH2 0x12AA JUMP JUMPDEST SWAP3 SWAP2 POP POP JUMP JUMPDEST PUSH0 PUSH2 0x12DC DUP3 PUSH2 0x11AB JUMP JUMPDEST SWAP1 POP SWAP2 SWAP1 POP JUMP JUMPDEST PUSH2 0x12EC DUP2 PUSH2 0x12D2 JUMP JUMPDEST DUP3 MSTORE POP POP JUMP JUMPDEST PUSH0 PUSH1 0x20 DUP3 ADD SWAP1 POP PUSH2 0x1305 PUSH0 DUP4 ADD DUP5 PUSH2 0x12E3 JUMP JUMPDEST SWAP3 SWAP2 POP POP JUMP JUMPDEST PUSH2 0x1314 DUP2 PUSH2 0x12A1 JUMP JUMPDEST DUP2 EQ PUSH2 0x131E JUMPI PUSH0 DUP1 REVERT JUMPDEST POP JUMP JUMPDEST PUSH0 DUP2 CALLDATALOAD SWAP1 POP PUSH2 0x132F DUP2 PUSH2 0x130B JUMP JUMPDEST SWAP3 SWAP2 POP POP JUMP JUMPDEST PUSH0 PUSH1 0x20 DUP3 DUP5 SUB SLT ISZERO PUSH2 0x134A JUMPI PUSH2 0x1349 PUSH2 0x10F7 JUMP JUMPDEST JUMPDEST PUSH0 PUSH2 0x1357 DUP5 DUP3 DUP6 ADD PUSH2 0x1321 JUMP JUMPDEST SWAP2 POP POP SWAP3 SWAP2 POP POP JUMP JUMPDEST PUSH0 PUSH1 0xFF DUP3 AND SWAP1 POP SWAP2 SWAP1 POP JUMP JUMPDEST PUSH2 0x1375 DUP2 PUSH2 0x1360 JUMP JUMPDEST DUP2 EQ PUSH2 0x137F JUMPI PUSH0 DUP1 REVERT JUMPDEST POP JUMP JUMPDEST PUSH0 DUP2 CALLDATALOAD SWAP1 POP PUSH2 0x1390 DUP2 PUSH2 0x136C JUMP JUMPDEST SWAP3 SWAP2 POP POP JUMP JUMPDEST PUSH0 DUP1 PUSH0 PUSH1 0x60 DUP5 DUP7 SUB SLT ISZERO PUSH2 0x13AD JUMPI PUSH2 0x13AC PUSH2 0x10F7 JUMP JUMPDEST JUMPDEST PUSH0 PUSH2 0x13BA DUP7 DUP3 DUP8 ADD PUSH2 0x1321 JUMP JUMPDEST SWAP4 POP POP PUSH1 0x20 PUSH2 0x13CB DUP7 DUP3 DUP8 ADD PUSH2 0x1382 JUMP JUMPDEST SWAP3 POP POP PUSH1 0x40 PUSH2 0x13DC DUP7 DUP3 DUP8 ADD PUSH2 0x1321 JUMP JUMPDEST SWAP2 POP POP SWAP3 POP SWAP3 POP SWAP3 JUMP JUMPDEST PUSH0 DUP2 SWAP1 POP SWAP2 SWAP1 POP JUMP JUMPDEST PUSH0 PUSH2 0x1409 PUSH2 0x1404 PUSH2 0x13FF DUP5 PUSH2 0x11AB JUMP JUMPDEST PUSH2 0x13E6 JUMP JUMPDEST PUSH2 0x11AB JUMP JUMPDEST SWAP1 POP SWAP2 SWAP1 POP JUMP JUMPDEST PUSH0 PUSH2 0x141A DUP3 PUSH2 0x13EF JUMP JUMPDEST SWAP1 POP SWAP2 SWAP1 POP JUMP JUMPDEST PUSH0 PUSH2 0x142B DUP3 PUSH2 0x1410 JUMP JUMPDEST SWAP1 POP SWAP2 SWAP1 POP JUMP JUMPDEST PUSH2 0x143B DUP2 PUSH2 0x1421 JUMP JUMPDEST DUP3 MSTORE POP POP JUMP JUMPDEST PUSH0 PUSH1 0x20 DUP3 ADD SWAP1 POP PUSH2 0x1454 PUSH0 DUP4 ADD DUP5 PUSH2 0x1432 JUMP JUMPDEST SWAP3 SWAP2 POP POP JUMP JUMPDEST PUSH0 DUP2 MLOAD SWAP1 POP SWAP2 SWAP1 POP JUMP JUMPDEST PUSH0 DUP3 DUP3 MSTORE PUSH1 0x20 DUP3 ADD SWAP1 POP SWAP3 SWAP2 POP POP JUMP JUMPDEST PUSH0 PUSH2 0x147E DUP3 PUSH2 0x145A JUMP JUMPDEST PUSH2 0x1488 DUP2 DUP6 PUSH2 0x1464 JUMP JUMPDEST SWAP4 POP PUSH2 0x1498 DUP2 DUP6 PUSH1 0x20 DUP7 ADD PUSH2 0x121D JUMP JUMPDEST PUSH2 0x14A1 DUP2 PUSH2 0x122B JUMP JUMPDEST DUP5 ADD SWAP2 POP POP SWAP3 SWAP2 POP POP JUMP JUMPDEST PUSH0 PUSH2 0xFFFF DUP3 AND SWAP1 POP SWAP2 SWAP1 POP JUMP JUMPDEST PUSH2 0x14C2 DUP2 PUSH2 0x14AC JUMP JUMPDEST DUP3 MSTORE POP POP JUMP JUMPDEST PUSH2 0x14D1 DUP2 PUSH2 0x12A1 JUMP JUMPDEST DUP3 MSTORE POP POP JUMP JUMPDEST PUSH0 PUSH1 0xA0 DUP4 ADD PUSH0 DUP4 ADD MLOAD DUP5 DUP3 SUB PUSH0 DUP7 ADD MSTORE PUSH2 0x14F1 DUP3 DUP3 PUSH2 0x1474 JUMP JUMPDEST SWAP2 POP POP PUSH1 0x20 DUP4 ADD MLOAD DUP5 DUP3 SUB PUSH1 0x20 DUP7 ADD MSTORE PUSH2 0x150B DUP3 DUP3 PUSH2 0x1474 JUMP JUMPDEST SWAP2 POP POP PUSH1 0x40 DUP4 ADD MLOAD PUSH2 0x1520 PUSH1 0x40 DUP7 ADD DUP3 PUSH2 0x14B9 JUMP JUMPDEST POP PUSH1 0x60 DUP4 ADD MLOAD PUSH2 0x1533 PUSH1 0x60 DUP7 ADD DUP3 PUSH2 0x14C8 JUMP JUMPDEST POP PUSH1 0x80 DUP4 ADD MLOAD PUSH2 0x1546 PUSH1 0x80 DUP7 ADD DUP3 PUSH2 0x14C8 JUMP JUMPDEST POP DUP1 SWAP2 POP POP SWAP3 SWAP2 POP POP JUMP JUMPDEST PUSH0 PUSH1 0x20 DUP3 ADD SWAP1 POP DUP2 DUP2 SUB PUSH0 DUP4 ADD MSTORE PUSH2 0x1569 DUP2 DUP5 PUSH2 0x14D7 JUMP JUMPDEST SWAP1 POP SWAP3 SWAP2 POP POP JUMP JUMPDEST PUSH32 0x4E487B7100000000000000000000000000000000000000000000000000000000 PUSH0 MSTORE PUSH1 0x11 PUSH1 0x4 MSTORE PUSH1 0x24 PUSH0 REVERT JUMPDEST PUSH0 PUSH2 0x15A8 DUP3 PUSH2 0x12A1 JUMP JUMPDEST SWAP2 POP PUSH2 0x15B3 DUP4 PUSH2 0x12A1 JUMP JUMPDEST SWAP3 POP DUP3 DUP3 ADD SWAP1 POP DUP1 DUP3 GT ISZERO PUSH2 0x15CB JUMPI PUSH2 0x15CA PUSH2 0x1571 JUMP JUMPDEST JUMPDEST SWAP3 SWAP2 POP POP JUMP JUMPDEST PUSH0 DUP3 DUP3 MSTORE PUSH1 0x20 DUP3 ADD SWAP1 POP SWAP3 SWAP2 POP POP JUMP JUMPDEST PUSH32 0x4C6561736541677265656D656E743A2054686520646561646C696E652072616E PUSH0 DUP3 ADD MSTORE PUSH32 0x206F757400000000000000000000000000000000000000000000000000000000 PUSH1 0x20 DUP3 ADD MSTORE POP JUMP JUMPDEST PUSH0 PUSH2 0x163B PUSH1 0x24 DUP4 PUSH2 0x15D1 JUMP JUMPDEST SWAP2 POP PUSH2 0x1646 DUP3 PUSH2 0x15E1 JUMP JUMPDEST PUSH1 0x40 DUP3 ADD SWAP1 POP SWAP2 SWAP1 POP JUMP JUMPDEST PUSH0 PUSH1 0x20 DUP3 ADD SWAP1 POP DUP2 DUP2 SUB PUSH0 DUP4 ADD MSTORE PUSH2 0x1668 DUP2 PUSH2 0x162F JUMP JUMPDEST SWAP1 POP SWAP2 SWAP1 POP JUMP JUMPDEST PUSH32 0x4C6561736541677265656D656E743A20496E636F7272656374207061796D656E PUSH0 DUP3 ADD MSTORE PUSH32 0x7420616D6F756E74000000000000000000000000000000000000000000000000 PUSH1 0x20 DUP3 ADD MSTORE POP JUMP JUMPDEST PUSH0 PUSH2 0x16C9 PUSH1 0x28 DUP4 PUSH2 0x15D1 JUMP JUMPDEST SWAP2 POP PUSH2 0x16D4 DUP3 PUSH2 0x166F JUMP JUMPDEST PUSH1 0x40 DUP3 ADD SWAP1 POP SWAP2 SWAP1 POP JUMP JUMPDEST PUSH0 PUSH1 0x20 DUP3 ADD SWAP1 POP DUP2 DUP2 SUB PUSH0 DUP4 ADD MSTORE PUSH2 0x16F6 DUP2 PUSH2 0x16BD JUMP JUMPDEST SWAP1 POP SWAP2 SWAP1 POP JUMP JUMPDEST PUSH0 PUSH2 0x1707 DUP3 PUSH2 0x12A1 JUMP JUMPDEST SWAP2 POP PUSH2 0x1712 DUP4 PUSH2 0x12A1 JUMP JUMPDEST SWAP3 POP DUP3 DUP3 SUB SWAP1 POP DUP2 DUP2 GT ISZERO PUSH2 0x172A JUMPI PUSH2 0x1729 PUSH2 0x1571 JUMP JUMPDEST JUMPDEST SWAP3 SWAP2 POP POP JUMP JUMPDEST PUSH32 0x4C6561736541677265656D656E743A204F6E6C7920637573746F6D6572206361 PUSH0 DUP3 ADD MSTORE PUSH32 0x6E207465726D696E617465000000000000000000000000000000000000000000 PUSH1 0x20 DUP3 ADD MSTORE POP JUMP JUMPDEST PUSH0 PUSH2 0x178A PUSH1 0x2B DUP4 PUSH2 0x15D1 JUMP JUMPDEST SWAP2 POP PUSH2 0x1795 DUP3 PUSH2 0x1730 JUMP JUMPDEST PUSH1 0x40 DUP3 ADD SWAP1 POP SWAP2 SWAP1 POP JUMP JUMPDEST PUSH0 PUSH1 0x20 DUP3 ADD SWAP1 POP DUP2 DUP2 SUB PUSH0 DUP4 ADD MSTORE PUSH2 0x17B7 DUP2 PUSH2 0x177E JUMP JUMPDEST SWAP1 POP SWAP2 SWAP1 POP JUMP JUMPDEST PUSH32 0x4C6561736541677265656D656E743A204F6E6C7920746865206F776E65722D63 PUSH0 DUP3 ADD MSTORE PUSH32 0x6F6D70616E792063616E20706572666F726D207468697320616374696F6E0000 PUSH1 0x20 DUP3 ADD MSTORE POP JUMP JUMPDEST PUSH0 PUSH2 0x1818 PUSH1 0x3E DUP4 PUSH2 0x15D1 JUMP JUMPDEST SWAP2 POP PUSH2 0x1823 DUP3 PUSH2 0x17BE JUMP JUMPDEST PUSH1 0x40 DUP3 ADD SWAP1 POP SWAP2 SWAP1 POP JUMP JUMPDEST PUSH0 PUSH1 0x20 DUP3 ADD SWAP1 POP DUP2 DUP2 SUB PUSH0 DUP4 ADD MSTORE PUSH2 0x1845 DUP2 PUSH2 0x180C JUMP JUMPDEST SWAP1 POP SWAP2 SWAP1 POP JUMP JUMPDEST PUSH2 0x1855 DUP2 PUSH2 0x11CA JUMP JUMPDEST DUP2 EQ PUSH2 0x185F JUMPI PUSH0 DUP1 REVERT JUMPDEST POP JUMP JUMPDEST PUSH0 DUP2 MLOAD SWAP1 POP PUSH2 0x1870 DUP2 PUSH2 0x184C JUMP JUMPDEST SWAP3 SWAP2 POP POP JUMP JUMPDEST PUSH0 PUSH1 0x20 DUP3 DUP5 SUB SLT ISZERO PUSH2 0x188B JUMPI PUSH2 0x188A PUSH2 0x10F7 JUMP JUMPDEST JUMPDEST PUSH0 PUSH2 0x1898 DUP5 DUP3 DUP6 ADD PUSH2 0x1862 JUMP JUMPDEST SWAP2 POP POP SWAP3 SWAP2 POP POP JUMP JUMPDEST PUSH2 0x18AA DUP2 PUSH2 0x12D2 JUMP JUMPDEST DUP2 EQ PUSH2 0x18B4 JUMPI PUSH0 DUP1 REVERT JUMPDEST POP JUMP JUMPDEST PUSH0 DUP2 MLOAD SWAP1 POP PUSH2 0x18C5 DUP2 PUSH2 0x18A1 JUMP JUMPDEST SWAP3 SWAP2 POP POP JUMP JUMPDEST PUSH0 PUSH1 0x20 DUP3 DUP5 SUB SLT ISZERO PUSH2 0x18E0 JUMPI PUSH2 0x18DF PUSH2 0x10F7 JUMP JUMPDEST JUMPDEST PUSH0 PUSH2 0x18ED DUP5 DUP3 DUP6 ADD PUSH2 0x18B7 JUMP JUMPDEST SWAP2 POP POP SWAP3 SWAP2 POP POP JUMP JUMPDEST PUSH0 DUP2 MLOAD SWAP1 POP PUSH2 0x1904 DUP2 PUSH2 0x130B JUMP JUMPDEST SWAP3 SWAP2 POP POP JUMP JUMPDEST PUSH0 PUSH1 0x20 DUP3 DUP5 SUB SLT ISZERO PUSH2 0x191F JUMPI PUSH2 0x191E PUSH2 0x10F7 JUMP JUMPDEST JUMPDEST PUSH0 PUSH2 0x192C DUP5 DUP3 DUP6 ADD PUSH2 0x18F6 JUMP JUMPDEST SWAP2 POP POP SWAP3 SWAP2 POP POP JUMP JUMPDEST PUSH0 PUSH2 0x193F DUP3 PUSH2 0x1410 JUMP JUMPDEST SWAP1 POP SWAP2 SWAP1 POP JUMP JUMPDEST PUSH2 0x194F DUP2 PUSH2 0x1935 JUMP JUMPDEST DUP3 MSTORE POP POP JUMP JUMPDEST PUSH0 PUSH1 0x60 DUP3 ADD SWAP1 POP PUSH2 0x1968 PUSH0 DUP4 ADD DUP7 PUSH2 0x11DB JUMP JUMPDEST PUSH2 0x1975 PUSH1 0x20 DUP4 ADD DUP6 PUSH2 0x1946 JUMP JUMPDEST PUSH2 0x1982 PUSH1 0x40 DUP4 ADD DUP5 PUSH2 0x12AA JUMP JUMPDEST SWAP5 SWAP4 POP POP POP POP JUMP JUMPDEST PUSH32 0x4C6561736541677265656D656E743A204F6E6C7920637573746F6D6572206361 PUSH0 DUP3 ADD MSTORE PUSH32 0x6E206C656173652061206E657720636172000000000000000000000000000000 PUSH1 0x20 DUP3 ADD MSTORE POP JUMP JUMPDEST PUSH0 PUSH2 0x19E4 PUSH1 0x31 DUP4 PUSH2 0x15D1 JUMP JUMPDEST SWAP2 POP PUSH2 0x19EF DUP3 PUSH2 0x198A JUMP JUMPDEST PUSH1 0x40 DUP3 ADD SWAP1 POP SWAP2 SWAP1 POP JUMP JUMPDEST PUSH0 PUSH1 0x20 DUP3 ADD SWAP1 POP DUP2 DUP2 SUB PUSH0 DUP4 ADD MSTORE PUSH2 0x1A11 DUP2 PUSH2 0x19D8 JUMP JUMPDEST SWAP1 POP SWAP2 SWAP1 POP JUMP JUMPDEST PUSH0 PUSH1 0x60 DUP3 ADD SWAP1 POP PUSH2 0x1A2B PUSH0 DUP4 ADD DUP7 PUSH2 0x1946 JUMP JUMPDEST PUSH2 0x1A38 PUSH1 0x20 DUP4 ADD DUP6 PUSH2 0x1946 JUMP JUMPDEST PUSH2 0x1A45 PUSH1 0x40 DUP4 ADD DUP5 PUSH2 0x12AA JUMP JUMPDEST SWAP5 SWAP4 POP POP POP POP JUMP JUMPDEST PUSH32 0x4C6561736541677265656D656E743A204F6E6C7920637573746F6D6572206361 PUSH0 DUP3 ADD MSTORE PUSH32 0x6E20657874656E64000000000000000000000000000000000000000000000000 PUSH1 0x20 DUP3 ADD MSTORE POP JUMP JUMPDEST PUSH0 PUSH2 0x1AA7 PUSH1 0x28 DUP4 PUSH2 0x15D1 JUMP JUMPDEST SWAP2 POP PUSH2 0x1AB2 DUP3 PUSH2 0x1A4D JUMP JUMPDEST PUSH1 0x40 DUP3 ADD SWAP1 POP SWAP2 SWAP1 POP JUMP JUMPDEST PUSH0 PUSH1 0x20 DUP3 ADD SWAP1 POP DUP2 DUP2 SUB PUSH0 DUP4 ADD MSTORE PUSH2 0x1AD4 DUP2 PUSH2 0x1A9B JUMP JUMPDEST SWAP1 POP SWAP2 SWAP1 POP JUMP JUMPDEST PUSH0 DUP1 REVERT JUMPDEST PUSH32 0x4E487B7100000000000000000000000000000000000000000000000000000000 PUSH0 MSTORE PUSH1 0x41 PUSH1 0x4 MSTORE PUSH1 0x24 PUSH0 REVERT JUMPDEST PUSH2 0x1B15 DUP3 PUSH2 0x122B JUMP JUMPDEST DUP2 ADD DUP2 DUP2 LT PUSH8 0xFFFFFFFFFFFFFFFF DUP3 GT OR ISZERO PUSH2 0x1B34 JUMPI PUSH2 0x1B33 PUSH2 0x1ADF JUMP JUMPDEST JUMPDEST DUP1 PUSH1 0x40 MSTORE POP POP POP JUMP JUMPDEST PUSH0 PUSH2 0x1B46 PUSH2 0x10EE JUMP JUMPDEST SWAP1 POP PUSH2 0x1B52 DUP3 DUP3 PUSH2 0x1B0C JUMP JUMPDEST SWAP2 SWAP1 POP JUMP JUMPDEST PUSH0 DUP1 REVERT JUMPDEST PUSH0 DUP1 REVERT JUMPDEST PUSH0 PUSH8 0xFFFFFFFFFFFFFFFF DUP3 GT ISZERO PUSH2 0x1B79 JUMPI PUSH2 0x1B78 PUSH2 0x1ADF JUMP JUMPDEST JUMPDEST PUSH2 0x1B82 DUP3 PUSH2 0x122B JUMP JUMPDEST SWAP1 POP PUSH1 0x20 DUP2 ADD SWAP1 POP SWAP2 SWAP1 POP JUMP JUMPDEST PUSH0 PUSH2 0x1BA1 PUSH2 0x1B9C DUP5 PUSH2 0x1B5F JUMP JUMPDEST PUSH2 0x1B3D JUMP JUMPDEST SWAP1 POP DUP3 DUP2 MSTORE PUSH1 0x20 DUP2 ADD DUP5 DUP5 DUP5 ADD GT ISZERO PUSH2 0x1BBD JUMPI PUSH2 0x1BBC PUSH2 0x1B5B JUMP JUMPDEST JUMPDEST PUSH2 0x1BC8 DUP5 DUP3 DUP6 PUSH2 0x121D JUMP JUMPDEST POP SWAP4 SWAP3 POP POP POP JUMP JUMPDEST PUSH0 DUP3 PUSH1 0x1F DUP4 ADD SLT PUSH2 0x1BE4 JUMPI PUSH2 0x1BE3 PUSH2 0x10FF JUMP JUMPDEST JUMPDEST DUP2 MLOAD PUSH2 0x1BF4 DUP5 DUP3 PUSH1 0x20 DUP7 ADD PUSH2 0x1B8F JUMP JUMPDEST SWAP2 POP POP SWAP3 SWAP2 POP POP JUMP JUMPDEST PUSH2 0x1C06 DUP2 PUSH2 0x14AC JUMP JUMPDEST DUP2 EQ PUSH2 0x1C10 JUMPI PUSH0 DUP1 REVERT JUMPDEST POP JUMP JUMPDEST PUSH0 DUP2 MLOAD SWAP1 POP PUSH2 0x1C21 DUP2 PUSH2 0x1BFD JUMP JUMPDEST SWAP3 SWAP2 POP POP JUMP JUMPDEST PUSH0 PUSH1 0xA0 DUP3 DUP5 SUB SLT ISZERO PUSH2 0x1C3C JUMPI PUSH2 0x1C3B PUSH2 0x1ADB JUMP JUMPDEST JUMPDEST PUSH2 0x1C46 PUSH1 0xA0 PUSH2 0x1B3D JUMP JUMPDEST SWAP1 POP PUSH0 DUP3 ADD MLOAD PUSH8 0xFFFFFFFFFFFFFFFF DUP2 GT ISZERO PUSH2 0x1C65 JUMPI PUSH2 0x1C64 PUSH2 0x1B57 JUMP JUMPDEST JUMPDEST PUSH2 0x1C71 DUP5 DUP3 DUP6 ADD PUSH2 0x1BD0 JUMP JUMPDEST PUSH0 DUP4 ADD MSTORE POP PUSH1 0x20 DUP3 ADD MLOAD PUSH8 0xFFFFFFFFFFFFFFFF DUP2 GT ISZERO PUSH2 0x1C94 JUMPI PUSH2 0x1C93 PUSH2 0x1B57 JUMP JUMPDEST JUMPDEST PUSH2 0x1CA0 DUP5 DUP3 DUP6 ADD PUSH2 0x1BD0 JUMP JUMPDEST PUSH1 0x20 DUP4 ADD MSTORE POP PUSH1 0x40 PUSH2 0x1CB4 DUP5 DUP3 DUP6 ADD PUSH2 0x1C13 JUMP JUMPDEST PUSH1 0x40 DUP4 ADD MSTORE POP PUSH1 0x60 PUSH2 0x1CC8 DUP5 DUP3 DUP6 ADD PUSH2 0x18F6 JUMP JUMPDEST PUSH1 0x60 DUP4 ADD MSTORE POP PUSH1 0x80 PUSH2 0x1CDC DUP5 DUP3 DUP6 ADD PUSH2 0x18F6 JUMP JUMPDEST PUSH1 0x80 DUP4 ADD MSTORE POP SWAP3 SWAP2 POP POP JUMP JUMPDEST PUSH0 PUSH1 0x20 DUP3 DUP5 SUB SLT ISZERO PUSH2 0x1CFD JUMPI PUSH2 0x1CFC PUSH2 0x10F7 JUMP JUMPDEST JUMPDEST PUSH0 DUP3 ADD MLOAD PUSH8 0xFFFFFFFFFFFFFFFF DUP2 GT ISZERO PUSH2 0x1D1A JUMPI PUSH2 0x1D19 PUSH2 0x10FB JUMP JUMPDEST JUMPDEST PUSH2 0x1D26 DUP5 DUP3 DUP6 ADD PUSH2 0x1C27 JUMP JUMPDEST SWAP2 POP POP SWAP3 SWAP2 POP POP JUMP JUMPDEST PUSH2 0x1D38 DUP2 PUSH2 0x1360 JUMP JUMPDEST DUP3 MSTORE POP POP JUMP JUMPDEST PUSH0 PUSH1 0xA0 DUP3 ADD SWAP1 POP PUSH2 0x1D51 PUSH0 DUP4 ADD DUP9 PUSH2 0x12AA JUMP JUMPDEST PUSH2 0x1D5E PUSH1 0x20 DUP4 ADD DUP8 PUSH2 0x12AA JUMP JUMPDEST PUSH2 0x1D6B PUSH1 0x40 DUP4 ADD DUP7 PUSH2 0x1D2F JUMP JUMPDEST PUSH2 0x1D78 PUSH1 0x60 DUP4 ADD DUP6 PUSH2 0x12AA JUMP JUMPDEST PUSH2 0x1D85 PUSH1 0x80 DUP4 ADD DUP5 PUSH2 0x12AA JUMP JUMPDEST SWAP7 SWAP6 POP POP POP POP POP POP JUMP JUMPDEST PUSH32 0x4E487B7100000000000000000000000000000000000000000000000000000000 PUSH0 MSTORE PUSH1 0x22 PUSH1 0x4 MSTORE PUSH1 0x24 PUSH0 REVERT JUMPDEST PUSH0 PUSH1 0x2 DUP3 DIV SWAP1 POP PUSH1 0x1 DUP3 AND DUP1 PUSH2 0x1DD3 JUMPI PUSH1 0x7F DUP3 AND SWAP2 POP JUMPDEST PUSH1 0x20 DUP3 LT DUP2 SUB PUSH2 0x1DE6 JUMPI PUSH2 0x1DE5 PUSH2 0x1D8F JUMP JUMPDEST JUMPDEST POP SWAP2 SWAP1 POP JUMP INVALID LOG2 PUSH5 0x6970667358 0x22 SLT KECCAK256 RETURNDATACOPY MSTORE 0x25 PUSH6 0x734002F7463A LOG1 DUP7 SHL 0xA5 0xBB TLOAD 0xD6 0xD5 NOT 0xD6 SAR 0xAA 0xAC PUSH12 0x55729A603297B84464736F6C PUSH4 0x4300081A STOP CALLER "
		},
		"gasEstimates": {
			"creation": {
				"codeDepositCost": "1542800",
				"executionCost": "infinite",
				"totalCost": "infinite"
			},
			"external": {
				"checkContractValue()": "444",
				"checkForSolvency()": "7266",
				"checkUpkeep(bytes)": "infinite",
				"confirmDeal()": "infinite",
				"extendLease(uint256,uint8,uint256)": "infinite",
				"getBilBoyd()": "infinite",
				"getCarId()": "2521",
				"getCarNFT()": "infinite",
				"getCarNFTContract()": "infinite",
				"getCustomer()": "2560",
				"getDownPayment()": "infinite",
				"getMonthlyQuota()": "2520",
				"isBilBoydConfirmed()": "2496",
				"leaseNewCar(uint256)": "infinite",
				"performUpkeep(bytes)": "infinite",
				"registerDeal()": "infinite",
				"terminateLease()": "2657"
			}
		},
		"methodIdentifiers": {
			"checkContractValue()": "f9a96071",
			"checkForSolvency()": "2990536c",
			"checkUpkeep(bytes)": "6e04ff0d",
			"confirmDeal()": "581a7310",
			"extendLease(uint256,uint8,uint256)": "c51daddb",
			"getBilBoyd()": "9c205bb7",
			"getCarId()": "8fc8e811",
			"getCarNFT()": "d9de1c03",
			"getCarNFTContract()": "ca15c67c",
			"getCustomer()": "650d993b",
			"getDownPayment()": "d6dd04f7",
			"getMonthlyQuota()": "f6fef779",
			"isBilBoydConfirmed()": "9599be87",
			"leaseNewCar(uint256)": "a7a4fb99",
			"performUpkeep(bytes)": "4585e33b",
			"registerDeal()": "0f380a56",
			"terminateLease()": "1168c9a8"
		}
	},
	"abi": [
		{
			"inputs": [
				{
					"internalType": "address",
					"name": "carNFTAddress",
					"type": "address"
				},
				{
					"internalType": "uint256",
					"name": "_carID",
					"type": "uint256"
				},
				{
					"internalType": "uint8",
					"name": "_driverExperienceYears",
					"type": "uint8"
				},
				{
					"internalType": "uint256",
					"name": "_mileageCap",
					"type": "uint256"
				},
				{
					"internalType": "uint256",
					"name": "_newContractDuration",
					"type": "uint256"
				}
			],
			"stateMutability": "nonpayable",
			"type": "constructor"
		},
		{
			"inputs": [],
			"name": "checkContractValue",
			"outputs": [
				{
					"internalType": "uint256",
					"name": "",
					"type": "uint256"
				}
			],
			"stateMutability": "view",
			"type": "function"
		},
		{
			"inputs": [],
			"name": "checkForSolvency",
			"outputs": [
				{
					"internalType": "bool",
					"name": "",
					"type": "bool"
				}
			],
			"stateMutability": "view",
			"type": "function"
		},
		{
			"inputs": [
				{
					"internalType": "bytes",
					"name": "",
					"type": "bytes"
				}
			],
			"name": "checkUpkeep",
			"outputs": [
				{
					"internalType": "bool",
					"name": "upkeepNeeded",
					"type": "bool"
				},
				{
					"internalType": "bytes",
					"name": "",
					"type": "bytes"
				}
			],
			"stateMutability": "view",
			"type": "function"
		},
		{
			"inputs": [],
			"name": "confirmDeal",
			"outputs": [],
			"stateMutability": "nonpayable",
			"type": "function"
		},
		{
			"inputs": [
				{
					"internalType": "uint256",
					"name": "newContractDuration",
					"type": "uint256"
				},
				{
					"internalType": "uint8",
					"name": "driverExperienceYears",
					"type": "uint8"
				},
				{
					"internalType": "uint256",
					"name": "mileageCap",
					"type": "uint256"
				}
			],
			"name": "extendLease",
			"outputs": [],
			"stateMutability": "nonpayable",
			"type": "function"
		},
		{
			"inputs": [],
			"name": "getBilBoyd",
			"outputs": [
				{
					"internalType": "address payable",
					"name": "",
					"type": "address"
				}
			],
			"stateMutability": "view",
			"type": "function"
		},
		{
			"inputs": [],
			"name": "getCarId",
			"outputs": [
				{
					"internalType": "uint256",
					"name": "",
					"type": "uint256"
				}
			],
			"stateMutability": "view",
			"type": "function"
		},
		{
			"inputs": [],
			"name": "getCarNFT",
			"outputs": [
				{
					"components": [
						{
							"internalType": "string",
							"name": "model",
							"type": "string"
						},
						{
							"internalType": "string",
							"name": "color",
							"type": "string"
						},
						{
							"internalType": "uint16",
							"name": "yearOfMatriculation",
							"type": "uint16"
						},
						{
							"internalType": "uint256",
							"name": "originalValue",
							"type": "uint256"
						},
						{
							"internalType": "uint256",
							"name": "mileage",
							"type": "uint256"
						}
					],
					"internalType": "struct Car",
					"name": "",
					"type": "tuple"
				}
			],
			"stateMutability": "view",
			"type": "function"
		},
		{
			"inputs": [],
			"name": "getCarNFTContract",
			"outputs": [
				{
					"internalType": "contract CarNFT",
					"name": "",
					"type": "address"
				}
			],
			"stateMutability": "view",
			"type": "function"
		},
		{
			"inputs": [],
			"name": "getCustomer",
			"outputs": [
				{
					"internalType": "address",
					"name": "",
					"type": "address"
				}
			],
			"stateMutability": "view",
			"type": "function"
		},
		{
			"inputs": [],
			"name": "getDownPayment",
			"outputs": [
				{
					"internalType": "uint256",
					"name": "",
					"type": "uint256"
				}
			],
			"stateMutability": "view",
			"type": "function"
		},
		{
			"inputs": [],
			"name": "getMonthlyQuota",
			"outputs": [
				{
					"internalType": "uint256",
					"name": "",
					"type": "uint256"
				}
			],
			"stateMutability": "view",
			"type": "function"
		},
		{
			"inputs": [],
			"name": "isBilBoydConfirmed",
			"outputs": [
				{
					"internalType": "bool",
					"name": "",
					"type": "bool"
				}
			],
			"stateMutability": "view",
			"type": "function"
		},
		{
			"inputs": [
				{
					"internalType": "uint256",
					"name": "newCarId",
					"type": "uint256"
				}
			],
			"name": "leaseNewCar",
			"outputs": [],
			"stateMutability": "nonpayable",
			"type": "function"
		},
		{
			"inputs": [
				{
					"internalType": "bytes",
					"name": "",
					"type": "bytes"
				}
			],
			"name": "performUpkeep",
			"outputs": [],
			"stateMutability": "nonpayable",
			"type": "function"
		},
		{
			"inputs": [],
			"name": "registerDeal",
			"outputs": [],
			"stateMutability": "payable",
			"type": "function"
		},
		{
			"inputs": [],
			"name": "terminateLease",
			"outputs": [],
			"stateMutability": "view",
			"type": "function"
		}
	]
}