{
	"data": {
		"bytecode": {
			"linkReferences": {},
			"object": "60e06040526040518060800160405280600160ff168152602001600360ff168152602001600660ff168152602001600c60ff168152506007906004610045929190610848565b50604051806101000160405280610bb861ffff168152602001610fa061ffff16815260200161138861ffff16815260200161177061ffff168152602001611b5861ffff168152602001611f4061ffff16815260200161232861ffff16815260200161271061ffff1681525060089060086100c09291906108e3565b503480156100cc575f80fd5b5060405161484238038061484283398181016040528101906100ee9190610a6e565b4260c08181525050600a6003819055508073ffffffffffffffffffffffffffffffffffffffff1660808173ffffffffffffffffffffffffffffffffffffffff168152505085600960076101000a81548173ffffffffffffffffffffffffffffffffffffffff021916908373ffffffffffffffffffffffffffffffffffffffff160217905550600960079054906101000a900473ffffffffffffffffffffffffffffffffffffffff1673ffffffffffffffffffffffffffffffffffffffff1663ef555bc1866040518263ffffffff1660e01b81526004016101ce9190610b06565b5f60405180830381865afa1580156101e8573d5f803e3d5ffd5b505050506040513d5f823e3d601f19601f820116820180604052508101906102109190610d5b565b600a5f820151815f0190816102259190610fa6565b50602082015181600101908161023b9190610fa6565b506040820151816002015f6101000a81548161ffff021916908361ffff160217905550606082015181600301556080820151816004015590505084600f81905550600960079054906101000a900473ffffffffffffffffffffffffffffffffffffffff1673ffffffffffffffffffffffffffffffffffffffff166393678237866040518263ffffffff1660e01b81526004016102d79190610b06565b602060405180830381865afa1580156102f2573d5f803e3d5ffd5b505050506040513d601f19601f820116820180604052508101906103169190611075565b73ffffffffffffffffffffffffffffffffffffffff1660805173ffffffffffffffffffffffffffffffffffffffff1614610385576040517f08c379a000000000000000000000000000000000000000000000000000000000815260040161037c90611120565b60405180910390fd5b600960079054906101000a900473ffffffffffffffffffffffffffffffffffffffff1673ffffffffffffffffffffffffffffffffffffffff16632d64dbfd600f546040518263ffffffff1660e01b81526004016103e29190610b06565b602060405180830381865afa1580156103fd573d5f803e3d5ffd5b505050506040513d601f19601f820116820180604052508101906104219190611173565b610460576040517f08c379a00000000000000000000000000000000000000000000000000000000081526004016104579061120e565b60405180910390fd5b6104d48360076004806020026040519081016040528092919082600480156104c4576020028201915f905b82829054906101000a900461ffff1661ffff168152602001906002019060208260010104928301926001038202915080841161048b5790505b50505050506106b660201b60201c565b60095f6101000a81548161ffff021916908361ffff1602179055506105628260088080602002604051908101604052809291908260088015610552576020028201915f905b82829054906101000a900461ffff1661ffff16815260200190600201906020826001010492830192600103820291508084116105195790505b505050505061077f60201b60201c565b600960026101000a81548161ffff021916908361ffff160217905550600960079054906101000a900473ffffffffffffffffffffffffffffffffffffffff1673ffffffffffffffffffffffffffffffffffffffff1663d57fa07d600a60030154600a6004015487600960029054906101000a900461ffff1660095f9054906101000a900461ffff166040518663ffffffff1660e01b815260040161060a95949392919061126b565b602060405180830381865afa158015610625573d5f803e3d5ffd5b505050506040513d601f19601f820116820180604052508101906106499190611301565b6fffffffffffffffffffffffffffffffff166001819055505f600960056101000a81548160ff0219169083151502179055505f600960066101000a81548160ff02191690831515021790555060036001546106a49190611359565b60a08181525050505050505050611571565b5f600960069054906101000a900460ff1615610707576040517f08c379a00000000000000000000000000000000000000000000000000000000081526004016106fe9061140a565b60405180910390fd5b5f8360ff161015801561071d575060048360ff16105b61075c576040517f08c379a000000000000000000000000000000000000000000000000000000000815260040161075390611498565b60405180910390fd5b818360ff1660048110610772576107716114b6565b5b6020020151905092915050565b5f600960069054906101000a900460ff16156107d0576040517f08c379a00000000000000000000000000000000000000000000000000000000081526004016107c79061140a565b60405180910390fd5b5f8360ff16101580156107e6575060088360ff16105b610825576040517f08c379a000000000000000000000000000000000000000000000000000000000815260040161081c90611553565b60405180910390fd5b818360ff166008811061083b5761083a6114b6565b5b6020020151905092915050565b826004600f016010900481019282156108d2579160200282015f5b838211156108a257835183826101000a81548161ffff021916908360ff1602179055509260200192600201602081600101049283019260010302610863565b80156108d05782816101000a81549061ffff02191690556002016020816001010492830192600103026108a2565b505b5090506108df919061097f565b5090565b826008600f0160109004810192821561096e579160200282015f5b8382111561093e57835183826101000a81548161ffff021916908361ffff16021790555092602001926002016020816001010492830192600103026108fe565b801561096c5782816101000a81549061ffff021916905560020160208160010104928301926001030261093e565b505b50905061097b919061097f565b5090565b5b80821115610996575f815f905550600101610980565b5090565b5f604051905090565b5f80fd5b5f80fd5b5f73ffffffffffffffffffffffffffffffffffffffff82169050919050565b5f6109d4826109ab565b9050919050565b6109e4816109ca565b81146109ee575f80fd5b50565b5f815190506109ff816109db565b92915050565b5f819050919050565b610a1781610a05565b8114610a21575f80fd5b50565b5f81519050610a3281610a0e565b92915050565b5f60ff82169050919050565b610a4d81610a38565b8114610a57575f80fd5b50565b5f81519050610a6881610a44565b92915050565b5f805f805f8060c08789031215610a8857610a876109a3565b5b5f610a9589828a016109f1565b9650506020610aa689828a01610a24565b9550506040610ab789828a01610a5a565b9450506060610ac889828a01610a5a565b9350506080610ad989828a01610a5a565b92505060a0610aea89828a016109f1565b9150509295509295509295565b610b0081610a05565b82525050565b5f602082019050610b195f830184610af7565b92915050565b5f80fd5b5f601f19601f8301169050919050565b7f4e487b71000000000000000000000000000000000000000000000000000000005f52604160045260245ffd5b610b6982610b23565b810181811067ffffffffffffffff82111715610b8857610b87610b33565b5b80604052505050565b5f610b9a61099a565b9050610ba68282610b60565b919050565b5f80fd5b5f80fd5b5f80fd5b5f67ffffffffffffffff821115610bd157610bd0610b33565b5b610bda82610b23565b9050602081019050919050565b8281835e5f83830152505050565b5f610c07610c0284610bb7565b610b91565b905082815260208101848484011115610c2357610c22610bb3565b5b610c2e848285610be7565b509392505050565b5f82601f830112610c4a57610c49610baf565b5b8151610c5a848260208601610bf5565b91505092915050565b5f61ffff82169050919050565b610c7981610c63565b8114610c83575f80fd5b50565b5f81519050610c9481610c70565b92915050565b5f60a08284031215610caf57610cae610b1f565b5b610cb960a0610b91565b90505f82015167ffffffffffffffff811115610cd857610cd7610bab565b5b610ce484828501610c36565b5f83015250602082015167ffffffffffffffff811115610d0757610d06610bab565b5b610d1384828501610c36565b6020830152506040610d2784828501610c86565b6040830152506060610d3b84828501610a24565b6060830152506080610d4f84828501610a24565b60808301525092915050565b5f60208284031215610d7057610d6f6109a3565b5b5f82015167ffffffffffffffff811115610d8d57610d8c6109a7565b5b610d9984828501610c9a565b91505092915050565b5f81519050919050565b7f4e487b71000000000000000000000000000000000000000000000000000000005f52602260045260245ffd5b5f6002820490506001821680610df057607f821691505b602082108103610e0357610e02610dac565b5b50919050565b5f819050815f5260205f209050919050565b5f6020601f8301049050919050565b5f82821b905092915050565b5f60088302610e657fffffffffffffffffffffffffffffffffffffffffffffffffffffffffffffffff82610e2a565b610e6f8683610e2a565b95508019841693508086168417925050509392505050565b5f819050919050565b5f610eaa610ea5610ea084610a05565b610e87565b610a05565b9050919050565b5f819050919050565b610ec383610e90565b610ed7610ecf82610eb1565b848454610e36565b825550505050565b5f90565b610eeb610edf565b610ef6818484610eba565b505050565b5b81811015610f1957610f0e5f82610ee3565b600181019050610efc565b5050565b601f821115610f5e57610f2f81610e09565b610f3884610e1b565b81016020851015610f47578190505b610f5b610f5385610e1b565b830182610efb565b50505b505050565b5f82821c905092915050565b5f610f7e5f1984600802610f63565b1980831691505092915050565b5f610f968383610f6f565b9150826002028217905092915050565b610faf82610da2565b67ffffffffffffffff811115610fc857610fc7610b33565b5b610fd28254610dd9565b610fdd828285610f1d565b5f60209050601f83116001811461100e575f8415610ffc578287015190505b6110068582610f8b565b86555061106d565b601f19841661101c86610e09565b5f5b828110156110435784890151825560018201915060208501945060208101905061101e565b86831015611060578489015161105c601f891682610f6f565b8355505b6001600288020188555050505b505050505050565b5f6020828403121561108a576110896109a3565b5b5f611097848285016109f1565b91505092915050565b5f82825260208201905092915050565b7f4c6561736541677265656d656e743a2043617220616c7265616479206c6561735f8201527f6564000000000000000000000000000000000000000000000000000000000000602082015250565b5f61110a6022836110a0565b9150611115826110b0565b604082019050919050565b5f6020820190508181035f830152611137816110fe565b9050919050565b5f8115159050919050565b6111528161113e565b811461115c575f80fd5b50565b5f8151905061116d81611149565b92915050565b5f60208284031215611188576111876109a3565b5b5f6111958482850161115f565b91505092915050565b7f4c6561736541677265656d656e743a2043617220616c726561647920726573655f8201527f7276656400000000000000000000000000000000000000000000000000000000602082015250565b5f6111f86024836110a0565b91506112038261119e565b604082019050919050565b5f6020820190508181035f830152611225816111ec565b9050919050565b61123581610a38565b82525050565b5f61125561125061124b84610c63565b610e87565b610a05565b9050919050565b6112658161123b565b82525050565b5f60a08201905061127e5f830188610af7565b61128b6020830187610af7565b611298604083018661122c565b6112a5606083018561125c565b6112b2608083018461125c565b9695505050505050565b5f6fffffffffffffffffffffffffffffffff82169050919050565b6112e0816112bc565b81146112ea575f80fd5b50565b5f815190506112fb816112d7565b92915050565b5f60208284031215611316576113156109a3565b5b5f611323848285016112ed565b91505092915050565b7f4e487b71000000000000000000000000000000000000000000000000000000005f52601160045260245ffd5b5f61136382610a05565b915061136e83610a05565b925082820261137c81610a05565b915082820484148315176113935761139261132c565b5b5092915050565b7f4c6561736541677265656d656e743a20436f6e7472616374207465726d696e615f8201527f7465640000000000000000000000000000000000000000000000000000000000602082015250565b5f6113f46023836110a0565b91506113ff8261139a565b604082019050919050565b5f6020820190508181035f830152611421816113e8565b9050919050565b7f4c6561736541677265656d656e743a20496e76616c69642063686f69636520665f8201527f6f7220636f6e7472616374206475726174696f6e000000000000000000000000602082015250565b5f6114826034836110a0565b915061148d82611428565b604082019050919050565b5f6020820190508181035f8301526114af81611476565b9050919050565b7f4e487b71000000000000000000000000000000000000000000000000000000005f52603260045260245ffd5b7f4c6561736541677265656d656e743a20496e76616c69642063686f69636520665f8201527f6f72206d696c6561676520636170000000000000000000000000000000000000602082015250565b5f61153d602e836110a0565b9150611548826114e3565b604082019050919050565b5f6020820190508181035f83015261156a81611531565b9050919050565b60805160a05160c0516132686115da5f395f61043101525f81816104a0015281816105a201528181610882015281816113360152611b0501525f8181610b2701528181610bd00152818161106f015281816114c901528181611acb0152611b4f01526132685ff3fe608060405260043610610113575f3560e01c8063ca15c67c1161009f578063e149b82211610063578063e149b8221461030a578063f6fef77914610334578063f707dc1d1461035e578063f9a9607114610388578063f9fee13f146103b257610113565b8063ca15c67c14610258578063d4805f2414610282578063d6dd04f71461028c578063d9de1c03146102b6578063dc26bf47146102e057610113565b8063581a7310116100e6578063581a731014610189578063650d993b1461019f5780636e04ff0d146101c95780638fc8e81114610206578063a7a4fb991461023057610113565b80630f380a56146101175780631168c9a81461012157806337bec583146101375780634585e33b14610161575b5f80fd5b61011f6103da565b005b34801561012c575f80fd5b5061013561067d565b005b348015610142575f80fd5b5061014b6107b9565b6040516101589190611f53565b60405180910390f35b34801561016c575f80fd5b5061018760048036038101906101829190611fde565b6107cf565b005b348015610194575f80fd5b5061019d610ad5565b005b3480156101aa575f80fd5b506101b3610e76565b6040516101c09190612068565b60405180910390f35b3480156101d4575f80fd5b506101ef60048036038101906101ea9190611fde565b610e9d565b6040516101fd92919061210b565b60405180910390f35b348015610211575f80fd5b5061021a610f49565b6040516102279190612151565b60405180910390f35b34801561023b575f80fd5b5061025660048036038101906102519190612194565b610f52565b005b348015610263575f80fd5b5061026c6110fd565b604051610279919061221a565b60405180910390f35b61028a611126565b005b348015610297575f80fd5b506102a0611333565b6040516102ad9190612151565b60405180910390f35b3480156102c1575f80fd5b506102ca61135a565b6040516102d7919061231d565b60405180910390f35b3480156102eb575f80fd5b506102f46114c6565b604051610301919061235d565b60405180910390f35b348015610315575f80fd5b5061031e6114ed565b60405161032b9190611f53565b60405180910390f35b34801561033f575f80fd5b50610348611504565b6040516103559190612151565b60405180910390f35b348015610369575f80fd5b5061037261150d565b60405161037f9190612376565b60405180910390f35b348015610393575f80fd5b5061039c611523565b6040516103a99190612151565b60405180910390f35b3480156103bd575f80fd5b506103d860048036038101906103d391906123c5565b61152a565b005b600960069054906101000a900460ff161561042a576040517f08c379a0000000000000000000000000000000000000000000000000000000008152600401610421906124a9565b60405180910390fd5b42621275007f000000000000000000000000000000000000000000000000000000000000000061045a91906124f4565b101561049b576040517f08c379a000000000000000000000000000000000000000000000000000000000815260040161049290612597565b60405180910390fd5b6001547f00000000000000000000000000000000000000000000000000000000000000006104c991906124f4565b34101561050b576040517f08c379a000000000000000000000000000000000000000000000000000000000815260040161050290612625565b60405180910390fd5b600960079054906101000a900473ffffffffffffffffffffffffffffffffffffffff1673ffffffffffffffffffffffffffffffffffffffff1663819b25ba600f546040518263ffffffff1660e01b81526004016105689190612151565b5f604051808303815f87803b15801561057f575f80fd5b505af1158015610591573d5f803e3d5ffd5b50505050426002819055505f6001547f00000000000000000000000000000000000000000000000000000000000000006105cb91906124f4565b346105d69190612643565b9050335f806101000a81548173ffffffffffffffffffffffffffffffffffffffff021916908373ffffffffffffffffffffffffffffffffffffffff1602179055505f8054906101000a900473ffffffffffffffffffffffffffffffffffffffff1673ffffffffffffffffffffffffffffffffffffffff166108fc8290811502906040515f60405180830381858888f19350505050158015610679573d5f803e3d5ffd5b5050565b600960069054906101000a900460ff16156106cd576040517f08c379a00000000000000000000000000000000000000000000000000000000081526004016106c4906124a9565b60405180910390fd5b5f60095f9054906101000a900461ffff1661ffff1614610722576040517f08c379a0000000000000000000000000000000000000000000000000000000008152600401610719906126e6565b60405180910390fd5b5f8054906101000a900473ffffffffffffffffffffffffffffffffffffffff1673ffffffffffffffffffffffffffffffffffffffff163373ffffffffffffffffffffffffffffffffffffffff16146107af576040517f08c379a00000000000000000000000000000000000000000000000000000000081526004016107a690612774565b60405180910390fd5b6107b7611a79565b565b5f60095f9054906101000a900461ffff16905090565b600960069054906101000a900460ff161561081f576040517f08c379a0000000000000000000000000000000000000000000000000000000008152600401610816906124a9565b60405180910390fd5b5f6002541415801561083f57506003546002544261083d9190612643565b115b156108e0575f8054906101000a900473ffffffffffffffffffffffffffffffffffffffff1673ffffffffffffffffffffffffffffffffffffffff166108fc6001547f00000000000000000000000000000000000000000000000000000000000000006108ab91906124f4565b90811502906040515f60405180830381858888f193505050501580156108d3573d5f803e3d5ffd5b505f600281905550610ad1565b5f60095f9054906101000a900461ffff1661ffff160361090757610902611a79565b610ad0565b600960049054906101000a900460ff16801561092557506005544210155b801561093d575060065f9054906101000a900460ff16155b156109d657600960059054906101000a900460ff16806109625750610960611cc4565b155b156109745761096f611a79565b6109d1565b620d2f0060055f82825461098891906124f4565b925050819055506001600960056101000a81548160ff021916908315150217905550600a6001546109b991906127bf565b60015f8282546109c991906124f4565b925050819055505b610acf565b600960049054906101000a900460ff1680156109f457506005544210155b8015610a0b575060065f9054906101000a900460ff165b15610ace57600960059054906101000a900460ff1615610a5f57621a5e0060055f828254610a3991906124f4565b925050819055505f600960056101000a81548160ff021916908315150217905550610a7b565b62278d0060055f828254610a7391906124f4565b925050819055505b600160095f8282829054906101000a900461ffff16610a9a91906127ef565b92506101000a81548161ffff021916908361ffff1602179055505f60065f6101000a81548160ff0219169083151502179055505b5b5b5b5050565b600960069054906101000a900460ff1615610b25576040517f08c379a0000000000000000000000000000000000000000000000000000000008152600401610b1c906124a9565b60405180910390fd5b7f000000000000000000000000000000000000000000000000000000000000000073ffffffffffffffffffffffffffffffffffffffff163373ffffffffffffffffffffffffffffffffffffffff1614610bb3576040517f08c379a0000000000000000000000000000000000000000000000000000000008152600401610baa90612894565b60405180910390fd5b6001600960046101000a81548160ff0219169083151502179055507f000000000000000000000000000000000000000000000000000000000000000073ffffffffffffffffffffffffffffffffffffffff166108fc60015490811502906040515f60405180830381858888f19350505050158015610c33573d5f803e3d5ffd5b50426004819055506228de80600454610c4c91906124f4565b6005819055505f60065f6101000a81548160ff021916908315150217905550600960079054906101000a900473ffffffffffffffffffffffffffffffffffffffff1673ffffffffffffffffffffffffffffffffffffffff1663c776194f3073ffffffffffffffffffffffffffffffffffffffff1663650d993b6040518163ffffffff1660e01b8152600401602060405180830381865afa158015610cf2573d5f803e3d5ffd5b505050506040513d601f19601f82011682018060405250810190610d1691906128dc565b3073ffffffffffffffffffffffffffffffffffffffff1663dc26bf476040518163ffffffff1660e01b8152600401602060405180830381865afa158015610d5f573d5f803e3d5ffd5b505050506040513d601f19601f82011682018060405250810190610d839190612931565b3073ffffffffffffffffffffffffffffffffffffffff16638fc8e8116040518163ffffffff1660e01b8152600401602060405180830381865afa158015610dcc573d5f803e3d5ffd5b505050506040513d601f19601f82011682018060405250810190610df09190612970565b6040518463ffffffff1660e01b8152600401610e0e939291906129bb565b5f604051808303815f87803b158015610e25575f80fd5b505af1158015610e37573d5f803e3d5ffd5b50505050600160095f8282829054906101000a900461ffff16610e5a91906127ef565b92506101000a81548161ffff021916908361ffff160217905550565b5f805f9054906101000a900473ffffffffffffffffffffffffffffffffffffffff16905090565b5f6060600960069054906101000a900460ff1615610ef0576040517f08c379a0000000000000000000000000000000000000000000000000000000008152600401610ee7906124a9565b60405180910390fd5b5f60025414158015610f10575060035460025442610f0e9190612643565b115b15610f1a57600191505b600960049054906101000a900460ff168015610f3857506005544210155b15610f4257600191505b9250929050565b5f600f54905090565b600960069054906101000a900460ff1615610fa2576040517f08c379a0000000000000000000000000000000000000000000000000000000008152600401610f99906124a9565b60405180910390fd5b5f8054906101000a900473ffffffffffffffffffffffffffffffffffffffff1673ffffffffffffffffffffffffffffffffffffffff163373ffffffffffffffffffffffffffffffffffffffff161461102f576040517f08c379a000000000000000000000000000000000000000000000000000000000815260040161102690612a60565b60405180910390fd5b600960079054906101000a900473ffffffffffffffffffffffffffffffffffffffff1673ffffffffffffffffffffffffffffffffffffffff166342842e0e7f00000000000000000000000000000000000000000000000000000000000000005f8054906101000a900473ffffffffffffffffffffffffffffffffffffffff16846040518463ffffffff1660e01b81526004016110cd93929190612a7e565b5f604051808303815f87803b1580156110e4575f80fd5b505af11580156110f6573d5f803e3d5ffd5b5050505050565b5f600960079054906101000a900473ffffffffffffffffffffffffffffffffffffffff16905090565b600960069054906101000a900460ff1615611176576040517f08c379a000000000000000000000000000000000000000000000000000000000815260040161116d906124a9565b60405180910390fd5b5f8054906101000a900473ffffffffffffffffffffffffffffffffffffffff1673ffffffffffffffffffffffffffffffffffffffff163373ffffffffffffffffffffffffffffffffffffffff1614611203576040517f08c379a00000000000000000000000000000000000000000000000000000000081526004016111fa90612b23565b60405180910390fd5b600154341015611248576040517f08c379a000000000000000000000000000000000000000000000000000000000815260040161123f90612bb1565b60405180910390fd5b60065f9054906101000a900460ff1615611297576040517f08c379a000000000000000000000000000000000000000000000000000000000815260040161128e90612c3f565b60405180910390fd5b5f600154346112a69190612643565b9050600154341115611316575f8054906101000a900473ffffffffffffffffffffffffffffffffffffffff1673ffffffffffffffffffffffffffffffffffffffff166108fc8290811502906040515f60405180830381858888f19350505050158015611314573d5f803e3d5ffd5b505b600160065f6101000a81548160ff02191690831515021790555050565b5f7f0000000000000000000000000000000000000000000000000000000000000000905090565b611362611f07565b600a6040518060a00160405290815f8201805461137e90612c8a565b80601f01602080910402602001604051908101604052809291908181526020018280546113aa90612c8a565b80156113f55780601f106113cc576101008083540402835291602001916113f5565b820191905f5260205f20905b8154815290600101906020018083116113d857829003601f168201915b5050505050815260200160018201805461140e90612c8a565b80601f016020809104026020016040519081016040528092919081815260200182805461143a90612c8a565b80156114855780601f1061145c57610100808354040283529160200191611485565b820191905f5260205f20905b81548152906001019060200180831161146857829003601f168201915b50505050508152602001600282015f9054906101000a900461ffff1661ffff1661ffff16815260200160038201548152602001600482015481525050905090565b5f7f0000000000000000000000000000000000000000000000000000000000000000905090565b5f600960029054906101000a900461ffff16905090565b5f600154905090565b5f600960049054906101000a900460ff16905090565b5f47905090565b600960069054906101000a900460ff161561157a576040517f08c379a0000000000000000000000000000000000000000000000000000000008152600401611571906124a9565b60405180910390fd5b5f8054906101000a900473ffffffffffffffffffffffffffffffffffffffff1673ffffffffffffffffffffffffffffffffffffffff163373ffffffffffffffffffffffffffffffffffffffff1614611607576040517f08c379a00000000000000000000000000000000000000000000000000000000081526004016115fe90612774565b60405180910390fd5b5f60095f9054906101000a900461ffff1661ffff161461165c576040517f08c379a0000000000000000000000000000000000000000000000000000000008152600401611653906126e6565b60405180910390fd5b5f600960079054906101000a900473ffffffffffffffffffffffffffffffffffffffff1673ffffffffffffffffffffffffffffffffffffffff1663ef555bc13073ffffffffffffffffffffffffffffffffffffffff16638fc8e8116040518163ffffffff1660e01b8152600401602060405180830381865afa1580156116e4573d5f803e3d5ffd5b505050506040513d601f19601f820116820180604052508101906117089190612970565b6040518263ffffffff1660e01b81526004016117249190612151565b5f60405180830381865afa15801561173e573d5f803e3d5ffd5b505050506040513d5f823e3d601f19601f820116820180604052508101906117669190612ec7565b905080608001518310156117af576040517f08c379a00000000000000000000000000000000000000000000000000000000081526004016117a690612fa4565b60405180910390fd5b600960079054906101000a900473ffffffffffffffffffffffffffffffffffffffff1673ffffffffffffffffffffffffffffffffffffffff1663e77e89f3600f54856040518363ffffffff1660e01b815260040161180e929190612fc2565b6020604051808303815f875af115801561182a573d5f803e3d5ffd5b505050506040513d601f19601f8201168201806040525081019061184e9190612970565b506118bd8560076004806020026040519081016040528092919082600480156118b3576020028201915f905b82829054906101000a900461ffff1661ffff168152602001906002019060208260010104928301926001038202915080841161187a5790505b5050505050611d75565b60095f6101000a81548161ffff021916908361ffff160217905550611945846008808060200260405190810160405280929190826008801561193b576020028201915f905b82829054906101000a900461ffff1661ffff16815260200190600201906020826001010492830192600103820291508084116119025790505b5050505050611e3e565b600960026101000a81548161ffff021916908361ffff160217905550600960079054906101000a900473ffffffffffffffffffffffffffffffffffffffff1673ffffffffffffffffffffffffffffffffffffffff1663d57fa07d82606001518585600960029054906101000a900461ffff1660095f9054906101000a900461ffff166040518663ffffffff1660e01b81526004016119e7959493929190613028565b602060405180830381865afa158015611a02573d5f803e3d5ffd5b505050506040513d601f19601f82011682018060405250810190611a2691906130be565b6fffffffffffffffffffffffffffffffff166001819055505f600960056101000a81548160ff0219169083151502179055505f600960066101000a81548160ff0219169083151502179055505050505050565b600960069054906101000a900460ff1615611ac9576040517f08c379a0000000000000000000000000000000000000000000000000000000008152600401611ac0906124a9565b60405180910390fd5b7f000000000000000000000000000000000000000000000000000000000000000073ffffffffffffffffffffffffffffffffffffffff166108fc7f000000000000000000000000000000000000000000000000000000000000000090811502906040515f60405180830381858888f19350505050158015611b4c573d5f803e3d5ffd5b507f000000000000000000000000000000000000000000000000000000000000000073ffffffffffffffffffffffffffffffffffffffff166108fc3073ffffffffffffffffffffffffffffffffffffffff1663f9a960716040518163ffffffff1660e01b8152600401602060405180830381865afa158015611bd0573d5f803e3d5ffd5b505050506040513d601f19601f82011682018060405250810190611bf49190612970565b90811502906040515f60405180830381858888f19350505050158015611c1c573d5f803e3d5ffd5b50600960079054906101000a900473ffffffffffffffffffffffffffffffffffffffff1673ffffffffffffffffffffffffffffffffffffffff1663f410dcc2600f546040518263ffffffff1660e01b8152600401611c7a9190612151565b5f604051808303815f87803b158015611c91575f80fd5b505af1158015611ca3573d5f803e3d5ffd5b505050506001600960066101000a81548160ff021916908315150217905550565b5f600960069054906101000a900460ff1615611d15576040517f08c379a0000000000000000000000000000000000000000000000000000000008152600401611d0c906124a9565b60405180910390fd5b5f805f9054906101000a900473ffffffffffffffffffffffffffffffffffffffff1673ffffffffffffffffffffffffffffffffffffffff16319050600a600154611d5f91906127bf565b600154611d6c91906124f4565b81101591505090565b5f600960069054906101000a900460ff1615611dc6576040517f08c379a0000000000000000000000000000000000000000000000000000000008152600401611dbd906124a9565b60405180910390fd5b5f8360ff1610158015611ddc575060048360ff16105b611e1b576040517f08c379a0000000000000000000000000000000000000000000000000000000008152600401611e1290613159565b60405180910390fd5b818360ff1660048110611e3157611e30613177565b5b6020020151905092915050565b5f600960069054906101000a900460ff1615611e8f576040517f08c379a0000000000000000000000000000000000000000000000000000000008152600401611e86906124a9565b60405180910390fd5b5f8360ff1610158015611ea5575060088360ff16105b611ee4576040517f08c379a0000000000000000000000000000000000000000000000000000000008152600401611edb90613214565b60405180910390fd5b818360ff1660088110611efa57611ef9613177565b5b6020020151905092915050565b6040518060a0016040528060608152602001606081526020015f61ffff1681526020015f81526020015f81525090565b5f61ffff82169050919050565b611f4d81611f37565b82525050565b5f602082019050611f665f830184611f44565b92915050565b5f604051905090565b5f80fd5b5f80fd5b5f80fd5b5f80fd5b5f80fd5b5f8083601f840112611f9e57611f9d611f7d565b5b8235905067ffffffffffffffff811115611fbb57611fba611f81565b5b602083019150836001820283011115611fd757611fd6611f85565b5b9250929050565b5f8060208385031215611ff457611ff3611f75565b5b5f83013567ffffffffffffffff81111561201157612010611f79565b5b61201d85828601611f89565b92509250509250929050565b5f73ffffffffffffffffffffffffffffffffffffffff82169050919050565b5f61205282612029565b9050919050565b61206281612048565b82525050565b5f60208201905061207b5f830184612059565b92915050565b5f8115159050919050565b61209581612081565b82525050565b5f81519050919050565b5f82825260208201905092915050565b8281835e5f83830152505050565b5f601f19601f8301169050919050565b5f6120dd8261209b565b6120e781856120a5565b93506120f78185602086016120b5565b612100816120c3565b840191505092915050565b5f60408201905061211e5f83018561208c565b818103602083015261213081846120d3565b90509392505050565b5f819050919050565b61214b81612139565b82525050565b5f6020820190506121645f830184612142565b92915050565b61217381612139565b811461217d575f80fd5b50565b5f8135905061218e8161216a565b92915050565b5f602082840312156121a9576121a8611f75565b5b5f6121b684828501612180565b91505092915050565b5f819050919050565b5f6121e26121dd6121d884612029565b6121bf565b612029565b9050919050565b5f6121f3826121c8565b9050919050565b5f612204826121e9565b9050919050565b612214816121fa565b82525050565b5f60208201905061222d5f83018461220b565b92915050565b5f81519050919050565b5f82825260208201905092915050565b5f61225782612233565b612261818561223d565b93506122718185602086016120b5565b61227a816120c3565b840191505092915050565b61228e81611f37565b82525050565b61229d81612139565b82525050565b5f60a083015f8301518482035f8601526122bd828261224d565b915050602083015184820360208601526122d7828261224d565b91505060408301516122ec6040860182612285565b5060608301516122ff6060860182612294565b5060808301516123126080860182612294565b508091505092915050565b5f6020820190508181035f83015261233581846122a3565b905092915050565b5f61234782612029565b9050919050565b6123578161233d565b82525050565b5f6020820190506123705f83018461234e565b92915050565b5f6020820190506123895f83018461208c565b92915050565b5f60ff82169050919050565b6123a48161238f565b81146123ae575f80fd5b50565b5f813590506123bf8161239b565b92915050565b5f805f80608085870312156123dd576123dc611f75565b5b5f6123ea878288016123b1565b94505060206123fb878288016123b1565b935050604061240c87828801612180565b925050606061241d878288016123b1565b91505092959194509250565b5f82825260208201905092915050565b7f4c6561736541677265656d656e743a20436f6e7472616374207465726d696e615f8201527f7465640000000000000000000000000000000000000000000000000000000000602082015250565b5f612493602383612429565b915061249e82612439565b604082019050919050565b5f6020820190508181035f8301526124c081612487565b9050919050565b7f4e487b71000000000000000000000000000000000000000000000000000000005f52601160045260245ffd5b5f6124fe82612139565b915061250983612139565b9250828201905080821115612521576125206124c7565b5b92915050565b7f4c6561736541677265656d656e743a2054686520646561646c696e652072616e5f8201527f206f757400000000000000000000000000000000000000000000000000000000602082015250565b5f612581602483612429565b915061258c82612527565b604082019050919050565b5f6020820190508181035f8301526125ae81612575565b9050919050565b7f4c6561736541677265656d656e743a20496e636f7272656374207061796d656e5f8201527f7420616d6f756e74000000000000000000000000000000000000000000000000602082015250565b5f61260f602883612429565b915061261a826125b5565b604082019050919050565b5f6020820190508181035f83015261263c81612603565b9050919050565b5f61264d82612139565b915061265883612139565b92508282039050818111156126705761266f6124c7565b5b92915050565b7f4c6561736541677265656d656e743a204d757374207761697420756e74696c205f8201527f6c617374206d6f6e746820746f207465726d696e617465206c65617365000000602082015250565b5f6126d0603d83612429565b91506126db82612676565b604082019050919050565b5f6020820190508181035f8301526126fd816126c4565b9050919050565b7f4c6561736541677265656d656e743a204f6e6c7920637573746f6d65722063615f8201527f6e206d6f64696679206c65617365000000000000000000000000000000000000602082015250565b5f61275e602e83612429565b915061276982612704565b604082019050919050565b5f6020820190508181035f83015261278b81612752565b9050919050565b7f4e487b71000000000000000000000000000000000000000000000000000000005f52601260045260245ffd5b5f6127c982612139565b91506127d483612139565b9250826127e4576127e3612792565b5b828204905092915050565b5f6127f982611f37565b915061280483611f37565b9250828203905061ffff81111561281e5761281d6124c7565b5b92915050565b7f4c6561736541677265656d656e743a204f6e6c7920746865206f776e65722d635f8201527f6f6d70616e792063616e20706572666f726d207468697320616374696f6e0000602082015250565b5f61287e603e83612429565b915061288982612824565b604082019050919050565b5f6020820190508181035f8301526128ab81612872565b9050919050565b6128bb81612048565b81146128c5575f80fd5b50565b5f815190506128d6816128b2565b92915050565b5f602082840312156128f1576128f0611f75565b5b5f6128fe848285016128c8565b91505092915050565b6129108161233d565b811461291a575f80fd5b50565b5f8151905061292b81612907565b92915050565b5f6020828403121561294657612945611f75565b5b5f6129538482850161291d565b91505092915050565b5f8151905061296a8161216a565b92915050565b5f6020828403121561298557612984611f75565b5b5f6129928482850161295c565b91505092915050565b5f6129a5826121e9565b9050919050565b6129b58161299b565b82525050565b5f6060820190506129ce5f830186612059565b6129db60208301856129ac565b6129e86040830184612142565b949350505050565b7f4c6561736541677265656d656e743a204f6e6c7920637573746f6d65722063615f8201527f6e206c656173652061206e657720636172000000000000000000000000000000602082015250565b5f612a4a603183612429565b9150612a55826129f0565b604082019050919050565b5f6020820190508181035f830152612a7781612a3e565b9050919050565b5f606082019050612a915f8301866129ac565b612a9e60208301856129ac565b612aab6040830184612142565b949350505050565b7f4c6561736541677265656d656e743a204f6e6c7920637573746f6d65722063615f8201527f6e20706179000000000000000000000000000000000000000000000000000000602082015250565b5f612b0d602583612429565b9150612b1882612ab3565b604082019050919050565b5f6020820190508181035f830152612b3a81612b01565b9050919050565b7f4c6561736541677265656d656e743a205061796d656e7420697320746f6f206c5f8201527f6f77000000000000000000000000000000000000000000000000000000000000602082015250565b5f612b9b602283612429565b9150612ba682612b41565b604082019050919050565b5f6020820190508181035f830152612bc881612b8f565b9050919050565b7f4c6561736541677265656d656e743a204c6561736520616c72656164792070615f8201527f696420666f720000000000000000000000000000000000000000000000000000602082015250565b5f612c29602683612429565b9150612c3482612bcf565b604082019050919050565b5f6020820190508181035f830152612c5681612c1d565b9050919050565b7f4e487b71000000000000000000000000000000000000000000000000000000005f52602260045260245ffd5b5f6002820490506001821680612ca157607f821691505b602082108103612cb457612cb3612c5d565b5b50919050565b5f80fd5b7f4e487b71000000000000000000000000000000000000000000000000000000005f52604160045260245ffd5b612cf4826120c3565b810181811067ffffffffffffffff82111715612d1357612d12612cbe565b5b80604052505050565b5f612d25611f6c565b9050612d318282612ceb565b919050565b5f80fd5b5f80fd5b5f67ffffffffffffffff821115612d5857612d57612cbe565b5b612d61826120c3565b9050602081019050919050565b5f612d80612d7b84612d3e565b612d1c565b905082815260208101848484011115612d9c57612d9b612d3a565b5b612da78482856120b5565b509392505050565b5f82601f830112612dc357612dc2611f7d565b5b8151612dd3848260208601612d6e565b91505092915050565b612de581611f37565b8114612def575f80fd5b50565b5f81519050612e0081612ddc565b92915050565b5f60a08284031215612e1b57612e1a612cba565b5b612e2560a0612d1c565b90505f82015167ffffffffffffffff811115612e4457612e43612d36565b5b612e5084828501612daf565b5f83015250602082015167ffffffffffffffff811115612e7357612e72612d36565b5b612e7f84828501612daf565b6020830152506040612e9384828501612df2565b6040830152506060612ea78482850161295c565b6060830152506080612ebb8482850161295c565b60808301525092915050565b5f60208284031215612edc57612edb611f75565b5b5f82015167ffffffffffffffff811115612ef957612ef8611f79565b5b612f0584828501612e06565b91505092915050565b7f4c6561736541677265656d656e743a20546865206e6577206d696c656167652d5f8201527f746f74616c206d7573742062652067726561746572207468616e206f7220657160208201527f75616c20746f207468652070726576696f757300000000000000000000000000604082015250565b5f612f8e605383612429565b9150612f9982612f0e565b606082019050919050565b5f6020820190508181035f830152612fbb81612f82565b9050919050565b5f604082019050612fd55f830185612142565b612fe26020830184612142565b9392505050565b612ff28161238f565b82525050565b5f61301261300d61300884611f37565b6121bf565b612139565b9050919050565b61302281612ff8565b82525050565b5f60a08201905061303b5f830188612142565b6130486020830187612142565b6130556040830186612fe9565b6130626060830185613019565b61306f6080830184613019565b9695505050505050565b5f6fffffffffffffffffffffffffffffffff82169050919050565b61309d81613079565b81146130a7575f80fd5b50565b5f815190506130b881613094565b92915050565b5f602082840312156130d3576130d2611f75565b5b5f6130e0848285016130aa565b91505092915050565b7f4c6561736541677265656d656e743a20496e76616c69642063686f69636520665f8201527f6f7220636f6e7472616374206475726174696f6e000000000000000000000000602082015250565b5f613143603483612429565b915061314e826130e9565b604082019050919050565b5f6020820190508181035f83015261317081613137565b9050919050565b7f4e487b71000000000000000000000000000000000000000000000000000000005f52603260045260245ffd5b7f4c6561736541677265656d656e743a20496e76616c69642063686f69636520665f8201527f6f72206d696c6561676520636170000000000000000000000000000000000000602082015250565b5f6131fe602e83612429565b9150613209826131a4565b604082019050919050565b5f6020820190508181035f83015261322b816131f2565b905091905056fea264697066735822122004c0f45280c2f1821631263c88aa9ce2f05c99839cfb91b4a1c7c46e3e3d365b64736f6c634300081a0033",
			"opcodes": "PUSH1 0xE0 PUSH1 0x40 MSTORE PUSH1 0x40 MLOAD DUP1 PUSH1 0x80 ADD PUSH1 0x40 MSTORE DUP1 PUSH1 0x1 PUSH1 0xFF AND DUP2 MSTORE PUSH1 0x20 ADD PUSH1 0x3 PUSH1 0xFF AND DUP2 MSTORE PUSH1 0x20 ADD PUSH1 0x6 PUSH1 0xFF AND DUP2 MSTORE PUSH1 0x20 ADD PUSH1 0xC PUSH1 0xFF AND DUP2 MSTORE POP PUSH1 0x7 SWAP1 PUSH1 0x4 PUSH2 0x45 SWAP3 SWAP2 SWAP1 PUSH2 0x848 JUMP JUMPDEST POP PUSH1 0x40 MLOAD DUP1 PUSH2 0x100 ADD PUSH1 0x40 MSTORE DUP1 PUSH2 0xBB8 PUSH2 0xFFFF AND DUP2 MSTORE PUSH1 0x20 ADD PUSH2 0xFA0 PUSH2 0xFFFF AND DUP2 MSTORE PUSH1 0x20 ADD PUSH2 0x1388 PUSH2 0xFFFF AND DUP2 MSTORE PUSH1 0x20 ADD PUSH2 0x1770 PUSH2 0xFFFF AND DUP2 MSTORE PUSH1 0x20 ADD PUSH2 0x1B58 PUSH2 0xFFFF AND DUP2 MSTORE PUSH1 0x20 ADD PUSH2 0x1F40 PUSH2 0xFFFF AND DUP2 MSTORE PUSH1 0x20 ADD PUSH2 0x2328 PUSH2 0xFFFF AND DUP2 MSTORE PUSH1 0x20 ADD PUSH2 0x2710 PUSH2 0xFFFF AND DUP2 MSTORE POP PUSH1 0x8 SWAP1 PUSH1 0x8 PUSH2 0xC0 SWAP3 SWAP2 SWAP1 PUSH2 0x8E3 JUMP JUMPDEST POP CALLVALUE DUP1 ISZERO PUSH2 0xCC JUMPI PUSH0 DUP1 REVERT JUMPDEST POP PUSH1 0x40 MLOAD PUSH2 0x4842 CODESIZE SUB DUP1 PUSH2 0x4842 DUP4 CODECOPY DUP2 DUP2 ADD PUSH1 0x40 MSTORE DUP2 ADD SWAP1 PUSH2 0xEE SWAP2 SWAP1 PUSH2 0xA6E JUMP JUMPDEST TIMESTAMP PUSH1 0xC0 DUP2 DUP2 MSTORE POP POP PUSH1 0xA PUSH1 0x3 DUP2 SWAP1 SSTORE POP DUP1 PUSH20 0xFFFFFFFFFFFFFFFFFFFFFFFFFFFFFFFFFFFFFFFF AND PUSH1 0x80 DUP2 PUSH20 0xFFFFFFFFFFFFFFFFFFFFFFFFFFFFFFFFFFFFFFFF AND DUP2 MSTORE POP POP DUP6 PUSH1 0x9 PUSH1 0x7 PUSH2 0x100 EXP DUP2 SLOAD DUP2 PUSH20 0xFFFFFFFFFFFFFFFFFFFFFFFFFFFFFFFFFFFFFFFF MUL NOT AND SWAP1 DUP4 PUSH20 0xFFFFFFFFFFFFFFFFFFFFFFFFFFFFFFFFFFFFFFFF AND MUL OR SWAP1 SSTORE POP PUSH1 0x9 PUSH1 0x7 SWAP1 SLOAD SWAP1 PUSH2 0x100 EXP SWAP1 DIV PUSH20 0xFFFFFFFFFFFFFFFFFFFFFFFFFFFFFFFFFFFFFFFF AND PUSH20 0xFFFFFFFFFFFFFFFFFFFFFFFFFFFFFFFFFFFFFFFF AND PUSH4 0xEF555BC1 DUP7 PUSH1 0x40 MLOAD DUP3 PUSH4 0xFFFFFFFF AND PUSH1 0xE0 SHL DUP2 MSTORE PUSH1 0x4 ADD PUSH2 0x1CE SWAP2 SWAP1 PUSH2 0xB06 JUMP JUMPDEST PUSH0 PUSH1 0x40 MLOAD DUP1 DUP4 SUB DUP2 DUP7 GAS STATICCALL ISZERO DUP1 ISZERO PUSH2 0x1E8 JUMPI RETURNDATASIZE PUSH0 DUP1 RETURNDATACOPY RETURNDATASIZE PUSH0 REVERT JUMPDEST POP POP POP POP PUSH1 0x40 MLOAD RETURNDATASIZE PUSH0 DUP3 RETURNDATACOPY RETURNDATASIZE PUSH1 0x1F NOT PUSH1 0x1F DUP3 ADD AND DUP3 ADD DUP1 PUSH1 0x40 MSTORE POP DUP2 ADD SWAP1 PUSH2 0x210 SWAP2 SWAP1 PUSH2 0xD5B JUMP JUMPDEST PUSH1 0xA PUSH0 DUP3 ADD MLOAD DUP2 PUSH0 ADD SWAP1 DUP2 PUSH2 0x225 SWAP2 SWAP1 PUSH2 0xFA6 JUMP JUMPDEST POP PUSH1 0x20 DUP3 ADD MLOAD DUP2 PUSH1 0x1 ADD SWAP1 DUP2 PUSH2 0x23B SWAP2 SWAP1 PUSH2 0xFA6 JUMP JUMPDEST POP PUSH1 0x40 DUP3 ADD MLOAD DUP2 PUSH1 0x2 ADD PUSH0 PUSH2 0x100 EXP DUP2 SLOAD DUP2 PUSH2 0xFFFF MUL NOT AND SWAP1 DUP4 PUSH2 0xFFFF AND MUL OR SWAP1 SSTORE POP PUSH1 0x60 DUP3 ADD MLOAD DUP2 PUSH1 0x3 ADD SSTORE PUSH1 0x80 DUP3 ADD MLOAD DUP2 PUSH1 0x4 ADD SSTORE SWAP1 POP POP DUP5 PUSH1 0xF DUP2 SWAP1 SSTORE POP PUSH1 0x9 PUSH1 0x7 SWAP1 SLOAD SWAP1 PUSH2 0x100 EXP SWAP1 DIV PUSH20 0xFFFFFFFFFFFFFFFFFFFFFFFFFFFFFFFFFFFFFFFF AND PUSH20 0xFFFFFFFFFFFFFFFFFFFFFFFFFFFFFFFFFFFFFFFF AND PUSH4 0x93678237 DUP7 PUSH1 0x40 MLOAD DUP3 PUSH4 0xFFFFFFFF AND PUSH1 0xE0 SHL DUP2 MSTORE PUSH1 0x4 ADD PUSH2 0x2D7 SWAP2 SWAP1 PUSH2 0xB06 JUMP JUMPDEST PUSH1 0x20 PUSH1 0x40 MLOAD DUP1 DUP4 SUB DUP2 DUP7 GAS STATICCALL ISZERO DUP1 ISZERO PUSH2 0x2F2 JUMPI RETURNDATASIZE PUSH0 DUP1 RETURNDATACOPY RETURNDATASIZE PUSH0 REVERT JUMPDEST POP POP POP POP PUSH1 0x40 MLOAD RETURNDATASIZE PUSH1 0x1F NOT PUSH1 0x1F DUP3 ADD AND DUP3 ADD DUP1 PUSH1 0x40 MSTORE POP DUP2 ADD SWAP1 PUSH2 0x316 SWAP2 SWAP1 PUSH2 0x1075 JUMP JUMPDEST PUSH20 0xFFFFFFFFFFFFFFFFFFFFFFFFFFFFFFFFFFFFFFFF AND PUSH1 0x80 MLOAD PUSH20 0xFFFFFFFFFFFFFFFFFFFFFFFFFFFFFFFFFFFFFFFF AND EQ PUSH2 0x385 JUMPI PUSH1 0x40 MLOAD PUSH32 0x8C379A000000000000000000000000000000000000000000000000000000000 DUP2 MSTORE PUSH1 0x4 ADD PUSH2 0x37C SWAP1 PUSH2 0x1120 JUMP JUMPDEST PUSH1 0x40 MLOAD DUP1 SWAP2 SUB SWAP1 REVERT JUMPDEST PUSH1 0x9 PUSH1 0x7 SWAP1 SLOAD SWAP1 PUSH2 0x100 EXP SWAP1 DIV PUSH20 0xFFFFFFFFFFFFFFFFFFFFFFFFFFFFFFFFFFFFFFFF AND PUSH20 0xFFFFFFFFFFFFFFFFFFFFFFFFFFFFFFFFFFFFFFFF AND PUSH4 0x2D64DBFD PUSH1 0xF SLOAD PUSH1 0x40 MLOAD DUP3 PUSH4 0xFFFFFFFF AND PUSH1 0xE0 SHL DUP2 MSTORE PUSH1 0x4 ADD PUSH2 0x3E2 SWAP2 SWAP1 PUSH2 0xB06 JUMP JUMPDEST PUSH1 0x20 PUSH1 0x40 MLOAD DUP1 DUP4 SUB DUP2 DUP7 GAS STATICCALL ISZERO DUP1 ISZERO PUSH2 0x3FD JUMPI RETURNDATASIZE PUSH0 DUP1 RETURNDATACOPY RETURNDATASIZE PUSH0 REVERT JUMPDEST POP POP POP POP PUSH1 0x40 MLOAD RETURNDATASIZE PUSH1 0x1F NOT PUSH1 0x1F DUP3 ADD AND DUP3 ADD DUP1 PUSH1 0x40 MSTORE POP DUP2 ADD SWAP1 PUSH2 0x421 SWAP2 SWAP1 PUSH2 0x1173 JUMP JUMPDEST PUSH2 0x460 JUMPI PUSH1 0x40 MLOAD PUSH32 0x8C379A000000000000000000000000000000000000000000000000000000000 DUP2 MSTORE PUSH1 0x4 ADD PUSH2 0x457 SWAP1 PUSH2 0x120E JUMP JUMPDEST PUSH1 0x40 MLOAD DUP1 SWAP2 SUB SWAP1 REVERT JUMPDEST PUSH2 0x4D4 DUP4 PUSH1 0x7 PUSH1 0x4 DUP1 PUSH1 0x20 MUL PUSH1 0x40 MLOAD SWAP1 DUP2 ADD PUSH1 0x40 MSTORE DUP1 SWAP3 SWAP2 SWAP1 DUP3 PUSH1 0x4 DUP1 ISZERO PUSH2 0x4C4 JUMPI PUSH1 0x20 MUL DUP3 ADD SWAP2 PUSH0 SWAP1 JUMPDEST DUP3 DUP3 SWAP1 SLOAD SWAP1 PUSH2 0x100 EXP SWAP1 DIV PUSH2 0xFFFF AND PUSH2 0xFFFF AND DUP2 MSTORE PUSH1 0x20 ADD SWAP1 PUSH1 0x2 ADD SWAP1 PUSH1 0x20 DUP3 PUSH1 0x1 ADD DIV SWAP3 DUP4 ADD SWAP3 PUSH1 0x1 SUB DUP3 MUL SWAP2 POP DUP1 DUP5 GT PUSH2 0x48B JUMPI SWAP1 POP JUMPDEST POP POP POP POP POP PUSH2 0x6B6 PUSH1 0x20 SHL PUSH1 0x20 SHR JUMP JUMPDEST PUSH1 0x9 PUSH0 PUSH2 0x100 EXP DUP2 SLOAD DUP2 PUSH2 0xFFFF MUL NOT AND SWAP1 DUP4 PUSH2 0xFFFF AND MUL OR SWAP1 SSTORE POP PUSH2 0x562 DUP3 PUSH1 0x8 DUP1 DUP1 PUSH1 0x20 MUL PUSH1 0x40 MLOAD SWAP1 DUP2 ADD PUSH1 0x40 MSTORE DUP1 SWAP3 SWAP2 SWAP1 DUP3 PUSH1 0x8 DUP1 ISZERO PUSH2 0x552 JUMPI PUSH1 0x20 MUL DUP3 ADD SWAP2 PUSH0 SWAP1 JUMPDEST DUP3 DUP3 SWAP1 SLOAD SWAP1 PUSH2 0x100 EXP SWAP1 DIV PUSH2 0xFFFF AND PUSH2 0xFFFF AND DUP2 MSTORE PUSH1 0x20 ADD SWAP1 PUSH1 0x2 ADD SWAP1 PUSH1 0x20 DUP3 PUSH1 0x1 ADD DIV SWAP3 DUP4 ADD SWAP3 PUSH1 0x1 SUB DUP3 MUL SWAP2 POP DUP1 DUP5 GT PUSH2 0x519 JUMPI SWAP1 POP JUMPDEST POP POP POP POP POP PUSH2 0x77F PUSH1 0x20 SHL PUSH1 0x20 SHR JUMP JUMPDEST PUSH1 0x9 PUSH1 0x2 PUSH2 0x100 EXP DUP2 SLOAD DUP2 PUSH2 0xFFFF MUL NOT AND SWAP1 DUP4 PUSH2 0xFFFF AND MUL OR SWAP1 SSTORE POP PUSH1 0x9 PUSH1 0x7 SWAP1 SLOAD SWAP1 PUSH2 0x100 EXP SWAP1 DIV PUSH20 0xFFFFFFFFFFFFFFFFFFFFFFFFFFFFFFFFFFFFFFFF AND PUSH20 0xFFFFFFFFFFFFFFFFFFFFFFFFFFFFFFFFFFFFFFFF AND PUSH4 0xD57FA07D PUSH1 0xA PUSH1 0x3 ADD SLOAD PUSH1 0xA PUSH1 0x4 ADD SLOAD DUP8 PUSH1 0x9 PUSH1 0x2 SWAP1 SLOAD SWAP1 PUSH2 0x100 EXP SWAP1 DIV PUSH2 0xFFFF AND PUSH1 0x9 PUSH0 SWAP1 SLOAD SWAP1 PUSH2 0x100 EXP SWAP1 DIV PUSH2 0xFFFF AND PUSH1 0x40 MLOAD DUP7 PUSH4 0xFFFFFFFF AND PUSH1 0xE0 SHL DUP2 MSTORE PUSH1 0x4 ADD PUSH2 0x60A SWAP6 SWAP5 SWAP4 SWAP3 SWAP2 SWAP1 PUSH2 0x126B JUMP JUMPDEST PUSH1 0x20 PUSH1 0x40 MLOAD DUP1 DUP4 SUB DUP2 DUP7 GAS STATICCALL ISZERO DUP1 ISZERO PUSH2 0x625 JUMPI RETURNDATASIZE PUSH0 DUP1 RETURNDATACOPY RETURNDATASIZE PUSH0 REVERT JUMPDEST POP POP POP POP PUSH1 0x40 MLOAD RETURNDATASIZE PUSH1 0x1F NOT PUSH1 0x1F DUP3 ADD AND DUP3 ADD DUP1 PUSH1 0x40 MSTORE POP DUP2 ADD SWAP1 PUSH2 0x649 SWAP2 SWAP1 PUSH2 0x1301 JUMP JUMPDEST PUSH16 0xFFFFFFFFFFFFFFFFFFFFFFFFFFFFFFFF AND PUSH1 0x1 DUP2 SWAP1 SSTORE POP PUSH0 PUSH1 0x9 PUSH1 0x5 PUSH2 0x100 EXP DUP2 SLOAD DUP2 PUSH1 0xFF MUL NOT AND SWAP1 DUP4 ISZERO ISZERO MUL OR SWAP1 SSTORE POP PUSH0 PUSH1 0x9 PUSH1 0x6 PUSH2 0x100 EXP DUP2 SLOAD DUP2 PUSH1 0xFF MUL NOT AND SWAP1 DUP4 ISZERO ISZERO MUL OR SWAP1 SSTORE POP PUSH1 0x3 PUSH1 0x1 SLOAD PUSH2 0x6A4 SWAP2 SWAP1 PUSH2 0x1359 JUMP JUMPDEST PUSH1 0xA0 DUP2 DUP2 MSTORE POP POP POP POP POP POP POP POP PUSH2 0x1571 JUMP JUMPDEST PUSH0 PUSH1 0x9 PUSH1 0x6 SWAP1 SLOAD SWAP1 PUSH2 0x100 EXP SWAP1 DIV PUSH1 0xFF AND ISZERO PUSH2 0x707 JUMPI PUSH1 0x40 MLOAD PUSH32 0x8C379A000000000000000000000000000000000000000000000000000000000 DUP2 MSTORE PUSH1 0x4 ADD PUSH2 0x6FE SWAP1 PUSH2 0x140A JUMP JUMPDEST PUSH1 0x40 MLOAD DUP1 SWAP2 SUB SWAP1 REVERT JUMPDEST PUSH0 DUP4 PUSH1 0xFF AND LT ISZERO DUP1 ISZERO PUSH2 0x71D JUMPI POP PUSH1 0x4 DUP4 PUSH1 0xFF AND LT JUMPDEST PUSH2 0x75C JUMPI PUSH1 0x40 MLOAD PUSH32 0x8C379A000000000000000000000000000000000000000000000000000000000 DUP2 MSTORE PUSH1 0x4 ADD PUSH2 0x753 SWAP1 PUSH2 0x1498 JUMP JUMPDEST PUSH1 0x40 MLOAD DUP1 SWAP2 SUB SWAP1 REVERT JUMPDEST DUP2 DUP4 PUSH1 0xFF AND PUSH1 0x4 DUP2 LT PUSH2 0x772 JUMPI PUSH2 0x771 PUSH2 0x14B6 JUMP JUMPDEST JUMPDEST PUSH1 0x20 MUL ADD MLOAD SWAP1 POP SWAP3 SWAP2 POP POP JUMP JUMPDEST PUSH0 PUSH1 0x9 PUSH1 0x6 SWAP1 SLOAD SWAP1 PUSH2 0x100 EXP SWAP1 DIV PUSH1 0xFF AND ISZERO PUSH2 0x7D0 JUMPI PUSH1 0x40 MLOAD PUSH32 0x8C379A000000000000000000000000000000000000000000000000000000000 DUP2 MSTORE PUSH1 0x4 ADD PUSH2 0x7C7 SWAP1 PUSH2 0x140A JUMP JUMPDEST PUSH1 0x40 MLOAD DUP1 SWAP2 SUB SWAP1 REVERT JUMPDEST PUSH0 DUP4 PUSH1 0xFF AND LT ISZERO DUP1 ISZERO PUSH2 0x7E6 JUMPI POP PUSH1 0x8 DUP4 PUSH1 0xFF AND LT JUMPDEST PUSH2 0x825 JUMPI PUSH1 0x40 MLOAD PUSH32 0x8C379A000000000000000000000000000000000000000000000000000000000 DUP2 MSTORE PUSH1 0x4 ADD PUSH2 0x81C SWAP1 PUSH2 0x1553 JUMP JUMPDEST PUSH1 0x40 MLOAD DUP1 SWAP2 SUB SWAP1 REVERT JUMPDEST DUP2 DUP4 PUSH1 0xFF AND PUSH1 0x8 DUP2 LT PUSH2 0x83B JUMPI PUSH2 0x83A PUSH2 0x14B6 JUMP JUMPDEST JUMPDEST PUSH1 0x20 MUL ADD MLOAD SWAP1 POP SWAP3 SWAP2 POP POP JUMP JUMPDEST DUP3 PUSH1 0x4 PUSH1 0xF ADD PUSH1 0x10 SWAP1 DIV DUP2 ADD SWAP3 DUP3 ISZERO PUSH2 0x8D2 JUMPI SWAP2 PUSH1 0x20 MUL DUP3 ADD PUSH0 JUMPDEST DUP4 DUP3 GT ISZERO PUSH2 0x8A2 JUMPI DUP4 MLOAD DUP4 DUP3 PUSH2 0x100 EXP DUP2 SLOAD DUP2 PUSH2 0xFFFF MUL NOT AND SWAP1 DUP4 PUSH1 0xFF AND MUL OR SWAP1 SSTORE POP SWAP3 PUSH1 0x20 ADD SWAP3 PUSH1 0x2 ADD PUSH1 0x20 DUP2 PUSH1 0x1 ADD DIV SWAP3 DUP4 ADD SWAP3 PUSH1 0x1 SUB MUL PUSH2 0x863 JUMP JUMPDEST DUP1 ISZERO PUSH2 0x8D0 JUMPI DUP3 DUP2 PUSH2 0x100 EXP DUP2 SLOAD SWAP1 PUSH2 0xFFFF MUL NOT AND SWAP1 SSTORE PUSH1 0x2 ADD PUSH1 0x20 DUP2 PUSH1 0x1 ADD DIV SWAP3 DUP4 ADD SWAP3 PUSH1 0x1 SUB MUL PUSH2 0x8A2 JUMP JUMPDEST POP JUMPDEST POP SWAP1 POP PUSH2 0x8DF SWAP2 SWAP1 PUSH2 0x97F JUMP JUMPDEST POP SWAP1 JUMP JUMPDEST DUP3 PUSH1 0x8 PUSH1 0xF ADD PUSH1 0x10 SWAP1 DIV DUP2 ADD SWAP3 DUP3 ISZERO PUSH2 0x96E JUMPI SWAP2 PUSH1 0x20 MUL DUP3 ADD PUSH0 JUMPDEST DUP4 DUP3 GT ISZERO PUSH2 0x93E JUMPI DUP4 MLOAD DUP4 DUP3 PUSH2 0x100 EXP DUP2 SLOAD DUP2 PUSH2 0xFFFF MUL NOT AND SWAP1 DUP4 PUSH2 0xFFFF AND MUL OR SWAP1 SSTORE POP SWAP3 PUSH1 0x20 ADD SWAP3 PUSH1 0x2 ADD PUSH1 0x20 DUP2 PUSH1 0x1 ADD DIV SWAP3 DUP4 ADD SWAP3 PUSH1 0x1 SUB MUL PUSH2 0x8FE JUMP JUMPDEST DUP1 ISZERO PUSH2 0x96C JUMPI DUP3 DUP2 PUSH2 0x100 EXP DUP2 SLOAD SWAP1 PUSH2 0xFFFF MUL NOT AND SWAP1 SSTORE PUSH1 0x2 ADD PUSH1 0x20 DUP2 PUSH1 0x1 ADD DIV SWAP3 DUP4 ADD SWAP3 PUSH1 0x1 SUB MUL PUSH2 0x93E JUMP JUMPDEST POP JUMPDEST POP SWAP1 POP PUSH2 0x97B SWAP2 SWAP1 PUSH2 0x97F JUMP JUMPDEST POP SWAP1 JUMP JUMPDEST JUMPDEST DUP1 DUP3 GT ISZERO PUSH2 0x996 JUMPI PUSH0 DUP2 PUSH0 SWAP1 SSTORE POP PUSH1 0x1 ADD PUSH2 0x980 JUMP JUMPDEST POP SWAP1 JUMP JUMPDEST PUSH0 PUSH1 0x40 MLOAD SWAP1 POP SWAP1 JUMP JUMPDEST PUSH0 DUP1 REVERT JUMPDEST PUSH0 DUP1 REVERT JUMPDEST PUSH0 PUSH20 0xFFFFFFFFFFFFFFFFFFFFFFFFFFFFFFFFFFFFFFFF DUP3 AND SWAP1 POP SWAP2 SWAP1 POP JUMP JUMPDEST PUSH0 PUSH2 0x9D4 DUP3 PUSH2 0x9AB JUMP JUMPDEST SWAP1 POP SWAP2 SWAP1 POP JUMP JUMPDEST PUSH2 0x9E4 DUP2 PUSH2 0x9CA JUMP JUMPDEST DUP2 EQ PUSH2 0x9EE JUMPI PUSH0 DUP1 REVERT JUMPDEST POP JUMP JUMPDEST PUSH0 DUP2 MLOAD SWAP1 POP PUSH2 0x9FF DUP2 PUSH2 0x9DB JUMP JUMPDEST SWAP3 SWAP2 POP POP JUMP JUMPDEST PUSH0 DUP2 SWAP1 POP SWAP2 SWAP1 POP JUMP JUMPDEST PUSH2 0xA17 DUP2 PUSH2 0xA05 JUMP JUMPDEST DUP2 EQ PUSH2 0xA21 JUMPI PUSH0 DUP1 REVERT JUMPDEST POP JUMP JUMPDEST PUSH0 DUP2 MLOAD SWAP1 POP PUSH2 0xA32 DUP2 PUSH2 0xA0E JUMP JUMPDEST SWAP3 SWAP2 POP POP JUMP JUMPDEST PUSH0 PUSH1 0xFF DUP3 AND SWAP1 POP SWAP2 SWAP1 POP JUMP JUMPDEST PUSH2 0xA4D DUP2 PUSH2 0xA38 JUMP JUMPDEST DUP2 EQ PUSH2 0xA57 JUMPI PUSH0 DUP1 REVERT JUMPDEST POP JUMP JUMPDEST PUSH0 DUP2 MLOAD SWAP1 POP PUSH2 0xA68 DUP2 PUSH2 0xA44 JUMP JUMPDEST SWAP3 SWAP2 POP POP JUMP JUMPDEST PUSH0 DUP1 PUSH0 DUP1 PUSH0 DUP1 PUSH1 0xC0 DUP8 DUP10 SUB SLT ISZERO PUSH2 0xA88 JUMPI PUSH2 0xA87 PUSH2 0x9A3 JUMP JUMPDEST JUMPDEST PUSH0 PUSH2 0xA95 DUP10 DUP3 DUP11 ADD PUSH2 0x9F1 JUMP JUMPDEST SWAP7 POP POP PUSH1 0x20 PUSH2 0xAA6 DUP10 DUP3 DUP11 ADD PUSH2 0xA24 JUMP JUMPDEST SWAP6 POP POP PUSH1 0x40 PUSH2 0xAB7 DUP10 DUP3 DUP11 ADD PUSH2 0xA5A JUMP JUMPDEST SWAP5 POP POP PUSH1 0x60 PUSH2 0xAC8 DUP10 DUP3 DUP11 ADD PUSH2 0xA5A JUMP JUMPDEST SWAP4 POP POP PUSH1 0x80 PUSH2 0xAD9 DUP10 DUP3 DUP11 ADD PUSH2 0xA5A JUMP JUMPDEST SWAP3 POP POP PUSH1 0xA0 PUSH2 0xAEA DUP10 DUP3 DUP11 ADD PUSH2 0x9F1 JUMP JUMPDEST SWAP2 POP POP SWAP3 SWAP6 POP SWAP3 SWAP6 POP SWAP3 SWAP6 JUMP JUMPDEST PUSH2 0xB00 DUP2 PUSH2 0xA05 JUMP JUMPDEST DUP3 MSTORE POP POP JUMP JUMPDEST PUSH0 PUSH1 0x20 DUP3 ADD SWAP1 POP PUSH2 0xB19 PUSH0 DUP4 ADD DUP5 PUSH2 0xAF7 JUMP JUMPDEST SWAP3 SWAP2 POP POP JUMP JUMPDEST PUSH0 DUP1 REVERT JUMPDEST PUSH0 PUSH1 0x1F NOT PUSH1 0x1F DUP4 ADD AND SWAP1 POP SWAP2 SWAP1 POP JUMP JUMPDEST PUSH32 0x4E487B7100000000000000000000000000000000000000000000000000000000 PUSH0 MSTORE PUSH1 0x41 PUSH1 0x4 MSTORE PUSH1 0x24 PUSH0 REVERT JUMPDEST PUSH2 0xB69 DUP3 PUSH2 0xB23 JUMP JUMPDEST DUP2 ADD DUP2 DUP2 LT PUSH8 0xFFFFFFFFFFFFFFFF DUP3 GT OR ISZERO PUSH2 0xB88 JUMPI PUSH2 0xB87 PUSH2 0xB33 JUMP JUMPDEST JUMPDEST DUP1 PUSH1 0x40 MSTORE POP POP POP JUMP JUMPDEST PUSH0 PUSH2 0xB9A PUSH2 0x99A JUMP JUMPDEST SWAP1 POP PUSH2 0xBA6 DUP3 DUP3 PUSH2 0xB60 JUMP JUMPDEST SWAP2 SWAP1 POP JUMP JUMPDEST PUSH0 DUP1 REVERT JUMPDEST PUSH0 DUP1 REVERT JUMPDEST PUSH0 DUP1 REVERT JUMPDEST PUSH0 PUSH8 0xFFFFFFFFFFFFFFFF DUP3 GT ISZERO PUSH2 0xBD1 JUMPI PUSH2 0xBD0 PUSH2 0xB33 JUMP JUMPDEST JUMPDEST PUSH2 0xBDA DUP3 PUSH2 0xB23 JUMP JUMPDEST SWAP1 POP PUSH1 0x20 DUP2 ADD SWAP1 POP SWAP2 SWAP1 POP JUMP JUMPDEST DUP3 DUP2 DUP4 MCOPY PUSH0 DUP4 DUP4 ADD MSTORE POP POP POP JUMP JUMPDEST PUSH0 PUSH2 0xC07 PUSH2 0xC02 DUP5 PUSH2 0xBB7 JUMP JUMPDEST PUSH2 0xB91 JUMP JUMPDEST SWAP1 POP DUP3 DUP2 MSTORE PUSH1 0x20 DUP2 ADD DUP5 DUP5 DUP5 ADD GT ISZERO PUSH2 0xC23 JUMPI PUSH2 0xC22 PUSH2 0xBB3 JUMP JUMPDEST JUMPDEST PUSH2 0xC2E DUP5 DUP3 DUP6 PUSH2 0xBE7 JUMP JUMPDEST POP SWAP4 SWAP3 POP POP POP JUMP JUMPDEST PUSH0 DUP3 PUSH1 0x1F DUP4 ADD SLT PUSH2 0xC4A JUMPI PUSH2 0xC49 PUSH2 0xBAF JUMP JUMPDEST JUMPDEST DUP2 MLOAD PUSH2 0xC5A DUP5 DUP3 PUSH1 0x20 DUP7 ADD PUSH2 0xBF5 JUMP JUMPDEST SWAP2 POP POP SWAP3 SWAP2 POP POP JUMP JUMPDEST PUSH0 PUSH2 0xFFFF DUP3 AND SWAP1 POP SWAP2 SWAP1 POP JUMP JUMPDEST PUSH2 0xC79 DUP2 PUSH2 0xC63 JUMP JUMPDEST DUP2 EQ PUSH2 0xC83 JUMPI PUSH0 DUP1 REVERT JUMPDEST POP JUMP JUMPDEST PUSH0 DUP2 MLOAD SWAP1 POP PUSH2 0xC94 DUP2 PUSH2 0xC70 JUMP JUMPDEST SWAP3 SWAP2 POP POP JUMP JUMPDEST PUSH0 PUSH1 0xA0 DUP3 DUP5 SUB SLT ISZERO PUSH2 0xCAF JUMPI PUSH2 0xCAE PUSH2 0xB1F JUMP JUMPDEST JUMPDEST PUSH2 0xCB9 PUSH1 0xA0 PUSH2 0xB91 JUMP JUMPDEST SWAP1 POP PUSH0 DUP3 ADD MLOAD PUSH8 0xFFFFFFFFFFFFFFFF DUP2 GT ISZERO PUSH2 0xCD8 JUMPI PUSH2 0xCD7 PUSH2 0xBAB JUMP JUMPDEST JUMPDEST PUSH2 0xCE4 DUP5 DUP3 DUP6 ADD PUSH2 0xC36 JUMP JUMPDEST PUSH0 DUP4 ADD MSTORE POP PUSH1 0x20 DUP3 ADD MLOAD PUSH8 0xFFFFFFFFFFFFFFFF DUP2 GT ISZERO PUSH2 0xD07 JUMPI PUSH2 0xD06 PUSH2 0xBAB JUMP JUMPDEST JUMPDEST PUSH2 0xD13 DUP5 DUP3 DUP6 ADD PUSH2 0xC36 JUMP JUMPDEST PUSH1 0x20 DUP4 ADD MSTORE POP PUSH1 0x40 PUSH2 0xD27 DUP5 DUP3 DUP6 ADD PUSH2 0xC86 JUMP JUMPDEST PUSH1 0x40 DUP4 ADD MSTORE POP PUSH1 0x60 PUSH2 0xD3B DUP5 DUP3 DUP6 ADD PUSH2 0xA24 JUMP JUMPDEST PUSH1 0x60 DUP4 ADD MSTORE POP PUSH1 0x80 PUSH2 0xD4F DUP5 DUP3 DUP6 ADD PUSH2 0xA24 JUMP JUMPDEST PUSH1 0x80 DUP4 ADD MSTORE POP SWAP3 SWAP2 POP POP JUMP JUMPDEST PUSH0 PUSH1 0x20 DUP3 DUP5 SUB SLT ISZERO PUSH2 0xD70 JUMPI PUSH2 0xD6F PUSH2 0x9A3 JUMP JUMPDEST JUMPDEST PUSH0 DUP3 ADD MLOAD PUSH8 0xFFFFFFFFFFFFFFFF DUP2 GT ISZERO PUSH2 0xD8D JUMPI PUSH2 0xD8C PUSH2 0x9A7 JUMP JUMPDEST JUMPDEST PUSH2 0xD99 DUP5 DUP3 DUP6 ADD PUSH2 0xC9A JUMP JUMPDEST SWAP2 POP POP SWAP3 SWAP2 POP POP JUMP JUMPDEST PUSH0 DUP2 MLOAD SWAP1 POP SWAP2 SWAP1 POP JUMP JUMPDEST PUSH32 0x4E487B7100000000000000000000000000000000000000000000000000000000 PUSH0 MSTORE PUSH1 0x22 PUSH1 0x4 MSTORE PUSH1 0x24 PUSH0 REVERT JUMPDEST PUSH0 PUSH1 0x2 DUP3 DIV SWAP1 POP PUSH1 0x1 DUP3 AND DUP1 PUSH2 0xDF0 JUMPI PUSH1 0x7F DUP3 AND SWAP2 POP JUMPDEST PUSH1 0x20 DUP3 LT DUP2 SUB PUSH2 0xE03 JUMPI PUSH2 0xE02 PUSH2 0xDAC JUMP JUMPDEST JUMPDEST POP SWAP2 SWAP1 POP JUMP JUMPDEST PUSH0 DUP2 SWAP1 POP DUP2 PUSH0 MSTORE PUSH1 0x20 PUSH0 KECCAK256 SWAP1 POP SWAP2 SWAP1 POP JUMP JUMPDEST PUSH0 PUSH1 0x20 PUSH1 0x1F DUP4 ADD DIV SWAP1 POP SWAP2 SWAP1 POP JUMP JUMPDEST PUSH0 DUP3 DUP3 SHL SWAP1 POP SWAP3 SWAP2 POP POP JUMP JUMPDEST PUSH0 PUSH1 0x8 DUP4 MUL PUSH2 0xE65 PUSH32 0xFFFFFFFFFFFFFFFFFFFFFFFFFFFFFFFFFFFFFFFFFFFFFFFFFFFFFFFFFFFFFFFF DUP3 PUSH2 0xE2A JUMP JUMPDEST PUSH2 0xE6F DUP7 DUP4 PUSH2 0xE2A JUMP JUMPDEST SWAP6 POP DUP1 NOT DUP5 AND SWAP4 POP DUP1 DUP7 AND DUP5 OR SWAP3 POP POP POP SWAP4 SWAP3 POP POP POP JUMP JUMPDEST PUSH0 DUP2 SWAP1 POP SWAP2 SWAP1 POP JUMP JUMPDEST PUSH0 PUSH2 0xEAA PUSH2 0xEA5 PUSH2 0xEA0 DUP5 PUSH2 0xA05 JUMP JUMPDEST PUSH2 0xE87 JUMP JUMPDEST PUSH2 0xA05 JUMP JUMPDEST SWAP1 POP SWAP2 SWAP1 POP JUMP JUMPDEST PUSH0 DUP2 SWAP1 POP SWAP2 SWAP1 POP JUMP JUMPDEST PUSH2 0xEC3 DUP4 PUSH2 0xE90 JUMP JUMPDEST PUSH2 0xED7 PUSH2 0xECF DUP3 PUSH2 0xEB1 JUMP JUMPDEST DUP5 DUP5 SLOAD PUSH2 0xE36 JUMP JUMPDEST DUP3 SSTORE POP POP POP POP JUMP JUMPDEST PUSH0 SWAP1 JUMP JUMPDEST PUSH2 0xEEB PUSH2 0xEDF JUMP JUMPDEST PUSH2 0xEF6 DUP2 DUP5 DUP5 PUSH2 0xEBA JUMP JUMPDEST POP POP POP JUMP JUMPDEST JUMPDEST DUP2 DUP2 LT ISZERO PUSH2 0xF19 JUMPI PUSH2 0xF0E PUSH0 DUP3 PUSH2 0xEE3 JUMP JUMPDEST PUSH1 0x1 DUP2 ADD SWAP1 POP PUSH2 0xEFC JUMP JUMPDEST POP POP JUMP JUMPDEST PUSH1 0x1F DUP3 GT ISZERO PUSH2 0xF5E JUMPI PUSH2 0xF2F DUP2 PUSH2 0xE09 JUMP JUMPDEST PUSH2 0xF38 DUP5 PUSH2 0xE1B JUMP JUMPDEST DUP2 ADD PUSH1 0x20 DUP6 LT ISZERO PUSH2 0xF47 JUMPI DUP2 SWAP1 POP JUMPDEST PUSH2 0xF5B PUSH2 0xF53 DUP6 PUSH2 0xE1B JUMP JUMPDEST DUP4 ADD DUP3 PUSH2 0xEFB JUMP JUMPDEST POP POP JUMPDEST POP POP POP JUMP JUMPDEST PUSH0 DUP3 DUP3 SHR SWAP1 POP SWAP3 SWAP2 POP POP JUMP JUMPDEST PUSH0 PUSH2 0xF7E PUSH0 NOT DUP5 PUSH1 0x8 MUL PUSH2 0xF63 JUMP JUMPDEST NOT DUP1 DUP4 AND SWAP2 POP POP SWAP3 SWAP2 POP POP JUMP JUMPDEST PUSH0 PUSH2 0xF96 DUP4 DUP4 PUSH2 0xF6F JUMP JUMPDEST SWAP2 POP DUP3 PUSH1 0x2 MUL DUP3 OR SWAP1 POP SWAP3 SWAP2 POP POP JUMP JUMPDEST PUSH2 0xFAF DUP3 PUSH2 0xDA2 JUMP JUMPDEST PUSH8 0xFFFFFFFFFFFFFFFF DUP2 GT ISZERO PUSH2 0xFC8 JUMPI PUSH2 0xFC7 PUSH2 0xB33 JUMP JUMPDEST JUMPDEST PUSH2 0xFD2 DUP3 SLOAD PUSH2 0xDD9 JUMP JUMPDEST PUSH2 0xFDD DUP3 DUP3 DUP6 PUSH2 0xF1D JUMP JUMPDEST PUSH0 PUSH1 0x20 SWAP1 POP PUSH1 0x1F DUP4 GT PUSH1 0x1 DUP2 EQ PUSH2 0x100E JUMPI PUSH0 DUP5 ISZERO PUSH2 0xFFC JUMPI DUP3 DUP8 ADD MLOAD SWAP1 POP JUMPDEST PUSH2 0x1006 DUP6 DUP3 PUSH2 0xF8B JUMP JUMPDEST DUP7 SSTORE POP PUSH2 0x106D JUMP JUMPDEST PUSH1 0x1F NOT DUP5 AND PUSH2 0x101C DUP7 PUSH2 0xE09 JUMP JUMPDEST PUSH0 JUMPDEST DUP3 DUP2 LT ISZERO PUSH2 0x1043 JUMPI DUP5 DUP10 ADD MLOAD DUP3 SSTORE PUSH1 0x1 DUP3 ADD SWAP2 POP PUSH1 0x20 DUP6 ADD SWAP5 POP PUSH1 0x20 DUP2 ADD SWAP1 POP PUSH2 0x101E JUMP JUMPDEST DUP7 DUP4 LT ISZERO PUSH2 0x1060 JUMPI DUP5 DUP10 ADD MLOAD PUSH2 0x105C PUSH1 0x1F DUP10 AND DUP3 PUSH2 0xF6F JUMP JUMPDEST DUP4 SSTORE POP JUMPDEST PUSH1 0x1 PUSH1 0x2 DUP9 MUL ADD DUP9 SSTORE POP POP POP JUMPDEST POP POP POP POP POP POP JUMP JUMPDEST PUSH0 PUSH1 0x20 DUP3 DUP5 SUB SLT ISZERO PUSH2 0x108A JUMPI PUSH2 0x1089 PUSH2 0x9A3 JUMP JUMPDEST JUMPDEST PUSH0 PUSH2 0x1097 DUP5 DUP3 DUP6 ADD PUSH2 0x9F1 JUMP JUMPDEST SWAP2 POP POP SWAP3 SWAP2 POP POP JUMP JUMPDEST PUSH0 DUP3 DUP3 MSTORE PUSH1 0x20 DUP3 ADD SWAP1 POP SWAP3 SWAP2 POP POP JUMP JUMPDEST PUSH32 0x4C6561736541677265656D656E743A2043617220616C7265616479206C656173 PUSH0 DUP3 ADD MSTORE PUSH32 0x6564000000000000000000000000000000000000000000000000000000000000 PUSH1 0x20 DUP3 ADD MSTORE POP JUMP JUMPDEST PUSH0 PUSH2 0x110A PUSH1 0x22 DUP4 PUSH2 0x10A0 JUMP JUMPDEST SWAP2 POP PUSH2 0x1115 DUP3 PUSH2 0x10B0 JUMP JUMPDEST PUSH1 0x40 DUP3 ADD SWAP1 POP SWAP2 SWAP1 POP JUMP JUMPDEST PUSH0 PUSH1 0x20 DUP3 ADD SWAP1 POP DUP2 DUP2 SUB PUSH0 DUP4 ADD MSTORE PUSH2 0x1137 DUP2 PUSH2 0x10FE JUMP JUMPDEST SWAP1 POP SWAP2 SWAP1 POP JUMP JUMPDEST PUSH0 DUP2 ISZERO ISZERO SWAP1 POP SWAP2 SWAP1 POP JUMP JUMPDEST PUSH2 0x1152 DUP2 PUSH2 0x113E JUMP JUMPDEST DUP2 EQ PUSH2 0x115C JUMPI PUSH0 DUP1 REVERT JUMPDEST POP JUMP JUMPDEST PUSH0 DUP2 MLOAD SWAP1 POP PUSH2 0x116D DUP2 PUSH2 0x1149 JUMP JUMPDEST SWAP3 SWAP2 POP POP JUMP JUMPDEST PUSH0 PUSH1 0x20 DUP3 DUP5 SUB SLT ISZERO PUSH2 0x1188 JUMPI PUSH2 0x1187 PUSH2 0x9A3 JUMP JUMPDEST JUMPDEST PUSH0 PUSH2 0x1195 DUP5 DUP3 DUP6 ADD PUSH2 0x115F JUMP JUMPDEST SWAP2 POP POP SWAP3 SWAP2 POP POP JUMP JUMPDEST PUSH32 0x4C6561736541677265656D656E743A2043617220616C72656164792072657365 PUSH0 DUP3 ADD MSTORE PUSH32 0x7276656400000000000000000000000000000000000000000000000000000000 PUSH1 0x20 DUP3 ADD MSTORE POP JUMP JUMPDEST PUSH0 PUSH2 0x11F8 PUSH1 0x24 DUP4 PUSH2 0x10A0 JUMP JUMPDEST SWAP2 POP PUSH2 0x1203 DUP3 PUSH2 0x119E JUMP JUMPDEST PUSH1 0x40 DUP3 ADD SWAP1 POP SWAP2 SWAP1 POP JUMP JUMPDEST PUSH0 PUSH1 0x20 DUP3 ADD SWAP1 POP DUP2 DUP2 SUB PUSH0 DUP4 ADD MSTORE PUSH2 0x1225 DUP2 PUSH2 0x11EC JUMP JUMPDEST SWAP1 POP SWAP2 SWAP1 POP JUMP JUMPDEST PUSH2 0x1235 DUP2 PUSH2 0xA38 JUMP JUMPDEST DUP3 MSTORE POP POP JUMP JUMPDEST PUSH0 PUSH2 0x1255 PUSH2 0x1250 PUSH2 0x124B DUP5 PUSH2 0xC63 JUMP JUMPDEST PUSH2 0xE87 JUMP JUMPDEST PUSH2 0xA05 JUMP JUMPDEST SWAP1 POP SWAP2 SWAP1 POP JUMP JUMPDEST PUSH2 0x1265 DUP2 PUSH2 0x123B JUMP JUMPDEST DUP3 MSTORE POP POP JUMP JUMPDEST PUSH0 PUSH1 0xA0 DUP3 ADD SWAP1 POP PUSH2 0x127E PUSH0 DUP4 ADD DUP9 PUSH2 0xAF7 JUMP JUMPDEST PUSH2 0x128B PUSH1 0x20 DUP4 ADD DUP8 PUSH2 0xAF7 JUMP JUMPDEST PUSH2 0x1298 PUSH1 0x40 DUP4 ADD DUP7 PUSH2 0x122C JUMP JUMPDEST PUSH2 0x12A5 PUSH1 0x60 DUP4 ADD DUP6 PUSH2 0x125C JUMP JUMPDEST PUSH2 0x12B2 PUSH1 0x80 DUP4 ADD DUP5 PUSH2 0x125C JUMP JUMPDEST SWAP7 SWAP6 POP POP POP POP POP POP JUMP JUMPDEST PUSH0 PUSH16 0xFFFFFFFFFFFFFFFFFFFFFFFFFFFFFFFF DUP3 AND SWAP1 POP SWAP2 SWAP1 POP JUMP JUMPDEST PUSH2 0x12E0 DUP2 PUSH2 0x12BC JUMP JUMPDEST DUP2 EQ PUSH2 0x12EA JUMPI PUSH0 DUP1 REVERT JUMPDEST POP JUMP JUMPDEST PUSH0 DUP2 MLOAD SWAP1 POP PUSH2 0x12FB DUP2 PUSH2 0x12D7 JUMP JUMPDEST SWAP3 SWAP2 POP POP JUMP JUMPDEST PUSH0 PUSH1 0x20 DUP3 DUP5 SUB SLT ISZERO PUSH2 0x1316 JUMPI PUSH2 0x1315 PUSH2 0x9A3 JUMP JUMPDEST JUMPDEST PUSH0 PUSH2 0x1323 DUP5 DUP3 DUP6 ADD PUSH2 0x12ED JUMP JUMPDEST SWAP2 POP POP SWAP3 SWAP2 POP POP JUMP JUMPDEST PUSH32 0x4E487B7100000000000000000000000000000000000000000000000000000000 PUSH0 MSTORE PUSH1 0x11 PUSH1 0x4 MSTORE PUSH1 0x24 PUSH0 REVERT JUMPDEST PUSH0 PUSH2 0x1363 DUP3 PUSH2 0xA05 JUMP JUMPDEST SWAP2 POP PUSH2 0x136E DUP4 PUSH2 0xA05 JUMP JUMPDEST SWAP3 POP DUP3 DUP3 MUL PUSH2 0x137C DUP2 PUSH2 0xA05 JUMP JUMPDEST SWAP2 POP DUP3 DUP3 DIV DUP5 EQ DUP4 ISZERO OR PUSH2 0x1393 JUMPI PUSH2 0x1392 PUSH2 0x132C JUMP JUMPDEST JUMPDEST POP SWAP3 SWAP2 POP POP JUMP JUMPDEST PUSH32 0x4C6561736541677265656D656E743A20436F6E7472616374207465726D696E61 PUSH0 DUP3 ADD MSTORE PUSH32 0x7465640000000000000000000000000000000000000000000000000000000000 PUSH1 0x20 DUP3 ADD MSTORE POP JUMP JUMPDEST PUSH0 PUSH2 0x13F4 PUSH1 0x23 DUP4 PUSH2 0x10A0 JUMP JUMPDEST SWAP2 POP PUSH2 0x13FF DUP3 PUSH2 0x139A JUMP JUMPDEST PUSH1 0x40 DUP3 ADD SWAP1 POP SWAP2 SWAP1 POP JUMP JUMPDEST PUSH0 PUSH1 0x20 DUP3 ADD SWAP1 POP DUP2 DUP2 SUB PUSH0 DUP4 ADD MSTORE PUSH2 0x1421 DUP2 PUSH2 0x13E8 JUMP JUMPDEST SWAP1 POP SWAP2 SWAP1 POP JUMP JUMPDEST PUSH32 0x4C6561736541677265656D656E743A20496E76616C69642063686F6963652066 PUSH0 DUP3 ADD MSTORE PUSH32 0x6F7220636F6E7472616374206475726174696F6E000000000000000000000000 PUSH1 0x20 DUP3 ADD MSTORE POP JUMP JUMPDEST PUSH0 PUSH2 0x1482 PUSH1 0x34 DUP4 PUSH2 0x10A0 JUMP JUMPDEST SWAP2 POP PUSH2 0x148D DUP3 PUSH2 0x1428 JUMP JUMPDEST PUSH1 0x40 DUP3 ADD SWAP1 POP SWAP2 SWAP1 POP JUMP JUMPDEST PUSH0 PUSH1 0x20 DUP3 ADD SWAP1 POP DUP2 DUP2 SUB PUSH0 DUP4 ADD MSTORE PUSH2 0x14AF DUP2 PUSH2 0x1476 JUMP JUMPDEST SWAP1 POP SWAP2 SWAP1 POP JUMP JUMPDEST PUSH32 0x4E487B7100000000000000000000000000000000000000000000000000000000 PUSH0 MSTORE PUSH1 0x32 PUSH1 0x4 MSTORE PUSH1 0x24 PUSH0 REVERT JUMPDEST PUSH32 0x4C6561736541677265656D656E743A20496E76616C69642063686F6963652066 PUSH0 DUP3 ADD MSTORE PUSH32 0x6F72206D696C6561676520636170000000000000000000000000000000000000 PUSH1 0x20 DUP3 ADD MSTORE POP JUMP JUMPDEST PUSH0 PUSH2 0x153D PUSH1 0x2E DUP4 PUSH2 0x10A0 JUMP JUMPDEST SWAP2 POP PUSH2 0x1548 DUP3 PUSH2 0x14E3 JUMP JUMPDEST PUSH1 0x40 DUP3 ADD SWAP1 POP SWAP2 SWAP1 POP JUMP JUMPDEST PUSH0 PUSH1 0x20 DUP3 ADD SWAP1 POP DUP2 DUP2 SUB PUSH0 DUP4 ADD MSTORE PUSH2 0x156A DUP2 PUSH2 0x1531 JUMP JUMPDEST SWAP1 POP SWAP2 SWAP1 POP JUMP JUMPDEST PUSH1 0x80 MLOAD PUSH1 0xA0 MLOAD PUSH1 0xC0 MLOAD PUSH2 0x3268 PUSH2 0x15DA PUSH0 CODECOPY PUSH0 PUSH2 0x431 ADD MSTORE PUSH0 DUP2 DUP2 PUSH2 0x4A0 ADD MSTORE DUP2 DUP2 PUSH2 0x5A2 ADD MSTORE DUP2 DUP2 PUSH2 0x882 ADD MSTORE DUP2 DUP2 PUSH2 0x1336 ADD MSTORE PUSH2 0x1B05 ADD MSTORE PUSH0 DUP2 DUP2 PUSH2 0xB27 ADD MSTORE DUP2 DUP2 PUSH2 0xBD0 ADD MSTORE DUP2 DUP2 PUSH2 0x106F ADD MSTORE DUP2 DUP2 PUSH2 0x14C9 ADD MSTORE DUP2 DUP2 PUSH2 0x1ACB ADD MSTORE PUSH2 0x1B4F ADD MSTORE PUSH2 0x3268 PUSH0 RETURN INVALID PUSH1 0x80 PUSH1 0x40 MSTORE PUSH1 0x4 CALLDATASIZE LT PUSH2 0x113 JUMPI PUSH0 CALLDATALOAD PUSH1 0xE0 SHR DUP1 PUSH4 0xCA15C67C GT PUSH2 0x9F JUMPI DUP1 PUSH4 0xE149B822 GT PUSH2 0x63 JUMPI DUP1 PUSH4 0xE149B822 EQ PUSH2 0x30A JUMPI DUP1 PUSH4 0xF6FEF779 EQ PUSH2 0x334 JUMPI DUP1 PUSH4 0xF707DC1D EQ PUSH2 0x35E JUMPI DUP1 PUSH4 0xF9A96071 EQ PUSH2 0x388 JUMPI DUP1 PUSH4 0xF9FEE13F EQ PUSH2 0x3B2 JUMPI PUSH2 0x113 JUMP JUMPDEST DUP1 PUSH4 0xCA15C67C EQ PUSH2 0x258 JUMPI DUP1 PUSH4 0xD4805F24 EQ PUSH2 0x282 JUMPI DUP1 PUSH4 0xD6DD04F7 EQ PUSH2 0x28C JUMPI DUP1 PUSH4 0xD9DE1C03 EQ PUSH2 0x2B6 JUMPI DUP1 PUSH4 0xDC26BF47 EQ PUSH2 0x2E0 JUMPI PUSH2 0x113 JUMP JUMPDEST DUP1 PUSH4 0x581A7310 GT PUSH2 0xE6 JUMPI DUP1 PUSH4 0x581A7310 EQ PUSH2 0x189 JUMPI DUP1 PUSH4 0x650D993B EQ PUSH2 0x19F JUMPI DUP1 PUSH4 0x6E04FF0D EQ PUSH2 0x1C9 JUMPI DUP1 PUSH4 0x8FC8E811 EQ PUSH2 0x206 JUMPI DUP1 PUSH4 0xA7A4FB99 EQ PUSH2 0x230 JUMPI PUSH2 0x113 JUMP JUMPDEST DUP1 PUSH4 0xF380A56 EQ PUSH2 0x117 JUMPI DUP1 PUSH4 0x1168C9A8 EQ PUSH2 0x121 JUMPI DUP1 PUSH4 0x37BEC583 EQ PUSH2 0x137 JUMPI DUP1 PUSH4 0x4585E33B EQ PUSH2 0x161 JUMPI JUMPDEST PUSH0 DUP1 REVERT JUMPDEST PUSH2 0x11F PUSH2 0x3DA JUMP JUMPDEST STOP JUMPDEST CALLVALUE DUP1 ISZERO PUSH2 0x12C JUMPI PUSH0 DUP1 REVERT JUMPDEST POP PUSH2 0x135 PUSH2 0x67D JUMP JUMPDEST STOP JUMPDEST CALLVALUE DUP1 ISZERO PUSH2 0x142 JUMPI PUSH0 DUP1 REVERT JUMPDEST POP PUSH2 0x14B PUSH2 0x7B9 JUMP JUMPDEST PUSH1 0x40 MLOAD PUSH2 0x158 SWAP2 SWAP1 PUSH2 0x1F53 JUMP JUMPDEST PUSH1 0x40 MLOAD DUP1 SWAP2 SUB SWAP1 RETURN JUMPDEST CALLVALUE DUP1 ISZERO PUSH2 0x16C JUMPI PUSH0 DUP1 REVERT JUMPDEST POP PUSH2 0x187 PUSH1 0x4 DUP1 CALLDATASIZE SUB DUP2 ADD SWAP1 PUSH2 0x182 SWAP2 SWAP1 PUSH2 0x1FDE JUMP JUMPDEST PUSH2 0x7CF JUMP JUMPDEST STOP JUMPDEST CALLVALUE DUP1 ISZERO PUSH2 0x194 JUMPI PUSH0 DUP1 REVERT JUMPDEST POP PUSH2 0x19D PUSH2 0xAD5 JUMP JUMPDEST STOP JUMPDEST CALLVALUE DUP1 ISZERO PUSH2 0x1AA JUMPI PUSH0 DUP1 REVERT JUMPDEST POP PUSH2 0x1B3 PUSH2 0xE76 JUMP JUMPDEST PUSH1 0x40 MLOAD PUSH2 0x1C0 SWAP2 SWAP1 PUSH2 0x2068 JUMP JUMPDEST PUSH1 0x40 MLOAD DUP1 SWAP2 SUB SWAP1 RETURN JUMPDEST CALLVALUE DUP1 ISZERO PUSH2 0x1D4 JUMPI PUSH0 DUP1 REVERT JUMPDEST POP PUSH2 0x1EF PUSH1 0x4 DUP1 CALLDATASIZE SUB DUP2 ADD SWAP1 PUSH2 0x1EA SWAP2 SWAP1 PUSH2 0x1FDE JUMP JUMPDEST PUSH2 0xE9D JUMP JUMPDEST PUSH1 0x40 MLOAD PUSH2 0x1FD SWAP3 SWAP2 SWAP1 PUSH2 0x210B JUMP JUMPDEST PUSH1 0x40 MLOAD DUP1 SWAP2 SUB SWAP1 RETURN JUMPDEST CALLVALUE DUP1 ISZERO PUSH2 0x211 JUMPI PUSH0 DUP1 REVERT JUMPDEST POP PUSH2 0x21A PUSH2 0xF49 JUMP JUMPDEST PUSH1 0x40 MLOAD PUSH2 0x227 SWAP2 SWAP1 PUSH2 0x2151 JUMP JUMPDEST PUSH1 0x40 MLOAD DUP1 SWAP2 SUB SWAP1 RETURN JUMPDEST CALLVALUE DUP1 ISZERO PUSH2 0x23B JUMPI PUSH0 DUP1 REVERT JUMPDEST POP PUSH2 0x256 PUSH1 0x4 DUP1 CALLDATASIZE SUB DUP2 ADD SWAP1 PUSH2 0x251 SWAP2 SWAP1 PUSH2 0x2194 JUMP JUMPDEST PUSH2 0xF52 JUMP JUMPDEST STOP JUMPDEST CALLVALUE DUP1 ISZERO PUSH2 0x263 JUMPI PUSH0 DUP1 REVERT JUMPDEST POP PUSH2 0x26C PUSH2 0x10FD JUMP JUMPDEST PUSH1 0x40 MLOAD PUSH2 0x279 SWAP2 SWAP1 PUSH2 0x221A JUMP JUMPDEST PUSH1 0x40 MLOAD DUP1 SWAP2 SUB SWAP1 RETURN JUMPDEST PUSH2 0x28A PUSH2 0x1126 JUMP JUMPDEST STOP JUMPDEST CALLVALUE DUP1 ISZERO PUSH2 0x297 JUMPI PUSH0 DUP1 REVERT JUMPDEST POP PUSH2 0x2A0 PUSH2 0x1333 JUMP JUMPDEST PUSH1 0x40 MLOAD PUSH2 0x2AD SWAP2 SWAP1 PUSH2 0x2151 JUMP JUMPDEST PUSH1 0x40 MLOAD DUP1 SWAP2 SUB SWAP1 RETURN JUMPDEST CALLVALUE DUP1 ISZERO PUSH2 0x2C1 JUMPI PUSH0 DUP1 REVERT JUMPDEST POP PUSH2 0x2CA PUSH2 0x135A JUMP JUMPDEST PUSH1 0x40 MLOAD PUSH2 0x2D7 SWAP2 SWAP1 PUSH2 0x231D JUMP JUMPDEST PUSH1 0x40 MLOAD DUP1 SWAP2 SUB SWAP1 RETURN JUMPDEST CALLVALUE DUP1 ISZERO PUSH2 0x2EB JUMPI PUSH0 DUP1 REVERT JUMPDEST POP PUSH2 0x2F4 PUSH2 0x14C6 JUMP JUMPDEST PUSH1 0x40 MLOAD PUSH2 0x301 SWAP2 SWAP1 PUSH2 0x235D JUMP JUMPDEST PUSH1 0x40 MLOAD DUP1 SWAP2 SUB SWAP1 RETURN JUMPDEST CALLVALUE DUP1 ISZERO PUSH2 0x315 JUMPI PUSH0 DUP1 REVERT JUMPDEST POP PUSH2 0x31E PUSH2 0x14ED JUMP JUMPDEST PUSH1 0x40 MLOAD PUSH2 0x32B SWAP2 SWAP1 PUSH2 0x1F53 JUMP JUMPDEST PUSH1 0x40 MLOAD DUP1 SWAP2 SUB SWAP1 RETURN JUMPDEST CALLVALUE DUP1 ISZERO PUSH2 0x33F JUMPI PUSH0 DUP1 REVERT JUMPDEST POP PUSH2 0x348 PUSH2 0x1504 JUMP JUMPDEST PUSH1 0x40 MLOAD PUSH2 0x355 SWAP2 SWAP1 PUSH2 0x2151 JUMP JUMPDEST PUSH1 0x40 MLOAD DUP1 SWAP2 SUB SWAP1 RETURN JUMPDEST CALLVALUE DUP1 ISZERO PUSH2 0x369 JUMPI PUSH0 DUP1 REVERT JUMPDEST POP PUSH2 0x372 PUSH2 0x150D JUMP JUMPDEST PUSH1 0x40 MLOAD PUSH2 0x37F SWAP2 SWAP1 PUSH2 0x2376 JUMP JUMPDEST PUSH1 0x40 MLOAD DUP1 SWAP2 SUB SWAP1 RETURN JUMPDEST CALLVALUE DUP1 ISZERO PUSH2 0x393 JUMPI PUSH0 DUP1 REVERT JUMPDEST POP PUSH2 0x39C PUSH2 0x1523 JUMP JUMPDEST PUSH1 0x40 MLOAD PUSH2 0x3A9 SWAP2 SWAP1 PUSH2 0x2151 JUMP JUMPDEST PUSH1 0x40 MLOAD DUP1 SWAP2 SUB SWAP1 RETURN JUMPDEST CALLVALUE DUP1 ISZERO PUSH2 0x3BD JUMPI PUSH0 DUP1 REVERT JUMPDEST POP PUSH2 0x3D8 PUSH1 0x4 DUP1 CALLDATASIZE SUB DUP2 ADD SWAP1 PUSH2 0x3D3 SWAP2 SWAP1 PUSH2 0x23C5 JUMP JUMPDEST PUSH2 0x152A JUMP JUMPDEST STOP JUMPDEST PUSH1 0x9 PUSH1 0x6 SWAP1 SLOAD SWAP1 PUSH2 0x100 EXP SWAP1 DIV PUSH1 0xFF AND ISZERO PUSH2 0x42A JUMPI PUSH1 0x40 MLOAD PUSH32 0x8C379A000000000000000000000000000000000000000000000000000000000 DUP2 MSTORE PUSH1 0x4 ADD PUSH2 0x421 SWAP1 PUSH2 0x24A9 JUMP JUMPDEST PUSH1 0x40 MLOAD DUP1 SWAP2 SUB SWAP1 REVERT JUMPDEST TIMESTAMP PUSH3 0x127500 PUSH32 0x0 PUSH2 0x45A SWAP2 SWAP1 PUSH2 0x24F4 JUMP JUMPDEST LT ISZERO PUSH2 0x49B JUMPI PUSH1 0x40 MLOAD PUSH32 0x8C379A000000000000000000000000000000000000000000000000000000000 DUP2 MSTORE PUSH1 0x4 ADD PUSH2 0x492 SWAP1 PUSH2 0x2597 JUMP JUMPDEST PUSH1 0x40 MLOAD DUP1 SWAP2 SUB SWAP1 REVERT JUMPDEST PUSH1 0x1 SLOAD PUSH32 0x0 PUSH2 0x4C9 SWAP2 SWAP1 PUSH2 0x24F4 JUMP JUMPDEST CALLVALUE LT ISZERO PUSH2 0x50B JUMPI PUSH1 0x40 MLOAD PUSH32 0x8C379A000000000000000000000000000000000000000000000000000000000 DUP2 MSTORE PUSH1 0x4 ADD PUSH2 0x502 SWAP1 PUSH2 0x2625 JUMP JUMPDEST PUSH1 0x40 MLOAD DUP1 SWAP2 SUB SWAP1 REVERT JUMPDEST PUSH1 0x9 PUSH1 0x7 SWAP1 SLOAD SWAP1 PUSH2 0x100 EXP SWAP1 DIV PUSH20 0xFFFFFFFFFFFFFFFFFFFFFFFFFFFFFFFFFFFFFFFF AND PUSH20 0xFFFFFFFFFFFFFFFFFFFFFFFFFFFFFFFFFFFFFFFF AND PUSH4 0x819B25BA PUSH1 0xF SLOAD PUSH1 0x40 MLOAD DUP3 PUSH4 0xFFFFFFFF AND PUSH1 0xE0 SHL DUP2 MSTORE PUSH1 0x4 ADD PUSH2 0x568 SWAP2 SWAP1 PUSH2 0x2151 JUMP JUMPDEST PUSH0 PUSH1 0x40 MLOAD DUP1 DUP4 SUB DUP2 PUSH0 DUP8 DUP1 EXTCODESIZE ISZERO DUP1 ISZERO PUSH2 0x57F JUMPI PUSH0 DUP1 REVERT JUMPDEST POP GAS CALL ISZERO DUP1 ISZERO PUSH2 0x591 JUMPI RETURNDATASIZE PUSH0 DUP1 RETURNDATACOPY RETURNDATASIZE PUSH0 REVERT JUMPDEST POP POP POP POP TIMESTAMP PUSH1 0x2 DUP2 SWAP1 SSTORE POP PUSH0 PUSH1 0x1 SLOAD PUSH32 0x0 PUSH2 0x5CB SWAP2 SWAP1 PUSH2 0x24F4 JUMP JUMPDEST CALLVALUE PUSH2 0x5D6 SWAP2 SWAP1 PUSH2 0x2643 JUMP JUMPDEST SWAP1 POP CALLER PUSH0 DUP1 PUSH2 0x100 EXP DUP2 SLOAD DUP2 PUSH20 0xFFFFFFFFFFFFFFFFFFFFFFFFFFFFFFFFFFFFFFFF MUL NOT AND SWAP1 DUP4 PUSH20 0xFFFFFFFFFFFFFFFFFFFFFFFFFFFFFFFFFFFFFFFF AND MUL OR SWAP1 SSTORE POP PUSH0 DUP1 SLOAD SWAP1 PUSH2 0x100 EXP SWAP1 DIV PUSH20 0xFFFFFFFFFFFFFFFFFFFFFFFFFFFFFFFFFFFFFFFF AND PUSH20 0xFFFFFFFFFFFFFFFFFFFFFFFFFFFFFFFFFFFFFFFF AND PUSH2 0x8FC DUP3 SWAP1 DUP2 ISZERO MUL SWAP1 PUSH1 0x40 MLOAD PUSH0 PUSH1 0x40 MLOAD DUP1 DUP4 SUB DUP2 DUP6 DUP9 DUP9 CALL SWAP4 POP POP POP POP ISZERO DUP1 ISZERO PUSH2 0x679 JUMPI RETURNDATASIZE PUSH0 DUP1 RETURNDATACOPY RETURNDATASIZE PUSH0 REVERT JUMPDEST POP POP JUMP JUMPDEST PUSH1 0x9 PUSH1 0x6 SWAP1 SLOAD SWAP1 PUSH2 0x100 EXP SWAP1 DIV PUSH1 0xFF AND ISZERO PUSH2 0x6CD JUMPI PUSH1 0x40 MLOAD PUSH32 0x8C379A000000000000000000000000000000000000000000000000000000000 DUP2 MSTORE PUSH1 0x4 ADD PUSH2 0x6C4 SWAP1 PUSH2 0x24A9 JUMP JUMPDEST PUSH1 0x40 MLOAD DUP1 SWAP2 SUB SWAP1 REVERT JUMPDEST PUSH0 PUSH1 0x9 PUSH0 SWAP1 SLOAD SWAP1 PUSH2 0x100 EXP SWAP1 DIV PUSH2 0xFFFF AND PUSH2 0xFFFF AND EQ PUSH2 0x722 JUMPI PUSH1 0x40 MLOAD PUSH32 0x8C379A000000000000000000000000000000000000000000000000000000000 DUP2 MSTORE PUSH1 0x4 ADD PUSH2 0x719 SWAP1 PUSH2 0x26E6 JUMP JUMPDEST PUSH1 0x40 MLOAD DUP1 SWAP2 SUB SWAP1 REVERT JUMPDEST PUSH0 DUP1 SLOAD SWAP1 PUSH2 0x100 EXP SWAP1 DIV PUSH20 0xFFFFFFFFFFFFFFFFFFFFFFFFFFFFFFFFFFFFFFFF AND PUSH20 0xFFFFFFFFFFFFFFFFFFFFFFFFFFFFFFFFFFFFFFFF AND CALLER PUSH20 0xFFFFFFFFFFFFFFFFFFFFFFFFFFFFFFFFFFFFFFFF AND EQ PUSH2 0x7AF JUMPI PUSH1 0x40 MLOAD PUSH32 0x8C379A000000000000000000000000000000000000000000000000000000000 DUP2 MSTORE PUSH1 0x4 ADD PUSH2 0x7A6 SWAP1 PUSH2 0x2774 JUMP JUMPDEST PUSH1 0x40 MLOAD DUP1 SWAP2 SUB SWAP1 REVERT JUMPDEST PUSH2 0x7B7 PUSH2 0x1A79 JUMP JUMPDEST JUMP JUMPDEST PUSH0 PUSH1 0x9 PUSH0 SWAP1 SLOAD SWAP1 PUSH2 0x100 EXP SWAP1 DIV PUSH2 0xFFFF AND SWAP1 POP SWAP1 JUMP JUMPDEST PUSH1 0x9 PUSH1 0x6 SWAP1 SLOAD SWAP1 PUSH2 0x100 EXP SWAP1 DIV PUSH1 0xFF AND ISZERO PUSH2 0x81F JUMPI PUSH1 0x40 MLOAD PUSH32 0x8C379A000000000000000000000000000000000000000000000000000000000 DUP2 MSTORE PUSH1 0x4 ADD PUSH2 0x816 SWAP1 PUSH2 0x24A9 JUMP JUMPDEST PUSH1 0x40 MLOAD DUP1 SWAP2 SUB SWAP1 REVERT JUMPDEST PUSH0 PUSH1 0x2 SLOAD EQ ISZERO DUP1 ISZERO PUSH2 0x83F JUMPI POP PUSH1 0x3 SLOAD PUSH1 0x2 SLOAD TIMESTAMP PUSH2 0x83D SWAP2 SWAP1 PUSH2 0x2643 JUMP JUMPDEST GT JUMPDEST ISZERO PUSH2 0x8E0 JUMPI PUSH0 DUP1 SLOAD SWAP1 PUSH2 0x100 EXP SWAP1 DIV PUSH20 0xFFFFFFFFFFFFFFFFFFFFFFFFFFFFFFFFFFFFFFFF AND PUSH20 0xFFFFFFFFFFFFFFFFFFFFFFFFFFFFFFFFFFFFFFFF AND PUSH2 0x8FC PUSH1 0x1 SLOAD PUSH32 0x0 PUSH2 0x8AB SWAP2 SWAP1 PUSH2 0x24F4 JUMP JUMPDEST SWAP1 DUP2 ISZERO MUL SWAP1 PUSH1 0x40 MLOAD PUSH0 PUSH1 0x40 MLOAD DUP1 DUP4 SUB DUP2 DUP6 DUP9 DUP9 CALL SWAP4 POP POP POP POP ISZERO DUP1 ISZERO PUSH2 0x8D3 JUMPI RETURNDATASIZE PUSH0 DUP1 RETURNDATACOPY RETURNDATASIZE PUSH0 REVERT JUMPDEST POP PUSH0 PUSH1 0x2 DUP2 SWAP1 SSTORE POP PUSH2 0xAD1 JUMP JUMPDEST PUSH0 PUSH1 0x9 PUSH0 SWAP1 SLOAD SWAP1 PUSH2 0x100 EXP SWAP1 DIV PUSH2 0xFFFF AND PUSH2 0xFFFF AND SUB PUSH2 0x907 JUMPI PUSH2 0x902 PUSH2 0x1A79 JUMP JUMPDEST PUSH2 0xAD0 JUMP JUMPDEST PUSH1 0x9 PUSH1 0x4 SWAP1 SLOAD SWAP1 PUSH2 0x100 EXP SWAP1 DIV PUSH1 0xFF AND DUP1 ISZERO PUSH2 0x925 JUMPI POP PUSH1 0x5 SLOAD TIMESTAMP LT ISZERO JUMPDEST DUP1 ISZERO PUSH2 0x93D JUMPI POP PUSH1 0x6 PUSH0 SWAP1 SLOAD SWAP1 PUSH2 0x100 EXP SWAP1 DIV PUSH1 0xFF AND ISZERO JUMPDEST ISZERO PUSH2 0x9D6 JUMPI PUSH1 0x9 PUSH1 0x5 SWAP1 SLOAD SWAP1 PUSH2 0x100 EXP SWAP1 DIV PUSH1 0xFF AND DUP1 PUSH2 0x962 JUMPI POP PUSH2 0x960 PUSH2 0x1CC4 JUMP JUMPDEST ISZERO JUMPDEST ISZERO PUSH2 0x974 JUMPI PUSH2 0x96F PUSH2 0x1A79 JUMP JUMPDEST PUSH2 0x9D1 JUMP JUMPDEST PUSH3 0xD2F00 PUSH1 0x5 PUSH0 DUP3 DUP3 SLOAD PUSH2 0x988 SWAP2 SWAP1 PUSH2 0x24F4 JUMP JUMPDEST SWAP3 POP POP DUP2 SWAP1 SSTORE POP PUSH1 0x1 PUSH1 0x9 PUSH1 0x5 PUSH2 0x100 EXP DUP2 SLOAD DUP2 PUSH1 0xFF MUL NOT AND SWAP1 DUP4 ISZERO ISZERO MUL OR SWAP1 SSTORE POP PUSH1 0xA PUSH1 0x1 SLOAD PUSH2 0x9B9 SWAP2 SWAP1 PUSH2 0x27BF JUMP JUMPDEST PUSH1 0x1 PUSH0 DUP3 DUP3 SLOAD PUSH2 0x9C9 SWAP2 SWAP1 PUSH2 0x24F4 JUMP JUMPDEST SWAP3 POP POP DUP2 SWAP1 SSTORE POP JUMPDEST PUSH2 0xACF JUMP JUMPDEST PUSH1 0x9 PUSH1 0x4 SWAP1 SLOAD SWAP1 PUSH2 0x100 EXP SWAP1 DIV PUSH1 0xFF AND DUP1 ISZERO PUSH2 0x9F4 JUMPI POP PUSH1 0x5 SLOAD TIMESTAMP LT ISZERO JUMPDEST DUP1 ISZERO PUSH2 0xA0B JUMPI POP PUSH1 0x6 PUSH0 SWAP1 SLOAD SWAP1 PUSH2 0x100 EXP SWAP1 DIV PUSH1 0xFF AND JUMPDEST ISZERO PUSH2 0xACE JUMPI PUSH1 0x9 PUSH1 0x5 SWAP1 SLOAD SWAP1 PUSH2 0x100 EXP SWAP1 DIV PUSH1 0xFF AND ISZERO PUSH2 0xA5F JUMPI PUSH3 0x1A5E00 PUSH1 0x5 PUSH0 DUP3 DUP3 SLOAD PUSH2 0xA39 SWAP2 SWAP1 PUSH2 0x24F4 JUMP JUMPDEST SWAP3 POP POP DUP2 SWAP1 SSTORE POP PUSH0 PUSH1 0x9 PUSH1 0x5 PUSH2 0x100 EXP DUP2 SLOAD DUP2 PUSH1 0xFF MUL NOT AND SWAP1 DUP4 ISZERO ISZERO MUL OR SWAP1 SSTORE POP PUSH2 0xA7B JUMP JUMPDEST PUSH3 0x278D00 PUSH1 0x5 PUSH0 DUP3 DUP3 SLOAD PUSH2 0xA73 SWAP2 SWAP1 PUSH2 0x24F4 JUMP JUMPDEST SWAP3 POP POP DUP2 SWAP1 SSTORE POP JUMPDEST PUSH1 0x1 PUSH1 0x9 PUSH0 DUP3 DUP3 DUP3 SWAP1 SLOAD SWAP1 PUSH2 0x100 EXP SWAP1 DIV PUSH2 0xFFFF AND PUSH2 0xA9A SWAP2 SWAP1 PUSH2 0x27EF JUMP JUMPDEST SWAP3 POP PUSH2 0x100 EXP DUP2 SLOAD DUP2 PUSH2 0xFFFF MUL NOT AND SWAP1 DUP4 PUSH2 0xFFFF AND MUL OR SWAP1 SSTORE POP PUSH0 PUSH1 0x6 PUSH0 PUSH2 0x100 EXP DUP2 SLOAD DUP2 PUSH1 0xFF MUL NOT AND SWAP1 DUP4 ISZERO ISZERO MUL OR SWAP1 SSTORE POP JUMPDEST JUMPDEST JUMPDEST JUMPDEST POP POP JUMP JUMPDEST PUSH1 0x9 PUSH1 0x6 SWAP1 SLOAD SWAP1 PUSH2 0x100 EXP SWAP1 DIV PUSH1 0xFF AND ISZERO PUSH2 0xB25 JUMPI PUSH1 0x40 MLOAD PUSH32 0x8C379A000000000000000000000000000000000000000000000000000000000 DUP2 MSTORE PUSH1 0x4 ADD PUSH2 0xB1C SWAP1 PUSH2 0x24A9 JUMP JUMPDEST PUSH1 0x40 MLOAD DUP1 SWAP2 SUB SWAP1 REVERT JUMPDEST PUSH32 0x0 PUSH20 0xFFFFFFFFFFFFFFFFFFFFFFFFFFFFFFFFFFFFFFFF AND CALLER PUSH20 0xFFFFFFFFFFFFFFFFFFFFFFFFFFFFFFFFFFFFFFFF AND EQ PUSH2 0xBB3 JUMPI PUSH1 0x40 MLOAD PUSH32 0x8C379A000000000000000000000000000000000000000000000000000000000 DUP2 MSTORE PUSH1 0x4 ADD PUSH2 0xBAA SWAP1 PUSH2 0x2894 JUMP JUMPDEST PUSH1 0x40 MLOAD DUP1 SWAP2 SUB SWAP1 REVERT JUMPDEST PUSH1 0x1 PUSH1 0x9 PUSH1 0x4 PUSH2 0x100 EXP DUP2 SLOAD DUP2 PUSH1 0xFF MUL NOT AND SWAP1 DUP4 ISZERO ISZERO MUL OR SWAP1 SSTORE POP PUSH32 0x0 PUSH20 0xFFFFFFFFFFFFFFFFFFFFFFFFFFFFFFFFFFFFFFFF AND PUSH2 0x8FC PUSH1 0x1 SLOAD SWAP1 DUP2 ISZERO MUL SWAP1 PUSH1 0x40 MLOAD PUSH0 PUSH1 0x40 MLOAD DUP1 DUP4 SUB DUP2 DUP6 DUP9 DUP9 CALL SWAP4 POP POP POP POP ISZERO DUP1 ISZERO PUSH2 0xC33 JUMPI RETURNDATASIZE PUSH0 DUP1 RETURNDATACOPY RETURNDATASIZE PUSH0 REVERT JUMPDEST POP TIMESTAMP PUSH1 0x4 DUP2 SWAP1 SSTORE POP PUSH3 0x28DE80 PUSH1 0x4 SLOAD PUSH2 0xC4C SWAP2 SWAP1 PUSH2 0x24F4 JUMP JUMPDEST PUSH1 0x5 DUP2 SWAP1 SSTORE POP PUSH0 PUSH1 0x6 PUSH0 PUSH2 0x100 EXP DUP2 SLOAD DUP2 PUSH1 0xFF MUL NOT AND SWAP1 DUP4 ISZERO ISZERO MUL OR SWAP1 SSTORE POP PUSH1 0x9 PUSH1 0x7 SWAP1 SLOAD SWAP1 PUSH2 0x100 EXP SWAP1 DIV PUSH20 0xFFFFFFFFFFFFFFFFFFFFFFFFFFFFFFFFFFFFFFFF AND PUSH20 0xFFFFFFFFFFFFFFFFFFFFFFFFFFFFFFFFFFFFFFFF AND PUSH4 0xC776194F ADDRESS PUSH20 0xFFFFFFFFFFFFFFFFFFFFFFFFFFFFFFFFFFFFFFFF AND PUSH4 0x650D993B PUSH1 0x40 MLOAD DUP2 PUSH4 0xFFFFFFFF AND PUSH1 0xE0 SHL DUP2 MSTORE PUSH1 0x4 ADD PUSH1 0x20 PUSH1 0x40 MLOAD DUP1 DUP4 SUB DUP2 DUP7 GAS STATICCALL ISZERO DUP1 ISZERO PUSH2 0xCF2 JUMPI RETURNDATASIZE PUSH0 DUP1 RETURNDATACOPY RETURNDATASIZE PUSH0 REVERT JUMPDEST POP POP POP POP PUSH1 0x40 MLOAD RETURNDATASIZE PUSH1 0x1F NOT PUSH1 0x1F DUP3 ADD AND DUP3 ADD DUP1 PUSH1 0x40 MSTORE POP DUP2 ADD SWAP1 PUSH2 0xD16 SWAP2 SWAP1 PUSH2 0x28DC JUMP JUMPDEST ADDRESS PUSH20 0xFFFFFFFFFFFFFFFFFFFFFFFFFFFFFFFFFFFFFFFF AND PUSH4 0xDC26BF47 PUSH1 0x40 MLOAD DUP2 PUSH4 0xFFFFFFFF AND PUSH1 0xE0 SHL DUP2 MSTORE PUSH1 0x4 ADD PUSH1 0x20 PUSH1 0x40 MLOAD DUP1 DUP4 SUB DUP2 DUP7 GAS STATICCALL ISZERO DUP1 ISZERO PUSH2 0xD5F JUMPI RETURNDATASIZE PUSH0 DUP1 RETURNDATACOPY RETURNDATASIZE PUSH0 REVERT JUMPDEST POP POP POP POP PUSH1 0x40 MLOAD RETURNDATASIZE PUSH1 0x1F NOT PUSH1 0x1F DUP3 ADD AND DUP3 ADD DUP1 PUSH1 0x40 MSTORE POP DUP2 ADD SWAP1 PUSH2 0xD83 SWAP2 SWAP1 PUSH2 0x2931 JUMP JUMPDEST ADDRESS PUSH20 0xFFFFFFFFFFFFFFFFFFFFFFFFFFFFFFFFFFFFFFFF AND PUSH4 0x8FC8E811 PUSH1 0x40 MLOAD DUP2 PUSH4 0xFFFFFFFF AND PUSH1 0xE0 SHL DUP2 MSTORE PUSH1 0x4 ADD PUSH1 0x20 PUSH1 0x40 MLOAD DUP1 DUP4 SUB DUP2 DUP7 GAS STATICCALL ISZERO DUP1 ISZERO PUSH2 0xDCC JUMPI RETURNDATASIZE PUSH0 DUP1 RETURNDATACOPY RETURNDATASIZE PUSH0 REVERT JUMPDEST POP POP POP POP PUSH1 0x40 MLOAD RETURNDATASIZE PUSH1 0x1F NOT PUSH1 0x1F DUP3 ADD AND DUP3 ADD DUP1 PUSH1 0x40 MSTORE POP DUP2 ADD SWAP1 PUSH2 0xDF0 SWAP2 SWAP1 PUSH2 0x2970 JUMP JUMPDEST PUSH1 0x40 MLOAD DUP5 PUSH4 0xFFFFFFFF AND PUSH1 0xE0 SHL DUP2 MSTORE PUSH1 0x4 ADD PUSH2 0xE0E SWAP4 SWAP3 SWAP2 SWAP1 PUSH2 0x29BB JUMP JUMPDEST PUSH0 PUSH1 0x40 MLOAD DUP1 DUP4 SUB DUP2 PUSH0 DUP8 DUP1 EXTCODESIZE ISZERO DUP1 ISZERO PUSH2 0xE25 JUMPI PUSH0 DUP1 REVERT JUMPDEST POP GAS CALL ISZERO DUP1 ISZERO PUSH2 0xE37 JUMPI RETURNDATASIZE PUSH0 DUP1 RETURNDATACOPY RETURNDATASIZE PUSH0 REVERT JUMPDEST POP POP POP POP PUSH1 0x1 PUSH1 0x9 PUSH0 DUP3 DUP3 DUP3 SWAP1 SLOAD SWAP1 PUSH2 0x100 EXP SWAP1 DIV PUSH2 0xFFFF AND PUSH2 0xE5A SWAP2 SWAP1 PUSH2 0x27EF JUMP JUMPDEST SWAP3 POP PUSH2 0x100 EXP DUP2 SLOAD DUP2 PUSH2 0xFFFF MUL NOT AND SWAP1 DUP4 PUSH2 0xFFFF AND MUL OR SWAP1 SSTORE POP JUMP JUMPDEST PUSH0 DUP1 PUSH0 SWAP1 SLOAD SWAP1 PUSH2 0x100 EXP SWAP1 DIV PUSH20 0xFFFFFFFFFFFFFFFFFFFFFFFFFFFFFFFFFFFFFFFF AND SWAP1 POP SWAP1 JUMP JUMPDEST PUSH0 PUSH1 0x60 PUSH1 0x9 PUSH1 0x6 SWAP1 SLOAD SWAP1 PUSH2 0x100 EXP SWAP1 DIV PUSH1 0xFF AND ISZERO PUSH2 0xEF0 JUMPI PUSH1 0x40 MLOAD PUSH32 0x8C379A000000000000000000000000000000000000000000000000000000000 DUP2 MSTORE PUSH1 0x4 ADD PUSH2 0xEE7 SWAP1 PUSH2 0x24A9 JUMP JUMPDEST PUSH1 0x40 MLOAD DUP1 SWAP2 SUB SWAP1 REVERT JUMPDEST PUSH0 PUSH1 0x2 SLOAD EQ ISZERO DUP1 ISZERO PUSH2 0xF10 JUMPI POP PUSH1 0x3 SLOAD PUSH1 0x2 SLOAD TIMESTAMP PUSH2 0xF0E SWAP2 SWAP1 PUSH2 0x2643 JUMP JUMPDEST GT JUMPDEST ISZERO PUSH2 0xF1A JUMPI PUSH1 0x1 SWAP2 POP JUMPDEST PUSH1 0x9 PUSH1 0x4 SWAP1 SLOAD SWAP1 PUSH2 0x100 EXP SWAP1 DIV PUSH1 0xFF AND DUP1 ISZERO PUSH2 0xF38 JUMPI POP PUSH1 0x5 SLOAD TIMESTAMP LT ISZERO JUMPDEST ISZERO PUSH2 0xF42 JUMPI PUSH1 0x1 SWAP2 POP JUMPDEST SWAP3 POP SWAP3 SWAP1 POP JUMP JUMPDEST PUSH0 PUSH1 0xF SLOAD SWAP1 POP SWAP1 JUMP JUMPDEST PUSH1 0x9 PUSH1 0x6 SWAP1 SLOAD SWAP1 PUSH2 0x100 EXP SWAP1 DIV PUSH1 0xFF AND ISZERO PUSH2 0xFA2 JUMPI PUSH1 0x40 MLOAD PUSH32 0x8C379A000000000000000000000000000000000000000000000000000000000 DUP2 MSTORE PUSH1 0x4 ADD PUSH2 0xF99 SWAP1 PUSH2 0x24A9 JUMP JUMPDEST PUSH1 0x40 MLOAD DUP1 SWAP2 SUB SWAP1 REVERT JUMPDEST PUSH0 DUP1 SLOAD SWAP1 PUSH2 0x100 EXP SWAP1 DIV PUSH20 0xFFFFFFFFFFFFFFFFFFFFFFFFFFFFFFFFFFFFFFFF AND PUSH20 0xFFFFFFFFFFFFFFFFFFFFFFFFFFFFFFFFFFFFFFFF AND CALLER PUSH20 0xFFFFFFFFFFFFFFFFFFFFFFFFFFFFFFFFFFFFFFFF AND EQ PUSH2 0x102F JUMPI PUSH1 0x40 MLOAD PUSH32 0x8C379A000000000000000000000000000000000000000000000000000000000 DUP2 MSTORE PUSH1 0x4 ADD PUSH2 0x1026 SWAP1 PUSH2 0x2A60 JUMP JUMPDEST PUSH1 0x40 MLOAD DUP1 SWAP2 SUB SWAP1 REVERT JUMPDEST PUSH1 0x9 PUSH1 0x7 SWAP1 SLOAD SWAP1 PUSH2 0x100 EXP SWAP1 DIV PUSH20 0xFFFFFFFFFFFFFFFFFFFFFFFFFFFFFFFFFFFFFFFF AND PUSH20 0xFFFFFFFFFFFFFFFFFFFFFFFFFFFFFFFFFFFFFFFF AND PUSH4 0x42842E0E PUSH32 0x0 PUSH0 DUP1 SLOAD SWAP1 PUSH2 0x100 EXP SWAP1 DIV PUSH20 0xFFFFFFFFFFFFFFFFFFFFFFFFFFFFFFFFFFFFFFFF AND DUP5 PUSH1 0x40 MLOAD DUP5 PUSH4 0xFFFFFFFF AND PUSH1 0xE0 SHL DUP2 MSTORE PUSH1 0x4 ADD PUSH2 0x10CD SWAP4 SWAP3 SWAP2 SWAP1 PUSH2 0x2A7E JUMP JUMPDEST PUSH0 PUSH1 0x40 MLOAD DUP1 DUP4 SUB DUP2 PUSH0 DUP8 DUP1 EXTCODESIZE ISZERO DUP1 ISZERO PUSH2 0x10E4 JUMPI PUSH0 DUP1 REVERT JUMPDEST POP GAS CALL ISZERO DUP1 ISZERO PUSH2 0x10F6 JUMPI RETURNDATASIZE PUSH0 DUP1 RETURNDATACOPY RETURNDATASIZE PUSH0 REVERT JUMPDEST POP POP POP POP POP JUMP JUMPDEST PUSH0 PUSH1 0x9 PUSH1 0x7 SWAP1 SLOAD SWAP1 PUSH2 0x100 EXP SWAP1 DIV PUSH20 0xFFFFFFFFFFFFFFFFFFFFFFFFFFFFFFFFFFFFFFFF AND SWAP1 POP SWAP1 JUMP JUMPDEST PUSH1 0x9 PUSH1 0x6 SWAP1 SLOAD SWAP1 PUSH2 0x100 EXP SWAP1 DIV PUSH1 0xFF AND ISZERO PUSH2 0x1176 JUMPI PUSH1 0x40 MLOAD PUSH32 0x8C379A000000000000000000000000000000000000000000000000000000000 DUP2 MSTORE PUSH1 0x4 ADD PUSH2 0x116D SWAP1 PUSH2 0x24A9 JUMP JUMPDEST PUSH1 0x40 MLOAD DUP1 SWAP2 SUB SWAP1 REVERT JUMPDEST PUSH0 DUP1 SLOAD SWAP1 PUSH2 0x100 EXP SWAP1 DIV PUSH20 0xFFFFFFFFFFFFFFFFFFFFFFFFFFFFFFFFFFFFFFFF AND PUSH20 0xFFFFFFFFFFFFFFFFFFFFFFFFFFFFFFFFFFFFFFFF AND CALLER PUSH20 0xFFFFFFFFFFFFFFFFFFFFFFFFFFFFFFFFFFFFFFFF AND EQ PUSH2 0x1203 JUMPI PUSH1 0x40 MLOAD PUSH32 0x8C379A000000000000000000000000000000000000000000000000000000000 DUP2 MSTORE PUSH1 0x4 ADD PUSH2 0x11FA SWAP1 PUSH2 0x2B23 JUMP JUMPDEST PUSH1 0x40 MLOAD DUP1 SWAP2 SUB SWAP1 REVERT JUMPDEST PUSH1 0x1 SLOAD CALLVALUE LT ISZERO PUSH2 0x1248 JUMPI PUSH1 0x40 MLOAD PUSH32 0x8C379A000000000000000000000000000000000000000000000000000000000 DUP2 MSTORE PUSH1 0x4 ADD PUSH2 0x123F SWAP1 PUSH2 0x2BB1 JUMP JUMPDEST PUSH1 0x40 MLOAD DUP1 SWAP2 SUB SWAP1 REVERT JUMPDEST PUSH1 0x6 PUSH0 SWAP1 SLOAD SWAP1 PUSH2 0x100 EXP SWAP1 DIV PUSH1 0xFF AND ISZERO PUSH2 0x1297 JUMPI PUSH1 0x40 MLOAD PUSH32 0x8C379A000000000000000000000000000000000000000000000000000000000 DUP2 MSTORE PUSH1 0x4 ADD PUSH2 0x128E SWAP1 PUSH2 0x2C3F JUMP JUMPDEST PUSH1 0x40 MLOAD DUP1 SWAP2 SUB SWAP1 REVERT JUMPDEST PUSH0 PUSH1 0x1 SLOAD CALLVALUE PUSH2 0x12A6 SWAP2 SWAP1 PUSH2 0x2643 JUMP JUMPDEST SWAP1 POP PUSH1 0x1 SLOAD CALLVALUE GT ISZERO PUSH2 0x1316 JUMPI PUSH0 DUP1 SLOAD SWAP1 PUSH2 0x100 EXP SWAP1 DIV PUSH20 0xFFFFFFFFFFFFFFFFFFFFFFFFFFFFFFFFFFFFFFFF AND PUSH20 0xFFFFFFFFFFFFFFFFFFFFFFFFFFFFFFFFFFFFFFFF AND PUSH2 0x8FC DUP3 SWAP1 DUP2 ISZERO MUL SWAP1 PUSH1 0x40 MLOAD PUSH0 PUSH1 0x40 MLOAD DUP1 DUP4 SUB DUP2 DUP6 DUP9 DUP9 CALL SWAP4 POP POP POP POP ISZERO DUP1 ISZERO PUSH2 0x1314 JUMPI RETURNDATASIZE PUSH0 DUP1 RETURNDATACOPY RETURNDATASIZE PUSH0 REVERT JUMPDEST POP JUMPDEST PUSH1 0x1 PUSH1 0x6 PUSH0 PUSH2 0x100 EXP DUP2 SLOAD DUP2 PUSH1 0xFF MUL NOT AND SWAP1 DUP4 ISZERO ISZERO MUL OR SWAP1 SSTORE POP POP JUMP JUMPDEST PUSH0 PUSH32 0x0 SWAP1 POP SWAP1 JUMP JUMPDEST PUSH2 0x1362 PUSH2 0x1F07 JUMP JUMPDEST PUSH1 0xA PUSH1 0x40 MLOAD DUP1 PUSH1 0xA0 ADD PUSH1 0x40 MSTORE SWAP1 DUP2 PUSH0 DUP3 ADD DUP1 SLOAD PUSH2 0x137E SWAP1 PUSH2 0x2C8A JUMP JUMPDEST DUP1 PUSH1 0x1F ADD PUSH1 0x20 DUP1 SWAP2 DIV MUL PUSH1 0x20 ADD PUSH1 0x40 MLOAD SWAP1 DUP2 ADD PUSH1 0x40 MSTORE DUP1 SWAP3 SWAP2 SWAP1 DUP2 DUP2 MSTORE PUSH1 0x20 ADD DUP3 DUP1 SLOAD PUSH2 0x13AA SWAP1 PUSH2 0x2C8A JUMP JUMPDEST DUP1 ISZERO PUSH2 0x13F5 JUMPI DUP1 PUSH1 0x1F LT PUSH2 0x13CC JUMPI PUSH2 0x100 DUP1 DUP4 SLOAD DIV MUL DUP4 MSTORE SWAP2 PUSH1 0x20 ADD SWAP2 PUSH2 0x13F5 JUMP JUMPDEST DUP3 ADD SWAP2 SWAP1 PUSH0 MSTORE PUSH1 0x20 PUSH0 KECCAK256 SWAP1 JUMPDEST DUP2 SLOAD DUP2 MSTORE SWAP1 PUSH1 0x1 ADD SWAP1 PUSH1 0x20 ADD DUP1 DUP4 GT PUSH2 0x13D8 JUMPI DUP3 SWAP1 SUB PUSH1 0x1F AND DUP3 ADD SWAP2 JUMPDEST POP POP POP POP POP DUP2 MSTORE PUSH1 0x20 ADD PUSH1 0x1 DUP3 ADD DUP1 SLOAD PUSH2 0x140E SWAP1 PUSH2 0x2C8A JUMP JUMPDEST DUP1 PUSH1 0x1F ADD PUSH1 0x20 DUP1 SWAP2 DIV MUL PUSH1 0x20 ADD PUSH1 0x40 MLOAD SWAP1 DUP2 ADD PUSH1 0x40 MSTORE DUP1 SWAP3 SWAP2 SWAP1 DUP2 DUP2 MSTORE PUSH1 0x20 ADD DUP3 DUP1 SLOAD PUSH2 0x143A SWAP1 PUSH2 0x2C8A JUMP JUMPDEST DUP1 ISZERO PUSH2 0x1485 JUMPI DUP1 PUSH1 0x1F LT PUSH2 0x145C JUMPI PUSH2 0x100 DUP1 DUP4 SLOAD DIV MUL DUP4 MSTORE SWAP2 PUSH1 0x20 ADD SWAP2 PUSH2 0x1485 JUMP JUMPDEST DUP3 ADD SWAP2 SWAP1 PUSH0 MSTORE PUSH1 0x20 PUSH0 KECCAK256 SWAP1 JUMPDEST DUP2 SLOAD DUP2 MSTORE SWAP1 PUSH1 0x1 ADD SWAP1 PUSH1 0x20 ADD DUP1 DUP4 GT PUSH2 0x1468 JUMPI DUP3 SWAP1 SUB PUSH1 0x1F AND DUP3 ADD SWAP2 JUMPDEST POP POP POP POP POP DUP2 MSTORE PUSH1 0x20 ADD PUSH1 0x2 DUP3 ADD PUSH0 SWAP1 SLOAD SWAP1 PUSH2 0x100 EXP SWAP1 DIV PUSH2 0xFFFF AND PUSH2 0xFFFF AND PUSH2 0xFFFF AND DUP2 MSTORE PUSH1 0x20 ADD PUSH1 0x3 DUP3 ADD SLOAD DUP2 MSTORE PUSH1 0x20 ADD PUSH1 0x4 DUP3 ADD SLOAD DUP2 MSTORE POP POP SWAP1 POP SWAP1 JUMP JUMPDEST PUSH0 PUSH32 0x0 SWAP1 POP SWAP1 JUMP JUMPDEST PUSH0 PUSH1 0x9 PUSH1 0x2 SWAP1 SLOAD SWAP1 PUSH2 0x100 EXP SWAP1 DIV PUSH2 0xFFFF AND SWAP1 POP SWAP1 JUMP JUMPDEST PUSH0 PUSH1 0x1 SLOAD SWAP1 POP SWAP1 JUMP JUMPDEST PUSH0 PUSH1 0x9 PUSH1 0x4 SWAP1 SLOAD SWAP1 PUSH2 0x100 EXP SWAP1 DIV PUSH1 0xFF AND SWAP1 POP SWAP1 JUMP JUMPDEST PUSH0 SELFBALANCE SWAP1 POP SWAP1 JUMP JUMPDEST PUSH1 0x9 PUSH1 0x6 SWAP1 SLOAD SWAP1 PUSH2 0x100 EXP SWAP1 DIV PUSH1 0xFF AND ISZERO PUSH2 0x157A JUMPI PUSH1 0x40 MLOAD PUSH32 0x8C379A000000000000000000000000000000000000000000000000000000000 DUP2 MSTORE PUSH1 0x4 ADD PUSH2 0x1571 SWAP1 PUSH2 0x24A9 JUMP JUMPDEST PUSH1 0x40 MLOAD DUP1 SWAP2 SUB SWAP1 REVERT JUMPDEST PUSH0 DUP1 SLOAD SWAP1 PUSH2 0x100 EXP SWAP1 DIV PUSH20 0xFFFFFFFFFFFFFFFFFFFFFFFFFFFFFFFFFFFFFFFF AND PUSH20 0xFFFFFFFFFFFFFFFFFFFFFFFFFFFFFFFFFFFFFFFF AND CALLER PUSH20 0xFFFFFFFFFFFFFFFFFFFFFFFFFFFFFFFFFFFFFFFF AND EQ PUSH2 0x1607 JUMPI PUSH1 0x40 MLOAD PUSH32 0x8C379A000000000000000000000000000000000000000000000000000000000 DUP2 MSTORE PUSH1 0x4 ADD PUSH2 0x15FE SWAP1 PUSH2 0x2774 JUMP JUMPDEST PUSH1 0x40 MLOAD DUP1 SWAP2 SUB SWAP1 REVERT JUMPDEST PUSH0 PUSH1 0x9 PUSH0 SWAP1 SLOAD SWAP1 PUSH2 0x100 EXP SWAP1 DIV PUSH2 0xFFFF AND PUSH2 0xFFFF AND EQ PUSH2 0x165C JUMPI PUSH1 0x40 MLOAD PUSH32 0x8C379A000000000000000000000000000000000000000000000000000000000 DUP2 MSTORE PUSH1 0x4 ADD PUSH2 0x1653 SWAP1 PUSH2 0x26E6 JUMP JUMPDEST PUSH1 0x40 MLOAD DUP1 SWAP2 SUB SWAP1 REVERT JUMPDEST PUSH0 PUSH1 0x9 PUSH1 0x7 SWAP1 SLOAD SWAP1 PUSH2 0x100 EXP SWAP1 DIV PUSH20 0xFFFFFFFFFFFFFFFFFFFFFFFFFFFFFFFFFFFFFFFF AND PUSH20 0xFFFFFFFFFFFFFFFFFFFFFFFFFFFFFFFFFFFFFFFF AND PUSH4 0xEF555BC1 ADDRESS PUSH20 0xFFFFFFFFFFFFFFFFFFFFFFFFFFFFFFFFFFFFFFFF AND PUSH4 0x8FC8E811 PUSH1 0x40 MLOAD DUP2 PUSH4 0xFFFFFFFF AND PUSH1 0xE0 SHL DUP2 MSTORE PUSH1 0x4 ADD PUSH1 0x20 PUSH1 0x40 MLOAD DUP1 DUP4 SUB DUP2 DUP7 GAS STATICCALL ISZERO DUP1 ISZERO PUSH2 0x16E4 JUMPI RETURNDATASIZE PUSH0 DUP1 RETURNDATACOPY RETURNDATASIZE PUSH0 REVERT JUMPDEST POP POP POP POP PUSH1 0x40 MLOAD RETURNDATASIZE PUSH1 0x1F NOT PUSH1 0x1F DUP3 ADD AND DUP3 ADD DUP1 PUSH1 0x40 MSTORE POP DUP2 ADD SWAP1 PUSH2 0x1708 SWAP2 SWAP1 PUSH2 0x2970 JUMP JUMPDEST PUSH1 0x40 MLOAD DUP3 PUSH4 0xFFFFFFFF AND PUSH1 0xE0 SHL DUP2 MSTORE PUSH1 0x4 ADD PUSH2 0x1724 SWAP2 SWAP1 PUSH2 0x2151 JUMP JUMPDEST PUSH0 PUSH1 0x40 MLOAD DUP1 DUP4 SUB DUP2 DUP7 GAS STATICCALL ISZERO DUP1 ISZERO PUSH2 0x173E JUMPI RETURNDATASIZE PUSH0 DUP1 RETURNDATACOPY RETURNDATASIZE PUSH0 REVERT JUMPDEST POP POP POP POP PUSH1 0x40 MLOAD RETURNDATASIZE PUSH0 DUP3 RETURNDATACOPY RETURNDATASIZE PUSH1 0x1F NOT PUSH1 0x1F DUP3 ADD AND DUP3 ADD DUP1 PUSH1 0x40 MSTORE POP DUP2 ADD SWAP1 PUSH2 0x1766 SWAP2 SWAP1 PUSH2 0x2EC7 JUMP JUMPDEST SWAP1 POP DUP1 PUSH1 0x80 ADD MLOAD DUP4 LT ISZERO PUSH2 0x17AF JUMPI PUSH1 0x40 MLOAD PUSH32 0x8C379A000000000000000000000000000000000000000000000000000000000 DUP2 MSTORE PUSH1 0x4 ADD PUSH2 0x17A6 SWAP1 PUSH2 0x2FA4 JUMP JUMPDEST PUSH1 0x40 MLOAD DUP1 SWAP2 SUB SWAP1 REVERT JUMPDEST PUSH1 0x9 PUSH1 0x7 SWAP1 SLOAD SWAP1 PUSH2 0x100 EXP SWAP1 DIV PUSH20 0xFFFFFFFFFFFFFFFFFFFFFFFFFFFFFFFFFFFFFFFF AND PUSH20 0xFFFFFFFFFFFFFFFFFFFFFFFFFFFFFFFFFFFFFFFF AND PUSH4 0xE77E89F3 PUSH1 0xF SLOAD DUP6 PUSH1 0x40 MLOAD DUP4 PUSH4 0xFFFFFFFF AND PUSH1 0xE0 SHL DUP2 MSTORE PUSH1 0x4 ADD PUSH2 0x180E SWAP3 SWAP2 SWAP1 PUSH2 0x2FC2 JUMP JUMPDEST PUSH1 0x20 PUSH1 0x40 MLOAD DUP1 DUP4 SUB DUP2 PUSH0 DUP8 GAS CALL ISZERO DUP1 ISZERO PUSH2 0x182A JUMPI RETURNDATASIZE PUSH0 DUP1 RETURNDATACOPY RETURNDATASIZE PUSH0 REVERT JUMPDEST POP POP POP POP PUSH1 0x40 MLOAD RETURNDATASIZE PUSH1 0x1F NOT PUSH1 0x1F DUP3 ADD AND DUP3 ADD DUP1 PUSH1 0x40 MSTORE POP DUP2 ADD SWAP1 PUSH2 0x184E SWAP2 SWAP1 PUSH2 0x2970 JUMP JUMPDEST POP PUSH2 0x18BD DUP6 PUSH1 0x7 PUSH1 0x4 DUP1 PUSH1 0x20 MUL PUSH1 0x40 MLOAD SWAP1 DUP2 ADD PUSH1 0x40 MSTORE DUP1 SWAP3 SWAP2 SWAP1 DUP3 PUSH1 0x4 DUP1 ISZERO PUSH2 0x18B3 JUMPI PUSH1 0x20 MUL DUP3 ADD SWAP2 PUSH0 SWAP1 JUMPDEST DUP3 DUP3 SWAP1 SLOAD SWAP1 PUSH2 0x100 EXP SWAP1 DIV PUSH2 0xFFFF AND PUSH2 0xFFFF AND DUP2 MSTORE PUSH1 0x20 ADD SWAP1 PUSH1 0x2 ADD SWAP1 PUSH1 0x20 DUP3 PUSH1 0x1 ADD DIV SWAP3 DUP4 ADD SWAP3 PUSH1 0x1 SUB DUP3 MUL SWAP2 POP DUP1 DUP5 GT PUSH2 0x187A JUMPI SWAP1 POP JUMPDEST POP POP POP POP POP PUSH2 0x1D75 JUMP JUMPDEST PUSH1 0x9 PUSH0 PUSH2 0x100 EXP DUP2 SLOAD DUP2 PUSH2 0xFFFF MUL NOT AND SWAP1 DUP4 PUSH2 0xFFFF AND MUL OR SWAP1 SSTORE POP PUSH2 0x1945 DUP5 PUSH1 0x8 DUP1 DUP1 PUSH1 0x20 MUL PUSH1 0x40 MLOAD SWAP1 DUP2 ADD PUSH1 0x40 MSTORE DUP1 SWAP3 SWAP2 SWAP1 DUP3 PUSH1 0x8 DUP1 ISZERO PUSH2 0x193B JUMPI PUSH1 0x20 MUL DUP3 ADD SWAP2 PUSH0 SWAP1 JUMPDEST DUP3 DUP3 SWAP1 SLOAD SWAP1 PUSH2 0x100 EXP SWAP1 DIV PUSH2 0xFFFF AND PUSH2 0xFFFF AND DUP2 MSTORE PUSH1 0x20 ADD SWAP1 PUSH1 0x2 ADD SWAP1 PUSH1 0x20 DUP3 PUSH1 0x1 ADD DIV SWAP3 DUP4 ADD SWAP3 PUSH1 0x1 SUB DUP3 MUL SWAP2 POP DUP1 DUP5 GT PUSH2 0x1902 JUMPI SWAP1 POP JUMPDEST POP POP POP POP POP PUSH2 0x1E3E JUMP JUMPDEST PUSH1 0x9 PUSH1 0x2 PUSH2 0x100 EXP DUP2 SLOAD DUP2 PUSH2 0xFFFF MUL NOT AND SWAP1 DUP4 PUSH2 0xFFFF AND MUL OR SWAP1 SSTORE POP PUSH1 0x9 PUSH1 0x7 SWAP1 SLOAD SWAP1 PUSH2 0x100 EXP SWAP1 DIV PUSH20 0xFFFFFFFFFFFFFFFFFFFFFFFFFFFFFFFFFFFFFFFF AND PUSH20 0xFFFFFFFFFFFFFFFFFFFFFFFFFFFFFFFFFFFFFFFF AND PUSH4 0xD57FA07D DUP3 PUSH1 0x60 ADD MLOAD DUP6 DUP6 PUSH1 0x9 PUSH1 0x2 SWAP1 SLOAD SWAP1 PUSH2 0x100 EXP SWAP1 DIV PUSH2 0xFFFF AND PUSH1 0x9 PUSH0 SWAP1 SLOAD SWAP1 PUSH2 0x100 EXP SWAP1 DIV PUSH2 0xFFFF AND PUSH1 0x40 MLOAD DUP7 PUSH4 0xFFFFFFFF AND PUSH1 0xE0 SHL DUP2 MSTORE PUSH1 0x4 ADD PUSH2 0x19E7 SWAP6 SWAP5 SWAP4 SWAP3 SWAP2 SWAP1 PUSH2 0x3028 JUMP JUMPDEST PUSH1 0x20 PUSH1 0x40 MLOAD DUP1 DUP4 SUB DUP2 DUP7 GAS STATICCALL ISZERO DUP1 ISZERO PUSH2 0x1A02 JUMPI RETURNDATASIZE PUSH0 DUP1 RETURNDATACOPY RETURNDATASIZE PUSH0 REVERT JUMPDEST POP POP POP POP PUSH1 0x40 MLOAD RETURNDATASIZE PUSH1 0x1F NOT PUSH1 0x1F DUP3 ADD AND DUP3 ADD DUP1 PUSH1 0x40 MSTORE POP DUP2 ADD SWAP1 PUSH2 0x1A26 SWAP2 SWAP1 PUSH2 0x30BE JUMP JUMPDEST PUSH16 0xFFFFFFFFFFFFFFFFFFFFFFFFFFFFFFFF AND PUSH1 0x1 DUP2 SWAP1 SSTORE POP PUSH0 PUSH1 0x9 PUSH1 0x5 PUSH2 0x100 EXP DUP2 SLOAD DUP2 PUSH1 0xFF MUL NOT AND SWAP1 DUP4 ISZERO ISZERO MUL OR SWAP1 SSTORE POP PUSH0 PUSH1 0x9 PUSH1 0x6 PUSH2 0x100 EXP DUP2 SLOAD DUP2 PUSH1 0xFF MUL NOT AND SWAP1 DUP4 ISZERO ISZERO MUL OR SWAP1 SSTORE POP POP POP POP POP POP JUMP JUMPDEST PUSH1 0x9 PUSH1 0x6 SWAP1 SLOAD SWAP1 PUSH2 0x100 EXP SWAP1 DIV PUSH1 0xFF AND ISZERO PUSH2 0x1AC9 JUMPI PUSH1 0x40 MLOAD PUSH32 0x8C379A000000000000000000000000000000000000000000000000000000000 DUP2 MSTORE PUSH1 0x4 ADD PUSH2 0x1AC0 SWAP1 PUSH2 0x24A9 JUMP JUMPDEST PUSH1 0x40 MLOAD DUP1 SWAP2 SUB SWAP1 REVERT JUMPDEST PUSH32 0x0 PUSH20 0xFFFFFFFFFFFFFFFFFFFFFFFFFFFFFFFFFFFFFFFF AND PUSH2 0x8FC PUSH32 0x0 SWAP1 DUP2 ISZERO MUL SWAP1 PUSH1 0x40 MLOAD PUSH0 PUSH1 0x40 MLOAD DUP1 DUP4 SUB DUP2 DUP6 DUP9 DUP9 CALL SWAP4 POP POP POP POP ISZERO DUP1 ISZERO PUSH2 0x1B4C JUMPI RETURNDATASIZE PUSH0 DUP1 RETURNDATACOPY RETURNDATASIZE PUSH0 REVERT JUMPDEST POP PUSH32 0x0 PUSH20 0xFFFFFFFFFFFFFFFFFFFFFFFFFFFFFFFFFFFFFFFF AND PUSH2 0x8FC ADDRESS PUSH20 0xFFFFFFFFFFFFFFFFFFFFFFFFFFFFFFFFFFFFFFFF AND PUSH4 0xF9A96071 PUSH1 0x40 MLOAD DUP2 PUSH4 0xFFFFFFFF AND PUSH1 0xE0 SHL DUP2 MSTORE PUSH1 0x4 ADD PUSH1 0x20 PUSH1 0x40 MLOAD DUP1 DUP4 SUB DUP2 DUP7 GAS STATICCALL ISZERO DUP1 ISZERO PUSH2 0x1BD0 JUMPI RETURNDATASIZE PUSH0 DUP1 RETURNDATACOPY RETURNDATASIZE PUSH0 REVERT JUMPDEST POP POP POP POP PUSH1 0x40 MLOAD RETURNDATASIZE PUSH1 0x1F NOT PUSH1 0x1F DUP3 ADD AND DUP3 ADD DUP1 PUSH1 0x40 MSTORE POP DUP2 ADD SWAP1 PUSH2 0x1BF4 SWAP2 SWAP1 PUSH2 0x2970 JUMP JUMPDEST SWAP1 DUP2 ISZERO MUL SWAP1 PUSH1 0x40 MLOAD PUSH0 PUSH1 0x40 MLOAD DUP1 DUP4 SUB DUP2 DUP6 DUP9 DUP9 CALL SWAP4 POP POP POP POP ISZERO DUP1 ISZERO PUSH2 0x1C1C JUMPI RETURNDATASIZE PUSH0 DUP1 RETURNDATACOPY RETURNDATASIZE PUSH0 REVERT JUMPDEST POP PUSH1 0x9 PUSH1 0x7 SWAP1 SLOAD SWAP1 PUSH2 0x100 EXP SWAP1 DIV PUSH20 0xFFFFFFFFFFFFFFFFFFFFFFFFFFFFFFFFFFFFFFFF AND PUSH20 0xFFFFFFFFFFFFFFFFFFFFFFFFFFFFFFFFFFFFFFFF AND PUSH4 0xF410DCC2 PUSH1 0xF SLOAD PUSH1 0x40 MLOAD DUP3 PUSH4 0xFFFFFFFF AND PUSH1 0xE0 SHL DUP2 MSTORE PUSH1 0x4 ADD PUSH2 0x1C7A SWAP2 SWAP1 PUSH2 0x2151 JUMP JUMPDEST PUSH0 PUSH1 0x40 MLOAD DUP1 DUP4 SUB DUP2 PUSH0 DUP8 DUP1 EXTCODESIZE ISZERO DUP1 ISZERO PUSH2 0x1C91 JUMPI PUSH0 DUP1 REVERT JUMPDEST POP GAS CALL ISZERO DUP1 ISZERO PUSH2 0x1CA3 JUMPI RETURNDATASIZE PUSH0 DUP1 RETURNDATACOPY RETURNDATASIZE PUSH0 REVERT JUMPDEST POP POP POP POP PUSH1 0x1 PUSH1 0x9 PUSH1 0x6 PUSH2 0x100 EXP DUP2 SLOAD DUP2 PUSH1 0xFF MUL NOT AND SWAP1 DUP4 ISZERO ISZERO MUL OR SWAP1 SSTORE POP JUMP JUMPDEST PUSH0 PUSH1 0x9 PUSH1 0x6 SWAP1 SLOAD SWAP1 PUSH2 0x100 EXP SWAP1 DIV PUSH1 0xFF AND ISZERO PUSH2 0x1D15 JUMPI PUSH1 0x40 MLOAD PUSH32 0x8C379A000000000000000000000000000000000000000000000000000000000 DUP2 MSTORE PUSH1 0x4 ADD PUSH2 0x1D0C SWAP1 PUSH2 0x24A9 JUMP JUMPDEST PUSH1 0x40 MLOAD DUP1 SWAP2 SUB SWAP1 REVERT JUMPDEST PUSH0 DUP1 PUSH0 SWAP1 SLOAD SWAP1 PUSH2 0x100 EXP SWAP1 DIV PUSH20 0xFFFFFFFFFFFFFFFFFFFFFFFFFFFFFFFFFFFFFFFF AND PUSH20 0xFFFFFFFFFFFFFFFFFFFFFFFFFFFFFFFFFFFFFFFF AND BALANCE SWAP1 POP PUSH1 0xA PUSH1 0x1 SLOAD PUSH2 0x1D5F SWAP2 SWAP1 PUSH2 0x27BF JUMP JUMPDEST PUSH1 0x1 SLOAD PUSH2 0x1D6C SWAP2 SWAP1 PUSH2 0x24F4 JUMP JUMPDEST DUP2 LT ISZERO SWAP2 POP POP SWAP1 JUMP JUMPDEST PUSH0 PUSH1 0x9 PUSH1 0x6 SWAP1 SLOAD SWAP1 PUSH2 0x100 EXP SWAP1 DIV PUSH1 0xFF AND ISZERO PUSH2 0x1DC6 JUMPI PUSH1 0x40 MLOAD PUSH32 0x8C379A000000000000000000000000000000000000000000000000000000000 DUP2 MSTORE PUSH1 0x4 ADD PUSH2 0x1DBD SWAP1 PUSH2 0x24A9 JUMP JUMPDEST PUSH1 0x40 MLOAD DUP1 SWAP2 SUB SWAP1 REVERT JUMPDEST PUSH0 DUP4 PUSH1 0xFF AND LT ISZERO DUP1 ISZERO PUSH2 0x1DDC JUMPI POP PUSH1 0x4 DUP4 PUSH1 0xFF AND LT JUMPDEST PUSH2 0x1E1B JUMPI PUSH1 0x40 MLOAD PUSH32 0x8C379A000000000000000000000000000000000000000000000000000000000 DUP2 MSTORE PUSH1 0x4 ADD PUSH2 0x1E12 SWAP1 PUSH2 0x3159 JUMP JUMPDEST PUSH1 0x40 MLOAD DUP1 SWAP2 SUB SWAP1 REVERT JUMPDEST DUP2 DUP4 PUSH1 0xFF AND PUSH1 0x4 DUP2 LT PUSH2 0x1E31 JUMPI PUSH2 0x1E30 PUSH2 0x3177 JUMP JUMPDEST JUMPDEST PUSH1 0x20 MUL ADD MLOAD SWAP1 POP SWAP3 SWAP2 POP POP JUMP JUMPDEST PUSH0 PUSH1 0x9 PUSH1 0x6 SWAP1 SLOAD SWAP1 PUSH2 0x100 EXP SWAP1 DIV PUSH1 0xFF AND ISZERO PUSH2 0x1E8F JUMPI PUSH1 0x40 MLOAD PUSH32 0x8C379A000000000000000000000000000000000000000000000000000000000 DUP2 MSTORE PUSH1 0x4 ADD PUSH2 0x1E86 SWAP1 PUSH2 0x24A9 JUMP JUMPDEST PUSH1 0x40 MLOAD DUP1 SWAP2 SUB SWAP1 REVERT JUMPDEST PUSH0 DUP4 PUSH1 0xFF AND LT ISZERO DUP1 ISZERO PUSH2 0x1EA5 JUMPI POP PUSH1 0x8 DUP4 PUSH1 0xFF AND LT JUMPDEST PUSH2 0x1EE4 JUMPI PUSH1 0x40 MLOAD PUSH32 0x8C379A000000000000000000000000000000000000000000000000000000000 DUP2 MSTORE PUSH1 0x4 ADD PUSH2 0x1EDB SWAP1 PUSH2 0x3214 JUMP JUMPDEST PUSH1 0x40 MLOAD DUP1 SWAP2 SUB SWAP1 REVERT JUMPDEST DUP2 DUP4 PUSH1 0xFF AND PUSH1 0x8 DUP2 LT PUSH2 0x1EFA JUMPI PUSH2 0x1EF9 PUSH2 0x3177 JUMP JUMPDEST JUMPDEST PUSH1 0x20 MUL ADD MLOAD SWAP1 POP SWAP3 SWAP2 POP POP JUMP JUMPDEST PUSH1 0x40 MLOAD DUP1 PUSH1 0xA0 ADD PUSH1 0x40 MSTORE DUP1 PUSH1 0x60 DUP2 MSTORE PUSH1 0x20 ADD PUSH1 0x60 DUP2 MSTORE PUSH1 0x20 ADD PUSH0 PUSH2 0xFFFF AND DUP2 MSTORE PUSH1 0x20 ADD PUSH0 DUP2 MSTORE PUSH1 0x20 ADD PUSH0 DUP2 MSTORE POP SWAP1 JUMP JUMPDEST PUSH0 PUSH2 0xFFFF DUP3 AND SWAP1 POP SWAP2 SWAP1 POP JUMP JUMPDEST PUSH2 0x1F4D DUP2 PUSH2 0x1F37 JUMP JUMPDEST DUP3 MSTORE POP POP JUMP JUMPDEST PUSH0 PUSH1 0x20 DUP3 ADD SWAP1 POP PUSH2 0x1F66 PUSH0 DUP4 ADD DUP5 PUSH2 0x1F44 JUMP JUMPDEST SWAP3 SWAP2 POP POP JUMP JUMPDEST PUSH0 PUSH1 0x40 MLOAD SWAP1 POP SWAP1 JUMP JUMPDEST PUSH0 DUP1 REVERT JUMPDEST PUSH0 DUP1 REVERT JUMPDEST PUSH0 DUP1 REVERT JUMPDEST PUSH0 DUP1 REVERT JUMPDEST PUSH0 DUP1 REVERT JUMPDEST PUSH0 DUP1 DUP4 PUSH1 0x1F DUP5 ADD SLT PUSH2 0x1F9E JUMPI PUSH2 0x1F9D PUSH2 0x1F7D JUMP JUMPDEST JUMPDEST DUP3 CALLDATALOAD SWAP1 POP PUSH8 0xFFFFFFFFFFFFFFFF DUP2 GT ISZERO PUSH2 0x1FBB JUMPI PUSH2 0x1FBA PUSH2 0x1F81 JUMP JUMPDEST JUMPDEST PUSH1 0x20 DUP4 ADD SWAP2 POP DUP4 PUSH1 0x1 DUP3 MUL DUP4 ADD GT ISZERO PUSH2 0x1FD7 JUMPI PUSH2 0x1FD6 PUSH2 0x1F85 JUMP JUMPDEST JUMPDEST SWAP3 POP SWAP3 SWAP1 POP JUMP JUMPDEST PUSH0 DUP1 PUSH1 0x20 DUP4 DUP6 SUB SLT ISZERO PUSH2 0x1FF4 JUMPI PUSH2 0x1FF3 PUSH2 0x1F75 JUMP JUMPDEST JUMPDEST PUSH0 DUP4 ADD CALLDATALOAD PUSH8 0xFFFFFFFFFFFFFFFF DUP2 GT ISZERO PUSH2 0x2011 JUMPI PUSH2 0x2010 PUSH2 0x1F79 JUMP JUMPDEST JUMPDEST PUSH2 0x201D DUP6 DUP3 DUP7 ADD PUSH2 0x1F89 JUMP JUMPDEST SWAP3 POP SWAP3 POP POP SWAP3 POP SWAP3 SWAP1 POP JUMP JUMPDEST PUSH0 PUSH20 0xFFFFFFFFFFFFFFFFFFFFFFFFFFFFFFFFFFFFFFFF DUP3 AND SWAP1 POP SWAP2 SWAP1 POP JUMP JUMPDEST PUSH0 PUSH2 0x2052 DUP3 PUSH2 0x2029 JUMP JUMPDEST SWAP1 POP SWAP2 SWAP1 POP JUMP JUMPDEST PUSH2 0x2062 DUP2 PUSH2 0x2048 JUMP JUMPDEST DUP3 MSTORE POP POP JUMP JUMPDEST PUSH0 PUSH1 0x20 DUP3 ADD SWAP1 POP PUSH2 0x207B PUSH0 DUP4 ADD DUP5 PUSH2 0x2059 JUMP JUMPDEST SWAP3 SWAP2 POP POP JUMP JUMPDEST PUSH0 DUP2 ISZERO ISZERO SWAP1 POP SWAP2 SWAP1 POP JUMP JUMPDEST PUSH2 0x2095 DUP2 PUSH2 0x2081 JUMP JUMPDEST DUP3 MSTORE POP POP JUMP JUMPDEST PUSH0 DUP2 MLOAD SWAP1 POP SWAP2 SWAP1 POP JUMP JUMPDEST PUSH0 DUP3 DUP3 MSTORE PUSH1 0x20 DUP3 ADD SWAP1 POP SWAP3 SWAP2 POP POP JUMP JUMPDEST DUP3 DUP2 DUP4 MCOPY PUSH0 DUP4 DUP4 ADD MSTORE POP POP POP JUMP JUMPDEST PUSH0 PUSH1 0x1F NOT PUSH1 0x1F DUP4 ADD AND SWAP1 POP SWAP2 SWAP1 POP JUMP JUMPDEST PUSH0 PUSH2 0x20DD DUP3 PUSH2 0x209B JUMP JUMPDEST PUSH2 0x20E7 DUP2 DUP6 PUSH2 0x20A5 JUMP JUMPDEST SWAP4 POP PUSH2 0x20F7 DUP2 DUP6 PUSH1 0x20 DUP7 ADD PUSH2 0x20B5 JUMP JUMPDEST PUSH2 0x2100 DUP2 PUSH2 0x20C3 JUMP JUMPDEST DUP5 ADD SWAP2 POP POP SWAP3 SWAP2 POP POP JUMP JUMPDEST PUSH0 PUSH1 0x40 DUP3 ADD SWAP1 POP PUSH2 0x211E PUSH0 DUP4 ADD DUP6 PUSH2 0x208C JUMP JUMPDEST DUP2 DUP2 SUB PUSH1 0x20 DUP4 ADD MSTORE PUSH2 0x2130 DUP2 DUP5 PUSH2 0x20D3 JUMP JUMPDEST SWAP1 POP SWAP4 SWAP3 POP POP POP JUMP JUMPDEST PUSH0 DUP2 SWAP1 POP SWAP2 SWAP1 POP JUMP JUMPDEST PUSH2 0x214B DUP2 PUSH2 0x2139 JUMP JUMPDEST DUP3 MSTORE POP POP JUMP JUMPDEST PUSH0 PUSH1 0x20 DUP3 ADD SWAP1 POP PUSH2 0x2164 PUSH0 DUP4 ADD DUP5 PUSH2 0x2142 JUMP JUMPDEST SWAP3 SWAP2 POP POP JUMP JUMPDEST PUSH2 0x2173 DUP2 PUSH2 0x2139 JUMP JUMPDEST DUP2 EQ PUSH2 0x217D JUMPI PUSH0 DUP1 REVERT JUMPDEST POP JUMP JUMPDEST PUSH0 DUP2 CALLDATALOAD SWAP1 POP PUSH2 0x218E DUP2 PUSH2 0x216A JUMP JUMPDEST SWAP3 SWAP2 POP POP JUMP JUMPDEST PUSH0 PUSH1 0x20 DUP3 DUP5 SUB SLT ISZERO PUSH2 0x21A9 JUMPI PUSH2 0x21A8 PUSH2 0x1F75 JUMP JUMPDEST JUMPDEST PUSH0 PUSH2 0x21B6 DUP5 DUP3 DUP6 ADD PUSH2 0x2180 JUMP JUMPDEST SWAP2 POP POP SWAP3 SWAP2 POP POP JUMP JUMPDEST PUSH0 DUP2 SWAP1 POP SWAP2 SWAP1 POP JUMP JUMPDEST PUSH0 PUSH2 0x21E2 PUSH2 0x21DD PUSH2 0x21D8 DUP5 PUSH2 0x2029 JUMP JUMPDEST PUSH2 0x21BF JUMP JUMPDEST PUSH2 0x2029 JUMP JUMPDEST SWAP1 POP SWAP2 SWAP1 POP JUMP JUMPDEST PUSH0 PUSH2 0x21F3 DUP3 PUSH2 0x21C8 JUMP JUMPDEST SWAP1 POP SWAP2 SWAP1 POP JUMP JUMPDEST PUSH0 PUSH2 0x2204 DUP3 PUSH2 0x21E9 JUMP JUMPDEST SWAP1 POP SWAP2 SWAP1 POP JUMP JUMPDEST PUSH2 0x2214 DUP2 PUSH2 0x21FA JUMP JUMPDEST DUP3 MSTORE POP POP JUMP JUMPDEST PUSH0 PUSH1 0x20 DUP3 ADD SWAP1 POP PUSH2 0x222D PUSH0 DUP4 ADD DUP5 PUSH2 0x220B JUMP JUMPDEST SWAP3 SWAP2 POP POP JUMP JUMPDEST PUSH0 DUP2 MLOAD SWAP1 POP SWAP2 SWAP1 POP JUMP JUMPDEST PUSH0 DUP3 DUP3 MSTORE PUSH1 0x20 DUP3 ADD SWAP1 POP SWAP3 SWAP2 POP POP JUMP JUMPDEST PUSH0 PUSH2 0x2257 DUP3 PUSH2 0x2233 JUMP JUMPDEST PUSH2 0x2261 DUP2 DUP6 PUSH2 0x223D JUMP JUMPDEST SWAP4 POP PUSH2 0x2271 DUP2 DUP6 PUSH1 0x20 DUP7 ADD PUSH2 0x20B5 JUMP JUMPDEST PUSH2 0x227A DUP2 PUSH2 0x20C3 JUMP JUMPDEST DUP5 ADD SWAP2 POP POP SWAP3 SWAP2 POP POP JUMP JUMPDEST PUSH2 0x228E DUP2 PUSH2 0x1F37 JUMP JUMPDEST DUP3 MSTORE POP POP JUMP JUMPDEST PUSH2 0x229D DUP2 PUSH2 0x2139 JUMP JUMPDEST DUP3 MSTORE POP POP JUMP JUMPDEST PUSH0 PUSH1 0xA0 DUP4 ADD PUSH0 DUP4 ADD MLOAD DUP5 DUP3 SUB PUSH0 DUP7 ADD MSTORE PUSH2 0x22BD DUP3 DUP3 PUSH2 0x224D JUMP JUMPDEST SWAP2 POP POP PUSH1 0x20 DUP4 ADD MLOAD DUP5 DUP3 SUB PUSH1 0x20 DUP7 ADD MSTORE PUSH2 0x22D7 DUP3 DUP3 PUSH2 0x224D JUMP JUMPDEST SWAP2 POP POP PUSH1 0x40 DUP4 ADD MLOAD PUSH2 0x22EC PUSH1 0x40 DUP7 ADD DUP3 PUSH2 0x2285 JUMP JUMPDEST POP PUSH1 0x60 DUP4 ADD MLOAD PUSH2 0x22FF PUSH1 0x60 DUP7 ADD DUP3 PUSH2 0x2294 JUMP JUMPDEST POP PUSH1 0x80 DUP4 ADD MLOAD PUSH2 0x2312 PUSH1 0x80 DUP7 ADD DUP3 PUSH2 0x2294 JUMP JUMPDEST POP DUP1 SWAP2 POP POP SWAP3 SWAP2 POP POP JUMP JUMPDEST PUSH0 PUSH1 0x20 DUP3 ADD SWAP1 POP DUP2 DUP2 SUB PUSH0 DUP4 ADD MSTORE PUSH2 0x2335 DUP2 DUP5 PUSH2 0x22A3 JUMP JUMPDEST SWAP1 POP SWAP3 SWAP2 POP POP JUMP JUMPDEST PUSH0 PUSH2 0x2347 DUP3 PUSH2 0x2029 JUMP JUMPDEST SWAP1 POP SWAP2 SWAP1 POP JUMP JUMPDEST PUSH2 0x2357 DUP2 PUSH2 0x233D JUMP JUMPDEST DUP3 MSTORE POP POP JUMP JUMPDEST PUSH0 PUSH1 0x20 DUP3 ADD SWAP1 POP PUSH2 0x2370 PUSH0 DUP4 ADD DUP5 PUSH2 0x234E JUMP JUMPDEST SWAP3 SWAP2 POP POP JUMP JUMPDEST PUSH0 PUSH1 0x20 DUP3 ADD SWAP1 POP PUSH2 0x2389 PUSH0 DUP4 ADD DUP5 PUSH2 0x208C JUMP JUMPDEST SWAP3 SWAP2 POP POP JUMP JUMPDEST PUSH0 PUSH1 0xFF DUP3 AND SWAP1 POP SWAP2 SWAP1 POP JUMP JUMPDEST PUSH2 0x23A4 DUP2 PUSH2 0x238F JUMP JUMPDEST DUP2 EQ PUSH2 0x23AE JUMPI PUSH0 DUP1 REVERT JUMPDEST POP JUMP JUMPDEST PUSH0 DUP2 CALLDATALOAD SWAP1 POP PUSH2 0x23BF DUP2 PUSH2 0x239B JUMP JUMPDEST SWAP3 SWAP2 POP POP JUMP JUMPDEST PUSH0 DUP1 PUSH0 DUP1 PUSH1 0x80 DUP6 DUP8 SUB SLT ISZERO PUSH2 0x23DD JUMPI PUSH2 0x23DC PUSH2 0x1F75 JUMP JUMPDEST JUMPDEST PUSH0 PUSH2 0x23EA DUP8 DUP3 DUP9 ADD PUSH2 0x23B1 JUMP JUMPDEST SWAP5 POP POP PUSH1 0x20 PUSH2 0x23FB DUP8 DUP3 DUP9 ADD PUSH2 0x23B1 JUMP JUMPDEST SWAP4 POP POP PUSH1 0x40 PUSH2 0x240C DUP8 DUP3 DUP9 ADD PUSH2 0x2180 JUMP JUMPDEST SWAP3 POP POP PUSH1 0x60 PUSH2 0x241D DUP8 DUP3 DUP9 ADD PUSH2 0x23B1 JUMP JUMPDEST SWAP2 POP POP SWAP3 SWAP6 SWAP2 SWAP5 POP SWAP3 POP JUMP JUMPDEST PUSH0 DUP3 DUP3 MSTORE PUSH1 0x20 DUP3 ADD SWAP1 POP SWAP3 SWAP2 POP POP JUMP JUMPDEST PUSH32 0x4C6561736541677265656D656E743A20436F6E7472616374207465726D696E61 PUSH0 DUP3 ADD MSTORE PUSH32 0x7465640000000000000000000000000000000000000000000000000000000000 PUSH1 0x20 DUP3 ADD MSTORE POP JUMP JUMPDEST PUSH0 PUSH2 0x2493 PUSH1 0x23 DUP4 PUSH2 0x2429 JUMP JUMPDEST SWAP2 POP PUSH2 0x249E DUP3 PUSH2 0x2439 JUMP JUMPDEST PUSH1 0x40 DUP3 ADD SWAP1 POP SWAP2 SWAP1 POP JUMP JUMPDEST PUSH0 PUSH1 0x20 DUP3 ADD SWAP1 POP DUP2 DUP2 SUB PUSH0 DUP4 ADD MSTORE PUSH2 0x24C0 DUP2 PUSH2 0x2487 JUMP JUMPDEST SWAP1 POP SWAP2 SWAP1 POP JUMP JUMPDEST PUSH32 0x4E487B7100000000000000000000000000000000000000000000000000000000 PUSH0 MSTORE PUSH1 0x11 PUSH1 0x4 MSTORE PUSH1 0x24 PUSH0 REVERT JUMPDEST PUSH0 PUSH2 0x24FE DUP3 PUSH2 0x2139 JUMP JUMPDEST SWAP2 POP PUSH2 0x2509 DUP4 PUSH2 0x2139 JUMP JUMPDEST SWAP3 POP DUP3 DUP3 ADD SWAP1 POP DUP1 DUP3 GT ISZERO PUSH2 0x2521 JUMPI PUSH2 0x2520 PUSH2 0x24C7 JUMP JUMPDEST JUMPDEST SWAP3 SWAP2 POP POP JUMP JUMPDEST PUSH32 0x4C6561736541677265656D656E743A2054686520646561646C696E652072616E PUSH0 DUP3 ADD MSTORE PUSH32 0x206F757400000000000000000000000000000000000000000000000000000000 PUSH1 0x20 DUP3 ADD MSTORE POP JUMP JUMPDEST PUSH0 PUSH2 0x2581 PUSH1 0x24 DUP4 PUSH2 0x2429 JUMP JUMPDEST SWAP2 POP PUSH2 0x258C DUP3 PUSH2 0x2527 JUMP JUMPDEST PUSH1 0x40 DUP3 ADD SWAP1 POP SWAP2 SWAP1 POP JUMP JUMPDEST PUSH0 PUSH1 0x20 DUP3 ADD SWAP1 POP DUP2 DUP2 SUB PUSH0 DUP4 ADD MSTORE PUSH2 0x25AE DUP2 PUSH2 0x2575 JUMP JUMPDEST SWAP1 POP SWAP2 SWAP1 POP JUMP JUMPDEST PUSH32 0x4C6561736541677265656D656E743A20496E636F7272656374207061796D656E PUSH0 DUP3 ADD MSTORE PUSH32 0x7420616D6F756E74000000000000000000000000000000000000000000000000 PUSH1 0x20 DUP3 ADD MSTORE POP JUMP JUMPDEST PUSH0 PUSH2 0x260F PUSH1 0x28 DUP4 PUSH2 0x2429 JUMP JUMPDEST SWAP2 POP PUSH2 0x261A DUP3 PUSH2 0x25B5 JUMP JUMPDEST PUSH1 0x40 DUP3 ADD SWAP1 POP SWAP2 SWAP1 POP JUMP JUMPDEST PUSH0 PUSH1 0x20 DUP3 ADD SWAP1 POP DUP2 DUP2 SUB PUSH0 DUP4 ADD MSTORE PUSH2 0x263C DUP2 PUSH2 0x2603 JUMP JUMPDEST SWAP1 POP SWAP2 SWAP1 POP JUMP JUMPDEST PUSH0 PUSH2 0x264D DUP3 PUSH2 0x2139 JUMP JUMPDEST SWAP2 POP PUSH2 0x2658 DUP4 PUSH2 0x2139 JUMP JUMPDEST SWAP3 POP DUP3 DUP3 SUB SWAP1 POP DUP2 DUP2 GT ISZERO PUSH2 0x2670 JUMPI PUSH2 0x266F PUSH2 0x24C7 JUMP JUMPDEST JUMPDEST SWAP3 SWAP2 POP POP JUMP JUMPDEST PUSH32 0x4C6561736541677265656D656E743A204D757374207761697420756E74696C20 PUSH0 DUP3 ADD MSTORE PUSH32 0x6C617374206D6F6E746820746F207465726D696E617465206C65617365000000 PUSH1 0x20 DUP3 ADD MSTORE POP JUMP JUMPDEST PUSH0 PUSH2 0x26D0 PUSH1 0x3D DUP4 PUSH2 0x2429 JUMP JUMPDEST SWAP2 POP PUSH2 0x26DB DUP3 PUSH2 0x2676 JUMP JUMPDEST PUSH1 0x40 DUP3 ADD SWAP1 POP SWAP2 SWAP1 POP JUMP JUMPDEST PUSH0 PUSH1 0x20 DUP3 ADD SWAP1 POP DUP2 DUP2 SUB PUSH0 DUP4 ADD MSTORE PUSH2 0x26FD DUP2 PUSH2 0x26C4 JUMP JUMPDEST SWAP1 POP SWAP2 SWAP1 POP JUMP JUMPDEST PUSH32 0x4C6561736541677265656D656E743A204F6E6C7920637573746F6D6572206361 PUSH0 DUP3 ADD MSTORE PUSH32 0x6E206D6F64696679206C65617365000000000000000000000000000000000000 PUSH1 0x20 DUP3 ADD MSTORE POP JUMP JUMPDEST PUSH0 PUSH2 0x275E PUSH1 0x2E DUP4 PUSH2 0x2429 JUMP JUMPDEST SWAP2 POP PUSH2 0x2769 DUP3 PUSH2 0x2704 JUMP JUMPDEST PUSH1 0x40 DUP3 ADD SWAP1 POP SWAP2 SWAP1 POP JUMP JUMPDEST PUSH0 PUSH1 0x20 DUP3 ADD SWAP1 POP DUP2 DUP2 SUB PUSH0 DUP4 ADD MSTORE PUSH2 0x278B DUP2 PUSH2 0x2752 JUMP JUMPDEST SWAP1 POP SWAP2 SWAP1 POP JUMP JUMPDEST PUSH32 0x4E487B7100000000000000000000000000000000000000000000000000000000 PUSH0 MSTORE PUSH1 0x12 PUSH1 0x4 MSTORE PUSH1 0x24 PUSH0 REVERT JUMPDEST PUSH0 PUSH2 0x27C9 DUP3 PUSH2 0x2139 JUMP JUMPDEST SWAP2 POP PUSH2 0x27D4 DUP4 PUSH2 0x2139 JUMP JUMPDEST SWAP3 POP DUP3 PUSH2 0x27E4 JUMPI PUSH2 0x27E3 PUSH2 0x2792 JUMP JUMPDEST JUMPDEST DUP3 DUP3 DIV SWAP1 POP SWAP3 SWAP2 POP POP JUMP JUMPDEST PUSH0 PUSH2 0x27F9 DUP3 PUSH2 0x1F37 JUMP JUMPDEST SWAP2 POP PUSH2 0x2804 DUP4 PUSH2 0x1F37 JUMP JUMPDEST SWAP3 POP DUP3 DUP3 SUB SWAP1 POP PUSH2 0xFFFF DUP2 GT ISZERO PUSH2 0x281E JUMPI PUSH2 0x281D PUSH2 0x24C7 JUMP JUMPDEST JUMPDEST SWAP3 SWAP2 POP POP JUMP JUMPDEST PUSH32 0x4C6561736541677265656D656E743A204F6E6C7920746865206F776E65722D63 PUSH0 DUP3 ADD MSTORE PUSH32 0x6F6D70616E792063616E20706572666F726D207468697320616374696F6E0000 PUSH1 0x20 DUP3 ADD MSTORE POP JUMP JUMPDEST PUSH0 PUSH2 0x287E PUSH1 0x3E DUP4 PUSH2 0x2429 JUMP JUMPDEST SWAP2 POP PUSH2 0x2889 DUP3 PUSH2 0x2824 JUMP JUMPDEST PUSH1 0x40 DUP3 ADD SWAP1 POP SWAP2 SWAP1 POP JUMP JUMPDEST PUSH0 PUSH1 0x20 DUP3 ADD SWAP1 POP DUP2 DUP2 SUB PUSH0 DUP4 ADD MSTORE PUSH2 0x28AB DUP2 PUSH2 0x2872 JUMP JUMPDEST SWAP1 POP SWAP2 SWAP1 POP JUMP JUMPDEST PUSH2 0x28BB DUP2 PUSH2 0x2048 JUMP JUMPDEST DUP2 EQ PUSH2 0x28C5 JUMPI PUSH0 DUP1 REVERT JUMPDEST POP JUMP JUMPDEST PUSH0 DUP2 MLOAD SWAP1 POP PUSH2 0x28D6 DUP2 PUSH2 0x28B2 JUMP JUMPDEST SWAP3 SWAP2 POP POP JUMP JUMPDEST PUSH0 PUSH1 0x20 DUP3 DUP5 SUB SLT ISZERO PUSH2 0x28F1 JUMPI PUSH2 0x28F0 PUSH2 0x1F75 JUMP JUMPDEST JUMPDEST PUSH0 PUSH2 0x28FE DUP5 DUP3 DUP6 ADD PUSH2 0x28C8 JUMP JUMPDEST SWAP2 POP POP SWAP3 SWAP2 POP POP JUMP JUMPDEST PUSH2 0x2910 DUP2 PUSH2 0x233D JUMP JUMPDEST DUP2 EQ PUSH2 0x291A JUMPI PUSH0 DUP1 REVERT JUMPDEST POP JUMP JUMPDEST PUSH0 DUP2 MLOAD SWAP1 POP PUSH2 0x292B DUP2 PUSH2 0x2907 JUMP JUMPDEST SWAP3 SWAP2 POP POP JUMP JUMPDEST PUSH0 PUSH1 0x20 DUP3 DUP5 SUB SLT ISZERO PUSH2 0x2946 JUMPI PUSH2 0x2945 PUSH2 0x1F75 JUMP JUMPDEST JUMPDEST PUSH0 PUSH2 0x2953 DUP5 DUP3 DUP6 ADD PUSH2 0x291D JUMP JUMPDEST SWAP2 POP POP SWAP3 SWAP2 POP POP JUMP JUMPDEST PUSH0 DUP2 MLOAD SWAP1 POP PUSH2 0x296A DUP2 PUSH2 0x216A JUMP JUMPDEST SWAP3 SWAP2 POP POP JUMP JUMPDEST PUSH0 PUSH1 0x20 DUP3 DUP5 SUB SLT ISZERO PUSH2 0x2985 JUMPI PUSH2 0x2984 PUSH2 0x1F75 JUMP JUMPDEST JUMPDEST PUSH0 PUSH2 0x2992 DUP5 DUP3 DUP6 ADD PUSH2 0x295C JUMP JUMPDEST SWAP2 POP POP SWAP3 SWAP2 POP POP JUMP JUMPDEST PUSH0 PUSH2 0x29A5 DUP3 PUSH2 0x21E9 JUMP JUMPDEST SWAP1 POP SWAP2 SWAP1 POP JUMP JUMPDEST PUSH2 0x29B5 DUP2 PUSH2 0x299B JUMP JUMPDEST DUP3 MSTORE POP POP JUMP JUMPDEST PUSH0 PUSH1 0x60 DUP3 ADD SWAP1 POP PUSH2 0x29CE PUSH0 DUP4 ADD DUP7 PUSH2 0x2059 JUMP JUMPDEST PUSH2 0x29DB PUSH1 0x20 DUP4 ADD DUP6 PUSH2 0x29AC JUMP JUMPDEST PUSH2 0x29E8 PUSH1 0x40 DUP4 ADD DUP5 PUSH2 0x2142 JUMP JUMPDEST SWAP5 SWAP4 POP POP POP POP JUMP JUMPDEST PUSH32 0x4C6561736541677265656D656E743A204F6E6C7920637573746F6D6572206361 PUSH0 DUP3 ADD MSTORE PUSH32 0x6E206C656173652061206E657720636172000000000000000000000000000000 PUSH1 0x20 DUP3 ADD MSTORE POP JUMP JUMPDEST PUSH0 PUSH2 0x2A4A PUSH1 0x31 DUP4 PUSH2 0x2429 JUMP JUMPDEST SWAP2 POP PUSH2 0x2A55 DUP3 PUSH2 0x29F0 JUMP JUMPDEST PUSH1 0x40 DUP3 ADD SWAP1 POP SWAP2 SWAP1 POP JUMP JUMPDEST PUSH0 PUSH1 0x20 DUP3 ADD SWAP1 POP DUP2 DUP2 SUB PUSH0 DUP4 ADD MSTORE PUSH2 0x2A77 DUP2 PUSH2 0x2A3E JUMP JUMPDEST SWAP1 POP SWAP2 SWAP1 POP JUMP JUMPDEST PUSH0 PUSH1 0x60 DUP3 ADD SWAP1 POP PUSH2 0x2A91 PUSH0 DUP4 ADD DUP7 PUSH2 0x29AC JUMP JUMPDEST PUSH2 0x2A9E PUSH1 0x20 DUP4 ADD DUP6 PUSH2 0x29AC JUMP JUMPDEST PUSH2 0x2AAB PUSH1 0x40 DUP4 ADD DUP5 PUSH2 0x2142 JUMP JUMPDEST SWAP5 SWAP4 POP POP POP POP JUMP JUMPDEST PUSH32 0x4C6561736541677265656D656E743A204F6E6C7920637573746F6D6572206361 PUSH0 DUP3 ADD MSTORE PUSH32 0x6E20706179000000000000000000000000000000000000000000000000000000 PUSH1 0x20 DUP3 ADD MSTORE POP JUMP JUMPDEST PUSH0 PUSH2 0x2B0D PUSH1 0x25 DUP4 PUSH2 0x2429 JUMP JUMPDEST SWAP2 POP PUSH2 0x2B18 DUP3 PUSH2 0x2AB3 JUMP JUMPDEST PUSH1 0x40 DUP3 ADD SWAP1 POP SWAP2 SWAP1 POP JUMP JUMPDEST PUSH0 PUSH1 0x20 DUP3 ADD SWAP1 POP DUP2 DUP2 SUB PUSH0 DUP4 ADD MSTORE PUSH2 0x2B3A DUP2 PUSH2 0x2B01 JUMP JUMPDEST SWAP1 POP SWAP2 SWAP1 POP JUMP JUMPDEST PUSH32 0x4C6561736541677265656D656E743A205061796D656E7420697320746F6F206C PUSH0 DUP3 ADD MSTORE PUSH32 0x6F77000000000000000000000000000000000000000000000000000000000000 PUSH1 0x20 DUP3 ADD MSTORE POP JUMP JUMPDEST PUSH0 PUSH2 0x2B9B PUSH1 0x22 DUP4 PUSH2 0x2429 JUMP JUMPDEST SWAP2 POP PUSH2 0x2BA6 DUP3 PUSH2 0x2B41 JUMP JUMPDEST PUSH1 0x40 DUP3 ADD SWAP1 POP SWAP2 SWAP1 POP JUMP JUMPDEST PUSH0 PUSH1 0x20 DUP3 ADD SWAP1 POP DUP2 DUP2 SUB PUSH0 DUP4 ADD MSTORE PUSH2 0x2BC8 DUP2 PUSH2 0x2B8F JUMP JUMPDEST SWAP1 POP SWAP2 SWAP1 POP JUMP JUMPDEST PUSH32 0x4C6561736541677265656D656E743A204C6561736520616C7265616479207061 PUSH0 DUP3 ADD MSTORE PUSH32 0x696420666F720000000000000000000000000000000000000000000000000000 PUSH1 0x20 DUP3 ADD MSTORE POP JUMP JUMPDEST PUSH0 PUSH2 0x2C29 PUSH1 0x26 DUP4 PUSH2 0x2429 JUMP JUMPDEST SWAP2 POP PUSH2 0x2C34 DUP3 PUSH2 0x2BCF JUMP JUMPDEST PUSH1 0x40 DUP3 ADD SWAP1 POP SWAP2 SWAP1 POP JUMP JUMPDEST PUSH0 PUSH1 0x20 DUP3 ADD SWAP1 POP DUP2 DUP2 SUB PUSH0 DUP4 ADD MSTORE PUSH2 0x2C56 DUP2 PUSH2 0x2C1D JUMP JUMPDEST SWAP1 POP SWAP2 SWAP1 POP JUMP JUMPDEST PUSH32 0x4E487B7100000000000000000000000000000000000000000000000000000000 PUSH0 MSTORE PUSH1 0x22 PUSH1 0x4 MSTORE PUSH1 0x24 PUSH0 REVERT JUMPDEST PUSH0 PUSH1 0x2 DUP3 DIV SWAP1 POP PUSH1 0x1 DUP3 AND DUP1 PUSH2 0x2CA1 JUMPI PUSH1 0x7F DUP3 AND SWAP2 POP JUMPDEST PUSH1 0x20 DUP3 LT DUP2 SUB PUSH2 0x2CB4 JUMPI PUSH2 0x2CB3 PUSH2 0x2C5D JUMP JUMPDEST JUMPDEST POP SWAP2 SWAP1 POP JUMP JUMPDEST PUSH0 DUP1 REVERT JUMPDEST PUSH32 0x4E487B7100000000000000000000000000000000000000000000000000000000 PUSH0 MSTORE PUSH1 0x41 PUSH1 0x4 MSTORE PUSH1 0x24 PUSH0 REVERT JUMPDEST PUSH2 0x2CF4 DUP3 PUSH2 0x20C3 JUMP JUMPDEST DUP2 ADD DUP2 DUP2 LT PUSH8 0xFFFFFFFFFFFFFFFF DUP3 GT OR ISZERO PUSH2 0x2D13 JUMPI PUSH2 0x2D12 PUSH2 0x2CBE JUMP JUMPDEST JUMPDEST DUP1 PUSH1 0x40 MSTORE POP POP POP JUMP JUMPDEST PUSH0 PUSH2 0x2D25 PUSH2 0x1F6C JUMP JUMPDEST SWAP1 POP PUSH2 0x2D31 DUP3 DUP3 PUSH2 0x2CEB JUMP JUMPDEST SWAP2 SWAP1 POP JUMP JUMPDEST PUSH0 DUP1 REVERT JUMPDEST PUSH0 DUP1 REVERT JUMPDEST PUSH0 PUSH8 0xFFFFFFFFFFFFFFFF DUP3 GT ISZERO PUSH2 0x2D58 JUMPI PUSH2 0x2D57 PUSH2 0x2CBE JUMP JUMPDEST JUMPDEST PUSH2 0x2D61 DUP3 PUSH2 0x20C3 JUMP JUMPDEST SWAP1 POP PUSH1 0x20 DUP2 ADD SWAP1 POP SWAP2 SWAP1 POP JUMP JUMPDEST PUSH0 PUSH2 0x2D80 PUSH2 0x2D7B DUP5 PUSH2 0x2D3E JUMP JUMPDEST PUSH2 0x2D1C JUMP JUMPDEST SWAP1 POP DUP3 DUP2 MSTORE PUSH1 0x20 DUP2 ADD DUP5 DUP5 DUP5 ADD GT ISZERO PUSH2 0x2D9C JUMPI PUSH2 0x2D9B PUSH2 0x2D3A JUMP JUMPDEST JUMPDEST PUSH2 0x2DA7 DUP5 DUP3 DUP6 PUSH2 0x20B5 JUMP JUMPDEST POP SWAP4 SWAP3 POP POP POP JUMP JUMPDEST PUSH0 DUP3 PUSH1 0x1F DUP4 ADD SLT PUSH2 0x2DC3 JUMPI PUSH2 0x2DC2 PUSH2 0x1F7D JUMP JUMPDEST JUMPDEST DUP2 MLOAD PUSH2 0x2DD3 DUP5 DUP3 PUSH1 0x20 DUP7 ADD PUSH2 0x2D6E JUMP JUMPDEST SWAP2 POP POP SWAP3 SWAP2 POP POP JUMP JUMPDEST PUSH2 0x2DE5 DUP2 PUSH2 0x1F37 JUMP JUMPDEST DUP2 EQ PUSH2 0x2DEF JUMPI PUSH0 DUP1 REVERT JUMPDEST POP JUMP JUMPDEST PUSH0 DUP2 MLOAD SWAP1 POP PUSH2 0x2E00 DUP2 PUSH2 0x2DDC JUMP JUMPDEST SWAP3 SWAP2 POP POP JUMP JUMPDEST PUSH0 PUSH1 0xA0 DUP3 DUP5 SUB SLT ISZERO PUSH2 0x2E1B JUMPI PUSH2 0x2E1A PUSH2 0x2CBA JUMP JUMPDEST JUMPDEST PUSH2 0x2E25 PUSH1 0xA0 PUSH2 0x2D1C JUMP JUMPDEST SWAP1 POP PUSH0 DUP3 ADD MLOAD PUSH8 0xFFFFFFFFFFFFFFFF DUP2 GT ISZERO PUSH2 0x2E44 JUMPI PUSH2 0x2E43 PUSH2 0x2D36 JUMP JUMPDEST JUMPDEST PUSH2 0x2E50 DUP5 DUP3 DUP6 ADD PUSH2 0x2DAF JUMP JUMPDEST PUSH0 DUP4 ADD MSTORE POP PUSH1 0x20 DUP3 ADD MLOAD PUSH8 0xFFFFFFFFFFFFFFFF DUP2 GT ISZERO PUSH2 0x2E73 JUMPI PUSH2 0x2E72 PUSH2 0x2D36 JUMP JUMPDEST JUMPDEST PUSH2 0x2E7F DUP5 DUP3 DUP6 ADD PUSH2 0x2DAF JUMP JUMPDEST PUSH1 0x20 DUP4 ADD MSTORE POP PUSH1 0x40 PUSH2 0x2E93 DUP5 DUP3 DUP6 ADD PUSH2 0x2DF2 JUMP JUMPDEST PUSH1 0x40 DUP4 ADD MSTORE POP PUSH1 0x60 PUSH2 0x2EA7 DUP5 DUP3 DUP6 ADD PUSH2 0x295C JUMP JUMPDEST PUSH1 0x60 DUP4 ADD MSTORE POP PUSH1 0x80 PUSH2 0x2EBB DUP5 DUP3 DUP6 ADD PUSH2 0x295C JUMP JUMPDEST PUSH1 0x80 DUP4 ADD MSTORE POP SWAP3 SWAP2 POP POP JUMP JUMPDEST PUSH0 PUSH1 0x20 DUP3 DUP5 SUB SLT ISZERO PUSH2 0x2EDC JUMPI PUSH2 0x2EDB PUSH2 0x1F75 JUMP JUMPDEST JUMPDEST PUSH0 DUP3 ADD MLOAD PUSH8 0xFFFFFFFFFFFFFFFF DUP2 GT ISZERO PUSH2 0x2EF9 JUMPI PUSH2 0x2EF8 PUSH2 0x1F79 JUMP JUMPDEST JUMPDEST PUSH2 0x2F05 DUP5 DUP3 DUP6 ADD PUSH2 0x2E06 JUMP JUMPDEST SWAP2 POP POP SWAP3 SWAP2 POP POP JUMP JUMPDEST PUSH32 0x4C6561736541677265656D656E743A20546865206E6577206D696C656167652D PUSH0 DUP3 ADD MSTORE PUSH32 0x746F74616C206D7573742062652067726561746572207468616E206F72206571 PUSH1 0x20 DUP3 ADD MSTORE PUSH32 0x75616C20746F207468652070726576696F757300000000000000000000000000 PUSH1 0x40 DUP3 ADD MSTORE POP JUMP JUMPDEST PUSH0 PUSH2 0x2F8E PUSH1 0x53 DUP4 PUSH2 0x2429 JUMP JUMPDEST SWAP2 POP PUSH2 0x2F99 DUP3 PUSH2 0x2F0E JUMP JUMPDEST PUSH1 0x60 DUP3 ADD SWAP1 POP SWAP2 SWAP1 POP JUMP JUMPDEST PUSH0 PUSH1 0x20 DUP3 ADD SWAP1 POP DUP2 DUP2 SUB PUSH0 DUP4 ADD MSTORE PUSH2 0x2FBB DUP2 PUSH2 0x2F82 JUMP JUMPDEST SWAP1 POP SWAP2 SWAP1 POP JUMP JUMPDEST PUSH0 PUSH1 0x40 DUP3 ADD SWAP1 POP PUSH2 0x2FD5 PUSH0 DUP4 ADD DUP6 PUSH2 0x2142 JUMP JUMPDEST PUSH2 0x2FE2 PUSH1 0x20 DUP4 ADD DUP5 PUSH2 0x2142 JUMP JUMPDEST SWAP4 SWAP3 POP POP POP JUMP JUMPDEST PUSH2 0x2FF2 DUP2 PUSH2 0x238F JUMP JUMPDEST DUP3 MSTORE POP POP JUMP JUMPDEST PUSH0 PUSH2 0x3012 PUSH2 0x300D PUSH2 0x3008 DUP5 PUSH2 0x1F37 JUMP JUMPDEST PUSH2 0x21BF JUMP JUMPDEST PUSH2 0x2139 JUMP JUMPDEST SWAP1 POP SWAP2 SWAP1 POP JUMP JUMPDEST PUSH2 0x3022 DUP2 PUSH2 0x2FF8 JUMP JUMPDEST DUP3 MSTORE POP POP JUMP JUMPDEST PUSH0 PUSH1 0xA0 DUP3 ADD SWAP1 POP PUSH2 0x303B PUSH0 DUP4 ADD DUP9 PUSH2 0x2142 JUMP JUMPDEST PUSH2 0x3048 PUSH1 0x20 DUP4 ADD DUP8 PUSH2 0x2142 JUMP JUMPDEST PUSH2 0x3055 PUSH1 0x40 DUP4 ADD DUP7 PUSH2 0x2FE9 JUMP JUMPDEST PUSH2 0x3062 PUSH1 0x60 DUP4 ADD DUP6 PUSH2 0x3019 JUMP JUMPDEST PUSH2 0x306F PUSH1 0x80 DUP4 ADD DUP5 PUSH2 0x3019 JUMP JUMPDEST SWAP7 SWAP6 POP POP POP POP POP POP JUMP JUMPDEST PUSH0 PUSH16 0xFFFFFFFFFFFFFFFFFFFFFFFFFFFFFFFF DUP3 AND SWAP1 POP SWAP2 SWAP1 POP JUMP JUMPDEST PUSH2 0x309D DUP2 PUSH2 0x3079 JUMP JUMPDEST DUP2 EQ PUSH2 0x30A7 JUMPI PUSH0 DUP1 REVERT JUMPDEST POP JUMP JUMPDEST PUSH0 DUP2 MLOAD SWAP1 POP PUSH2 0x30B8 DUP2 PUSH2 0x3094 JUMP JUMPDEST SWAP3 SWAP2 POP POP JUMP JUMPDEST PUSH0 PUSH1 0x20 DUP3 DUP5 SUB SLT ISZERO PUSH2 0x30D3 JUMPI PUSH2 0x30D2 PUSH2 0x1F75 JUMP JUMPDEST JUMPDEST PUSH0 PUSH2 0x30E0 DUP5 DUP3 DUP6 ADD PUSH2 0x30AA JUMP JUMPDEST SWAP2 POP POP SWAP3 SWAP2 POP POP JUMP JUMPDEST PUSH32 0x4C6561736541677265656D656E743A20496E76616C69642063686F6963652066 PUSH0 DUP3 ADD MSTORE PUSH32 0x6F7220636F6E7472616374206475726174696F6E000000000000000000000000 PUSH1 0x20 DUP3 ADD MSTORE POP JUMP JUMPDEST PUSH0 PUSH2 0x3143 PUSH1 0x34 DUP4 PUSH2 0x2429 JUMP JUMPDEST SWAP2 POP PUSH2 0x314E DUP3 PUSH2 0x30E9 JUMP JUMPDEST PUSH1 0x40 DUP3 ADD SWAP1 POP SWAP2 SWAP1 POP JUMP JUMPDEST PUSH0 PUSH1 0x20 DUP3 ADD SWAP1 POP DUP2 DUP2 SUB PUSH0 DUP4 ADD MSTORE PUSH2 0x3170 DUP2 PUSH2 0x3137 JUMP JUMPDEST SWAP1 POP SWAP2 SWAP1 POP JUMP JUMPDEST PUSH32 0x4E487B7100000000000000000000000000000000000000000000000000000000 PUSH0 MSTORE PUSH1 0x32 PUSH1 0x4 MSTORE PUSH1 0x24 PUSH0 REVERT JUMPDEST PUSH32 0x4C6561736541677265656D656E743A20496E76616C69642063686F6963652066 PUSH0 DUP3 ADD MSTORE PUSH32 0x6F72206D696C6561676520636170000000000000000000000000000000000000 PUSH1 0x20 DUP3 ADD MSTORE POP JUMP JUMPDEST PUSH0 PUSH2 0x31FE PUSH1 0x2E DUP4 PUSH2 0x2429 JUMP JUMPDEST SWAP2 POP PUSH2 0x3209 DUP3 PUSH2 0x31A4 JUMP JUMPDEST PUSH1 0x40 DUP3 ADD SWAP1 POP SWAP2 SWAP1 POP JUMP JUMPDEST PUSH0 PUSH1 0x20 DUP3 ADD SWAP1 POP DUP2 DUP2 SUB PUSH0 DUP4 ADD MSTORE PUSH2 0x322B DUP2 PUSH2 0x31F2 JUMP JUMPDEST SWAP1 POP SWAP2 SWAP1 POP JUMP INVALID LOG2 PUSH5 0x6970667358 0x22 SLT KECCAK256 DIV 0xC0 DELEGATECALL MSTORE DUP1 0xC2 CALL DUP3 AND BALANCE 0x26 EXTCODECOPY DUP9 0xAA SWAP13 0xE2 CREATE TLOAD SWAP10 DUP4 SWAP13 0xFB SWAP2 0xB4 LOG1 0xC7 0xC4 PUSH15 0x3E3D365B64736F6C634300081A0033 "
		},
		"gasEstimates": {
			"creation": {
				"codeDepositCost": "2580800",
				"executionCost": "infinite",
				"totalCost": "infinite"
			},
			"external": {
				"checkContractValue()": "422",
				"checkUpkeep(bytes)": "infinite",
				"confirmDeal()": "infinite",
				"extendLease(uint8,uint8,uint256,uint8)": "infinite",
				"getCarId()": "2521",
				"getCarNFT()": "infinite",
				"getCarNFTContract()": "infinite",
				"getContractDuration()": "2541",
				"getContractMileageCap()": "2546",
				"getCustomer()": "2560",
				"getDownPayment()": "infinite",
				"getMonthlyQuota()": "2476",
				"getcompany()": "infinite",
				"iscompanyConfirmed()": "2590",
				"leaseNewCar(uint256)": "infinite",
				"payMonthlyQuota()": "infinite",
				"performUpkeep(bytes)": "infinite",
				"registerDeal()": "infinite",
				"terminateLease()": "infinite"
			},
			"internal": {
				"checkForSolvency()": "infinite",
				"executeTermination()": "infinite",
				"getOptionsChoice(uint8,uint16[4] memory)": "infinite",
				"getOptionsChoice(uint8,uint16[8] memory)": "infinite"
			}
		},
		"methodIdentifiers": {
			"checkContractValue()": "f9a96071",
			"checkUpkeep(bytes)": "6e04ff0d",
			"confirmDeal()": "581a7310",
			"extendLease(uint8,uint8,uint256,uint8)": "f9fee13f",
			"getCarId()": "8fc8e811",
			"getCarNFT()": "d9de1c03",
			"getCarNFTContract()": "ca15c67c",
			"getContractDuration()": "37bec583",
			"getContractMileageCap()": "e149b822",
			"getCustomer()": "650d993b",
			"getDownPayment()": "d6dd04f7",
			"getMonthlyQuota()": "f6fef779",
			"getcompany()": "dc26bf47",
			"iscompanyConfirmed()": "f707dc1d",
			"leaseNewCar(uint256)": "a7a4fb99",
			"payMonthlyQuota()": "d4805f24",
			"performUpkeep(bytes)": "4585e33b",
			"registerDeal()": "0f380a56",
			"terminateLease()": "1168c9a8"
		}
	},
	"abi": [
		{
			"inputs": [
				{
					"internalType": "address",
					"name": "carNFTAddress",
					"type": "address"
				},
				{
					"internalType": "uint256",
					"name": "_carID",
					"type": "uint256"
				},
				{
					"internalType": "uint8",
					"name": "_driverExperienceYears",
					"type": "uint8"
				},
				{
					"internalType": "uint8",
					"name": "_newContractDurationIndex",
					"type": "uint8"
				},
				{
					"internalType": "uint8",
					"name": "_mileageCapIndex",
					"type": "uint8"
				},
				{
					"internalType": "address",
					"name": "_company",
					"type": "address"
				}
			],
			"stateMutability": "nonpayable",
			"type": "constructor"
		},
		{
			"inputs": [],
			"name": "checkContractValue",
			"outputs": [
				{
					"internalType": "uint256",
					"name": "",
					"type": "uint256"
				}
			],
			"stateMutability": "view",
			"type": "function"
		},
		{
			"inputs": [
				{
					"internalType": "bytes",
					"name": "",
					"type": "bytes"
				}
			],
			"name": "checkUpkeep",
			"outputs": [
				{
					"internalType": "bool",
					"name": "upkeepNeeded",
					"type": "bool"
				},
				{
					"internalType": "bytes",
					"name": "",
					"type": "bytes"
				}
			],
			"stateMutability": "view",
			"type": "function"
		},
		{
			"inputs": [],
			"name": "confirmDeal",
			"outputs": [],
			"stateMutability": "nonpayable",
			"type": "function"
		},
		{
			"inputs": [
				{
					"internalType": "uint8",
					"name": "_extendedContractDurationIndex",
					"type": "uint8"
				},
				{
					"internalType": "uint8",
					"name": "_extendedContractMileageCapIndex",
					"type": "uint8"
				},
				{
					"internalType": "uint256",
					"name": "_milesTotal",
					"type": "uint256"
				},
				{
					"internalType": "uint8",
					"name": "_driverExperienceYears",
					"type": "uint8"
				}
			],
			"name": "extendLease",
			"outputs": [],
			"stateMutability": "nonpayable",
			"type": "function"
		},
		{
			"inputs": [],
			"name": "getCarId",
			"outputs": [
				{
					"internalType": "uint256",
					"name": "",
					"type": "uint256"
				}
			],
			"stateMutability": "view",
			"type": "function"
		},
		{
			"inputs": [],
			"name": "getCarNFT",
			"outputs": [
				{
					"components": [
						{
							"internalType": "string",
							"name": "model",
							"type": "string"
						},
						{
							"internalType": "string",
							"name": "color",
							"type": "string"
						},
						{
							"internalType": "uint16",
							"name": "yearOfMatriculation",
							"type": "uint16"
						},
						{
							"internalType": "uint256",
							"name": "originalValue",
							"type": "uint256"
						},
						{
							"internalType": "uint256",
							"name": "mileage",
							"type": "uint256"
						}
					],
					"internalType": "struct Car",
					"name": "",
					"type": "tuple"
				}
			],
			"stateMutability": "view",
			"type": "function"
		},
		{
			"inputs": [],
			"name": "getCarNFTContract",
			"outputs": [
				{
					"internalType": "contract CarNFT",
					"name": "",
					"type": "address"
				}
			],
			"stateMutability": "view",
			"type": "function"
		},
		{
			"inputs": [],
			"name": "getContractDuration",
			"outputs": [
				{
					"internalType": "uint16",
					"name": "",
					"type": "uint16"
				}
			],
			"stateMutability": "view",
			"type": "function"
		},
		{
			"inputs": [],
			"name": "getContractMileageCap",
			"outputs": [
				{
					"internalType": "uint16",
					"name": "",
					"type": "uint16"
				}
			],
			"stateMutability": "view",
			"type": "function"
		},
		{
			"inputs": [],
			"name": "getCustomer",
			"outputs": [
				{
					"internalType": "address",
					"name": "",
					"type": "address"
				}
			],
			"stateMutability": "view",
			"type": "function"
		},
		{
			"inputs": [],
			"name": "getDownPayment",
			"outputs": [
				{
					"internalType": "uint256",
					"name": "",
					"type": "uint256"
				}
			],
			"stateMutability": "view",
			"type": "function"
		},
		{
			"inputs": [],
			"name": "getMonthlyQuota",
			"outputs": [
				{
					"internalType": "uint256",
					"name": "",
					"type": "uint256"
				}
			],
			"stateMutability": "view",
			"type": "function"
		},
		{
			"inputs": [],
			"name": "getcompany",
			"outputs": [
				{
					"internalType": "address payable",
					"name": "",
					"type": "address"
				}
			],
			"stateMutability": "view",
			"type": "function"
		},
		{
			"inputs": [],
			"name": "iscompanyConfirmed",
			"outputs": [
				{
					"internalType": "bool",
					"name": "",
					"type": "bool"
				}
			],
			"stateMutability": "view",
			"type": "function"
		},
		{
			"inputs": [
				{
					"internalType": "uint256",
					"name": "newCarId",
					"type": "uint256"
				}
			],
			"name": "leaseNewCar",
			"outputs": [],
			"stateMutability": "nonpayable",
			"type": "function"
		},
		{
			"inputs": [],
			"name": "payMonthlyQuota",
			"outputs": [],
			"stateMutability": "payable",
			"type": "function"
		},
		{
			"inputs": [
				{
					"internalType": "bytes",
					"name": "",
					"type": "bytes"
				}
			],
			"name": "performUpkeep",
			"outputs": [],
			"stateMutability": "nonpayable",
			"type": "function"
		},
		{
			"inputs": [],
			"name": "registerDeal",
			"outputs": [],
			"stateMutability": "payable",
			"type": "function"
		},
		{
			"inputs": [],
			"name": "terminateLease",
			"outputs": [],
			"stateMutability": "nonpayable",
			"type": "function"
		}
	]
}