{
	"data": {
		"bytecode": {
			"linkReferences": {},
			"object": "60e06040526040518060800160405280600160ff168152602001600360ff168152602001600660ff168152602001600c60ff168152506007906004610045929190610759565b50604051806101000160405280610bb861ffff168152602001610fa061ffff16815260200161138861ffff16815260200161177061ffff168152602001611b5861ffff168152602001611f4061ffff16815260200161232861ffff16815260200161271061ffff1681525060089060086100c09291906107f4565b503480156100cc575f80fd5b5060405161412838038061412883398181016040528101906100ee919061097f565b4260c08181525050600a6003819055508073ffffffffffffffffffffffffffffffffffffffff1660808173ffffffffffffffffffffffffffffffffffffffff168152505085600960076101000a81548173ffffffffffffffffffffffffffffffffffffffff021916908373ffffffffffffffffffffffffffffffffffffffff160217905550600960079054906101000a900473ffffffffffffffffffffffffffffffffffffffff1673ffffffffffffffffffffffffffffffffffffffff1663ef555bc1866040518263ffffffff1660e01b81526004016101ce9190610a17565b5f60405180830381865afa1580156101e8573d5f803e3d5ffd5b505050506040513d5f823e3d601f19601f820116820180604052508101906102109190610c6c565b600a5f820151815f0190816102259190610eb7565b50602082015181600101908161023b9190610eb7565b506040820151816002015f6101000a81548161ffff021916908361ffff160217905550606082015181600301556080820151816004015590505084600f81905550600960079054906101000a900473ffffffffffffffffffffffffffffffffffffffff1673ffffffffffffffffffffffffffffffffffffffff166393678237866040518263ffffffff1660e01b81526004016102d79190610a17565b602060405180830381865afa1580156102f2573d5f803e3d5ffd5b505050506040513d601f19601f820116820180604052508101906103169190610f86565b73ffffffffffffffffffffffffffffffffffffffff163373ffffffffffffffffffffffffffffffffffffffff1614610383576040517f08c379a000000000000000000000000000000000000000000000000000000000815260040161037a90611031565b60405180910390fd5b6103f78360076004806020026040519081016040528092919082600480156103e7576020028201915f905b82829054906101000a900461ffff1661ffff16815260200190600201906020826001010492830192600103820291508084116103ae5790505b50505050506105c760201b60201c565b60095f6101000a81548161ffff021916908361ffff1602179055506104858260088080602002604051908101604052809291908260088015610475576020028201915f905b82829054906101000a900461ffff1661ffff168152602001906002019060208260010104928301926001038202915080841161043c5790505b505050505061069060201b60201c565b600960026101000a81548161ffff021916908361ffff160217905550600960079054906101000a900473ffffffffffffffffffffffffffffffffffffffff1673ffffffffffffffffffffffffffffffffffffffff1663d57fa07d600a60030154600a6004015487600960029054906101000a900461ffff1660095f9054906101000a900461ffff166040518663ffffffff1660e01b815260040161052d95949392919061108e565b602060405180830381865afa158015610548573d5f803e3d5ffd5b505050506040513d601f19601f8201168201806040525081019061056c91906110df565b6001819055505f600960056101000a81548160ff0219169083151502179055505f600960066101000a81548160ff02191690831515021790555060036001546105b59190611137565b60a0818152505050505050505061134f565b5f600960069054906101000a900460ff1615610618576040517f08c379a000000000000000000000000000000000000000000000000000000000815260040161060f906111e8565b60405180910390fd5b5f8360ff161015801561062e575060048360ff16105b61066d576040517f08c379a000000000000000000000000000000000000000000000000000000000815260040161066490611276565b60405180910390fd5b818360ff166004811061068357610682611294565b5b6020020151905092915050565b5f600960069054906101000a900460ff16156106e1576040517f08c379a00000000000000000000000000000000000000000000000000000000081526004016106d8906111e8565b60405180910390fd5b5f8360ff16101580156106f7575060088360ff16105b610736576040517f08c379a000000000000000000000000000000000000000000000000000000000815260040161072d90611331565b60405180910390fd5b818360ff166008811061074c5761074b611294565b5b6020020151905092915050565b826004600f016010900481019282156107e3579160200282015f5b838211156107b357835183826101000a81548161ffff021916908360ff1602179055509260200192600201602081600101049283019260010302610774565b80156107e15782816101000a81549061ffff02191690556002016020816001010492830192600103026107b3565b505b5090506107f09190610890565b5090565b826008600f0160109004810192821561087f579160200282015f5b8382111561084f57835183826101000a81548161ffff021916908361ffff160217905550926020019260020160208160010104928301926001030261080f565b801561087d5782816101000a81549061ffff021916905560020160208160010104928301926001030261084f565b505b50905061088c9190610890565b5090565b5b808211156108a7575f815f905550600101610891565b5090565b5f604051905090565b5f80fd5b5f80fd5b5f73ffffffffffffffffffffffffffffffffffffffff82169050919050565b5f6108e5826108bc565b9050919050565b6108f5816108db565b81146108ff575f80fd5b50565b5f81519050610910816108ec565b92915050565b5f819050919050565b61092881610916565b8114610932575f80fd5b50565b5f815190506109438161091f565b92915050565b5f60ff82169050919050565b61095e81610949565b8114610968575f80fd5b50565b5f8151905061097981610955565b92915050565b5f805f805f8060c08789031215610999576109986108b4565b5b5f6109a689828a01610902565b96505060206109b789828a01610935565b95505060406109c889828a0161096b565b94505060606109d989828a0161096b565b93505060806109ea89828a0161096b565b92505060a06109fb89828a01610902565b9150509295509295509295565b610a1181610916565b82525050565b5f602082019050610a2a5f830184610a08565b92915050565b5f80fd5b5f601f19601f8301169050919050565b7f4e487b71000000000000000000000000000000000000000000000000000000005f52604160045260245ffd5b610a7a82610a34565b810181811067ffffffffffffffff82111715610a9957610a98610a44565b5b80604052505050565b5f610aab6108ab565b9050610ab78282610a71565b919050565b5f80fd5b5f80fd5b5f80fd5b5f67ffffffffffffffff821115610ae257610ae1610a44565b5b610aeb82610a34565b9050602081019050919050565b8281835e5f83830152505050565b5f610b18610b1384610ac8565b610aa2565b905082815260208101848484011115610b3457610b33610ac4565b5b610b3f848285610af8565b509392505050565b5f82601f830112610b5b57610b5a610ac0565b5b8151610b6b848260208601610b06565b91505092915050565b5f61ffff82169050919050565b610b8a81610b74565b8114610b94575f80fd5b50565b5f81519050610ba581610b81565b92915050565b5f60a08284031215610bc057610bbf610a30565b5b610bca60a0610aa2565b90505f82015167ffffffffffffffff811115610be957610be8610abc565b5b610bf584828501610b47565b5f83015250602082015167ffffffffffffffff811115610c1857610c17610abc565b5b610c2484828501610b47565b6020830152506040610c3884828501610b97565b6040830152506060610c4c84828501610935565b6060830152506080610c6084828501610935565b60808301525092915050565b5f60208284031215610c8157610c806108b4565b5b5f82015167ffffffffffffffff811115610c9e57610c9d6108b8565b5b610caa84828501610bab565b91505092915050565b5f81519050919050565b7f4e487b71000000000000000000000000000000000000000000000000000000005f52602260045260245ffd5b5f6002820490506001821680610d0157607f821691505b602082108103610d1457610d13610cbd565b5b50919050565b5f819050815f5260205f209050919050565b5f6020601f8301049050919050565b5f82821b905092915050565b5f60088302610d767fffffffffffffffffffffffffffffffffffffffffffffffffffffffffffffffff82610d3b565b610d808683610d3b565b95508019841693508086168417925050509392505050565b5f819050919050565b5f610dbb610db6610db184610916565b610d98565b610916565b9050919050565b5f819050919050565b610dd483610da1565b610de8610de082610dc2565b848454610d47565b825550505050565b5f90565b610dfc610df0565b610e07818484610dcb565b505050565b5b81811015610e2a57610e1f5f82610df4565b600181019050610e0d565b5050565b601f821115610e6f57610e4081610d1a565b610e4984610d2c565b81016020851015610e58578190505b610e6c610e6485610d2c565b830182610e0c565b50505b505050565b5f82821c905092915050565b5f610e8f5f1984600802610e74565b1980831691505092915050565b5f610ea78383610e80565b9150826002028217905092915050565b610ec082610cb3565b67ffffffffffffffff811115610ed957610ed8610a44565b5b610ee38254610cea565b610eee828285610e2e565b5f60209050601f831160018114610f1f575f8415610f0d578287015190505b610f178582610e9c565b865550610f7e565b601f198416610f2d86610d1a565b5f5b82811015610f5457848901518255600182019150602085019450602081019050610f2f565b86831015610f715784890151610f6d601f891682610e80565b8355505b6001600288020188555050505b505050505050565b5f60208284031215610f9b57610f9a6108b4565b5b5f610fa884828501610902565b91505092915050565b5f82825260208201905092915050565b7f4c6561736541677265656d656e743a2043617220616c7265616479206c6561735f8201527f6564000000000000000000000000000000000000000000000000000000000000602082015250565b5f61101b602283610fb1565b915061102682610fc1565b604082019050919050565b5f6020820190508181035f8301526110488161100f565b9050919050565b61105881610949565b82525050565b5f61107861107361106e84610b74565b610d98565b610916565b9050919050565b6110888161105e565b82525050565b5f60a0820190506110a15f830188610a08565b6110ae6020830187610a08565b6110bb604083018661104f565b6110c8606083018561107f565b6110d5608083018461107f565b9695505050505050565b5f602082840312156110f4576110f36108b4565b5b5f61110184828501610935565b91505092915050565b7f4e487b71000000000000000000000000000000000000000000000000000000005f52601160045260245ffd5b5f61114182610916565b915061114c83610916565b925082820261115a81610916565b915082820484148315176111715761117061110a565b5b5092915050565b7f4c6561736541677265656d656e743a20436f6e7472616374207465726d696e615f8201527f7465640000000000000000000000000000000000000000000000000000000000602082015250565b5f6111d2602383610fb1565b91506111dd82611178565b604082019050919050565b5f6020820190508181035f8301526111ff816111c6565b9050919050565b7f4c6561736541677265656d656e743a20496e76616c69642063686f69636520665f8201527f6f7220636f6e7472616374206475726174696f6e000000000000000000000000602082015250565b5f611260603483610fb1565b915061126b82611206565b604082019050919050565b5f6020820190508181035f83015261128d81611254565b9050919050565b7f4e487b71000000000000000000000000000000000000000000000000000000005f52603260045260245ffd5b7f4c6561736541677265656d656e743a20496e76616c69642063686f69636520665f8201527f6f72206d696c6561676520636170000000000000000000000000000000000000602082015250565b5f61131b602e83610fb1565b9150611326826112c1565b604082019050919050565b5f6020820190508181035f8301526113488161130f565b9050919050565b60805160a05160c051612d696113bf5f395f61043101525f81816104a00152818161051801528181610b6901528181610ef4015261164801525f818161072c01528181610e0e01528181610eb701528181611381015281816117db0152818161188e01526119bf0152612d695ff3fe608060405260043610610113575f3560e01c8063a7a4fb991161009f578063dc26bf4711610063578063dc26bf4714610308578063e149b82214610332578063f6fef7791461035c578063f707dc1d14610386578063f9a96071146103b057610113565b8063a7a4fb9914610258578063ca15c67c14610280578063d4805f24146102aa578063d6dd04f7146102b4578063d9de1c03146102de57610113565b80634585e33b116100e65780634585e33b14610189578063581a7310146101b1578063650d993b146101c75780636e04ff0d146101f15780638fc8e8111461022e57610113565b80630f380a56146101175780631168c9a814610121578063280628971461013757806337bec5831461015f575b5f80fd5b61011f6103da565b005b34801561012c575f80fd5b506101356105f3565b005b348015610142575f80fd5b5061015d60048036038101906101589190611c6a565b6106da565b005b34801561016a575f80fd5b50610173610aa0565b6040516101809190611cd6565b60405180910390f35b348015610194575f80fd5b506101af60048036038101906101aa9190611d50565b610ab6565b005b3480156101bc575f80fd5b506101c5610dbc565b005b3480156101d2575f80fd5b506101db611188565b6040516101e89190611dda565b60405180910390f35b3480156101fc575f80fd5b5061021760048036038101906102129190611d50565b6111af565b604051610225929190611e7d565b60405180910390f35b348015610239575f80fd5b5061024261125b565b60405161024f9190611eba565b60405180910390f35b348015610263575f80fd5b5061027e60048036038101906102799190611ed3565b611264565b005b34801561028b575f80fd5b5061029461140f565b6040516102a19190611f59565b60405180910390f35b6102b2611438565b005b3480156102bf575f80fd5b506102c8611645565b6040516102d59190611eba565b60405180910390f35b3480156102e9575f80fd5b506102f261166c565b6040516102ff919061205c565b60405180910390f35b348015610313575f80fd5b5061031c6117d8565b604051610329919061209c565b60405180910390f35b34801561033d575f80fd5b506103466117ff565b6040516103539190611cd6565b60405180910390f35b348015610367575f80fd5b50610370611816565b60405161037d9190611eba565b60405180910390f35b348015610391575f80fd5b5061039a61181f565b6040516103a791906120b5565b60405180910390f35b3480156103bb575f80fd5b506103c4611835565b6040516103d19190611eba565b60405180910390f35b600960069054906101000a900460ff161561042a576040517f08c379a00000000000000000000000000000000000000000000000000000000081526004016104219061214e565b60405180910390fd5b42621275007f000000000000000000000000000000000000000000000000000000000000000061045a9190612199565b101561049b576040517f08c379a00000000000000000000000000000000000000000000000000000000081526004016104929061223c565b60405180910390fd5b6001547f00000000000000000000000000000000000000000000000000000000000000006104c99190612199565b34101561050b576040517f08c379a0000000000000000000000000000000000000000000000000000000008152600401610502906122ca565b60405180910390fd5b426002819055505f6001547f00000000000000000000000000000000000000000000000000000000000000006105419190612199565b3461054c91906122e8565b9050335f806101000a81548173ffffffffffffffffffffffffffffffffffffffff021916908373ffffffffffffffffffffffffffffffffffffffff1602179055505f8054906101000a900473ffffffffffffffffffffffffffffffffffffffff1673ffffffffffffffffffffffffffffffffffffffff166108fc8290811502906040515f60405180830381858888f193505050501580156105ef573d5f803e3d5ffd5b5050565b600960069054906101000a900460ff1615610643576040517f08c379a000000000000000000000000000000000000000000000000000000000815260040161063a9061214e565b60405180910390fd5b5f8054906101000a900473ffffffffffffffffffffffffffffffffffffffff1673ffffffffffffffffffffffffffffffffffffffff163373ffffffffffffffffffffffffffffffffffffffff16146106d0576040517f08c379a00000000000000000000000000000000000000000000000000000000081526004016106c79061238b565b60405180910390fd5b6106d861183c565b565b600960069054906101000a900460ff161561072a576040517f08c379a00000000000000000000000000000000000000000000000000000000081526004016107219061214e565b60405180910390fd5b7f000000000000000000000000000000000000000000000000000000000000000073ffffffffffffffffffffffffffffffffffffffff163373ffffffffffffffffffffffffffffffffffffffff16146107b8576040517f08c379a00000000000000000000000000000000000000000000000000000000081526004016107af90612419565b60405180910390fd5b5f8054906101000a900473ffffffffffffffffffffffffffffffffffffffff1673ffffffffffffffffffffffffffffffffffffffff163373ffffffffffffffffffffffffffffffffffffffff1614610845576040517f08c379a000000000000000000000000000000000000000000000000000000000815260040161083c906124a7565b60405180910390fd5b5f600960079054906101000a900473ffffffffffffffffffffffffffffffffffffffff1673ffffffffffffffffffffffffffffffffffffffff1663ef555bc13073ffffffffffffffffffffffffffffffffffffffff16638fc8e8116040518163ffffffff1660e01b8152600401602060405180830381865afa1580156108cd573d5f803e3d5ffd5b505050506040513d601f19601f820116820180604052508101906108f191906124d9565b6040518263ffffffff1660e01b815260040161090d9190611eba565b5f60405180830381865afa158015610927573d5f803e3d5ffd5b505050506040513d5f823e3d601f19601f8201168201806040525081019061094f9190612711565b90506109be82600880806020026040519081016040528092919082600880156109b4576020028201915f905b82829054906101000a900461ffff1661ffff168152602001906002019060208260010104928301926001038202915080841161097b5790505b5050505050611a46565b600960026101000a81548161ffff021916908361ffff160217905550600960079054906101000a900473ffffffffffffffffffffffffffffffffffffffff1673ffffffffffffffffffffffffffffffffffffffff1663d57fa07d8260600151836080015186600960029054906101000a900461ffff16896040518663ffffffff1660e01b8152600401610a55959493929190612797565b602060405180830381865afa158015610a70573d5f803e3d5ffd5b505050506040513d601f19601f82011682018060405250810190610a9491906124d9565b60018190555050505050565b5f60095f9054906101000a900461ffff16905090565b600960069054906101000a900460ff1615610b06576040517f08c379a0000000000000000000000000000000000000000000000000000000008152600401610afd9061214e565b60405180910390fd5b5f60025414158015610b26575060035460025442610b2491906122e8565b115b15610bc7575f8054906101000a900473ffffffffffffffffffffffffffffffffffffffff1673ffffffffffffffffffffffffffffffffffffffff166108fc6001547f0000000000000000000000000000000000000000000000000000000000000000610b929190612199565b90811502906040515f60405180830381858888f19350505050158015610bba573d5f803e3d5ffd5b505f600281905550610db8565b5f60095f9054906101000a900461ffff1661ffff1603610bee57610be961183c565b610db7565b600960049054906101000a900460ff168015610c0c57506005544210155b8015610c24575060065f9054906101000a900460ff16155b15610cbd57600960059054906101000a900460ff1680610c495750610c47611b0f565b155b15610c5b57610c5661183c565b610cb8565b620d2f0060055f828254610c6f9190612199565b925050819055506001600960056101000a81548160ff021916908315150217905550600a600154610ca09190612815565b60015f828254610cb09190612199565b925050819055505b610db6565b600960049054906101000a900460ff168015610cdb57506005544210155b8015610cf2575060065f9054906101000a900460ff165b15610db557600960059054906101000a900460ff1615610d4657621a5e0060055f828254610d209190612199565b925050819055505f600960056101000a81548160ff021916908315150217905550610d62565b62278d0060055f828254610d5a9190612199565b925050819055505b600160095f8282829054906101000a900461ffff16610d819190612845565b92506101000a81548161ffff021916908361ffff1602179055505f60065f6101000a81548160ff0219169083151502179055505b5b5b5b5050565b600960069054906101000a900460ff1615610e0c576040517f08c379a0000000000000000000000000000000000000000000000000000000008152600401610e039061214e565b60405180910390fd5b7f000000000000000000000000000000000000000000000000000000000000000073ffffffffffffffffffffffffffffffffffffffff163373ffffffffffffffffffffffffffffffffffffffff1614610e9a576040517f08c379a0000000000000000000000000000000000000000000000000000000008152600401610e9190612419565b60405180910390fd5b6001600960046101000a81548160ff0219169083151502179055507f000000000000000000000000000000000000000000000000000000000000000073ffffffffffffffffffffffffffffffffffffffff166108fc6001547f0000000000000000000000000000000000000000000000000000000000000000610f1d9190612199565b90811502906040515f60405180830381858888f19350505050158015610f45573d5f803e3d5ffd5b50426004819055506228de80600454610f5e9190612199565b6005819055505f60065f6101000a81548160ff021916908315150217905550600960079054906101000a900473ffffffffffffffffffffffffffffffffffffffff1673ffffffffffffffffffffffffffffffffffffffff1663c776194f3073ffffffffffffffffffffffffffffffffffffffff1663650d993b6040518163ffffffff1660e01b8152600401602060405180830381865afa158015611004573d5f803e3d5ffd5b505050506040513d601f19601f8201168201806040525081019061102891906128a4565b3073ffffffffffffffffffffffffffffffffffffffff1663dc26bf476040518163ffffffff1660e01b8152600401602060405180830381865afa158015611071573d5f803e3d5ffd5b505050506040513d601f19601f8201168201806040525081019061109591906128f9565b3073ffffffffffffffffffffffffffffffffffffffff16638fc8e8116040518163ffffffff1660e01b8152600401602060405180830381865afa1580156110de573d5f803e3d5ffd5b505050506040513d601f19601f8201168201806040525081019061110291906124d9565b6040518463ffffffff1660e01b815260040161112093929190612944565b5f604051808303815f87803b158015611137575f80fd5b505af1158015611149573d5f803e3d5ffd5b50505050600160095f8282829054906101000a900461ffff1661116c9190612845565b92506101000a81548161ffff021916908361ffff160217905550565b5f805f9054906101000a900473ffffffffffffffffffffffffffffffffffffffff16905090565b5f6060600960069054906101000a900460ff1615611202576040517f08c379a00000000000000000000000000000000000000000000000000000000081526004016111f99061214e565b60405180910390fd5b5f6002541415801561122257506003546002544261122091906122e8565b115b1561122c57600191505b600960049054906101000a900460ff16801561124a57506005544210155b1561125457600191505b9250929050565b5f600f54905090565b600960069054906101000a900460ff16156112b4576040517f08c379a00000000000000000000000000000000000000000000000000000000081526004016112ab9061214e565b60405180910390fd5b5f8054906101000a900473ffffffffffffffffffffffffffffffffffffffff1673ffffffffffffffffffffffffffffffffffffffff163373ffffffffffffffffffffffffffffffffffffffff1614611341576040517f08c379a0000000000000000000000000000000000000000000000000000000008152600401611338906129e9565b60405180910390fd5b600960079054906101000a900473ffffffffffffffffffffffffffffffffffffffff1673ffffffffffffffffffffffffffffffffffffffff166342842e0e7f00000000000000000000000000000000000000000000000000000000000000005f8054906101000a900473ffffffffffffffffffffffffffffffffffffffff16846040518463ffffffff1660e01b81526004016113df93929190612a07565b5f604051808303815f87803b1580156113f6575f80fd5b505af1158015611408573d5f803e3d5ffd5b5050505050565b5f600960079054906101000a900473ffffffffffffffffffffffffffffffffffffffff16905090565b600960069054906101000a900460ff1615611488576040517f08c379a000000000000000000000000000000000000000000000000000000000815260040161147f9061214e565b60405180910390fd5b5f8054906101000a900473ffffffffffffffffffffffffffffffffffffffff1673ffffffffffffffffffffffffffffffffffffffff163373ffffffffffffffffffffffffffffffffffffffff1614611515576040517f08c379a000000000000000000000000000000000000000000000000000000000815260040161150c90612aac565b60405180910390fd5b60015434101561155a576040517f08c379a000000000000000000000000000000000000000000000000000000000815260040161155190612b3a565b60405180910390fd5b60065f9054906101000a900460ff16156115a9576040517f08c379a00000000000000000000000000000000000000000000000000000000081526004016115a090612bc8565b60405180910390fd5b5f600154346115b891906122e8565b9050600154341115611628575f8054906101000a900473ffffffffffffffffffffffffffffffffffffffff1673ffffffffffffffffffffffffffffffffffffffff166108fc8290811502906040515f60405180830381858888f19350505050158015611626573d5f803e3d5ffd5b505b600160065f6101000a81548160ff02191690831515021790555050565b5f7f0000000000000000000000000000000000000000000000000000000000000000905090565b611674611bc0565b600a6040518060a00160405290815f8201805461169090612c13565b80601f01602080910402602001604051908101604052809291908181526020018280546116bc90612c13565b80156117075780601f106116de57610100808354040283529160200191611707565b820191905f5260205f20905b8154815290600101906020018083116116ea57829003601f168201915b5050505050815260200160018201805461172090612c13565b80601f016020809104026020016040519081016040528092919081815260200182805461174c90612c13565b80156117975780601f1061176e57610100808354040283529160200191611797565b820191905f5260205f20905b81548152906001019060200180831161177a57829003601f168201915b50505050508152602001600282015f9054906101000a900461ffff1661ffff1661ffff16815260200160038201548152602001600482015481525050905090565b5f7f0000000000000000000000000000000000000000000000000000000000000000905090565b5f600960029054906101000a900461ffff16905090565b5f600154905090565b5f600960049054906101000a900460ff16905090565b5f47905090565b600960069054906101000a900460ff161561188c576040517f08c379a00000000000000000000000000000000000000000000000000000000081526004016118839061214e565b60405180910390fd5b7f000000000000000000000000000000000000000000000000000000000000000073ffffffffffffffffffffffffffffffffffffffff166108fc3073ffffffffffffffffffffffffffffffffffffffff1663f9a960716040518163ffffffff1660e01b8152600401602060405180830381865afa15801561190f573d5f803e3d5ffd5b505050506040513d601f19601f8201168201806040525081019061193391906124d9565b90811502906040515f60405180830381858888f1935050505015801561195b573d5f803e3d5ffd5b50600960079054906101000a900473ffffffffffffffffffffffffffffffffffffffff1673ffffffffffffffffffffffffffffffffffffffff16631f12d9a9600f545f8054906101000a900473ffffffffffffffffffffffffffffffffffffffff167f00000000000000000000000000000000000000000000000000000000000000006040518463ffffffff1660e01b81526004016119fc93929190612c43565b5f604051808303815f87803b158015611a13575f80fd5b505af1158015611a25573d5f803e3d5ffd5b505050506001600960066101000a81548160ff021916908315150217905550565b5f600960069054906101000a900460ff1615611a97576040517f08c379a0000000000000000000000000000000000000000000000000000000008152600401611a8e9061214e565b60405180910390fd5b5f8360ff1610158015611aad575060088360ff16105b611aec576040517f08c379a0000000000000000000000000000000000000000000000000000000008152600401611ae390612ce8565b60405180910390fd5b818360ff1660088110611b0257611b01612d06565b5b6020020151905092915050565b5f600960069054906101000a900460ff1615611b60576040517f08c379a0000000000000000000000000000000000000000000000000000000008152600401611b579061214e565b60405180910390fd5b5f805f9054906101000a900473ffffffffffffffffffffffffffffffffffffffff1673ffffffffffffffffffffffffffffffffffffffff16319050600a600154611baa9190612815565b600154611bb79190612199565b81101591505090565b6040518060a0016040528060608152602001606081526020015f61ffff1681526020015f81526020015f81525090565b5f604051905090565b5f80fd5b5f80fd5b5f819050919050565b611c1381611c01565b8114611c1d575f80fd5b50565b5f81359050611c2e81611c0a565b92915050565b5f60ff82169050919050565b611c4981611c34565b8114611c53575f80fd5b50565b5f81359050611c6481611c40565b92915050565b5f805f60608486031215611c8157611c80611bf9565b5b5f611c8e86828701611c20565b9350506020611c9f86828701611c56565b9250506040611cb086828701611c56565b9150509250925092565b5f61ffff82169050919050565b611cd081611cba565b82525050565b5f602082019050611ce95f830184611cc7565b92915050565b5f80fd5b5f80fd5b5f80fd5b5f8083601f840112611d1057611d0f611cef565b5b8235905067ffffffffffffffff811115611d2d57611d2c611cf3565b5b602083019150836001820283011115611d4957611d48611cf7565b5b9250929050565b5f8060208385031215611d6657611d65611bf9565b5b5f83013567ffffffffffffffff811115611d8357611d82611bfd565b5b611d8f85828601611cfb565b92509250509250929050565b5f73ffffffffffffffffffffffffffffffffffffffff82169050919050565b5f611dc482611d9b565b9050919050565b611dd481611dba565b82525050565b5f602082019050611ded5f830184611dcb565b92915050565b5f8115159050919050565b611e0781611df3565b82525050565b5f81519050919050565b5f82825260208201905092915050565b8281835e5f83830152505050565b5f601f19601f8301169050919050565b5f611e4f82611e0d565b611e598185611e17565b9350611e69818560208601611e27565b611e7281611e35565b840191505092915050565b5f604082019050611e905f830185611dfe565b8181036020830152611ea28184611e45565b90509392505050565b611eb481611c01565b82525050565b5f602082019050611ecd5f830184611eab565b92915050565b5f60208284031215611ee857611ee7611bf9565b5b5f611ef584828501611c20565b91505092915050565b5f819050919050565b5f611f21611f1c611f1784611d9b565b611efe565b611d9b565b9050919050565b5f611f3282611f07565b9050919050565b5f611f4382611f28565b9050919050565b611f5381611f39565b82525050565b5f602082019050611f6c5f830184611f4a565b92915050565b5f81519050919050565b5f82825260208201905092915050565b5f611f9682611f72565b611fa08185611f7c565b9350611fb0818560208601611e27565b611fb981611e35565b840191505092915050565b611fcd81611cba565b82525050565b611fdc81611c01565b82525050565b5f60a083015f8301518482035f860152611ffc8282611f8c565b915050602083015184820360208601526120168282611f8c565b915050604083015161202b6040860182611fc4565b50606083015161203e6060860182611fd3565b5060808301516120516080860182611fd3565b508091505092915050565b5f6020820190508181035f8301526120748184611fe2565b905092915050565b5f61208682611d9b565b9050919050565b6120968161207c565b82525050565b5f6020820190506120af5f83018461208d565b92915050565b5f6020820190506120c85f830184611dfe565b92915050565b5f82825260208201905092915050565b7f4c6561736541677265656d656e743a20436f6e7472616374207465726d696e615f8201527f7465640000000000000000000000000000000000000000000000000000000000602082015250565b5f6121386023836120ce565b9150612143826120de565b604082019050919050565b5f6020820190508181035f8301526121658161212c565b9050919050565b7f4e487b71000000000000000000000000000000000000000000000000000000005f52601160045260245ffd5b5f6121a382611c01565b91506121ae83611c01565b92508282019050808211156121c6576121c561216c565b5b92915050565b7f4c6561736541677265656d656e743a2054686520646561646c696e652072616e5f8201527f206f757400000000000000000000000000000000000000000000000000000000602082015250565b5f6122266024836120ce565b9150612231826121cc565b604082019050919050565b5f6020820190508181035f8301526122538161221a565b9050919050565b7f4c6561736541677265656d656e743a20496e636f7272656374207061796d656e5f8201527f7420616d6f756e74000000000000000000000000000000000000000000000000602082015250565b5f6122b46028836120ce565b91506122bf8261225a565b604082019050919050565b5f6020820190508181035f8301526122e1816122a8565b9050919050565b5f6122f282611c01565b91506122fd83611c01565b92508282039050818111156123155761231461216c565b5b92915050565b7f4c6561736541677265656d656e743a204f6e6c7920637573746f6d65722063615f8201527f6e207465726d696e617465000000000000000000000000000000000000000000602082015250565b5f612375602b836120ce565b91506123808261231b565b604082019050919050565b5f6020820190508181035f8301526123a281612369565b9050919050565b7f4c6561736541677265656d656e743a204f6e6c7920746865206f776e65722d635f8201527f6f6d70616e792063616e20706572666f726d207468697320616374696f6e0000602082015250565b5f612403603e836120ce565b915061240e826123a9565b604082019050919050565b5f6020820190508181035f830152612430816123f7565b9050919050565b7f4c6561736541677265656d656e743a204f6e6c7920637573746f6d65722063615f8201527f6e20657874656e64000000000000000000000000000000000000000000000000602082015250565b5f6124916028836120ce565b915061249c82612437565b604082019050919050565b5f6020820190508181035f8301526124be81612485565b9050919050565b5f815190506124d381611c0a565b92915050565b5f602082840312156124ee576124ed611bf9565b5b5f6124fb848285016124c5565b91505092915050565b5f80fd5b7f4e487b71000000000000000000000000000000000000000000000000000000005f52604160045260245ffd5b61253e82611e35565b810181811067ffffffffffffffff8211171561255d5761255c612508565b5b80604052505050565b5f61256f611bf0565b905061257b8282612535565b919050565b5f80fd5b5f80fd5b5f67ffffffffffffffff8211156125a2576125a1612508565b5b6125ab82611e35565b9050602081019050919050565b5f6125ca6125c584612588565b612566565b9050828152602081018484840111156125e6576125e5612584565b5b6125f1848285611e27565b509392505050565b5f82601f83011261260d5761260c611cef565b5b815161261d8482602086016125b8565b91505092915050565b61262f81611cba565b8114612639575f80fd5b50565b5f8151905061264a81612626565b92915050565b5f60a0828403121561266557612664612504565b5b61266f60a0612566565b90505f82015167ffffffffffffffff81111561268e5761268d612580565b5b61269a848285016125f9565b5f83015250602082015167ffffffffffffffff8111156126bd576126bc612580565b5b6126c9848285016125f9565b60208301525060406126dd8482850161263c565b60408301525060606126f1848285016124c5565b6060830152506080612705848285016124c5565b60808301525092915050565b5f6020828403121561272657612725611bf9565b5b5f82015167ffffffffffffffff81111561274357612742611bfd565b5b61274f84828501612650565b91505092915050565b61276181611c34565b82525050565b5f61278161277c61277784611cba565b611efe565b611c01565b9050919050565b61279181612767565b82525050565b5f60a0820190506127aa5f830188611eab565b6127b76020830187611eab565b6127c46040830186612758565b6127d16060830185612788565b6127de6080830184611eab565b9695505050505050565b7f4e487b71000000000000000000000000000000000000000000000000000000005f52601260045260245ffd5b5f61281f82611c01565b915061282a83611c01565b92508261283a576128396127e8565b5b828204905092915050565b5f61284f82611cba565b915061285a83611cba565b9250828203905061ffff8111156128745761287361216c565b5b92915050565b61288381611dba565b811461288d575f80fd5b50565b5f8151905061289e8161287a565b92915050565b5f602082840312156128b9576128b8611bf9565b5b5f6128c684828501612890565b91505092915050565b6128d88161207c565b81146128e2575f80fd5b50565b5f815190506128f3816128cf565b92915050565b5f6020828403121561290e5761290d611bf9565b5b5f61291b848285016128e5565b91505092915050565b5f61292e82611f28565b9050919050565b61293e81612924565b82525050565b5f6060820190506129575f830186611dcb565b6129646020830185612935565b6129716040830184611eab565b949350505050565b7f4c6561736541677265656d656e743a204f6e6c7920637573746f6d65722063615f8201527f6e206c656173652061206e657720636172000000000000000000000000000000602082015250565b5f6129d36031836120ce565b91506129de82612979565b604082019050919050565b5f6020820190508181035f830152612a00816129c7565b9050919050565b5f606082019050612a1a5f830186612935565b612a276020830185612935565b612a346040830184611eab565b949350505050565b7f4c6561736541677265656d656e743a204f6e6c7920637573746f6d65722063615f8201527f6e20706179000000000000000000000000000000000000000000000000000000602082015250565b5f612a966025836120ce565b9150612aa182612a3c565b604082019050919050565b5f6020820190508181035f830152612ac381612a8a565b9050919050565b7f4c6561736541677265656d656e743a205061796d656e7420697320746f6f206c5f8201527f6f77000000000000000000000000000000000000000000000000000000000000602082015250565b5f612b246022836120ce565b9150612b2f82612aca565b604082019050919050565b5f6020820190508181035f830152612b5181612b18565b9050919050565b7f4c6561736541677265656d656e743a204c6561736520616c72656164792070615f8201527f696420666f720000000000000000000000000000000000000000000000000000602082015250565b5f612bb26026836120ce565b9150612bbd82612b58565b604082019050919050565b5f6020820190508181035f830152612bdf81612ba6565b9050919050565b7f4e487b71000000000000000000000000000000000000000000000000000000005f52602260045260245ffd5b5f6002820490506001821680612c2a57607f821691505b602082108103612c3d57612c3c612be6565b5b50919050565b5f606082019050612c565f830186611eab565b612c636020830185612935565b612c706040830184612935565b949350505050565b7f4c6561736541677265656d656e743a20496e76616c69642063686f69636520665f8201527f6f72206d696c6561676520636170000000000000000000000000000000000000602082015250565b5f612cd2602e836120ce565b9150612cdd82612c78565b604082019050919050565b5f6020820190508181035f830152612cff81612cc6565b9050919050565b7f4e487b71000000000000000000000000000000000000000000000000000000005f52603260045260245ffdfea2646970667358221220633769fc3c4b9f7d66edea5dfa0561d19242094f3b97ff1d76110129fb3ab09d64736f6c634300081a0033",
			"opcodes": "PUSH1 0xE0 PUSH1 0x40 MSTORE PUSH1 0x40 MLOAD DUP1 PUSH1 0x80 ADD PUSH1 0x40 MSTORE DUP1 PUSH1 0x1 PUSH1 0xFF AND DUP2 MSTORE PUSH1 0x20 ADD PUSH1 0x3 PUSH1 0xFF AND DUP2 MSTORE PUSH1 0x20 ADD PUSH1 0x6 PUSH1 0xFF AND DUP2 MSTORE PUSH1 0x20 ADD PUSH1 0xC PUSH1 0xFF AND DUP2 MSTORE POP PUSH1 0x7 SWAP1 PUSH1 0x4 PUSH2 0x45 SWAP3 SWAP2 SWAP1 PUSH2 0x759 JUMP JUMPDEST POP PUSH1 0x40 MLOAD DUP1 PUSH2 0x100 ADD PUSH1 0x40 MSTORE DUP1 PUSH2 0xBB8 PUSH2 0xFFFF AND DUP2 MSTORE PUSH1 0x20 ADD PUSH2 0xFA0 PUSH2 0xFFFF AND DUP2 MSTORE PUSH1 0x20 ADD PUSH2 0x1388 PUSH2 0xFFFF AND DUP2 MSTORE PUSH1 0x20 ADD PUSH2 0x1770 PUSH2 0xFFFF AND DUP2 MSTORE PUSH1 0x20 ADD PUSH2 0x1B58 PUSH2 0xFFFF AND DUP2 MSTORE PUSH1 0x20 ADD PUSH2 0x1F40 PUSH2 0xFFFF AND DUP2 MSTORE PUSH1 0x20 ADD PUSH2 0x2328 PUSH2 0xFFFF AND DUP2 MSTORE PUSH1 0x20 ADD PUSH2 0x2710 PUSH2 0xFFFF AND DUP2 MSTORE POP PUSH1 0x8 SWAP1 PUSH1 0x8 PUSH2 0xC0 SWAP3 SWAP2 SWAP1 PUSH2 0x7F4 JUMP JUMPDEST POP CALLVALUE DUP1 ISZERO PUSH2 0xCC JUMPI PUSH0 DUP1 REVERT JUMPDEST POP PUSH1 0x40 MLOAD PUSH2 0x4128 CODESIZE SUB DUP1 PUSH2 0x4128 DUP4 CODECOPY DUP2 DUP2 ADD PUSH1 0x40 MSTORE DUP2 ADD SWAP1 PUSH2 0xEE SWAP2 SWAP1 PUSH2 0x97F JUMP JUMPDEST TIMESTAMP PUSH1 0xC0 DUP2 DUP2 MSTORE POP POP PUSH1 0xA PUSH1 0x3 DUP2 SWAP1 SSTORE POP DUP1 PUSH20 0xFFFFFFFFFFFFFFFFFFFFFFFFFFFFFFFFFFFFFFFF AND PUSH1 0x80 DUP2 PUSH20 0xFFFFFFFFFFFFFFFFFFFFFFFFFFFFFFFFFFFFFFFF AND DUP2 MSTORE POP POP DUP6 PUSH1 0x9 PUSH1 0x7 PUSH2 0x100 EXP DUP2 SLOAD DUP2 PUSH20 0xFFFFFFFFFFFFFFFFFFFFFFFFFFFFFFFFFFFFFFFF MUL NOT AND SWAP1 DUP4 PUSH20 0xFFFFFFFFFFFFFFFFFFFFFFFFFFFFFFFFFFFFFFFF AND MUL OR SWAP1 SSTORE POP PUSH1 0x9 PUSH1 0x7 SWAP1 SLOAD SWAP1 PUSH2 0x100 EXP SWAP1 DIV PUSH20 0xFFFFFFFFFFFFFFFFFFFFFFFFFFFFFFFFFFFFFFFF AND PUSH20 0xFFFFFFFFFFFFFFFFFFFFFFFFFFFFFFFFFFFFFFFF AND PUSH4 0xEF555BC1 DUP7 PUSH1 0x40 MLOAD DUP3 PUSH4 0xFFFFFFFF AND PUSH1 0xE0 SHL DUP2 MSTORE PUSH1 0x4 ADD PUSH2 0x1CE SWAP2 SWAP1 PUSH2 0xA17 JUMP JUMPDEST PUSH0 PUSH1 0x40 MLOAD DUP1 DUP4 SUB DUP2 DUP7 GAS STATICCALL ISZERO DUP1 ISZERO PUSH2 0x1E8 JUMPI RETURNDATASIZE PUSH0 DUP1 RETURNDATACOPY RETURNDATASIZE PUSH0 REVERT JUMPDEST POP POP POP POP PUSH1 0x40 MLOAD RETURNDATASIZE PUSH0 DUP3 RETURNDATACOPY RETURNDATASIZE PUSH1 0x1F NOT PUSH1 0x1F DUP3 ADD AND DUP3 ADD DUP1 PUSH1 0x40 MSTORE POP DUP2 ADD SWAP1 PUSH2 0x210 SWAP2 SWAP1 PUSH2 0xC6C JUMP JUMPDEST PUSH1 0xA PUSH0 DUP3 ADD MLOAD DUP2 PUSH0 ADD SWAP1 DUP2 PUSH2 0x225 SWAP2 SWAP1 PUSH2 0xEB7 JUMP JUMPDEST POP PUSH1 0x20 DUP3 ADD MLOAD DUP2 PUSH1 0x1 ADD SWAP1 DUP2 PUSH2 0x23B SWAP2 SWAP1 PUSH2 0xEB7 JUMP JUMPDEST POP PUSH1 0x40 DUP3 ADD MLOAD DUP2 PUSH1 0x2 ADD PUSH0 PUSH2 0x100 EXP DUP2 SLOAD DUP2 PUSH2 0xFFFF MUL NOT AND SWAP1 DUP4 PUSH2 0xFFFF AND MUL OR SWAP1 SSTORE POP PUSH1 0x60 DUP3 ADD MLOAD DUP2 PUSH1 0x3 ADD SSTORE PUSH1 0x80 DUP3 ADD MLOAD DUP2 PUSH1 0x4 ADD SSTORE SWAP1 POP POP DUP5 PUSH1 0xF DUP2 SWAP1 SSTORE POP PUSH1 0x9 PUSH1 0x7 SWAP1 SLOAD SWAP1 PUSH2 0x100 EXP SWAP1 DIV PUSH20 0xFFFFFFFFFFFFFFFFFFFFFFFFFFFFFFFFFFFFFFFF AND PUSH20 0xFFFFFFFFFFFFFFFFFFFFFFFFFFFFFFFFFFFFFFFF AND PUSH4 0x93678237 DUP7 PUSH1 0x40 MLOAD DUP3 PUSH4 0xFFFFFFFF AND PUSH1 0xE0 SHL DUP2 MSTORE PUSH1 0x4 ADD PUSH2 0x2D7 SWAP2 SWAP1 PUSH2 0xA17 JUMP JUMPDEST PUSH1 0x20 PUSH1 0x40 MLOAD DUP1 DUP4 SUB DUP2 DUP7 GAS STATICCALL ISZERO DUP1 ISZERO PUSH2 0x2F2 JUMPI RETURNDATASIZE PUSH0 DUP1 RETURNDATACOPY RETURNDATASIZE PUSH0 REVERT JUMPDEST POP POP POP POP PUSH1 0x40 MLOAD RETURNDATASIZE PUSH1 0x1F NOT PUSH1 0x1F DUP3 ADD AND DUP3 ADD DUP1 PUSH1 0x40 MSTORE POP DUP2 ADD SWAP1 PUSH2 0x316 SWAP2 SWAP1 PUSH2 0xF86 JUMP JUMPDEST PUSH20 0xFFFFFFFFFFFFFFFFFFFFFFFFFFFFFFFFFFFFFFFF AND CALLER PUSH20 0xFFFFFFFFFFFFFFFFFFFFFFFFFFFFFFFFFFFFFFFF AND EQ PUSH2 0x383 JUMPI PUSH1 0x40 MLOAD PUSH32 0x8C379A000000000000000000000000000000000000000000000000000000000 DUP2 MSTORE PUSH1 0x4 ADD PUSH2 0x37A SWAP1 PUSH2 0x1031 JUMP JUMPDEST PUSH1 0x40 MLOAD DUP1 SWAP2 SUB SWAP1 REVERT JUMPDEST PUSH2 0x3F7 DUP4 PUSH1 0x7 PUSH1 0x4 DUP1 PUSH1 0x20 MUL PUSH1 0x40 MLOAD SWAP1 DUP2 ADD PUSH1 0x40 MSTORE DUP1 SWAP3 SWAP2 SWAP1 DUP3 PUSH1 0x4 DUP1 ISZERO PUSH2 0x3E7 JUMPI PUSH1 0x20 MUL DUP3 ADD SWAP2 PUSH0 SWAP1 JUMPDEST DUP3 DUP3 SWAP1 SLOAD SWAP1 PUSH2 0x100 EXP SWAP1 DIV PUSH2 0xFFFF AND PUSH2 0xFFFF AND DUP2 MSTORE PUSH1 0x20 ADD SWAP1 PUSH1 0x2 ADD SWAP1 PUSH1 0x20 DUP3 PUSH1 0x1 ADD DIV SWAP3 DUP4 ADD SWAP3 PUSH1 0x1 SUB DUP3 MUL SWAP2 POP DUP1 DUP5 GT PUSH2 0x3AE JUMPI SWAP1 POP JUMPDEST POP POP POP POP POP PUSH2 0x5C7 PUSH1 0x20 SHL PUSH1 0x20 SHR JUMP JUMPDEST PUSH1 0x9 PUSH0 PUSH2 0x100 EXP DUP2 SLOAD DUP2 PUSH2 0xFFFF MUL NOT AND SWAP1 DUP4 PUSH2 0xFFFF AND MUL OR SWAP1 SSTORE POP PUSH2 0x485 DUP3 PUSH1 0x8 DUP1 DUP1 PUSH1 0x20 MUL PUSH1 0x40 MLOAD SWAP1 DUP2 ADD PUSH1 0x40 MSTORE DUP1 SWAP3 SWAP2 SWAP1 DUP3 PUSH1 0x8 DUP1 ISZERO PUSH2 0x475 JUMPI PUSH1 0x20 MUL DUP3 ADD SWAP2 PUSH0 SWAP1 JUMPDEST DUP3 DUP3 SWAP1 SLOAD SWAP1 PUSH2 0x100 EXP SWAP1 DIV PUSH2 0xFFFF AND PUSH2 0xFFFF AND DUP2 MSTORE PUSH1 0x20 ADD SWAP1 PUSH1 0x2 ADD SWAP1 PUSH1 0x20 DUP3 PUSH1 0x1 ADD DIV SWAP3 DUP4 ADD SWAP3 PUSH1 0x1 SUB DUP3 MUL SWAP2 POP DUP1 DUP5 GT PUSH2 0x43C JUMPI SWAP1 POP JUMPDEST POP POP POP POP POP PUSH2 0x690 PUSH1 0x20 SHL PUSH1 0x20 SHR JUMP JUMPDEST PUSH1 0x9 PUSH1 0x2 PUSH2 0x100 EXP DUP2 SLOAD DUP2 PUSH2 0xFFFF MUL NOT AND SWAP1 DUP4 PUSH2 0xFFFF AND MUL OR SWAP1 SSTORE POP PUSH1 0x9 PUSH1 0x7 SWAP1 SLOAD SWAP1 PUSH2 0x100 EXP SWAP1 DIV PUSH20 0xFFFFFFFFFFFFFFFFFFFFFFFFFFFFFFFFFFFFFFFF AND PUSH20 0xFFFFFFFFFFFFFFFFFFFFFFFFFFFFFFFFFFFFFFFF AND PUSH4 0xD57FA07D PUSH1 0xA PUSH1 0x3 ADD SLOAD PUSH1 0xA PUSH1 0x4 ADD SLOAD DUP8 PUSH1 0x9 PUSH1 0x2 SWAP1 SLOAD SWAP1 PUSH2 0x100 EXP SWAP1 DIV PUSH2 0xFFFF AND PUSH1 0x9 PUSH0 SWAP1 SLOAD SWAP1 PUSH2 0x100 EXP SWAP1 DIV PUSH2 0xFFFF AND PUSH1 0x40 MLOAD DUP7 PUSH4 0xFFFFFFFF AND PUSH1 0xE0 SHL DUP2 MSTORE PUSH1 0x4 ADD PUSH2 0x52D SWAP6 SWAP5 SWAP4 SWAP3 SWAP2 SWAP1 PUSH2 0x108E JUMP JUMPDEST PUSH1 0x20 PUSH1 0x40 MLOAD DUP1 DUP4 SUB DUP2 DUP7 GAS STATICCALL ISZERO DUP1 ISZERO PUSH2 0x548 JUMPI RETURNDATASIZE PUSH0 DUP1 RETURNDATACOPY RETURNDATASIZE PUSH0 REVERT JUMPDEST POP POP POP POP PUSH1 0x40 MLOAD RETURNDATASIZE PUSH1 0x1F NOT PUSH1 0x1F DUP3 ADD AND DUP3 ADD DUP1 PUSH1 0x40 MSTORE POP DUP2 ADD SWAP1 PUSH2 0x56C SWAP2 SWAP1 PUSH2 0x10DF JUMP JUMPDEST PUSH1 0x1 DUP2 SWAP1 SSTORE POP PUSH0 PUSH1 0x9 PUSH1 0x5 PUSH2 0x100 EXP DUP2 SLOAD DUP2 PUSH1 0xFF MUL NOT AND SWAP1 DUP4 ISZERO ISZERO MUL OR SWAP1 SSTORE POP PUSH0 PUSH1 0x9 PUSH1 0x6 PUSH2 0x100 EXP DUP2 SLOAD DUP2 PUSH1 0xFF MUL NOT AND SWAP1 DUP4 ISZERO ISZERO MUL OR SWAP1 SSTORE POP PUSH1 0x3 PUSH1 0x1 SLOAD PUSH2 0x5B5 SWAP2 SWAP1 PUSH2 0x1137 JUMP JUMPDEST PUSH1 0xA0 DUP2 DUP2 MSTORE POP POP POP POP POP POP POP POP PUSH2 0x134F JUMP JUMPDEST PUSH0 PUSH1 0x9 PUSH1 0x6 SWAP1 SLOAD SWAP1 PUSH2 0x100 EXP SWAP1 DIV PUSH1 0xFF AND ISZERO PUSH2 0x618 JUMPI PUSH1 0x40 MLOAD PUSH32 0x8C379A000000000000000000000000000000000000000000000000000000000 DUP2 MSTORE PUSH1 0x4 ADD PUSH2 0x60F SWAP1 PUSH2 0x11E8 JUMP JUMPDEST PUSH1 0x40 MLOAD DUP1 SWAP2 SUB SWAP1 REVERT JUMPDEST PUSH0 DUP4 PUSH1 0xFF AND LT ISZERO DUP1 ISZERO PUSH2 0x62E JUMPI POP PUSH1 0x4 DUP4 PUSH1 0xFF AND LT JUMPDEST PUSH2 0x66D JUMPI PUSH1 0x40 MLOAD PUSH32 0x8C379A000000000000000000000000000000000000000000000000000000000 DUP2 MSTORE PUSH1 0x4 ADD PUSH2 0x664 SWAP1 PUSH2 0x1276 JUMP JUMPDEST PUSH1 0x40 MLOAD DUP1 SWAP2 SUB SWAP1 REVERT JUMPDEST DUP2 DUP4 PUSH1 0xFF AND PUSH1 0x4 DUP2 LT PUSH2 0x683 JUMPI PUSH2 0x682 PUSH2 0x1294 JUMP JUMPDEST JUMPDEST PUSH1 0x20 MUL ADD MLOAD SWAP1 POP SWAP3 SWAP2 POP POP JUMP JUMPDEST PUSH0 PUSH1 0x9 PUSH1 0x6 SWAP1 SLOAD SWAP1 PUSH2 0x100 EXP SWAP1 DIV PUSH1 0xFF AND ISZERO PUSH2 0x6E1 JUMPI PUSH1 0x40 MLOAD PUSH32 0x8C379A000000000000000000000000000000000000000000000000000000000 DUP2 MSTORE PUSH1 0x4 ADD PUSH2 0x6D8 SWAP1 PUSH2 0x11E8 JUMP JUMPDEST PUSH1 0x40 MLOAD DUP1 SWAP2 SUB SWAP1 REVERT JUMPDEST PUSH0 DUP4 PUSH1 0xFF AND LT ISZERO DUP1 ISZERO PUSH2 0x6F7 JUMPI POP PUSH1 0x8 DUP4 PUSH1 0xFF AND LT JUMPDEST PUSH2 0x736 JUMPI PUSH1 0x40 MLOAD PUSH32 0x8C379A000000000000000000000000000000000000000000000000000000000 DUP2 MSTORE PUSH1 0x4 ADD PUSH2 0x72D SWAP1 PUSH2 0x1331 JUMP JUMPDEST PUSH1 0x40 MLOAD DUP1 SWAP2 SUB SWAP1 REVERT JUMPDEST DUP2 DUP4 PUSH1 0xFF AND PUSH1 0x8 DUP2 LT PUSH2 0x74C JUMPI PUSH2 0x74B PUSH2 0x1294 JUMP JUMPDEST JUMPDEST PUSH1 0x20 MUL ADD MLOAD SWAP1 POP SWAP3 SWAP2 POP POP JUMP JUMPDEST DUP3 PUSH1 0x4 PUSH1 0xF ADD PUSH1 0x10 SWAP1 DIV DUP2 ADD SWAP3 DUP3 ISZERO PUSH2 0x7E3 JUMPI SWAP2 PUSH1 0x20 MUL DUP3 ADD PUSH0 JUMPDEST DUP4 DUP3 GT ISZERO PUSH2 0x7B3 JUMPI DUP4 MLOAD DUP4 DUP3 PUSH2 0x100 EXP DUP2 SLOAD DUP2 PUSH2 0xFFFF MUL NOT AND SWAP1 DUP4 PUSH1 0xFF AND MUL OR SWAP1 SSTORE POP SWAP3 PUSH1 0x20 ADD SWAP3 PUSH1 0x2 ADD PUSH1 0x20 DUP2 PUSH1 0x1 ADD DIV SWAP3 DUP4 ADD SWAP3 PUSH1 0x1 SUB MUL PUSH2 0x774 JUMP JUMPDEST DUP1 ISZERO PUSH2 0x7E1 JUMPI DUP3 DUP2 PUSH2 0x100 EXP DUP2 SLOAD SWAP1 PUSH2 0xFFFF MUL NOT AND SWAP1 SSTORE PUSH1 0x2 ADD PUSH1 0x20 DUP2 PUSH1 0x1 ADD DIV SWAP3 DUP4 ADD SWAP3 PUSH1 0x1 SUB MUL PUSH2 0x7B3 JUMP JUMPDEST POP JUMPDEST POP SWAP1 POP PUSH2 0x7F0 SWAP2 SWAP1 PUSH2 0x890 JUMP JUMPDEST POP SWAP1 JUMP JUMPDEST DUP3 PUSH1 0x8 PUSH1 0xF ADD PUSH1 0x10 SWAP1 DIV DUP2 ADD SWAP3 DUP3 ISZERO PUSH2 0x87F JUMPI SWAP2 PUSH1 0x20 MUL DUP3 ADD PUSH0 JUMPDEST DUP4 DUP3 GT ISZERO PUSH2 0x84F JUMPI DUP4 MLOAD DUP4 DUP3 PUSH2 0x100 EXP DUP2 SLOAD DUP2 PUSH2 0xFFFF MUL NOT AND SWAP1 DUP4 PUSH2 0xFFFF AND MUL OR SWAP1 SSTORE POP SWAP3 PUSH1 0x20 ADD SWAP3 PUSH1 0x2 ADD PUSH1 0x20 DUP2 PUSH1 0x1 ADD DIV SWAP3 DUP4 ADD SWAP3 PUSH1 0x1 SUB MUL PUSH2 0x80F JUMP JUMPDEST DUP1 ISZERO PUSH2 0x87D JUMPI DUP3 DUP2 PUSH2 0x100 EXP DUP2 SLOAD SWAP1 PUSH2 0xFFFF MUL NOT AND SWAP1 SSTORE PUSH1 0x2 ADD PUSH1 0x20 DUP2 PUSH1 0x1 ADD DIV SWAP3 DUP4 ADD SWAP3 PUSH1 0x1 SUB MUL PUSH2 0x84F JUMP JUMPDEST POP JUMPDEST POP SWAP1 POP PUSH2 0x88C SWAP2 SWAP1 PUSH2 0x890 JUMP JUMPDEST POP SWAP1 JUMP JUMPDEST JUMPDEST DUP1 DUP3 GT ISZERO PUSH2 0x8A7 JUMPI PUSH0 DUP2 PUSH0 SWAP1 SSTORE POP PUSH1 0x1 ADD PUSH2 0x891 JUMP JUMPDEST POP SWAP1 JUMP JUMPDEST PUSH0 PUSH1 0x40 MLOAD SWAP1 POP SWAP1 JUMP JUMPDEST PUSH0 DUP1 REVERT JUMPDEST PUSH0 DUP1 REVERT JUMPDEST PUSH0 PUSH20 0xFFFFFFFFFFFFFFFFFFFFFFFFFFFFFFFFFFFFFFFF DUP3 AND SWAP1 POP SWAP2 SWAP1 POP JUMP JUMPDEST PUSH0 PUSH2 0x8E5 DUP3 PUSH2 0x8BC JUMP JUMPDEST SWAP1 POP SWAP2 SWAP1 POP JUMP JUMPDEST PUSH2 0x8F5 DUP2 PUSH2 0x8DB JUMP JUMPDEST DUP2 EQ PUSH2 0x8FF JUMPI PUSH0 DUP1 REVERT JUMPDEST POP JUMP JUMPDEST PUSH0 DUP2 MLOAD SWAP1 POP PUSH2 0x910 DUP2 PUSH2 0x8EC JUMP JUMPDEST SWAP3 SWAP2 POP POP JUMP JUMPDEST PUSH0 DUP2 SWAP1 POP SWAP2 SWAP1 POP JUMP JUMPDEST PUSH2 0x928 DUP2 PUSH2 0x916 JUMP JUMPDEST DUP2 EQ PUSH2 0x932 JUMPI PUSH0 DUP1 REVERT JUMPDEST POP JUMP JUMPDEST PUSH0 DUP2 MLOAD SWAP1 POP PUSH2 0x943 DUP2 PUSH2 0x91F JUMP JUMPDEST SWAP3 SWAP2 POP POP JUMP JUMPDEST PUSH0 PUSH1 0xFF DUP3 AND SWAP1 POP SWAP2 SWAP1 POP JUMP JUMPDEST PUSH2 0x95E DUP2 PUSH2 0x949 JUMP JUMPDEST DUP2 EQ PUSH2 0x968 JUMPI PUSH0 DUP1 REVERT JUMPDEST POP JUMP JUMPDEST PUSH0 DUP2 MLOAD SWAP1 POP PUSH2 0x979 DUP2 PUSH2 0x955 JUMP JUMPDEST SWAP3 SWAP2 POP POP JUMP JUMPDEST PUSH0 DUP1 PUSH0 DUP1 PUSH0 DUP1 PUSH1 0xC0 DUP8 DUP10 SUB SLT ISZERO PUSH2 0x999 JUMPI PUSH2 0x998 PUSH2 0x8B4 JUMP JUMPDEST JUMPDEST PUSH0 PUSH2 0x9A6 DUP10 DUP3 DUP11 ADD PUSH2 0x902 JUMP JUMPDEST SWAP7 POP POP PUSH1 0x20 PUSH2 0x9B7 DUP10 DUP3 DUP11 ADD PUSH2 0x935 JUMP JUMPDEST SWAP6 POP POP PUSH1 0x40 PUSH2 0x9C8 DUP10 DUP3 DUP11 ADD PUSH2 0x96B JUMP JUMPDEST SWAP5 POP POP PUSH1 0x60 PUSH2 0x9D9 DUP10 DUP3 DUP11 ADD PUSH2 0x96B JUMP JUMPDEST SWAP4 POP POP PUSH1 0x80 PUSH2 0x9EA DUP10 DUP3 DUP11 ADD PUSH2 0x96B JUMP JUMPDEST SWAP3 POP POP PUSH1 0xA0 PUSH2 0x9FB DUP10 DUP3 DUP11 ADD PUSH2 0x902 JUMP JUMPDEST SWAP2 POP POP SWAP3 SWAP6 POP SWAP3 SWAP6 POP SWAP3 SWAP6 JUMP JUMPDEST PUSH2 0xA11 DUP2 PUSH2 0x916 JUMP JUMPDEST DUP3 MSTORE POP POP JUMP JUMPDEST PUSH0 PUSH1 0x20 DUP3 ADD SWAP1 POP PUSH2 0xA2A PUSH0 DUP4 ADD DUP5 PUSH2 0xA08 JUMP JUMPDEST SWAP3 SWAP2 POP POP JUMP JUMPDEST PUSH0 DUP1 REVERT JUMPDEST PUSH0 PUSH1 0x1F NOT PUSH1 0x1F DUP4 ADD AND SWAP1 POP SWAP2 SWAP1 POP JUMP JUMPDEST PUSH32 0x4E487B7100000000000000000000000000000000000000000000000000000000 PUSH0 MSTORE PUSH1 0x41 PUSH1 0x4 MSTORE PUSH1 0x24 PUSH0 REVERT JUMPDEST PUSH2 0xA7A DUP3 PUSH2 0xA34 JUMP JUMPDEST DUP2 ADD DUP2 DUP2 LT PUSH8 0xFFFFFFFFFFFFFFFF DUP3 GT OR ISZERO PUSH2 0xA99 JUMPI PUSH2 0xA98 PUSH2 0xA44 JUMP JUMPDEST JUMPDEST DUP1 PUSH1 0x40 MSTORE POP POP POP JUMP JUMPDEST PUSH0 PUSH2 0xAAB PUSH2 0x8AB JUMP JUMPDEST SWAP1 POP PUSH2 0xAB7 DUP3 DUP3 PUSH2 0xA71 JUMP JUMPDEST SWAP2 SWAP1 POP JUMP JUMPDEST PUSH0 DUP1 REVERT JUMPDEST PUSH0 DUP1 REVERT JUMPDEST PUSH0 DUP1 REVERT JUMPDEST PUSH0 PUSH8 0xFFFFFFFFFFFFFFFF DUP3 GT ISZERO PUSH2 0xAE2 JUMPI PUSH2 0xAE1 PUSH2 0xA44 JUMP JUMPDEST JUMPDEST PUSH2 0xAEB DUP3 PUSH2 0xA34 JUMP JUMPDEST SWAP1 POP PUSH1 0x20 DUP2 ADD SWAP1 POP SWAP2 SWAP1 POP JUMP JUMPDEST DUP3 DUP2 DUP4 MCOPY PUSH0 DUP4 DUP4 ADD MSTORE POP POP POP JUMP JUMPDEST PUSH0 PUSH2 0xB18 PUSH2 0xB13 DUP5 PUSH2 0xAC8 JUMP JUMPDEST PUSH2 0xAA2 JUMP JUMPDEST SWAP1 POP DUP3 DUP2 MSTORE PUSH1 0x20 DUP2 ADD DUP5 DUP5 DUP5 ADD GT ISZERO PUSH2 0xB34 JUMPI PUSH2 0xB33 PUSH2 0xAC4 JUMP JUMPDEST JUMPDEST PUSH2 0xB3F DUP5 DUP3 DUP6 PUSH2 0xAF8 JUMP JUMPDEST POP SWAP4 SWAP3 POP POP POP JUMP JUMPDEST PUSH0 DUP3 PUSH1 0x1F DUP4 ADD SLT PUSH2 0xB5B JUMPI PUSH2 0xB5A PUSH2 0xAC0 JUMP JUMPDEST JUMPDEST DUP2 MLOAD PUSH2 0xB6B DUP5 DUP3 PUSH1 0x20 DUP7 ADD PUSH2 0xB06 JUMP JUMPDEST SWAP2 POP POP SWAP3 SWAP2 POP POP JUMP JUMPDEST PUSH0 PUSH2 0xFFFF DUP3 AND SWAP1 POP SWAP2 SWAP1 POP JUMP JUMPDEST PUSH2 0xB8A DUP2 PUSH2 0xB74 JUMP JUMPDEST DUP2 EQ PUSH2 0xB94 JUMPI PUSH0 DUP1 REVERT JUMPDEST POP JUMP JUMPDEST PUSH0 DUP2 MLOAD SWAP1 POP PUSH2 0xBA5 DUP2 PUSH2 0xB81 JUMP JUMPDEST SWAP3 SWAP2 POP POP JUMP JUMPDEST PUSH0 PUSH1 0xA0 DUP3 DUP5 SUB SLT ISZERO PUSH2 0xBC0 JUMPI PUSH2 0xBBF PUSH2 0xA30 JUMP JUMPDEST JUMPDEST PUSH2 0xBCA PUSH1 0xA0 PUSH2 0xAA2 JUMP JUMPDEST SWAP1 POP PUSH0 DUP3 ADD MLOAD PUSH8 0xFFFFFFFFFFFFFFFF DUP2 GT ISZERO PUSH2 0xBE9 JUMPI PUSH2 0xBE8 PUSH2 0xABC JUMP JUMPDEST JUMPDEST PUSH2 0xBF5 DUP5 DUP3 DUP6 ADD PUSH2 0xB47 JUMP JUMPDEST PUSH0 DUP4 ADD MSTORE POP PUSH1 0x20 DUP3 ADD MLOAD PUSH8 0xFFFFFFFFFFFFFFFF DUP2 GT ISZERO PUSH2 0xC18 JUMPI PUSH2 0xC17 PUSH2 0xABC JUMP JUMPDEST JUMPDEST PUSH2 0xC24 DUP5 DUP3 DUP6 ADD PUSH2 0xB47 JUMP JUMPDEST PUSH1 0x20 DUP4 ADD MSTORE POP PUSH1 0x40 PUSH2 0xC38 DUP5 DUP3 DUP6 ADD PUSH2 0xB97 JUMP JUMPDEST PUSH1 0x40 DUP4 ADD MSTORE POP PUSH1 0x60 PUSH2 0xC4C DUP5 DUP3 DUP6 ADD PUSH2 0x935 JUMP JUMPDEST PUSH1 0x60 DUP4 ADD MSTORE POP PUSH1 0x80 PUSH2 0xC60 DUP5 DUP3 DUP6 ADD PUSH2 0x935 JUMP JUMPDEST PUSH1 0x80 DUP4 ADD MSTORE POP SWAP3 SWAP2 POP POP JUMP JUMPDEST PUSH0 PUSH1 0x20 DUP3 DUP5 SUB SLT ISZERO PUSH2 0xC81 JUMPI PUSH2 0xC80 PUSH2 0x8B4 JUMP JUMPDEST JUMPDEST PUSH0 DUP3 ADD MLOAD PUSH8 0xFFFFFFFFFFFFFFFF DUP2 GT ISZERO PUSH2 0xC9E JUMPI PUSH2 0xC9D PUSH2 0x8B8 JUMP JUMPDEST JUMPDEST PUSH2 0xCAA DUP5 DUP3 DUP6 ADD PUSH2 0xBAB JUMP JUMPDEST SWAP2 POP POP SWAP3 SWAP2 POP POP JUMP JUMPDEST PUSH0 DUP2 MLOAD SWAP1 POP SWAP2 SWAP1 POP JUMP JUMPDEST PUSH32 0x4E487B7100000000000000000000000000000000000000000000000000000000 PUSH0 MSTORE PUSH1 0x22 PUSH1 0x4 MSTORE PUSH1 0x24 PUSH0 REVERT JUMPDEST PUSH0 PUSH1 0x2 DUP3 DIV SWAP1 POP PUSH1 0x1 DUP3 AND DUP1 PUSH2 0xD01 JUMPI PUSH1 0x7F DUP3 AND SWAP2 POP JUMPDEST PUSH1 0x20 DUP3 LT DUP2 SUB PUSH2 0xD14 JUMPI PUSH2 0xD13 PUSH2 0xCBD JUMP JUMPDEST JUMPDEST POP SWAP2 SWAP1 POP JUMP JUMPDEST PUSH0 DUP2 SWAP1 POP DUP2 PUSH0 MSTORE PUSH1 0x20 PUSH0 KECCAK256 SWAP1 POP SWAP2 SWAP1 POP JUMP JUMPDEST PUSH0 PUSH1 0x20 PUSH1 0x1F DUP4 ADD DIV SWAP1 POP SWAP2 SWAP1 POP JUMP JUMPDEST PUSH0 DUP3 DUP3 SHL SWAP1 POP SWAP3 SWAP2 POP POP JUMP JUMPDEST PUSH0 PUSH1 0x8 DUP4 MUL PUSH2 0xD76 PUSH32 0xFFFFFFFFFFFFFFFFFFFFFFFFFFFFFFFFFFFFFFFFFFFFFFFFFFFFFFFFFFFFFFFF DUP3 PUSH2 0xD3B JUMP JUMPDEST PUSH2 0xD80 DUP7 DUP4 PUSH2 0xD3B JUMP JUMPDEST SWAP6 POP DUP1 NOT DUP5 AND SWAP4 POP DUP1 DUP7 AND DUP5 OR SWAP3 POP POP POP SWAP4 SWAP3 POP POP POP JUMP JUMPDEST PUSH0 DUP2 SWAP1 POP SWAP2 SWAP1 POP JUMP JUMPDEST PUSH0 PUSH2 0xDBB PUSH2 0xDB6 PUSH2 0xDB1 DUP5 PUSH2 0x916 JUMP JUMPDEST PUSH2 0xD98 JUMP JUMPDEST PUSH2 0x916 JUMP JUMPDEST SWAP1 POP SWAP2 SWAP1 POP JUMP JUMPDEST PUSH0 DUP2 SWAP1 POP SWAP2 SWAP1 POP JUMP JUMPDEST PUSH2 0xDD4 DUP4 PUSH2 0xDA1 JUMP JUMPDEST PUSH2 0xDE8 PUSH2 0xDE0 DUP3 PUSH2 0xDC2 JUMP JUMPDEST DUP5 DUP5 SLOAD PUSH2 0xD47 JUMP JUMPDEST DUP3 SSTORE POP POP POP POP JUMP JUMPDEST PUSH0 SWAP1 JUMP JUMPDEST PUSH2 0xDFC PUSH2 0xDF0 JUMP JUMPDEST PUSH2 0xE07 DUP2 DUP5 DUP5 PUSH2 0xDCB JUMP JUMPDEST POP POP POP JUMP JUMPDEST JUMPDEST DUP2 DUP2 LT ISZERO PUSH2 0xE2A JUMPI PUSH2 0xE1F PUSH0 DUP3 PUSH2 0xDF4 JUMP JUMPDEST PUSH1 0x1 DUP2 ADD SWAP1 POP PUSH2 0xE0D JUMP JUMPDEST POP POP JUMP JUMPDEST PUSH1 0x1F DUP3 GT ISZERO PUSH2 0xE6F JUMPI PUSH2 0xE40 DUP2 PUSH2 0xD1A JUMP JUMPDEST PUSH2 0xE49 DUP5 PUSH2 0xD2C JUMP JUMPDEST DUP2 ADD PUSH1 0x20 DUP6 LT ISZERO PUSH2 0xE58 JUMPI DUP2 SWAP1 POP JUMPDEST PUSH2 0xE6C PUSH2 0xE64 DUP6 PUSH2 0xD2C JUMP JUMPDEST DUP4 ADD DUP3 PUSH2 0xE0C JUMP JUMPDEST POP POP JUMPDEST POP POP POP JUMP JUMPDEST PUSH0 DUP3 DUP3 SHR SWAP1 POP SWAP3 SWAP2 POP POP JUMP JUMPDEST PUSH0 PUSH2 0xE8F PUSH0 NOT DUP5 PUSH1 0x8 MUL PUSH2 0xE74 JUMP JUMPDEST NOT DUP1 DUP4 AND SWAP2 POP POP SWAP3 SWAP2 POP POP JUMP JUMPDEST PUSH0 PUSH2 0xEA7 DUP4 DUP4 PUSH2 0xE80 JUMP JUMPDEST SWAP2 POP DUP3 PUSH1 0x2 MUL DUP3 OR SWAP1 POP SWAP3 SWAP2 POP POP JUMP JUMPDEST PUSH2 0xEC0 DUP3 PUSH2 0xCB3 JUMP JUMPDEST PUSH8 0xFFFFFFFFFFFFFFFF DUP2 GT ISZERO PUSH2 0xED9 JUMPI PUSH2 0xED8 PUSH2 0xA44 JUMP JUMPDEST JUMPDEST PUSH2 0xEE3 DUP3 SLOAD PUSH2 0xCEA JUMP JUMPDEST PUSH2 0xEEE DUP3 DUP3 DUP6 PUSH2 0xE2E JUMP JUMPDEST PUSH0 PUSH1 0x20 SWAP1 POP PUSH1 0x1F DUP4 GT PUSH1 0x1 DUP2 EQ PUSH2 0xF1F JUMPI PUSH0 DUP5 ISZERO PUSH2 0xF0D JUMPI DUP3 DUP8 ADD MLOAD SWAP1 POP JUMPDEST PUSH2 0xF17 DUP6 DUP3 PUSH2 0xE9C JUMP JUMPDEST DUP7 SSTORE POP PUSH2 0xF7E JUMP JUMPDEST PUSH1 0x1F NOT DUP5 AND PUSH2 0xF2D DUP7 PUSH2 0xD1A JUMP JUMPDEST PUSH0 JUMPDEST DUP3 DUP2 LT ISZERO PUSH2 0xF54 JUMPI DUP5 DUP10 ADD MLOAD DUP3 SSTORE PUSH1 0x1 DUP3 ADD SWAP2 POP PUSH1 0x20 DUP6 ADD SWAP5 POP PUSH1 0x20 DUP2 ADD SWAP1 POP PUSH2 0xF2F JUMP JUMPDEST DUP7 DUP4 LT ISZERO PUSH2 0xF71 JUMPI DUP5 DUP10 ADD MLOAD PUSH2 0xF6D PUSH1 0x1F DUP10 AND DUP3 PUSH2 0xE80 JUMP JUMPDEST DUP4 SSTORE POP JUMPDEST PUSH1 0x1 PUSH1 0x2 DUP9 MUL ADD DUP9 SSTORE POP POP POP JUMPDEST POP POP POP POP POP POP JUMP JUMPDEST PUSH0 PUSH1 0x20 DUP3 DUP5 SUB SLT ISZERO PUSH2 0xF9B JUMPI PUSH2 0xF9A PUSH2 0x8B4 JUMP JUMPDEST JUMPDEST PUSH0 PUSH2 0xFA8 DUP5 DUP3 DUP6 ADD PUSH2 0x902 JUMP JUMPDEST SWAP2 POP POP SWAP3 SWAP2 POP POP JUMP JUMPDEST PUSH0 DUP3 DUP3 MSTORE PUSH1 0x20 DUP3 ADD SWAP1 POP SWAP3 SWAP2 POP POP JUMP JUMPDEST PUSH32 0x4C6561736541677265656D656E743A2043617220616C7265616479206C656173 PUSH0 DUP3 ADD MSTORE PUSH32 0x6564000000000000000000000000000000000000000000000000000000000000 PUSH1 0x20 DUP3 ADD MSTORE POP JUMP JUMPDEST PUSH0 PUSH2 0x101B PUSH1 0x22 DUP4 PUSH2 0xFB1 JUMP JUMPDEST SWAP2 POP PUSH2 0x1026 DUP3 PUSH2 0xFC1 JUMP JUMPDEST PUSH1 0x40 DUP3 ADD SWAP1 POP SWAP2 SWAP1 POP JUMP JUMPDEST PUSH0 PUSH1 0x20 DUP3 ADD SWAP1 POP DUP2 DUP2 SUB PUSH0 DUP4 ADD MSTORE PUSH2 0x1048 DUP2 PUSH2 0x100F JUMP JUMPDEST SWAP1 POP SWAP2 SWAP1 POP JUMP JUMPDEST PUSH2 0x1058 DUP2 PUSH2 0x949 JUMP JUMPDEST DUP3 MSTORE POP POP JUMP JUMPDEST PUSH0 PUSH2 0x1078 PUSH2 0x1073 PUSH2 0x106E DUP5 PUSH2 0xB74 JUMP JUMPDEST PUSH2 0xD98 JUMP JUMPDEST PUSH2 0x916 JUMP JUMPDEST SWAP1 POP SWAP2 SWAP1 POP JUMP JUMPDEST PUSH2 0x1088 DUP2 PUSH2 0x105E JUMP JUMPDEST DUP3 MSTORE POP POP JUMP JUMPDEST PUSH0 PUSH1 0xA0 DUP3 ADD SWAP1 POP PUSH2 0x10A1 PUSH0 DUP4 ADD DUP9 PUSH2 0xA08 JUMP JUMPDEST PUSH2 0x10AE PUSH1 0x20 DUP4 ADD DUP8 PUSH2 0xA08 JUMP JUMPDEST PUSH2 0x10BB PUSH1 0x40 DUP4 ADD DUP7 PUSH2 0x104F JUMP JUMPDEST PUSH2 0x10C8 PUSH1 0x60 DUP4 ADD DUP6 PUSH2 0x107F JUMP JUMPDEST PUSH2 0x10D5 PUSH1 0x80 DUP4 ADD DUP5 PUSH2 0x107F JUMP JUMPDEST SWAP7 SWAP6 POP POP POP POP POP POP JUMP JUMPDEST PUSH0 PUSH1 0x20 DUP3 DUP5 SUB SLT ISZERO PUSH2 0x10F4 JUMPI PUSH2 0x10F3 PUSH2 0x8B4 JUMP JUMPDEST JUMPDEST PUSH0 PUSH2 0x1101 DUP5 DUP3 DUP6 ADD PUSH2 0x935 JUMP JUMPDEST SWAP2 POP POP SWAP3 SWAP2 POP POP JUMP JUMPDEST PUSH32 0x4E487B7100000000000000000000000000000000000000000000000000000000 PUSH0 MSTORE PUSH1 0x11 PUSH1 0x4 MSTORE PUSH1 0x24 PUSH0 REVERT JUMPDEST PUSH0 PUSH2 0x1141 DUP3 PUSH2 0x916 JUMP JUMPDEST SWAP2 POP PUSH2 0x114C DUP4 PUSH2 0x916 JUMP JUMPDEST SWAP3 POP DUP3 DUP3 MUL PUSH2 0x115A DUP2 PUSH2 0x916 JUMP JUMPDEST SWAP2 POP DUP3 DUP3 DIV DUP5 EQ DUP4 ISZERO OR PUSH2 0x1171 JUMPI PUSH2 0x1170 PUSH2 0x110A JUMP JUMPDEST JUMPDEST POP SWAP3 SWAP2 POP POP JUMP JUMPDEST PUSH32 0x4C6561736541677265656D656E743A20436F6E7472616374207465726D696E61 PUSH0 DUP3 ADD MSTORE PUSH32 0x7465640000000000000000000000000000000000000000000000000000000000 PUSH1 0x20 DUP3 ADD MSTORE POP JUMP JUMPDEST PUSH0 PUSH2 0x11D2 PUSH1 0x23 DUP4 PUSH2 0xFB1 JUMP JUMPDEST SWAP2 POP PUSH2 0x11DD DUP3 PUSH2 0x1178 JUMP JUMPDEST PUSH1 0x40 DUP3 ADD SWAP1 POP SWAP2 SWAP1 POP JUMP JUMPDEST PUSH0 PUSH1 0x20 DUP3 ADD SWAP1 POP DUP2 DUP2 SUB PUSH0 DUP4 ADD MSTORE PUSH2 0x11FF DUP2 PUSH2 0x11C6 JUMP JUMPDEST SWAP1 POP SWAP2 SWAP1 POP JUMP JUMPDEST PUSH32 0x4C6561736541677265656D656E743A20496E76616C69642063686F6963652066 PUSH0 DUP3 ADD MSTORE PUSH32 0x6F7220636F6E7472616374206475726174696F6E000000000000000000000000 PUSH1 0x20 DUP3 ADD MSTORE POP JUMP JUMPDEST PUSH0 PUSH2 0x1260 PUSH1 0x34 DUP4 PUSH2 0xFB1 JUMP JUMPDEST SWAP2 POP PUSH2 0x126B DUP3 PUSH2 0x1206 JUMP JUMPDEST PUSH1 0x40 DUP3 ADD SWAP1 POP SWAP2 SWAP1 POP JUMP JUMPDEST PUSH0 PUSH1 0x20 DUP3 ADD SWAP1 POP DUP2 DUP2 SUB PUSH0 DUP4 ADD MSTORE PUSH2 0x128D DUP2 PUSH2 0x1254 JUMP JUMPDEST SWAP1 POP SWAP2 SWAP1 POP JUMP JUMPDEST PUSH32 0x4E487B7100000000000000000000000000000000000000000000000000000000 PUSH0 MSTORE PUSH1 0x32 PUSH1 0x4 MSTORE PUSH1 0x24 PUSH0 REVERT JUMPDEST PUSH32 0x4C6561736541677265656D656E743A20496E76616C69642063686F6963652066 PUSH0 DUP3 ADD MSTORE PUSH32 0x6F72206D696C6561676520636170000000000000000000000000000000000000 PUSH1 0x20 DUP3 ADD MSTORE POP JUMP JUMPDEST PUSH0 PUSH2 0x131B PUSH1 0x2E DUP4 PUSH2 0xFB1 JUMP JUMPDEST SWAP2 POP PUSH2 0x1326 DUP3 PUSH2 0x12C1 JUMP JUMPDEST PUSH1 0x40 DUP3 ADD SWAP1 POP SWAP2 SWAP1 POP JUMP JUMPDEST PUSH0 PUSH1 0x20 DUP3 ADD SWAP1 POP DUP2 DUP2 SUB PUSH0 DUP4 ADD MSTORE PUSH2 0x1348 DUP2 PUSH2 0x130F JUMP JUMPDEST SWAP1 POP SWAP2 SWAP1 POP JUMP JUMPDEST PUSH1 0x80 MLOAD PUSH1 0xA0 MLOAD PUSH1 0xC0 MLOAD PUSH2 0x2D69 PUSH2 0x13BF PUSH0 CODECOPY PUSH0 PUSH2 0x431 ADD MSTORE PUSH0 DUP2 DUP2 PUSH2 0x4A0 ADD MSTORE DUP2 DUP2 PUSH2 0x518 ADD MSTORE DUP2 DUP2 PUSH2 0xB69 ADD MSTORE DUP2 DUP2 PUSH2 0xEF4 ADD MSTORE PUSH2 0x1648 ADD MSTORE PUSH0 DUP2 DUP2 PUSH2 0x72C ADD MSTORE DUP2 DUP2 PUSH2 0xE0E ADD MSTORE DUP2 DUP2 PUSH2 0xEB7 ADD MSTORE DUP2 DUP2 PUSH2 0x1381 ADD MSTORE DUP2 DUP2 PUSH2 0x17DB ADD MSTORE DUP2 DUP2 PUSH2 0x188E ADD MSTORE PUSH2 0x19BF ADD MSTORE PUSH2 0x2D69 PUSH0 RETURN INVALID PUSH1 0x80 PUSH1 0x40 MSTORE PUSH1 0x4 CALLDATASIZE LT PUSH2 0x113 JUMPI PUSH0 CALLDATALOAD PUSH1 0xE0 SHR DUP1 PUSH4 0xA7A4FB99 GT PUSH2 0x9F JUMPI DUP1 PUSH4 0xDC26BF47 GT PUSH2 0x63 JUMPI DUP1 PUSH4 0xDC26BF47 EQ PUSH2 0x308 JUMPI DUP1 PUSH4 0xE149B822 EQ PUSH2 0x332 JUMPI DUP1 PUSH4 0xF6FEF779 EQ PUSH2 0x35C JUMPI DUP1 PUSH4 0xF707DC1D EQ PUSH2 0x386 JUMPI DUP1 PUSH4 0xF9A96071 EQ PUSH2 0x3B0 JUMPI PUSH2 0x113 JUMP JUMPDEST DUP1 PUSH4 0xA7A4FB99 EQ PUSH2 0x258 JUMPI DUP1 PUSH4 0xCA15C67C EQ PUSH2 0x280 JUMPI DUP1 PUSH4 0xD4805F24 EQ PUSH2 0x2AA JUMPI DUP1 PUSH4 0xD6DD04F7 EQ PUSH2 0x2B4 JUMPI DUP1 PUSH4 0xD9DE1C03 EQ PUSH2 0x2DE JUMPI PUSH2 0x113 JUMP JUMPDEST DUP1 PUSH4 0x4585E33B GT PUSH2 0xE6 JUMPI DUP1 PUSH4 0x4585E33B EQ PUSH2 0x189 JUMPI DUP1 PUSH4 0x581A7310 EQ PUSH2 0x1B1 JUMPI DUP1 PUSH4 0x650D993B EQ PUSH2 0x1C7 JUMPI DUP1 PUSH4 0x6E04FF0D EQ PUSH2 0x1F1 JUMPI DUP1 PUSH4 0x8FC8E811 EQ PUSH2 0x22E JUMPI PUSH2 0x113 JUMP JUMPDEST DUP1 PUSH4 0xF380A56 EQ PUSH2 0x117 JUMPI DUP1 PUSH4 0x1168C9A8 EQ PUSH2 0x121 JUMPI DUP1 PUSH4 0x28062897 EQ PUSH2 0x137 JUMPI DUP1 PUSH4 0x37BEC583 EQ PUSH2 0x15F JUMPI JUMPDEST PUSH0 DUP1 REVERT JUMPDEST PUSH2 0x11F PUSH2 0x3DA JUMP JUMPDEST STOP JUMPDEST CALLVALUE DUP1 ISZERO PUSH2 0x12C JUMPI PUSH0 DUP1 REVERT JUMPDEST POP PUSH2 0x135 PUSH2 0x5F3 JUMP JUMPDEST STOP JUMPDEST CALLVALUE DUP1 ISZERO PUSH2 0x142 JUMPI PUSH0 DUP1 REVERT JUMPDEST POP PUSH2 0x15D PUSH1 0x4 DUP1 CALLDATASIZE SUB DUP2 ADD SWAP1 PUSH2 0x158 SWAP2 SWAP1 PUSH2 0x1C6A JUMP JUMPDEST PUSH2 0x6DA JUMP JUMPDEST STOP JUMPDEST CALLVALUE DUP1 ISZERO PUSH2 0x16A JUMPI PUSH0 DUP1 REVERT JUMPDEST POP PUSH2 0x173 PUSH2 0xAA0 JUMP JUMPDEST PUSH1 0x40 MLOAD PUSH2 0x180 SWAP2 SWAP1 PUSH2 0x1CD6 JUMP JUMPDEST PUSH1 0x40 MLOAD DUP1 SWAP2 SUB SWAP1 RETURN JUMPDEST CALLVALUE DUP1 ISZERO PUSH2 0x194 JUMPI PUSH0 DUP1 REVERT JUMPDEST POP PUSH2 0x1AF PUSH1 0x4 DUP1 CALLDATASIZE SUB DUP2 ADD SWAP1 PUSH2 0x1AA SWAP2 SWAP1 PUSH2 0x1D50 JUMP JUMPDEST PUSH2 0xAB6 JUMP JUMPDEST STOP JUMPDEST CALLVALUE DUP1 ISZERO PUSH2 0x1BC JUMPI PUSH0 DUP1 REVERT JUMPDEST POP PUSH2 0x1C5 PUSH2 0xDBC JUMP JUMPDEST STOP JUMPDEST CALLVALUE DUP1 ISZERO PUSH2 0x1D2 JUMPI PUSH0 DUP1 REVERT JUMPDEST POP PUSH2 0x1DB PUSH2 0x1188 JUMP JUMPDEST PUSH1 0x40 MLOAD PUSH2 0x1E8 SWAP2 SWAP1 PUSH2 0x1DDA JUMP JUMPDEST PUSH1 0x40 MLOAD DUP1 SWAP2 SUB SWAP1 RETURN JUMPDEST CALLVALUE DUP1 ISZERO PUSH2 0x1FC JUMPI PUSH0 DUP1 REVERT JUMPDEST POP PUSH2 0x217 PUSH1 0x4 DUP1 CALLDATASIZE SUB DUP2 ADD SWAP1 PUSH2 0x212 SWAP2 SWAP1 PUSH2 0x1D50 JUMP JUMPDEST PUSH2 0x11AF JUMP JUMPDEST PUSH1 0x40 MLOAD PUSH2 0x225 SWAP3 SWAP2 SWAP1 PUSH2 0x1E7D JUMP JUMPDEST PUSH1 0x40 MLOAD DUP1 SWAP2 SUB SWAP1 RETURN JUMPDEST CALLVALUE DUP1 ISZERO PUSH2 0x239 JUMPI PUSH0 DUP1 REVERT JUMPDEST POP PUSH2 0x242 PUSH2 0x125B JUMP JUMPDEST PUSH1 0x40 MLOAD PUSH2 0x24F SWAP2 SWAP1 PUSH2 0x1EBA JUMP JUMPDEST PUSH1 0x40 MLOAD DUP1 SWAP2 SUB SWAP1 RETURN JUMPDEST CALLVALUE DUP1 ISZERO PUSH2 0x263 JUMPI PUSH0 DUP1 REVERT JUMPDEST POP PUSH2 0x27E PUSH1 0x4 DUP1 CALLDATASIZE SUB DUP2 ADD SWAP1 PUSH2 0x279 SWAP2 SWAP1 PUSH2 0x1ED3 JUMP JUMPDEST PUSH2 0x1264 JUMP JUMPDEST STOP JUMPDEST CALLVALUE DUP1 ISZERO PUSH2 0x28B JUMPI PUSH0 DUP1 REVERT JUMPDEST POP PUSH2 0x294 PUSH2 0x140F JUMP JUMPDEST PUSH1 0x40 MLOAD PUSH2 0x2A1 SWAP2 SWAP1 PUSH2 0x1F59 JUMP JUMPDEST PUSH1 0x40 MLOAD DUP1 SWAP2 SUB SWAP1 RETURN JUMPDEST PUSH2 0x2B2 PUSH2 0x1438 JUMP JUMPDEST STOP JUMPDEST CALLVALUE DUP1 ISZERO PUSH2 0x2BF JUMPI PUSH0 DUP1 REVERT JUMPDEST POP PUSH2 0x2C8 PUSH2 0x1645 JUMP JUMPDEST PUSH1 0x40 MLOAD PUSH2 0x2D5 SWAP2 SWAP1 PUSH2 0x1EBA JUMP JUMPDEST PUSH1 0x40 MLOAD DUP1 SWAP2 SUB SWAP1 RETURN JUMPDEST CALLVALUE DUP1 ISZERO PUSH2 0x2E9 JUMPI PUSH0 DUP1 REVERT JUMPDEST POP PUSH2 0x2F2 PUSH2 0x166C JUMP JUMPDEST PUSH1 0x40 MLOAD PUSH2 0x2FF SWAP2 SWAP1 PUSH2 0x205C JUMP JUMPDEST PUSH1 0x40 MLOAD DUP1 SWAP2 SUB SWAP1 RETURN JUMPDEST CALLVALUE DUP1 ISZERO PUSH2 0x313 JUMPI PUSH0 DUP1 REVERT JUMPDEST POP PUSH2 0x31C PUSH2 0x17D8 JUMP JUMPDEST PUSH1 0x40 MLOAD PUSH2 0x329 SWAP2 SWAP1 PUSH2 0x209C JUMP JUMPDEST PUSH1 0x40 MLOAD DUP1 SWAP2 SUB SWAP1 RETURN JUMPDEST CALLVALUE DUP1 ISZERO PUSH2 0x33D JUMPI PUSH0 DUP1 REVERT JUMPDEST POP PUSH2 0x346 PUSH2 0x17FF JUMP JUMPDEST PUSH1 0x40 MLOAD PUSH2 0x353 SWAP2 SWAP1 PUSH2 0x1CD6 JUMP JUMPDEST PUSH1 0x40 MLOAD DUP1 SWAP2 SUB SWAP1 RETURN JUMPDEST CALLVALUE DUP1 ISZERO PUSH2 0x367 JUMPI PUSH0 DUP1 REVERT JUMPDEST POP PUSH2 0x370 PUSH2 0x1816 JUMP JUMPDEST PUSH1 0x40 MLOAD PUSH2 0x37D SWAP2 SWAP1 PUSH2 0x1EBA JUMP JUMPDEST PUSH1 0x40 MLOAD DUP1 SWAP2 SUB SWAP1 RETURN JUMPDEST CALLVALUE DUP1 ISZERO PUSH2 0x391 JUMPI PUSH0 DUP1 REVERT JUMPDEST POP PUSH2 0x39A PUSH2 0x181F JUMP JUMPDEST PUSH1 0x40 MLOAD PUSH2 0x3A7 SWAP2 SWAP1 PUSH2 0x20B5 JUMP JUMPDEST PUSH1 0x40 MLOAD DUP1 SWAP2 SUB SWAP1 RETURN JUMPDEST CALLVALUE DUP1 ISZERO PUSH2 0x3BB JUMPI PUSH0 DUP1 REVERT JUMPDEST POP PUSH2 0x3C4 PUSH2 0x1835 JUMP JUMPDEST PUSH1 0x40 MLOAD PUSH2 0x3D1 SWAP2 SWAP1 PUSH2 0x1EBA JUMP JUMPDEST PUSH1 0x40 MLOAD DUP1 SWAP2 SUB SWAP1 RETURN JUMPDEST PUSH1 0x9 PUSH1 0x6 SWAP1 SLOAD SWAP1 PUSH2 0x100 EXP SWAP1 DIV PUSH1 0xFF AND ISZERO PUSH2 0x42A JUMPI PUSH1 0x40 MLOAD PUSH32 0x8C379A000000000000000000000000000000000000000000000000000000000 DUP2 MSTORE PUSH1 0x4 ADD PUSH2 0x421 SWAP1 PUSH2 0x214E JUMP JUMPDEST PUSH1 0x40 MLOAD DUP1 SWAP2 SUB SWAP1 REVERT JUMPDEST TIMESTAMP PUSH3 0x127500 PUSH32 0x0 PUSH2 0x45A SWAP2 SWAP1 PUSH2 0x2199 JUMP JUMPDEST LT ISZERO PUSH2 0x49B JUMPI PUSH1 0x40 MLOAD PUSH32 0x8C379A000000000000000000000000000000000000000000000000000000000 DUP2 MSTORE PUSH1 0x4 ADD PUSH2 0x492 SWAP1 PUSH2 0x223C JUMP JUMPDEST PUSH1 0x40 MLOAD DUP1 SWAP2 SUB SWAP1 REVERT JUMPDEST PUSH1 0x1 SLOAD PUSH32 0x0 PUSH2 0x4C9 SWAP2 SWAP1 PUSH2 0x2199 JUMP JUMPDEST CALLVALUE LT ISZERO PUSH2 0x50B JUMPI PUSH1 0x40 MLOAD PUSH32 0x8C379A000000000000000000000000000000000000000000000000000000000 DUP2 MSTORE PUSH1 0x4 ADD PUSH2 0x502 SWAP1 PUSH2 0x22CA JUMP JUMPDEST PUSH1 0x40 MLOAD DUP1 SWAP2 SUB SWAP1 REVERT JUMPDEST TIMESTAMP PUSH1 0x2 DUP2 SWAP1 SSTORE POP PUSH0 PUSH1 0x1 SLOAD PUSH32 0x0 PUSH2 0x541 SWAP2 SWAP1 PUSH2 0x2199 JUMP JUMPDEST CALLVALUE PUSH2 0x54C SWAP2 SWAP1 PUSH2 0x22E8 JUMP JUMPDEST SWAP1 POP CALLER PUSH0 DUP1 PUSH2 0x100 EXP DUP2 SLOAD DUP2 PUSH20 0xFFFFFFFFFFFFFFFFFFFFFFFFFFFFFFFFFFFFFFFF MUL NOT AND SWAP1 DUP4 PUSH20 0xFFFFFFFFFFFFFFFFFFFFFFFFFFFFFFFFFFFFFFFF AND MUL OR SWAP1 SSTORE POP PUSH0 DUP1 SLOAD SWAP1 PUSH2 0x100 EXP SWAP1 DIV PUSH20 0xFFFFFFFFFFFFFFFFFFFFFFFFFFFFFFFFFFFFFFFF AND PUSH20 0xFFFFFFFFFFFFFFFFFFFFFFFFFFFFFFFFFFFFFFFF AND PUSH2 0x8FC DUP3 SWAP1 DUP2 ISZERO MUL SWAP1 PUSH1 0x40 MLOAD PUSH0 PUSH1 0x40 MLOAD DUP1 DUP4 SUB DUP2 DUP6 DUP9 DUP9 CALL SWAP4 POP POP POP POP ISZERO DUP1 ISZERO PUSH2 0x5EF JUMPI RETURNDATASIZE PUSH0 DUP1 RETURNDATACOPY RETURNDATASIZE PUSH0 REVERT JUMPDEST POP POP JUMP JUMPDEST PUSH1 0x9 PUSH1 0x6 SWAP1 SLOAD SWAP1 PUSH2 0x100 EXP SWAP1 DIV PUSH1 0xFF AND ISZERO PUSH2 0x643 JUMPI PUSH1 0x40 MLOAD PUSH32 0x8C379A000000000000000000000000000000000000000000000000000000000 DUP2 MSTORE PUSH1 0x4 ADD PUSH2 0x63A SWAP1 PUSH2 0x214E JUMP JUMPDEST PUSH1 0x40 MLOAD DUP1 SWAP2 SUB SWAP1 REVERT JUMPDEST PUSH0 DUP1 SLOAD SWAP1 PUSH2 0x100 EXP SWAP1 DIV PUSH20 0xFFFFFFFFFFFFFFFFFFFFFFFFFFFFFFFFFFFFFFFF AND PUSH20 0xFFFFFFFFFFFFFFFFFFFFFFFFFFFFFFFFFFFFFFFF AND CALLER PUSH20 0xFFFFFFFFFFFFFFFFFFFFFFFFFFFFFFFFFFFFFFFF AND EQ PUSH2 0x6D0 JUMPI PUSH1 0x40 MLOAD PUSH32 0x8C379A000000000000000000000000000000000000000000000000000000000 DUP2 MSTORE PUSH1 0x4 ADD PUSH2 0x6C7 SWAP1 PUSH2 0x238B JUMP JUMPDEST PUSH1 0x40 MLOAD DUP1 SWAP2 SUB SWAP1 REVERT JUMPDEST PUSH2 0x6D8 PUSH2 0x183C JUMP JUMPDEST JUMP JUMPDEST PUSH1 0x9 PUSH1 0x6 SWAP1 SLOAD SWAP1 PUSH2 0x100 EXP SWAP1 DIV PUSH1 0xFF AND ISZERO PUSH2 0x72A JUMPI PUSH1 0x40 MLOAD PUSH32 0x8C379A000000000000000000000000000000000000000000000000000000000 DUP2 MSTORE PUSH1 0x4 ADD PUSH2 0x721 SWAP1 PUSH2 0x214E JUMP JUMPDEST PUSH1 0x40 MLOAD DUP1 SWAP2 SUB SWAP1 REVERT JUMPDEST PUSH32 0x0 PUSH20 0xFFFFFFFFFFFFFFFFFFFFFFFFFFFFFFFFFFFFFFFF AND CALLER PUSH20 0xFFFFFFFFFFFFFFFFFFFFFFFFFFFFFFFFFFFFFFFF AND EQ PUSH2 0x7B8 JUMPI PUSH1 0x40 MLOAD PUSH32 0x8C379A000000000000000000000000000000000000000000000000000000000 DUP2 MSTORE PUSH1 0x4 ADD PUSH2 0x7AF SWAP1 PUSH2 0x2419 JUMP JUMPDEST PUSH1 0x40 MLOAD DUP1 SWAP2 SUB SWAP1 REVERT JUMPDEST PUSH0 DUP1 SLOAD SWAP1 PUSH2 0x100 EXP SWAP1 DIV PUSH20 0xFFFFFFFFFFFFFFFFFFFFFFFFFFFFFFFFFFFFFFFF AND PUSH20 0xFFFFFFFFFFFFFFFFFFFFFFFFFFFFFFFFFFFFFFFF AND CALLER PUSH20 0xFFFFFFFFFFFFFFFFFFFFFFFFFFFFFFFFFFFFFFFF AND EQ PUSH2 0x845 JUMPI PUSH1 0x40 MLOAD PUSH32 0x8C379A000000000000000000000000000000000000000000000000000000000 DUP2 MSTORE PUSH1 0x4 ADD PUSH2 0x83C SWAP1 PUSH2 0x24A7 JUMP JUMPDEST PUSH1 0x40 MLOAD DUP1 SWAP2 SUB SWAP1 REVERT JUMPDEST PUSH0 PUSH1 0x9 PUSH1 0x7 SWAP1 SLOAD SWAP1 PUSH2 0x100 EXP SWAP1 DIV PUSH20 0xFFFFFFFFFFFFFFFFFFFFFFFFFFFFFFFFFFFFFFFF AND PUSH20 0xFFFFFFFFFFFFFFFFFFFFFFFFFFFFFFFFFFFFFFFF AND PUSH4 0xEF555BC1 ADDRESS PUSH20 0xFFFFFFFFFFFFFFFFFFFFFFFFFFFFFFFFFFFFFFFF AND PUSH4 0x8FC8E811 PUSH1 0x40 MLOAD DUP2 PUSH4 0xFFFFFFFF AND PUSH1 0xE0 SHL DUP2 MSTORE PUSH1 0x4 ADD PUSH1 0x20 PUSH1 0x40 MLOAD DUP1 DUP4 SUB DUP2 DUP7 GAS STATICCALL ISZERO DUP1 ISZERO PUSH2 0x8CD JUMPI RETURNDATASIZE PUSH0 DUP1 RETURNDATACOPY RETURNDATASIZE PUSH0 REVERT JUMPDEST POP POP POP POP PUSH1 0x40 MLOAD RETURNDATASIZE PUSH1 0x1F NOT PUSH1 0x1F DUP3 ADD AND DUP3 ADD DUP1 PUSH1 0x40 MSTORE POP DUP2 ADD SWAP1 PUSH2 0x8F1 SWAP2 SWAP1 PUSH2 0x24D9 JUMP JUMPDEST PUSH1 0x40 MLOAD DUP3 PUSH4 0xFFFFFFFF AND PUSH1 0xE0 SHL DUP2 MSTORE PUSH1 0x4 ADD PUSH2 0x90D SWAP2 SWAP1 PUSH2 0x1EBA JUMP JUMPDEST PUSH0 PUSH1 0x40 MLOAD DUP1 DUP4 SUB DUP2 DUP7 GAS STATICCALL ISZERO DUP1 ISZERO PUSH2 0x927 JUMPI RETURNDATASIZE PUSH0 DUP1 RETURNDATACOPY RETURNDATASIZE PUSH0 REVERT JUMPDEST POP POP POP POP PUSH1 0x40 MLOAD RETURNDATASIZE PUSH0 DUP3 RETURNDATACOPY RETURNDATASIZE PUSH1 0x1F NOT PUSH1 0x1F DUP3 ADD AND DUP3 ADD DUP1 PUSH1 0x40 MSTORE POP DUP2 ADD SWAP1 PUSH2 0x94F SWAP2 SWAP1 PUSH2 0x2711 JUMP JUMPDEST SWAP1 POP PUSH2 0x9BE DUP3 PUSH1 0x8 DUP1 DUP1 PUSH1 0x20 MUL PUSH1 0x40 MLOAD SWAP1 DUP2 ADD PUSH1 0x40 MSTORE DUP1 SWAP3 SWAP2 SWAP1 DUP3 PUSH1 0x8 DUP1 ISZERO PUSH2 0x9B4 JUMPI PUSH1 0x20 MUL DUP3 ADD SWAP2 PUSH0 SWAP1 JUMPDEST DUP3 DUP3 SWAP1 SLOAD SWAP1 PUSH2 0x100 EXP SWAP1 DIV PUSH2 0xFFFF AND PUSH2 0xFFFF AND DUP2 MSTORE PUSH1 0x20 ADD SWAP1 PUSH1 0x2 ADD SWAP1 PUSH1 0x20 DUP3 PUSH1 0x1 ADD DIV SWAP3 DUP4 ADD SWAP3 PUSH1 0x1 SUB DUP3 MUL SWAP2 POP DUP1 DUP5 GT PUSH2 0x97B JUMPI SWAP1 POP JUMPDEST POP POP POP POP POP PUSH2 0x1A46 JUMP JUMPDEST PUSH1 0x9 PUSH1 0x2 PUSH2 0x100 EXP DUP2 SLOAD DUP2 PUSH2 0xFFFF MUL NOT AND SWAP1 DUP4 PUSH2 0xFFFF AND MUL OR SWAP1 SSTORE POP PUSH1 0x9 PUSH1 0x7 SWAP1 SLOAD SWAP1 PUSH2 0x100 EXP SWAP1 DIV PUSH20 0xFFFFFFFFFFFFFFFFFFFFFFFFFFFFFFFFFFFFFFFF AND PUSH20 0xFFFFFFFFFFFFFFFFFFFFFFFFFFFFFFFFFFFFFFFF AND PUSH4 0xD57FA07D DUP3 PUSH1 0x60 ADD MLOAD DUP4 PUSH1 0x80 ADD MLOAD DUP7 PUSH1 0x9 PUSH1 0x2 SWAP1 SLOAD SWAP1 PUSH2 0x100 EXP SWAP1 DIV PUSH2 0xFFFF AND DUP10 PUSH1 0x40 MLOAD DUP7 PUSH4 0xFFFFFFFF AND PUSH1 0xE0 SHL DUP2 MSTORE PUSH1 0x4 ADD PUSH2 0xA55 SWAP6 SWAP5 SWAP4 SWAP3 SWAP2 SWAP1 PUSH2 0x2797 JUMP JUMPDEST PUSH1 0x20 PUSH1 0x40 MLOAD DUP1 DUP4 SUB DUP2 DUP7 GAS STATICCALL ISZERO DUP1 ISZERO PUSH2 0xA70 JUMPI RETURNDATASIZE PUSH0 DUP1 RETURNDATACOPY RETURNDATASIZE PUSH0 REVERT JUMPDEST POP POP POP POP PUSH1 0x40 MLOAD RETURNDATASIZE PUSH1 0x1F NOT PUSH1 0x1F DUP3 ADD AND DUP3 ADD DUP1 PUSH1 0x40 MSTORE POP DUP2 ADD SWAP1 PUSH2 0xA94 SWAP2 SWAP1 PUSH2 0x24D9 JUMP JUMPDEST PUSH1 0x1 DUP2 SWAP1 SSTORE POP POP POP POP POP JUMP JUMPDEST PUSH0 PUSH1 0x9 PUSH0 SWAP1 SLOAD SWAP1 PUSH2 0x100 EXP SWAP1 DIV PUSH2 0xFFFF AND SWAP1 POP SWAP1 JUMP JUMPDEST PUSH1 0x9 PUSH1 0x6 SWAP1 SLOAD SWAP1 PUSH2 0x100 EXP SWAP1 DIV PUSH1 0xFF AND ISZERO PUSH2 0xB06 JUMPI PUSH1 0x40 MLOAD PUSH32 0x8C379A000000000000000000000000000000000000000000000000000000000 DUP2 MSTORE PUSH1 0x4 ADD PUSH2 0xAFD SWAP1 PUSH2 0x214E JUMP JUMPDEST PUSH1 0x40 MLOAD DUP1 SWAP2 SUB SWAP1 REVERT JUMPDEST PUSH0 PUSH1 0x2 SLOAD EQ ISZERO DUP1 ISZERO PUSH2 0xB26 JUMPI POP PUSH1 0x3 SLOAD PUSH1 0x2 SLOAD TIMESTAMP PUSH2 0xB24 SWAP2 SWAP1 PUSH2 0x22E8 JUMP JUMPDEST GT JUMPDEST ISZERO PUSH2 0xBC7 JUMPI PUSH0 DUP1 SLOAD SWAP1 PUSH2 0x100 EXP SWAP1 DIV PUSH20 0xFFFFFFFFFFFFFFFFFFFFFFFFFFFFFFFFFFFFFFFF AND PUSH20 0xFFFFFFFFFFFFFFFFFFFFFFFFFFFFFFFFFFFFFFFF AND PUSH2 0x8FC PUSH1 0x1 SLOAD PUSH32 0x0 PUSH2 0xB92 SWAP2 SWAP1 PUSH2 0x2199 JUMP JUMPDEST SWAP1 DUP2 ISZERO MUL SWAP1 PUSH1 0x40 MLOAD PUSH0 PUSH1 0x40 MLOAD DUP1 DUP4 SUB DUP2 DUP6 DUP9 DUP9 CALL SWAP4 POP POP POP POP ISZERO DUP1 ISZERO PUSH2 0xBBA JUMPI RETURNDATASIZE PUSH0 DUP1 RETURNDATACOPY RETURNDATASIZE PUSH0 REVERT JUMPDEST POP PUSH0 PUSH1 0x2 DUP2 SWAP1 SSTORE POP PUSH2 0xDB8 JUMP JUMPDEST PUSH0 PUSH1 0x9 PUSH0 SWAP1 SLOAD SWAP1 PUSH2 0x100 EXP SWAP1 DIV PUSH2 0xFFFF AND PUSH2 0xFFFF AND SUB PUSH2 0xBEE JUMPI PUSH2 0xBE9 PUSH2 0x183C JUMP JUMPDEST PUSH2 0xDB7 JUMP JUMPDEST PUSH1 0x9 PUSH1 0x4 SWAP1 SLOAD SWAP1 PUSH2 0x100 EXP SWAP1 DIV PUSH1 0xFF AND DUP1 ISZERO PUSH2 0xC0C JUMPI POP PUSH1 0x5 SLOAD TIMESTAMP LT ISZERO JUMPDEST DUP1 ISZERO PUSH2 0xC24 JUMPI POP PUSH1 0x6 PUSH0 SWAP1 SLOAD SWAP1 PUSH2 0x100 EXP SWAP1 DIV PUSH1 0xFF AND ISZERO JUMPDEST ISZERO PUSH2 0xCBD JUMPI PUSH1 0x9 PUSH1 0x5 SWAP1 SLOAD SWAP1 PUSH2 0x100 EXP SWAP1 DIV PUSH1 0xFF AND DUP1 PUSH2 0xC49 JUMPI POP PUSH2 0xC47 PUSH2 0x1B0F JUMP JUMPDEST ISZERO JUMPDEST ISZERO PUSH2 0xC5B JUMPI PUSH2 0xC56 PUSH2 0x183C JUMP JUMPDEST PUSH2 0xCB8 JUMP JUMPDEST PUSH3 0xD2F00 PUSH1 0x5 PUSH0 DUP3 DUP3 SLOAD PUSH2 0xC6F SWAP2 SWAP1 PUSH2 0x2199 JUMP JUMPDEST SWAP3 POP POP DUP2 SWAP1 SSTORE POP PUSH1 0x1 PUSH1 0x9 PUSH1 0x5 PUSH2 0x100 EXP DUP2 SLOAD DUP2 PUSH1 0xFF MUL NOT AND SWAP1 DUP4 ISZERO ISZERO MUL OR SWAP1 SSTORE POP PUSH1 0xA PUSH1 0x1 SLOAD PUSH2 0xCA0 SWAP2 SWAP1 PUSH2 0x2815 JUMP JUMPDEST PUSH1 0x1 PUSH0 DUP3 DUP3 SLOAD PUSH2 0xCB0 SWAP2 SWAP1 PUSH2 0x2199 JUMP JUMPDEST SWAP3 POP POP DUP2 SWAP1 SSTORE POP JUMPDEST PUSH2 0xDB6 JUMP JUMPDEST PUSH1 0x9 PUSH1 0x4 SWAP1 SLOAD SWAP1 PUSH2 0x100 EXP SWAP1 DIV PUSH1 0xFF AND DUP1 ISZERO PUSH2 0xCDB JUMPI POP PUSH1 0x5 SLOAD TIMESTAMP LT ISZERO JUMPDEST DUP1 ISZERO PUSH2 0xCF2 JUMPI POP PUSH1 0x6 PUSH0 SWAP1 SLOAD SWAP1 PUSH2 0x100 EXP SWAP1 DIV PUSH1 0xFF AND JUMPDEST ISZERO PUSH2 0xDB5 JUMPI PUSH1 0x9 PUSH1 0x5 SWAP1 SLOAD SWAP1 PUSH2 0x100 EXP SWAP1 DIV PUSH1 0xFF AND ISZERO PUSH2 0xD46 JUMPI PUSH3 0x1A5E00 PUSH1 0x5 PUSH0 DUP3 DUP3 SLOAD PUSH2 0xD20 SWAP2 SWAP1 PUSH2 0x2199 JUMP JUMPDEST SWAP3 POP POP DUP2 SWAP1 SSTORE POP PUSH0 PUSH1 0x9 PUSH1 0x5 PUSH2 0x100 EXP DUP2 SLOAD DUP2 PUSH1 0xFF MUL NOT AND SWAP1 DUP4 ISZERO ISZERO MUL OR SWAP1 SSTORE POP PUSH2 0xD62 JUMP JUMPDEST PUSH3 0x278D00 PUSH1 0x5 PUSH0 DUP3 DUP3 SLOAD PUSH2 0xD5A SWAP2 SWAP1 PUSH2 0x2199 JUMP JUMPDEST SWAP3 POP POP DUP2 SWAP1 SSTORE POP JUMPDEST PUSH1 0x1 PUSH1 0x9 PUSH0 DUP3 DUP3 DUP3 SWAP1 SLOAD SWAP1 PUSH2 0x100 EXP SWAP1 DIV PUSH2 0xFFFF AND PUSH2 0xD81 SWAP2 SWAP1 PUSH2 0x2845 JUMP JUMPDEST SWAP3 POP PUSH2 0x100 EXP DUP2 SLOAD DUP2 PUSH2 0xFFFF MUL NOT AND SWAP1 DUP4 PUSH2 0xFFFF AND MUL OR SWAP1 SSTORE POP PUSH0 PUSH1 0x6 PUSH0 PUSH2 0x100 EXP DUP2 SLOAD DUP2 PUSH1 0xFF MUL NOT AND SWAP1 DUP4 ISZERO ISZERO MUL OR SWAP1 SSTORE POP JUMPDEST JUMPDEST JUMPDEST JUMPDEST POP POP JUMP JUMPDEST PUSH1 0x9 PUSH1 0x6 SWAP1 SLOAD SWAP1 PUSH2 0x100 EXP SWAP1 DIV PUSH1 0xFF AND ISZERO PUSH2 0xE0C JUMPI PUSH1 0x40 MLOAD PUSH32 0x8C379A000000000000000000000000000000000000000000000000000000000 DUP2 MSTORE PUSH1 0x4 ADD PUSH2 0xE03 SWAP1 PUSH2 0x214E JUMP JUMPDEST PUSH1 0x40 MLOAD DUP1 SWAP2 SUB SWAP1 REVERT JUMPDEST PUSH32 0x0 PUSH20 0xFFFFFFFFFFFFFFFFFFFFFFFFFFFFFFFFFFFFFFFF AND CALLER PUSH20 0xFFFFFFFFFFFFFFFFFFFFFFFFFFFFFFFFFFFFFFFF AND EQ PUSH2 0xE9A JUMPI PUSH1 0x40 MLOAD PUSH32 0x8C379A000000000000000000000000000000000000000000000000000000000 DUP2 MSTORE PUSH1 0x4 ADD PUSH2 0xE91 SWAP1 PUSH2 0x2419 JUMP JUMPDEST PUSH1 0x40 MLOAD DUP1 SWAP2 SUB SWAP1 REVERT JUMPDEST PUSH1 0x1 PUSH1 0x9 PUSH1 0x4 PUSH2 0x100 EXP DUP2 SLOAD DUP2 PUSH1 0xFF MUL NOT AND SWAP1 DUP4 ISZERO ISZERO MUL OR SWAP1 SSTORE POP PUSH32 0x0 PUSH20 0xFFFFFFFFFFFFFFFFFFFFFFFFFFFFFFFFFFFFFFFF AND PUSH2 0x8FC PUSH1 0x1 SLOAD PUSH32 0x0 PUSH2 0xF1D SWAP2 SWAP1 PUSH2 0x2199 JUMP JUMPDEST SWAP1 DUP2 ISZERO MUL SWAP1 PUSH1 0x40 MLOAD PUSH0 PUSH1 0x40 MLOAD DUP1 DUP4 SUB DUP2 DUP6 DUP9 DUP9 CALL SWAP4 POP POP POP POP ISZERO DUP1 ISZERO PUSH2 0xF45 JUMPI RETURNDATASIZE PUSH0 DUP1 RETURNDATACOPY RETURNDATASIZE PUSH0 REVERT JUMPDEST POP TIMESTAMP PUSH1 0x4 DUP2 SWAP1 SSTORE POP PUSH3 0x28DE80 PUSH1 0x4 SLOAD PUSH2 0xF5E SWAP2 SWAP1 PUSH2 0x2199 JUMP JUMPDEST PUSH1 0x5 DUP2 SWAP1 SSTORE POP PUSH0 PUSH1 0x6 PUSH0 PUSH2 0x100 EXP DUP2 SLOAD DUP2 PUSH1 0xFF MUL NOT AND SWAP1 DUP4 ISZERO ISZERO MUL OR SWAP1 SSTORE POP PUSH1 0x9 PUSH1 0x7 SWAP1 SLOAD SWAP1 PUSH2 0x100 EXP SWAP1 DIV PUSH20 0xFFFFFFFFFFFFFFFFFFFFFFFFFFFFFFFFFFFFFFFF AND PUSH20 0xFFFFFFFFFFFFFFFFFFFFFFFFFFFFFFFFFFFFFFFF AND PUSH4 0xC776194F ADDRESS PUSH20 0xFFFFFFFFFFFFFFFFFFFFFFFFFFFFFFFFFFFFFFFF AND PUSH4 0x650D993B PUSH1 0x40 MLOAD DUP2 PUSH4 0xFFFFFFFF AND PUSH1 0xE0 SHL DUP2 MSTORE PUSH1 0x4 ADD PUSH1 0x20 PUSH1 0x40 MLOAD DUP1 DUP4 SUB DUP2 DUP7 GAS STATICCALL ISZERO DUP1 ISZERO PUSH2 0x1004 JUMPI RETURNDATASIZE PUSH0 DUP1 RETURNDATACOPY RETURNDATASIZE PUSH0 REVERT JUMPDEST POP POP POP POP PUSH1 0x40 MLOAD RETURNDATASIZE PUSH1 0x1F NOT PUSH1 0x1F DUP3 ADD AND DUP3 ADD DUP1 PUSH1 0x40 MSTORE POP DUP2 ADD SWAP1 PUSH2 0x1028 SWAP2 SWAP1 PUSH2 0x28A4 JUMP JUMPDEST ADDRESS PUSH20 0xFFFFFFFFFFFFFFFFFFFFFFFFFFFFFFFFFFFFFFFF AND PUSH4 0xDC26BF47 PUSH1 0x40 MLOAD DUP2 PUSH4 0xFFFFFFFF AND PUSH1 0xE0 SHL DUP2 MSTORE PUSH1 0x4 ADD PUSH1 0x20 PUSH1 0x40 MLOAD DUP1 DUP4 SUB DUP2 DUP7 GAS STATICCALL ISZERO DUP1 ISZERO PUSH2 0x1071 JUMPI RETURNDATASIZE PUSH0 DUP1 RETURNDATACOPY RETURNDATASIZE PUSH0 REVERT JUMPDEST POP POP POP POP PUSH1 0x40 MLOAD RETURNDATASIZE PUSH1 0x1F NOT PUSH1 0x1F DUP3 ADD AND DUP3 ADD DUP1 PUSH1 0x40 MSTORE POP DUP2 ADD SWAP1 PUSH2 0x1095 SWAP2 SWAP1 PUSH2 0x28F9 JUMP JUMPDEST ADDRESS PUSH20 0xFFFFFFFFFFFFFFFFFFFFFFFFFFFFFFFFFFFFFFFF AND PUSH4 0x8FC8E811 PUSH1 0x40 MLOAD DUP2 PUSH4 0xFFFFFFFF AND PUSH1 0xE0 SHL DUP2 MSTORE PUSH1 0x4 ADD PUSH1 0x20 PUSH1 0x40 MLOAD DUP1 DUP4 SUB DUP2 DUP7 GAS STATICCALL ISZERO DUP1 ISZERO PUSH2 0x10DE JUMPI RETURNDATASIZE PUSH0 DUP1 RETURNDATACOPY RETURNDATASIZE PUSH0 REVERT JUMPDEST POP POP POP POP PUSH1 0x40 MLOAD RETURNDATASIZE PUSH1 0x1F NOT PUSH1 0x1F DUP3 ADD AND DUP3 ADD DUP1 PUSH1 0x40 MSTORE POP DUP2 ADD SWAP1 PUSH2 0x1102 SWAP2 SWAP1 PUSH2 0x24D9 JUMP JUMPDEST PUSH1 0x40 MLOAD DUP5 PUSH4 0xFFFFFFFF AND PUSH1 0xE0 SHL DUP2 MSTORE PUSH1 0x4 ADD PUSH2 0x1120 SWAP4 SWAP3 SWAP2 SWAP1 PUSH2 0x2944 JUMP JUMPDEST PUSH0 PUSH1 0x40 MLOAD DUP1 DUP4 SUB DUP2 PUSH0 DUP8 DUP1 EXTCODESIZE ISZERO DUP1 ISZERO PUSH2 0x1137 JUMPI PUSH0 DUP1 REVERT JUMPDEST POP GAS CALL ISZERO DUP1 ISZERO PUSH2 0x1149 JUMPI RETURNDATASIZE PUSH0 DUP1 RETURNDATACOPY RETURNDATASIZE PUSH0 REVERT JUMPDEST POP POP POP POP PUSH1 0x1 PUSH1 0x9 PUSH0 DUP3 DUP3 DUP3 SWAP1 SLOAD SWAP1 PUSH2 0x100 EXP SWAP1 DIV PUSH2 0xFFFF AND PUSH2 0x116C SWAP2 SWAP1 PUSH2 0x2845 JUMP JUMPDEST SWAP3 POP PUSH2 0x100 EXP DUP2 SLOAD DUP2 PUSH2 0xFFFF MUL NOT AND SWAP1 DUP4 PUSH2 0xFFFF AND MUL OR SWAP1 SSTORE POP JUMP JUMPDEST PUSH0 DUP1 PUSH0 SWAP1 SLOAD SWAP1 PUSH2 0x100 EXP SWAP1 DIV PUSH20 0xFFFFFFFFFFFFFFFFFFFFFFFFFFFFFFFFFFFFFFFF AND SWAP1 POP SWAP1 JUMP JUMPDEST PUSH0 PUSH1 0x60 PUSH1 0x9 PUSH1 0x6 SWAP1 SLOAD SWAP1 PUSH2 0x100 EXP SWAP1 DIV PUSH1 0xFF AND ISZERO PUSH2 0x1202 JUMPI PUSH1 0x40 MLOAD PUSH32 0x8C379A000000000000000000000000000000000000000000000000000000000 DUP2 MSTORE PUSH1 0x4 ADD PUSH2 0x11F9 SWAP1 PUSH2 0x214E JUMP JUMPDEST PUSH1 0x40 MLOAD DUP1 SWAP2 SUB SWAP1 REVERT JUMPDEST PUSH0 PUSH1 0x2 SLOAD EQ ISZERO DUP1 ISZERO PUSH2 0x1222 JUMPI POP PUSH1 0x3 SLOAD PUSH1 0x2 SLOAD TIMESTAMP PUSH2 0x1220 SWAP2 SWAP1 PUSH2 0x22E8 JUMP JUMPDEST GT JUMPDEST ISZERO PUSH2 0x122C JUMPI PUSH1 0x1 SWAP2 POP JUMPDEST PUSH1 0x9 PUSH1 0x4 SWAP1 SLOAD SWAP1 PUSH2 0x100 EXP SWAP1 DIV PUSH1 0xFF AND DUP1 ISZERO PUSH2 0x124A JUMPI POP PUSH1 0x5 SLOAD TIMESTAMP LT ISZERO JUMPDEST ISZERO PUSH2 0x1254 JUMPI PUSH1 0x1 SWAP2 POP JUMPDEST SWAP3 POP SWAP3 SWAP1 POP JUMP JUMPDEST PUSH0 PUSH1 0xF SLOAD SWAP1 POP SWAP1 JUMP JUMPDEST PUSH1 0x9 PUSH1 0x6 SWAP1 SLOAD SWAP1 PUSH2 0x100 EXP SWAP1 DIV PUSH1 0xFF AND ISZERO PUSH2 0x12B4 JUMPI PUSH1 0x40 MLOAD PUSH32 0x8C379A000000000000000000000000000000000000000000000000000000000 DUP2 MSTORE PUSH1 0x4 ADD PUSH2 0x12AB SWAP1 PUSH2 0x214E JUMP JUMPDEST PUSH1 0x40 MLOAD DUP1 SWAP2 SUB SWAP1 REVERT JUMPDEST PUSH0 DUP1 SLOAD SWAP1 PUSH2 0x100 EXP SWAP1 DIV PUSH20 0xFFFFFFFFFFFFFFFFFFFFFFFFFFFFFFFFFFFFFFFF AND PUSH20 0xFFFFFFFFFFFFFFFFFFFFFFFFFFFFFFFFFFFFFFFF AND CALLER PUSH20 0xFFFFFFFFFFFFFFFFFFFFFFFFFFFFFFFFFFFFFFFF AND EQ PUSH2 0x1341 JUMPI PUSH1 0x40 MLOAD PUSH32 0x8C379A000000000000000000000000000000000000000000000000000000000 DUP2 MSTORE PUSH1 0x4 ADD PUSH2 0x1338 SWAP1 PUSH2 0x29E9 JUMP JUMPDEST PUSH1 0x40 MLOAD DUP1 SWAP2 SUB SWAP1 REVERT JUMPDEST PUSH1 0x9 PUSH1 0x7 SWAP1 SLOAD SWAP1 PUSH2 0x100 EXP SWAP1 DIV PUSH20 0xFFFFFFFFFFFFFFFFFFFFFFFFFFFFFFFFFFFFFFFF AND PUSH20 0xFFFFFFFFFFFFFFFFFFFFFFFFFFFFFFFFFFFFFFFF AND PUSH4 0x42842E0E PUSH32 0x0 PUSH0 DUP1 SLOAD SWAP1 PUSH2 0x100 EXP SWAP1 DIV PUSH20 0xFFFFFFFFFFFFFFFFFFFFFFFFFFFFFFFFFFFFFFFF AND DUP5 PUSH1 0x40 MLOAD DUP5 PUSH4 0xFFFFFFFF AND PUSH1 0xE0 SHL DUP2 MSTORE PUSH1 0x4 ADD PUSH2 0x13DF SWAP4 SWAP3 SWAP2 SWAP1 PUSH2 0x2A07 JUMP JUMPDEST PUSH0 PUSH1 0x40 MLOAD DUP1 DUP4 SUB DUP2 PUSH0 DUP8 DUP1 EXTCODESIZE ISZERO DUP1 ISZERO PUSH2 0x13F6 JUMPI PUSH0 DUP1 REVERT JUMPDEST POP GAS CALL ISZERO DUP1 ISZERO PUSH2 0x1408 JUMPI RETURNDATASIZE PUSH0 DUP1 RETURNDATACOPY RETURNDATASIZE PUSH0 REVERT JUMPDEST POP POP POP POP POP JUMP JUMPDEST PUSH0 PUSH1 0x9 PUSH1 0x7 SWAP1 SLOAD SWAP1 PUSH2 0x100 EXP SWAP1 DIV PUSH20 0xFFFFFFFFFFFFFFFFFFFFFFFFFFFFFFFFFFFFFFFF AND SWAP1 POP SWAP1 JUMP JUMPDEST PUSH1 0x9 PUSH1 0x6 SWAP1 SLOAD SWAP1 PUSH2 0x100 EXP SWAP1 DIV PUSH1 0xFF AND ISZERO PUSH2 0x1488 JUMPI PUSH1 0x40 MLOAD PUSH32 0x8C379A000000000000000000000000000000000000000000000000000000000 DUP2 MSTORE PUSH1 0x4 ADD PUSH2 0x147F SWAP1 PUSH2 0x214E JUMP JUMPDEST PUSH1 0x40 MLOAD DUP1 SWAP2 SUB SWAP1 REVERT JUMPDEST PUSH0 DUP1 SLOAD SWAP1 PUSH2 0x100 EXP SWAP1 DIV PUSH20 0xFFFFFFFFFFFFFFFFFFFFFFFFFFFFFFFFFFFFFFFF AND PUSH20 0xFFFFFFFFFFFFFFFFFFFFFFFFFFFFFFFFFFFFFFFF AND CALLER PUSH20 0xFFFFFFFFFFFFFFFFFFFFFFFFFFFFFFFFFFFFFFFF AND EQ PUSH2 0x1515 JUMPI PUSH1 0x40 MLOAD PUSH32 0x8C379A000000000000000000000000000000000000000000000000000000000 DUP2 MSTORE PUSH1 0x4 ADD PUSH2 0x150C SWAP1 PUSH2 0x2AAC JUMP JUMPDEST PUSH1 0x40 MLOAD DUP1 SWAP2 SUB SWAP1 REVERT JUMPDEST PUSH1 0x1 SLOAD CALLVALUE LT ISZERO PUSH2 0x155A JUMPI PUSH1 0x40 MLOAD PUSH32 0x8C379A000000000000000000000000000000000000000000000000000000000 DUP2 MSTORE PUSH1 0x4 ADD PUSH2 0x1551 SWAP1 PUSH2 0x2B3A JUMP JUMPDEST PUSH1 0x40 MLOAD DUP1 SWAP2 SUB SWAP1 REVERT JUMPDEST PUSH1 0x6 PUSH0 SWAP1 SLOAD SWAP1 PUSH2 0x100 EXP SWAP1 DIV PUSH1 0xFF AND ISZERO PUSH2 0x15A9 JUMPI PUSH1 0x40 MLOAD PUSH32 0x8C379A000000000000000000000000000000000000000000000000000000000 DUP2 MSTORE PUSH1 0x4 ADD PUSH2 0x15A0 SWAP1 PUSH2 0x2BC8 JUMP JUMPDEST PUSH1 0x40 MLOAD DUP1 SWAP2 SUB SWAP1 REVERT JUMPDEST PUSH0 PUSH1 0x1 SLOAD CALLVALUE PUSH2 0x15B8 SWAP2 SWAP1 PUSH2 0x22E8 JUMP JUMPDEST SWAP1 POP PUSH1 0x1 SLOAD CALLVALUE GT ISZERO PUSH2 0x1628 JUMPI PUSH0 DUP1 SLOAD SWAP1 PUSH2 0x100 EXP SWAP1 DIV PUSH20 0xFFFFFFFFFFFFFFFFFFFFFFFFFFFFFFFFFFFFFFFF AND PUSH20 0xFFFFFFFFFFFFFFFFFFFFFFFFFFFFFFFFFFFFFFFF AND PUSH2 0x8FC DUP3 SWAP1 DUP2 ISZERO MUL SWAP1 PUSH1 0x40 MLOAD PUSH0 PUSH1 0x40 MLOAD DUP1 DUP4 SUB DUP2 DUP6 DUP9 DUP9 CALL SWAP4 POP POP POP POP ISZERO DUP1 ISZERO PUSH2 0x1626 JUMPI RETURNDATASIZE PUSH0 DUP1 RETURNDATACOPY RETURNDATASIZE PUSH0 REVERT JUMPDEST POP JUMPDEST PUSH1 0x1 PUSH1 0x6 PUSH0 PUSH2 0x100 EXP DUP2 SLOAD DUP2 PUSH1 0xFF MUL NOT AND SWAP1 DUP4 ISZERO ISZERO MUL OR SWAP1 SSTORE POP POP JUMP JUMPDEST PUSH0 PUSH32 0x0 SWAP1 POP SWAP1 JUMP JUMPDEST PUSH2 0x1674 PUSH2 0x1BC0 JUMP JUMPDEST PUSH1 0xA PUSH1 0x40 MLOAD DUP1 PUSH1 0xA0 ADD PUSH1 0x40 MSTORE SWAP1 DUP2 PUSH0 DUP3 ADD DUP1 SLOAD PUSH2 0x1690 SWAP1 PUSH2 0x2C13 JUMP JUMPDEST DUP1 PUSH1 0x1F ADD PUSH1 0x20 DUP1 SWAP2 DIV MUL PUSH1 0x20 ADD PUSH1 0x40 MLOAD SWAP1 DUP2 ADD PUSH1 0x40 MSTORE DUP1 SWAP3 SWAP2 SWAP1 DUP2 DUP2 MSTORE PUSH1 0x20 ADD DUP3 DUP1 SLOAD PUSH2 0x16BC SWAP1 PUSH2 0x2C13 JUMP JUMPDEST DUP1 ISZERO PUSH2 0x1707 JUMPI DUP1 PUSH1 0x1F LT PUSH2 0x16DE JUMPI PUSH2 0x100 DUP1 DUP4 SLOAD DIV MUL DUP4 MSTORE SWAP2 PUSH1 0x20 ADD SWAP2 PUSH2 0x1707 JUMP JUMPDEST DUP3 ADD SWAP2 SWAP1 PUSH0 MSTORE PUSH1 0x20 PUSH0 KECCAK256 SWAP1 JUMPDEST DUP2 SLOAD DUP2 MSTORE SWAP1 PUSH1 0x1 ADD SWAP1 PUSH1 0x20 ADD DUP1 DUP4 GT PUSH2 0x16EA JUMPI DUP3 SWAP1 SUB PUSH1 0x1F AND DUP3 ADD SWAP2 JUMPDEST POP POP POP POP POP DUP2 MSTORE PUSH1 0x20 ADD PUSH1 0x1 DUP3 ADD DUP1 SLOAD PUSH2 0x1720 SWAP1 PUSH2 0x2C13 JUMP JUMPDEST DUP1 PUSH1 0x1F ADD PUSH1 0x20 DUP1 SWAP2 DIV MUL PUSH1 0x20 ADD PUSH1 0x40 MLOAD SWAP1 DUP2 ADD PUSH1 0x40 MSTORE DUP1 SWAP3 SWAP2 SWAP1 DUP2 DUP2 MSTORE PUSH1 0x20 ADD DUP3 DUP1 SLOAD PUSH2 0x174C SWAP1 PUSH2 0x2C13 JUMP JUMPDEST DUP1 ISZERO PUSH2 0x1797 JUMPI DUP1 PUSH1 0x1F LT PUSH2 0x176E JUMPI PUSH2 0x100 DUP1 DUP4 SLOAD DIV MUL DUP4 MSTORE SWAP2 PUSH1 0x20 ADD SWAP2 PUSH2 0x1797 JUMP JUMPDEST DUP3 ADD SWAP2 SWAP1 PUSH0 MSTORE PUSH1 0x20 PUSH0 KECCAK256 SWAP1 JUMPDEST DUP2 SLOAD DUP2 MSTORE SWAP1 PUSH1 0x1 ADD SWAP1 PUSH1 0x20 ADD DUP1 DUP4 GT PUSH2 0x177A JUMPI DUP3 SWAP1 SUB PUSH1 0x1F AND DUP3 ADD SWAP2 JUMPDEST POP POP POP POP POP DUP2 MSTORE PUSH1 0x20 ADD PUSH1 0x2 DUP3 ADD PUSH0 SWAP1 SLOAD SWAP1 PUSH2 0x100 EXP SWAP1 DIV PUSH2 0xFFFF AND PUSH2 0xFFFF AND PUSH2 0xFFFF AND DUP2 MSTORE PUSH1 0x20 ADD PUSH1 0x3 DUP3 ADD SLOAD DUP2 MSTORE PUSH1 0x20 ADD PUSH1 0x4 DUP3 ADD SLOAD DUP2 MSTORE POP POP SWAP1 POP SWAP1 JUMP JUMPDEST PUSH0 PUSH32 0x0 SWAP1 POP SWAP1 JUMP JUMPDEST PUSH0 PUSH1 0x9 PUSH1 0x2 SWAP1 SLOAD SWAP1 PUSH2 0x100 EXP SWAP1 DIV PUSH2 0xFFFF AND SWAP1 POP SWAP1 JUMP JUMPDEST PUSH0 PUSH1 0x1 SLOAD SWAP1 POP SWAP1 JUMP JUMPDEST PUSH0 PUSH1 0x9 PUSH1 0x4 SWAP1 SLOAD SWAP1 PUSH2 0x100 EXP SWAP1 DIV PUSH1 0xFF AND SWAP1 POP SWAP1 JUMP JUMPDEST PUSH0 SELFBALANCE SWAP1 POP SWAP1 JUMP JUMPDEST PUSH1 0x9 PUSH1 0x6 SWAP1 SLOAD SWAP1 PUSH2 0x100 EXP SWAP1 DIV PUSH1 0xFF AND ISZERO PUSH2 0x188C JUMPI PUSH1 0x40 MLOAD PUSH32 0x8C379A000000000000000000000000000000000000000000000000000000000 DUP2 MSTORE PUSH1 0x4 ADD PUSH2 0x1883 SWAP1 PUSH2 0x214E JUMP JUMPDEST PUSH1 0x40 MLOAD DUP1 SWAP2 SUB SWAP1 REVERT JUMPDEST PUSH32 0x0 PUSH20 0xFFFFFFFFFFFFFFFFFFFFFFFFFFFFFFFFFFFFFFFF AND PUSH2 0x8FC ADDRESS PUSH20 0xFFFFFFFFFFFFFFFFFFFFFFFFFFFFFFFFFFFFFFFF AND PUSH4 0xF9A96071 PUSH1 0x40 MLOAD DUP2 PUSH4 0xFFFFFFFF AND PUSH1 0xE0 SHL DUP2 MSTORE PUSH1 0x4 ADD PUSH1 0x20 PUSH1 0x40 MLOAD DUP1 DUP4 SUB DUP2 DUP7 GAS STATICCALL ISZERO DUP1 ISZERO PUSH2 0x190F JUMPI RETURNDATASIZE PUSH0 DUP1 RETURNDATACOPY RETURNDATASIZE PUSH0 REVERT JUMPDEST POP POP POP POP PUSH1 0x40 MLOAD RETURNDATASIZE PUSH1 0x1F NOT PUSH1 0x1F DUP3 ADD AND DUP3 ADD DUP1 PUSH1 0x40 MSTORE POP DUP2 ADD SWAP1 PUSH2 0x1933 SWAP2 SWAP1 PUSH2 0x24D9 JUMP JUMPDEST SWAP1 DUP2 ISZERO MUL SWAP1 PUSH1 0x40 MLOAD PUSH0 PUSH1 0x40 MLOAD DUP1 DUP4 SUB DUP2 DUP6 DUP9 DUP9 CALL SWAP4 POP POP POP POP ISZERO DUP1 ISZERO PUSH2 0x195B JUMPI RETURNDATASIZE PUSH0 DUP1 RETURNDATACOPY RETURNDATASIZE PUSH0 REVERT JUMPDEST POP PUSH1 0x9 PUSH1 0x7 SWAP1 SLOAD SWAP1 PUSH2 0x100 EXP SWAP1 DIV PUSH20 0xFFFFFFFFFFFFFFFFFFFFFFFFFFFFFFFFFFFFFFFF AND PUSH20 0xFFFFFFFFFFFFFFFFFFFFFFFFFFFFFFFFFFFFFFFF AND PUSH4 0x1F12D9A9 PUSH1 0xF SLOAD PUSH0 DUP1 SLOAD SWAP1 PUSH2 0x100 EXP SWAP1 DIV PUSH20 0xFFFFFFFFFFFFFFFFFFFFFFFFFFFFFFFFFFFFFFFF AND PUSH32 0x0 PUSH1 0x40 MLOAD DUP5 PUSH4 0xFFFFFFFF AND PUSH1 0xE0 SHL DUP2 MSTORE PUSH1 0x4 ADD PUSH2 0x19FC SWAP4 SWAP3 SWAP2 SWAP1 PUSH2 0x2C43 JUMP JUMPDEST PUSH0 PUSH1 0x40 MLOAD DUP1 DUP4 SUB DUP2 PUSH0 DUP8 DUP1 EXTCODESIZE ISZERO DUP1 ISZERO PUSH2 0x1A13 JUMPI PUSH0 DUP1 REVERT JUMPDEST POP GAS CALL ISZERO DUP1 ISZERO PUSH2 0x1A25 JUMPI RETURNDATASIZE PUSH0 DUP1 RETURNDATACOPY RETURNDATASIZE PUSH0 REVERT JUMPDEST POP POP POP POP PUSH1 0x1 PUSH1 0x9 PUSH1 0x6 PUSH2 0x100 EXP DUP2 SLOAD DUP2 PUSH1 0xFF MUL NOT AND SWAP1 DUP4 ISZERO ISZERO MUL OR SWAP1 SSTORE POP JUMP JUMPDEST PUSH0 PUSH1 0x9 PUSH1 0x6 SWAP1 SLOAD SWAP1 PUSH2 0x100 EXP SWAP1 DIV PUSH1 0xFF AND ISZERO PUSH2 0x1A97 JUMPI PUSH1 0x40 MLOAD PUSH32 0x8C379A000000000000000000000000000000000000000000000000000000000 DUP2 MSTORE PUSH1 0x4 ADD PUSH2 0x1A8E SWAP1 PUSH2 0x214E JUMP JUMPDEST PUSH1 0x40 MLOAD DUP1 SWAP2 SUB SWAP1 REVERT JUMPDEST PUSH0 DUP4 PUSH1 0xFF AND LT ISZERO DUP1 ISZERO PUSH2 0x1AAD JUMPI POP PUSH1 0x8 DUP4 PUSH1 0xFF AND LT JUMPDEST PUSH2 0x1AEC JUMPI PUSH1 0x40 MLOAD PUSH32 0x8C379A000000000000000000000000000000000000000000000000000000000 DUP2 MSTORE PUSH1 0x4 ADD PUSH2 0x1AE3 SWAP1 PUSH2 0x2CE8 JUMP JUMPDEST PUSH1 0x40 MLOAD DUP1 SWAP2 SUB SWAP1 REVERT JUMPDEST DUP2 DUP4 PUSH1 0xFF AND PUSH1 0x8 DUP2 LT PUSH2 0x1B02 JUMPI PUSH2 0x1B01 PUSH2 0x2D06 JUMP JUMPDEST JUMPDEST PUSH1 0x20 MUL ADD MLOAD SWAP1 POP SWAP3 SWAP2 POP POP JUMP JUMPDEST PUSH0 PUSH1 0x9 PUSH1 0x6 SWAP1 SLOAD SWAP1 PUSH2 0x100 EXP SWAP1 DIV PUSH1 0xFF AND ISZERO PUSH2 0x1B60 JUMPI PUSH1 0x40 MLOAD PUSH32 0x8C379A000000000000000000000000000000000000000000000000000000000 DUP2 MSTORE PUSH1 0x4 ADD PUSH2 0x1B57 SWAP1 PUSH2 0x214E JUMP JUMPDEST PUSH1 0x40 MLOAD DUP1 SWAP2 SUB SWAP1 REVERT JUMPDEST PUSH0 DUP1 PUSH0 SWAP1 SLOAD SWAP1 PUSH2 0x100 EXP SWAP1 DIV PUSH20 0xFFFFFFFFFFFFFFFFFFFFFFFFFFFFFFFFFFFFFFFF AND PUSH20 0xFFFFFFFFFFFFFFFFFFFFFFFFFFFFFFFFFFFFFFFF AND BALANCE SWAP1 POP PUSH1 0xA PUSH1 0x1 SLOAD PUSH2 0x1BAA SWAP2 SWAP1 PUSH2 0x2815 JUMP JUMPDEST PUSH1 0x1 SLOAD PUSH2 0x1BB7 SWAP2 SWAP1 PUSH2 0x2199 JUMP JUMPDEST DUP2 LT ISZERO SWAP2 POP POP SWAP1 JUMP JUMPDEST PUSH1 0x40 MLOAD DUP1 PUSH1 0xA0 ADD PUSH1 0x40 MSTORE DUP1 PUSH1 0x60 DUP2 MSTORE PUSH1 0x20 ADD PUSH1 0x60 DUP2 MSTORE PUSH1 0x20 ADD PUSH0 PUSH2 0xFFFF AND DUP2 MSTORE PUSH1 0x20 ADD PUSH0 DUP2 MSTORE PUSH1 0x20 ADD PUSH0 DUP2 MSTORE POP SWAP1 JUMP JUMPDEST PUSH0 PUSH1 0x40 MLOAD SWAP1 POP SWAP1 JUMP JUMPDEST PUSH0 DUP1 REVERT JUMPDEST PUSH0 DUP1 REVERT JUMPDEST PUSH0 DUP2 SWAP1 POP SWAP2 SWAP1 POP JUMP JUMPDEST PUSH2 0x1C13 DUP2 PUSH2 0x1C01 JUMP JUMPDEST DUP2 EQ PUSH2 0x1C1D JUMPI PUSH0 DUP1 REVERT JUMPDEST POP JUMP JUMPDEST PUSH0 DUP2 CALLDATALOAD SWAP1 POP PUSH2 0x1C2E DUP2 PUSH2 0x1C0A JUMP JUMPDEST SWAP3 SWAP2 POP POP JUMP JUMPDEST PUSH0 PUSH1 0xFF DUP3 AND SWAP1 POP SWAP2 SWAP1 POP JUMP JUMPDEST PUSH2 0x1C49 DUP2 PUSH2 0x1C34 JUMP JUMPDEST DUP2 EQ PUSH2 0x1C53 JUMPI PUSH0 DUP1 REVERT JUMPDEST POP JUMP JUMPDEST PUSH0 DUP2 CALLDATALOAD SWAP1 POP PUSH2 0x1C64 DUP2 PUSH2 0x1C40 JUMP JUMPDEST SWAP3 SWAP2 POP POP JUMP JUMPDEST PUSH0 DUP1 PUSH0 PUSH1 0x60 DUP5 DUP7 SUB SLT ISZERO PUSH2 0x1C81 JUMPI PUSH2 0x1C80 PUSH2 0x1BF9 JUMP JUMPDEST JUMPDEST PUSH0 PUSH2 0x1C8E DUP7 DUP3 DUP8 ADD PUSH2 0x1C20 JUMP JUMPDEST SWAP4 POP POP PUSH1 0x20 PUSH2 0x1C9F DUP7 DUP3 DUP8 ADD PUSH2 0x1C56 JUMP JUMPDEST SWAP3 POP POP PUSH1 0x40 PUSH2 0x1CB0 DUP7 DUP3 DUP8 ADD PUSH2 0x1C56 JUMP JUMPDEST SWAP2 POP POP SWAP3 POP SWAP3 POP SWAP3 JUMP JUMPDEST PUSH0 PUSH2 0xFFFF DUP3 AND SWAP1 POP SWAP2 SWAP1 POP JUMP JUMPDEST PUSH2 0x1CD0 DUP2 PUSH2 0x1CBA JUMP JUMPDEST DUP3 MSTORE POP POP JUMP JUMPDEST PUSH0 PUSH1 0x20 DUP3 ADD SWAP1 POP PUSH2 0x1CE9 PUSH0 DUP4 ADD DUP5 PUSH2 0x1CC7 JUMP JUMPDEST SWAP3 SWAP2 POP POP JUMP JUMPDEST PUSH0 DUP1 REVERT JUMPDEST PUSH0 DUP1 REVERT JUMPDEST PUSH0 DUP1 REVERT JUMPDEST PUSH0 DUP1 DUP4 PUSH1 0x1F DUP5 ADD SLT PUSH2 0x1D10 JUMPI PUSH2 0x1D0F PUSH2 0x1CEF JUMP JUMPDEST JUMPDEST DUP3 CALLDATALOAD SWAP1 POP PUSH8 0xFFFFFFFFFFFFFFFF DUP2 GT ISZERO PUSH2 0x1D2D JUMPI PUSH2 0x1D2C PUSH2 0x1CF3 JUMP JUMPDEST JUMPDEST PUSH1 0x20 DUP4 ADD SWAP2 POP DUP4 PUSH1 0x1 DUP3 MUL DUP4 ADD GT ISZERO PUSH2 0x1D49 JUMPI PUSH2 0x1D48 PUSH2 0x1CF7 JUMP JUMPDEST JUMPDEST SWAP3 POP SWAP3 SWAP1 POP JUMP JUMPDEST PUSH0 DUP1 PUSH1 0x20 DUP4 DUP6 SUB SLT ISZERO PUSH2 0x1D66 JUMPI PUSH2 0x1D65 PUSH2 0x1BF9 JUMP JUMPDEST JUMPDEST PUSH0 DUP4 ADD CALLDATALOAD PUSH8 0xFFFFFFFFFFFFFFFF DUP2 GT ISZERO PUSH2 0x1D83 JUMPI PUSH2 0x1D82 PUSH2 0x1BFD JUMP JUMPDEST JUMPDEST PUSH2 0x1D8F DUP6 DUP3 DUP7 ADD PUSH2 0x1CFB JUMP JUMPDEST SWAP3 POP SWAP3 POP POP SWAP3 POP SWAP3 SWAP1 POP JUMP JUMPDEST PUSH0 PUSH20 0xFFFFFFFFFFFFFFFFFFFFFFFFFFFFFFFFFFFFFFFF DUP3 AND SWAP1 POP SWAP2 SWAP1 POP JUMP JUMPDEST PUSH0 PUSH2 0x1DC4 DUP3 PUSH2 0x1D9B JUMP JUMPDEST SWAP1 POP SWAP2 SWAP1 POP JUMP JUMPDEST PUSH2 0x1DD4 DUP2 PUSH2 0x1DBA JUMP JUMPDEST DUP3 MSTORE POP POP JUMP JUMPDEST PUSH0 PUSH1 0x20 DUP3 ADD SWAP1 POP PUSH2 0x1DED PUSH0 DUP4 ADD DUP5 PUSH2 0x1DCB JUMP JUMPDEST SWAP3 SWAP2 POP POP JUMP JUMPDEST PUSH0 DUP2 ISZERO ISZERO SWAP1 POP SWAP2 SWAP1 POP JUMP JUMPDEST PUSH2 0x1E07 DUP2 PUSH2 0x1DF3 JUMP JUMPDEST DUP3 MSTORE POP POP JUMP JUMPDEST PUSH0 DUP2 MLOAD SWAP1 POP SWAP2 SWAP1 POP JUMP JUMPDEST PUSH0 DUP3 DUP3 MSTORE PUSH1 0x20 DUP3 ADD SWAP1 POP SWAP3 SWAP2 POP POP JUMP JUMPDEST DUP3 DUP2 DUP4 MCOPY PUSH0 DUP4 DUP4 ADD MSTORE POP POP POP JUMP JUMPDEST PUSH0 PUSH1 0x1F NOT PUSH1 0x1F DUP4 ADD AND SWAP1 POP SWAP2 SWAP1 POP JUMP JUMPDEST PUSH0 PUSH2 0x1E4F DUP3 PUSH2 0x1E0D JUMP JUMPDEST PUSH2 0x1E59 DUP2 DUP6 PUSH2 0x1E17 JUMP JUMPDEST SWAP4 POP PUSH2 0x1E69 DUP2 DUP6 PUSH1 0x20 DUP7 ADD PUSH2 0x1E27 JUMP JUMPDEST PUSH2 0x1E72 DUP2 PUSH2 0x1E35 JUMP JUMPDEST DUP5 ADD SWAP2 POP POP SWAP3 SWAP2 POP POP JUMP JUMPDEST PUSH0 PUSH1 0x40 DUP3 ADD SWAP1 POP PUSH2 0x1E90 PUSH0 DUP4 ADD DUP6 PUSH2 0x1DFE JUMP JUMPDEST DUP2 DUP2 SUB PUSH1 0x20 DUP4 ADD MSTORE PUSH2 0x1EA2 DUP2 DUP5 PUSH2 0x1E45 JUMP JUMPDEST SWAP1 POP SWAP4 SWAP3 POP POP POP JUMP JUMPDEST PUSH2 0x1EB4 DUP2 PUSH2 0x1C01 JUMP JUMPDEST DUP3 MSTORE POP POP JUMP JUMPDEST PUSH0 PUSH1 0x20 DUP3 ADD SWAP1 POP PUSH2 0x1ECD PUSH0 DUP4 ADD DUP5 PUSH2 0x1EAB JUMP JUMPDEST SWAP3 SWAP2 POP POP JUMP JUMPDEST PUSH0 PUSH1 0x20 DUP3 DUP5 SUB SLT ISZERO PUSH2 0x1EE8 JUMPI PUSH2 0x1EE7 PUSH2 0x1BF9 JUMP JUMPDEST JUMPDEST PUSH0 PUSH2 0x1EF5 DUP5 DUP3 DUP6 ADD PUSH2 0x1C20 JUMP JUMPDEST SWAP2 POP POP SWAP3 SWAP2 POP POP JUMP JUMPDEST PUSH0 DUP2 SWAP1 POP SWAP2 SWAP1 POP JUMP JUMPDEST PUSH0 PUSH2 0x1F21 PUSH2 0x1F1C PUSH2 0x1F17 DUP5 PUSH2 0x1D9B JUMP JUMPDEST PUSH2 0x1EFE JUMP JUMPDEST PUSH2 0x1D9B JUMP JUMPDEST SWAP1 POP SWAP2 SWAP1 POP JUMP JUMPDEST PUSH0 PUSH2 0x1F32 DUP3 PUSH2 0x1F07 JUMP JUMPDEST SWAP1 POP SWAP2 SWAP1 POP JUMP JUMPDEST PUSH0 PUSH2 0x1F43 DUP3 PUSH2 0x1F28 JUMP JUMPDEST SWAP1 POP SWAP2 SWAP1 POP JUMP JUMPDEST PUSH2 0x1F53 DUP2 PUSH2 0x1F39 JUMP JUMPDEST DUP3 MSTORE POP POP JUMP JUMPDEST PUSH0 PUSH1 0x20 DUP3 ADD SWAP1 POP PUSH2 0x1F6C PUSH0 DUP4 ADD DUP5 PUSH2 0x1F4A JUMP JUMPDEST SWAP3 SWAP2 POP POP JUMP JUMPDEST PUSH0 DUP2 MLOAD SWAP1 POP SWAP2 SWAP1 POP JUMP JUMPDEST PUSH0 DUP3 DUP3 MSTORE PUSH1 0x20 DUP3 ADD SWAP1 POP SWAP3 SWAP2 POP POP JUMP JUMPDEST PUSH0 PUSH2 0x1F96 DUP3 PUSH2 0x1F72 JUMP JUMPDEST PUSH2 0x1FA0 DUP2 DUP6 PUSH2 0x1F7C JUMP JUMPDEST SWAP4 POP PUSH2 0x1FB0 DUP2 DUP6 PUSH1 0x20 DUP7 ADD PUSH2 0x1E27 JUMP JUMPDEST PUSH2 0x1FB9 DUP2 PUSH2 0x1E35 JUMP JUMPDEST DUP5 ADD SWAP2 POP POP SWAP3 SWAP2 POP POP JUMP JUMPDEST PUSH2 0x1FCD DUP2 PUSH2 0x1CBA JUMP JUMPDEST DUP3 MSTORE POP POP JUMP JUMPDEST PUSH2 0x1FDC DUP2 PUSH2 0x1C01 JUMP JUMPDEST DUP3 MSTORE POP POP JUMP JUMPDEST PUSH0 PUSH1 0xA0 DUP4 ADD PUSH0 DUP4 ADD MLOAD DUP5 DUP3 SUB PUSH0 DUP7 ADD MSTORE PUSH2 0x1FFC DUP3 DUP3 PUSH2 0x1F8C JUMP JUMPDEST SWAP2 POP POP PUSH1 0x20 DUP4 ADD MLOAD DUP5 DUP3 SUB PUSH1 0x20 DUP7 ADD MSTORE PUSH2 0x2016 DUP3 DUP3 PUSH2 0x1F8C JUMP JUMPDEST SWAP2 POP POP PUSH1 0x40 DUP4 ADD MLOAD PUSH2 0x202B PUSH1 0x40 DUP7 ADD DUP3 PUSH2 0x1FC4 JUMP JUMPDEST POP PUSH1 0x60 DUP4 ADD MLOAD PUSH2 0x203E PUSH1 0x60 DUP7 ADD DUP3 PUSH2 0x1FD3 JUMP JUMPDEST POP PUSH1 0x80 DUP4 ADD MLOAD PUSH2 0x2051 PUSH1 0x80 DUP7 ADD DUP3 PUSH2 0x1FD3 JUMP JUMPDEST POP DUP1 SWAP2 POP POP SWAP3 SWAP2 POP POP JUMP JUMPDEST PUSH0 PUSH1 0x20 DUP3 ADD SWAP1 POP DUP2 DUP2 SUB PUSH0 DUP4 ADD MSTORE PUSH2 0x2074 DUP2 DUP5 PUSH2 0x1FE2 JUMP JUMPDEST SWAP1 POP SWAP3 SWAP2 POP POP JUMP JUMPDEST PUSH0 PUSH2 0x2086 DUP3 PUSH2 0x1D9B JUMP JUMPDEST SWAP1 POP SWAP2 SWAP1 POP JUMP JUMPDEST PUSH2 0x2096 DUP2 PUSH2 0x207C JUMP JUMPDEST DUP3 MSTORE POP POP JUMP JUMPDEST PUSH0 PUSH1 0x20 DUP3 ADD SWAP1 POP PUSH2 0x20AF PUSH0 DUP4 ADD DUP5 PUSH2 0x208D JUMP JUMPDEST SWAP3 SWAP2 POP POP JUMP JUMPDEST PUSH0 PUSH1 0x20 DUP3 ADD SWAP1 POP PUSH2 0x20C8 PUSH0 DUP4 ADD DUP5 PUSH2 0x1DFE JUMP JUMPDEST SWAP3 SWAP2 POP POP JUMP JUMPDEST PUSH0 DUP3 DUP3 MSTORE PUSH1 0x20 DUP3 ADD SWAP1 POP SWAP3 SWAP2 POP POP JUMP JUMPDEST PUSH32 0x4C6561736541677265656D656E743A20436F6E7472616374207465726D696E61 PUSH0 DUP3 ADD MSTORE PUSH32 0x7465640000000000000000000000000000000000000000000000000000000000 PUSH1 0x20 DUP3 ADD MSTORE POP JUMP JUMPDEST PUSH0 PUSH2 0x2138 PUSH1 0x23 DUP4 PUSH2 0x20CE JUMP JUMPDEST SWAP2 POP PUSH2 0x2143 DUP3 PUSH2 0x20DE JUMP JUMPDEST PUSH1 0x40 DUP3 ADD SWAP1 POP SWAP2 SWAP1 POP JUMP JUMPDEST PUSH0 PUSH1 0x20 DUP3 ADD SWAP1 POP DUP2 DUP2 SUB PUSH0 DUP4 ADD MSTORE PUSH2 0x2165 DUP2 PUSH2 0x212C JUMP JUMPDEST SWAP1 POP SWAP2 SWAP1 POP JUMP JUMPDEST PUSH32 0x4E487B7100000000000000000000000000000000000000000000000000000000 PUSH0 MSTORE PUSH1 0x11 PUSH1 0x4 MSTORE PUSH1 0x24 PUSH0 REVERT JUMPDEST PUSH0 PUSH2 0x21A3 DUP3 PUSH2 0x1C01 JUMP JUMPDEST SWAP2 POP PUSH2 0x21AE DUP4 PUSH2 0x1C01 JUMP JUMPDEST SWAP3 POP DUP3 DUP3 ADD SWAP1 POP DUP1 DUP3 GT ISZERO PUSH2 0x21C6 JUMPI PUSH2 0x21C5 PUSH2 0x216C JUMP JUMPDEST JUMPDEST SWAP3 SWAP2 POP POP JUMP JUMPDEST PUSH32 0x4C6561736541677265656D656E743A2054686520646561646C696E652072616E PUSH0 DUP3 ADD MSTORE PUSH32 0x206F757400000000000000000000000000000000000000000000000000000000 PUSH1 0x20 DUP3 ADD MSTORE POP JUMP JUMPDEST PUSH0 PUSH2 0x2226 PUSH1 0x24 DUP4 PUSH2 0x20CE JUMP JUMPDEST SWAP2 POP PUSH2 0x2231 DUP3 PUSH2 0x21CC JUMP JUMPDEST PUSH1 0x40 DUP3 ADD SWAP1 POP SWAP2 SWAP1 POP JUMP JUMPDEST PUSH0 PUSH1 0x20 DUP3 ADD SWAP1 POP DUP2 DUP2 SUB PUSH0 DUP4 ADD MSTORE PUSH2 0x2253 DUP2 PUSH2 0x221A JUMP JUMPDEST SWAP1 POP SWAP2 SWAP1 POP JUMP JUMPDEST PUSH32 0x4C6561736541677265656D656E743A20496E636F7272656374207061796D656E PUSH0 DUP3 ADD MSTORE PUSH32 0x7420616D6F756E74000000000000000000000000000000000000000000000000 PUSH1 0x20 DUP3 ADD MSTORE POP JUMP JUMPDEST PUSH0 PUSH2 0x22B4 PUSH1 0x28 DUP4 PUSH2 0x20CE JUMP JUMPDEST SWAP2 POP PUSH2 0x22BF DUP3 PUSH2 0x225A JUMP JUMPDEST PUSH1 0x40 DUP3 ADD SWAP1 POP SWAP2 SWAP1 POP JUMP JUMPDEST PUSH0 PUSH1 0x20 DUP3 ADD SWAP1 POP DUP2 DUP2 SUB PUSH0 DUP4 ADD MSTORE PUSH2 0x22E1 DUP2 PUSH2 0x22A8 JUMP JUMPDEST SWAP1 POP SWAP2 SWAP1 POP JUMP JUMPDEST PUSH0 PUSH2 0x22F2 DUP3 PUSH2 0x1C01 JUMP JUMPDEST SWAP2 POP PUSH2 0x22FD DUP4 PUSH2 0x1C01 JUMP JUMPDEST SWAP3 POP DUP3 DUP3 SUB SWAP1 POP DUP2 DUP2 GT ISZERO PUSH2 0x2315 JUMPI PUSH2 0x2314 PUSH2 0x216C JUMP JUMPDEST JUMPDEST SWAP3 SWAP2 POP POP JUMP JUMPDEST PUSH32 0x4C6561736541677265656D656E743A204F6E6C7920637573746F6D6572206361 PUSH0 DUP3 ADD MSTORE PUSH32 0x6E207465726D696E617465000000000000000000000000000000000000000000 PUSH1 0x20 DUP3 ADD MSTORE POP JUMP JUMPDEST PUSH0 PUSH2 0x2375 PUSH1 0x2B DUP4 PUSH2 0x20CE JUMP JUMPDEST SWAP2 POP PUSH2 0x2380 DUP3 PUSH2 0x231B JUMP JUMPDEST PUSH1 0x40 DUP3 ADD SWAP1 POP SWAP2 SWAP1 POP JUMP JUMPDEST PUSH0 PUSH1 0x20 DUP3 ADD SWAP1 POP DUP2 DUP2 SUB PUSH0 DUP4 ADD MSTORE PUSH2 0x23A2 DUP2 PUSH2 0x2369 JUMP JUMPDEST SWAP1 POP SWAP2 SWAP1 POP JUMP JUMPDEST PUSH32 0x4C6561736541677265656D656E743A204F6E6C7920746865206F776E65722D63 PUSH0 DUP3 ADD MSTORE PUSH32 0x6F6D70616E792063616E20706572666F726D207468697320616374696F6E0000 PUSH1 0x20 DUP3 ADD MSTORE POP JUMP JUMPDEST PUSH0 PUSH2 0x2403 PUSH1 0x3E DUP4 PUSH2 0x20CE JUMP JUMPDEST SWAP2 POP PUSH2 0x240E DUP3 PUSH2 0x23A9 JUMP JUMPDEST PUSH1 0x40 DUP3 ADD SWAP1 POP SWAP2 SWAP1 POP JUMP JUMPDEST PUSH0 PUSH1 0x20 DUP3 ADD SWAP1 POP DUP2 DUP2 SUB PUSH0 DUP4 ADD MSTORE PUSH2 0x2430 DUP2 PUSH2 0x23F7 JUMP JUMPDEST SWAP1 POP SWAP2 SWAP1 POP JUMP JUMPDEST PUSH32 0x4C6561736541677265656D656E743A204F6E6C7920637573746F6D6572206361 PUSH0 DUP3 ADD MSTORE PUSH32 0x6E20657874656E64000000000000000000000000000000000000000000000000 PUSH1 0x20 DUP3 ADD MSTORE POP JUMP JUMPDEST PUSH0 PUSH2 0x2491 PUSH1 0x28 DUP4 PUSH2 0x20CE JUMP JUMPDEST SWAP2 POP PUSH2 0x249C DUP3 PUSH2 0x2437 JUMP JUMPDEST PUSH1 0x40 DUP3 ADD SWAP1 POP SWAP2 SWAP1 POP JUMP JUMPDEST PUSH0 PUSH1 0x20 DUP3 ADD SWAP1 POP DUP2 DUP2 SUB PUSH0 DUP4 ADD MSTORE PUSH2 0x24BE DUP2 PUSH2 0x2485 JUMP JUMPDEST SWAP1 POP SWAP2 SWAP1 POP JUMP JUMPDEST PUSH0 DUP2 MLOAD SWAP1 POP PUSH2 0x24D3 DUP2 PUSH2 0x1C0A JUMP JUMPDEST SWAP3 SWAP2 POP POP JUMP JUMPDEST PUSH0 PUSH1 0x20 DUP3 DUP5 SUB SLT ISZERO PUSH2 0x24EE JUMPI PUSH2 0x24ED PUSH2 0x1BF9 JUMP JUMPDEST JUMPDEST PUSH0 PUSH2 0x24FB DUP5 DUP3 DUP6 ADD PUSH2 0x24C5 JUMP JUMPDEST SWAP2 POP POP SWAP3 SWAP2 POP POP JUMP JUMPDEST PUSH0 DUP1 REVERT JUMPDEST PUSH32 0x4E487B7100000000000000000000000000000000000000000000000000000000 PUSH0 MSTORE PUSH1 0x41 PUSH1 0x4 MSTORE PUSH1 0x24 PUSH0 REVERT JUMPDEST PUSH2 0x253E DUP3 PUSH2 0x1E35 JUMP JUMPDEST DUP2 ADD DUP2 DUP2 LT PUSH8 0xFFFFFFFFFFFFFFFF DUP3 GT OR ISZERO PUSH2 0x255D JUMPI PUSH2 0x255C PUSH2 0x2508 JUMP JUMPDEST JUMPDEST DUP1 PUSH1 0x40 MSTORE POP POP POP JUMP JUMPDEST PUSH0 PUSH2 0x256F PUSH2 0x1BF0 JUMP JUMPDEST SWAP1 POP PUSH2 0x257B DUP3 DUP3 PUSH2 0x2535 JUMP JUMPDEST SWAP2 SWAP1 POP JUMP JUMPDEST PUSH0 DUP1 REVERT JUMPDEST PUSH0 DUP1 REVERT JUMPDEST PUSH0 PUSH8 0xFFFFFFFFFFFFFFFF DUP3 GT ISZERO PUSH2 0x25A2 JUMPI PUSH2 0x25A1 PUSH2 0x2508 JUMP JUMPDEST JUMPDEST PUSH2 0x25AB DUP3 PUSH2 0x1E35 JUMP JUMPDEST SWAP1 POP PUSH1 0x20 DUP2 ADD SWAP1 POP SWAP2 SWAP1 POP JUMP JUMPDEST PUSH0 PUSH2 0x25CA PUSH2 0x25C5 DUP5 PUSH2 0x2588 JUMP JUMPDEST PUSH2 0x2566 JUMP JUMPDEST SWAP1 POP DUP3 DUP2 MSTORE PUSH1 0x20 DUP2 ADD DUP5 DUP5 DUP5 ADD GT ISZERO PUSH2 0x25E6 JUMPI PUSH2 0x25E5 PUSH2 0x2584 JUMP JUMPDEST JUMPDEST PUSH2 0x25F1 DUP5 DUP3 DUP6 PUSH2 0x1E27 JUMP JUMPDEST POP SWAP4 SWAP3 POP POP POP JUMP JUMPDEST PUSH0 DUP3 PUSH1 0x1F DUP4 ADD SLT PUSH2 0x260D JUMPI PUSH2 0x260C PUSH2 0x1CEF JUMP JUMPDEST JUMPDEST DUP2 MLOAD PUSH2 0x261D DUP5 DUP3 PUSH1 0x20 DUP7 ADD PUSH2 0x25B8 JUMP JUMPDEST SWAP2 POP POP SWAP3 SWAP2 POP POP JUMP JUMPDEST PUSH2 0x262F DUP2 PUSH2 0x1CBA JUMP JUMPDEST DUP2 EQ PUSH2 0x2639 JUMPI PUSH0 DUP1 REVERT JUMPDEST POP JUMP JUMPDEST PUSH0 DUP2 MLOAD SWAP1 POP PUSH2 0x264A DUP2 PUSH2 0x2626 JUMP JUMPDEST SWAP3 SWAP2 POP POP JUMP JUMPDEST PUSH0 PUSH1 0xA0 DUP3 DUP5 SUB SLT ISZERO PUSH2 0x2665 JUMPI PUSH2 0x2664 PUSH2 0x2504 JUMP JUMPDEST JUMPDEST PUSH2 0x266F PUSH1 0xA0 PUSH2 0x2566 JUMP JUMPDEST SWAP1 POP PUSH0 DUP3 ADD MLOAD PUSH8 0xFFFFFFFFFFFFFFFF DUP2 GT ISZERO PUSH2 0x268E JUMPI PUSH2 0x268D PUSH2 0x2580 JUMP JUMPDEST JUMPDEST PUSH2 0x269A DUP5 DUP3 DUP6 ADD PUSH2 0x25F9 JUMP JUMPDEST PUSH0 DUP4 ADD MSTORE POP PUSH1 0x20 DUP3 ADD MLOAD PUSH8 0xFFFFFFFFFFFFFFFF DUP2 GT ISZERO PUSH2 0x26BD JUMPI PUSH2 0x26BC PUSH2 0x2580 JUMP JUMPDEST JUMPDEST PUSH2 0x26C9 DUP5 DUP3 DUP6 ADD PUSH2 0x25F9 JUMP JUMPDEST PUSH1 0x20 DUP4 ADD MSTORE POP PUSH1 0x40 PUSH2 0x26DD DUP5 DUP3 DUP6 ADD PUSH2 0x263C JUMP JUMPDEST PUSH1 0x40 DUP4 ADD MSTORE POP PUSH1 0x60 PUSH2 0x26F1 DUP5 DUP3 DUP6 ADD PUSH2 0x24C5 JUMP JUMPDEST PUSH1 0x60 DUP4 ADD MSTORE POP PUSH1 0x80 PUSH2 0x2705 DUP5 DUP3 DUP6 ADD PUSH2 0x24C5 JUMP JUMPDEST PUSH1 0x80 DUP4 ADD MSTORE POP SWAP3 SWAP2 POP POP JUMP JUMPDEST PUSH0 PUSH1 0x20 DUP3 DUP5 SUB SLT ISZERO PUSH2 0x2726 JUMPI PUSH2 0x2725 PUSH2 0x1BF9 JUMP JUMPDEST JUMPDEST PUSH0 DUP3 ADD MLOAD PUSH8 0xFFFFFFFFFFFFFFFF DUP2 GT ISZERO PUSH2 0x2743 JUMPI PUSH2 0x2742 PUSH2 0x1BFD JUMP JUMPDEST JUMPDEST PUSH2 0x274F DUP5 DUP3 DUP6 ADD PUSH2 0x2650 JUMP JUMPDEST SWAP2 POP POP SWAP3 SWAP2 POP POP JUMP JUMPDEST PUSH2 0x2761 DUP2 PUSH2 0x1C34 JUMP JUMPDEST DUP3 MSTORE POP POP JUMP JUMPDEST PUSH0 PUSH2 0x2781 PUSH2 0x277C PUSH2 0x2777 DUP5 PUSH2 0x1CBA JUMP JUMPDEST PUSH2 0x1EFE JUMP JUMPDEST PUSH2 0x1C01 JUMP JUMPDEST SWAP1 POP SWAP2 SWAP1 POP JUMP JUMPDEST PUSH2 0x2791 DUP2 PUSH2 0x2767 JUMP JUMPDEST DUP3 MSTORE POP POP JUMP JUMPDEST PUSH0 PUSH1 0xA0 DUP3 ADD SWAP1 POP PUSH2 0x27AA PUSH0 DUP4 ADD DUP9 PUSH2 0x1EAB JUMP JUMPDEST PUSH2 0x27B7 PUSH1 0x20 DUP4 ADD DUP8 PUSH2 0x1EAB JUMP JUMPDEST PUSH2 0x27C4 PUSH1 0x40 DUP4 ADD DUP7 PUSH2 0x2758 JUMP JUMPDEST PUSH2 0x27D1 PUSH1 0x60 DUP4 ADD DUP6 PUSH2 0x2788 JUMP JUMPDEST PUSH2 0x27DE PUSH1 0x80 DUP4 ADD DUP5 PUSH2 0x1EAB JUMP JUMPDEST SWAP7 SWAP6 POP POP POP POP POP POP JUMP JUMPDEST PUSH32 0x4E487B7100000000000000000000000000000000000000000000000000000000 PUSH0 MSTORE PUSH1 0x12 PUSH1 0x4 MSTORE PUSH1 0x24 PUSH0 REVERT JUMPDEST PUSH0 PUSH2 0x281F DUP3 PUSH2 0x1C01 JUMP JUMPDEST SWAP2 POP PUSH2 0x282A DUP4 PUSH2 0x1C01 JUMP JUMPDEST SWAP3 POP DUP3 PUSH2 0x283A JUMPI PUSH2 0x2839 PUSH2 0x27E8 JUMP JUMPDEST JUMPDEST DUP3 DUP3 DIV SWAP1 POP SWAP3 SWAP2 POP POP JUMP JUMPDEST PUSH0 PUSH2 0x284F DUP3 PUSH2 0x1CBA JUMP JUMPDEST SWAP2 POP PUSH2 0x285A DUP4 PUSH2 0x1CBA JUMP JUMPDEST SWAP3 POP DUP3 DUP3 SUB SWAP1 POP PUSH2 0xFFFF DUP2 GT ISZERO PUSH2 0x2874 JUMPI PUSH2 0x2873 PUSH2 0x216C JUMP JUMPDEST JUMPDEST SWAP3 SWAP2 POP POP JUMP JUMPDEST PUSH2 0x2883 DUP2 PUSH2 0x1DBA JUMP JUMPDEST DUP2 EQ PUSH2 0x288D JUMPI PUSH0 DUP1 REVERT JUMPDEST POP JUMP JUMPDEST PUSH0 DUP2 MLOAD SWAP1 POP PUSH2 0x289E DUP2 PUSH2 0x287A JUMP JUMPDEST SWAP3 SWAP2 POP POP JUMP JUMPDEST PUSH0 PUSH1 0x20 DUP3 DUP5 SUB SLT ISZERO PUSH2 0x28B9 JUMPI PUSH2 0x28B8 PUSH2 0x1BF9 JUMP JUMPDEST JUMPDEST PUSH0 PUSH2 0x28C6 DUP5 DUP3 DUP6 ADD PUSH2 0x2890 JUMP JUMPDEST SWAP2 POP POP SWAP3 SWAP2 POP POP JUMP JUMPDEST PUSH2 0x28D8 DUP2 PUSH2 0x207C JUMP JUMPDEST DUP2 EQ PUSH2 0x28E2 JUMPI PUSH0 DUP1 REVERT JUMPDEST POP JUMP JUMPDEST PUSH0 DUP2 MLOAD SWAP1 POP PUSH2 0x28F3 DUP2 PUSH2 0x28CF JUMP JUMPDEST SWAP3 SWAP2 POP POP JUMP JUMPDEST PUSH0 PUSH1 0x20 DUP3 DUP5 SUB SLT ISZERO PUSH2 0x290E JUMPI PUSH2 0x290D PUSH2 0x1BF9 JUMP JUMPDEST JUMPDEST PUSH0 PUSH2 0x291B DUP5 DUP3 DUP6 ADD PUSH2 0x28E5 JUMP JUMPDEST SWAP2 POP POP SWAP3 SWAP2 POP POP JUMP JUMPDEST PUSH0 PUSH2 0x292E DUP3 PUSH2 0x1F28 JUMP JUMPDEST SWAP1 POP SWAP2 SWAP1 POP JUMP JUMPDEST PUSH2 0x293E DUP2 PUSH2 0x2924 JUMP JUMPDEST DUP3 MSTORE POP POP JUMP JUMPDEST PUSH0 PUSH1 0x60 DUP3 ADD SWAP1 POP PUSH2 0x2957 PUSH0 DUP4 ADD DUP7 PUSH2 0x1DCB JUMP JUMPDEST PUSH2 0x2964 PUSH1 0x20 DUP4 ADD DUP6 PUSH2 0x2935 JUMP JUMPDEST PUSH2 0x2971 PUSH1 0x40 DUP4 ADD DUP5 PUSH2 0x1EAB JUMP JUMPDEST SWAP5 SWAP4 POP POP POP POP JUMP JUMPDEST PUSH32 0x4C6561736541677265656D656E743A204F6E6C7920637573746F6D6572206361 PUSH0 DUP3 ADD MSTORE PUSH32 0x6E206C656173652061206E657720636172000000000000000000000000000000 PUSH1 0x20 DUP3 ADD MSTORE POP JUMP JUMPDEST PUSH0 PUSH2 0x29D3 PUSH1 0x31 DUP4 PUSH2 0x20CE JUMP JUMPDEST SWAP2 POP PUSH2 0x29DE DUP3 PUSH2 0x2979 JUMP JUMPDEST PUSH1 0x40 DUP3 ADD SWAP1 POP SWAP2 SWAP1 POP JUMP JUMPDEST PUSH0 PUSH1 0x20 DUP3 ADD SWAP1 POP DUP2 DUP2 SUB PUSH0 DUP4 ADD MSTORE PUSH2 0x2A00 DUP2 PUSH2 0x29C7 JUMP JUMPDEST SWAP1 POP SWAP2 SWAP1 POP JUMP JUMPDEST PUSH0 PUSH1 0x60 DUP3 ADD SWAP1 POP PUSH2 0x2A1A PUSH0 DUP4 ADD DUP7 PUSH2 0x2935 JUMP JUMPDEST PUSH2 0x2A27 PUSH1 0x20 DUP4 ADD DUP6 PUSH2 0x2935 JUMP JUMPDEST PUSH2 0x2A34 PUSH1 0x40 DUP4 ADD DUP5 PUSH2 0x1EAB JUMP JUMPDEST SWAP5 SWAP4 POP POP POP POP JUMP JUMPDEST PUSH32 0x4C6561736541677265656D656E743A204F6E6C7920637573746F6D6572206361 PUSH0 DUP3 ADD MSTORE PUSH32 0x6E20706179000000000000000000000000000000000000000000000000000000 PUSH1 0x20 DUP3 ADD MSTORE POP JUMP JUMPDEST PUSH0 PUSH2 0x2A96 PUSH1 0x25 DUP4 PUSH2 0x20CE JUMP JUMPDEST SWAP2 POP PUSH2 0x2AA1 DUP3 PUSH2 0x2A3C JUMP JUMPDEST PUSH1 0x40 DUP3 ADD SWAP1 POP SWAP2 SWAP1 POP JUMP JUMPDEST PUSH0 PUSH1 0x20 DUP3 ADD SWAP1 POP DUP2 DUP2 SUB PUSH0 DUP4 ADD MSTORE PUSH2 0x2AC3 DUP2 PUSH2 0x2A8A JUMP JUMPDEST SWAP1 POP SWAP2 SWAP1 POP JUMP JUMPDEST PUSH32 0x4C6561736541677265656D656E743A205061796D656E7420697320746F6F206C PUSH0 DUP3 ADD MSTORE PUSH32 0x6F77000000000000000000000000000000000000000000000000000000000000 PUSH1 0x20 DUP3 ADD MSTORE POP JUMP JUMPDEST PUSH0 PUSH2 0x2B24 PUSH1 0x22 DUP4 PUSH2 0x20CE JUMP JUMPDEST SWAP2 POP PUSH2 0x2B2F DUP3 PUSH2 0x2ACA JUMP JUMPDEST PUSH1 0x40 DUP3 ADD SWAP1 POP SWAP2 SWAP1 POP JUMP JUMPDEST PUSH0 PUSH1 0x20 DUP3 ADD SWAP1 POP DUP2 DUP2 SUB PUSH0 DUP4 ADD MSTORE PUSH2 0x2B51 DUP2 PUSH2 0x2B18 JUMP JUMPDEST SWAP1 POP SWAP2 SWAP1 POP JUMP JUMPDEST PUSH32 0x4C6561736541677265656D656E743A204C6561736520616C7265616479207061 PUSH0 DUP3 ADD MSTORE PUSH32 0x696420666F720000000000000000000000000000000000000000000000000000 PUSH1 0x20 DUP3 ADD MSTORE POP JUMP JUMPDEST PUSH0 PUSH2 0x2BB2 PUSH1 0x26 DUP4 PUSH2 0x20CE JUMP JUMPDEST SWAP2 POP PUSH2 0x2BBD DUP3 PUSH2 0x2B58 JUMP JUMPDEST PUSH1 0x40 DUP3 ADD SWAP1 POP SWAP2 SWAP1 POP JUMP JUMPDEST PUSH0 PUSH1 0x20 DUP3 ADD SWAP1 POP DUP2 DUP2 SUB PUSH0 DUP4 ADD MSTORE PUSH2 0x2BDF DUP2 PUSH2 0x2BA6 JUMP JUMPDEST SWAP1 POP SWAP2 SWAP1 POP JUMP JUMPDEST PUSH32 0x4E487B7100000000000000000000000000000000000000000000000000000000 PUSH0 MSTORE PUSH1 0x22 PUSH1 0x4 MSTORE PUSH1 0x24 PUSH0 REVERT JUMPDEST PUSH0 PUSH1 0x2 DUP3 DIV SWAP1 POP PUSH1 0x1 DUP3 AND DUP1 PUSH2 0x2C2A JUMPI PUSH1 0x7F DUP3 AND SWAP2 POP JUMPDEST PUSH1 0x20 DUP3 LT DUP2 SUB PUSH2 0x2C3D JUMPI PUSH2 0x2C3C PUSH2 0x2BE6 JUMP JUMPDEST JUMPDEST POP SWAP2 SWAP1 POP JUMP JUMPDEST PUSH0 PUSH1 0x60 DUP3 ADD SWAP1 POP PUSH2 0x2C56 PUSH0 DUP4 ADD DUP7 PUSH2 0x1EAB JUMP JUMPDEST PUSH2 0x2C63 PUSH1 0x20 DUP4 ADD DUP6 PUSH2 0x2935 JUMP JUMPDEST PUSH2 0x2C70 PUSH1 0x40 DUP4 ADD DUP5 PUSH2 0x2935 JUMP JUMPDEST SWAP5 SWAP4 POP POP POP POP JUMP JUMPDEST PUSH32 0x4C6561736541677265656D656E743A20496E76616C69642063686F6963652066 PUSH0 DUP3 ADD MSTORE PUSH32 0x6F72206D696C6561676520636170000000000000000000000000000000000000 PUSH1 0x20 DUP3 ADD MSTORE POP JUMP JUMPDEST PUSH0 PUSH2 0x2CD2 PUSH1 0x2E DUP4 PUSH2 0x20CE JUMP JUMPDEST SWAP2 POP PUSH2 0x2CDD DUP3 PUSH2 0x2C78 JUMP JUMPDEST PUSH1 0x40 DUP3 ADD SWAP1 POP SWAP2 SWAP1 POP JUMP JUMPDEST PUSH0 PUSH1 0x20 DUP3 ADD SWAP1 POP DUP2 DUP2 SUB PUSH0 DUP4 ADD MSTORE PUSH2 0x2CFF DUP2 PUSH2 0x2CC6 JUMP JUMPDEST SWAP1 POP SWAP2 SWAP1 POP JUMP JUMPDEST PUSH32 0x4E487B7100000000000000000000000000000000000000000000000000000000 PUSH0 MSTORE PUSH1 0x32 PUSH1 0x4 MSTORE PUSH1 0x24 PUSH0 REVERT INVALID LOG2 PUSH5 0x6970667358 0x22 SLT KECCAK256 PUSH4 0x3769FC3C 0x4B SWAP16 PUSH30 0x66EDEA5DFA0561D19242094F3B97FF1D76110129FB3AB09D64736F6C6343 STOP ADDMOD BYTE STOP CALLER "
		},
		"gasEstimates": {
			"creation": {
				"codeDepositCost": "2325000",
				"executionCost": "infinite",
				"totalCost": "infinite"
			},
			"external": {
				"checkContractValue()": "444",
				"checkUpkeep(bytes)": "infinite",
				"confirmDeal()": "infinite",
				"extendLease(uint256,uint8,uint8)": "infinite",
				"getCarId()": "2543",
				"getCarNFT()": "infinite",
				"getCarNFTContract()": "infinite",
				"getContractDuration()": "2563",
				"getContractMileageCap()": "2568",
				"getCustomer()": "2582",
				"getDownPayment()": "infinite",
				"getMonthlyQuota()": "2498",
				"getcompany()": "infinite",
				"iscompanyConfirmed()": "2612",
				"leaseNewCar(uint256)": "infinite",
				"payMonthlyQuota()": "infinite",
				"performUpkeep(bytes)": "infinite",
				"registerDeal()": "infinite",
				"terminateLease()": "infinite"
			},
			"internal": {
				"checkForSolvency()": "infinite",
				"executeTermination()": "infinite",
				"getOptionsChoice(uint8,uint16[4] memory)": "infinite",
				"getOptionsChoice(uint8,uint16[8] memory)": "infinite"
			}
		},
		"methodIdentifiers": {
			"checkContractValue()": "f9a96071",
			"checkUpkeep(bytes)": "6e04ff0d",
			"confirmDeal()": "581a7310",
			"extendLease(uint256,uint8,uint8)": "28062897",
			"getCarId()": "8fc8e811",
			"getCarNFT()": "d9de1c03",
			"getCarNFTContract()": "ca15c67c",
			"getContractDuration()": "37bec583",
			"getContractMileageCap()": "e149b822",
			"getCustomer()": "650d993b",
			"getDownPayment()": "d6dd04f7",
			"getMonthlyQuota()": "f6fef779",
			"getcompany()": "dc26bf47",
			"iscompanyConfirmed()": "f707dc1d",
			"leaseNewCar(uint256)": "a7a4fb99",
			"payMonthlyQuota()": "d4805f24",
			"performUpkeep(bytes)": "4585e33b",
			"registerDeal()": "0f380a56",
			"terminateLease()": "1168c9a8"
		}
	},
	"abi": [
		{
			"inputs": [
				{
					"internalType": "address",
					"name": "carNFTAddress",
					"type": "address"
				},
				{
					"internalType": "uint256",
					"name": "_carID",
					"type": "uint256"
				},
				{
					"internalType": "uint8",
					"name": "_driverExperienceYears",
					"type": "uint8"
				},
				{
					"internalType": "uint8",
					"name": "_newContractDurationIndex",
					"type": "uint8"
				},
				{
					"internalType": "uint8",
					"name": "_mileageCapIndex",
					"type": "uint8"
				},
				{
					"internalType": "address",
					"name": "_companyAddress",
					"type": "address"
				}
			],
			"stateMutability": "nonpayable",
			"type": "constructor"
		},
		{
			"inputs": [],
			"name": "checkContractValue",
			"outputs": [
				{
					"internalType": "uint256",
					"name": "",
					"type": "uint256"
				}
			],
			"stateMutability": "view",
			"type": "function"
		},
		{
			"inputs": [
				{
					"internalType": "bytes",
					"name": "",
					"type": "bytes"
				}
			],
			"name": "checkUpkeep",
			"outputs": [
				{
					"internalType": "bool",
					"name": "upkeepNeeded",
					"type": "bool"
				},
				{
					"internalType": "bytes",
					"name": "",
					"type": "bytes"
				}
			],
			"stateMutability": "view",
			"type": "function"
		},
		{
			"inputs": [],
			"name": "confirmDeal",
			"outputs": [],
			"stateMutability": "nonpayable",
			"type": "function"
		},
		{
			"inputs": [
				{
					"internalType": "uint256",
					"name": "newContractDuration",
					"type": "uint256"
				},
				{
					"internalType": "uint8",
					"name": "driverExperienceYears",
					"type": "uint8"
				},
				{
					"internalType": "uint8",
					"name": "newMileageCapIndex",
					"type": "uint8"
				}
			],
			"name": "extendLease",
			"outputs": [],
			"stateMutability": "nonpayable",
			"type": "function"
		},
		{
			"inputs": [],
			"name": "getCarId",
			"outputs": [
				{
					"internalType": "uint256",
					"name": "",
					"type": "uint256"
				}
			],
			"stateMutability": "view",
			"type": "function"
		},
		{
			"inputs": [],
			"name": "getCarNFT",
			"outputs": [
				{
					"components": [
						{
							"internalType": "string",
							"name": "model",
							"type": "string"
						},
						{
							"internalType": "string",
							"name": "color",
							"type": "string"
						},
						{
							"internalType": "uint16",
							"name": "yearOfMatriculation",
							"type": "uint16"
						},
						{
							"internalType": "uint256",
							"name": "originalValue",
							"type": "uint256"
						},
						{
							"internalType": "uint256",
							"name": "mileage",
							"type": "uint256"
						}
					],
					"internalType": "struct Car",
					"name": "",
					"type": "tuple"
				}
			],
			"stateMutability": "view",
			"type": "function"
		},
		{
			"inputs": [],
			"name": "getCarNFTContract",
			"outputs": [
				{
					"internalType": "contract CarNFT",
					"name": "",
					"type": "address"
				}
			],
			"stateMutability": "view",
			"type": "function"
		},
		{
			"inputs": [],
			"name": "getContractDuration",
			"outputs": [
				{
					"internalType": "uint16",
					"name": "",
					"type": "uint16"
				}
			],
			"stateMutability": "view",
			"type": "function"
		},
		{
			"inputs": [],
			"name": "getContractMileageCap",
			"outputs": [
				{
					"internalType": "uint16",
					"name": "",
					"type": "uint16"
				}
			],
			"stateMutability": "view",
			"type": "function"
		},
		{
			"inputs": [],
			"name": "getCustomer",
			"outputs": [
				{
					"internalType": "address",
					"name": "",
					"type": "address"
				}
			],
			"stateMutability": "view",
			"type": "function"
		},
		{
			"inputs": [],
			"name": "getDownPayment",
			"outputs": [
				{
					"internalType": "uint256",
					"name": "",
					"type": "uint256"
				}
			],
			"stateMutability": "view",
			"type": "function"
		},
		{
			"inputs": [],
			"name": "getMonthlyQuota",
			"outputs": [
				{
					"internalType": "uint256",
					"name": "",
					"type": "uint256"
				}
			],
			"stateMutability": "view",
			"type": "function"
		},
		{
			"inputs": [],
			"name": "getcompany",
			"outputs": [
				{
					"internalType": "address payable",
					"name": "",
					"type": "address"
				}
			],
			"stateMutability": "view",
			"type": "function"
		},
		{
			"inputs": [],
			"name": "iscompanyConfirmed",
			"outputs": [
				{
					"internalType": "bool",
					"name": "",
					"type": "bool"
				}
			],
			"stateMutability": "view",
			"type": "function"
		},
		{
			"inputs": [
				{
					"internalType": "uint256",
					"name": "newCarId",
					"type": "uint256"
				}
			],
			"name": "leaseNewCar",
			"outputs": [],
			"stateMutability": "nonpayable",
			"type": "function"
		},
		{
			"inputs": [],
			"name": "payMonthlyQuota",
			"outputs": [],
			"stateMutability": "payable",
			"type": "function"
		},
		{
			"inputs": [
				{
					"internalType": "bytes",
					"name": "",
					"type": "bytes"
				}
			],
			"name": "performUpkeep",
			"outputs": [],
			"stateMutability": "nonpayable",
			"type": "function"
		},
		{
			"inputs": [],
			"name": "registerDeal",
			"outputs": [],
			"stateMutability": "payable",
			"type": "function"
		},
		{
			"inputs": [],
			"name": "terminateLease",
			"outputs": [],
			"stateMutability": "nonpayable",
			"type": "function"
		}
	]
}